:020000040000FA
:10000000C04C0020514D0000F7D600003D4D0000CF
:100010003D4D00003D4D00003D4D00000000000042
:10002000000000000000000000000000D14E0000B1
:100030003D4D000000000000694E00003D4D0000F5
:10004000895000008950000089500000895000004C
:10005000895000008950000089500000895000003C
:10006000895000008950000089500000895000002C
:10007000895000008950000089500000895000001C
:10008000895000008950000089500000895000000C
:1000900089500000895000008950000089500000FC
:1000A00089500000895000008950000089500000EC
:1000B00089500000895000008950000089500000DC
:1000C00089500000895000008950000089500000CC
:1000D00089500000895000008950000089500000BC
:1000E00089500000895000008950000089500000AC
:1000F000895000008950000089500000895000009C
:100100007BB972B90029BEBF00204FF0004106E064
:1001100008BF00281CBF6FF000414FF0FF3000F017
:1001200057B8ADF1080C6DE904CE002909DB002BAE
:100130001ADB00F069F8DDF804E0DDE9022304B021
:100140007047404261EB4101002B1BDB00F05CF883
:10015000DDF804E0DDE9022304B0404261EB410137
:10016000524263EB43037047524263EB430300F098
:100170004BF8DDF804E0DDE9022304B0404261EB16
:1001800041017047524263EB430300F03DF8DDF854
:1001900004E0DDE9022304B0524263EB43037047FD
:1001A00053B94AB9002908BF00281CBF4FF0FF31DE
:1001B0004FF0FF3000F00CB8ADF1080C6DE904CE43
:1001C00000F022F8DDF804E0DDE9022304B0704716
:1001D000704700BF10F8012B11F8013B012A28BF1E
:1001E0009A42F7D0D01A7047034611F8012B03F852
:1001F000012B002AF9D17047034613F8012B002A7E
:10020000FBD1181A013870472DE9F04786468C4615
:100210000846089E154674461946002B40F0C280D9
:100220008542B2FA82F245D94AB1C2F1200300FAFE
:1002300002FC2EFA03F3954043EA0C0C94404FEA7B
:10024000154EA8B2BCFBFEF8230C0EFB18CC08FB25
:1002500000F943EA0C43994528D9EB1808F1FF3718
:1002600004D2994502D9A8F102072B44A3EB090354
:10027000A4B2B3FBFEFC0EFB1C330CFB00F044EA03
:100280000344A04214D92C190CF1FF3304D2A0422C
:1002900002D9ACF102032C44241A43EA07401EB1F0
:1002A000D440002334607360BDE8F0874746DDE743
:1002B0006346F1E792BB431B01214FEA154EAFB2F3
:1002C000B3FBFEFC200C0EFB1C330CFB07F840EAD2
:1002D0000343984562D9EB180CF1FF3004D29845DE
:1002E00002D9ACF102002B44A3EB0803A4B2B3FB88
:1002F000FEFC0EFB1C330CFB07F744EA0344A74249
:100300004ED92C190CF1FF3304D2A74202D9ACF11B
:1003100002032C44E41B43EA0040C0E7C2F120037F
:1003200020FA03F1954090402EFA03F303434FEA7D
:10033000154EAFB2B1FBFEFC0EFB1C10190C0CFBF2
:1003400007F841EA0041884504FA02F422D9691805
:100350000CF1FF3004D2884502D9ACF102002944E7
:10036000A1EB08019BB2B1FBFEFC0EFB1C110CFBC8
:1003700007F743EA01439F420ED9EB180CF1FF3116
:1003800004D29F4202D9ACF102012B44DB1B41EAAB
:10039000004192E76046E3E76146F7E76046A3E77E
:1003A0006346B7E7834206D916B9002108467BE7C2
:1003B000C6E900E0F9E7B3FA83F78FB9834201D3C6
:1003C000724508D8BEEB020460EB030301209C4693
:1003D0001EB9002168E73846FAE7C6E9004CF8E79D
:1003E000C7F1200CBB4022FA0CF41C432EFA0CF18E
:1003F00020FA0CF3B84001434FEA14490EFA07F50E
:10040000B3FBF9F81FFA84FE09FB18300B0C08FB4C
:100410000EFA43EA00439A4502FA07F240D9E3187C
:1004200008F1FF3004D29A4502D9A8F10200234412
:10043000A3EB0A0389B2B3FBF9F809FB183308FBF5
:100440000EFE41EA03418E452CD9611808F1FF33B5
:1004500004D28E4502D9A8F10203214443EA0040A8
:10046000A0FB0298A1EB0E014145CE46434602D3C4
:1004700006D14D4504D2B9EB020E68EB04030138F6
:10048000002EA6D0B5EB0E0261EB030101FA0CFCC5
:1004900022FA07F34CEA0303F940C6E9003198E772
:1004A0004046C5E74346D9E72DE9F047064688B000
:1004B0000F4690460EF054FA4FF47A73A0FB0345B2
:1004C00003FB0155E40B012F44EA45444FEAD535BF
:1004D00007D1294922462B4630460CF0C6F80020A9
:1004E00012E0D8F8047025483946FFF773FE70B162
:1004F00023483946FFF76EFE48B1304621493A4657
:100500000CF0CFF86FF0040008B0BDE8F08720468B
:10051000294617A3D3E90023FFF7F2FD05460C4651
:1005200010461946184A0023FFF7EAFD80460F4699
:10053000104619464EF660220023FFF7E1FD824681
:100540008946104619464FF47A720023FFF7D8FD0A
:10055000CDE902A9CDE90623CDE90401CDE9008763
:100560000A492A46234630460CF07FF8B7E700BF19
:10057000005C2605000000000B0201001C020100C7
:100580001F0201002802010080EE36004002010037
:10059000F0B585B0044600AF4FF0FF324FF0FF33A7
:1005A0001A4809F063F91A4B0FCB07F1100505E95A
:1005B0000F001848184D036803F00703022B1DD9DC
:1005C0002B7807F1100202EB83036E4653F8101CE0
:1005D00002EB84038AB053F8103C6A46DFF83CC053
:1005E000D3610F4B13620F4BC2E905C142F8103FB4
:1005F00000234FF4235101F099FBB5462C700348BA
:1006000009F0ACF91437BD46F0BD00BF5C0800200E
:10061000A0F30000E40700208822002004FC000072
:1006200000020103040000022DE9F04F684C89B07C
:10063000002300AFC7E90233236803F00703022B4E
:1006400004D9644A032120460BF003F86248634D45
:10065000634E4FF0FF324FF0FF3309F003FA4FF0D3
:10066000FF3360484FF0FF3209F0FCF9236803F0D4
:100670000703022B04D95C4A554803210AF0E9FF1D
:100680000220FFF785FF4FF0FF324FF0FF3328467F
:1006900009F0ECF8B36852489B680822B9189847EB
:1006A0008046284609F05AF9B8F1000F40F08480DE
:1006B00007F1080303CB87F81080C7F81100C7F8CB
:1006C00015100EF04DF94FF47A72A0FB020302FBF5
:1006D0000131C00B40EA4140F86144480022002348
:1006E00007F1100109F002F840B1236813F0060F7A
:1006F00004D03F4A364802210AF0ABFF236803F0DA
:100700000703022B26D9C7F804D08EB097F808A0AB
:1007100097F8099097F80A8097F80BE097F80CC0C3
:10072000787BB97BFB7B6A46DFF8C8B053630A234A
:10073000C2E905BAC2E90798C2E909ECC2E90B01AE
:1007400042F8103F2248002345F2C00101F0EEFAC2
:10075000D7F804D00320FFF71BFF27484FF0FF32E4
:100760004FF0FF3309F07EF9236803F00703022BF3
:1007700004D9224A164803210AF06BFF4FF0FF32DA
:100780004FF0FF33284609F071F8B36800215B6829
:1007900030469847284609F0E1F80020FFF7F8FEB8
:1007A000236803F00703022B7FF659AF144A084869
:1007B00003210AF04EFF52E7236803F00703022BE0
:1007C000DCD9104A024803210AF043FFCCE700BFFE
:1007D000E40700201BFC0000CC08002020080020BB
:1007E000A0EF0000FC0800202EFC00008408002080
:1007F00052FC00007EFC0000E4080020C4FC000065
:10080000DDFC0000B4FC000008B50748036803F0F5
:100810000703022B03D9054A03210AF01AFF0448F3
:10082000BDE8084009F0EAB8E4070020FBFC00003E
:10083000FC0800202DE9F04F5C4C8BB0236803F0DE
:100840000703022B00AF04D9594A032120460AF0BE
:1008500000FF564D57484FF0FF324FF0FF3307F17E
:10086000080108F09FFF0028F4D13B7A012B74D0D7
:10087000022B00F09580002BECD1226802F00702D9
:10088000022A25D9C7F804D08EB097F809A097F8A6
:100890000A9097F80B8097F80CE097F80DC0BE7B94
:1008A000F87B397C6A46DFF810B151630A21C2E94E
:1008B00005BAC2E90798C2E909ECC2E90B6042F83F
:1008C000101F45F2C001284601F030FAD7F804D0D5
:1008D0003A4B07F1180203F1100E94461868596854
:1008E000164603C6083373453246F7D108226146DF
:1008F00007F109000EF0F6F92668B0B906F0070610
:10090000022E0ED92E4A032128460AF0A2FE2368A1
:1009100003F00703022B04D92A4A032128460AF0D0
:1009200098FE294809F06AF894E7082207F12001A7
:1009300007F109000EF0D6F90028DFD016F0060FF7
:1009400004D0224A022128460AF083FE236803F0DD
:100950000703022BE5D91E4ADFE7236803F00703EC
:10096000022B7FF677AF7B691A4A032128460BF0EA
:100970005EFC236803F00703022B7FF66BAF164A79
:10098000032128460AF065FE236803F00703022BC3
:100990007FF660AF114A032128460AF05AFE59E754
:1009A00023685B07BDD00E4A0121B7E7E4070020AA
:1009B00013FD0000840800202DFD0000B0F30000AE
:1009C00065FD00007DFD0000E408002094FD0000AE
:1009D000AEFD0000C4FD0000D6FD0000FAFD0000E1
:1009E00019FE00002DE9F043714C236803F0070362
:1009F000022B89B004D96F4A032120460AF029FE50
:100A00006D4D28460DF0B9FD68B923685C0704D028
:100A10006A4A674801210AF01CFE6FF01205284659
:100A200009B0BDE8F083664E30460DF0A6FD20B952
:100A300023685807F1D0634AEBE7AF6828463B6864
:100A40009847014650B12368590704D05E4A584878
:100A500001210AF0FEFD6FF00405E0E77B682846FF
:100A6000984720B123685A07F5D0584AEFE7326912
:100A7000B768136843F0100313603B68544A0421BD
:100A800030469847054648B123685B07C7D0514AAE
:100A90000346012146480BF0CAFBC0E74E494F4BC5
:100AA0004B6010238B60FB6913B1012230469847DD
:100AB000236803F00703022B04D9494A3C48032169
:100AC0000AF0C7FD4FF000084FF0000900256FF055
:100AD0000803CDE90335CDE90689CDE90155414B40
:100AE000414900954FF40062404809F0E5F840495B
:100AF0003E4809F013F86FF00903CDE90253CDE940
:100B00000689CDE900553B4B3B4904954FF4006203
:100B10003A4809F0D1F83A49384808F0FFFF394817
:100B200008F06CFF236803F00703022B0ED9364A46
:100B30001F4803210AF08DFD236803F00703022BF1
:100B400004D9324A1A4803210AF083FDB3689D692B
:100B50006DB133691A481B6813F0100F14BF4FF0C2
:100B600000734FF080634FF0A0720421A84700206B
:100B7000FFF70EFD264E274D274F337893B12B6894
:100B80000A210133B3FBF1F201FB12322B604AB9A7
:100B9000226802F00702022A04D905483A460321D6
:100BA0000BF045FB002140F6CD400DF05FFEE4E781
:100BB000E40700202CFE0000A0EF000060FE000013
:100BC00040EF000078FE000096FE0000B2FE00003C
:100BD00011000100CDFE000054160020090800009D
:100BE000F2FE000029060000402B0020D009002062
:100BF00016FF00003508000000230020180900201F
:100C000022FF0000CC08002030FF000059FF000048
:100C100088220020501600206DFF00002DE9F04FC3
:100C200091B08407009302F004030293C2F3C2035D
:100C300003F10103DDF86880039205460E46059333
:100C400040F0BA81041D30B1072909D86FF01B00AC
:100C500011B0BDE8F08F01F007063444C6F1080674
:100C6000009B4FF00009591E4FF0040A4FF0FF336C
:100C70000193CDF810904F46CB4653460DB1009AE4
:100C800022600598002800F3E8809848009A824284
:100C900003D397488242C0F0E080039AA4EB050E8C
:100CA00092074FEA9E0000F103810F2F00F2B180FE
:100CB000002D00F0058107F140020DEB020C019AB6
:100CC0000CF8200C0CF8102C049801300490E7E08C
:100CD0007A285DD84B280ED8472859D829282DD8EE
:100CE000252852D054D820287AD02338D0F1000BB0
:100CF0004BEB000B74E04C382E2849D8DFE800F0AD
:100D00007048484848484848484848484B48484838
:100D1000484848484859484B4B595959704B6D48B9
:100D20007048184B184848827F4B48484B487F0012
:100D300000204FF0000B4FF0040A38E02A38C0B210
:100D4000012202FA00F010EA0E0F49D110F0625CA5
:100D50002FD110EA020B43D06046013C5444B4FB4F
:100D6000FAF40AFB04F4002D61D0A3EB050CA444B3
:100D7000B4453FF66BAF002868D1042B47D158F833
:100D8000043B2360043404232AE0019A013A0192CF
:100D90004FF0000B24E011F8010C6C2834D111F84D
:100DA000023C00206C2B8346C5D14FF0080A534605
:100DB000D3E708F1070828F007080734F8E802AB82
:100DC00024F0070435B106982044B0423FF63EAF08
:100DD000C4E900AB08344FF0000B4FF0080A53464B
:100DE00011F8010F002878D0BBF1000F7FF470AF2D
:100DF0002528F5D1019B013301934FF0010B4FF0F2
:100E0000040AECE7584694E700208346A5E7082B40
:100E100002D06FF015001BE708F1070828F007085B
:100E2000F8E80223C4E9002308340823D8E768B9A6
:100E3000042B02D108F10408A4E7082BE9D108F13A
:100E4000070828F0070808F10808EDE7059A013AB5
:100E5000059258F8042B009210E7039A900720D5CA
:100E6000A4EB050E4FEA9E004FF0010CBEF5007F8B
:100E7000CFD20F2FCDD8F5B107F140020DEB020E06
:100E8000C0B2019A0EF8200C0EF8102CBCF1000F25
:100E90003FF41AAF60F07F000EF8200C09F1010951
:100EA0000137C5F10802043406924FF6DA7E97E75F
:100EB0004FF0000CDAE7BCF1000F01D00136EFE78C
:100EC000029802360028EBD10098CDE90631FFF7F1
:100ED00093F9DDE906310644E2E7631BB3F5806F61
:100EE00097D23DB9A6F10804E018B1E678EE00000B
:100EF000001D0100029A28609B082B709DF810309D
:100F0000C2B1EB7085F80290B9F1000F05D008A8C6
:100F10000022C5F1010C97420ED1C5F101030DF17C
:100F200020084FF0000A01930DF1300B574512D104
:100F3000601B8DE66B70E5E710F8013B190608D5DC
:100F40000CEB040EB64503F07F033FF67FAE04F8CA
:100F5000013B0132DFE7B9F1000F03D098F900201F
:100F6000002A17DB029BD3B11AF80B2004F8012BDF
:100F70000022019B18191044B0423FF667AE98F862
:100F8000000004F8010B0099039220460DF07AFE50
:100F9000039A14440AF1010A08F10108C6E798F817
:100FA000002055F822300093029B45F8223000982B
:100FB000FFF722F9421CDCE76FF00D0048E600BFA6
:100FC0002DE9F04F97B000AF90F802A0D7F880B0AD
:100FD0003B62CBF3C0030446FA62BB61894641B968
:100FE000457800780AEB800020444D4517D8A0EBE7
:100FF0000409E378FB61BAF1000F02D01BF0010F86
:1010000016D1FB6953BBFB6A1BB13A6A49462046BD
:1010100098474D4628465C37BD46BDE8F08F461CD4
:101020003046FFF7E9F80130304409F10109DCE707
:10103000237862687A62FA6A9900796104EB830125
:10104000002A40F004814D460E4601EB0A094FF09C
:1010500000084E4550D101EB0A0610E01BF0020FCC
:10106000D1D023789A007A6162687A62FA6A04EBD6
:101070008301002A7BD14D4601EB0A0690461BF006
:10108000050F0CBF02230123FB62FB6906EB430A39
:101090000BF00203BB625645BCD016F8021B16F8D3
:1010A000013C54F823909B4B994502D39A4B9945A8
:1010B0003AD3BB69002B44D0786A0AF0DDFB0028E4
:1010C0003FD09648036813F0060F13D0E9468AB064
:1010D0006A46934B53617B6AC2E906314FF4007351
:1010E0001384904B42F8103F00234FF4125100F04C
:1010F0001DFECD46023DCEE716F8013BF96254F8DD
:101100002300FFF779F8D7F88430F96A01304BB142
:10111000D7F8883098453EBFD7F8843023F81800B8
:1011200008F10108054494E7BB6923B1786A0AF025
:10113000A3FB0028C5D11BF0010F05D1FB6AED1AF6
:10114000A9E7BB6A002BA6D04846FFF755F8D7F8A9
:10115000843053B1D7F8883098453FBFD7F8842002
:10116000431C22F8183008F10108054493E7BAF14E
:10117000000F72D01BF0040672D0D046002607F193
:10118000480052463B61B9620DF07CFDB96A3B698B
:1011900001EB0A02BA62FA69F9695200FA60BA6AA6
:1011A00002EB41023A610BF00202BA603A69B96A95
:1011B0008A4257D162787A621BF0020F32440CBF28
:1011C0004FEA580100211BF0010FD2B240F09F807E
:1011D0001BF0040F14BF40460020BB616270A0707A
:1011E000E1703A6A7969FB6A20469847051EFFF666
:1011F00011AFBB6923707B6A6370FB69E370414682
:101200003A6AFB6A84F802A007F148009847B0F1F7
:101210000008C0F2BB807B693A6AA9EB0A01C91ACF
:10122000FB68C91AD7E90A0398470028C0F2B080C2
:10123000A84408EB00054FF0000B07F1380AB3454E
:1012400072D300213A6AFB6A08469847E2E656469E
:101250004FF0000807F1380093E75646D04697E76D
:10126000B04695E7BA6A12F8021BBA6212F8015C3E
:10127000284A54F82500904202D3274A90421ED3B0
:10128000BA6932B1786A7B600AF0F6FA7B680028A6
:101290008CD1BA6802BB08F1280207F1300C08F1C2
:1012A0000100944407F1580252FA80F008F1020854
:1012B0000CF8101C5FFA88F800F8105C76E7BA6941
:1012C0003AB1786A7B600AF0D7FA7B6800287FF42D
:1012D0006DAF1BF0010F09D006F1280207F13000B5
:1012E000711C161806F8205CCEB25FE71BF0040FE5
:1012F0003FF45CAF08F1280207F1300008F101016A
:1013000002EB000808F8105C5FFA81F84EE7002055
:1013100063E700BF78EE0000001D0100D007002049
:10132000C4FF0000040000011BF80A3087F83730C2
:1013300054F82390D7F884302BB3D7F888309B45E6
:1013400021D2D7F8843033F81B803A6AFB6A012136
:1013500007F13700984700281ADB0544B8F1000F61
:1013600006D14846FEF748FF00F101081FFA88F849
:101370003A6AFB6A414648469847002808DB05441C
:101380000BF1010B5BE74FF00008DEE7454641E655
:1013900005463FE6014B1860704700BFC0040020BF
:1013A00080B505460E461746984608F03DFF0346B1
:1013B0000DF058FDDFF81890044649F80030424619
:1013C00030463946A84754F8090003F037FD00BFFE
:1013D000080000002DE9F047058B044628079046D9
:1013E00011D4022905F0070540F0CC8020460AF010
:1013F000D8FC78B10138218B042811D8DFE800F03F
:10140000C2106D85950001290CBF45F0100545F00F
:101410002005258388F31188BFF36F8FBDE8F0871F
:1014200001F0070AAA4500F0A5800027B9463E460C
:10143000A368002B00F0BC8041F00801218388F3F1
:101440001188BFF36F8FA168002900F0BA800D6882
:10145000002900F0B680D1F8048033465246204679
:10146000C047002D76D02B6829461D46F0E701F0D5
:1014700007035A1F012A1BD8002221F00701062B5F
:10148000276889B2C4E9002209D13B4603E0628B98
:10149000013262831B68002BF9D141F002012183E4
:1014A00020460AF07EFC00287AD041F0200176E048
:1014B000042B0AD121F0070189B2218320460AF0CA
:1014C00070FC10B141F020012183218B01F0070A4B
:1014D000AA454FD00027B946AAE7236921F00701A2
:1014E00041F00601062DD3F8009021832DD1B9F1EA
:1014F000000F3FD041F00801218388F31188BFF32A
:101500006F8F3A492046C84729E021F00701236937
:1015100041F0040189B2042DD3F804902183E6D070
:1015200000273E464FF0040A82E721F007012369B5
:1015300041F0050189B2052DD3F808902183D6D05A
:1015400000273E464FF0050A72E700273E464FF05F
:10155000060A6DE72B4687E7B9F1000FD1D1EFF30B
:101560001188202383F31288BFF36F8F238B23F01E
:1015700008032383258BEA062ED525F01003238349
:1015800005F007056669218B002EBFF670AF0023BA
:101590002768C4E9003321F0070141F001012183EC
:1015A000218B01F0070AAA454FF000097FF440AFF4
:1015B000002F9CD041F00801218388F31188BFF3EC
:1015C0006F8F002FC8D03D683946334652462046BB
:1015D0000AF013FC2F46F4E7AB067FF51BAF25F0AE
:1015E0002003238305F0070500E700BF27BE0000A6
:1015F0002DE9F047DFF85880044607464FF001090F
:1016000014B93846BDE8F08794FAA4F5B5FA85F523
:1016100009FA05F32E0108EB05156FEA030A24EA1F
:1016200003042B7B002BEBD058F806301B694BB919
:101630004644042273682846196807EA0A0700F03E
:1016400035FBDDE7284698470028D9D1F0E700BFF1
:101650004CF2000030B51049104889B000220DF05E
:1016600081F90F4D0F4900220023CDE90623002404
:101670000E23CDE90334CDE901440B4B00944FF424
:101680004072284608F018FB0849284608F046FA38
:10169000204609B030BD00BFB1160000480F002041
:1016A000880A002080330020F11900007800010032
:1016B000014808F0A3B900BFB40800202DE9F047A5
:1016C00080461F480F460AF00FFD0646002830D01E
:1016D00000252846BDE8F087237B6BB12368DB68D3
:1016E0000BB12046984723681B69D3B9636804226D
:1016F0001968204600F0DAFA013610344C45EBD375
:10170000B8F1000FE5D0002DE2D02846FFF770FFBA
:101710000546002FF7D000214FF4A4700DF0A6F875
:10172000F1E7204698470028E0D00AFA06F31D4367
:10173000E2E7044CDFF8109005464FF0010ADDE7C0
:10174000701600204CF200006CF20000014B53F8C0
:10175000200070473CF4000008B5034608462BB152
:10176000044A136000F084FD002008BD6FF01500EE
:10177000FBE700BFC404002010B5044C237813B964
:10178000034808F03BF90123237010BD8922002093
:10179000B408002010B504460B480AF0A5FC5CB163
:1017A000BFF35B8F094B53E8001F013943E8001278
:1017B000002AF8D1BFF35B8F05480DF0DFF805482C
:1017C000BDE8104008F01AB9681600206C16002019
:1017D000480F0020B40800200020064BBFF35B8FA9
:1017E000014653E8000F43E80012002AF9D1BFF385
:1017F0005B8F70476816002070B5FFF7EDFF084C4F
:10180000084E0546B44200D370BD63685B792BB1C6
:1018100023685B6813B12946204698471034F1E7E6
:101820004CF200006CF2000010B5044C0449204654
:101830000AF050F9034B1C6010BD00BF8C0700205C
:1018400028F4000060160020094A0A4808B5002361
:101850001370094A1360094A4FF400411360FFF7FF
:101860007BFFFFF7E1FFBDE8084000F06FB900BF64
:101870008A220020E5C00000681600206C160020B7
:1018800001460022014800230AF045B98C070020D8
:1018900001480AF0DEB900BF8C070020024B014668
:1018A00018680AF02ABA00BF6016002001480AF042
:1018B0005FBA00BF8C0700202DE9F041354B187846
:1018C000002864D0FFF7E4FF044698B1BFF35B8FB4
:1018D000314B53E8001F013943E80012002AF8D1C8
:1018E000BFF35B8F2D4DDFF8B88045452DD32046E3
:1018F000FFF7D4FF2B4B2C4C1B68002B19DD0DF090
:101900002FF84FF47A72A0FB020302FB0131C30BE4
:10191000D4E9002043EA41439B1A4FEAD13140F217
:10192000E93261EB0001934271F1000101D3FFF74D
:1019300063FFD4E9003213F57A7342F10002C4E97F
:101940000032BDE8F041FFF7B1BF6B685B793BB196
:1019500021784B0706D52B6821461B6828469847F7
:101960001035C2E720462688C1F3C20700F0BEFA50
:10197000C6F382160246002EEDD00028EBDB0123D1
:101980003946284600F0ACF9B042E9D3E3E7BDE8B8
:10199000F08100BF892200206C1600204CF200006C
:1019A0006CF2000068160020400F002070B50D4D4D
:1019B000297861B90120FFF781FE0B4C0B4EB44230
:1019C00006D3FFF779FF0028FBD101232B7070BDF0
:1019D00063685B791BB1236820469B689847103485
:1019E000EDE700BF8A2200204CF200006CF20000FC
:1019F00000212DE9F0470846FFF760FE044658B382
:101A000040F267684FF000090DF02CFA1B4B1C4A9E
:101A10001B58136033B11B4B1B68092B02DD1A489E
:101A200007F0ECFF194FDFF860A0002544B1204615
:101A3000FFF7DEFD044618B94FF0FF384FF0FF39CD
:101A4000FFF73AFF064628B9B5B942464B4650461D
:101A500008F008F83546E9E74FF0FF384FF0FF3956
:101A6000D2E72B689B691BB1002211462846984794
:101A70001035BD42F5D3E8E7054DFAE70800000050
:101A8000641600206C160020B40800206CF20000E0
:101A90004CF2000013B518480AF026FB174B1B78D0
:101AA00073B1EFF31184202383F31288BFF36F8F98
:101AB000FFF702FF84F31188BFF36F8F02B010BDF0
:101AC0000F4B1B68002BF9D050B900220023CDE941
:101AD00000230C484FF40042002308F0B7FEEDE766
:101AE0000928EBD107480CF049FF074802B0BDE8D0
:101AF000104007F083BF00BF6C1600208A22002030
:101B000064160020480F0020B408002010B5064BD2
:101B10001B68044698472146A06004480AF07AF8FA
:101B2000BDE81040FFF7B6BFC40400208C070020BA
:101B3000044A054B9B1AB1EBD30F34BF52F8310066
:101B400000207047D4F100004CF200000B480C4B11
:101B500030B51B1A0B4CDB0800210430994200D130
:101B600030BD10F83120256802F0070225F0070586
:101B70002A4344F8042B0131F0E700BFD4F1000000
:101B80004CF20000D0070020F8B50B4F0B4DED1BB9
:101B90000646ED080024AC4203D14FF0FF34204646
:101BA000F8BD57F8340020B13146FEF713FB00288A
:101BB000F5D00134EFE700BFD4F100004CF2000093
:101BC00000282DE9F047884615461F461DDADFF844
:101BD0009890264E4FF0000AA6EB090636095446A7
:101BE000B24509F1100902D12046BDE8F08759F845
:101BF0000C0C3B4600792A464146FFF7E1FF844240
:101C000038BF04460AF1010AEAE7194B194AD21A09
:101C1000B5EBD20F26D203EBC5031C79BC4228BF1B
:101C20003C46154EC0B200EB400056F82530072266
:101C3000824023EA020304F007028240134300219A
:101C4000032223FA02F000F00700814202F10302AE
:101C500038BF01461E2AF4D123F007030B4346F890
:101C60002530C1E70024DCE74CF200006CF20000F4
:101C7000D4F100004CF20000D0070020F8B5094D67
:101C8000094BED1A06460F46ED080024AC4200D37E
:101C9000F8BD002122B23B46304601340AF044FA36
:101CA000A4B2F3E74CF20000D4F1000038B50B4BBE
:101CB000C31A0D461B111146426801331371436864
:101CC00004469971FFF7DAFF63681D6063680122BB
:101CD0005A71BDE83840FFF74FBD00BF4CF200001D
:101CE00070B14168097973B1002A17DBCBB20C4996
:101CF00051F8220003EB4303D84000F0070070477F
:101D00004FF0FF31EFE707490748401AB2EBD00F19
:101D10003ABF01EBC20108791846704704207047AA
:101D2000D0070020D4F100004CF200002DE9F04F64
:101D30008FB004AFC1F34A28B8600D4691467B606E
:101D40000C0DB8F1000F67D0002607F114034FF017
:101D5000040B4FF00A0AC7F80C80C7E907667E62D9
:101D60000193CDF808B0CDF800A007F11C03F96885
:101D700032464846FFF724F9B0F5006F034620D3FA
:101D80002A48036813F0060F17D06C468AB0D9F8BA
:101D9000041004AB264DC3E9055140F2FF71D9612F
:101DA0001A464FF400711984224B42F8103F4FF449
:101DB00012513346FFF7BAFFA5462C37BD46BDE8A2
:101DC000F08FC0F30A0804F11700184420F0070050
:101DD00080083B60FFF754FD68F35325044690B13B
:101DE0003B68154AC7E9083600F1100107F11403F2
:101DF000F961CDE900A3CDF808B0F96807F11C033B
:101E00004846FFF7DDF868F353257B68B9682A4632
:101E100020460AF0B3F9D0E704F1170020F00700DC
:101E20008008FFF72DFD0446EDE700BFDC0700202A
:101E30008D0001000400000151C100002DE9F04FA8
:101E400087B0DDE91279DDE9105A04460391934623
:101E50009846DFB1CDF800903B4652461021002055
:101E6000CDF81490FEF7DAFEB0F5006F06460ED3FB
:101E70001C48036813F0060F30D01B4A40F2FF7372
:101E8000022107B0BDE8F04F0AF0D1B93E4605F196
:101E90001700304420F0070004F007048008FFF723
:101EA000EFFC0BF0070BE40044EA8B1444EA4624F1
:101EB00044EA0554054640B13FB1CDF800903B4699
:101EC000524631461030FEF7A9FE0399434622469A
:101ED000284607B0BDE8F04F0AF050B907B0BDE89A
:101EE000F08F00BFDC070020CC000100406820B16B
:101EF000034BC01A40F38F0070474FF0FF3070471C
:101F0000D00700200EB403B503AB014653F8042BF1
:101F10000448019303F046FA02B05DF804EB03B005
:101F2000704700BF79C20000CA0605D48B064CBFBB
:101F300002490349FFF7E6BF704700BF7E04010076
:101F4000040101002DE9F04F89B09B46149B0693D4
:101F50009DF84CA0159B0593169B179E0493044671
:101F60000D469046BAF1000F00F09D8006F4807394
:101F700007930AF0D7F806F00209024600283ED07F
:101F800091492046FFF7BEFF0746B9F1000F08D080
:101F900016F0440F35D18D492A462046FFF7B2FF8F
:101FA000074406F0010353B1894B8A4953F82A20AC
:101FB000894B2046002A08BF1A46FFF7A3FF06F404
:101FC0008073002B49D006F00803002B63D1B8F1D1
:101FD000000F66D0814942462046FFF793FF054631
:101FE000069B3D44002B6DD1049B002B73D1F3075E
:101FF00000F1E48031462046FFF796FFD8E007461F
:10200000C3E7774B18680028CAD0764B4FF47A792B
:102010001B68B5FBF3F54FF46163B5FBF0F100FB12
:10202000115509FB05F54FF03C0CB1FBF3F203FB36
:102030001211B5FBF0FEB1FBFCF300FB1E550CFBCF
:10204000131109FB05F50091B5FBF0F56649CDE9E3
:1020500001E52046FFF756FFA2E706F00803EBB1C3
:10206000624B634953F82A202046FFF74BFF054691
:10207000B8F1000F05D0594942462046FFF742FF0C
:102080000544BBF1000FABD05A495A462046FFF732
:1020900039FF0544A4E74FF0000BE1E706F008051F
:1020A000E6E745469CE7BBF1010F069B06D1002BF6
:1020B00064D1049B002B7BD000250CE0002BF8D0D2
:1020C0004D485CE04D48069B4D49224609F0A3FB74
:1020D000049B002B68D0DFF82C81DFF82C91049F43
:1020E0003146102F204628BF1027FFF71DFF4FF065
:1020F000000B5D4545DC059B49461A782046FFF7F5
:1021000001FF4FF0010B1BF0070F03D141462046A2
:10211000FFF7F8FE5F453BD9059B494613F80B20B6
:102120002046FFF7EFFE0BF1010BBBF1100FEAD1D8
:10213000364920464FF0000BFFF7E4FE5A46059B58
:102140009A5CA2F120015F2928BF2E223049204647
:10215000FFF7D8FE0BF1010BBBF1100F1DD01BF0E8
:10216000070F03D141462046FFF7CCFE5F455A4694
:10217000E5D841462046FFF7C5FEEBE71F48554628
:10218000A1E741462046FFF7BDFE0BF1010BB0E78A
:1021900020492046FFF7B6FEC5E7059B3B44059363
:1021A000049BDB1B04939AD1BAF1000F7FF41FAF9D
:1021B000204609B0BDE8F04F0AF051B8064A05497B
:1021C0002046FFF79FFE15E70C01010010010100FA
:1021D0004CF4000067050100070101003501010012
:1021E00078160020741600201901010060F4000028
:1021F000390101003F010100AFC2000079C20000B7
:10220000A55300004C010100440101004E010100F2
:102210008C0B01004A01010073B542F20F738B422F
:1022200028BF0B4605680F4A04460521684608F09A
:1022300021FF63680C495B6806460B2228460AF0BA
:1022400000F863683246694628465B6809F0F9FF82
:10225000636806495B681B22284609F0F2FF02B05A
:1022600070BD00BF941A01006C0101005001010013
:10227000074A00210123904206D8064A01B90123EA
:102280001360054B1860704740085B000121F2E7BE
:1022900040420F007416002078160020014B0122E6
:1022A0001A7070478B220020014B00201960704784
:1022B000901600200148FFF7AFBF00BF90F4000068
:1022C00010B5064B18680C46FFF740FA2146034646
:1022D000BDE8104002480F22184700BF90160020AA
:1022E00090F40000F8B5094D094B0A4ED5E90047B6
:1022F00001221A700CB92C60F8BD214630463A46CE
:1023000000F01EF8241A0644F4E700BF84160020EB
:102310008C2200208D22002010B9074B18707047C6
:10232000064B1B781BB141F288300CF021B9A42078
:1023300000210CF09BBA00BF8B2200208C220020D1
:102340002DE9F047DFF878901E4F80460E460424B2
:1023500099F80050A5B90CF057F83246824641462C
:10236000284606F0B5FB054650460CF055F8E5B199
:1023700001233B7099F8003073B93046BDE8F0870F
:1023800032464146002006F0A3FB0546EFE7204613
:10239000FFF7C2FF651E2C46002006F0DDFB00287B
:1023A000EBD03B78002BF2D1E7E73B78002BE4D071
:1023B000013C2046FFF7B0FF3B78002BC8D1DCE79B
:1023C0008C2200208B220020014B036000207047EC
:1023D000A0F4000010B504460BF0A3FE034902462A
:1023E00020460AF042F9002010BD00BFBF010100E5
:1023F00073B5134600220192044601AA58680A21C7
:1024000001F0F0FB019D95B920EAE0744FF400461D
:10241000294640F2E7304FF47A720023C4FB0601EC
:10242000FDF7BEFE0CF022FA284602B070BD2A4627
:10243000024920460AF035F9019DF5E7EB0101005C
:1024400008B5034A03490AF010F9002008BD00BF8F
:10245000D2020100D90201002DE9F3411746002301
:10246000044601AAB86801930A2101F0BBFB019D53
:10247000C6B24DB12A46144920460AF012F9019D10
:10248000284602B0BDE8F081042E09D90F49324632
:1024900020460AF006F920460AF03FF90125EFE749
:1024A0007868FFF771FBB0F1000804DA7A68084930
:1024B00020460AF0F6F8002133460FFA88F2084663
:1024C00009F032FEDCE700BF040301002B0301002A
:1024D0004203010010B5044604F02CFF07490246F0
:1024E00020460AF0C2F8204605490AF0BEF8054821
:1024F000214607F0E1FF002010BD00BFA10301004D
:10250000C00301000925000070B58EB004460D46D9
:10251000D0F89C600CF0FEF803460CF0A3FC214AB6
:1025200021491058214A002B18BF1A460092204A10
:102530002346844218BF0A4628461E490AF095F8E9
:10254000D4E90A23CDE90023284694F90E30227BF2
:1025500019490AF08AF806A92022204607F0EEFA67
:10256000636E1649024628460AF07FF805A9204600
:102570000CF0DEF8024628B1114928460AF075F839
:102580000EB070BD059B6422F11A4A430091B2FB64
:10259000F6F20C49CDE90162284632460AF065F8A8
:1025A000EEE700BF080000004C010100CA03010073
:1025B000C2FD0000CD030100D903010005040100A4
:1025C0001C04010049040100F0B5002591B0044647
:1025D000294608AF1C2209A80CF07CFB134E1A22D6
:1025E000202138460CF076FB2146114807F064FFA5
:1025F00007AA4FF4006130460CF08EF8079A009756
:10260000C2F5006164234B43DB0A05934FF400637A
:10261000CDE90313CDE90132204606492B46A6F148
:1026200040020AF022F8284611B0F0BD403F0020D9
:10263000392600009A04010070B50446D0F89C6069
:1026400088B00D4607A90CF073F8024628B10F496F
:1026500028460AF00AF808B070BD20460CF05AF877
:10266000079B0096F11ACDE90131094B64224A43D8
:10267000002818BF0346B2FBF6F20649CDE9036213
:102680002846224609F0F1FFE5E700BF1C040100DF
:10269000CA030100E30401002DE9F04F87B00446AE
:1026A000684606F00BFE009F284ADFF8A4A0DFF87A
:1026B000A4B0182303FB00770821204609F0C8FFC7
:1026C000009DBD4203D3002007B0BDE8F08F2B680A
:1026D0000BB11A7832B92B461F4A142101A808F011
:1026E000C9FC01AB52460821204609F0B1FF28463B
:1026F0000BF043FF194B1A4A002808BF5B4608211C
:10270000204609F0A5FF6B69A3B11E6896B1336836
:1027100083B1144A0821204609F09AFFB1464FF0D0
:1027200000083368104A434506D8104A082120465D
:1027300009F08EFF1835C4E759F8043F08212046F8
:1027400009F086FF08F10108EBE700BF560501001C
:10275000650501004D050100600501004705010008
:10276000EB0B01006A050100660501007E04010013
:102770002DE9F04114468846074610226068002182
:1027800008F0A4FCB8F1020F064607D8254A20231A
:102790000821384609F05CFF336816E00A22002160
:1027A000A06808F093FCC5B21E4A2B4608213846A3
:1027B00009F04EFFB8F1030F1AD1102D0CD0202DC7
:1027C000EAD0082D0BD13378DBB2174A08213846FE
:1027D00009F03EFF002009E033889BB2F5E7384658
:1027E000124A082109F034FF6FF01500BDE8F081AE
:1027F000E0681022002108F069FC0D4A03460446F7
:102800000821384609F024FF102D06D0202D07D0CE
:10281000082DE4D1E4B23470DCE7A4B23480D9E707
:102820003460D7E7AB050100D6050100C005010003
:10283000E70501002DE9F04F87B000230193524BCB
:10284000DFF848A191460122074688461A6002F047
:10285000EBFD4FF0FF3520262C46494652464046B8
:1028600002F006FE411C06D16A1C41D14849384697
:1028700009F017FF17E073281AD0772828D06128AD
:1028800011D1DFF810B101AADBF80000102101F02E
:10289000A9F9019B0546002BDFD0DBF800203E495B
:1028A000384609F0FEFE6FF0150007B0BDE8F08F66
:1028B000DFF8E0B001AADBF80000002101F092F996
:1028C000019B0446002BC8D0DBF800203349E7E722
:1028D000DFF8C0B001AADBF80000002101F082F9A6
:1028E000019B0646002BB8D0DBF800202C49D7E727
:1028F000631C01D12B49BAE75FFA86F8C6F3C40618
:10290000002C3FD002AB29461A46A6EB050C0CE082
:10291000B8F1100F1DD0B8F1200F20D0B8F1080F7A
:102920002AD10878187031443344A64203D80CEBFE
:1029300001001028ECD9102CA14628BF4FF0100937
:1029400029464B46384601F025F81035A4EB09041A
:10295000D6E7088880B21870000A5870E3E7086864
:1029600018704FEA102E83F801E04FEA104E000E67
:1029700083F802E0D870D6E70B4A0821384609F000
:1029800067FE90E7204690E75005002035060100DD
:102990003C060100681F0020FB0501000E06010037
:1029A0002106010059060100C005010070B50F4E57
:1029B000044633780D4671B123B1BDE870400C492F
:1029C00009F06FBE012333700A49204609F04DFE1D
:1029D0000123337004E083F001033370002BF3D143
:1029E00029462046BDE8704009F0B4BE9D22002073
:1029F00073060100AE06010070B504463B4803783B
:102A0000182B02D10B78112B31D0013A0B468D18BF
:102A1000AB4225D18B5C0A780370A2F13003092BFD
:102A2000334C04D922F02003413B052B04D8236802
:102A30003049CA54013323602368022B33D110225A
:102A40002C48002108F042FB2B4A136803F8010BC5
:102A500013602A4A1368013313600023236022E0C5
:102A600013F8016B182ED3D11E78112ED0D1234D1F
:102A700023492A68204609F0F8FD20460021FFF787
:102A800095FF204B187870B91F4A2B681168042BEA
:102A90000ADC08B111602B6013F003010BD112683E
:102AA00013681BBA136070BD086800BA41F8040BC4
:102AB000043B0120EBE75B4203F0030358BF59429C
:102AC000022904D1126813885BBA9BB2EAE7032992
:102AD000E9D1106802681104C2F3074301F47F01D1
:102AE0000B4302F47F4213430360DCE79E22002085
:102AF00094160020A0220020A01600209816002086
:102B0000D80601009F2200209C1600202DE9F84FD6
:102B10000C462B49DFF8AC80DFF8AC90DFF8ACB0A6
:102B200000230B602A4988F8003006460B601546E2
:102B3000012C2F4655F804AF1ED9022249465046B3
:102B40000CF0EDF880B99AF80220003A18BF012283
:102B500092442049022250460CF0E1F830B901239A
:102B600088F80030013CE3E70022F1E7494650468F
:102B7000FDF730FBA8B9043700221146786808F049
:102B8000A5FA154B002211461860786808F09EFAE5
:102B9000124B134918603046FFF708FF0020BDE8CC
:102BA000F88F9AF800202D2AE6D19AF80120002A01
:102BB000E2D052465946304609F057FDD2E700BFF1
:102BC000941600209F220020F2060100F806010062
:102BD00098160020F5060100A01600209C16002083
:102BE000F929000007B50A480BF0C7FC60B1094A93
:102BF00007491268084804230093012300F030FFBE
:102C0000002003B05DF804FB6FF01200F9E700BF8D
:102C100058EF000048F500006CF2000010B5446861
:102C2000C4E90012A36042684023D36402F1580350
:102C3000136300230821C2E90E33C2E91133C2E94C
:102C40000633C2E90933D1621468536302F15001BB
:102C50001364116153611362C2F8D030A36823B1C9
:102C60001B6C13B1044920469847A3681B6A0BB13B
:102C700020469847002010BD7D2C00002DE9F74329
:102C800004460D468368DB6B03B19847A368DB6A93
:102C90000BBB4FF0000905F13008EA6C01A9404672
:102CA00009F065F90746002836D0A36801991B6929
:102CB0003BB3024620469847064628B33146404675
:102CC00009F074F9B7424FF00109E6D0D5E90131B6
:102CD0000020984703E0204698470028D9D1A368F0
:102CE000DB6963BB05F11007EA6A01A9384609F000
:102CF00091F9064650BB204609F02CFBC5F8D06080
:102D00002FE06FF05706D9E70146404609F04EF92B
:102D1000B9F1000FE3D0D9E71648036813F0060FA6
:102D200003D0154A022109F079FAA3681B69002B28
:102D3000EED001220DF1030120469847E8E7204636
:102D400098470028CED103B0BDE8F083A36801996D
:102D5000DB685BB10246204698470146384609F0D9
:102D600079F9D5E9013101209847ECE76FF0570177
:102D7000F4E700BFF80700205F08010010B5816884
:102D80000446183101F060F9A168034A2046183161
:102D9000BDE8104001F0FEB8A108010038B5836815
:102DA000D3F87832DB0704461DD4C0690AF00AFA6A
:102DB000606803685B689847054620B9E0680AF0D8
:102DC000D6FBA3681D75A3685B6C13B1294620462A
:102DD0009847A3680CF046F80022C3F82023034B61
:102DE000185802F02BF86FF00F05ECE70800000010
:102DF000014909F04DBB00BF7E040100F7B5044650
:102E00008068D0F878325A070D4605D5002109F0C0
:102E100067FBE0680AF07DFBE368DB6873B9002DAF
:102E20003BD0A66806F15607384609F03EFB00285D
:102E300035D0394606F5AB70FDF7D6F9A268E068E3
:102E40000DF10603563229460AF066FB58B9A06810
:102E500000F5AB715630FDF7C7F9A068563009F0A0
:102E600024FBADF80600204609F067FFA368D3F8FD
:102E700074329B0603D50B49606909F009FB2046B3
:102E800000F016FFA268BDF80630A2F85230A26822
:102E90002046A2F8503009F0B5FE03B0F0BD86F828
:102EA0005601CBE7C8F300002DE9F04FA7B0044668
:102EB0005422002111A80BF00DFF0023CDE90533AA
:102EC000A36820465633029309F03EFF204609F0DE
:102ED00082FE10B96069FFF78BFFA0681422002101
:102EE00018300BF0F7FE204609F01BFEA168E068E1
:102EF000B1F85020563100260AF045FB20460AF072
:102F0000C4FB4FF0FF37B24603960DF14408B346B9
:102F10003546B146DDE90532012A6DD0132B6ED856
:102F20005FBBBBF1000F0AD020460AF0CFFBA268BE
:102F30001423563211A90DEB030009F071FCB9F10D
:102F4000000F0CD099F81130FE2B08D1059B26AA52
:102F500002EB830252F8542C0AB101330593A068A6
:102F6000059D436A002B40F0B680CEB1C3699E42F6
:102F70002DD00D9600F1180524E0029A0223414657
:102F800006A809F04DFC0699D8F8042002920346E1
:102F900031B101290AD148B16D4A204609F086FFB6
:102FA0006FF00705284627B0BDE8F08F059B002B82
:102FB00034D0D8F8000001F067F898B166B1A56880
:102FC0000D9618350CAE0FCE0FC533682B6020461A
:102FD000FFF7D4FE0125E5E75E4A0121204609F00E
:102FE00065FFDDE7059BCBB1D8F8002029462046D8
:102FF00001F0ECF9022809D1059B132B91D9069B0E
:10300000022B8ED1544B554A0121C6E7032805D027
:10301000059B013305934FF0010B7BE7039B33B90D
:10302000D8F8001007AA484609F0F1FC054608F157
:103030000408013F9DB3EB68BBF1000F08D0F3B16A
:10304000204609F081FE204609F0DCFD444AC4E731
:10305000ABB1A368DDF814A0AE4603F1180CBEE8CE
:103060000F00ACE80F00DEF80030CCF80030AB68A1
:103070002BB96B7CFE2B04BF2F7C07F1FF37D5F8F3
:1030800004C0BCF1000F08D0AE46BEE80F000CAE85
:103090000FC6DEF8003033606646A94603E0059BA4
:1030A00053B101230393069B17B9022B7FF432AF70
:1030B000059B013305932DE7A368DB6A13B1DB6839
:1030C000002BEED1274B0093274A119B012120466C
:1030D00009F0ECFEE5E790F82830A5EB0A05BBB156
:1030E00090F829104FF6FF72FF2918BF0A469D423B
:1030F00002D313449D420BD983691C4A0121204607
:1031000009F0D4FE2046FFF739FE6FF0150549E7B8
:10311000012109F0DAF9A06800F5437009F0F9F926
:10312000A36811AA294602EB8A025B6A20469847E7
:103130000546A0684FF0FF324FF0FF3300F54370B3
:1031400009F08EF9A068002109F0BFF92AE700BF55
:10315000AF080100C3080100240901005D0301005C
:10316000E108010010090100180C010048090100E4
:1031700010B5836802221A7583689B6C0446BBB93C
:1031800009F045F98368D3F87832DB040BD50321C5
:10319000084B094A09F08AFEA0686FF4805100F5D7
:1031A0001E7009F04EF92046BDE8104000F0D4BE74
:1031B00010BD00BF63090100670501002DE9F04F54
:1031C00004468068B1B0012100F51E7009F02AF9AB
:1031D000A3681B7D022B20D100230993A36860689C
:1031E0009E6C03681D6909AB0EB310221BA9A8478A
:1031F000099B93B1A068012109F067F9099A1BA9FD
:103200002046B047A068002109F05FF9A3689B6CD5
:10321000002BE3D12046FFF7ABFFA0686FF0010160
:1032200000F51E7031B0BDE8F04F09F00AB9012277
:103230000DF12301A847099B002BEED09DF9232017
:103240009DF82310A368002AC8DB5A7D032A00F2E8
:103250009882DFE812F0040085029C0296020D2994
:103260007CD00A2958D0B3F878226FF3CA02A3F8A9
:1032700078220929A06800F086803DD80029ADD0C9
:10328000082900F0FC810346D3F874229207A5D5E3
:1032900001391629A2D801A252F821F031380000D4
:1032A000B9360000C1360000B136000025380000F4
:1032B000DF360000DD310000DD310000DD310000CF
:1032C000DD310000E7360000EF360000DD310000A0
:1032D00019370000DD31000023370000DD31000028
:1032E000DD310000DD310000DD3100002737000056
:1032F000DD310000513700001B2941D07F2900F04B
:10330000CA81A1F120025E2A0346BDD8012109F03D
:10331000E7F89DF82310B9E0D3F87822C2F3C7028A
:103320002AB1D3F87822C2F3C7020A2AACD1B3F883
:10333000782261F3CA02A3F87822A568B5F8501084
:10334000C1B9284609F0CCF8E0680AF0E2F86069F3
:10335000FFF74EFD2046FFF70BFF3FE7D3F878223B
:10336000C2F3C702002AE2D0D3F87822C2F3C70220
:103370000D2ADBE72046FFF797FDC5F82403E9E7B0
:10338000012343752AE7D0F874329B077FF526AFF7
:10339000012109F0A5F8A068B0F85030FF2B3FF4E8
:1033A0001DAFB0F8522000F1560100F5AB700BF0E4
:1033B00069FCA368B3F852201344002583F85651E2
:1033C000A2681BA9142302F5AB720BA809F028FA16
:1033D0000B9914293FF602AF30AB03EB810343F89E
:1033E000545CA368B3F85220002A53D0134493F8D6
:1033F0005530202B02D0093B042B4BD800294CD14F
:1034000000250A950A9B30AA02EB8303002653F895
:1034100054AC504609F049F8B3468146B0463746A9
:1034200016AA3946284600F0A3FB0346002840D1DF
:10343000012EA76865D10A9B30AA02EB830353F8DB
:10344000540C09F032F807F11802064641462846A6
:1034500000F08EFB0568284609F027F8864205D063
:10346000821B92B2A919204609F067FDA068B0F846
:103470005230034493F85630202B31D0093B042BB3
:103480002ED9D0F87432DF072FD42021204600F047
:103490002BFDA3E60129B3D9013900200CAB009321
:1034A00001900AAB1BAA09F0DDFA05460028A9D154
:1034B00094E61B6803934A46514618460BF02FFCCE
:1034C00060B9039B1846FCF797FE584538BF58462D
:1034D0001FFA80FB002E08BFB846013601379FE770
:1034E0000121204609F0C2FB78E6002109F002F82C
:1034F0002021204600F0F8FCA068012108F0FAFF26
:103500006CE604907FF66AAE0A9A30AB03EB820257
:10351000C14652F8543C0393184608F0C6FF049B7A
:103520000590A7F840300496A2684946183228460C
:1035300000F01EFB039BD0F800A009F101094BB17C
:10354000BAF1000F06D0059A194650460BF0E7FB7A
:103550000028E9D1A168BAF1000F4ED1A1F840A02E
:10356000049B013B0493DFD16069FFF741FC2046D7
:1035700000F0F2FC0A9B30AA02EB830308F1010A77
:1035800053F8540C08F091FF414611AA8146284691
:1035900000F0EEFA0746A0683968FF2200F5AB702C
:1035A0000BF0CFFB3B6803934FF6FF77B84616AAA4
:1035B000514628460AF1010B00F0DAFA002852D0F1
:1035C000A168036801F25511002211F801EF985C1F
:1035D000704503D110B101324245F6D1B9F1000F67
:1035E00001D04A4507DBBA4206F1FF36A8BF3A468A
:1035F000012E97B237D0DA46D9E79948069108F0FC
:1036000054FF069907914A8F00EB0B07BFB2121ABD
:10361000504692FBF7F292B2069208F046FF0799E5
:10362000069A3F1AB1F8400000F1010CA1F840C021
:10363000B0FBF2F102FB110080B2BFB260B9884B5F
:10364000884ACDF800A00621204609F02FFC394613
:10365000204600F017FB83E7834A534606212046A5
:1036600009F024FCF3E7002F3FF4B8AD0399A7EB72
:10367000090292B24944204609F05FFCAEE5D0F859
:1036800074329E077FF5AAAD012108F029FF20467C
:1036900009F074FCA2E5D0F874329D077FF59EAD69
:1036A000012108F01DFFA368D3F874321907EED486
:1036B000204609F044FC91E5204609F04EFB8DE5DB
:1036C000204609F041FB204609F085FA10B96069EF
:1036D000FFF78EFBA068012108F002FF3AE62046C2
:1036E00009F044FB7AE5204609F04BFB76E5D3F878
:1036F00074329B0603D55D49606908F0C9FEA36872
:10370000D3F874329F0603D55949606908F0C0FEAA
:10371000204600F021FC61E500212046FFF76EFB0A
:103720005CE50121F9E7204609F007FB204608F097
:103730006EFE0121A06808F0D3FEA368D3F87432AE
:103740009E067FF54BAD4B49606908F0A1FE45E54B
:10375000204600F027FBA068012108F0C1FE3DE5EE
:103760005B2902D102225A7538E5D3F874329D07DD
:1037700006D5622907D14FF0FF31204609F09FFAA4
:10378000A3680022EFE76629FAD10121F5E70022BC
:103790005A75A268D2F8743298077FF51FADA1F16F
:1037A00031031B2B3FF61AAD01A151F823F000BFE6
:1037B0002D380000393800004D3800002138000055
:1037C000DD310000DD310000DD310000DD310000C1
:1037D000DD310000DD310000DD310000DD310000B1
:1037E000DD310000DD310000DD310000DD310000A1
:1037F0002337000019370000DF360000B93600001B
:10380000DD31000025380000DD31000031380000D6
:10381000DD310000DD310000DD3100003D38000009
:1038200003235375204609F08FFAD7E40323537519
:10383000204609F082FAD1E403235375A068D0F83A
:10384000741201F0010181F0010157E60323537561
:10385000A368D3F874329B077FF5C0AC28E700BF9C
:103860004B010100A709010067050100CDF300002D
:10387000D2F30000C8F300002DE9F041044680684F
:10388000154600F51E70002937D04FF4804108F02E
:10389000C9FDA368DD646068036800219B689847E0
:1038A00000284BD1204608F05BFE002846D1244E6C
:1038B000244FDFF89480A06800F52F704FF0FF329E
:1038C0004FF0FF33032106F0FBFF0546A0684FF0E1
:1038D000FF324FF0FF3300F543709DB108F0C0FD9B
:1038E00020462B46194A012109F0E0FAA068BDE8FC
:1038F000F04100F5437008F00CBE6FF4804108F011
:10390000A0FDC6E708F0ACFD32460221204608F0D3
:10391000A9FD3A462946204608F0A4FD2046424625
:10392000012108F09FFD606803685B6903B1984757
:10393000A06800F5437008F0ECFDBCE7BDE8F0813D
:103940009D2D0000BD31000017C50000AD0901002C
:1039500010B50B49044608F088FE2046094908F0D6
:1039600084FE2046084908F080FE2046074908F0FA
:103970007CFE2046064A002100F00CFB002010BD12
:10398000C4090100020A0100610A0100B50A010030
:103990004F0B0100F8B517461E460A462949044652
:1039A00008F063FE3EB33A782749204608F05DFEF2
:1039B00001256A0703D12549204608F056FEAE428C
:1039C0001ED97A5D2049204608F04FFE0135102DA2
:1039D000EFD11F49204608F048FEB6B91B492046E2
:1039E00008F043FE0125AE422B4610D81749204669
:1039F00008F03BFE15E01749204608F036FE012589
:103A00001449204608F031FEE0E700252B46FA5C19
:103A10001149A2F120035F2B28BF2E22204608F077
:103A200024FE0135102D06D06B07DCD10749204656
:103A300008F01BFED7E720460849BDE8F84008F02B
:103A400014BE00BF650B0100440101004C010100E0
:103A50004E0101004A0101008C0B01006C0B0100BA
:103A60002DE9F043044680688846D0F8201389B0D9
:103A700015461F46002960D14FF44A720BF02AF90F
:103A8000E06809F0E8FDA06800F543700AF025FE43
:103A90004FF42F794FF41F76A06830440BF0B8F83C
:103AA000A068002283190121484410360BF087F8E2
:103AB000B6F52F7F09F11409EED1A36900261E6027
:103AC000A068022100F51E7008F0ACFCA36850222B
:103AD0005A87A36818221A872168204608F0EFFD4C
:103AE000A368174A66F38205C3F8745260680368D6
:103AF00041461D682346A8470546D0B9A368012260
:103B00001A75D4E90A0100220023CDE906230E2309
:103B10000393109B0495CDE901730094094B4FF476
:103B2000006206F0C9F8A368C3F82003616A05F0D3
:103B3000F5FF284609B0BDE8F0836FF07705F8E798
:103B4000B7C400007938000010B5044613460A4691
:103B50000146064801F026FC23691B7923B1204663
:103B6000BDE8104008F0FCBD10BD00BF79C70000E3
:103B700038B50B46154648B91449154A521AB3EBE5
:103B8000920F05D251F82350284638BD84680CB9ED
:103B90000025F9E70F4A94420AD30F4A944207D20C
:103BA00018462268294690472B68002BECD1EFE796
:103BB0000A4A944202D30A4A944205D32468142242
:103BC0005343E518E358F0E70133F8E79CF20000AF
:103BD000C4F20000A0F30000A0F30000C4F2000053
:103BE000A0F30000F7B503782D2B0446164605D147
:103BF0006FF015033360002003B0F0BD0BF032F915
:103C00000B4F00230546C3510A46204601A907F081
:103C10005DFAEB59222B02D16FF02103EAE7002B6A
:103C2000E6D1019BA342E3D01B78002BE4D0DFE771
:103C30000C0000008368D3F874329B0603D5024958
:103C4000406908F0A9BF7047D8F30000014908F0A7
:103C5000A3BF00BF7E0401000A1E0DDC0ED042236C
:103C60008168D1F87412890608D5002A0449406990
:103C7000B8BF524208F090BF4123F1E7704700BF40
:103C8000880B01000A1E0DDC0ED044238168D1F898
:103C90007412890608D5002A04494069B8BF524207
:103CA00008F07ABF4323F1E7704700BF880B01009B
:103CB0002DE9F0478568DFF86890044605F1560065
:103CC000FCF79AFA002395F83C7086B29846A268F1
:103CD000558FED1BB54209DB002E1FDD56336069A1
:103CE0001049BDE8F0471A4408F056BF1D442A4465
:103CF000563392F856A082F85680A26860691A443A
:103D0000494608F049FFA3682B4483F856A0A368EE
:103D10005B8FDB1BF61A00272B46D8E7BDE8F08740
:103D20005D0301006705010008290A4617D883686A
:103D300093F83E10914212D083F83E208368082AFF
:103D4000D3F8743205D0990609D50549406908F0C1
:103D500023BF9B0603D50349406908F01DBF704788
:103D60008F0B0100DDF3000038B50D4609780446DD
:103D7000FFF7DAFF6A78072A11D8A36893F83F1093
:103D800091420CD083F83F20A368D3F874329B068D
:103D900005D560690249BDE8384008F0FDBE38BD70
:103DA000980B0100F8B58368B3F850200446002A48
:103DB00055D0B3F85210002951D0553103F15605B2
:103DC0000B441846A84206D3014611F80169202E7B
:103DD0003CD0A8423CD286B29DB2AB1B9BB2591CD0
:103DE000471CD21A014438460AF05AFFA268B2F8BA
:103DF0005030711B13FA81F3A2F85030A368B3F866
:103E000050201344002283F8562009B2204608F0BF
:103E10002DFFA368D3F874329A0603D51049606960
:103E200008F0BAFE3B460F4A0821204609F03EF84A
:103E30002046FFF7FFFEA368D3F874329B060ED529
:103E400060690949BDE8F84008F0A6BE0846B9E730
:103E5000014611F80169202EBDD00846B9E7F8BD2A
:103E6000E2F3000067050100E6F300002DE9F041F0
:103E700004460D4617460AB1FFF7DCFEA368B3F807
:103E80005220D3F87412563213444A0721D51846EB
:103E9000FCF7B2F9DFF848800646A6B9A368B3F884
:103EA0005020A3F85220A06808F083FE20B107B18B
:103EB00015B16069FFF7CAFE6942204609B2BDE844
:103EC000F04108F0D3BE6069414608F065FE013E4E
:103ED000E3E7044A0821204608F0E8FFDEE700BFD8
:103EE000C2FD00006705010013B583688DF8071057
:103EF000D3F874220446D00725D5B3F85210B3F88E
:103F000050208A421FD0481CA3F852000B449DF851
:103F1000072083F85620A368D3F87412890710D5B8
:103F2000D3F8743260690B4913F0040F18BF2A22CA
:103F300008F032FE204608F04EFE10B16069FFF72F
:103F400085FE02B010BD01220DF10701204608F0E8
:103F5000BAFFF6E78C0B010010B504468368094AE6
:103F6000022108F0A3FFA368D3F874329B0707D59A
:103F70002046FFF79DFE2046BDE8104008F051BEE8
:103F800010BD00BF67050100014909F091B900BFEC
:103F90007E0401002DE9F04F0E46002189B0044651
:103FA00017460D4603AA304601F10108FFF7E0FD70
:103FB000B0B995B127B13A460821204608F076FFFE
:103FC0001E4FDFF87C90DFF87CA0002103AA30466A
:103FD00001F10108FFF7CCFD60B909B0BDE8F08F31
:103FE000006810B1FCF708F980B2854238BF054679
:103FF0004146D7E703688BB11A787AB1D0F804B09C
:104000004A46CDE9005308213B46204608F04EFFC2
:10401000BBF1000F04D16069FFF7B6FF4146D5E759
:10402000524620463B46082108F040FFAA1D92B2A6
:104030005946204609F049F9F0E700BFB60B0100E8
:10404000A10B01003F010100F7B50F6805460E46C0
:10405000A7B13846FCF7D0F884B2094B0093284644
:10406000084A3B46082108F021FFE21C716892B221
:10407000284603B0BDE8F04009F027B93C46ECE71C
:10408000B20B0100A809010010B507490446FCF76E
:10409000A1F838B105492046FCF79CF8B0FA80F049
:1040A000400910BD0120FCE7A80B0100AB0B01008B
:1040B00010B58368D3F874329B06044603D50649CD
:1040C000406909F079F9A36850225A87A368182239
:1040D0001A87002010BD00BFEAF3000008B583690D
:1040E00002491A6808F0C1FA002008BDB90B0100A6
:1040F0002DE9F3410D490E4C0E4EDFF83C8005468C
:1041000008F0B3FA0022B44202F1010703D3002001
:1041100002B0BDE8F081636A0093A36892B24146A1
:10412000284608F0A2FA30343A46ECE7C90B010001
:104130006CF200009CF20000E10B010008B502499E
:1041400008F0BDFA002008BD7F04010073B50E4ED3
:1041500004460025A268E0680DF1060302F5AB7283
:10416000012109F0D9F9BDF80600A36840B12A463B
:1041700003F5AB733146204608F077FA0135E9E7DD
:1041800083F8560102B070BDF20B010010B5044671
:1041900008F0D8FA03490246204608F066FA0020E3
:1041A00010BD00BFEE060100022907B50BD1536810
:1041B000009312680B4B0C4908F073FA6FF015006E
:1041C00003B05DF804FB8368084AD3F874320849E9
:1041D00013F0020F074B18BF1A4608F046FA0020EA
:1041E000EEE700BF000C0100150C0100FC0B010004
:1041F0001E0C0100F102010010B58368D3F874327F
:104200009A06044603D50749406909F0D5F8A36822
:10421000D3F874329B0603D50349606909F0CCF8E2
:10422000002010BDF1F30000F6F30000F0B5012905
:1042300085B004460AD05368009312685D4B5E490E
:1042400008F02FFA6FF0150005B0F0BD8368D3F8C1
:104250007432990603D55949406909F0ADF86FF0F9
:10426000F9012046FFF7F8FCFA212046FFF70AFD86
:10427000A06800254FF48072294600F5AB708DF8D8
:104280000B500AF027FD4E49606909F095F8606906
:1042900008F066FA4FF47A766068036801221F69B5
:1042A0000DF10B0103ABB847039BEBB9013E4FF493
:1042B0007A70B6B20AF05CF9002EEDD1A368D3F89B
:1042C00074329B0603D53F49606909F075F8A3680D
:1042D0003D4950225A87A368182220461A8708F0C1
:1042E000D2F96FF00700AFE79DF80B20A3681B2AF7
:1042F00053D093F856111B29CED1522A4DD15A19B9
:10430000002382F85631A66896F857215B2A2BD1F4
:1043100006F25710022510F8011F2A463B2905F125
:104320000105ADB223D1FF2AC8D002F5AB7216FA4F
:1043300082F1002211F8010F18BB86F85601FA2A03
:10434000A16828BFFA224A87FA2BA26828BFFA235D
:104350001387A368D3F874329A0603D519496069A4
:1043600009F02AF800206FE786F85631A6E703EB3C
:104370008303303901EB4301B5F5807F8BB2CAD19D
:104380009CE7013502EB8202ADB2303800EB42000F
:10439000B5F5807F82B2CDD190E72B440135ADB227
:1043A000092D83F856217FF677AFA368002283F8A2
:1043B000562183E7000C0100150C0100FCF30000FE
:1043C000690C010000F400002F0C01002DE9F04FF2
:1043D000074689B01546894621B1104609F041F9D2
:1043E00000285BD1032455E05C463CE029460AF5F1
:1043F000AB700AF0C2FC0646002854D0FBF7FCFE66
:1044000082B2601C0132314630440AF049FC224637
:10441000594630460AF036FC4FF020033355BAF8BF
:10442000543001331C44AAF8544008F10108002418
:1044300001994B1C03AA48460193FFF799FB0646D6
:10444000E8B131680022284609F0C8FA0028EFD107
:10445000D6F800B0D7F808A0BBF1000FC4D058467A
:10446000FBF7CAFE84B2BAF854302344FF2BBDDDFB
:104470000E4A2B460321384608F018FD0124B8F1F6
:10448000000F07D0B8682A4600F1540100F5AB7060
:1044900008F096FA204609B0BDE8F08F4FF000080A
:1044A00041460224C5E70224E9E700BF31110100BB
:1044B00008B5044807F007FABDE80840024807F0CD
:1044C00002BA00BF83110100B8110100014806F0D3
:1044D00029BC00BFACF8000038B5044618B90F4B32
:1044E0000F485B6898476168B1F5683F10D0B1F537
:1044F000680F0DD00B4DA9420AD011F468612068F5
:1045000007D0014608480AF090F800232360656050
:1045100038BD14220AF0DEFBF9E700BF1C070020BB
:10452000E61101002C5F5CA92C1F002008B520B308
:104530004368B3F5683F10D101220368BFF35B8F76
:1045400053E8001F002903D143E800200028F7D1D9
:10455000BFF35B8F0DD1002008BD094A93420AD0FA
:1045600000684FF0FF324FF0FF3305F07FF900286D
:10457000F1D00448F0E70448EEE76FF4E040EBE7E1
:104580002C5F5CA9E98FFFFFEA8FFFFF08B5D8B168
:104590004368B3F5683F10D100220368BFF35B8F17
:1045A00053E8001F012903D143E800200028F7D178
:1045B000BFF35B8F0BD1002008BD074A934208D0A0
:1045C000006805F0CBF9F6E76FF4E040F4E7034844
:1045D000F2E70348F0E700BF2C5F5CA9E98FFFFF1B
:1045E000EA8FFFFF10B5044618B91D4B1D485B68E4
:1045F00098476368B3F5683F2FD0B3F5680F2CD0A8
:10460000194A934219D1236803BB18484FF0FF326F
:104610004FF0FF33214605F03BF808B923681BB97A
:104620000F4B13485B6898472068142200210AF05A
:1046300051FB4FF46863636008E0B3F5683F0DD841
:104640003A2B03D040F6BA629342DED120680AF0DA
:1046500044F8636843F03A03636010BD054AF3E72A
:104660001C070020E61101002C5F5CA92C1F002014
:104670000C1201003A00003A08B5064906484023EA
:10468000142209F0C4FFBDE808400449044806F0BC
:10469000BBBB00BF2C1A00202C1F0020B4F8000068
:1046A000C8F800002DE9F843054600AF0C46002984
:1046B00048D0DFF8B890D9F800305A0742D06E469B
:1046C0008AB0D1E90001A3686A46DFF8A4C04FF0C0
:1046D0000508C2E905C0C2E9071342F8108F00239C
:1046E0004FF421514846FDF721FBD9F800305B0714
:1046F000B54627D08AB0D4E9030163696A46DFF87A
:1047000074C0C2E90713C2E905C042F8108F002344
:1047100048464FF42151FDF709FBD9F800305807FE
:10472000B5460FD0E3690121134A484607F07FFDE3
:10473000D9F80030590705D0A369104A012148462D
:1047400007F075FD012D0AD1EFF3058307480268D4
:10475000520704D00A4A103B294607F068FD21465B
:10476000284604F0CBFDBD46BDE8F883EC070020E9
:10477000391201006812010097120100A61201000F
:10478000D412010030BFFFF7FDBF00BF2DE9F0419B
:104790000B4EDFF8308006EB0807CC1B054632468F
:1047A000094920460AF06EFAA01942460021083C49
:1047B0000AF090FAC5F8A84007F10800BDE8F081BA
:1047C0000000000008000000A0F30000074A936802
:1047D00093F90E10002907DB526993421FBF044A68
:1047E000536843F080535360704700BF742000202B
:1047F00000ED00E0F8B5374C23685B0706460D4630
:1048000003D03549204608F07DFF344B9B6ADF0416
:1048100051D52368580703D031492E4808F072FF5C
:1048200017202E4B9B6A190507D523685A0703D01A
:104830002C49284808F066FF1820284FBB6A9B05C2
:1048400019D52368580703D02749224808F05AFF92
:10485000BB6BBA6A11040DD52268520704D0234AF3
:104860001C48012107F0E3FC26B11C4A936A23F49B
:10487000004393621920194B9B6A5B0507D5236897
:104880005F0703D01A49134808F03CFF1A20134B66
:104890009A6AD60511D52368590703D015490D48E2
:1048A00008F030FF1B200D4A936A43F47F43936264
:1048B00000232B70F8BD1620B3E79B6A9A04F2D54B
:1048C00023685B0703D00C49024808F01BFF1C203B
:1048D000E9E700BFEC070020E712010000ED00E06F
:1048E000FD1201000E130100211301003A13010013
:1048F0004F1301006A1301008213010010B52D4C03
:1049000023685A0703D02C49204608F0FBFE2B4BA6
:104910009B6A9B014BD52368580703D0284925483B
:1049200008F0F0FE1E20254B9B6AD90107D52368AD
:104930005A0703D023491F4808F0E4FE1F201F4BED
:104940009B6A1B0307D52368580703D01E491948E3
:1049500008F0D8FE2120194B9B6A590307D523681C
:104960005A0703D01949134808F0CCFE2220134BF4
:104970009B6A9B0307D52368590703D014490D4848
:1049800008F0C0FE23200D4B9B6ADA0307D523688D
:104990005B0703D00F49074808F0B4FE2420074AFC
:1049A000936A6FEA03436FEA1343936210BD1D20BD
:1049B000B9E700BFEC070020B113010000ED00E0F3
:1049C000C9130100DC130100F613010014140100E7
:1049D00039140100531401002DE9F047454D2B68AF
:1049E000894659078046174603D04349284608F0B0
:1049F00089FE424B9B6ADA0639D52B685B0703D0E8
:104A00003F493C4808F07EFE11243C4B9B6A1E0740
:104A100007D52B68580703D03A49364808F072FE8C
:104A20001224DFF8D8A0DAF82830990721D52B68AE
:104A30005A0703D034492F4808F064FEDAF834608E
:104A4000DAF828301B0651D52B685C0705D02F4AB1
:104A500028483346012107F0EAFBB9F1000F04D0E2
:104A6000264A936A23F080039362132403E0102400
:104A7000CBE76FF01506214B9B6AD80707D52B684B
:104A8000590703D022491B4808F03CFE14241B4B55
:104A90009B6A9A0607D52B685B0703D01D4915480A
:104AA00008F030FE1524154B9A6AD50602D49A6A8E
:104AB00090070AD55B68190507D54146304600F0D6
:104AC00099FA10B180F3098802240C4B9A6A920675
:104AD00042BF5A6A22F400525A629A6A42F0FF02B6
:104AE0009A6200233B702046BDE8F0876FF0150600
:104AF000BBE700BFEC0700207E14010000ED00E0E2
:104B0000941401000E130100C7140100DF1401000A
:104B1000F5140100821301002DE9F041744B8AB0B5
:104B2000D3F8048000AF0446C8F30806002585F3D7
:104B30001188BFF36F8F02F07F43B3F17F4F0AD12B
:104B400002F00C03082B15D16A480368590702D0FC
:104B5000694908F0D7FD00252C460023FB71F31EA0
:104B6000092B00F29F80DFE803F00A91948D9D9D50
:104B70009D9D9D9712074CBF0C460125EDE75D4EAC
:104B800033685B0703D05D49304608F0BBFD002366
:104B9000FB71574BDA6A900708D53368590703D081
:104BA0005749544808F0AEFD00233CE0DA6A002A79
:104BB00004DA33685A07F7D05249F2E7DB6A5B0040
:104BC000F2D53368580703D04F494A4808F09AFD98
:104BD000474BA1695A6942F480725A61BFF34F8F03
:104BE000BFF36F8F5A6931F8021C22F480725A6148
:104BF000BFF34F8FBFF36F8F4DF60272914208D013
:104C00009A6AD2B28AB3FA1D01212046FFF7E4FE68
:104C10003AE03368590705D023683C4A35480121FA
:104C200007F005FB2368FA79DAB907F1080604F101
:104C3000200C20686168324603C208346445164679
:104C4000F7D17A6A002D4DD0C2F3080121B96FEA7D
:104C500052226FEA42227A6207F108011846FFF7F2
:104C600021FD2837BD46BDE8F0819A6A12F47F4FD6
:104C700004D0F91D0120FFF7BDFD05E09B6AB3F5E7
:104C8000803F91D3FFF73AFE0346CCE7FA1D00219F
:104C9000BBE7F91D0020EEE7164803685A0783D0EA
:104CA0001B497FE7134803685B073FF47DAF194A50
:104CB000194B18F4F87FE8468AB018BF13466A46C5
:104CC0001649C2E905134FF400731384103E144BC8
:104CD000D66142F8103F00234FF41151FDF726F83A
:104CE000C54661E722F4FF7222F00102B3E700BF7C
:104CF00000ED00E0EC070020421501006D150100F9
:104D000084150100A5150100B3150100D21501009D
:104D1000EE150100291501001415010012160100FD
:104D200004000001044B5A6942F010025A615A69AA
:104D300022F008025A61704700ED00E0EFF30880AE
:104D4000EFF3098101B57246FFF7E6FE01BD00BF32
:104D5000002080F31488BFF36F8F134880F3088816
:104D600002F00CFB002011490860BFF34F8F00F0E8
:104D700033F8202080F311880D484FF0AA014FF43A
:104D8000046209F025FC0A484FF40461401880F3DE
:104D90000988EFF314800221084380F31488BFF3DD
:104DA0006F8F00F0EFF80000C04C002094ED00E0A1
:104DB000003F00200749D1F890200023C2F30722CA
:104DC0001846934200DB7047C1F89830C1F8A00044
:104DD0000133F6E700ED00E008B572B6002383F377
:104DE0001388FFF7E7FF144B4FF0FF32C3F8802022
:104DF000C3F88420C3F88820C3F88C20C3F890201F
:104E0000C3F89420C3F89820C3F89C20C3F88021ED
:104E1000C3F88421C3F88821C3F88C21C3F89021FA
:104E2000C3F89421C3F89821C3F89C2162B6BFF35C
:104E30004F8FBFF36F8F08BD00E100E0084B9B6808
:104E400083420BD1EFF3058343B1064B5A6842F01E
:104E500080525A605A6A22F400425A6205F0EAB956
:104E60007420002000ED00E016498A684FF0300001
:104E70001044EFF3098C80E8F01F202080F31288A3
:104E8000BFF36F8F104F4FF000664A698A603E6033
:104E90004FF0A804141920680C4C2060D2F8AC0024
:104EA0000023C2F8AC3080F3118804B5104600F03E
:104EB00009F9BDE8044002F1300090E8F01F8CF3DE
:104EC000098870477420002004ED00E0481F00208E
:104ED0001EF0040F0CBFEFF30880EFF30980816927
:104EE00011F8021C0229FFD001B5724608F0FFFB41
:104EF00001BD00BF40B2002807DB044A410901237D
:104F000000F01F00834042F82130704700E100E0CC
:104F100040B200280CDB4309064900F01F00203393
:104F20000122824041F82320BFF34F8FBFF36F8FE0
:104F3000704700BF00E100E0054B420900F01F0090
:104F400053F82220012303FA00F01040704700BFFD
:104F500000E100E040B20028A8BF00F1604001F18C
:104F60000101B8BF064B4FEA4111ACBF00F56140EB
:104F700000F00F00C9B2B4BF195480F80013704795
:104F800014ED00E00B4A08B50B4B22F07F029A604B
:104F9000BFF34F8FBFF36F8FD3F8882022F47002D6
:104FA000C3F8882004F0AAFA05F0AAFA00F060F825
:104FB00004F0ECFA0000000000ED00E042F8203CB4
:104FC000009B42F81C3C0A49019B42F8183C029B9A
:104FD00042F8143C21F001014FF0807342F8043C88
:104FE00042F8081C0023203A0265C0F8AC30704734
:104FF000A11300000A4A0346906878B113F1160F16
:10500000D0F8980005D0A0F140029A4205D883421A
:1050100003D2814228BF002070470020704700BFA4
:105020007420002008B515460A4A0B4B9060D0F852
:10503000A8201A600E4600F045F82C4686F3098831
:105040000020064B98472046002100220023044CF4
:10505000204700BF74200020481F002015D7000003
:10506000A1130000014B10221A61704700ED00E00F
:10507000044800232021C2180133302B82F800138A
:10508000F9D1704700E100E008B5EFF30583064A67
:10509000103B02EBC30152F8330049688847BDE872
:1050A0000840FFF793BB00BFB8EF0000024B034A74
:1050B0000348012100F092B8000004200000002005
:1050C000D8F80000D0F89820054B403A1A60054AFD
:1050D0004021C3E901121846012100F089B800BF40
:1050E0004C1F002000000B1508B503461148D0F8EE
:1050F0009020C2F30722013A93420AD90E4802686F
:10510000520703D00D4A012107F091F86FF0150006
:1051100008BDC0F898300A6822F01F021A4342F016
:105120001002C0F89C208A6842F00102C0F8A0205A
:105130001846EDE700ED00E0E80700202916010021
:10514000F0B50E4685B01F4604460025B54210DA7C
:10515000606828B3AFB1431E18420DD012480368EF
:105160005B0704D0114A2B46012107F060F86FF06D
:105170001502104605B0F0BD1F28EFD921680B427B
:10518000ECD12368019308F0E8FAA36801A903436E
:10519000D0B20393FFF7A8FF10F1160FE7D0421C1F
:1051A00001350C34D2E700BFE80700204F1601009C
:1051B000044B0522C3F89420BFF34F8FBFF36F8FCA
:1051C000704700BF00ED00E0BFF35F8F024B00228D
:1051D000C3F89420704700BF00ED00E010B5034C09
:1051E00001232278FFF7ACFF207010BDC022002001
:1051F00008B50B4A00231278FFF7A2FF10F1160F33
:1052000007D0084A0021D2F89030C3F30723984210
:1052100000DB08BDC2F89800C2F8A0100130F2E728
:10522000C022002000ED00E02DE9F0435748584926
:10523000D0F890300D68C3F307239D4285B000F28B
:10524000A180FFF7C1FF49680022954201F10C01DE
:105250001AD1504C504F25706846FDF7B5F8DFF86D
:105260003C81DFF83C9106460025AE421FD12378F1
:1052700046490020D1F89020C2F3072293427BDBFD
:10528000FFF796FF00204CE0C0F8982051F80C3C46
:1052900023F01F03134343F01003C0F89C3051F870
:1052A000043C43F00103C0F8A0300132CDE7009880
:1052B00000EB05114FEA051CCB683B40B3F5000F2E
:1052C00044D00AD8B3F5001F2ED0B3F5800F34D0E8
:1052D000B3F5801F10D00135C7E7B3F1807F3ED012
:1052E000B3F1007FF7D150F80C3088684A6808F0B5
:1052F00034FA40F4802009E050F80C3088684A689D
:1053000008F02BFA40F0885040F43020039001A9B7
:105310002078CDE90123FFF7E7FE002828DA6FF0B7
:10532000150005B0BDE8F08350F80C3088684A6875
:1053300008F013FA40EA0800E8E750F80C308868F3
:105340004A6808F00AFA40EA0900DFE750F80C3032
:1053500088684A6808F001FA40F08270D6E750F891
:105360000C3088684A6808F0F8F940F08870CDE79A
:10537000237801332370AEE7C1F89830C1F8A0005C
:10538000013377E74FF0FF30CBE700BF00ED00E0DF
:10539000E4F80000C02200200000F0FF0000081127
:1053A00000000207F0B587B007460E4614460021FC
:1053B000102268461D4609F08DFC02238DF802304C
:1053C0002A46054B019321466846CDE9047605F04F
:1053D000E3FE07B0F0BD00BF7BD7000008B5024B6D
:1053E0001B689847002008BD581F0020034B044A43
:1053F0001860937843F0020393707047581F0020A1
:105400002805002008B50649064821F00701C1F12A
:10541000005202F5802206F0A6F9002008BD00BF68
:10542000E75300205C1F002008B500F0B7F80A49D8
:1054300041610A490122C0E900220A6008490A6064
:10544000084A00231360084A03611360C0E902336D
:10545000064A136008BD00BF7F0401005405002008
:1054600050050020701F00206C1F0020681F0020C6
:105470002DE9F04107460E46154600F08FF8C36847
:1054800004461BB943691A78002A41D10023E3601E
:105490006368BB4256F8232008DB324B6361204629
:1054A00000F062F84FF0FF30BDE8F081511C6161FF
:1054B00092F80080B8F12D0FEFD1911C6161517805
:1054C000A1602D2904D192786AB901336360E4E7C1
:1054D00049B9244B63614146284609F013FC002872
:1054E000DDD0C4F80880D4F808802846414609F089
:1054F00009FCB8F13A0F636900D070B91B7813B991
:10550000636801336360204600F02EF83F20CBE74C
:105510005A1C42611B788360E5E742783A2A0BD037
:10552000002222611B7813B963680133636020464F
:1055300000F01AF8A068B7E718786268094928B936
:1055400001329742626004DD56F82230C4E904312A
:10555000EAE761612D783A2D2046D5D100F004F8B4
:105560002846A1E77F040100074B02681A60074B39
:1055700042681A60064B82681A60064BC2681A605D
:10558000054B02691A607047540500205005002041
:10559000701F00206C1F0020681F0020004870470B
:1055A000380500200E4A0123C2F840354FF08042F2
:1055B0004FF08051C2F87835D1F83001082808D171
:1055C000D1F83411052904D80648415C09B1C2F864
:1055D00038364FF080430122C3F880250020704701
:1055E00000E001408816010020B1034B800143F028
:1055F00001031847704700BF20F40000084B70B546
:10560000C31A0D4607499B100446594306484022D9
:1056100008F0F0F92B4601462046BDE870401847D7
:10562000881F0020B76DDBB610EF000073B50C4C7F
:105630000C4A4023041B00930D460B460A49A41054
:1056400061430646094808F000FA011E05DA3046B3
:105650002B4602B0BDE87040184702B070BD00BFD5
:10566000881F0020B3DA0000B76DDBB610EF000032
:1056700010B5EFF31184202383F31288BFF36F8FEB
:10568000074A136823F00201DB07116002D40120EE
:1056900008F065FD84F31188BFF36F8F10BD00BF64
:1056A000D81F0020002270B5012104461046FFF7E4
:1056B00051FC0F4801F0ECFF0E4B984215D101F060
:1056C000F7FF26690C49304606F0BAFB00280BDBD1
:1056D000012535642469084904F11C0006F0B0FB7B
:1056E000002801DBE564002070BD6FF00400FBE7DB
:1056F000FD5700000000AD0B04F900007FB500224B
:105700000123CDE9022304ABCDE90433094ACDF8E6
:1057100000D06B46CDF804D008F0C4F9002805DBB2
:105720004FF480420023684604F09CF907B05DF80E
:1057300004FB00BFD1DA000030B4104B0C2202FB96
:10574000003301460020D3E90E529863EFF3118035
:10575000202484F31288BFF36F8F1C6C04F0C00404
:1057600044F002041C6480F31188BFF36F8F1DB1F5
:105770002B46034830BC184730BC7047881F0020B8
:1057800010EF000010B4EFF31182202383F312888E
:10579000BFF36F8F1748016841F002040460C80727
:1057A00007D482F31188BFF36F8F012010BC01F082
:1057B00091BF4FF08041D1F80C04D1F80C14C90707
:1057C000EFD5EFF3118083F31288BFF36F8F0A498F
:1057D0000B6C03F0C00343F002030B6480F31188E9
:1057E000BFF36F8F82F31188BFF36F8F002010BC5F
:1057F000FFF7A2BFD81F0020881F002010B101288A
:1058000004D07047034B1B6C5B0701D1FFF794BFBB
:10581000704700BF881F00202DE9F0413849BFF3D1
:105820005B8F0746012251E8003F41E80020002835
:10583000F9D1BFF35B8F33B9324933484B60CB604A
:105840008A6006F010FB7B1E012B2BD8012F07D19D
:105850004FF08043D3F81C3403F00303012B21D015
:1058600008F052FF0546F8B9284B1B78E3B14FF01A
:1058700080430222C3F808230646DFF894804FF0E5
:105880008044D4F81824D4F81834D20315D503F082
:105890000303012B01D0012F0FD155B386F31188DB
:1058A000BFF36F8FBDE8F081EFF31186202383F300
:1058B0001288BFF36F8F0125DFE7ADB1304607F0E7
:1058C0003DFFD4F81835002BDBD1D4F80421002A91
:1058D000D7D0C4F80431D4F804310123C4F8183502
:1058E000C8F88031A360CCE70021212008F0BEFF7A
:1058F000E7E74FF080430222C3F80423D2E700BF5A
:10590000841F0020741F0020A41F0020F322002009
:1059100000E100E008B5074808F02FFE38B106485E
:10592000FFF764FD0448FBF735FD002008BD6FF06C
:105930001200FBE758EF00003D5900000A2838B577
:10594000074D044604D1AB680D215B682846984793
:10595000AB6803485B68E1B29847204638BD00BF9A
:1059600058EF0000F0B54068057B01F01F0444EAE1
:105970004514056987B0002D64D0B2F5001F00F111
:10598000100506D12146284608F07AFC002007B011
:10599000F0BD01AE0027B2F5800F0197776039D1D5
:1059A000B3F1007F14BF052304238DF804300023D6
:1059B000CDE904630393836823FA01F111F0010137
:1059C0001AD1B2F1A07F17D104F01F03620903F5C9
:1059D000E0732AD0012A3BD11F4A52F82330DB075B
:1059E0000AD40DF1030632462146284602F05AF940
:1059F0001A4B98421CD0029603AA2146284602F070
:105A000013F8174B984220D101222146284602F074
:105A1000ADF9BBE7B3F1C06F05D0B3F1007F14BFA0
:105A200001230223C1E70323BFE74FF0A042D4E7DD
:105A30003146284602F094F9094B9842DBD06FF0CA
:105A40000B00A4E76FF08500A1E76FF015009EE75B
:105A500051F82330FFDE00BF000300500400AD0BFF
:105A60000000AD0B38B545682B69B3B11035284639
:105A700002F066F9044680B90146284602F02CF986
:105A8000084B98420BD108492246284602F004F9F7
:105A9000224605210620FFF75DFA002038BD6FF091
:105AA0000400FBE70000AD0BAD5A0000420970B5E1
:105AB000034602D0012A17D070BD0D4E32695168DD
:105AC0000029F9D003F01F0301250C689D4000292F
:105AD000F2D08A682A4002D04B68304698472CB1F1
