:020000040000FA
:1000000040460020414A0000A5D500002D4A0000CE
:100010002D4A00002D4A00002D4A0000000000007B
:10002000000000000000000000000000C14B0000C4
:100030002D4A000000000000594B00002D4A00002E
:10004000794D0000794D0000794D0000794D000098
:10005000794D0000794D0000794D0000794D000088
:10006000794D0000794D0000794D0000794D000078
:10007000794D0000794D0000794D0000794D000068
:10008000794D0000794D0000794D0000794D000058
:10009000794D0000794D0000794D0000794D000048
:1000A000794D0000794D0000794D0000794D000038
:1000B000794D0000794D0000794D0000794D000028
:1000C000794D0000794D0000794D0000794D000018
:1000D000794D0000794D0000794D0000794D000008
:1000E000794D0000794D0000794D0000794D0000F8
:1000F000794D0000794D0000794D0000794D0000E8
:100100007BB972B90029BEBF00204FF0004106E064
:1001100008BF00281CBF6FF000414FF0FF3000F017
:1001200057B8ADF1080C6DE904CE002909DB002BAE
:100130001ADB00F069F8DDF804E0DDE9022304B021
:100140007047404261EB4101002B1BDB00F05CF883
:10015000DDF804E0DDE9022304B0404261EB410137
:10016000524263EB43037047524263EB430300F098
:100170004BF8DDF804E0DDE9022304B0404261EB16
:1001800041017047524263EB430300F03DF8DDF854
:1001900004E0DDE9022304B0524263EB43037047FD
:1001A00053B94AB9002908BF00281CBF4FF0FF31DE
:1001B0004FF0FF3000F00CB8ADF1080C6DE904CE43
:1001C00000F022F8DDF804E0DDE9022304B0704716
:1001D000704700BF10F8012B11F8013B012A28BF1E
:1001E0009A42F7D0D01A7047034611F8012B03F852
:1001F000012B002AF9D17047034613F8012B002A7E
:10020000FBD1181A013870472DE9F04786468C4615
:100210000846089E154674461946002B40F0C280D9
:100220008542B2FA82F245D94AB1C2F1200300FAFE
:1002300002FC2EFA03F3954043EA0C0C94404FEA7B
:10024000154EA8B2BCFBFEF8230C0EFB18CC08FB25
:1002500000F943EA0C43994528D9EB1808F1FF3718
:1002600004D2994502D9A8F102072B44A3EB090354
:10027000A4B2B3FBFEFC0EFB1C330CFB00F044EA03
:100280000344A04214D92C190CF1FF3304D2A0422C
:1002900002D9ACF102032C44241A43EA07401EB1F0
:1002A000D440002334607360BDE8F0874746DDE743
:1002B0006346F1E792BB431B01214FEA154EAFB2F3
:1002C000B3FBFEFC200C0EFB1C330CFB07F840EAD2
:1002D0000343984562D9EB180CF1FF3004D29845DE
:1002E00002D9ACF102002B44A3EB0803A4B2B3FB88
:1002F000FEFC0EFB1C330CFB07F744EA0344A74249
:100300004ED92C190CF1FF3304D2A74202D9ACF11B
:1003100002032C44E41B43EA0040C0E7C2F120037F
:1003200020FA03F1954090402EFA03F303434FEA7D
:10033000154EAFB2B1FBFEFC0EFB1C10190C0CFBF2
:1003400007F841EA0041884504FA02F422D9691805
:100350000CF1FF3004D2884502D9ACF102002944E7
:10036000A1EB08019BB2B1FBFEFC0EFB1C110CFBC8
:1003700007F743EA01439F420ED9EB180CF1FF3116
:1003800004D29F4202D9ACF102012B44DB1B41EAAB
:10039000004192E76046E3E76146F7E76046A3E77E
:1003A0006346B7E7834206D916B9002108467BE7C2
:1003B000C6E900E0F9E7B3FA83F78FB9834201D3C6
:1003C000724508D8BEEB020460EB030301209C4693
:1003D0001EB9002168E73846FAE7C6E9004CF8E79D
:1003E000C7F1200CBB4022FA0CF41C432EFA0CF18E
:1003F00020FA0CF3B84001434FEA14490EFA07F50E
:10040000B3FBF9F81FFA84FE09FB18300B0C08FB4C
:100410000EFA43EA00439A4502FA07F240D9E3187C
:1004200008F1FF3004D29A4502D9A8F10200234412
:10043000A3EB0A0389B2B3FBF9F809FB183308FBF5
:100440000EFE41EA03418E452CD9611808F1FF33B5
:1004500004D28E4502D9A8F10203214443EA0040A8
:10046000A0FB0298A1EB0E014145CE46434602D3C4
:1004700006D14D4504D2B9EB020E68EB04030138F6
:10048000002EA6D0B5EB0E0261EB030101FA0CFCC5
:1004900022FA07F34CEA0303F940C6E9003198E772
:1004A0004046C5E74346D9E72DE9F047064688B000
:1004B0000F4690460EF003FA4FF47A73A0FB034503
:1004C00003FB0155E40B012F44EA45444FEAD535BF
:1004D00007D1294922462B4630460CF01DF8002052
:1004E00012E0D8F8047025483946FFF773FE70B162
:1004F00023483946FFF76EFE48B1304621493A4657
:100500000CF026F86FF0040008B0BDE8F087204634
:10051000294617A3D3E90023FFF7F2FD05460C4651
:1005200010461946184A0023FFF7EAFD80460F4699
:10053000104619464EF660220023FFF7E1FD824681
:100540008946104619464FF47A720023FFF7D8FD0A
:10055000CDE902A9CDE90623CDE90401CDE9008763
:100560000A492A46234630460BF0D6FFB7E700BFBC
:10057000005C260500000000450801005608010047
:10058000590801006208010080EE36007A08010077
:10059000F0B585B000AF3B483B4C0DF096FF2368AB
:1005A00060B95A0704D0394A012120460BF081FD79
:1005B0006FF0120528461437BD46F0BD03F007035F
:1005C000022B04D9324A032120460BF072FD2D483C
:1005D00083683946DB699847236803F00703022BD9
:1005E00014D96D468AB0388879883B7B6A46294E93
:1005F000C2E907130523C2E9056042F8103F22480B
:1006000000234FF4235101F009FAAD464FF40040A6
:1006100000210EF0DAF8236803F00703022B04D957
:100620001D4A194803210BF044FD64231B4915485A
:10063000322200F0FDF8051E236808DA5B07B9D006
:10064000174A11482B4601210BF03CFDB2E703F09D
:100650000703022B04D9134A0B4803210BF029FD91
:10066000114E094D4FF4A02000210EF0AEF8236882
:1006700003F00703022BF5D90321324628460BF07D
:1006800018FDEFE780F00000D0070020D4FC000048
:10069000EDFC000002FD00001DFD000047FD000014
:1006A00053FD00006DFD000090FD00002DE9F04FAE
:1006B0009946A1F120038DB05E2B88BF20213A4BD3
:1006C00002922039142202FB0138836808A9DB69F1
:1006D00006469847BDF82040BDF822700734E41064
:1006E000674338460EF0AFFA054668B92F480368ED
:1006F0005A0703D02E4A01210BF0DBFC6FF00B04EC
:1007000020460DB0BDE8F08F3A46FF210EF051FBB8
:1007100008F1010104FB09F3002203914FF4004AA0
:100720004FF0010B039918F812C011F812100020B5
:100730004CEA012C4AFA00F111EA0C0F0ED0029992
:10074000411803EBE109C94315F809E001F007017D
:100750000BFA01F12EEA010E05F809E001300A2832
:10076000E8D10132102A2344DCD1089B06930022F1
:10077000B368ADF81E20ADF81C4000959C68059745
:1007800005AB11463046A047041E08DA0748036847
:100790005B0704D0074A234601210BF093FC28464F
:1007A0000EF04AFAACE700BF89FE0000DC0700202B
:1007B000A6FD0000CAFD0000F0B583688BB0DB69C0
:1007C00006A906469847BDF81840BDF81A700734C8
:1007D000E410674338460EF036FA054660B9124811
:1007E00003685B0703D0114A01210BF062FC6FF034
:1007F0000B0420460BB0F0BD3A46FF210EF0D9FAAB
:10080000069B04930022B368ADF81620ADF814409F
:1008100000959C68039703AB11463046A0470446F9
:1008200028460EF009FAE4E7DC070020E3FD0000AB
:100830002DE9F04FDFF8BC8083B09A46D8F800303D
:1008400003F00703022B02AF81460D46164614D96A
:100850006C468AB002AA284BC2E905314FF40073F6
:100860009384264BC2E9076A42F8103F00234FF4F5
:100870003351404601F0D2F8A5464846FFF79CFFA9
:10088000041E24DAD8F800305A0705D01C4A19484B
:10089000234601210BF016FC20460437BD46BDE877
:1008A000F08F534632464846FFF700FF041E0CDA2D
:1008B000D8F800305B07EFD09BF80030114A0D48A4
:1008C000009401210BF008FCE6E70B36B6B2AB460C
:1008D00015F8011B0029E4D1D8F8003003F0070314
:1008E000022B01D80024D7E7074A024803210BF066
:1008F000E0FBF7E7DC07002003FE00000500000135
:1009000024FE000040FE000062FE00002DE9F04FD2
:1009100091B08407009302F004030293C2F3C20370
:1009200003F10103DDF86880039205460E46059346
:1009300040F0BA81041D30B1072909D86FF01B00BF
:1009400011B0BDE8F08F01F007063444C6F1080687
:10095000009B4FF00009591E4FF0040A4FF0FF337F
:100960000193CDF810904F46CB4653460DB1009AF7
:1009700022600598002800F3E8809848009A824297
:1009800003D397488242C0F0E080039AA4EB050E9F
:1009900092074FEA9E0000F103810F2F00F2B18011
:1009A000002D00F0058107F140020DEB020C019AC9
:1009B0000CF8200C0CF8102C049801300490E7E09F
:1009C0007A285DD84B280ED8472859D829282DD801
:1009D000252852D054D820287AD02338D0F1000BC3
:1009E0004BEB000B74E04C382E2849D8DFE800F0C0
:1009F0007048484848484848484848484B4848484C
:100A0000484848484859484B4B595959704B6D48CC
:100A10007048184B184848827F4B48484B487F0025
:100A200000204FF0000B4FF0040A38E02A38C0B223
:100A3000012202FA00F010EA0E0F49D110F0625CB8
:100A40002FD110EA020B43D06046013C5444B4FB62
:100A5000FAF40AFB04F4002D61D0A3EB050CA444C6
:100A6000B4453FF66BAF002868D1042B47D158F846
:100A7000043B2360043404232AE0019A013A0192E2
:100A80004FF0000B24E011F8010C6C2834D111F860
:100A9000023C00206C2B8346C5D14FF0080A534618
:100AA000D3E708F1070828F007080734F8E802AB95
:100AB00024F0070435B106982044B0423FF63EAF1B
:100AC000C4E900AB08344FF0000B4FF0080A53465E
:100AD00011F8010F002878D0BBF1000F7FF470AF40
:100AE0002528F5D1019B013301934FF0010B4FF005
:100AF000040AECE7584694E700208346A5E7082B54
:100B000002D06FF015001BE708F1070828F007086E
:100B1000F8E80223C4E9002308340823D8E768B9B9
:100B2000042B02D108F10408A4E7082BE9D108F14D
:100B3000070828F0070808F10808EDE7059A013AC8
:100B4000059258F8042B009210E7039A900720D5DD
:100B5000A4EB050E4FEA9E004FF0010CBEF5007F9E
:100B6000CFD20F2FCDD8F5B107F140020DEB020E19
:100B7000C0B2019A0EF8200C0EF8102CBCF1000F38
:100B80003FF41AAF60F07F000EF8200C09F1010964
:100B90000137C5F10802043406924FF6DA7E97E772
:100BA0004FF0000CDAE7BCF1000F01D00136EFE79F
:100BB000029802360028EBD10098CDE90631FFF704
:100BC0001BFBDDE906310644E2E7631BB3F5806FEA
:100BD00097D23DB9A6F10804E018B1E658EF00003D
:100BE000E8230100029A28609B082B709DF81030C2
:100BF000C2B1EB7085F80290B9F1000F05D008A8DA
:100C00000022C5F1010C97420ED1C5F101030DF18F
:100C100020084FF0000A01930DF1300B574512D117
:100C2000601B8DE66B70E5E710F8013B190608D5EF
:100C30000CEB040EB64503F07F033FF67FAE04F8DD
:100C4000013B0132DFE7B9F1000F03D098F9002032
:100C5000002A17DB029BD3B11AF80B2004F8012BF2
:100C60000022019B18191044B0423FF667AE98F875
:100C7000000004F8010B0099039220460EF071F871
:100C8000039A14440AF1010A08F10108C6E798F82A
:100C9000002055F822300093029B45F8223000983E
:100CA000FFF7AAFA421CDCE76FF00D0048E600BF30
:100CB0002DE9F04F97B000AF90F802A0D7F880B0C0
:100CC0003B62CBF3C0030446FA62BB61894641B97B
:100CD000457800780AEB800020444D4517D8A0EBFA
:100CE0000409E378FB61BAF1000F02D01BF0010F99
:100CF00016D1FB6953BBFB6A1BB13A6A49462046D1
:100D000098474D4628465C37BD46BDE8F08F461CE7
:100D10003046FFF771FA0130304409F10109DCE790
:100D2000237862687A62FA6A9900796104EB830138
:100D3000002A40F004814D460E4601EB0A094FF0AF
:100D400000084E4550D101EB0A0610E01BF0020FDF
:100D5000D1D023789A007A6162687A62FA6A04EBE9
:100D60008301002A7BD14D4601EB0A0690461BF019
:100D7000050F0CBF02230123FB62FB6906EB430A4C
:100D80000BF00203BB625645BCD016F8021B16F8E6
:100D9000013C54F823909B4B994502D39A4B9945BB
:100DA0003AD3BB69002B44D0786A0AF0B0FC002823
:100DB0003FD09648036813F0060F13D0E9468AB077
:100DC0006A46934B53617B6AC2E906314FF4007364
:100DD0001384904B42F8103F00234FF4125100F05F
:100DE0001DFECD46023DCEE716F8013BF96254F8F0
:100DF0002300FFF701FAD7F88430F96A01304BB1CC
:100E0000D7F8883098453EBFD7F8843023F81800CB
:100E100008F10108054494E7BB6923B1786A0AF038
:100E200076FC0028C5D11BF0010F05D1FB6AED1A35
:100E3000A9E7BB6A002BA6D04846FFF7DDF9D7F833
:100E4000843053B1D7F8883098453FBFD7F8842015
:100E5000431C22F8183008F10108054493E7BAF161
:100E6000000F72D01BF0040672D0D046002607F1A6
:100E7000480052463B61B9620DF073FFB96A3B69A5
:100E800001EB0A02BA62FA69F9695200FA60BA6AB9
:100E900002EB41023A610BF00202BA603A69B96AA8
:100EA0008A4257D162787A621BF0020F32440CBF3B
:100EB0004FEA580100211BF0010FD2B240F09F8091
:100EC0001BF0040F14BF40460020BB616270A0708D
:100ED000E1703A6A7969FB6A20469847051EFFF679
:100EE00011AFBB6923707B6A6370FB69E370414695
:100EF0003A6AFB6A84F802A007F148009847B0F10B
:100F00000008C0F2BB807B693A6AA9EB0A01C91AE2
:100F1000FB68C91AD7E90A0398470028C0F2B080D5
:100F2000A84408EB00054FF0000B07F1380AB34561
:100F300072D300213A6AFB6A08469847E2E65646B1
:100F40004FF0000807F1380093E75646D04697E780
:100F5000B04695E7BA6A12F8021BBA6212F8015C51
:100F6000284A54F82500904202D3274A90421ED3C3
:100F7000BA6932B1786A7B600AF0C9FB7B680028E5
:100F80008CD1BA6802BB08F1280207F1300C08F1D5
:100F90000100944407F1580252FA80F008F1020867
:100FA0000CF8101C5FFA88F800F8105C76E7BA6954
:100FB0003AB1786A7B600AF0AAFB7B6800287FF46C
:100FC0006DAF1BF0010F09D006F1280207F13000C8
:100FD000711C161806F8205CCEB25FE71BF0040FF8
:100FE0003FF45CAF08F1280207F1300008F101017D
:100FF00002EB000808F8105C5FFA81F84EE7002069
:1010000063E700BF58EF0000E8230100D407002089
:10101000F5050100040000011BF80A3087F837309D
:1010200054F82390D7F884302BB3D7F888309B45F9
:1010300021D2D7F8843033F81B803A6AFB6A012149
:1010400007F13700984700281ADB0544B8F1000F74
:1010500006D14846FFF7D0F800F101081FFA88F8DA
:101060003A6AFB6A414648469847002808DB05442F
:101070000BF1010B5BE74FF00008DEE7454641E668
:1010800005463FE6014B1860704700BFC0040020D2
:1010900080B505460E461746984608F037FE0346CB
:1010A0000DF050FFDFF81890044649F80030424632
:1010B00030463946A84754F8090003F037FD00BF11
:1010C000080000002DE9F047058B044628079046EC
:1010D00011D4022905F0070540F0CC8020460AF023
:1010E000ABFD78B10138218B042811D8DFE800F07E
:1010F000C2106D85950001290CBF45F0100545F023
:101100002005258388F31188BFF36F8FBDE8F08732
:1011100001F0070AAA4500F0A5800027B9463E461F
:10112000A368002B00F0BC8041F00801218388F304
:101130001188BFF36F8FA168002900F0BA800D6895
:10114000002900F0B680D1F804803346524620468C
:10115000C047002D76D02B6829461D46F0E701F0E8
:1011600007035A1F012A1BD8002221F00701062B72
:10117000276889B2C4E9002209D13B4603E0628BAB
:10118000013262831B68002BF9D141F002012183F7
:1011900020460AF051FD00287AD041F0200176E087
:1011A000042B0AD121F0070189B2218320460AF0DD
:1011B00043FD10B141F020012183218B01F0070A8A
:1011C000AA454FD00027B946AAE7236921F00701B5
:1011D00041F00601062DD3F8009021832DD1B9F1FD
:1011E000000F3FD041F00801218388F31188BFF33D
:1011F0006F8F3A492046C84729E021F0070123694B
:1012000041F0040189B2042DD3F804902183E6D083
:1012100000273E464FF0040A82E721F007012369C8
:1012200041F0050189B2052DD3F808902183D6D06D
:1012300000273E464FF0050A72E700273E464FF072
:10124000060A6DE72B4687E7B9F1000FD1D1EFF31E
:101250001188202383F31288BFF36F8F238B23F031
:1012600008032383258BEA062ED525F0100323835C
:1012700005F007056669218B002EBFF670AF0023CD
:101280002768C4E9003321F0070141F001012183FF
:10129000218B01F0070AAA454FF000097FF440AF07
:1012A000002F9CD041F00801218388F31188BFF3FF
:1012B0006F8F002FC8D03D683946334652462046CE
:1012C0000AF0E6FC2F46F4E7AB067FF51BAF25F0EE
:1012D0002003238305F0070500E700BFBDBC000025
:1012E0002DE9F047DFF85880044607464FF0010922
:1012F00014B93846BDE8F08794FAA4F5B5FA85F537
:1013000009FA05F32E0108EB05156FEA030A24EA32
:1013100003042B7B002BEBD058F806301B694BB92C
:101320004644042273682846196807EA0A0700F051
:1013300035FBDDE7284698470028D9D1F0E700BF04
:101340003CF3000030B51049104889B000220DF080
:10135000FDFA0F4D0F4900220023CDE9062300249A
:101360000E23CDE90334CDE901440B4B00944FF437
:101370004072284608F030FA0849284608F05EF91D
:10138000204609B030BD00BFA1130000500D002061
:101390009008002000210020E1160000A9060100AD
:1013A000014808F0BBB800BF780800202DE9F047DD
:1013B00080461F480F460AF0E2FD0646002830D05E
:1013C00000252846BDE8F087237B6BB12368DB68E6
:1013D0000BB12046984723681B69D3B96368042280
:1013E0001968204600F0DAFA013610344C45EBD388
:1013F000B8F1000FE5D0002DE2D02846FFF770FFCE
:101400000546002FF7D000214FF4A4700DF0DDF950
:10141000F1E7204698470028E0D00AFA06F31D437A
:10142000E2E7044CDFF8109005464FF0010ADDE7D3
:10143000681400203CF300005CF30000014B53F8FB
:1014400020007047FCF4000008B5034608462BB1A5
:10145000044A136000F084FD002008BD6FF0150001
:10146000FBE700BFC404002010B5044C237813B977
:10147000034808F053F80123237010BD64200020B6
:101480007808002010B504460B480AF078FD5CB1DE
:10149000BFF35B8F094B53E8001F013943E800128B
:1014A000002AF8D1BFF35B8F05480DF05BFA0548C1
:1014B000BDE8104008F032B8601400206414002029
:1014C000500D0020780800200020064BBFF35B8FF2
:1014D000014653E8000F43E80012002AF9D1BFF398
:1014E0005B8F70476014002070B5FFF7EDFF084C6C
:1014F000084E0546B44200D370BD63685B792BB1DA
:1015000023685B6813B12946204698471034F1E7F9
:101510003CF300005CF3000010B5044C0449204685
:101520000AF023FA034B1C6010BD00BF8C0700209B
:10153000E8F4000058140020094A0A4808B50023BE
:101540001370094A1360094A4FF400411360FFF712
:101550007BFFFFF7E1FFBDE8084000F06FB900BF77
:10156000652000207BBF0000601400206414002070
:1015700001460022014800230AF018BA8C07002017
:1015800001480AF0B1BA00BF8C070020024B0146A7
:1015900018680AF0FDBA00BF5814002001480AF08C
:1015A00032BB00BF8C0700202DE9F041354B187885
:1015B000002864D0FFF7E4FF044698B1BFF35B8FC7
:1015C000314B53E8001F013943E80012002AF8D1DB
:1015D000BFF35B8F2D4DDFF8B88045452DD32046F6
:1015E000FFF7D4FF2B4B2C4C1B68002B19DD0DF0A3
:1015F00066F94FF47A72A0FB020302FB0131C30BC0
:10160000D4E9002043EA41439B1A4FEAD13140F22A
:10161000E93261EB0001934271F1000101D3FFF760
:1016200063FFD4E9003213F57A7342F10002C4E992
:101630000032BDE8F041FFF7B1BF6B685B793BB1A9
:1016400021784B0706D52B6821461B68284698470A
:101650001035C2E720462688C1F3C20700F0BEFA63
:10166000C6F382160246002EEDD00028EBDB0123E4
:101670003946284600F0ACF9B042E9D3E3E7BDE8CB
:10168000F08100BF64200020641400203CF30000BF
:101690005CF3000060140020480D002070B50D4D73
:1016A000297861B90120FFF781FE0B4C0B4EB44243
:1016B00006D3FFF779FF0028FBD101232B7070BD03
:1016C00063685B791BB1236820469B689847103498
:1016D000EDE700BF652000203CF300005CF3000054
:1016E00000212DE9F0470846FFF760FE044658B395
:1016F00040F267684FF000090DF024FC1B4B1C4AB8
:101700001B58136033B11B4B1B68092B02DD1A48B1
:1017100007F004FF194FDFF860A0002544B1204610
:10172000FFF7DEFD044618B94FF0FF384FF0FF39E0
:10173000FFF73AFF064628B9B5B942464B46504630
:1017400007F020FF3546E9E74FF0FF384FF0FF394B
:10175000D2E72B689B691BB10022114628469847A7
:101760001035BD42F5D3E8E7054DFAE70800000063
:101770005C14002064140020780800205CF3000052
:101780003CF3000013B518480AF0F9FB174B1B781F
:1017900073B1EFF31184202383F31288BFF36F8FAB
:1017A000FFF702FF84F31188BFF36F8F02B010BD03
:1017B0000F4B1B68002BF9D050B900220023CDE954
:1017C00000230C484FF40042002308F0B1FDEDE780
:1017D0000928EBD107480DF0C5F8074802B0BDE86D
:1017E000104007F09BBE00BF64140020652000205D
:1017F0005C140020500D00207808002010B5064B26
:101800001B68044698472146A06004480AF04DF939
:10181000BDE81040FFF7B6BFC40400208C070020CD
:10182000044A054B9B1AB1EBD30F34BF52F8310079
:1018300000207047B4F200003CF300000B480C4B52
:1018400030B51B1A0B4CDB0800210430994200D143
:1018500030BD10F83120256802F0070225F0070599
:101860002A4344F8042B0131F0E700BFB4F2000032
:101870003CF30000D0070020F8B50B4F0B4DED1BDB
:101880000646ED080024AC4203D14FF0FF34204659
:10189000F8BD57F8340020B13146FEF79BFC002814
:1018A000F5D00134EFE700BFB4F200003CF30000D4
:1018B00000282DE9F047884615461F461DDADFF857
:1018C0009890264E4FF0000AA6EB090636095446BA
:1018D000B24509F1100902D12046BDE8F08759F858
:1018E0000C0C3B4600792A464146FFF7E1FF844253
:1018F00038BF04460AF1010AEAE7194B194AD21A1D
:10190000B5EBD20F26D203EBC5031C79BC4228BF2E
:101910003C46154EC0B200EB400056F82530072279
:10192000824023EA020304F00702824013430021AD
:10193000032223FA02F000F00700814202F10302C1
:1019400038BF01461E2AF4D123F007030B4346F8A3
:101950002530C1E70024DCE73CF300005CF3000025
:10196000B4F200003CF30000D0070020F8B5094DA8
:10197000094BED1A06460F46ED080024AC4200D391
:10198000F8BD002122B23B46304601340AF017FB75
:10199000A4B2F3E73CF30000B4F2000038B50B4BFF
:1019A000C31A0D461B111146426801331371436877
:1019B00004469971FFF7DAFF63681D6063680122CE
:1019C0005A71BDE83840FFF74FBD00BF3CF300003F
:1019D00070B14168097973B1002A17DBCBB20C49A9
:1019E00051F8220003EB4303D84000F00700704792
:1019F0004FF0FF31EFE707490748401AB2EBD00F2D
:101A00003ABF01EBC20108791846704704207047BD
:101A1000D0070020B4F200003CF300002DE9F04FA5
:101A20008FB004AFC1F34A28B8600D4691467B6081
:101A30000C0DB8F1000F67D0002607F114034FF02A
:101A4000040B4FF00A0AC7F80C80C7E907667E62EC
:101A50000193CDF808B0CDF800A007F11C03F96898
:101A600032464846FFF724F9B0F5006F034620D30D
:101A70002A48036813F0060F17D06C468AB0D9F8CD
:101A8000041004AB264DC3E9055140F2FF71D96142
:101A90001A464FF400711984224B42F8103F4FF45C
:101AA00012513346FFF7BAFFA5462C37BD46BDE8B5
:101AB000F08FC0F30A0804F11700184420F0070063
:101AC00080083B60FFF754FD68F35325044690B14E
:101AD0003B68154AC7E9083600F1100107F1140305
:101AE000F961CDE900A3CDF808B0F96807F11C034E
:101AF0004846FFF7DDF868F353257B68B9682A4646
:101B000020460AF086FAD0E704F1170020F007001B
:101B10008008FFF72DFD0446EDE700BFE407002035
:101B2000BE06010004000001E7BF00002DE9F04FF0
:101B300087B0DDE91279DDE9105A04460391934636
:101B40009846DFB1CDF800903B4652461021002068
:101B5000CDF81490FEF7DAFEB0F5006F06460ED30E
:101B60001C48036813F0060F30D01B4A40F2FF7385
:101B7000022107B0BDE8F04F0AF0A4BA3E4605F1D5
:101B80001700304420F0070004F007048008FFF736
:101B9000EFFC0BF0070BE40044EA8B1444EA462404
:101BA00044EA0554054640B13FB1CDF800903B46AC
:101BB000524631461030FEF7A9FE039943462246AD
:101BC000284607B0BDE8F04F0AF023BA07B0BDE8D9
:101BD000F08F00BFE4070020FD060100406820B13F
:101BE000034BC01A40F38F0070474FF0FF3070472F
:101BF000D00700200EB403B503AB014653F8042B05
:101C00000448019303F046FA02B05DF804EB03B018
:101C1000704700BF27C10000CA0605D48B064CBF21
:101C200002490349FFF7E6BF704700BFB80A010049
:101C3000350701002DE9F04F89B09B46149B0693B0
:101C40009DF84CA0159B0593169B179E0493044684
:101C50000D469046BAF1000F00F09D8006F48073A7
:101C600007930AF0AAF906F00209024600283ED0BE
:101C700091492046FFF7BEFF0746B9F1000F08D093
:101C800016F0440F35D18D492A462046FFF7B2FFA2
:101C9000074406F0010353B1894B8A4953F82A20BF
:101CA000894B2046002A08BF1A46FFF7A3FF06F417
:101CB0008073002B49D006F00803002B63D1B8F1E4
:101CC000000F66D0814942462046FFF793FF054644
:101CD000069B3D44002B6DD1049B002B73D1F30771
:101CE00000F1E48031462046FFF796FFD8E0074632
:101CF000C3E7774B18680028CAD0764B4FF47A793F
:101D00001B68B5FBF3F54FF46163B5FBF0F100FB25
:101D1000115509FB05F54FF03C0CB1FBF3F203FB49
:101D20001211B5FBF0FEB1FBFCF300FB1E550CFBE2
:101D3000131109FB05F50091B5FBF0F56649CDE9F6
:101D400001E52046FFF756FFA2E706F00803EBB1D6
:101D5000624B634953F82A202046FFF74BFF0546A4
:101D6000B8F1000F05D0594942462046FFF742FF1F
:101D70000544BBF1000FABD05A495A462046FFF745
:101D800039FF0544A4E74FF0000BE1E706F0080532
:101D9000E6E745469CE7BBF1010F069B06D1002B09
:101DA00064D1049B002B7BD000250CE0002BF8D0E5
:101DB0004D485CE04D48069B4D49224609F076FCB3
:101DC000049B002B68D0DFF82C81DFF82C91049F56
:101DD0003146102F204628BF1027FFF71DFF4FF078
:101DE000000B5D4545DC059B49461A782046FFF708
:101DF00001FF4FF0010B1BF0070F03D141462046B6
:101E0000FFF7F8FE5F453BD9059B494613F80B20C9
:101E10002046FFF7EFFE0BF1010BBBF1100FEAD1EB
:101E2000364920464FF0000BFFF7E4FE5A46059B6B
:101E30009A5CA2F120015F2928BF2E22304920465A
:101E4000FFF7D8FE0BF1010BBBF1100F1DD01BF0FB
:101E5000070F03D141462046FFF7CCFE5F455A46A7
:101E6000E5D841462046FFF7C5FEEBE71F4855463B
:101E7000A1E741462046FFF7BDFE0BF1010BB0E79D
:101E800020492046FFF7B6FEC5E7059B3B44059376
:101E9000049BDB1B04939AD1BAF1000F7FF41FAFB0
:101EA000204609B0BDE8F04F0AF030B9064A0549AE
:101EB0002046FFF79FFE15E73D070100410701009F
:101EC0000CF50000A10B01003807010066070100B6
:101ED000701400206C1400204A07010020F5000057
:101EE0006A070100700701005DC1000027C1000002
:101EF000955000007D070100750701007F07010074
:101F0000C61101007B07010073B542F20F738B42CB
:101F100028BF0B4605680F4A04460521684608F0AD
:101F200029FE63680C495B6806460B2228460AF0C6
:101F3000DFF863683246694628465B680AF0D8F8DD
:101F4000636806495B681B2228460AF0D1F802B094
:101F500070BD00BF5FFE00009D070100810701000A
:101F6000074A00210123904206D8064A01B90123FD
:101F70001360054B1860704740085B000121F2E7D1
:101F800040420F006C14002070140020014B01220D
:101F90001A70704766200020014B002019607047BE
:101FA000881400200148FFF7AFBF00BF50F50000C4
:101FB00010B5064B18680C46FFF740FA2146034659
:101FC000BDE8104002480F22184700BF88140020C7
:101FD00050F50000F8B5094D094B0A4ED5E9004708
:101FE00001221A700CB92C60F8BD214630463A46E1
:101FF00000F01EF8241A0644F4E700BF7C14002009
:10200000672000206820002010B9074B1870704727
:10201000064B1B781BB141F288300CF051BAA4205A
:1020200000210CF0D2BB00BF6620002067200020FA
:102030002DE9F047DFF878901E4F80460E460424C5
:1020400099F80050A5B90CF036F93246824641465F
:10205000284606F0B5FB054650460CF034F9E5B1CC
:1020600001233B7099F8003073B93046BDE8F08722
:1020700032464146002006F0A3FB0546EFE7204626
:10208000FFF7C2FF651E2C46002006F0DDFB00288E
:10209000EBD03B78002BF2D1E7E73B78002BE4D084
:1020A000013C2046FFF7B0FF3B78002BC8D1DCE7AE
:1020B0006720002066200020014B0360002070474D
:1020C00060F5000010B504460BF082FF034902469C
:1020D00020460AF021FA002010BD00BFF0070100E1
:1020E00073B5134600220192044601AA58680A21DA
:1020F00001F0F0FB019D95B920EAE0744FF4004631
:10210000294640F2E7304FF47A720023C4FB0601FF
:10211000FEF746F80CF059FB284602B070BD2A467F
:10212000024920460AF014FA019DF5E71C08010057
:1021300008B5034A03490AF0EFF9002008BD00BFC3
:102140000C090100130901002DE9F3411746002392
:10215000044601AAB86801930A2101F0BBFB019D66
:10216000C6B24DB12A46144920460AF0F1F9019D44
:10217000284602B0BDE8F081042E09D90F49324645
:1021800020460AF0E5F920460AF01EFA0125EFE79D
:102190007868FFF771FBB0F1000804DA7A68084943
:1021A00020460AF0D5F9002133460FFA88F2084696
:1021B00009F005FFDCE700BF3E09010065090100E9
:1021C0007C09010010B5044604F02CFF07490246C3
:1021D00020460AF0A1F9204605490AF09DF9054874
:1021E000214607F0DBFE002010BD00BFDB09010027
:1021F000FA090100F921000070B58EB004460D46C1
:10220000D0F89C600CF021FA03460CF09BFE214AAA
:1022100021491058214A002B18BF1A460092204A23
:102220002346844218BF0A4628461E490AF074F91C
:10223000D4E90A23CDE90023284694F90E30227B05
:1022400019490AF069F906A92022204607F006FA82
:10225000636E1649024628460AF05EF905A9204633
:102260000CF001FA024628B1114928460AF054F947
:102270000EB070BD059B6422F11A4A430091B2FB77
:10228000F6F20C49CDE90162284632460AF044F9DB
:10229000EEE700BF080000007D070100040A01000E
:1022A000571C0100070A0100130A01003F0A010040
:1022B000560A0100830A0100F0B5002591B00446DA
:1022C000294608AF1C2209A80CF073FD134E1A22F0
:1022D000202138460CF06DFD2146114807F05EFEC6
:1022E00007AA4FF4006130460CF0B1F9079A009745
:1022F000C2F5006164234B43DB0A05934FF400638E
:10230000CDE90313CDE90132204606492B46A6F15B
:1023100040020AF001F9284611B0F0BDC02C00209F
:1023200029230000D40A010070B50446D0F89C604F
:1023300088B00D4607A90CF096F9024628B10F495E
:1023400028460AF0E9F808B070BD20460CF07DF987
:10235000079B0096F11ACDE90131094B64224A43EB
:10236000002818BF0346B2FBF6F20649CDE9036226
:10237000284622460AF0D0F8E5E700BF560A0100D9
:10238000040A01001D0B01002DE9F04F87B004463F
:10239000684606F0E1FD009F284ADFF8A4A0DFF8B8
:1023A000A4B0182303FB0077082120460AF0A7F801
:1023B000009DBD4203D3002007B0BDE8F08F2B681D
:1023C0000BB11A7832B92B461F4A142101A808F024
:1023D000D1FB01AB5246082120460AF090F828466E
:1023E0000CF073F8194B1A4A002808BF5B46082105
:1023F00020460AF084F86B69A3B11E6896B1336871
:1024000083B1144A082120460AF079F8B1464FF00A
:1024100000083368104A434506D8104A0821204670
:102420000AF06DF81835C4E759F8043F0821204632
:102430000AF065F808F10108EBE700BF900B010016
:102440009F0B0100870B01009A0B0100810B01001B
:1024500025120100A40B0100A00B0100B80A010025
:102460002DE9F04114468846074610226068002195
:1024700008F0ACFBB8F1020F064607D8254A202326
:10248000082138460AF03BF8336816E00A2200219A
:10249000A06808F09BFBC5B21E4A2B4608213846AF
:1024A0000AF02DF8B8F1030F1AD1102D0CD0202D01
:1024B000EAD0082D0BD13378DBB2174A0821384611
:1024C0000AF01DF8002009E033889BB2F5E7384692
:1024D000124A08210AF013F86FF01500BDE8F081E8
:1024E000E0681022002108F071FB0D4A0346044603
:1024F000082138460AF003F8102D06D0202D07D009
:10250000082DE4D1E4B23470DCE7A4B23480D9E71A
:102510003460D7E7E50B0100100C0100FA0B010055
:10252000210C01002DE9F04F87B000230193524B9D
:10253000DFF848A191460122074688461A6002F05A
:10254000EBFD4FF0FF3520262C46494652464046CB
:1025500002F006FE411C06D16A1C41D148493846AA
:1025600009F0F6FF17E073281AD0772828D06128E1
:1025700011D1DFF810B101AADBF80000102101F041
:10258000A9F9019B0546002BDFD0DBF800203E496E
:10259000384609F0DDFF6FF0150007B0BDE8F08F99
:1025A000DFF8E0B001AADBF80000002101F092F9A9
:1025B000019B0446002BC8D0DBF800203349E7E735
:1025C000DFF8C0B001AADBF80000002101F082F9B9
:1025D000019B0646002BB8D0DBF800202C49D7E73A
:1025E000631C01D12B49BAE75FFA86F8C6F3C4062B
:1025F000002C3FD002AB29461A46A6EB050C0CE096
:10260000B8F1100F1DD0B8F1200F20D0B8F1080F8D
:102610002AD10878187031443344A64203D80CEB11
:1026200001001028ECD9102CA14628BF4FF010094A
:1026300029464B46384601F025F81035A4EB09042D
:10264000D6E7088880B21870000A5870E3E7086877
:1026500018704FEA102E83F801E04FEA104E000E7A
:1026600083F802E0D870D6E70B4A0821384609F013
:1026700046FF90E7204690E7500500206F0C0100D0
:10268000760C0100601D0020350C0100480C010093
:102690005B0C0100930C0100FA0B010070B50F4EAA
:1026A000044633780D4671B123B1BDE870400C4942
:1026B00009F04EBF012333700A49204609F02CFF70
:1026C0000123337004E083F001033370002BF3D156
:1026D00029462046BDE8704009F093BF78200020CD
:1026E000AD0C0100E80C010070B504463B480378CE
:1026F000182B02D10B78112B31D0013A0B468D18D3
:10270000AB4225D18B5C0A780370A2F13003092B10
:10271000334C04D922F02003413B052B04D8236815
:102720003049CA54013323602368022B33D110226D
:102730002C48002108F04AFA2B4A136803F8010BD1
:1027400013602A4A1368013313600023236022E0D8
:1027500013F8016B182ED3D11E78112ED0D1234D32
:1027600023492A68204609F0D7FE20460021FFF7BA
:1027700095FF204B187870B91F4A2B681168042BFD
:102780000ADC08B111602B6013F003010BD1126851
:1027900013681BBA136070BD086800BA41F8040BD7
:1027A000043B0120EBE75B4203F0030358BF5942AF
:1027B000022904D1126813885BBA9BB2EAE70329A5
:1027C000E9D1106802681104C2F3074301F47F01E4
:1027D0000B4302F47F4213430360DCE779200020BF
:1027E0008C1400207B2000209814002090140020DE
:1027F000120D01007A200020941400202DE9F84FDA
:102800000C462B49DFF8AC80DFF8AC90DFF8ACB0B9
:1028100000230B602A4988F8003006460B601546F5
:10282000012C2F4655F804AF1ED9022249465046C6
:102830000CF0E4FA80B99AF80220003A18BF01229D
:1028400092442049022250460CF0D8FA30B90123B4
:1028500088F80030013CE3E70022F1E749465046A2
:10286000FDF7B8FCA8B9043700221146786808F0D3
:10287000ADF9154B002211461860786808F0A6F9EA
:10288000124B134918603046FFF708FF0020BDE8DF
:10289000F88F9AF800202D2AE6D19AF80120002A14
:1028A000E2D052465946304609F036FED2E700BF24
:1028B0008C1400207A2000202C0D0100320D010024
:1028C000901400202F0D0100981400209414002073
:1028D000E926000007B50A480BF0F7FD60B1094A88
:1028E00007491268084804230093012300F030FFD1
:1028F000002003B05DF804FB6FF01200F9E700BFA1
:1029000038F0000008F600005CF3000010B54468E1
:10291000C4E90012A36042684023D36402F1580363
:10292000136300230821C2E90E33C2E91133C2E95F
:102930000633C2E90933D1621468536302F15001CE
:102940001364116153611362C2F8D030A36823B1DC
:102950001B6C13B1044920469847A3681B6A0BB14E
:1029600020469847002010BD6D2900002DE9F7434F
:1029700004460D468368DB6B03B19847A368DB6AA6
:102980000BBB4FF0000905F13008EA6C01A9404685
:1029900009F038FA0746002836D0A36801991B6968
:1029A0003BB3024620469847064628B33146404688
:1029B00009F047FAB7424FF00109E6D0D5E90131F5
:1029C0000020984703E0204698470028D9D1A36803
:1029D000DB6963BB05F11007EA6A01A9384609F013
:1029E00064FA064650BB204609F00BFCC5F8D060DF
:1029F0002FE06FF05706D9E70146404609F021FA6B
:102A0000B9F1000FE3D0D9E71648036813F0060FB9
:102A100003D0154A022109F04CFBA3681B69002B67
:102A2000EED001220DF1030120469847E8E7204649
:102A300098470028CED103B0BDE8F083A368019980
:102A4000DB685BB10246204698470146384609F0EC
:102A50004CFAD5E9013101209847ECE76FF05701B6
:102A6000F4E700BFF8070020990E010010B5816857
:102A70000446183101F060F9A168034A2046183174
:102A8000BDE8104001F0FEB8DB0E010038B58368E8
:102A9000D3F87832DB0704461DD4C0690AF0E9FA9E
:102AA000606803685B689847054620B9E0680AF0EB
:102AB000B5FCA3681D75A3685B6C13B1294620465D
:102AC0009847A3680CF03EFA0022C3F82023034B7A
:102AD000185802F02BF86FF00F05ECE70800000023
:102AE000014909F02CBC00BFB80A0100F7B5044643
:102AF0008068D0F878325A070D4605D5002109F0D4
:102B000046FCE0680AF05CFCE368DB6873B9002D02
:102B10003BD0A66806F15607384609F01DFC002890
:102B200035D0394606F5AB70FDF75EFBA268E0686C
:102B30000DF10603563229460AF045FC58B9A06843
:102B400000F5AB715630FDF74FFBA068563009F029
:102B500003FCADF8060020460AF046F8A368D3F857
:102B600074329B0603D50B49606909F0E8FB2046E7
:102B700000F016FFA268BDF80630A2F85230A26835
:102B80002046A2F8503009F094FF03B0F0BD86F85B
:102B90005601CBE798F400002DE9F04FA7B00446AA
:102BA0005422002111A80CF004F90023CDE90533CB
:102BB000A3682046563302930AF01DF8204609F018
:102BC00061FF10B96069FFF78BFFA0681422002134
:102BD00018300CF0EEF8204609F0FAFEA168E06823
:102BE000B1F85020563100260AF024FC20460AF0A5
:102BF000A3FC4FF0FF37B24603960DF14408B346ED
:102C00003546B146DDE90532012A6DD0132B6ED869
:102C10005FBBBBF1000F0AD020460AF0AEFCA268F1
:102C20001423563211A90DEB030009F050FDB9F140
:102C3000000F0CD099F81130FE2B08D1059B26AA65
:102C400002EB830252F8542C0AB101330593A068B9
:102C5000059D436A002B40F0B680CEB1C3699E4209
:102C60002DD00D9600F1180524E0029A022341466A
:102C700006A809F02CFD0699D8F804200292034614
:102C800031B101290AD148B16D4A20460AF065F8F0
:102C90006FF00705284627B0BDE8F08F059B002B95
:102CA00034D0D8F8000001F067F898B166B1A56893
:102CB0000D9618350CAE0FCE0FC533682B6020462D
:102CC000FFF7D4FE0125E5E75E4A012120460AF020
:102CD00044F8DDE7059BCBB1D8F800202946204613
:102CE00001F0ECF9022809D1059B132B91D9069B21
:102CF000022B8ED1544B554A0121C6E7032805D03B
:102D0000059B013305934FF0010B7BE7039B33B920
:102D1000D8F8001007AA484609F0D0FD054608F18A
:102D20000408013F9DB3EB68BBF1000F08D0F3B17D
:102D3000204609F060FF204609F0BBFE444AC4E784
:102D4000ABB1A368DDF814A0AE4603F1180CBEE8E1
:102D50000F00ACE80F00DEF80030CCF80030AB68B4
:102D60002BB96B7CFE2B04BF2F7C07F1FF37D5F806
:102D700004C0BCF1000F08D0AE46BEE80F000CAE98
:102D80000FC6DEF8003033606646A94603E0059BB7
:102D900053B101230393069B17B9022B7FF432AF83
:102DA000059B013305932DE7A368DB6A13B1DB684C
:102DB000002BEED1274B0093274A119B012120467F
:102DC00009F0CBFFE5E790F82830A5EB0A05BBB189
:102DD00090F829104FF6FF72FF2918BF0A469D424E
:102DE00002D313449D420BD983691C4A012120461A
:102DF00009F0B3FF2046FFF739FE6FF0150549E7EC
:102E0000012109F0B9FAA06800F5437009F0D8FA79
:102E1000A36811AA294602EB8A025B6A20469847FA
:102E20000546A0684FF0FF324FF0FF3300F54370C6
:102E300009F06DFAA068002109F09EFA2AE700BFA8
:102E4000E90E0100FD0E01005E0F0100970901006F
:102E50001B0F01004A0F010052120100820F0100F6
:102E600010B5836802221A7583689B6C0446BBB94F
:102E700009F024FA8368D3F87832DB040BD50321F8
:102E8000084B094A09F069FFA0686FF4805100F50A
:102E90001E7009F02DFA2046BDE8104000F0D4BEA7
:102EA00010BD00BF9D0F0100A10B01002DE9F04FE7
:102EB00004468068B1B0012100F51E7009F009FADE
:102EC000A3681B7D022B20D100230993A3686068AF
:102ED0009E6C03681D6909AB0EB310221BA9A8479D
:102EE000099B93B1A068012109F046FA099A1BA930
:102EF0002046B047A068002109F03EFAA3689B6C09
:102F0000002BE3D12046FFF7ABFFA0686FF0010173
:102F100000F51E7031B0BDE8F04F09F0E9B90122AB
:102F20000DF12301A847099B002BEED09DF923202A
:102F30009DF82310A368002AC8DB5A7D032A00F2FB
:102F40009882DFE812F0040085029C0296020D29A7
:102F50007CD00A2958D0B3F878226FF3CA02A3F8BC
:102F600078220929A06800F086803DD80029ADD0DC
:102F7000082900F0FC810346D3F874229207A5D5F6
:102F800001391629A2D801A252F821F021350000FA
:102F9000A9330000B1330000A13300001535000053
:102FA000CF330000CD2E0000CD2E0000CD2E00002E
:102FB000CD2E0000D7330000DF330000CD2E0000FF
:102FC00009340000CD2E000013340000CD2E000087
:102FD000CD2E0000CD2E0000CD2E000017340000B5
:102FE000CD2E0000413400001B2941D07F2900F084
:102FF000CA81A1F120025E2A0346BDD8012109F051
:10300000C6F99DF82310B9E0D3F87822C2F3C702BD
:103010002AB1D3F87822C2F3C7020A2AACD1B3F896
:10302000782261F3CA02A3F87822A568B5F8501097
:10303000C1B9284609F0ABF9E0680AF0C1F9606946
:10304000FFF74EFD2046FFF70BFF3FE7D3F878224E
:10305000C2F3C702002AE2D0D3F87822C2F3C70233
:103060000D2ADBE72046FFF797FDC5F82403E9E7C3
:10307000012343752AE7D0F874329B077FF526AF0A
:10308000012109F084F9A068B0F85030FF2B3FF41B
:103090001DAFB0F8522000F1560100F5AB700BF0F7
:1030A00060FEA368B3F852201344002583F85651FC
:1030B000A2681BA9142302F5AB720BA809F007FB49
:1030C0000B9914293FF602AF30AB03EB810343F8B1
:1030D000545CA368B3F85220002A53D0134493F8E9
:1030E0005530202B02D0093B042B4BD800294CD162
:1030F00000250A950A9B30AA02EB8303002653F8A9
:1031000054AC504609F028F9B3468146B0463746DC
:1031100016AA3946284600F0A3FB0346002840D1F2
:10312000012EA76865D10A9B30AA02EB830353F8EE
:10313000540C09F011F907F11802064641462846D9
:1031400000F08EFB0568284609F006F9864205D096
:10315000821B92B2A919204609F046FEA068B0F879
:103160005230034493F85630202B31D0093B042BC6
:103170002ED9D0F87432DF072FD42021204600F05A
:103180002BFDA3E60129B3D9013900200CAB009334
:1031900001900AAB1BAA09F0BCFB05460028A9D187
:1031A00094E61B6803934A46514618460BF026FEE8
:1031B00060B9039B1846FDF71FF8584538BF5846BD
:1031C0001FFA80FB002E08BFB846013601379FE783
:1031D0000121204609F0A1FC78E6002109F0E1F880
:1031E0002021204600F0F8FCA068012109F0D9F860
:1031F0006CE604907FF66AAE0A9A30AB03EB82026B
:10320000C14652F8543C0393184609F0A5F8049BB4
:103210000590A7F840300496A2684946183228461F
:1032200000F01EFB039BD0F800A009F101094BB18F
:10323000BAF1000F06D0059A194650460BF0DEFD94
:103240000028E9D1A168BAF1000F4ED1A1F840A041
:10325000049B013B0493DFD16069FFF741FC2046EA
:1032600000F0F2FC0A9B30AA02EB830308F1010A8A
:1032700053F8540C09F070F8414611AA81462846CB
:1032800000F0EEFA0746A0683968FF2200F5AB703F
:103290000BF0C6FD3B6803934FF6FF77B84616AABE
:1032A000514628460AF1010B00F0DAFA002852D004
:1032B000A168036801F25511002211F801EF985C32
:1032C000704503D110B101324245F6D1B9F1000F7A
:1032D00001D04A4507DBBA4206F1FF36A8BF3A469D
:1032E000012E97B237D0DA46D9E79948069109F00E
:1032F00033F8069907914A8F00EB0B07BFB2121AF9
:10330000504692FBF7F292B2069209F025F807991F
:10331000069A3F1AB1F8400000F1010CA1F840C034
:10332000B0FBF2F102FB110080B2BFB260B9884B72
:10333000884ACDF800A00621204609F00EFD394646
:10334000204600F017FB83E7834A534606212046B8
:1033500009F003FDF3E7002F3FF4B8AD0399A7EBA5
:10336000090292B24944204609F03EFDAEE5D0F88C
:1033700074329E077FF5AAAD012109F008F82046B6
:1033800009F053FDA2E5D0F874329D077FF59EAD9C
:10339000012108F0FCFFA368D3F874321907EED4BA
:1033A000204609F023FD91E5204609F02DFC8DE52E
:1033B000204609F020FC204609F064FB10B9606942
:1033C000FFF78EFBA068012108F0E1FF3AE62046F6
:1033D00009F023FC7AE5204609F02AFC76E5D3F8CB
:1033E00074329B0603D55D49606908F0A8FFA368A5
:1033F000D3F874329F0603D55949606908F09FFFDE
:10340000204600F021FC61E500212046FFF76EFB1D
:103410005CE50121F9E7204609F0E6FB204608F0CB
:103420004DFF0121A06808F0B2FFA368D3F8743201
:103430009E067FF54BAD4B49606908F080FF45E57E
:10344000204600F027FBA068012108F0A0FF3DE521
:103450005B2902D102225A7538E5D3F874329D07F0
:1034600006D5622907D14FF0FF31204609F07EFBD7
:10347000A3680022EFE76629FAD10121F5E70022CF
:103480005A75A268D2F8743298077FF51FADA1F182
:1034900031031B2B3FF61AAD01A151F823F000BFF9
:1034A0001D350000293500003D35000011350000B4
:1034B000CD2E0000CD2E0000CD2E0000CD2E000020
:1034C000CD2E0000CD2E0000CD2E0000CD2E000010
:1034D000CD2E0000CD2E0000CD2E0000CD2E000000
:1034E0001334000009340000CF330000A93300007A
:1034F000CD2E000015350000CD2E00002135000036
:10350000CD2E0000CD2E0000CD2E00002D35000068
:1035100003235375204609F06EFBD7E4032353754C
:10352000204609F061FBD1E403235375A068D0F86D
:10353000741201F0010181F0010157E60323537574
:10354000A368D3F874329B077FF5C0AC28E700BFAF
:103550007C070100E10F0100A10B01009DF40000B8
:10356000A2F4000098F400002DE9F04104468068C0
:10357000154600F51E70002937D04FF4804108F041
:10358000A8FEA368DD646068036800219B68984713
:1035900000284BD1204608F03AFF002846D1244E9F
:1035A000244FDFF89480A06800F52F704FF0FF32B1
:1035B0004FF0FF33032106F0F5FE0546A0684FF0FB
:1035C000FF324FF0FF3300F543709DB108F09FFECE
:1035D00020462B46194A012109F0BFFBA068BDE82F
:1035E000F04100F5437008F0EBBE6FF4804108F045
:1035F0007FFEC6E708F08BFE32460221204608F027
:1036000088FE3A462946204608F083FE2046424678
:10361000012108F07EFE606803685B6903B198478A
:10362000A06800F5437008F0CBFEBCE7BDE8F08170
:103630008D2A0000AD2E0000C5C30000E70F010079
:1036400010B50B49044608F067FF2046094908F009
:1036500063FF2046084908F05FFF2046074908F04D
:103660005BFF2046064A002100F00CFB002010BD45
:10367000FE0F01003C1001009B100100EF10010043
:1036800089110100F8B517461E460A462949044625
:1036900008F042FF3EB33A782749204608F03CFF45
:1036A00001256A0703D12549204608F035FFAE42BF
:1036B0001ED97A5D2049204608F02EFF0135102DD5
:1036C000EFD11F49204608F027FFB6B91B49204615
:1036D00008F022FF0125AE422B4610D8174920469C
:1036E00008F01AFF15E01749204608F015FF0125DC
:1036F0001449204608F010FFE0E700252B46FA5C4D
:103700001149A2F120035F2B28BF2E22204608F08A
:1037100003FF0135102D06D06B07DCD10749204689
:1037200008F0FAFED7E720460849BDE8F84008F05F
:10373000F3BE00BF9F110100750701007D07010066
:103740007F0701007B070100C6110100A6110100DF
:103750002DE9F043044680688846D0F8201389B0EC
:1037600015461F46002960D14FF44A720BF021FB29
:10377000E06809F0C7FEA06800F543700AF048FF52
:103780004FF42F794FF41F76A06830440BF034FAD1
:10379000A068002283190121484410360BF003FA77
:1037A000B6F52F7F09F11409EED1A36900261E603A
:1037B000A068022100F51E7008F08BFDA36850225E
:1037C0005A87A36818221A872168204608F0CEFE7F
:1037D000A368174A66F38205C3F8745260680368E9
:1037E00041461D682346A8470546D0B9A368012273
:1037F0001A75D4E90A0100220023CDE906230E231D
:103800000393109B0495CDE901730094094B4FF489
:10381000006205F0E1FFA368C3F82003616A05F0C8
:103820000DFF284609B0BDE8F0836FF07705F8E793
:1038300065C300006935000010B5044613460A460A
:103840000146064801F026FC23691B7923B1204676
:10385000BDE8104008F0DBBE10BD00BF27C6000069
:1038600038B50B46154648B91449154A521AB3EBF8
:10387000920F05D251F82350284638BD84680CB900
:103880000025F9E70F4A94420AD30F4A944207D21F
:1038900018462268294690472B68002BECD1EFE7A9
:1038A0000A4A944202D30A4A944205D32468142255
:1038B0005343E518E358F0E70133F8E78CF30000D1
:1038C000B4F3000090F4000090F40000B4F30000A2
:1038D00090F40000F7B503782D2B0446164605D169
:1038E0006FF015033360002003B0F0BD0BF02AFB2E
:1038F0000B4F00230546C3510A46204601A907F095
:1039000065F9EB59222B02D16FF02103EAE7002B76
:10391000E6D1019BA342E3D01B78002BE4D0DFE784
:103920000C0000008368D3F874329B0603D502496B
:10393000406909F088B87047A8F40000014909F00F
:1039400082B800BFB80A01000A1E0DDC0ED0422367
:103950008168D1F87412890608D5002A04494069A3
:10396000B8BF524209F06FB84123F1E7704700BF7A
:10397000C21101000A1E0DDC0ED044238168D1F86B
:103980007412890608D5002A04494069B8BF52421A
:1039900009F059B84323F1E7704700BFC211010095
:1039A0002DE9F0478568DFF86890044605F1560078
:1039B000FCF722FC002395F83C7086B29846A2687A
:1039C000558FED1BB54209DB002E1FDD56336069B4
:1039D0001049BDE8F0471A4409F035B81D442A449F
:1039E000563392F856A082F85680A26860691A444D
:1039F000494609F028F8A3682B4483F856A0A36829
:103A00005B8FDB1BF61A00272B46D8E7BDE8F08753
:103A100097090100A10B010008290A4617D88368FD
:103A200093F83E10914212D083F83E208368082A12
:103A3000D3F8743205D0990609D50549406909F0D3
:103A400002B89B0603D50349406908F0FCBF7047E4
:103A5000C9110100ADF4000038B50D4609780446DF
:103A6000FFF7DAFF6A78072A11D8A36893F83F10A6
:103A700091420CD083F83F20A368D3F874329B06A0
:103A800005D560690249BDE8384008F0DCBF38BDA3
:103A9000D2110100F8B58368B3F850200446002A1B
:103AA00055D0B3F85210002951D0553103F15605C5
:103AB0000B441846A84206D3014611F80169202E8E
:103AC0003CD0A8423CD286B29DB2AB1B9BB2591CE3
:103AD000471CD21A014438460BF051F9A268B2F8DB
:103AE0005030711B13FA81F3A2F85030A368B3F879
:103AF00050201344002283F8562009B2204609F0D2
:103B00000CF8A368D3F874329A0603D5104960699B
:103B100008F099FF3B460F4A0821204609F01DF99D
:103B20002046FFF7FFFEA368D3F874329B060ED53C
:103B300060690949BDE8F84008F085BF0846B9E763
:103B4000014611F80169202EBDD00846B9E7F8BD3D
:103B5000B2F40000A10B0100B6F400002DE9F04121
:103B600004460D4617460AB1FFF7DCFEA368B3F81A
:103B70005220D3F87412563213444A0721D51846FE
:103B8000FCF73AFBDFF848800646A6B9A368B3F80D
:103B90005020A3F85220A06808F062FF20B107B1BE
:103BA00015B16069FFF7CAFE6942204609B2BDE857
:103BB000F04108F0B2BF6069414608F044FF013EA1
:103BC000E3E7044A0821204609F0C7F8DEE700BF12
:103BD000571C0100A10B010013B583688DF8071075
:103BE000D3F874220446D00725D5B3F85210B3F8A1
:103BF00050208A421FD0481CA3F852000B449DF865
:103C0000072083F85620A368D3F87412890710D5CB
:103C1000D3F8743260690B4913F0040F18BF2A22DD
:103C200008F011FF204608F02DFF10B16069FFF782
:103C300085FE02B010BD01220DF10701204609F0FA
:103C400099F8F6E7C611010010B504468368094AE1
:103C5000022109F082F8A368D3F874329B0707D5D4
:103C60002046FFF79DFE2046BDE8104008F030BF1B
:103C700010BD00BFA10B0100014909F070BA00BFDF
:103C8000B80A01002DE9F04F0E46002189B0044624
:103C900017460D4603AA304601F10108FFF7E0FD83
:103CA000B0B995B127B13A460821204609F055F838
:103CB0001E4FDFF87C90DFF87CA0002103AA30467D
:103CC00001F10108FFF7CCFD60B909B0BDE8F08F44
:103CD000006810B1FCF790FA80B2854238BF054603
:103CE0004146D7E703688BB11A787AB1D0F804B0AF
:103CF0004A46CDE9005308213B46204609F02DF8FD
:103D0000BBF1000F04D16069FFF7B6FF4146D5E76C
:103D1000524620463B46082109F01FF8AA1D92B2E0
:103D20005946204609F028FAF0E700BFF0110100DB
:103D3000DB11010070070100F7B50F6805460E465C
:103D4000A7B13846FCF758FA84B2094B00932846CD
:103D5000084A3B46082109F000F8E21C716892B25B
:103D6000284603B0BDE8F04009F006BA3C46ECE74F
:103D7000EC110100E20F010010B507490446FCF701
:103D800029FA38B105492046FCF724FAB0FA80F048
:103D9000400910BD0120FCE7E2110100E51101001E
:103DA00010B58368D3F874329B06044603D50649E0
:103DB000406909F058FAA36850225A87A36818226C
:103DC0001A87002010BD00BFBAF4000008B583694F
:103DD00002491A6808F0A0FB002008BDF311010099
:103DE0002DE9F3410D490E4C0E4EDFF83C8005469F
:103DF00008F092FB0022B44202F1010703D3002035
:103E000002B0BDE8F081636A0093A36892B24146B4
:103E1000284608F081FB30343A46ECE703120100F3
:103E20005CF300008CF300001B12010008B502498E
:103E300008F09CFB002008BDB90A010073B50E4EC6
:103E400004460025A268E0680DF1060302F5AB7296
:103E5000012109F0B8FABDF80600A36840B12A466E
:103E600003F5AB733146204608F056FB0135E9E710
:103E700083F8560102B070BD2C12010010B5044643
:103E800008F0B7FB03490246204608F045FB002036
:103E900010BD00BF280D0100022907B50BD15368E2
:103EA000009312680B4B0C4908F052FB6FF01500A1
:103EB00003B05DF804FB8368084AD3F874320849FC
:103EC00013F0020F074B18BF1A4608F025FB00201D
:103ED000EEE700BF3A1201004F1201003612010056
:103EE000581201002B09010010B58368D3F8743211
:103EF0009A06044603D50749406909F0B4F9A36856
:103F0000D3F874329B0603D50349606909F0ABF915
:103F1000002010BDC1F40000C6F40000F0B5012976
:103F200085B004460AD05368009312685D4B5E4921
:103F300008F00EFB6FF0150005B0F0BD8368D3F8F4
:103F40007432990603D55949406909F08CF96FF02C
:103F5000F9012046FFF7F8FCFA212046FFF70AFD99
:103F6000A06800254FF48072294600F5AB708DF8EB
:103F70000B500AF01EFF4E49606909F074F9606940
:103F800008F045FB4FF47A766068036801221F69E8
:103F90000DF10B0103ABB847039BEBB9013E4FF4A6
:103FA0007A70B6B20AF08CFA002EEDD1A368D3F87D
:103FB00074329B0603D53F49606909F054F9A36840
:103FC0003D4950225A87A368182220461A8708F0D4
:103FD000B1FA6FF00700AFE79DF80B20A3681B2A2A
:103FE00053D093F856111B29CED1522A4DD15A19CC
:103FF000002382F85631A66896F857215B2A2BD108
:1040000006F25710022510F8011F2A463B2905F138
:104010000105ADB223D1FF2AC8D002F5AB7216FA62
:1040200082F1002211F8010F18BB86F85601FA2A16
:10403000A16828BFFA224A87FA2BA26828BFFA2370
:104040001387A368D3F874329A0603D519496069B7
:1040500009F009F900206FE786F85631A6E703EB6F
:104060008303303901EB4301B5F5807F8BB2CAD1B0
:104070009CE7013502EB8202ADB2303800EB420022
:10408000B5F5807F82B2CDD190E72B440135ADB23A
:10409000092D83F856217FF677AFA368002283F8B5
:1040A000562183E73A1201004F120100CCF40000C0
:1040B000A3120100D0F40000691201002DE9F04FB5
:1040C000074689B01546894621B1104609F020FA05
:1040D00000285BD1032455E05C463CE029460AF504
:1040E000AB700AF0B9FE0646002854D0FCF784F8FD
:1040F00082B2601C0132314630440AF040FE224652
:10410000594630460AF02DFE4FF020033355BAF8D9
:10411000543001331C44AAF8544008F1010800242B
:1041200001994B1C03AA48460193FFF799FB0646E9
:10413000E8B131680022284609F0A7FB0028EFD13A
:10414000D6F800B0D7F808A0BBF1000FC4D058468D
:10415000FCF752F884B2BAF854302344FF2BBDDD8B
:104160000E4A2B460321384608F0F7FD0124B8F12A
:10417000000F07D0B8682A4600F1540100F5AB7073
:1041800008F075FB204609B0BDE8F08F4FF000083D
:1041900041460224C5E70224E9E700BF6517010094
:1041A00008B5044807F0DAFABDE80840024807F00D
:1041B000D5BA00BFB7170100EC170100014806F09F
:1041C00031BB00BF6CF9000038B5044618B90F4B7D
:1041D0000F485B6898476168B1F5683F10D0B1F54A
:1041E000680F0DD00B4DA9420AD011F46861206808
:1041F00007D0014608480AF0C0F900232360656033
:1042000038BD14220AF0D5FDF9E700BF1C070020D5
:104210001A1801002C5F5CA9241D002008B520B3EA
:104220004368B3F5683F10D101220368BFF35B8F89
:1042300053E8001F002903D143E800200028F7D1EC
:10424000BFF35B8F0DD1002008BD094A93420AD00D
:1042500000684FF0FF324FF0FF3305F097F8002869
:10426000F1D00448F0E70448EEE76FF4E040EBE7F4
:104270002C5F5CA9E98FFFFFEA8FFFFF08B5D8B17B
:104280004368B3F5683F10D100220368BFF35B8F2A
:1042900053E8001F012903D143E800200028F7D18B
:1042A000BFF35B8F0BD1002008BD074A934208D0B3
:1042B000006805F0E3F8F6E76FF4E040F4E7034840
:1042C000F2E70348F0E700BF2C5F5CA9E98FFFFF2E
:1042D000EA8FFFFF10B5044618B91D4B1D485B68F7
:1042E00098476368B3F5683F2FD0B3F5680F2CD0BB
:1042F000194A934219D1236803BB18484FF0FF3283
:104300004FF0FF33214605F013F808B923681BB9B5
:104310000F4B13485B6898472068142200210AF06D
:1043200048FD4FF46863636008E0B3F5683F0DD85B
:104330003A2B03D040F6BA629342DED120680AF0ED
:1043400067F9636843F03A03636010BD054AF3E719
:104350001C0700201A1801002C5F5CA9241D0020F6
:10436000401801003A00003A08B5064906484023C3
:1043700014220AF0F4F8BDE808400449044806F0A5
:10438000C3BA00BF24180020241D002074F90000C7
:1043900088F900002DE9F843054600AF0C460029D6
:1043A00048D0DFF8B890D9F800305A0742D06E46AE
:1043B0008AB0D1E90001A3686A46DFF8A4C04FF0D3
:1043C0000508C2E905C0C2E9071342F8108F0023AF
:1043D0004FF421514846FDF721FBD9F800305B0727
:1043E000B54627D08AB0D4E9030163696A46DFF88D
:1043F00074C0C2E90713C2E905C042F8108F002358
:1044000048464FF42151FDF709FBD9F80030580711
:10441000B5460FD0E3690121134A484607F052FE22
:10442000D9F80030590705D0A369104A0121484640
:1044300007F048FE012D0AD1EFF305830748026813
:10444000520704D00A4A103B294607F03BFE21469A
:10445000284604F0A1FDBD46BDE8F883F007002022
:104460006D1801009C180100CB180100DA1801003A
:104470000819010030BFFFF7FDBF00BF2DE9F04173
:104480000B4EDFF8308006EB0807CC1B05463246A2
:10449000094920460AF065FCA01942460021083C63
:1044A0000AF087FCC5F8A84007F10800BDE8F081D4
:1044B000000000000800000090F40000074A936824
:1044C00093F90E10002907DB526993421FBF044A7B
:1044D000536843F080535360704700BF501E002064
:1044E00000ED00E0F8B5374C23685B0706460D4643
:1044F00003D03549204609F05CF8344B9B6ADF0451
:1045000051D52368580703D031492E4809F051F896
:1045100017202E4B9B6A190507D523685A0703D02D
:104520002C49284809F045F81820284FBB6A9B05FC
:1045300019D52368580703D02749224809F039F8CC
:10454000BB6BBA6A11040DD52268520704D0234A06
:104550001C48012107F0B6FD26B11C4A936A23F4DA
:10456000004393621920194B9B6A5B0507D52368AA
:104570005F0703D01A49134809F01BF81A20134BA0
:104580009A6AD60511D52368590703D015490D48F5
:1045900009F00FF81B200D4A936A43F47F4393629E
:1045A00000232B70F8BD1620B3E79B6A9A04F2D55E
:1045B00023685B0703D00C49024808F0FAFF1C206F
:1045C000E9E700BFF00700201B19010000ED00E043
:1045D0003119010042190100551901006E1901003D
:1045E000831901009E190100B619010010B52D4C68
:1045F00023685A0703D02C49204608F0DAFF2B4BDA
:104600009B6A9B014BD52368580703D0284925484E
:1046100008F0CFFF1E20254B9B6AD90107D52368E0
:104620005A0703D023491F4808F0C3FF1F201F4B20
:104630009B6A1B0307D52368580703D01E491948F6
:1046400008F0B7FF2120194B9B6A590307D523684F
:104650005A0703D01949134808F0ABFF2220134B27
:104660009B6A9B0307D52368590703D014490D485B
:1046700008F09FFF23200D4B9B6ADA0307D52368C0
:104680005B0703D00F49074808F093FF2420074A2F
:10469000936A6FEA03436FEA1343936210BD1D20D0
:1046A000B9E700BFF0070020E519010000ED00E0C8
:1046B000FD190100101A01002A1A0100481A010010
:1046C0006D1A0100871A01002DE9F047454D2B684E
:1046D000894659078046174603D04349284608F0C3
:1046E00068FF424B9B6ADA0639D52B685B0703D01B
:1046F0003F493C4808F05DFF11243C4B9B6A1E0774
:1047000007D52B68580703D03A49364808F051FFBF
:104710001224DFF8D8A0DAF82830990721D52B68C1
:104720005A0703D034492F4808F043FFDAF83460C1
:10473000DAF828301B0651D52B685C0705D02F4AC4
:1047400028483346012107F0BDFCB9F1000F04D021
:10475000264A936A23F080039362132403E0102413
:10476000CBE76FF01506214B9B6AD80707D52B685E
:10477000590703D022491B4808F01BFF14241B4B88
:104780009B6A9A0607D52B685B0703D01D4915481D
:1047900008F00FFF1524154B9A6AD50602D49A6AC1
:1047A00090070AD55B68190507D54146304600F0E9
:1047B00099FA10B180F3098802240C4B9A6A920688
:1047C00042BF5A6A22F400525A629A6A42F0FF02C9
:1047D0009A6200233B702046BDE8F0876FF0150613
:1047E000BBE700BFF0070020B21A010000ED00E0B7
:1047F000C81A010042190100FB1A0100131B010035
:10480000291B0100B61901002DE9F041744B8AB053
:10481000D3F8048000AF0446C8F30806002585F3EA
:104820001188BFF36F8F02F07F43B3F17F4F0AD13E
:1048300002F00C03082B15D16A480368590702D00F
:10484000694908F0B6FE00252C460023FB71F31ED3
:10485000092B00F29F80DFE803F00A91948D9D9D63
:104860009D9D9D9712074CBF0C460125EDE75D4EBF
:1048700033685B0703D05D49304608F09AFE002399
:10488000FB71574BDA6A900708D53368590703D094
:104890005749544808F08DFE00233CE0DA6A002AAC
:1048A00004DA33685A07F7D05249F2E7DB6A5B0053
:1048B000F2D53368580703D04F494A4808F079FECB
:1048C000474BA1695A6942F480725A61BFF34F8F16
:1048D000BFF36F8F5A6931F8021C22F480725A615B
:1048E000BFF34F8FBFF36F8F4DF60272914208D026
:1048F0009A6AD2B28AB3FA1D01212046FFF7E4FE7C
:104900003AE03368590705D023683C4A354801210D
:1049100007F0D8FB2368FA79DAB907F1080604F141
:10492000200C20686168324603C20834644516468C
:10493000F7D17A6A002D4DD0C2F3080121B96FEA90
:1049400052226FEA42227A6207F108011846FFF705
:1049500021FD2837BD46BDE8F0819A6A12F47F4FE9
:1049600004D0F91D0120FFF7BDFD05E09B6AB3F5FA
:10497000803F91D3FFF73AFE0346CCE7FA1D0021B2
:10498000BBE7F91D0020EEE7164803685A0783D0FD
:104990001B497FE7134803685B073FF47DAF194A63
:1049A000194B18F4F87FE8468AB018BF13466A46D8
:1049B0001649C2E905134FF400731384103E144BDB
:1049C000D66142F8103F00234FF41151FDF726F84D
:1049D000C54661E722F4FF7222F00102B3E700BF8F
:1049E00000ED00E0F0070020761B0100A11B010094
:1049F000B81B0100D91B0100E71B0100061C0100C8
:104A0000221C01005D1B0100481B0100461C010027
:104A100004000001044B5A6942F010025A615A69BD
:104A200022F008025A61704700ED00E0EFF30880C1
:104A3000EFF3098101B57246FFF7E6FE01BD00BF45
:104A4000002080F31488BFF36F8F134880F3088829
:104A500002F00CFB002011490860BFF34F8F00F0FB
:104A600033F8202080F311880D484FF0AA014FF44D
:104A7000046209F055FD0A484FF40461401880F3C0
:104A80000988EFF314800221084380F31488BFF3F0
:104A90006F8F00F0EFF800004046002094ED00E03A
:104AA000802C00200749D1F890200023C2F3072270
:104AB0001846934200DB7047C1F89830C1F8A00057
:104AC0000133F6E700ED00E008B572B6002383F38A
:104AD0001388FFF7E7FF144B4FF0FF32C3F8802035
:104AE000C3F88420C3F88820C3F88C20C3F8902032
:104AF000C3F89420C3F89820C3F89C20C3F8802101
:104B0000C3F88421C3F88821C3F88C21C3F890210D
:104B1000C3F89421C3F89821C3F89C2162B6BFF36F
:104B20004F8FBFF36F8F08BD00E100E0084B9B681B
:104B300083420BD1EFF3058343B1064B5A6842F031
:104B400080525A605A6A22F400425A6205F0E4B870
:104B5000501E002000ED00E016498A684FF030003A
:104B60001044EFF3098C80E8F01F202080F31288B6
:104B7000BFF36F8F104F4FF000664A698A603E6046
:104B80004FF0A804141920680C4C2060D2F8AC0037
:104B90000023C2F8AC3080F3118804B5104600F051
:104BA00009F9BDE8044002F1300090E8F01F8CF3F1
:104BB00009887047501E002004ED00E0401D0020D1
:104BC0001EF0040F0CBFEFF30880EFF3098081693A
:104BD00011F8021C0229FFD001B5724608F0DEFC74
:104BE00001BD00BF40B2002807DB044A4109012390
:104BF00000F01F00834042F82130704700E100E0E0
:104C000040B200280CDB4309064900F01F002033A6
:104C10000122824041F82320BFF34F8FBFF36F8FF3
:104C2000704700BF00E100E0054B420900F01F00A3
:104C300053F82220012303FA00F01040704700BF10
:104C400000E100E040B20028A8BF00F1604001F19F
:104C50000101B8BF064B4FEA4111ACBF00F56140FE
:104C600000F00F00C9B2B4BF195480F800137047A8
:104C700014ED00E00B4A08B50B4B22F07F029A605E
:104C8000BFF34F8FBFF36F8FD3F8882022F47002E9
:104C9000C3F8882004F080FA05F0A4F900F060F869
:104CA00004F0C2FA0000000000ED00E042F8203CF1
:104CB000009B42F81C3C0A49019B42F8183C029BAD
:104CC00042F8143C21F001014FF0807342F8043C9B
:104CD00042F8081C0023203A0265C0F8AC30704747
:104CE000911000000A4A0346906878B113F1160F3C
:104CF000D0F8980005D0A0F140029A4205D883422E
:104D000003D2814228BF002070470020704700BFB7
:104D1000501E002008B515460A4A0B4B9060D0F88B
:104D2000A8201A600E4600F045F82C4686F3098844
:104D30000020064B98472046002100220023044C07
:104D4000204700BF501E0020401D0020C3D500009A
:104D500091100000014B10221A61704700ED00E035
:104D6000044800232021C2180133302B82F800139D
:104D7000F9D1704700E100E008B5EFF30583064A7A
:104D8000103B02EBC30152F8330049688847BDE885
:104D90000840FFF793BB00BF98F00000024B034AA6
:104DA0000348012100F092B8000004200000002018
:104DB00098F90000D0F89820054B403A1A60054A4F
:104DC0004021C3E901121846012100F089B800BF53
:104DD000441D002000000B1508B503461148D0F80B
:104DE0009020C2F30722013A93420AD90E48026882
:104DF000520703D00D4A012107F064F96FF0150046
:104E000008BDC0F898300A6822F01F021A4342F029
:104E10001002C0F89C208A6842F00102C0F8A0206D
:104E20001846EDE700ED00E0EC0700205D1C0100F6
:104E3000F0B50E4685B01F4604460025B54210DA8F
:104E4000606828B3AFB1431E18420DD01248036802
:104E50005B0704D0114A2B46012107F033F96FF0AC
:104E60001502104605B0F0BD1F28EFD921680B428E
:104E7000ECD12368019308F0C7FBA36801A90343A1
:104E8000D0B20393FFF7A8FF10F1160FE7D0421C32
:104E900001350C34D2E700BFEC070020831C010071
:104EA000044B0522C3F89420BFF34F8FBFF36F8FDD
:104EB000704700BF00ED00E0BFF35F8F024B0022A0
:104EC000C3F89420704700BF00ED00E010B5034C1C
:104ED00001232278FFF7ACFF207010BD9B2000203B
:104EE00008B50B4A00231278FFF7A2FF10F1160F46
:104EF00007D0084A0021D2F89030C3F30723984224
:104F000000DB08BDC2F89800C2F8A0100130F2E73B
:104F10009B20002000ED00E02DE9F0435748584960
:104F2000D0F890300D68C3F307239D4285B000F29E
:104F3000A180FFF7C1FF49680022954201F10C01F1
:104F40001AD1504C504F25706846FDF7B5F8DFF880
:104F50003C81DFF83C9106460025AE421FD1237804
:104F600046490020D1F89020C2F3072293427BDB10
:104F7000FFF796FF00204CE0C0F8982051F80C3C59
:104F800023F01F03134343F01003C0F89C3051F883
:104F9000043C43F00103C0F8A0300132CDE7009893
:104FA00000EB05114FEA051CCB683B40B3F5000F41
:104FB00044D00AD8B3F5001F2ED0B3F5800F34D0FB
:104FC000B3F5801F10D00135C7E7B3F1807F3ED025
:104FD000B3F1007FF7D150F80C3088684A6808F0C8
:104FE00013FB40F4802009E050F80C3088684A68D0
:104FF00008F00AFB40F0885040F43020039001A9EB
:105000002078CDE90123FFF7E7FE002828DA6FF0CA
:10501000150005B0BDE8F08350F80C3088684A6888
:1050200008F0F2FA40EA0800E8E750F80C30886827
:105030004A6808F0E9FA40EA0900DFE750F80C3066
:1050400088684A6808F0E0FA40F08270D6E750F8C5
:105050000C3088684A6808F0D7FA40F08870CDE7CD
:10506000237801332370AEE7C1F89830C1F8A0006F
:10507000013377E74FF0FF30CBE700BF00ED00E0F2
:10508000A4F900009B2000200000F0FF00000811A0
:1050900000000207F0B587B007460E46144600210F
:1050A000102268461D4609F084FE02238DF8023066
:1050B0002A46054B019321466846CDE9047605F062
:1050C000EBFD07B0F0BD00BF29D6000008B5024BCC
:1050D0001B689847002008BD501D0020034B044A60
:1050E0001860937843F0020393707047501D0020BE
:1050F0002805002008B50649064821F00701C1F13E
:10510000005202F5802206F079FA002008BD00BFA7
:10511000C7CC0020541D002008B500F0B7F80A499C
:1051200041610A490122C0E900220A6008490A6077
:10513000084A00231360084A03611360C0E9023380
:10514000064A136008BD00BFB90A010054050020DB
:1051500050050020681D0020641D0020601D0020F7
:105160002DE9F04107460E46154600F08FF8C3685A
:1051700004461BB943691A78002A41D10023E36031
:105180006368BB4256F8232008DB324B636120463C
:1051900000F062F84FF0FF30BDE8F081511C616112
:1051A00092F80080B8F12D0FEFD1911C6161517818
:1051B000A1602D2904D192786AB901336360E4E7D4
:1051C00049B9244B63614146284609F00AFE00288C
:1051D000DDD0C4F80880D4F808802846414609F09C
:1051E00000FEB8F13A0F636900D070B91B7813B9AB
:1051F000636801336360204600F02EF83F20CBE760
:105200005A1C42611B788360E5E742783A2A0BD04A
:10521000002222611B7813B9636801336360204662
:1052200000F01AF8A068B7E718786268094928B949
:1052300001329742626004DD56F82230C4E904313D
:10524000EAE761612D783A2D2046D5D100F004F8C7
:105250002846A1E7B90A0100074B02681A60074B0C
:1052600042681A60064B82681A60064BC2681A6070
:10527000054B02691A607047540500205005002054
:10528000681D0020641D0020601D0020004870473C
:10529000380500200E4A0123C2F840354FF0804205
:1052A0004FF08051C2F87835D1F83001082808D184
:1052B000D1F83411052904D80648415C09B1C2F877
:1052C00038364FF080430122C3F880250020704714
:1052D00000E00140BC1C010020B1034B800143F001
:1052E00001031847704700BFE0F40000084B70B599
:1052F000C31A0D4607499B100446594306484022ED
:1053000008F0CFFA2B4601462046BDE8704018470A
:10531000801D0020B76DDBB6F0EF000073B50C4CBC
:105320000C4A4023041B00930D460B460A49A41067
:1053300061430646094808F0DFFA011E05DA3046E7
:105340002B4602B0BDE87040184702B070BD00BFE8
:10535000801D002061D90000B76DDBB6F0EF0000C2
:1053600010B5EFF31184202383F31288BFF36F8FFE
:10537000074A136823F00201DB07116002D4012001
:1053800008F044FE84F31188BFF36F8F10BD00BF97
:10539000D01D0020002270B5012104461046FFF701
:1053A00051FC0F4801F0ECFF0E4B984215D101F073
:1053B000F7FF26690C49304606F08DFC00280BDB10
:1053C000012535642469084904F11C0006F083FCBA
:1053D000002801DBE564002070BD6FF00400FBE7EE
:1053E000ED5400000000AD0BC4F900007FB50022B1
:1053F0000123CDE9022304ABCDE90433094ACDF8FA
:1054000000D06B46CDF804D008F0A3FA002805DBE5
:105410004FF480420023684604F0B4F807B05DF80A
:1054200004FB00BF7FD9000030B4104B0C2202FBFC
:10543000003301460020D3E90E529863EFF3118048
:10544000202484F31288BFF36F8F1C6C04F0C00417
:1054500044F002041C6480F31188BFF36F8F1DB108
:105460002B46034830BC184730BC7047801D0020D5
:10547000F0EF000010B4EFF31182202383F31288C1
:10548000BFF36F8F1748016841F002040460C8073A
:1054900007D482F31188BFF36F8F012010BC01F095
:1054A00091BF4FF08041D1F80C04D1F80C14C9071A
:1054B000EFD5EFF3118083F31288BFF36F8F0A49A2
:1054C0000B6C03F0C00343F002030B6480F31188FC
:1054D000BFF36F8F82F31188BFF36F8F002010BC72
:1054E000FFF7A2BFD01D0020801D002010B10128B1
:1054F00004D07047034B1B6C5B0701D1FFF794BFCF
:10550000704700BF801D00202DE9F0413849BFF3EE
:105510005B8F0746012251E8003F41E80020002848
:10552000F9D1BFF35B8F33B9324933484B60CB605D
:105530008A6006F0E3FB7B1E012B2BD8012F07D1DD
:105540004FF08043D3F81C3403F00303012B21D028
:1055500009F075F80546F8B9284B1B78E3B14FF010
:1055600080430222C3F808230646DFF894804FF0F8
:105570008044D4F81824D4F81834D20315D503F095
:105580000303012B01D0012F0FD155B386F31188EE
:10559000BFF36F8FBDE8F081EFF31186202383F313
:1055A0001288BFF36F8F0125DFE7ADB1304608F0F9
:1055B0001CF8D4F81835002BDBD1D4F80421002ACC
:1055C000D7D0C4F80431D4F804310123C4F8183515
:1055D000C8F88031A360CCE70021212009F0F5F85C
:1055E000E7E74FF080430222C3F80423D2E700BF6D
:1055F0007C1D00206C1D00209C1D0020D020002060
:1056000000E100E008B5074808F05FFF38B1064840
:10561000FFF764FD0448FBF735FD002008BD6FF07F
:105620001200FBE738F000002D5600000A2838B5BC
:10563000074D044604D1AB680D215B6828469847A6
:10564000AB6803485B68E1B29847204638BD00BFAD
:1056500038F00000F0B54068057B01F01F0444EA13
:105660004514056987B0002D64D0B2F5001F00F124
:10567000100506D12146284608F059FD002007B044
:10568000F0BD01AE0027B2F5800F0197776039D1E8
:10569000B3F1007F14BF052304238DF804300023E9
:1056A000CDE904630393836823FA01F111F001014A
:1056B0001AD1B2F1A07F17D104F01F03620903F5DC
:1056C000E0732AD0012A3BD11F4A52F82330DB076E
:1056D0000AD40DF1030632462146284602F05AF953
:1056E0001A4B98421CD0029603AA2146284602F083
:1056F00013F8174B984220D101222146284602F088
:10570000ADF9BBE7B3F1C06F05D0B3F1007F14BFB3
:1057100001230223C1E70323BFE74FF0A042D4E7F0
:105720003146284602F094F9094B9842DBD06FF0DD
:105730000B00A4E76FF08500A1E76FF015009EE76E
:1057400051F82330FFDE00BF000300500400AD0B12
:105750000000AD0B38B545682B69B3B1103528464C
:1057600002F066F9044680B90146284602F02CF999
:10577000084B98420BD108492246284602F004F90A
:10578000224605210620FFF75DFA002038BD6FF0A4
:105790000400FBE70000AD0B9D570000420970B507
:1057A000034602D0012A17D070BD0D4E32695168F0
:1057B0000029F9D003F01F0301250C689D40002942
:1057C000F2D08A682A4002D04B68304698472CB104
:1057D000236821461C46F2E7024EE7E72346F8E736
:1057E00020F0000008F000002DE9F043466840F288
:1057F0000635D006337B87B002EA050554BFC2F3F5
:105800004010032001F01F07B5F5837F144647EAD7
:1058100043178DF8030045D00FD8062D18D007D8B0
:10582000B5B1022D40D06FF0150007B0BDE8F08390
:10583000B5F5807FF7D101250AE040F202229542BA
:1058400034D0B5F5407F33D0B5F5007FEBD10225DC
:105850000123220303FA01F12CD57368C3F808155C
:10586000326982BB07F01F037F0929D0012F77D14E
:105870003E4A02EB830284F48033D2F80017C3F36C
:105880000043C4F3404444EA430421F4E16144EAA0
:10589000800421F0070144EA05230B43C2F80037D6
:1058A0000020C2E70725D3E70425D1E70525CFE788
:1058B0000325CDE7630344BF7368C3F80C15CFE736
:1058C0004FF0A042D5E710360DF1020239463046BE
:1058D00002F060F814F4403F80460CD1394630465F
:1058E00008F023FC224B9845DAD19DF8021030468F
:1058F00002F0A8F8D4E701AB4FF0000903AA39463B
:105900003046CDE90439CDE90199CDF80C9001F08C
:1059100003FF174B984286D114F4003315D09DF83D
:1059200003308DF80E3084F48034C4F300444B46C9
:1059300003AA394630468DF80C508DF80D4001F021
:10594000A5FF0B4B9842CDD06DE7CDE9043303AAF8
:105950000DF1030339463046039301F0DDFEF0E715
:1059600003F5E07352F82330FFDE00BF0003005060
:105970000000AD0B036803F01F025B09026004D056
:10598000012B034818BF002070474FF0A04070471C
:10599000000300502DE9F04FDFF89491DFF894A157
:1059A00085B01546834600EB810140F2FF1859454A
:1059B00003D1002005B0BDE8F08FDBF800305E04B5
:1059C000C3F3C322C3F3080400F1AC801B0E19F823
:1059D0000270444508BF4FF0FF34222B00F2A5802F
:1059E000DFE803F012191F22252B22A3A3A3A33B58
:1059F00068A3A3A3A3A3A3A3A3A36B818487A3A347
:105A0000A38A9194979A9D00C5F80C45601C5ED1BD
:105A10000BF1040BCBE7C5F81445621CF8D0002647
:105A20005FE0C5F80845F1E7C5F81045F5E7631CE8
:105A3000C5F80845ECD0002604E0661CC5F80C4506
:105A4000E6D0012603A80394FFF794FF039B0122ED
:105A500002FA03F3C0F80C3508E0C5F80845002F3A
:105A6000DBD1631CD4D0002632460627DBF8003099
:105A7000019303F40040002818BF002203A80092FD
:105A800018BF01260394FFF775FF039C019B009A42
:105A900000EB8400C3F3412CD0F800473B0243EAFB
:105AA0008C03134304EA0A04234343EA4603C0F881
:105AB0000037ADE7C5F80C45D1E7C5F86045601C77
:105AC000DBF80030A4D0C3F30043002BB9D003A807
:105AD0000394FFF74FFF039B012606FA03F3C0F878
