:020000040000FA
:1000000040FF00206548000021FC0100514800002D
:100010005148000051480000514800000000000015
:10002000000000000000000000000000E5490000A2
:1000300051480000000000007D49000051480000C8
:100040009D4B00009D4B00009D4B00009D4B000010
:100050009D4B00009D4B00009D4B00009D4B000000
:100060009D4B00009D4B00009D4B00009D4B0000F0
:100070009D4B00009D4B00009D4B00009D4B0000E0
:100080009D4B00009D4B00009D4B00009D4B0000D0
:100090009D4B00009D4B00009D4B00009D4B0000C0
:1000A0009D4B00009D4B00009D4B00009D4B0000B0
:1000B0009D4B00009D4B00009D4B00009D4B0000A0
:1000C0009D4B00009D4B00009D4B00009D4B000090
:1000D0009D4B00009D4B00009D4B00009D4B000080
:1000E0009D4B00009D4B00009D4B00009D4B000070
:1000F0009D4B00009D4B00009D4B00009D4B000060
:100100007BB972B90029BEBF00204FF0004106E064
:1001100008BF00281CBF6FF000414FF0FF3000F017
:1001200057B8ADF1080C6DE904CE002909DB002BAE
:100130001ADB00F069F8DDF804E0DDE9022304B021
:100140007047404261EB4101002B1BDB00F05CF883
:10015000DDF804E0DDE9022304B0404261EB410137
:10016000524263EB43037047524263EB430300F098
:100170004BF8DDF804E0DDE9022304B0404261EB16
:1001800041017047524263EB430300F03DF8DDF854
:1001900004E0DDE9022304B0524263EB43037047FD
:1001A00053B94AB9002908BF00281CBF4FF0FF31DE
:1001B0004FF0FF3000F00CB8ADF1080C6DE904CE43
:1001C00000F022F8DDF804E0DDE9022304B0704716
:1001D000704700BF10F8012B11F8013B012A28BF1E
:1001E0009A42F7D0D01A7047034611F8012B03F852
:1001F000012B002AF9D17047034613F8012B002A7E
:10020000FBD1181A013870472DE9F04786468C4615
:100210000846089E154674461946002B40F0C280D9
:100220008542B2FA82F245D94AB1C2F1200300FAFE
:1002300002FC2EFA03F3954043EA0C0C94404FEA7B
:10024000154EA8B2BCFBFEF8230C0EFB18CC08FB25
:1002500000F943EA0C43994528D9EB1808F1FF3718
:1002600004D2994502D9A8F102072B44A3EB090354
:10027000A4B2B3FBFEFC0EFB1C330CFB00F044EA03
:100280000344A04214D92C190CF1FF3304D2A0422C
:1002900002D9ACF102032C44241A43EA07401EB1F0
:1002A000D440002334607360BDE8F0874746DDE743
:1002B0006346F1E792BB431B01214FEA154EAFB2F3
:1002C000B3FBFEFC200C0EFB1C330CFB07F840EAD2
:1002D0000343984562D9EB180CF1FF3004D29845DE
:1002E00002D9ACF102002B44A3EB0803A4B2B3FB88
:1002F000FEFC0EFB1C330CFB07F744EA0344A74249
:100300004ED92C190CF1FF3304D2A74202D9ACF11B
:1003100002032C44E41B43EA0040C0E7C2F120037F
:1003200020FA03F1954090402EFA03F303434FEA7D
:10033000154EAFB2B1FBFEFC0EFB1C10190C0CFBF2
:1003400007F841EA0041884504FA02F422D9691805
:100350000CF1FF3004D2884502D9ACF102002944E7
:10036000A1EB08019BB2B1FBFEFC0EFB1C110CFBC8
:1003700007F743EA01439F420ED9EB180CF1FF3116
:1003800004D29F4202D9ACF102012B44DB1B41EAAB
:10039000004192E76046E3E76146F7E76046A3E77E
:1003A0006346B7E7834206D916B9002108467BE7C2
:1003B000C6E900E0F9E7B3FA83F78FB9834201D3C6
:1003C000724508D8BEEB020460EB030301209C4693
:1003D0001EB9002168E73846FAE7C6E9004CF8E79D
:1003E000C7F1200CBB4022FA0CF41C432EFA0CF18E
:1003F00020FA0CF3B84001434FEA14490EFA07F50E
:10040000B3FBF9F81FFA84FE09FB18300B0C08FB4C
:100410000EFA43EA00439A4502FA07F240D9E3187C
:1004200008F1FF3004D29A4502D9A8F10200234412
:10043000A3EB0A0389B2B3FBF9F809FB183308FBF5
:100440000EFE41EA03418E452CD9611808F1FF33B5
:1004500004D28E4502D9A8F10203214443EA0040A8
:10046000A0FB0298A1EB0E014145CE46434602D3C4
:1004700006D14D4504D2B9EB020E68EB04030138F6
:10048000002EA6D0B5EB0E0261EB030101FA0CFCC5
:1004900022FA07F34CEA0303F940C6E9003198E772
:1004A0004046C5E74346D9E72DE9F047064688B000
:1004B0000F46904636F0C9FD4FF47A73A0FB034512
:1004C00003FB0155E40B012F44EA45444FEAD535BF
:1004D00007D1294922462B4630461EF05BFB0020FF
:1004E00012E0D8F8047025483946FFF773FE70B162
:1004F00023483946FFF76EFE48B1304621493A4657
:100500001EF064FB6FF0040008B0BDE8F0872046E1
:10051000294617A3D3E90023FFF7F2FD05460C4651
:1005200010461946184A0023FFF7EAFD80460F4699
:10053000104619464EF660220023FFF7E1FD824681
:100540008946104619464FF47A720023FFF7D8FD0A
:10055000CDE902A9CDE90623CDE90401CDE9008763
:100560000A492A46234630461EF014FBB7E700BF6F
:10057000005C26050000000020F5030031F50300B3
:1005800034F503003DF5030080EE360055F5030019
:100590002DE9F04387B002AF59485A4C36F06FFB53
:1005A000236860B95B0704D0574A012120461EF03A
:1005B000CAF86FF012001437BD46BDE8F08303F0AF
:1005C0000703022B04D9514A032120461EF0BBF831
:1005D0004B4883683946DB699847236803F0070373
:1005E000022B14D96D468AB0388879883B7B02AAE1
:1005F000474EC2E907130523C2E9056042F8103FE0
:10060000404800234FF4235101F01AF9AD460AF097
:10061000EDFD054616F0A4FB3E49804633F039FD5A
:1006200040463D49002223F055FC0A2300220221C6
:10063000404621F0A3FE284616F092FB35490646B7
:100640004FF00A0933F025FD30463449002223F0EB
:1006500041FC00230E2241463046CDF8009008F0C0
:10066000EFFC284616F07CFB2A49804633F011FD4A
:100670002B490022404623F02DFC00230E22314658
:100680004046CDF8009008F0DBFC284616F068FBE9
:100690002049064633F0FDFC22490022304623F073
:1006A00019FC00230E2241463046CDF8009008F098
:1006B000C7FC284616F054FB1649054633F0E9FC02
:1006C00019490022284623F005FC0023CDF80090AC
:1006D0000E223146284608F0B3FC236803F00703D6
:1006E000022B04D9114A074803211EF02CF810F000
:1006F0007FFC002140F6CD4036F02DFCF7E700BF2F
:1007000084760300240800208CA50300A5A503001F
:10071000BAA50300D5A5030068880300108503006F
:10072000B8810300607E0300087B0300E1A503009D
:100730002DE9F04F91B08407009302F00403029377
:10074000C2F3C20303F10103DDF86880039205469A
:100750000E46059340F0BA81041D30B1072909D82F
:100760006FF01B0011B0BDE8F08F01F007063444B4
:10077000C6F10806009B4FF00009591E4FF0040A0D
:100780004FF0FF330193CDF810904F46CB465346C0
:100790000DB1009A22600598002800F3E88098487F
:1007A000009A824203D397488242C0F0E080039AC5
:1007B000A4EB050E92074FEA9E0000F103810F2F74
:1007C00000F2B180002D00F0058107F140020DEB31
:1007D000020C019A0CF8200C0CF8102C0498013033
:1007E0000490E7E07A285DD84B280ED8472859D8DE
:1007F00029282DD8252852D054D820287AD023381B
:10080000D0F1000B4BEB000B74E04C382E2849D88C
:10081000DFE800F070484848484848484848484899
:100820004B484848484848484859484B4B595959FB
:10083000704B6D487048184B184848827F4B4848A9
:100840004B487F0000204FF0000B4FF0040A38E0C7
:100850002A38C0B2012202FA00F010EA0E0F49D184
:1008600010F0625C2FD110EA020B43D06046013CCD
:100870005444B4FBFAF40AFB04F4002D61D0A3EB5A
:10088000050CA444B4453FF66BAF002868D1042B97
:1008900047D158F8043B2360043404232AE0019A2A
:1008A000013A01924FF0000B24E011F8010C6C2882
:1008B00034D111F8023C00206C2B8346C5D14FF097
:1008C000080A5346D3E708F1070828F00708073459
:1008D000F8E802AB24F0070435B106982044B04292
:1008E0003FF63EAFC4E900AB08344FF0000B4FF0C9
:1008F000080A534611F8010F002878D0BBF1000F09
:100900007FF470AF2528F5D1019B013301934FF09F
:10091000010B4FF0040AECE7584694E700208346A9
:10092000A5E7082B02D06FF015001BE708F10708B8
:1009300028F00708F8E80223C4E900230834082354
:10094000D8E768B9042B02D108F10408A4E7082B02
:10095000E9D108F1070828F0070808F10808EDE7D1
:10096000059A013A059258F8042B009210E7039A71
:10097000900720D5A4EB050E4FEA9E004FF0010C26
:10098000BEF5007FCFD20F2FCDD8F5B107F14002D1
:100990000DEB020EC0B2019A0EF8200C0EF8102CCE
:1009A000BCF1000F3FF41AAF60F07F000EF8200C8E
:1009B00009F101090137C5F10802043406924FF626
:1009C000DA7E97E74FF0000CDAE7BCF1000F01D0B8
:1009D0000136EFE7029802360028EBD10098CDE906
:1009E0000631FFF709FCDDE906310644E2E7631B47
:1009F000B3F5806F97D23DB9A6F10804E018B1E6CF
:100A000054750300A8480400029A28609B082B70C4
:100A10009DF81030C2B1EB7085F80290B9F1000F6B
:100A200005D008A80022C5F1010C97420ED1C5F1EE
:100A300001030DF120084FF0000A01930DF1300B76
:100A4000574512D1601B8DE66B70E5E710F8013B4E
:100A5000190608D50CEB040EB64503F07F033FF6EC
:100A60007FAE04F8013B0132DFE7B9F1000F03D09C
:100A700098F90020002A17DB029BD3B11AF80B204B
:100A800004F8012B0022019B18191044B0423FF6D4
:100A900067AE98F8000004F8010B00990392204615
:100AA00036F065FC039A14440AF1010A08F10108C2
:100AB000C6E798F8002055F822300093029B45F8CD
:100AC00022300098FFF798FB421CDCE76FF00D0026
:100AD00048E600BF2DE9F04F97B000AF90F802A0B4
:100AE000D7F880B03B62CBF3C0030446FA62BB6127
:100AF000894641B9457800780AEB800020444D458D
:100B000017D8A0EB0409E378FB61BAF1000F02D01B
:100B10001BF0010F16D1FB6953BBFB6A1BB13A6A8C
:100B20004946204698474D4628465C37BD46BDE8B5
:100B3000F08F461C3046FFF75FFB0130304409F16F
:100B40000109DCE7237862687A62FA6A99007961C0
:100B500004EB8301002A40F004814D460E4601EB70
:100B60000A094FF000084E4550D101EB0A0610E08B
:100B70001BF0020FD1D023789A007A6162687A6202
:100B8000FA6A04EB8301002A7BD14D4601EB0A0689
:100B900090461BF0050F0CBF02230123FB62FB698B
:100BA00006EB430A0BF00203BB625645BCD016F8B5
:100BB000021B16F8013C54F823909B4B994502D335
:100BC0009A4B99453AD3BB69002B44D0786A1DF003
:100BD000E8F800283FD09648036813F0060F13D0BA
:100BE000E9468AB06A46934B53617B6AC2E9063193
:100BF0004FF400731384904B42F8103F00234FF4DE
:100C0000125100F01DFECD46023DCEE716F8013B25
:100C1000F96254F82300FFF7EFFAD7F88430F96A45
:100C200001304BB1D7F8883098453EBFD7F88430B3
:100C300023F8180008F10108054494E7BB6923B1C3
:100C4000786A1DF0AEF80028C5D11BF0010F05D160
:100C5000FB6AED1AA9E7BB6A002BA6D04846FFF74E
:100C6000CBFAD7F8843053B1D7F8883098453FBFD6
:100C7000D7F88420431C22F8183008F101080544F5
:100C800093E7BAF1000F72D01BF0040672D0D04681
:100C9000002607F1480052463B61B96236F067FB17
:100CA000B96A3B6901EB0A02BA62FA69F969520052
:100CB000FA60BA6A02EB41023A610BF00202BA60D2
:100CC0003A69B96A8A4257D162787A621BF0020F98
:100CD00032440CBF4FEA580100211BF0010FD2B281
:100CE00040F09F801BF0040F14BF40460020BB6102
:100CF0006270A070E1703A6A7969FB6A2046984791
:100D0000051EFFF611AFBB6923707B6A6370FB6938
:100D1000E37041463A6AFB6A84F802A007F1480092
:100D20009847B0F10008C0F2BB807B693A6AA9EB32
:100D30000A01C91AFB68C91AD7E90A0398470028AB
:100D4000C0F2B080A84408EB00054FF0000B07F19B
:100D5000380AB34572D300213A6AFB6A08469847BD
:100D6000E2E656464FF0000807F1380093E7564692
:100D7000D04697E7B04695E7BA6A12F8021BBA6206
:100D800012F8015C284A54F82500904202D3274A01
:100D900090421ED3BA6932B1786A7B601DF001F8C7
:100DA0007B6800288CD1BA6802BB08F1280207F1E1
:100DB000300C08F10100944407F1580252FA80F017
:100DC00008F102080CF8101C5FFA88F800F8105CB3
:100DD00076E7BA693AB1786A7B601CF0E2FF7B681B
:100DE00000287FF46DAF1BF0010F09D006F1280237
:100DF00007F13000711C161806F8205CCEB25FE7D0
:100E00001BF0040F3FF45CAF08F1280207F130003B
:100E100008F1010102EB000808F8105C5FFA81F8A4
:100E20004EE7002063E700BF54750300A8480400A4
:100E300020080020D0F20300040000011BF80A3053
:100E400087F8373054F82390D7F884302BB3D7F88D
:100E500088309B4521D2D7F8843033F81B803A6A1A
:100E6000FB6A012107F13700984700281ADB054487
:100E7000B8F1000F06D14846FFF7BEF900F10108AE
:100E80001FFA88F83A6AFB6A4146484698470028A4
:100E900008DB05440BF1010B5BE74FF00008DEE7D0
:100EA000454641E605463FE6014B1860704700BFE6
:100EB000C004002080B505460E46174698461BF034
:100EC00007FA034636F03CFBDFF81890044649F871
:100ED0000030424630463946A84754F8090003F02E
:100EE00037FD00BF080000002DE9F047058B0446E0
:100EF0002807904611D4022905F0070540F0CC8060
:100F000020461DF0E3F978B10138218B042811D86F
:100F1000DFE800F0C2106D85950001290CBF45F097
:100F2000100545F02005258388F31188BFF36F8FE6
:100F3000BDE8F08701F0070AAA4500F0A580002768
:100F4000B9463E46A368002B00F0BC8041F0080182
:100F5000218388F31188BFF36F8FA168002900F007
:100F6000BA800D68002900F0B680D1F804803346BD
:100F700052462046C047002D76D02B6829461D4694
:100F8000F0E701F007035A1F012A1BD8002221F0C5
:100F90000701062B276889B2C4E9002209D13B4624
:100FA00003E0628B013262831B68002BF9D141F0B0
:100FB0000201218320461DF089F900287AD041F0F2
:100FC000200176E0042B0AD121F0070189B22183A8
:100FD00020461DF07BF910B141F020012183218BC7
:100FE00001F0070AAA454FD00027B946AAE72369AE
:100FF00021F0070141F00601062DD3F8009021836E
:101000002DD1B9F1000F3FD041F00801218388F3C1
:101010001188BFF36F8F3A492046C84729E021F075
:101020000701236941F0040189B2042DD3F804902B
:101030002183E6D000273E464FF0040A82E721F0E4
:101040000701236941F0050189B2052DD3F8089005
:101050002183D6D000273E464FF0050A72E70027CD
:101060003E464FF0060A6DE72B4687E7B9F1000FC1
:10107000D1D1EFF31188202383F31288BFF36F8F50
:10108000238B23F008032383258BEA062ED525F036
:101090001003238305F007056669218B002EBFF638
:1010A00070AF00232768C4E9003321F0070141F045
:1010B00001012183218B01F0070AAA454FF00009A5
:1010C0007FF440AF002F9CD041F00801218388F3CA
:1010D0001188BFF36F8F002FC8D03D683946334663
:1010E000524620461DF01EF92F46F4E7AB067FF569
:1010F0001BAF25F02003238305F0070500E700BFA1
:1011000051E301002DE9F047DFF858800446074617
:101110004FF0010914B93846BDE8F08794FAA4F5F8
:10112000B5FA85F509FA05F32E0108EB05156FEA06
:10113000030A24EA03042B7B002BEBD058F806307B
:101140001B694BB94644042273682846196807EAAC
:101150000A0700F035FBDDE7284698470028D9D17B
:10116000F0E700BF3879030030B51049104889B066
:10117000002235F06CFF0F4D0F4900220023CDE90E
:10118000062300240E23CDE90334CDE901440B4BA3
:1011900000944FF4407228461AF000FE0849284691
:1011A0001AF02EFD204609B030BD00BFC511000069
:1011B000880D0020C808002000DA00200515000076
:1011C00084F3030001481AF08BBC00BFB008002074
:1011D0002DE9F04780461F480F461DF01AFA0646D3
:1011E000002830D000252846BDE8F087237B6BB16E
:1011F0002368DB680BB12046984723681B69D3B985
:10120000636804221968204600F0DAFA01361034C7
:101210004C45EBD3B8F1000FE5D0002DE2D02846C5
:10122000FFF770FF0546002FF7D000214FF4A470A0
:1012300035F091FEF1E7204698470028E0D00AFA01
:1012400006F31D43E2E7044CDFF8109005464FF02B
:10125000010ADDE7A0540020387903005879030023
:10126000014B53F820007047D48B030008B50346A8
:1012700008462BB1044A136000F084FD002008BD2D
:101280006FF01500FBE700BFC404002010B5044C4C
:10129000237813B903481AF023FC0123237010BDEF
:1012A00068D90020B008002010B504460B481DF096
:1012B000B0F95CB1BFF35B8F094B53E8001F0139F4
:1012C00043E80012002AF8D1BFF35B8F054835F0E0
:1012D000CAFE0548BDE810401AF002BC9854002030
:1012E0009C540020880D0020B00800200020064BF0
:1012F000BFF35B8F014653E8000F43E80012002A5A
:10130000F9D1BFF35B8F70479854002070B5FFF799
:10131000EDFF084C084E0546B44200D370BD63682B
:101320005B792BB123685B6813B129462046984747
:101330001034F1E7387903005879030010B5044CF4
:10134000044920461CF05BFE034B1C6010BD00BF2F
:10135000DC070020C08B030090540020094A0A4893
:1013600008B500231370094A1360094A4FF400417D
:101370001360FFF77BFFFFF7E1FFBDE8084000F0D7
:101380006FB900BF69D900200FE601009854002012
:101390009C54002001460022014800231CF050BE4E
:1013A000DC07002001481CF0E9BE00BFDC0700207C
:1013B000024B014618681CF035BF00BF9054002056
:1013C00001481CF06ABF00BFDC0700202DE9F04196
:1013D000354B1878002864D0FFF7E4FF044698B135
:1013E000BFF35B8F314B53E8001F013943E8001214
:1013F000002AF8D1BFF35B8F2D4DDFF8B88045454B
:101400002DD32046FFF7D4FF2B4B2C4C1B68002B11
:1014100019DD35F01AFE4FF47A72A0FB020302FBCD
:101420000131C30BD4E9002043EA41439B1A4FEA40
:10143000D13140F2E93261EB0001934271F10001D8
:1014400001D3FFF763FFD4E9003213F57A7342F159
:101450000002C4E90032BDE8F041FFF7B1BF6B689C
:101460005B793BB121784B0706D52B6821461B6879
:10147000284698471035C2E720462688C1F3C207A0
:1014800000F0BEFAC6F382160246002EEDD0002808
:10149000EBDB01233946284600F0ACF9B042E9D332
:1014A000E3E7BDE8F08100BF68D900209C5400202C
:1014B000387903005879030098540020800D0020EB
:1014C00070B50D4D297861B90120FFF781FE0B4CF5
:1014D0000B4EB44206D3FFF779FF0028FBD101235E
:1014E0002B7070BD63685B791BB1236820469B68D5
:1014F00098471034EDE700BF69D900203879030020
:101500005879030000212DE9F0470846FFF760FEF7
:10151000044658B340F267684FF0000936F010F8FF
:101520001B4B1C4A1B58136033B11B4B1B68092B08
:1015300002DD1A481AF0D4FA194FDFF860A000252E
:1015400044B12046FFF7DEFD044618B94FF0FF38DE
:101550004FF0FF39FFF73AFF064628B9B5B94246C2
:101560004B4650461AF0F0FA3546E9E74FF0FF389F
:101570004FF0FF39D2E72B689B691BB1002211465F
:10158000284698471035BD42F5D3E8E7054DFAE700
:1015900008000000945400209C540020B008002053
:1015A000587903003879030013B518481DF031F855
:1015B000174B1B7873B1EFF31184202383F3128848
:1015C000BFF36F8FFFF702FF84F31188BFF36F8FB4
:1015D00002B010BD0F4B1B68002BF9D050B9002290
:1015E0000023CDE900230C484FF4004200231BF0F8
:1015F00081F9EDE70928EBD1074835F034FD0748BC
:1016000002B0BDE810401AF06BBA00BF9C54002035
:1016100069D9002094540020880D0020B0080020D3
:1016200010B5064B1B68044698472146A060044845
:101630001CF085FDBDE81040FFF7B6BFC4040020D4
:10164000DC070020044A054B9B1AB1EBD30F34BFD3
:1016500052F8310000207047B87803003879030051
:101660000B480C4B30B51B1A0B4CDB080021043027
:10167000994200D130BD10F83120256802F00702F0
:1016800025F007052A4344F8042B0131F0E700BF99
:10169000B87803003879030020080020F8B50B4F14
:1016A0000B4DED1B0646ED080024AC4203D14FF074
:1016B000FF342046F8BD57F8340020B13146FEF71C
:1016C00089FD0028F5D00134EFE700BFB8780300AA
:1016D0003879030000282DE9F047884615461F4653
:1016E0001DDADFF89890264E4FF0000AA6EB0906A7
:1016F00036095446B24509F1100902D12046BDE829
:10170000F08759F80C0C3B4600792A464146FFF712
:10171000E1FF844238BF04460AF1010AEAE7194BA7
:10172000194AD21AB5EBD20F26D203EBC5031C79A6
:10173000BC4228BF3C46154EC0B200EB400056F8F4
:1017400025300722824023EA020304F00702824088
:1017500013430021032223FA02F000F00700814224
:1017600002F1030238BF01461E2AF4D123F0070319
:101770000B4346F82530C1E70024DCE73879030045
:1017800058790300B8780300387903002008002056
:10179000F8B5094D094BED1A06460F46ED08002431
:1017A000AC4200D3F8BD002122B23B4630460134A2
:1017B0001CF04FFFA4B2F3E738790300B8780300B8
:1017C00038B50B4BC31A0D461B1111464268013345
:1017D0001371436804469971FFF7DAFF63681D606F
:1017E000636801225A71BDE83840FFF74FBD00BF62
:1017F0003879030070B14168097973B1002A17DBA9
:10180000CBB20C4951F8220003EB4303D84000F05F
:10181000070070474FF0FF31EFE707490748401ACC
:10182000B2EBD00F3ABF01EBC201087918467047FE
:101830000420704720080020B8780300387903009E
:101840002DE9F04F8FB004AFC1F34A28B8600D46C0
:1018500091467B600C0DB8F1000F67D0002607F1B0
:1018600014034FF0040B4FF00A0AC7F80C80C7E9C5
:1018700007667E620193CDF808B0CDF800A007F1AD
:101880001C03F96832464846FFF724F9B0F5006FAB
:10189000034620D32A48036813F0060F17D06C467E
:1018A0008AB0D9F8041004AB264DC3E9055140F2C3
:1018B000FF71D9611A464FF400711984224B42F826
:1018C000103F4FF412513346FFF7BAFFA5462C37AD
:1018D000BD46BDE8F08FC0F30A0804F117001844B4
:1018E00020F0070080083B60FFF754FD68F35325A4
:1018F000044690B13B68154AC7E9083600F110016B
:1019000007F11403F961CDE900A3CDF808B0F96837
:1019100007F11C034846FFF7DDF868F353257B68A1
:10192000B9682A4620461CF0BEFED0E704F1170035
:1019300020F007008008FFF72DFD0446EDE700BF0B
:101940003008002099F30300040000017BE6010049
:101950002DE9F04F87B0DDE91279DDE9105A044630
:10196000039193469846DFB1CDF800903B4652462E
:1019700010210020CDF81490FEF7DAFEB0F5006FCC
:1019800006460ED31C48036813F0060F30D01B4ADE
:1019900040F2FF73022107B0BDE8F04F1CF0DCBE3F
:1019A0003E4605F11700304420F0070004F007041C
:1019B0008008FFF7EFFC0BF0070BE40044EA8B1400
:1019C00044EA462444EA0554054640B13FB1CDF807
:1019D00000903B46524631461030FEF7A9FE03996F
:1019E00043462246284607B0BDE8F04F1CF05BBED8
:1019F00007B0BDE8F08F00BF30080020D8F3030027
:101A0000406820B1034BC01A40F38F0070474FF07D
:101A1000FF307047200800200EB403B503AB014629
:101A200053F8042B0448019303F046FA02B05DF822
:101A300004EB03B0704700BFA3E70100CA0605D45A
:101A40008B064CBF02490349FFF7E6BF704700BF52
:101A500093F7030010F403002DE9F04F89B09B4683
:101A6000149B06939DF84CA0159B0593169B179EFF
:101A7000049304460D469046BAF1000F00F09D8095
:101A800006F4807307931CF0E2FD06F0020902469B
:101A900000283ED091492046FFF7BEFF0746B9F126
:101AA000000F08D016F0440F35D18D492A46204644
:101AB000FFF7B2FF074406F0010353B1894B8A498F
:101AC00053F82A20894B2046002A08BF1A46FFF700
:101AD000A3FF06F48073002B49D006F00803002B07
:101AE00063D1B8F1000F66D0814942462046FFF726
:101AF00093FF0546069B3D44002B6DD1049B002BB4
:101B000073D1F30700F1E48031462046FFF796FFDA
:101B1000D8E00746C3E7774B18680028CAD0764B51
:101B20004FF47A791B68B5FBF3F54FF46163B5FBAD
:101B3000F0F100FB115509FB05F54FF03C0CB1FB32
:101B4000F3F203FB1211B5FBF0FEB1FBFCF300FB5B
:101B50001E550CFB131109FB05F50091B5FBF0F5C3
:101B60006649CDE901E52046FFF756FFA2E706F0FA
:101B70000803EBB1624B634953F82A202046FFF774
:101B80004BFF0546B8F1000F05D0594942462046A3
:101B9000FFF742FF0544BBF1000FABD05A495A464C
:101BA0002046FFF739FF0544A4E74FF0000BE1E7BB
:101BB00006F00805E6E745469CE7BBF1010F069BEA
:101BC00006D1002B64D1049B002B7BD000250CE0B8
:101BD000002BF8D04D485CE04D48069B4D4922460D
:101BE0001CF0AEF8049B002B68D0DFF82C81DFF8E6
:101BF0002C91049F3146102F204628BF1027FFF755
:101C00001DFF4FF0000B5D4545DC059B49461A78EA
:101C10002046FFF701FF4FF0010B1BF0070F03D128
:101C200041462046FFF7F8FE5F453BD9059B4946F4
:101C300013F80B202046FFF7EFFE0BF1010BBBF171
:101C4000100FEAD1364920464FF0000BFFF7E4FEB3
:101C50005A46059B9A5CA2F120015F2928BF2E22DB
:101C600030492046FFF7D8FE0BF1010BBBF1100FF6
:101C70001DD01BF0070F03D141462046FFF7CCFED5
:101C80005F455A46E5D841462046FFF7C5FEEBE7DB
:101C90001F485546A1E741462046FFF7BDFE0BF120
:101CA000010BB0E720492046FFF7B6FEC5E7059BCC
:101CB0003B440593049BDB1B04939AD1BAF1000FBC
:101CC0007FF41FAF204609B0BDE8F04F1CF05CBDAB
:101CD000064A05492046FFF79FFE15E718F4030062
:101CE0001CF40300E48B030077F8030013F40300F3
:101CF00041F40300A8540020A454002025F403005C
:101D0000F88B030045F403004BF40300D9E701000E
:101D1000A3E70100B94E000058F4030050F403009B
:101D20005AF403009CFE030056F4030073B542F21C
:101D30000F738B4228BF0B4605680F4A04460521E6
:101D400068460FF061FC63680C495B6806460B222D
:101D500028461CF00BFD63683246694628465B68DE
:101D60001CF004FD636806495B681B2228461CF0D2
:101D7000FDFC02B070BD00BF1145040078F4030003
:101D80005CF40300074A00210123904206D8064A6A
:101D900001B901231360054B1860704740085B00D0
:101DA0000121F2E740420F00A4540020A854002073
:101DB000014B01221A7070476AD90020014B0020A4
:101DC00019607047C05400200148FFF7AFBF00BF43
:101DD000288C030010B5064B18680C46FFF740FA34
:101DE00021460346BDE8104002480F22184700BFB5
:101DF000C0540020288C0300F8B5094D094B0A4E49
:101E0000D5E9004701221A700CB92C60F8BD2146B3
:101E100030463A4600F01EF8241A0644F4E700BFA4
:101E2000B45400206BD900206CD9002010B9074BA6
:101E300018707047064B1B781BB141F2883034F0A4
:101E400019BFA420002135F086B800BF6AD9002050
:101E50006BD900202DE9F047DFF878901E4F8046BF
:101E60000E46042499F80050A5B934F0A4FD32467A
:101E700082464146284619F03DF80546504634F062
:101E8000A2FDE5B101233B7099F8003073B93046EB
:101E9000BDE8F08732464146002019F02BF8054690
:101EA000EFE72046FFF7C2FF651E2C46002019F021
:101EB00065F80028EBD03B78002BF2D1E7E73B78C0
:101EC000002BE4D0013C2046FFF7B0FF3B78002B0D
:101ED000C8D1DCE76BD900206AD90020014B036030
:101EE00000207047388C030010B504461EF0AEFB8E
:101EF0000349024620461CF04DFE002010BD00BFE5
:101F0000CBF4030073B5134600220192044601AAE4
:101F100058680A2101F0F0FB019D95B920EAE074B0
:101F20004FF40046294640F2E7304FF47A7200231E
:101F3000C4FB0601FEF734F935F00DF8284602B06F
:101F400070BD2A46024920461CF040FE019DF5E77F
:101F5000F7F4030008B5034A03491CF01BFE0020F8
:101F600008BD00BFE7F50300EEF503002DE9F341DE
:101F700017460023044601AAB86801930A2101F01C
:101F8000BBFB019DC6B24DB12A46144920461CF048
:101F90001DFE019D284602B0BDE8F081042E09D93E
:101FA0000F49324620461CF011FE20461CF04AFE26
:101FB0000125EFE77868FFF771FBB0F1000804DA5C
:101FC0007A68084920461CF001FE002133460FFACA
:101FD00088F208461CF03DFBDCE700BF19F6030061
:101FE00040F6030057F6030010B5044604F02CFF3A
:101FF0000749024620461CF0CDFD204605491CF04D
:10200000C9FD054821461AF0ABFA002010BD00BFFB
:10201000B6F60300D5F603001D20000070B58EB0A3
:1020200004460D46D0F89C6034F0E9FE034635F0D6
:1020300087FA214A21491058214A002B18BF1A4615
:102040000092204A2346844218BF0A4628461E4969
:102050001CF0A0FDD4E90A23CDE90023284694F919
:102060000E30227B19491CF095FD06A9202220463E
:1020700019F0D6FD636E1649024628461CF08AFD0B
:1020800005A9204634F0C9FE024628B11149284668
:102090001CF080FD0EB070BD059B6422F11A4A430E
:1020A0000091B2FBF6F20C49CDE9016228463246B6
:1020B0001CF070FDEEE700BF0800000058F40300BC
:1020C000DFF6030033090400E2F60300EEF6030036
:1020D0001AF7030031F703005EF70300F0B500259F
:1020E00091B00446294608AF1C2209A835F067F9CB
:1020F000134E1A222021384635F061F92146114845
:102100001AF02EFA07AA4FF40061304634F079FE37
:10211000079A0097C2F5006164234B43DB0A0593DD
:102120004FF40063CDE90313CDE90132204606499F
:102130002B46A6F140021CF02DFD284611B0F0BD43
:10214000C0E500204D210000AAF7030070B5044649
:10215000D0F89C6088B00D4607A934F05EFE0246B8
:1021600028B10F4928461CF015FD08B070BD204667
:1021700034F045FE079B0096F11ACDE90131094B79
:1021800064224A43002818BF0346B2FBF6F2064910
:10219000CDE90362284622461CF0FCFCE5E700BFBF
:1021A00031F70300DFF60300F3F703002DE9F04FEA
:1021B00087B00446684619F0B3F9009F284ADFF853
:1021C000A4A0DFF8A4B0182303FB00770821204661
:1021D0001CF0D3FC009DBD4203D3002007B0BDE836
:1021E000F08F2B680BB11A7832B92B461F4A142195
:1021F00001A80FF009FA01AB5246082120461CF055
:10220000BCFC284634F03BFD194B1A4A002808BF95
:102210005B46082120461CF0B0FC6B69A3B11E6828
:1022200096B1336883B1144A082120461CF0A5FCFE
:10223000B1464FF000083368104A434506D8104AAB
:10224000082120461CF099FC1835C4E759F8043FD2
:10225000082120461CF091FC08F10108EBE700BFC3
:1022600066F8030075F803005DF8030070F80300DA
:1022700057F80300FBFE03007AF8030076F803002A
:1022800093F703002DE9F0411446884607461022D3
:10229000606800211AF042FFB8F1020F064607D825
:1022A000254A2023082138461CF067FC336816E0D5
:1022B0000A220021A0681AF031FFC5B21E4A2B463F
:1022C000082138461CF059FCB8F1030F1AD1102D23
:1022D0000CD0202DEAD0082D0BD13378DBB2174A71
:1022E000082138461CF049FC002009E033889BB2E5
:1022F000F5E73846124A08211CF03FFC6FF0150044
:10230000BDE8F081E068102200211AF007FF0D4AB5
:1023100003460446082138461CF02FFC102D06D039
:10232000202D07D0082DE4D1E4B23470DCE7A4B24C
:102330003480D9E73460D7E7BBF80300E6F8030040
:10234000D0F80300F7F803002DE9F04F87B0002321
:102350000193524BDFF848A1914601220746884677
:102360001A6002F0EBFD4FF0FF3520262C4649465F
:102370005246404602F006FE411C06D16A1C41D17D
:10238000484938461CF022FC17E073281AD07728F9
:1023900028D0612811D1DFF810B101AADBF80000C4
:1023A000102101F0A9F9019B0546002BDFD0DBF8D5
:1023B00000203E4938461CF009FC6FF0150007B0BC
:1023C000BDE8F08FDFF8E0B001AADBF800000021E3
:1023D00001F092F9019B0446002BC8D0DBF80020E5
:1023E0003349E7E7DFF8C0B001AADBF800000021BD
:1023F00001F082F9019B0646002BB8D0DBF80020E3
:102400002C49D7E7631C01D12B49BAE75FFA86F85C
:10241000C6F3C406002C3FD002AB29461A46A6EBF1
:10242000050C0CE0B8F1100F1DD0B8F1200F20D032
:10243000B8F1080F2AD10878187031443344A64205
:1024400003D80CEB01001028ECD9102CA14628BFB2
:102450004FF0100929464B46384601F025F8103553
:10246000A4EB0904D6E7088880B21870000A5870F7
:10247000E3E7086818704FEA102E83F801E04FEA8E
:10248000104E000E83F802E0D870D6E70B4A082100
:1024900038461CF072FB90E7204690E7500500207C
:1024A00045F903004CF90300985D00200BF9030087
:1024B0001EF9030031F9030069F90300D0F80300A5
:1024C00070B50F4E044633780D4671B123B1BDE8A7
:1024D00070400C491CF07ABB012333700A49204636
:1024E0001CF058FB0123337004E083F001033370C8
:1024F000002BF3D129462046BDE870401CF0BFBB3D
:102500007CD9002083F90300BEF9030070B50446AE
:102510003B480378182B02D10B78112B31D0013AAC
:102520000B468D18AB4225D18B5C0A780370A2F163
:102530003003092B334C04D922F02003413B052BF7
:1025400004D823683049CA54013323602368022B1E
:1025500033D110222C4800211AF0E0FD2B4A1368D9
:1025600003F8010B13602A4A136801331360002338
:10257000236022E013F8016B182ED3D11E78112EA0
:10258000D0D1234D23492A6820461CF003FB204666
:102590000021FFF795FF204B187870B91F4A2B6870
:1025A0001168042B0ADC08B111602B6013F00301E1
:1025B0000BD1126813681BBA136070BD086800BAAB
:1025C00041F8040B043B0120EBE75B4203F00303FB
:1025D00058BF5942022904D1126813885BBA9BB2D2
:1025E000EAE70329E9D1106802681104C2F307433E
:1025F00001F47F010B4302F47F4213430360DCE7E5
:102600007DD90020C45400207FD90020D054002060
:10261000C8540020E8F903007ED90020CC540020E3
:102620002DE9F84F0C462B49DFF8AC80DFF8AC9071
:10263000DFF8ACB000230B602A4988F8003006466A
:102640000B601546012C2F4655F804AF1ED9022207
:102650004946504634F0D8FE80B99AF80220003A34
:1026600018BF0122924420490222504634F0CCFE89
:1026700030B9012388F80030013CE3E70022F1E79C
:1026800049465046FDF7A6FDA8B904370022114679
:1026900078681AF043FD154B0022114618607868DF
:1026A0001AF03CFD124B134918603046FFF708FF43
:1026B0000020BDE8F88F9AF800202D2AE6D19AF87C
:1026C0000120002AE2D05246594630461CF062FAF8
:1026D000D2E700BFC45400207ED9002002FA0300D4
:1026E00008FA0300C854002005FA0300D054002063
:1026F000CC5400200D25000007B50A4834F0BFFA7D
:1027000060B1094A0749126808480423009301236D
:1027100000F030FF002003B05DF804FB6FF0120002
:10272000F9E700BF3C760300E08C03005879030012
:1027300010B54468C4E90012A36042684023D36422
:1027400002F15803136300230821C2E90E33C2E9E2
:102750001133C2E90633C2E90933D1621468536305
:1027600002F150011364116153611362C2F8D03059
:10277000A36823B11B6C13B1044920469847A36892
:102780001B6A0BB120469847002010BD912700001E
:102790002DE9F74304460D468368DB6B03B1984788
:1027A000A368DB6A0BBB4FF0000905F13008EA6C47
:1027B00001A940461BF070FE0746002836D0A368EA
:1027C00001991B693BB3024620469847064628B349
:1027D000314640461BF07FFEB7424FF00109E6D07C
:1027E000D5E901310020984703E0204698470028AA
:1027F000D9D1A368DB6963BB05F11007EA6A01A9B7
:1028000038461BF09CFE064650BB20461CF037F8AD
:10281000C5F8D0602FE06FF05706D9E70146404673
:102820001BF059FEB9F1000FE3D0D9E71648036851
:1028300013F0060F03D0154A02211BF084FFA36892
:102840001B69002BEED001220DF1030120469847B1
:10285000E8E7204698470028CED103B0BDE8F083D2
:10286000A3680199DB685BB10246204698470146A0
:1028700038461BF084FED5E9013101209847ECE78A
:102880006FF05701F4E700BF440800206FFB03001E
:1028900010B581680446183101F060F9A168034A57
:1028A00020461831BDE8104001F0FEB8B1FB03002E
:1028B00038B58368D3F87832DB0704461DD4C06985
:1028C0001CF015FF606803685B689847054620B9EF
:1028D000E0681DF0E1F8A3681D75A3685B6C13B197
:1028E000294620469847A36834F02AFE0022C3F800
:1028F0002023034B185802F02BF86FF00F05ECE77C
:102900000800000001491CF058B800BF93F703000D
:10291000F7B504468068D0F878325A070D4605D5D9
:1029200000211CF072F8E0681DF088F8E368DB68AD
:1029300073B9002D3BD0A66806F1560738461CF047
:1029400049F8002835D0394606F5AB70FDF74CFC48
:10295000A268E0680DF10603563229461DF071F8B1
:1029600058B9A06800F5AB715630FDF73DFCA06882
:1029700056301CF02FF8ADF8060020461CF072FC13
:10298000A368D3F874329B0603D50B4960691CF029
:1029900014F8204600F016FFA268BDF80630A2F831
:1029A0005230A2682046A2F850301CF0C0FB03B0A1
:1029B000F0BD86F85601CBE7C07A03002DE9F04F51
:1029C000A7B004465422002111A834F0F8FC0023DB
:1029D000CDE90533A3682046563302931CF049FC29
:1029E00020461CF08DFB10B96069FFF78BFFA068D3
:1029F00014220021183034F0E2FC20461CF026FBA3
:102A0000A168E068B1F85020563100261DF050F85A
:102A100020461DF0CFF84FF0FF37B24603960DF178
:102A20004408B3463546B146DDE90532012A6DD08A
:102A3000132B6ED85FBBBBF1000F0AD020461DF0F0
:102A4000DAF8A2681423563211A90DEB03001CF02A
:102A50007CF9B9F1000F0CD099F81130FE2B08D198
:102A6000059B26AA02EB830252F8542C0AB10133CB
:102A70000593A068059D436A002B40F0B680CEB157
:102A8000C3699E422DD00D9600F1180524E0029AEC
:102A90000223414606A81CF058F90699D8F80420EC
:102AA0000292034631B101290AD148B16D4A20464C
:102AB0001CF091FC6FF00705284627B0BDE8F08FA9
:102AC000059B002B34D0D8F8000001F067F898B1CE
:102AD00066B1A5680D9618350CAE0FCE0FC53368DC
:102AE0002B602046FFF7D4FE0125E5E75E4A012171
:102AF00020461CF070FCDDE7059BCBB1D8F8002028
:102B00002946204601F0ECF9022809D1059B132B38
:102B100091D9069B022B8ED1544B554A0121C6E711
:102B2000032805D0059B013305934FF0010B7BE78C
:102B3000039B33B9D8F8001007AA48461CF0FCF9EB
:102B4000054608F10408013F9DB3EB68BBF1000F97
:102B500008D0F3B120461CF08CFB20461CF0E7FAAD
:102B6000444AC4E7ABB1A368DDF814A0AE4603F154
:102B7000180CBEE80F00ACE80F00DEF80030CCF80F
:102B80000030AB682BB96B7CFE2B04BF2F7C07F1A8
:102B9000FF37D5F804C0BCF1000F08D0AE46BEE840
:102BA0000F000CAE0FC6DEF8003033606646A94653
:102BB00003E0059B53B101230393069B17B9022B36
:102BC0007FF432AF059B013305932DE7A368DB6AE1
:102BD00013B1DB68002BEED1274B0093274A119BE2
:102BE000012120461CF0F7FBE5E790F82830A5EB23
:102BF0000A05BBB190F829104FF6FF72FF2918BFE4
:102C00000A469D4202D313449D420BD983691C4A54
:102C1000012120461CF0DFFB2046FFF739FE6FF054
:102C2000150549E701211BF0E5FEA06800F543709A
:102C30001BF004FFA36811AA294602EB8A025B6A13
:102C4000204698470546A0684FF0FF324FF0FF330B
:102C500000F543701BF099FEA06800211BF0CAFE2E
:102C60002AE700BFBFFB0300D3FB030034FC0300D3
:102C700072F60300F1FB030020FC030028FF0300B1
:102C800058FC030010B5836802221A7583689B6C98
:102C90000446BBB91BF050FE8368D3F87832DB04DE
:102CA0000BD50321084B094A1CF095FBA0686FF473
:102CB000805100F51E701BF059FE2046BDE8104003
:102CC00000F0D4BE10BD00BF73FC030077F8030012
:102CD0002DE9F04F04468068B1B0012100F51E7067
:102CE0001BF035FEA3681B7D022B20D10023099326
:102CF000A36860689E6C03681D6909AB0EB310225F
:102D00001BA9A847099B93B1A06801211BF072FE83
:102D1000099A1BA92046B047A06800211BF06AFE53
:102D2000A3689B6C002BE3D12046FFF7ABFFA068A4
:102D30006FF0010100F51E7031B0BDE8F04F1BF0DF
:102D400015BE01220DF12301A847099B002BEED0EF
:102D50009DF923209DF82310A368002AC8DB5A7D23
:102D6000032A00F29882DFE812F0040085029C0238
:102D700096020D297CD00A2958D0B3F878226FF337
:102D8000CA02A3F878220929A06800F086803DD8FD
:102D90000029ADD0082900F0FC810346D3F8742245
:102DA0009207A5D501391629A2D801A252F821F01F
:102DB00045330000CD310000D5310000C5310000A1
:102DC00039330000F3310000F12C0000F12C000039
:102DD000F12C0000F12C0000FB3100000332000058
:102DE000F12C00002D320000F12C000037320000E1
:102DF000F12C0000F12C0000F12C0000F12C00005F
:102E00003B320000F12C0000653200001B2941D04C
:102E10007F2900F0CA81A1F120025E2A0346BDD8B5
:102E200001211BF0F2FD9DF82310B9E0D3F87822C0
:102E3000C2F3C7022AB1D3F87822C2F3C7020A2A22
:102E4000ACD1B3F8782261F3CA02A3F87822A5685E
:102E5000B5F85010C1B928461BF0D7FDE0681CF04A
:102E6000EDFD6069FFF74EFD2046FFF70BFF3FE7E2
:102E7000D3F87822C2F3C702002AE2D0D3F878222E
:102E8000C2F3C7020D2ADBE72046FFF797FDC5F81E
:102E90002403E9E7012343752AE7D0F874329B073E
:102EA0007FF526AF01211BF0B0FDA068B0F85030CF
:102EB000FF2B3FF41DAFB0F8522000F1560100F592
:102EC000AB7034F054FAA368B3F8522013440025D1
:102ED00083F85651A2681BA9142302F5AB720BA804
:102EE0001BF033FF0B9914293FF602AF30AB03EB15
:102EF000810343F8545CA368B3F85220002A53D0EE
:102F0000134493F85530202B02D0093B042B4BD8A7
:102F100000294CD100250A950A9B30AA02EB8303B5
:102F2000002653F854AC50461BF054FDB34681467E
:102F3000B046374616AA3946284600F0A3FB03469A
:102F4000002840D1012EA76865D10A9B30AA02EB68
:102F5000830353F8540C1BF03DFD07F1180206469D
:102F60004146284600F08EFB056828461BF032FDDE
:102F7000864205D0821B92B2A91920461CF072FA33
:102F8000A068B0F85230034493F85630202B31D06B
:102F9000093B042B2ED9D0F87432DF072FD420211F
:102FA000204600F02BFDA3E60129B3D9013900200A
:102FB0000CAB009301900AAB1BAA1BF0E8FF05467F
:102FC0000028A9D194E61B6803934A465146184647
:102FD00034F01AFA60B9039B1846FDF70DF958450D
:102FE00038BF58461FFA80FB002E08BFB84601368E
:102FF00001379FE7012120461CF0CDF878E600213B
:103000001BF00DFD2021204600F0F8FCA0680121F6
:103010001BF005FD6CE604907FF66AAE0A9A30ABB1
:1030200003EB8202C14652F8543C039318461BF04E
:10303000D1FC049B0590A7F840300496A26849464D
:103040001832284600F01EFB039BD0F800A009F1BF
:1030500001094BB1BAF1000F06D0059A1946504646
:1030600034F0D2F90028E9D1A168BAF1000F4ED1AD
:10307000A1F840A0049B013B0493DFD16069FFF7F6
:1030800041FC204600F0F2FC0A9B30AA02EB8303CD
:1030900008F1010A53F8540C1BF09CFC414611AA9C
:1030A0008146284600F0EEFA0746A0683968FF22FC
:1030B00000F5AB7034F0BAF93B6803934FF6FF7735
:1030C000B84616AA514628460AF1010B00F0DAFA72
:1030D000002852D0A168036801F25511002211F8AE
:1030E00001EF985C704503D110B101324245F6D131
:1030F000B9F1000F01D04A4507DBBA4206F1FF36AD
:10310000A8BF3A46012E97B237D0DA46D9E7994898
:1031100006911BF05FFC069907914A8F00EB0B07A5
:10312000BFB2121A504692FBF7F292B206921BF00F
:1031300051FC0799069A3F1AB1F8400000F1010CC2
:10314000A1F840C0B0FBF2F102FB110080B2BFB2A7
:1031500060B9884B884ACDF800A0062120461CF0B3
:103160003AF93946204600F017FB83E7834A534675
:10317000062120461CF02FF9F3E7002F3FF4B8ADED
:103180000399A7EB090292B2494420461CF06AF960
:10319000AEE5D0F874329E077FF5AAAD01211BF091
:1031A00034FC20461CF07FF9A2E5D0F874329D076C
:1031B0007FF59EAD01211BF028FCA368D3F8743283
:1031C0001907EED420461CF04FF991E520461CF07B
:1031D00059F88DE520461CF04CF820461BF090FF76
:1031E00010B96069FFF78EFBA06801211BF00DFC90
:1031F0003AE620461CF04FF87AE520461CF056F8D7
:1032000076E5D3F874329B0603D55D4960691BF0FF
:10321000D4FBA368D3F874329F0603D5594960697B
:103220001BF0CBFB204600F021FC61E5002120468D
:10323000FFF76EFB5CE50121F9E720461CF012F870
:1032400020461BF079FB0121A0681BF0DEFBA36880
:10325000D3F874329E067FF54BAD4B4960691BF085
:10326000ACFB45E5204600F027FBA06801211BF0E0
:10327000CCFB3DE55B2902D102225A7538E5D3F833
:1032800074329D0706D5622907D14FF0FF312046E1
:103290001BF0AAFFA3680022EFE76629FAD10121FB
:1032A000F5E700225A75A268D2F8743298077FF5C4
:1032B0001FADA1F131031B2B3FF61AAD01A151F84F
:1032C00023F000BF413300004D33000061330000A4
:1032D00035330000F12C0000F12C0000F12C00002F
:1032E000F12C0000F12C0000F12C0000F12C00006A
:1032F000F12C0000F12C0000F12C0000F12C00005A
:10330000F12C0000373200002D320000F3310000B4
:10331000CD310000F12C000039330000F12C000009
:1033200045330000F12C0000F12C0000F12C0000CE
:10333000513300000323537520461BF09AFFD7E456
:103340000323537520461BF08DFFD1E403235375EF
:10335000A068D0F8741201F0010181F0010157E674
:1033600003235375A368D3F874329B077FF5C0AC71
:1033700028E700BF57F40300B7FC030077F8030009
:10338000C57A0300CA7A0300C07A03002DE9F04130
:1033900004468068154600F51E70002937D04FF4AA
:1033A00080411BF0D4FAA368DD64606803680021E3
:1033B0009B68984700284BD120461BF066FB0028ED
:1033C00046D1244E244FDFF89480A06800F52F707A
:1033D0004FF0FF324FF0FF33032119F0C5FA0546D5
:1033E000A0684FF0FF324FF0FF3300F543709DB1FE
:1033F0001BF0CBFA20462B46194A01211BF0EBFFAC
:10340000A068BDE8F04100F543701BF017BB6FF4F6
:1034100080411BF0ABFAC6E71BF0B7FA3246022137
:1034200020461BF0B4FA3A46294620461BF0AFFA74
:103430002046424601211BF0AAFA606803685B69D6
:1034400003B19847A06800F543701BF0F7FABCE79A
:10345000BDE8F081B1280000D12C000041EA010054
:10346000BDFC030010B50B4904461BF093FB20463E
:1034700009491BF08FFB204608491BF08BFB2046B7
:1034800007491BF087FB2046064A002100F00CFB91
:10349000002010BDD4FC030012FD030071FD0300E9
:1034A000C5FD03005FFE0300F8B517461E460A4639
:1034B000294904461BF06EFB3EB33A782749204663
:1034C0001BF068FB01256A0703D1254920461BF044
:1034D00061FBAE421ED97A5D204920461BF05AFBA3
:1034E0000135102DEFD11F4920461BF053FBB6B913
:1034F0001B4920461BF04EFB0125AE422B4610D83F
:10350000174920461BF046FB15E0174920461BF0E3
:1035100041FB0125144920461BF03CFBE0E7002558
:103520002B46FA5C1149A2F120035F2B28BF2E2203
:1035300020461BF02FFB0135102D06D06B07DCD188
:10354000074920461BF026FBD7E720460849BDE87F
:10355000F8401BF01FBB00BF75FE030050F40300D2
:1035600058F403005AF4030056F403009CFE0300D1
:103570007CFE03002DE9F043044680688846D0F8BD
:10358000201389B015461F46002960D14FF44A72B6
:1035900033F015FFE0681CF0F3FAA06800F5437003
:1035A00033F010FC4FF42F794FF41F76A0683044AD
:1035B00033F0A3FEA068002283190121484410368D
:1035C00033F072FEB6F52F7F09F11409EED1A3692D
:1035D00000261E60A068022100F51E701BF0B7F9DE
:1035E000A36850225A87A36818221A8721682046A8
:1035F0001BF0FAFAA368174A66F38205C3F87452FF
:103600006068036841461D682346A8470546D0B94F
:10361000A36801221A75D4E90A0100220023CDE92A
:1036200006230E230393109B0495CDE901730094A8
:10363000094B4FF4006218F0B1FBA368C3F82003F4
:10364000616A18F0DDFA284609B0BDE8F0836FF032
:103650007705F8E7E1E901008D33000010B5044675
:1036600013460A460146064801F026FC23691B79E9
:1036700023B12046BDE810401BF007BB10BD00BFC2
:10368000A3EC010038B50B46154648B91449154A54
:10369000521AB3EB920F05D251F82350284638BD89
:1036A00084680CB90025F9E70F4A94420AD30F4AFF
:1036B000944207D218462268294690472B68002B6F
:1036C000ECD1EFE70A4A944202D30A4A944205D366
:1036D000246814225343E518E358F0E70133F8E770
:1036E00088790300B07903008C7A03008C7A030098
:1036F000B07903008C7A0300F7B503782D2B0446CC
:10370000164605D16FF015033360002003B0F0BDFD
:1037100033F016FF0B4F00230546C3510A462046DF
:1037200001A919F0FBFCEB59222B02D16FF0210308
:10373000EAE7002BE6D1019BA342E3D01B78002BE4
:10374000E4D0DFE70C0000008368D3F874329B06F6
:1037500003D5024940691BF0B4BC7047D07A03001E
:1037600001491BF0AEBC00BF93F703000A1E0DDC3D
:103770000ED042238168D1F87412890608D5002A38
:1037800004494069B8BF52421BF09BBC4123F1E79A
:10379000704700BF98FE03000A1E0DDC0ED04423C4
:1037A0008168D1F87412890608D5002A0449406955
:1037B000B8BF52421BF085BC4323F1E7704700BFFE
:1037C00098FE03002DE9F0478568DFF8689004460D
:1037D00005F15600FCF710FD002395F83C7086B209
:1037E0009846A268558FED1BB54209DB002E1FDD00
:1037F000563360691049BDE8F0471A441BF061BCBC
:103800001D442A44563392F856A082F85680A26886
:1038100060691A4449461BF054FCA3682B4483F8A2
:1038200056A0A3685B8FDB1BF61A00272B46D8E750
:10383000BDE8F08772F6030077F8030008290A460E
:1038400017D8836893F83E10914212D083F83E2037
:103850008368082AD3F8743205D0990609D505493A
:1038600040691BF02EBC9B0603D5034940691BF041
:1038700028BC70479FFE0300D57A030038B50D467B
:1038800009780446FFF7DAFF6A78072A11D8A36897
:1038900093F83F1091420CD083F83F20A368D3F8EF
:1038A00074329B0605D560690249BDE838401BF0BB
:1038B00008BC38BDA8FE0300F8B58368B3F85020F3
:1038C0000446002A55D0B3F85210002951D0553182
:1038D00003F156050B441846A84206D3014611F8D9
:1038E0000169202E3CD0A8423CD286B29DB2AB1BCF
:1038F0009BB2591C471CD21A0144384633F045FD8F
:10390000A268B2F85030711B13FA81F3A2F850305C
:10391000A368B3F850201344002283F8562009B25C
:1039200020461BF038FCA368D3F874329A0603D5FE
:10393000104960691BF0C5FB3B460F4A0821204631
:103940001BF049FD2046FFF7FFFEA368D3F8743251
:103950009B060ED560690949BDE8F8401BF0B1BB74
:103960000846B9E7014611F80169202EBDD0084686
:10397000B9E7F8BDDA7A030077F80300DE7A0300CE
:103980002DE9F04104460D4617460AB1FFF7DCFE6B
:10399000A368B3F85220D3F87412563213444A077E
:1039A00021D51846FCF728FCDFF848800646A6B962
:1039B000A368B3F85020A3F85220A0681BF08EFB38
:1039C00020B107B115B16069FFF7CAFE6942204610
:1039D00009B2BDE8F0411BF0DEBB606941461BF057
:1039E00070FB013EE3E7044A082120461BF0F3FC8C
:1039F000DEE700BF3309040077F8030013B58368DE
:103A00008DF80710D3F874220446D00725D5B3F8F3
:103A10005210B3F850208A421FD0481CA3F852001D
:103A20000B449DF8072083F85620A368D3F874123E
:103A3000890710D5D3F8743260690B4913F0040F6D
:103A400018BF2A221BF03DFB20461BF059FB10B18A
:103A50006069FFF785FE02B010BD01220DF107017C
:103A600020461BF0C5FCF6E79CFE030010B504469B
:103A70008368094A02211BF0AEFCA368D3F87432B4
:103A80009B0707D52046FFF79DFE2046BDE8104066
:103A90001BF05CBB10BD00BF77F8030001491BF0B1
:103AA0009CBE00BF93F703002DE9F04F0E460021A6
:103AB00089B0044617460D4603AA304601F10108B5
:103AC000FFF7E0FDB0B995B127B13A46082120468D
:103AD0001BF081FC1E4FDFF87C90DFF87CA00021FA
:103AE00003AA304601F10108FFF7CCFD60B909B027
:103AF000BDE8F08F006810B1FCF77EFB80B2854214
:103B000038BF05464146D7E703688BB11A787AB1CA
:103B1000D0F804B04A46CDE9005308213B46204680
:103B20001BF059FCBBF1000F04D16069FFF7B6FF31
:103B30004146D5E7524620463B4608211BF04BFC48
:103B4000AA1D92B2594620461BF054FEF0E700BF72
:103B5000C6FE0300B1FE03004BF40300F7B50F6887
:103B600005460E46A7B13846FCF746FB84B2094B22
:103B700000932846084A3B4608211BF02CFCE21C17
:103B8000716892B2284603B0BDE8F0401BF032BE27
:103B90003C46ECE7C2FE0300B8FC030010B5074941
:103BA0000446FCF717FB38B105492046FCF712FB29
:103BB000B0FA80F0400910BD0120FCE7B8FE030018
:103BC000BBFE030010B58368D3F874329B0604462D
:103BD00003D5064940691BF084FEA36850225A872A
:103BE000A36818221A87002010BD00BFE27A0300E4
:103BF00008B5836902491A681AF0CCFF002008BD95
:103C0000C9FE03002DE9F3410D490E4C0E4EDFF8BD
:103C10003C8005461AF0BEFF0022B44202F10107C3
:103C200003D3002002B0BDE8F081636A0093A3686B
:103C300092B2414628461AF0ADFF30343A46ECE7DE
:103C4000D9FE03005879030088790300F1FE0300D0
:103C500008B502491AF0C8FF002008BD94F7030018
:103C600073B50E4E04460025A268E0680DF1060308
:103C700002F5AB7201211BF0E4FEBDF80600A3685B
:103C800040B12A4603F5AB73314620461AF082FF55
:103C90000135E9E783F8560102B070BD02FF030069
:103CA00010B504461AF0E3FF0349024620461AF015
:103CB00071FF002010BD00BFFEF90300022907B507
:103CC0000BD15368009312680B4B0C491AF07EFF1E
:103CD0006FF0150003B05DF804FB8368084AD3F861
:103CE0007432084913F0020F074B18BF1A461AF036
:103CF00051FF0020EEE700BF10FF030025FF030087
:103D00000CFF03002EFF030006F6030010B58368C6
:103D1000D3F874329A06044603D5074940691BF06C
:103D2000E0FDA368D3F874329B0603D503496069AC
:103D30001BF0D7FD002010BDE97A0300EE7A0300E6
:103D4000F0B5012985B004460AD053680093126883
:103D50005D4B5E491AF03AFF6FF0150005B0F0BDFB
:103D60008368D3F87432990603D5594940691BF02A
:103D7000B8FD6FF0F9012046FFF7F8FCFA21204664
:103D8000FFF70AFDA06800254FF48072294600F570
:103D9000AB708DF80B5033F012FB4E4960691BF08D
:103DA000A0FD60691AF071FF4FF47A7660680368CD
:103DB00001221F690DF10B0103ABB847039BEBB95F
:103DC000013E4FF47A70B6B232F054FF002EEDD1BE
:103DD000A368D3F874329B0603D53F4960691BF092
:103DE00080FDA3683D4950225A87A36818222046C7
:103DF0001A871AF0DDFE6FF00700AFE79DF80B2081
:103E0000A3681B2A53D093F856111B29CED1522AEE
:103E10004DD15A19002382F85631A66896F85721D9
:103E20005B2A2BD106F25710022510F8011F2A46F3
:103E30003B2905F10105ADB223D1FF2AC8D002F517
:103E4000AB7216FA82F1002211F8010F18BB86F846
:103E50005601FA2AA16828BFFA224A87FA2BA268DB
:103E600028BFFA231387A368D3F874329A0603D5C0
:103E7000194960691BF035FD00206FE786F856315F
:103E8000A6E703EB8303303901EB4301B5F5807FEF
:103E90008BB2CAD19CE7013502EB8202ADB2303859
:103EA00000EB4200B5F5807F82B2CDD190E72B4484
:103EB0000135ADB2092D83F856217FF677AFA3689F
:103EC000002283F8562183E710FF030025FF03003B
:103ED000F47A030079FF0300F87A03003FFF030040
:103EE0002DE9F04F074689B01546894621B11046A5
:103EF0001BF04CFE00285BD1032455E05C463CE0FF
:103F000029460AF5AB7033F0ADFA0646002854D0C6
:103F1000FCF772F982B2601C01323146304433F052
:103F200034FA22465946304633F021FA4FF0200346
:103F30003355BAF8543001331C44AAF8544008F100
:103F40000108002401994B1C03AA48460193FFF77E
:103F500099FB0646E8B13168002228461BF0D3FFE2
:103F60000028EFD1D6F800B0D7F808A0BBF1000FB9
:103F7000C4D05846FCF740F984B2BAF85430234410
:103F8000FF2BBDDD0E4A2B46032138461BF023FADA
:103F90000124B8F1000F07D0B8682A4600F1540197
:103FA00000F5AB701AF0A1FF204609B0BDE8F08F14
:103FB0004FF0000841460224C5E70224E9E700BFAC
:103FC0004104040008B5044819F012FFBDE8084098
:103FD000024819F00DBF00BF93040400C804040098
:103FE000014818F0F3BE00BF4490030038B5044602
:103FF00018B90F4B0F485B6898476168B1F5683F87
:1040000010D0B1F5680F0DD00B4DA9420AD011F4B4
:104010006861206807D00146084832F088FE002316
:104020002360656038BD142233F0C9F9F9E700BF99
:104030006C070020F60404002C5F5CA95C5D002086
:1040400008B520B34368B3F5683F10D10122036877
:10405000BFF35B8F53E8001F002903D143E8002022
:104060000028F7D1BFF35B8F0DD1002008BD094AAE
:1040700093420AD000684FF0FF324FF0FF3317F041
:1040800067FC0028F1D00448F0E70448EEE76FF43D
:10409000E040EBE72C5F5CA9E98FFFFFEA8FFFFFB1
:1040A00008B5D8B14368B3F5683F10D10022036862
:1040B000BFF35B8F53E8001F012903D143E80020C1
:1040C0000028F7D1BFF35B8F0BD1002008BD074A52
:1040D000934208D0006817F0B3FCF6E76FF4E040B5
:1040E000F4E70348F2E70348F0E700BF2C5F5CA960
:1040F000E98FFFFFEA8FFFFF10B5044618B91D4B8B
:104100001D485B6898476368B3F5683F2FD0B3F5E7
:10411000680F2CD0194A934219D1236803BB184861
:104120004FF0FF324FF0FF33214617F0E3FB08B9A1
:1041300023681BB90F4B13485B689847206814220B
:10414000002133F03CF94FF46863636008E0B3F595
:10415000683F0DD83A2B03D040F6BA629342DED1C5
:10416000206832F02FFE636843F03A03636010BDAD
:10417000054AF3E76C070020F60404002C5F5CA9F5
:104180005C5D00201C0504003A00003A08B50649B1
:1041900006484023142232F0BCFDBDE80840044923
:1041A000044818F085BE00BF5C5800205C5D00200C
:1041B0004C900300609003002DE9F843054600AFE2
:1041C0000C46002948D0DFF8B890D9F800305A07DB
:1041D00042D06E468AB0D1E90001A3686A46DFF892
:1041E000A4C04FF00508C2E905C0C2E9071342F8B0
:1041F000108F00234FF421514846FDF721FBD9F8D9
:1042000000305B07B54627D08AB0D4E90301636963
:104210006A46DFF874C0C2E90713C2E905C042F874
:10422000108F002348464FF42151FDF709FBD9F8C0
:1042300000305807B5460FD0E3690121134A4846BC
:104240001AF08AFAD9F80030590705D0A369104A44
:10425000012148461AF080FA012D0AD1EFF30583B7
:1042600007480268520704D00A4A103B29461AF050
:1042700073FA2146284617F073F9BD46BDE8F88366
:104280003C0800204905040078050400A705040047
:10429000B6050400E405040030BFFFF7FDBF00BF12
:1042A0002DE9F0410B4EDFF8308006EB0807CC1B00
:1042B000054632460949204633F059F8A0194246CE
:1042C0000021083C33F07BF8C5F8A84007F108004E
:1042D000BDE8F08100000000080000008C7A0300B7
:1042E000074A936893F90E10002907DB526993423D
:1042F0001FBF044A536843F080535360704700BFA8
:1043000054D7002000ED00E0F8B5374C23685B0778
:1043100006460D4603D0354920461BF088FC344B39
:104320009B6ADF0451D52368580703D031492E48D2
:104330001BF07DFC17202E4B9B6A190507D52368BF
:104340005A0703D02C4928481BF071FC1820284F2D
:10435000BB6A9B0519D52368580703D02749224813
:104360001BF065FCBB6BBA6A11040DD522685207BD
:1043700004D0234A1C4801211AF0EEF926B11C4A48
:10438000936A23F4004393621920194B9B6A5B05DF
:1043900007D523685F0703D01A4913481BF047FC71
:1043A0001A20134B9A6AD60511D52368590703D0F2
:1043B00015490D481BF03BFC1B200D4A936A43F442
:1043C0007F43936200232B70F8BD1620B3E79B6AEE
:1043D0009A04F2D523685B0703D00C4902481BF00E
:1043E00026FC1C20E9E700BF3C080020F70504007C
:1043F00000ED00E00D0604001E0604003106040076
:104400004A0604005F0604007A06040092060400CF
:1044100010B52D4C23685A0703D02C4920461BF0B9
:1044200006FC2B4B9B6A9B014BD52368580703D096
:10443000284925481BF0FBFB1E20254B9B6AD90110
:1044400007D523685A0703D023491F481BF0EFFB09
:104450001F201F4B9B6A1B0307D52368580703D0F7
:104460001E4919481BF0E3FB2120194B9B6A590395
:1044700007D523685A0703D0194913481BF0D7FB07
:104480002220134B9B6A9B0307D52368590703D04F
:1044900014490D481BF0CBFB23200D4B9B6ADA031C
:1044A00007D523685B0703D00F4907481BF0BFFB04
:1044B0002420074A936A6FEA03436FEA1343936227
:1044C00010BD1D20B9E700BF3C080020C106040054
:1044D00000ED00E0D9060400EC0604000607040025
:1044E0002407040049070400630704002DE9F0478E
:1044F000454D2B68894659078046174603D04349E6
:1045000028461BF094FB424B9B6ADA0639D52B6890
:104510005B0703D03F493C481BF089FB11243C4B0F
:104520009B6A1E0707D52B68580703D03A493648BF
:104530001BF07DFB1224DFF8D8A0DAF828309907A9
:1045400021D52B685A0703D034492F481BF06FFB45
:10455000DAF83460DAF828301B0651D52B685C078E
:1045600005D02F4A2848334601211AF0F5F8B9F151
:10457000000F04D0264A936A23F080039362132429
:1045800003E01024CBE76FF01506214B9B6AD80798
:1045900007D52B68590703D022491B481BF047FB5E
:1045A00014241B4B9B6A9A0607D52B685B0703D024
:1045B0001D4915481BF03BFB1524154B9A6AD5067F
:1045C00002D49A6A90070AD55B68190507D5414657
:1045D000304600F099FA10B180F3098802240C4BA0
:1045E0009A6A920642BF5A6A22F400525A629A6A42
:1045F00042F0FF029A6200233B702046BDE8F0873C
:104600006FF01506BBE700BF3C0800208E070400D2
:1046100000ED00E0A40704001E060400D707040014
:10462000EF07040005080400920604002DE9F0419C
:10463000744B8AB0D3F8048000AF0446C8F3080670
:10464000002585F31188BFF36F8F02F07F43B3F12C
:104650007F4F0AD102F00C03082B15D16A4803687A
:10466000590702D069491BF0E2FA00252C460023C5
:10467000FB71F31E092B00F29F80DFE803F00A9123
:10468000948D9D9D9D9D9D9712074CBF0C460125C5
:10469000EDE75D4E33685B0703D05D4930461BF0A4
:1046A000C6FA0023FB71574BDA6A900708D53368C6
:1046B000590703D0574954481BF0B9FA00233CE08E
:1046C000DA6A002A04DA33685A07F7D05249F2E767
:1046D000DB6A5B00F2D53368580703D04F494A487C
:1046E0001BF0A5FA474BA1695A6942F480725A61DE
:1046F000BFF34F8FBFF36F8F5A6931F8021C22F45A
:1047000080725A61BFF34F8FBFF36F8F4DF6027205
:10471000914208D09A6AD2B28AB3FA1D012120468A
:10472000FFF7E4FE3AE03368590705D023683C4AB6
:10473000354801211AF010F82368FA79DAB907F13F
:10474000080604F1200C20686168324603C2083470
:1047500064451646F7D17A6A002D4DD0C2F30801A0
:1047600021B96FEA52226FEA42227A6207F1080108
:104770001846FFF721FD2837BD46BDE8F0819A6A4B
:1047800012F47F4F04D0F91D0120FFF7BDFD05E0B5
:104790009B6AB3F5803F91D3FFF73AFE0346CCE71F
:1047A000FA1D0021BBE7F91D0020EEE7164803685B
:1047B0005A0783D01B497FE7134803685B073FF420
:1047C0007DAF194A194B18F4F87FE8468AB018BF34
:1047D00013466A461649C2E905134FF40073138461
:1047E000103E144BD66142F8103F00234FF4115194
:1047F000FDF726F8C54661E722F4FF7222F00102B8
:10480000B3E700BF00ED00E03C08002052080400C0
:104810007D08040094080400B5080400C3080400DF
:10482000E2080400FE08040039080400240804001B
:104830002209040004000001044B5A6942F01002EE
:104840005A615A6922F008025A61704700ED00E08F
:10485000EFF30880EFF3098101B57246FFF7E6FE3A
:1048600001BD00BF002080F31488BFF36F8F134891
:1048700080F3088802F00CFB002011490860BFF3A8
:104880004F8F00F033F8202080F311880D484FF04F
:10489000AA014FF4046232F01DFA0A484FF4046191
:1048A000401880F30988EFF314800221084380F355
:1048B0001488BFF36F8F00F0EFF8000040FF002076
:1048C00094ED00E080E500200749D1F89020002316
:1048D000C2F307221846934200DB7047C1F89830B4
:1048E000C1F8A0000133F6E700ED00E008B572B6AC
:1048F000002383F31388FFF7E7FF144B4FF0FF32D9
:10490000C3F88020C3F88420C3F88820C3F88C2023
:10491000C3F89020C3F89420C3F89820C3F89C20D3
:10492000C3F88021C3F88421C3F88821C3F88C21FF
:10493000C3F89021C3F89421C3F89821C3F89C21AF
:1049400062B6BFF34F8FBFF36F8F08BD00E100E089
:10495000084B9B6883420BD1EFF3058343B1064BB1
:104960005A6842F080525A605A6A22F400425A62EF
:1049700017F0B4BC54D7002000ED00E016498A6857
:104980004FF030001044EFF3098C80E8F01F202036
:1049900080F31288BFF36F8F104F4FF000664A69A3
:1049A0008A603E604FF0A804141920680C4C206007
:1049B000D2F8AC000023C2F8AC3080F3118804B503
:1049C000104600F009F9BDE8044002F1300090E81B
:1049D000F01F8CF30988704754D7002004ED00E0E5
:1049E000785D00201EF0040F0CBFEFF30880EFF39A
:1049F0000980816911F8021C0229FFD001B57246B5
:104A00001BF00AF901BD00BF40B2002807DB044AD1
:104A10004109012300F01F00834042F82130704714
:104A200000E100E040B200280CDB4309064900F039
:104A30001F0020330122824041F82320BFF34F8F13
:104A4000BFF36F8F704700BF00E100E0054B4209E4
:104A500000F01F0053F82220012303FA00F0104059
:104A6000704700BF00E100E040B20028A8BF00F19D
:104A7000604001F10101B8BF064B4FEA4111ACBFE4
:104A800000F5614000F00F00C9B2B4BF195480F8BE
:104A90000013704714ED00E00B4A08B50B4B22F0F1
:104AA0007F029A60BFF34F8FBFF36F8FD3F88820D8
:104AB00022F47002C3F8882016F052FE17F074FD3D
:104AC00000F060F816F094FE0000000000ED00E039
:104AD00042F8203C009B42F81C3C0A49019B42F8EA
:104AE000183C029B42F8143C21F001014FF0807306
:104AF00042F8043C42F8081C0023203A0265C0F842
:104B0000AC307047B50E00000A4A0346906878B191
:104B100013F1160FD0F8980005D0A0F140029A4288
:104B200005D8834203D2814228BF0020704700206D
:104B3000704700BF54D7002008B515460A4A0B4BF2
:104B40009060D0F8A8201A600E4600F045F82C4678
:104B500086F309880020064B984720460021002252
:104B60000023044C204700BF54D70020785D00206C
:104B70003FFC0100B50E0000014B10221A61704786
:104B800000ED00E0044800232021C2180133302B3F
:104B900082F80013F9D1704700E100E008B5EFF3A7
:104BA0000583064A103B02EBC30152F83300496803
:104BB0008847BDE80840FFF793BB00BF9C76030021
:104BC000024B034A0348012100F092B80000042080
:104BD0000000002070900300D0F89820054B403A68
:104BE0001A60054A4021C3E901121846012100F06C
:104BF00089B800BF7C5D002000000B1508B5034696
:104C00001148D0F89020C2F30722013A93420AD902
:104C10000E480268520703D00D4A012119F09CFD8D
:104C20006FF0150008BDC0F898300A6822F01F0226
:104C30001A4342F01002C0F89C208A6842F0010238
:104C4000C0F8A0201846EDE700ED00E0380800208D
:104C500039090400F0B50E4685B01F46044600250C
:104C6000B54210DA606828B3AFB1431E18420DD0C8
:104C7000124803685B0704D0114A2B46012119F042
:104C80006BFD6FF01502104605B0F0BD1F28EFD97F
:104C900021680B42ECD1236801931AF0F3FFA3685B
:104CA00001A90343D0B20393FFF7A8FF10F1160F39
:104CB000E7D0421C01350C34D2E700BF3808002091
:104CC0005F090400044B0522C3F89420BFF34F8F03
:104CD000BFF36F8F704700BF00ED00E0BFF35F8F41
:104CE000024B0022C3F89420704700BF00ED00E0A3
:104CF00010B5034C01232278FFF7ACFF207010BDE4
:104D00009FD9002008B50B4A00231278FFF7A2FFB5
:104D100010F1160F07D0084A0021D2F89030C3F3E3
:104D20000723984200DB08BDC2F89800C2F8A01023
:104D30000130F2E79FD9002000ED00E02DE9F043BB
:104D400057485849D0F890300D68C3F307239D4267
:104D500085B000F2A180FFF7C1FF496800229542AB
:104D600001F10C011AD1504C504F25706846FDF7E7
:104D7000B5F8DFF83C81DFF83C9106460025AE42ED
:104D80001FD1237846490020D1F89020C2F3072292
:104D900093427BDBFFF796FF00204CE0C0F89820A1
:104DA00051F80C3C23F01F03134343F01003C0F8E9
:104DB0009C3051F8043C43F00103C0F8A0300132AC
:104DC000CDE7009800EB05114FEA051CCB683B408E
:104DD000B3F5000F44D00AD8B3F5001F2ED0B3F5B9
:104DE000800F34D0B3F5801F10D00135C7E7B3F181
:104DF000807F3ED0B3F1007FF7D150F80C30886847
:104E00004A681AF03FFF40F4802009E050F80C3067
:104E100088684A681AF036FF40F0885040F4302025
:104E2000039001A92078CDE90123FFF7E7FE0028D0
:104E300028DA6FF0150005B0BDE8F08350F80C30AB
:104E400088684A681AF01EFF40EA0800E8E750F850
:104E50000C3088684A681AF015FF40EA0900DFE75D
:104E600050F80C3088684A681AF00CFF40F08270E5
:104E7000D6E750F80C3088684A681AF003FF40F013
:104E80008870CDE7237801332370AEE7C1F89830FE
:104E9000C1F8A000013377E74FF0FF30CBE700BF48
:104EA00000ED00E07C9003009FD900200000F0FF9F
:104EB0000000081100000207F0B587B007460E4653
:104EC00014460021102268461D4632F078FA02236B
:104ED0008DF802302A46054B019321466846CDE9FC
:104EE000047618F081F907B0F0BD00BFA5FC010001
:104EF00008B5024B1B689847002008BD885D00205C
:104F0000034B044A1860937843F002039370704790
:104F1000885D00202805002008B50649064821F0D4
:104F20000701C1F1005202F5802218F0B1FE002005
:104F300008BD00BFC70501208C5D002008B500F04A
:104F4000B7F80A4941610A490122C0E900220A6012
:104F500008490A60084A00231360084A0361136085
:104F6000C0E90233064A136008BD00BF94F703008E
:104F70005405002050050020A05D00209C5D00200D
:104F8000985D00202DE9F04107460E46154600F0D9
:104F90008FF8C36804461BB943691A78002A41D1C7
:104FA0000023E3606368BB4256F8232008DB324BE2
:104FB0006361204600F062F84FF0FF30BDE8F081F9
:104FC000511C616192F80080B8F12D0FEFD1911C56
:104FD00061615178A1602D2904D192786AB90133B9
:104FE0006360E4E749B9244B63614146284632F0E7
:104FF000FEF90028DDD0C4F80880D4F808802846DF
:10500000414632F0F4F9B8F13A0F636900D070B953
:105010001B7813B9636801336360204600F02EF8F3
:105020003F20CBE75A1C42611B788360E5E742785A
:105030003A2A0BD0002222611B7813B9636801332E
:105040006360204600F01AF8A068B7E71878626835
:10505000094928B901329742626004DD56F82230CE
:10506000C4E90431EAE761612D783A2D2046D5D1B3
:1050700000F004F82846A1E794F70300074B026804
:105080001A60074B42681A60064B82681A60064B2A
:10509000C2681A60054B02691A6070475405002007
:1050A00050050020A05D00209C5D0020985D002040
:1050B00000487047380500200E4A0123C2F84035E9
:1050C0004FF080424FF08051C2F87835D1F830016E
:1050D000082808D1D1F83411052904D80648415CC4
:1050E00009B1C2F838364FF080430122C3F8802559
:1050F0000020704700E001409809040020B1034BF4
:10510000800143F001031847704700BF007B030094
:10511000084B70B5C31A0D4607499B100446594306
:10512000064840221AF0FBFE2B4601462046BDE809
:1051300070401847B85D0020B76DDBB6F47503000A
:1051400073B50C4C0C4A4023041B00930D460B46D0
:105150000A49A4106143064609481AF00BFF011ED4
:1051600005DA30462B4602B0BDE87040184702B061
:1051700070BD00BFB85D0020DDFF0100B76DDBB67C
:10518000F475030010B5EFF31184202383F3128824
:10519000BFF36F8F074A136823F00201DB0711602A
:1051A00002D401201BF070FA84F31188BFF36F8FD3
:1051B00010BD00BF085E0020002270B5012104462A
:1051C0001046FFF751FC0F4801F0ECFF0E4B9842E0
:1051D00015D101F0F7FF26690C49304619F0C5F8E2
:1051E00000280BDB012535642469084904F11C0003
:1051F00019F0BBF8002801DBE564002070BD6FF0FA
:105200000400FBE7115300000000AD0B9C9003006D
:105210007FB500220123CDE9022304ABCDE904339D
:10522000094ACDF800D06B46CDF804D01AF0CFFE75
:10523000002805DB4FF480420023684616F084FC0A
:1052400007B05DF804FB00BFFBFF010030B4104B5A
:105250000C2202FB003301460020D3E90E52986372
:10526000EFF31180202484F31288BFF36F8F1C6C3E
:1052700004F0C00444F002041C6480F31188BFF3FE
:105280006F8F1DB12B46034830BC184730BC7047A8
:10529000B85D0020F475030010B4EFF311822023F1
:1052A00083F31288BFF36F8F1748016841F002043F
:1052B0000460C80707D482F31188BFF36F8F012001
:1052C00010BC01F091BF4FF08041D1F80C04D1F82F
:1052D0000C14C907EFD5EFF3118083F31288BFF3E5
:1052E0006F8F0A490B6C03F0C00343F002030B6499
:1052F00080F31188BFF36F8F82F31188BFF36F8F34
:10530000002010BCFFF7A2BF085E0020B85D00209F
:1053100010B1012804D07047034B1B6C5B0701D10F
:10532000FFF794BF704700BFB85D00202DE9F04142
:105330003849BFF35B8F0746012251E8003F41E83F
:1053400000200028F9D1BFF35B8F33B932493348CD
:105350004B60CB608A6019F01BF87B1E012B2BD8A9
:10536000012F07D14FF08043D3F81C3403F003031F
:10537000012B21D031F03DFD0546F8B9284B1B78B3
:10538000E3B14FF080430222C3F808230646DFF85A
:1053900094804FF08044D4F81824D4F81834D20301
:1053A00015D503F00303012B01D0012F0FD155B305
:1053B00086F31188BFF36F8FBDE8F081EFF311869C
:1053C000202383F31288BFF36F8F0125DFE7ADB190
:1053D00030461AF048FCD4F81835002BDBD1D4F84D
:1053E0000421002AD7D0C4F80431D4F804310123B1
:1053F000C4F81835C8F88031A360CCE7002121201B
:1054000031F0A9FDE7E74FF080430222C3F80423FF
:10541000D2E700BFB45D0020A45D0020D45D002071
:10542000D3D9002000E100E008B5074831F027FC9F
:1054300038B10648FFF764FD0448FBF735FD00204E
:1054400008BD6FF01200FBE73C76030051540000EA
:105450000A2838B5074D044604D1AB680D215B68B6
:1054600028469847AB6803485B68E1B298472046F6
:1054700038BD00BF3C760300F0B54068057B01F005
:105480001F0444EA4514056987B0002D64D0B2F5C5
:10549000001F00F1100506D1214628461BF085F9B2
:1054A000002007B0F0BD01AE0027B2F5800F0197D4
:1054B000776039D1B3F1007F14BF052304238DF841
:1054C00004300023CDE904630393836823FA01F1D8
:1054D00011F001011AD1B2F1A07F17D104F01F031E
:1054E000620903F5E0732AD0012A3BD11F4A52F822
:1054F0002330DB070AD40DF1030632462146284645
:1055000002F05AF91A4B98421CD0029603AA21467F
:10551000284602F013F8174B984220D10122214669
:10552000284602F0ADF9BBE7B3F1C06F05D0B3F187
:10553000007F14BF01230223C1E70323BFE74FF01D
:10554000A042D4E73146284602F094F9094B98422C
:10555000DBD06FF00B00A4E76FF08500A1E76FF0E0
:1055600015009EE751F82330FFDE00BF0003005016
:105570000400AD0B0000AD0B38B545682B69B3B125
:105580001035284602F066F9044680B901462846DF
:1055900002F02CF9084B98420BD1084922462846C4
:1055A00002F004F9224605210620FFF75DFA0020EB
:1055B00038BD6FF00400FBE70000AD0BC1550000E3
:1055C000420970B5034602D0012A17D070BD0D4EB6
:1055D000326951680029F9D003F01F0301250C68D6
:1055E0009D400029F2D08A682A4002D04B6830469C
:1055F00098472CB1236821461C46F2E7024EE7E7A4
:105600002346F8E7247603000C7603002DE9F043E7
:10561000466840F20635D006337B87B002EA0505BE
:1056200054BFC2F34010032001F01F07B5F5837F7C
:10563000144647EA43178DF8030045D00FD8062DCE
:1056400018D007D8B5B1022D40D06FF0150007B0C3
:10565000BDE8F083B5F5807FF7D101250AE040F27F
:105660000222954234D0B5F5407F33D0B5F5007FA6
:10567000EBD102250123220303FA01F12CD5736833
:10568000C3F80815326982BB07F01F037F0929D0D0
:10569000012F77D13E4A02EB830284F48033D2F8A3
:1056A0000017C3F30043C4F3404444EA430421F425
:1056B000E16144EA800421F0070144EA05230B4339
:1056C000C2F800370020C2E70725D3E70425D1E759
:1056D0000525CFE70325CDE7630344BF7368C3F80F
:1056E0000C15CFE74FF0A042D5E710360DF10202BE
:1056F0003946304602F060F814F4403F80460CD141
:10570000394630461BF04FF8224B9845DAD19DF8C8
:105710000210304602F0A8F8D4E701AB4FF00009C0
:1057200003AA39463046CDE90439CDE90199CDF8CF
:105730000C9001F003FF174B984286D114F400330C
:1057400015D09DF803308DF80E3084F48034C4F306
:1057500000444B4603AA394630468DF80C508DF86C
:105760000D4001F0A5FF0B4B9842CDD06DE7CDE980
:10577000043303AA0DF1030339463046039301F0C5
:10578000DDFEF0E703F5E07352F82330FFDE00BFE3
:10579000000300500000AD0B036803F01F025B091B
:1057A000026004D0012B034818BF002070474FF05F
:1057B000A0407047000300502DE9F04FDFF89491AE
:1057C000DFF894A185B01546834600EB810140F2D5
:1057D000FF18594503D1002005B0BDE8F08FDBF874
:1057E00000305E04C3F3C322C3F3080400F1AC80AD
:1057F0001B0E19F80270444508BF4FF0FF34222BEE
:1058000000F2A580DFE803F012191F22252B22A346
:10581000A3A3A33B68A3A3A3A3A3A3A3A3A36B8155
:105820008487A3A3A38A9194979A9D00C5F80C45F9
:10583000601C5ED10BF1040BCBE7C5F81445621C6C
:10584000F8D000265FE0C5F80845F1E7C5F8104537
:10585000F5E7631CC5F80845ECD0002604E0661C9B
:10586000C5F80C45E6D0012603A80394FFF794FF82
:10587000039B012202FA03F3C0F80C3508E0C5F8D7
:105880000845002FDBD1631CD4D000263246062702
:10589000DBF80030019303F40040002818BF002219
:1058A00003A8009218BF01260394FFF775FF039C1D
:1058B000019B009A00EB8400C3F3412CD0F8004711
:1058C0003B0243EA8C03134304EA0A04234343EAFA
:1058D0004603C0F80037ADE7C5F80C45D1E7C5F879
:1058E0006045601CDBF80030A4D0C3F30043002BFC
:1058F000B9D003A80394FFF74FFF039B012606FAD4
:1059000003F3C0F808353246C2E7C5F86445E8E756
:10591000C5F86845E5E7C5F86C45E2E7C5F82445F4
:10592000621C87D000220126B2E7C5F828457FE730
:10593000C5F83045F4E7C5F83445F1E7C5F8384512
:10594000EEE7C5F83C4573E76FF0150044E76FF0EC
:10595000850041E7F9090400F0F8FCFF2DE9F0416A
:10596000044647680D4631F044FA4FF0200888B9E4
:10597000264B1B7873B1642660681AF04DFCF0B9B1
:1059800001201AF073FE013EF6D10021212031F0F2
:10599000E2FAF0E7EFF31186314688F31288BFF39D
:1059A0006F8F60681AF038FCA8B986F31188BFF3CE
:1059B0006F8FEFE786F31188BFF36F8FE5E7EFF3A3
:1059C0001186314688F31288BFF36F8F60681AF032
:1059D00023FC0028EED0BB691D706368BA691B68A0
:1059E0000020C3F844250122C3F84825C3F820014C
:1059F000D3F82041C3F85801D3F858019A6081F3D5
:105A00001188BFF36F8FBDE8F08100BFD3D90020AC
:105A1000F7B50546002201210220FFF725F80220F4
:105A2000FEF7F2FF6A6811681369C1F82435137D27
:105A3000507D927D03431343C1F86C356E68D6E9FF
:105A4000004313F0010353D02F6907F10C001AF043
:105A500019FE344B98420BD0334803685B0703D0E0
:105A6000324A012118F06FFE6FF0040003B0F0BD60
:105A7000387B04F10C0204F590711AF0F9FD387BC3
:105A8000012707FA00F001F025FB0823C4F80035D0
:105A9000B369C4F844350023C4F84835A760D4F886
:105AA0005831002BFBD00021C4F800156B68DC686E
:105AB00001AA20461AF0F9FA002805DB019B2268AA
:105AC00019791868FFF778FE6A6813680821C3F827
:105AD0000015117A51B9D269C3F834250122C3F8EF
