:020000040000FA
:1000000040BB0020B9470000FFC90000A547000021
:10001000A5470000A5470000A5470000000000001C
:10002000000000000000000000000000394900004E
:10003000A547000000000000D1480000A5470000CF
:10004000F14A0000F14A0000F14A0000F14A0000C4
:10005000F14A0000F14A0000F14A0000F14A0000B4
:10006000F14A0000F14A0000F14A0000F14A0000A4
:10007000F14A0000F14A0000F14A0000F14A000094
:10008000F14A0000F14A0000F14A0000F14A000084
:10009000F14A0000F14A0000F14A0000F14A000074
:1000A000F14A0000F14A0000F14A0000F14A000064
:1000B000F14A0000F14A0000F14A0000F14A000054
:1000C000F14A0000F14A0000F14A0000F14A000044
:1000D000F14A0000F14A0000F14A0000F14A000034
:1000E000F14A0000F14A0000F14A0000F14A000024
:1000F000F14A0000F14A0000F14A0000F14A000014
:100100007BB972B90029BEBF00204FF0004106E064
:1001100008BF00281CBF6FF000414FF0FF3000F017
:1001200057B8ADF1080C6DE904CE002909DB002BAE
:100130001ADB00F069F8DDF804E0DDE9022304B021
:100140007047404261EB4101002B1BDB00F05CF883
:10015000DDF804E0DDE9022304B0404261EB410137
:10016000524263EB43037047524263EB430300F098
:100170004BF8DDF804E0DDE9022304B0404261EB16
:1001800041017047524263EB430300F03DF8DDF854
:1001900004E0DDE9022304B0524263EB43037047FD
:1001A00053B94AB9002908BF00281CBF4FF0FF31DE
:1001B0004FF0FF3000F00CB8ADF1080C6DE904CE43
:1001C00000F022F8DDF804E0DDE9022304B0704716
:1001D000704700BF10F8012B11F8013B012A28BF1E
:1001E0009A42F7D0D01A7047034611F8012B03F852
:1001F000012B002AF9D17047034613F8012B002A7E
:10020000FBD1181A013870472DE9F04786468C4615
:100210000846089E154674461946002B40F0C280D9
:100220008542B2FA82F245D94AB1C2F1200300FAFE
:1002300002FC2EFA03F3954043EA0C0C94404FEA7B
:10024000154EA8B2BCFBFEF8230C0EFB18CC08FB25
:1002500000F943EA0C43994528D9EB1808F1FF3718
:1002600004D2994502D9A8F102072B44A3EB090354
:10027000A4B2B3FBFEFC0EFB1C330CFB00F044EA03
:100280000344A04214D92C190CF1FF3304D2A0422C
:1002900002D9ACF102032C44241A43EA07401EB1F0
:1002A000D440002334607360BDE8F0874746DDE743
:1002B0006346F1E792BB431B01214FEA154EAFB2F3
:1002C000B3FBFEFC200C0EFB1C330CFB07F840EAD2
:1002D0000343984562D9EB180CF1FF3004D29845DE
:1002E00002D9ACF102002B44A3EB0803A4B2B3FB88
:1002F000FEFC0EFB1C330CFB07F744EA0344A74249
:100300004ED92C190CF1FF3304D2A74202D9ACF11B
:1003100002032C44E41B43EA0040C0E7C2F120037F
:1003200020FA03F1954090402EFA03F303434FEA7D
:10033000154EAFB2B1FBFEFC0EFB1C10190C0CFBF2
:1003400007F841EA0041884504FA02F422D9691805
:100350000CF1FF3004D2884502D9ACF102002944E7
:10036000A1EB08019BB2B1FBFEFC0EFB1C110CFBC8
:1003700007F743EA01439F420ED9EB180CF1FF3116
:1003800004D29F4202D9ACF102012B44DB1B41EAAB
:10039000004192E76046E3E76146F7E76046A3E77E
:1003A0006346B7E7834206D916B9002108467BE7C2
:1003B000C6E900E0F9E7B3FA83F78FB9834201D3C6
:1003C000724508D8BEEB020460EB030301209C4693
:1003D0001EB9002168E73846FAE7C6E9004CF8E79D
:1003E000C7F1200CBB4022FA0CF41C432EFA0CF18E
:1003F00020FA0CF3B84001434FEA14490EFA07F50E
:10040000B3FBF9F81FFA84FE09FB18300B0C08FB4C
:100410000EFA43EA00439A4502FA07F240D9E3187C
:1004200008F1FF3004D29A4502D9A8F10200234412
:10043000A3EB0A0389B2B3FBF9F809FB183308FBF5
:100440000EFE41EA03418E452CD9611808F1FF33B5
:1004500004D28E4502D9A8F10203214443EA0040A8
:10046000A0FB0298A1EB0E014145CE46434602D3C4
:1004700006D14D4504D2B9EB020E68EB04030138F6
:10048000002EA6D0B5EB0E0261EB030101FA0CFCC5
:1004900022FA07F34CEA0303F940C6E9003198E772
:1004A0004046C5E74346D9E72DE9F047064688B000
:1004B0000F4690460DF0A8FC4FF47A73A0FB03455D
:1004C00003FB0155E40B012F44EA45444FEAD535BF
:1004D00007D1294922462B4630460BF04AFA002024
:1004E00012E0D8F8047025483946FFF773FE70B162
:1004F00023483946FFF76EFE48B1304621493A4657
:100500000BF053FA6FF0040008B0BDE8F087204606
:10051000294617A3D3E90023FFF7F2FD05460C4651
:1005200010461946184A0023FFF7EAFD80460F4699
:10053000104619464EF660220023FFF7E1FD824681
:100540008946104619464FF47A720023FFF7D8FD0A
:10055000CDE902A9CDE90623CDE90401CDE9008763
:100560000A492A46234630460BF003FAB7E700BF94
:10057000005C26050000000075F2000086F2000015
:1005800089F2000092F2000080EE3600AAF200002C
:100590002DE9F74F384808F0D3F8002869DB3648D2
:1005A000364E0DF081F943F69822FF2133480DF0C5
:1005B000DDFD334843F69822FF210DF0D7FD3225AB
:1005C0004FF496744FF4C8772B4622466421CDE948
:1005D000007430460DF009FA631B22466421CDE910
:1005E000007430460DF001FA3222A918FA23CDE941
:1005F000007430460DF0D3F9C5F5AF71CDE9007444
:10060000FA233222304601350DF0C9F94B2DD7D1EE
:1006100032270026B14664254FF4C87A19F0010F3D
:1006200010D1B84605F1130B4346CDE900A4134899
:100630005A4629460DF0D9F908F1010807F11403CB
:100640009845F1D11435B5F5967F09F10109E5D149
:1006500001360A2E07F11407DCD1094A074906487A
:100660000DF054F904480DF03FF903480DF0CBF8B4
:10067000002003B0BDE8F08F68E8000014420020BD
:100680007C0700202DE9F04F91B08407009302F021
:1006900004030293C2F3C20303F10103DDF868808F
:1006A000039205460E46059340F0BA81041D30B111
:1006B000072909D86FF01B0011B0BDE8F08F01F0D9
:1006C00007063444C6F10806009B4FF00009591E86
:1006D0004FF0040A4FF0FF330193CDF810904F46CE
:1006E000CB4653460DB1009A22600598002800F3CE
:1006F000E8809848009A824203D397488242C0F02B
:10070000E080039AA4EB050E92074FEA9E0000F1E9
:1007100003810F2F00F2B180002D00F0058107F159
:1007200040020DEB020C019A0CF8200C0CF8102C76
:10073000049801300490E7E07A285DD84B280ED861
:10074000472859D829282DD8252852D054D82028D0
:100750007AD02338D0F1000B4BEB000B74E04C380F
:100760002E2849D8DFE800F07048484848484848F3
:10077000484848484B484848484848484859484BE2
:100780004B595959704B6D487048184B184848825E
:100790007F4B48484B487F0000204FF0000B4FF044
:1007A000040A38E02A38C0B2012202FA00F010EA46
:1007B0000E0F49D110F0625C2FD110EA020B43D02A
:1007C0006046013C5444B4FBFAF40AFB04F4002DE7
:1007D00061D0A3EB050CA444B4453FF66BAF0028F1
:1007E00068D1042B47D158F8043B23600434042318
:1007F0002AE0019A013A01924FF0000B24E011F82F
:10080000010C6C2834D111F8023C00206C2B83467B
:10081000C5D14FF0080A5346D3E708F1070828F07E
:1008200007080734F8E802AB24F0070435B106984E
:100830002044B0423FF63EAFC4E900AB08344FF06D
:10084000000B4FF0080A534611F8010F002878D02A
:10085000BBF1000F7FF470AF2528F5D1019B013368
:1008600001934FF0010B4FF0040AECE7584694E770
:1008700000208346A5E7082B02D06FF015001BE788
:1008800008F1070828F00708F8E80223C4E9002364
:1008900008340823D8E768B9042B02D108F104080A
:1008A000A4E7082BE9D108F1070828F0070808F1A8
:1008B0000808EDE7059A013A059258F8042B0092D2
:1008C00010E7039A900720D5A4EB050E4FEA9E008F
:1008D0004FF0010CBEF5007FCFD20F2FCDD8F5B170
:1008E00007F140020DEB020EC0B2019A0EF8200C87
:1008F0000EF8102CBCF1000F3FF41AAF60F07F002F
:100900000EF8200C09F101090137C5F10802043481
:1009100006924FF6DA7E97E74FF0000CDAE7BCF16B
:10092000000F01D00136EFE7029802360028EBD124
:100930000098CDE90631FFF75FFCDDE9063106449A
:10094000E2E7631BB3F5806F97D23DB9A6F10804C7
:10095000E018B1E610E300006C0B0100029A286079
:100960009B082B709DF81030C2B1EB7085F8029097
:10097000B9F1000F05D008A80022C5F1010C97427B
:100980000ED1C5F101030DF120084FF0000A0193CB
:100990000DF1300B574512D1601B8DE66B70E5E70A
:1009A00010F8013B190608D50CEB040EB64503F010
:1009B0007F033FF67FAE04F8013B0132DFE7B9F178
:1009C000000F03D098F90020002A17DB029BD3B157
:1009D0001AF80B2004F8012B0022019B181910446F
:1009E000B0423FF667AE98F8000004F8010B00999A
:1009F000039220460DF092FB039A14440AF1010A77
:100A000008F10108C6E798F8002055F82230009355
:100A1000029B45F822300098FFF7EEFB421CDCE712
:100A20006FF00D0048E600BF2DE9F04F97B000AF22
:100A300090F802A0D7F880B03B62CBF3C003044625
:100A4000FA62BB61894641B9457800780AEB8000BB
:100A500020444D4517D8A0EB0409E378FB61BAF1B7
:100A6000000F02D01BF0010F16D1FB6953BBFB6ACC
:100A70001BB13A6A4946204698474D4628465C379E
:100A8000BD46BDE8F08F461C3046FFF7B5FB013090
:100A9000304409F10109DCE7237862687A62FA6A76
:100AA0009900796104EB8301002A40F004814D46EE
:100AB0000E4601EB0A094FF000084E4550D101EBFC
:100AC0000A0610E01BF0020FD1D023789A007A6159
:100AD00062687A62FA6A04EB8301002A7BD14D4690
:100AE00001EB0A0690461BF0050F0CBF0223012301
:100AF000FB62FB6906EB430A0BF00203BB6256453F
:100B0000BCD016F8021B16F8013C54F823909B4BFE
:100B1000994502D39A4B99453AD3BB69002B44D0EF
:100B2000786A0AF02DF800283FD09648036813F041
:100B3000060F13D0E9468AB06A46934B53617B6A2D
:100B4000C2E906314FF400731384904B42F8103F12
:100B500000234FF4125100F01DFECD46023DCEE7BA
:100B600016F8013BF96254F82300FFF745FBD7F86C
:100B70008430F96A01304BB1D7F8883098453EBFD0
:100B8000D7F8843023F8180008F10108054494E7E9
:100B9000BB6923B1786A09F0F3FF0028C5D11BF0C7
:100BA000010F05D1FB6AED1AA9E7BB6A002BA6D09D
:100BB0004846FFF721FBD7F8843053B1D7F8883087
:100BC00098453FBFD7F88420431C22F8183008F11D
:100BD0000108054493E7BAF1000F72D01BF0040638
:100BE00072D0D046002607F1480052463B61B962F8
:100BF0000DF094FAB96A3B6901EB0A02BA62FA692C
:100C0000F9695200FA60BA6A02EB41023A610BF0EC
:100C10000202BA603A69B96A8A4257D162787A6246
:100C20001BF0020F32440CBF4FEA580100211BF0A9
:100C3000010FD2B240F09F801BF0040F14BF40465A
:100C40000020BB616270A070E1703A6A7969FB6A4A
:100C500020469847051EFFF611AFBB6923707B6ADB
:100C60006370FB69E37041463A6AFB6A84F802A04C
:100C700007F148009847B0F10008C0F2BB807B69DB
:100C80003A6AA9EB0A01C91AFB68C91AD7E90A032B
:100C900098470028C0F2B080A84408EB00054FF048
:100CA000000B07F1380AB34572D300213A6AFB6A98
:100CB00008469847E2E656464FF0000807F138002C
:100CC00093E75646D04697E7B04695E7BA6A12F8DA
:100CD000021BBA6212F8015C284A54F825009042BF
:100CE00002D3274A90421ED3BA6932B1786A7B6038
:100CF00009F046FF7B6800288CD1BA6802BB08F176
:100D0000280207F1300C08F10100944407F1580261
:100D100052FA80F008F102080CF8101C5FFA88F80B
:100D200000F8105C76E7BA693AB1786A7B6009F03E
:100D300027FF7B6800287FF46DAF1BF0010F09D0FF
:100D400006F1280207F13000711C161806F8205C25
:100D5000CEB25FE71BF0040F3FF45CAF08F128024E
:100D600007F1300008F1010102EB000808F8105CFF
:100D70005FFA81F84EE7002063E700BF10E3000050
:100D80006C0B0100FC7C002025F000000400000139
:100D90001BF80A3087F8373054F82390D7F884309E
:100DA0002BB3D7F888309B4521D2D7F8843033F85D
:100DB0001B803A6AFB6A012107F137009847002837
:100DC0001ADB0544B8F1000F06D14846FFF714FAC4
:100DD00000F101081FFA88F83A6AFB6A4146484662
:100DE0009847002808DB05440BF1010B5BE74FF047
:100DF0000008DEE7454641E605463FE6014B186040
:100E0000704700BFC004002080B505460E46174657
:100E1000984608F0A1FB03460DF070FADFF8189031
:100E2000044649F80030424630463946A84754F84F
:100E3000090003F037FD00BF080000002DE9F0476E
:100E4000058B04462807904611D4022905F00705B2
:100E500040F0CC8020460AF028F978B10138218B87
:100E6000042811D8DFE800F0C2106D859500012933
:100E70000CBF45F0100545F02005258388F3118847
:100E8000BFF36F8FBDE8F08701F0070AAA4500F0B5
:100E9000A5800027B9463E46A368002B00F0BC8021
:100EA00041F00801218388F31188BFF36F8FA16897
:100EB000002900F0BA800D68002900F0B680D1F852
:100EC0000480334652462046C047002D76D02B681A
:100ED00029461D46F0E701F007035A1F012A1BD8D7
:100EE000002221F00701062B276889B2C4E90022FD
:100EF00009D13B4603E0628B013262831B68002B01
:100F0000F9D141F00201218320460AF0CEF80028F1
:100F10007AD041F0200176E0042B0AD121F00701BC
:100F200089B2218320460AF0C0F810B141F02001B7
:100F30002183218B01F0070AAA454FD00027B9462B
:100F4000AAE7236921F0070141F00601062DD3F835
:100F5000009021832DD1B9F1000F3FD041F008015D
:100F6000218388F31188BFF36F8F3A492046C84721
:100F700029E021F00701236941F0040189B2042D21
:100F8000D3F804902183E6D000273E464FF0040AB0
:100F900082E721F00701236941F0050189B2052D9F
:100FA000D3F808902183D6D000273E464FF0050A9B
:100FB00072E700273E464FF0060A6DE72B4687E7AB
:100FC000B9F1000FD1D1EFF31188202383F31288F8
:100FD000BFF36F8F238B23F008032383258BEA064F
:100FE0002ED525F01003238305F007056669218BB4
:100FF000002EBFF670AF00232768C4E9003321F04C
:10100000070141F001012183218B01F0070AAA4564
:101010004FF000097FF440AF002F9CD041F0080151
:10102000218388F31188BFF36F8F002FC8D03D68EC
:1010300039463346524620460AF063F82F46F4E715
:10104000AB067FF51BAF25F02003238305F00705D2
:1010500000E700BF2FB100002DE9F047DFF858800E
:10106000044607464FF0010914B93846BDE8F08739
:1010700094FAA4F5B5FA85F509FA05F32E0108EB03
:1010800005156FEA030A24EA03042B7B002BEBD03F
:1010900058F806301B694BB9464404227368284649
:1010A000196807EA0A0700F035FBDDE7284698478C
:1010B0000028D9D1F0E700BFBCE6000030B51049E8
:1010C000104889B000220CF0A1FE0F4D0F490022FC
:1010D0000023CDE9062300240E23CDE90334CDE916
:1010E00001440B4B00944FF44072284607F09AFFDE
:1010F0000849284607F0C8FE204609B030BD00BFA9
:101100001911000060820020A07D002000960020C0
:1011100059140000D9F00000014807F025BE00BFB7
:10112000887D00202DE9F04780461F480F460AF0D1
:101130005FF90646002830D000252846BDE8F08734
:10114000237B6BB12368DB680BB12046984723688B
:101150001B69D3B9636804221968204600F0DAFAE3
:10116000013610344C45EBD3B8F1000FE5D0002D1B
:10117000E2D02846FFF770FF0546002FF7D0002188
:101180004FF4A4700CF0C6FDF1E720469847002804
:10119000E0D00AFA06F31D43E2E7044CDFF81090B2
:1011A00005464FF0010ADDE778890020BCE6000023
:1011B000DCE60000014B53F820007047B0E8000067
:1011C00008B5034608462BB1044A136000F084FDBD
:1011D000002008BD6FF01500FBE700BFC40400202D
:1011E00010B5044C237813B9034807F0BDFD012363
:1011F000237010BD74950020887D002010B5044632
:101200000B480AF0F5F85CB1BFF35B8F094B53E86C
:10121000001F013943E80012002AF8D1BFF35B8FA9
:1012200005480CF0FFFD0548BDE8104007F09CBDE7
:10123000708900207489002060820020887D002051
:101240000020064BBFF35B8F014653E8000F43E8D5
:101250000012002AF9D1BFF35B8F7047708900201C
:1012600070B5FFF7EDFF084C084E0546B44200D3B9
:1012700070BD63685B792BB123685B6813B1294645
:10128000204698471034F1E7BCE60000DCE6000099
:1012900010B5044C0449204609F0A0FD034B1C6026
:1012A00010BD00BFB87C00209CE8000068890020C9
:1012B000094A0A4808B500231370094A1360094A0D
:1012C0004FF400411360FFF77BFFFFF7E1FFBDE83C
:1012D000084000F06FB900BF75950020EDB3000025
:1012E00070890020748900200146002201480023F3
:1012F00009F095BDB87C0020014809F02EBE00BF62
:10130000B87C0020024B0146186809F07ABE00BF85
:1013100068890020014809F0AFBE00BFB87C0020FA
:101320002DE9F041354B1878002864D0FFF7E4FF31
:10133000044698B1BFF35B8F314B53E8001F01396E
:1013400043E80012002AF8D1BFF35B8F2D4DDFF880
:10135000B88045452DD32046FFF7D4FF2B4B2C4CAE
:101360001B68002B19DD0CF04FFD4FF47A72A0FBC7
:10137000020302FB0131C30BD4E9002043EA4143DD
:101380009B1A4FEAD13140F2E93261EB00019342FE
:1013900071F1000101D3FFF763FFD4E9003213F5C7
:1013A0007A7342F10002C4E90032BDE8F041FFF770
:1013B000B1BF6B685B793BB121784B0706D52B68D1
:1013C00021461B68284698471035C2E720462688E4
:1013D000C1F3C20700F0BEFAC6F382160246002E21
:1013E000EDD00028EBDB01233946284600F0ACF9AC
:1013F000B042E9D3E3E7BDE8F08100BF7495002077
:1014000074890020BCE60000DCE600007089002042
:101410005882002070B50D4D297861B90120FFF781
:1014200081FE0B4C0B4EB44206D3FFF779FF002828
:10143000FBD101232B7070BD63685B791BB12368FE
:1014400020469B6898471034EDE700BF7595002053
:10145000BCE60000DCE6000000212DE9F04708466C
:10146000FFF760FE044658B340F267684FF000098A
:101470000CF044FF1B4B1C4A1B58136033B11B4B31
:101480001B68092B02DD1A4807F06EFC194FDFF8C4
:1014900060A0002544B12046FFF7DEFD044618B9E0
:1014A0004FF0FF384FF0FF39FFF73AFF064628B9F3
:1014B000B5B942464B46504607F08AFC3546E9E747
:1014C0004FF0FF384FF0FF39D2E72B689B691BB113
:1014D00000221146284698471035BD42F5D3E8E76B
:1014E000054DFAE7080000006C890020748900208F
:1014F000887D0020DCE60000BCE6000013B518483B
:1015000009F076FF174B1B7873B1EFF3118420239A
:1015100083F31288BFF36F8FFFF702FF84F3118804
:10152000BFF36F8F02B010BD0F4B1B68002BF9D0BB
:1015300050B900220023CDE900230C484FF40042AB
:10154000002308F01BFBEDE70928EBD107480CF05E
:1015500069FC074802B0BDE8104007F005BC00BFB9
:1015600074890020759500206C890020608200201D
:10157000887D002010B5064B1B680446984721461D
:10158000A060044809F0CAFCBDE81040FFF7B6BFF0
:10159000C4040020B87C0020044A054B9B1AB1EB20
:1015A000D30F34BF52F831000020704744E60000EA
:1015B000BCE600000B480C4B30B51B1A0B4CDB088B
:1015C00000210430994200D130BD10F83120256847
:1015D00002F0070225F007052A4344F8042B0131E5
:1015E000F0E700BF44E60000BCE60000FC7C002001
:1015F000F8B50B4F0B4DED1B0646ED080024AC4231
:1016000003D14FF0FF342046F8BD57F8340020B125
:101610003146FEF7DFFD0028F5D00134EFE700BFCB
:1016200044E60000BCE6000000282DE9F0478846AB
:1016300015461F461DDADFF89890264E4FF0000A37
:10164000A6EB090636095446B24509F1100902D144
:101650002046BDE8F08759F80C0C3B4600792A4635
:101660004146FFF7E1FF844238BF04460AF1010A10
:10167000EAE7194B194AD21AB5EBD20F26D203EB7F
:10168000C5031C79BC4228BF3C46154EC0B200EBD6
:10169000400056F825300722824023EA020304F076
:1016A0000702824013430021032223FA02F000F0D4
:1016B0000700814202F1030238BF01461E2AF4D11D
:1016C00023F007030B4346F82530C1E70024DCE78D
:1016D000BCE60000DCE6000044E60000BCE60000DA
:1016E000FC7C0020F8B5094D094BED1A06460F4663
:1016F000ED080024AC4200D3F8BD002122B23B46E5
:101700003046013409F094FEA4B2F3E7BCE60000D1
:1017100044E6000038B50B4BC31A0D461B111146A9
:10172000426801331371436804469971FFF7DAFF89
:1017300063681D60636801225A71BDE83840FFF795
:101740004FBD00BFBCE6000070B14168097973B1BC
:10175000002A17DBCBB20C4951F8220003EB4303FC
:10176000D84000F0070070474FF0FF31EFE707491E
:101770000748401AB2EBD00F3ABF01EBC20108791B
:101780001846704704207047FC7C002044E60000A7
:10179000BCE600002DE9F04F8FB004AFC1F34A283A
:1017A000B8600D4691467B600C0DB8F1000F67D014
:1017B000002607F114034FF0040B4FF00A0AC7F894
:1017C0000C80C7E907667E620193CDF808B0CDF8BA
:1017D00000A007F11C03F96832464846FFF724F9D8
:1017E000B0F5006F034620D32A48036813F0060FB4
:1017F00017D06C468AB0D9F8041004AB264DC3E963
:10180000055140F2FF71D9611A464FF400711984F5
:10181000224B42F8103F4FF412513346FFF7BAFF04
:10182000A5462C37BD46BDE8F08FC0F30A0804F189
:101830001700184420F0070080083B60FFF754FDB4
:1018400068F35325044690B13B68154AC7E908364A
:1018500000F1100107F11403F961CDE900A3CDF8FF
:1018600008B0F96807F11C034846FFF7DDF868F394
:1018700053257B68B9682A46204609F003FED0E765
:1018800004F1170020F007008008FFF72DFD044643
:10189000EDE700BF0C7D0020EEF000000400000129
:1018A00059B400002DE9F04F87B0DDE91279DDE988
:1018B000105A0446039193469846DFB1CDF8009044
:1018C0003B46524610210020CDF81490FEF7DAFE78
:1018D000B0F5006F06460ED31C48036813F0060FE0
:1018E00030D01B4A40F2FF73022107B0BDE8F04F31
:1018F00009F021BE3E4605F11700304420F00700F4
:1019000004F007048008FFF7EFFC0BF0070BE4007E
:1019100044EA8B1444EA462444EA0554054640B19F
:101920003FB1CDF800903B46524631461030FEF7AD
:10193000A9FE039943462246284607B0BDE8F04F6A
:1019400009F0A0BD07B0BDE8F08F00BF0C7D0020FE
:101950002DF10000406820B1034BC01A40F38F0006
:1019600070474FF0FF307047FC7C00200EB403B589
:1019700003AB014653F8042B0448019303F046FAE5
:1019800002B05DF804EB03B0704700BF81B5000002
:10199000CA0605D48B064CBF02490349FFF7E6BFD0
:1019A000704700BFE8F4000065F100002DE9F04F3A
:1019B00089B09B46149B06939DF84CA0159B0593FC
:1019C000169B179E049304460D469046BAF1000FED
:1019D00000F09D8006F48073079309F027FD06F060
:1019E0000209024600283ED091492046FFF7BEFF7B
:1019F0000746B9F1000F08D016F0440F35D18D49D4
:101A00002A462046FFF7B2FF074406F0010353B110
:101A1000894B8A4953F82A20894B2046002A08BF5F
:101A20001A46FFF7A3FF06F48073002B49D006F097
:101A30000803002B63D1B8F1000F66D081494246FC
:101A40002046FFF793FF0546069B3D44002B6DD1D2
:101A5000049B002B73D1F30700F1E480314620464C
:101A6000FFF796FFD8E00746C3E7774B18680028D2
:101A7000CAD0764B4FF47A791B68B5FBF3F54FF477
:101A80006163B5FBF0F100FB115509FB05F54FF063
:101A90003C0CB1FBF3F203FB1211B5FBF0FEB1FB02
:101AA000FCF300FB1E550CFB131109FB05F500911F
:101AB000B5FBF0F56649CDE901E52046FFF756FF95
:101AC000A2E706F00803EBB1624B634953F82A2002
:101AD0002046FFF74BFF0546B8F1000F05D05949E6
:101AE00042462046FFF742FF0544BBF1000FABD052
:101AF0005A495A462046FFF739FF0544A4E74FF0FC
:101B0000000BE1E706F00805E6E745469CE7BBF178
:101B1000010F069B06D1002B64D1049B002B7BD0C8
:101B200000250CE0002BF8D04D485CE04D48069BAA
:101B30004D49224608F0F3FF049B002B68D0DFF8E4
:101B40002C81DFF82C91049F3146102F204628BFAE
:101B50001027FFF71DFF4FF0000B5D4545DC059B8F
:101B600049461A782046FFF701FF4FF0010B1BF0A2
:101B7000070F03D141462046FFF7F8FE5F453BD9EA
:101B8000059B494613F80B202046FFF7EFFE0BF1AB
:101B9000010BBBF1100FEAD1364920464FF0000B84
:101BA000FFF7E4FE5A46059B9A5CA2F120015F29EB
:101BB00028BF2E2230492046FFF7D8FE0BF1010B3B
:101BC000BBF1100F1DD01BF0070F03D1414620467B
:101BD000FFF7CCFE5F455A46E5D841462046FFF761
:101BE000C5FEEBE71F485546A1E741462046FFF7F3
:101BF000BDFE0BF1010BB0E720492046FFF7B6FE12
:101C0000C5E7059B3B440593049BDB1B04939AD1DA
:101C1000BAF1000F7FF41FAF204609B0BDE8F04FC6
:101C200009F0A1BC064A05492046FFF79FFE15E7CB
:101C30006DF1000071F10000C0E80000D1F5000076
:101C400068F1000096F10000808900207C89002066
:101C50007AF10000D4E800009AF10000A0F1000041
:101C6000B7B5000081B500000D4E0000ADF10000D9
:101C7000A5F10000AFF10000F6FB0000ABF10000A1
:101C800073B542F20F738B4228BF0B4605680F4AAB
:101C900004460521684608F073FB63680C495B68DD
:101CA00006460B22284609F050FC63683246694616
:101CB00028465B6809F049FC636806495B681B229B
:101CC000284609F042FC02B070BD00BF4E0301007F
:101CD000CDF10000B1F10000074A0021012390423C
:101CE00006D8064A01B901231360054B18607047F6
:101CF00040085B000121F2E740420F007C89002090
:101D000080890020014B01221A70704776950020CF
:101D1000014B002019607047988900200148FFF7A7
:101D2000AFBF00BF04E9000010B5064B18680C46B1
:101D3000FFF740FA21460346BDE8104002480F2253
:101D4000184700BF9889002004E90000F8B5094D44
:101D5000094B0A4ED5E9004701221A700CB92C60D4
:101D6000F8BD214630463A4600F01EF8241A0644D3
:101D7000F4E700BF8C89002077950020789500203B
:101D800010B9074B18707047064B1B781BB141F216
:101D900088300BF04EBEA42000210BF0BBBF00BF6B
:101DA00076950020779500202DE9F047DFF87890B0
:101DB0001E4F80460E46042499F80050A5B90BF03A
:101DC000A7FC324682464146284606F0B5FB05464A
:101DD00050460BF0A5FCE5B101233B7099F80030AB
:101DE00073B93046BDE8F08732464146002006F020
:101DF000A3FB0546EFE72046FFF7C2FF651E2C4612
:101E0000002006F0DDFB0028EBD03B78002BF2D160
:101E1000E7E73B78002BE4D0013C2046FFF7B0FF1A
:101E20003B78002BC8D1DCE7779500207695002021
:101E3000014B03600020704714E9000010B5044610
:101E40000BF0F3FA03490246204609F092FD002008
:101E500010BD00BF20F2000073B5134600220192AE
:101E6000044601AA58680A2101F0F0FB019D95B9CA
:101E700020EAE0744FF40046294640F2E7304FF480
:101E80007A720023C4FB0601FEF78AF90BF042FFC9
:101E9000284602B070BD2A460249204609F085FD59
:101EA000019DF5E74CF2000008B5034A034909F02B
:101EB00060FD002008BD00BF3CF3000043F30000BC
:101EC0002DE9F34117460023044601AAB86801939F
:101ED0000A2101F0BBFB019DC6B24DB12A4614494F
:101EE000204609F062FD019D284602B0BDE8F08160
:101EF000042E09D90F493246204609F056FD2046E6
:101F000009F08FFD0125EFE77868FFF771FBB0F16D
:101F1000000804DA7A680849204609F046FD0021E5
:101F200033460FFA88F2084609F082FADCE700BF70
:101F30006EF3000095F30000ACF3000010B504460A
:101F400004F02CFF07490246204609F012FD204606
:101F5000054909F00EFD0548214607F045FC002023
:101F600010BD00BF0BF400002AF40000711F000038
:101F700070B58EB004460D46D0F89C600BF01EFE86
:101F800003460CF0BBF9214A21491058214A002B85
:101F900018BF1A460092204A2346844218BF0A46B8
:101FA00028461E4909F0E5FCD4E90A23CDE90023BF
:101FB000284694F90E30227B194909F0DAFC06A96B
:101FC0002022204606F070FF636E1649024628461E
:101FD00009F0CFFC05A920460BF0FEFD024628B112
:101FE0001149284609F0C5FC0EB070BD059B64225E
:101FF000F11A4A430091B2FBF6F20C49CDE90162B5
:102000002846324609F0B5FCEEE700BF08000000A4
:10201000ADF1000034F400008D06010037F400003B
:1020200043F400006FF4000086F40000B3F40000F5
:10203000F0B5002591B00446294608AF1C2209A836
:102040000CF094F8134E1A22202138460CF08EF82A
:102050002146114807F0C8FB07AA4FF4006130463B
:102060000BF0AEFD079A0097C2F5006164234B4365
:10207000DB0A05934FF40063CDE90313CDE9013288
:10208000204606492B46A6F1400209F072FC28467C
:1020900011B0F0BDC0A10020A120000004F5000097
:1020A00070B50446D0F89C6088B00D4607A90BF0C7
:1020B00093FD024628B10F49284609F05AFC08B0A2
:1020C00070BD20460BF07AFD079B0096F11ACDE912
:1020D0000131094B64224A43002818BF0346B2FB72
:1020E000F6F20649CDE903622846224609F041FC92
:1020F000E5E700BF86F4000034F400004DF5000071
:102100002DE9F04F87B00446684606F04DFB009F6E
:10211000284ADFF8A4A0DFF8A4B0182303FB007757
:102120000821204609F018FC009DBD4203D3002081
:1021300007B0BDE8F08F2B680BB11A7832B92B4687
:102140001F4A142101A808F01BF901AB52460821CF
:10215000204609F001FC28460BF070FC194B1A4A86
:10216000002808BF5B460821204609F0F5FB6B6993
:10217000A3B11E6896B1336883B1144A0821204682
:1021800009F0EAFBB1464FF000083368104A4345B6
:1021900006D8104A0821204609F0DEFB1835C4E7AE
:1021A00059F8043F0821204609F0D6FB08F1010840
:1021B000EBE700BFC0F50000CFF50000B7F5000069
:1021C000CAF50000B1F5000055FC0000D4F5000090
:1021D000D0F50000E8F400002DE9F04114468846EF
:1021E000074610226068002108F0F6F8B8F1020FE7
:1021F000064607D8254A20230821384609F0ACFBBB
:10220000336816E00A220021A06808F0E5F8C5B29C
:102210001E4A2B460821384609F09EFBB8F1030FF1
:102220001AD1102D0CD0202DEAD0082D0BD13378E7
:10223000DBB2174A0821384609F08EFB002009E07E
:1022400033889BB2F5E73846124A082109F084FB2F
:102250006FF01500BDE8F081E0681022002108F061
:10226000BBF80D4A034604460821384609F074FBC2
:10227000102D06D0202D07D0082DE4D1E4B2347003
:10228000DCE7A4B23480D9E73460D7E715F6000064
:1022900040F600002AF6000051F600002DE9F04F4C
:1022A00087B000230193524BDFF848A191460122E9
:1022B000074688461A6002F0EBFD4FF0FF352026F6
:1022C0002C4649465246404602F006FE411C06D1C5
:1022D0006A1C41D14849384609F067FB17E073286A
:1022E0001AD0772828D0612811D1DFF810B101AABF
:1022F000DBF80000102101F0A9F9019B0546002B35
:10230000DFD0DBF800203E49384609F04EFB6FF085
:10231000150007B0BDE8F08FDFF8E0B001AADBF8E8
:102320000000002101F092F9019B0446002BC8D067
:10233000DBF800203349E7E7DFF8C0B001AADBF89B
:102340000000002101F082F9019B0646002BB8D065
:10235000DBF800202C49D7E7631C01D12B49BAE7F1
:102360005FFA86F8C6F3C406002C3FD002AB2946BC
:102370001A46A6EB050C0CE0B8F1100F1DD0B8F111
:10238000200F20D0B8F1080F2AD1087818703144F6
:102390003344A64203D80CEB01001028ECD9102CD2
:1023A000A14628BF4FF0100929464B46384601F098
:1023B00025F81035A4EB0904D6E7088880B2187018
:1023C000000A5870E3E7086818704FEA102E83F887
:1023D00001E04FEA104E000E83F802E0D870D6E715
:1023E0000B4A0821384609F0B7FA90E7204690E7F3
:1023F000500500209FF60000A6F600007092002015
:1024000065F6000078F600008BF60000C3F60000C9
:102410002AF6000070B50F4E044633780D4671B1B0
:1024200023B1BDE870400C4909F0BFBA01233370F5
:102430000A49204609F09DFA0123337004E083F035
:1024400001033370002BF3D129462046BDE87040CC
:1024500009F004BB88950020DDF6000018F70000A5
:1024600070B504463B480378182B02D10B78112B2A
:1024700031D0013A0B468D18AB4225D18B5C0A78DE
:102480000370A2F13003092B334C04D922F020034E
:10249000413B052B04D823683049CA5401332360DB
:1024A0002368022B33D110222C48002107F094FF1F
:1024B0002B4A136803F8010B13602A4A136801338F
:1024C00013600023236022E013F8016B182ED3D190
:1024D0001E78112ED0D1234D23492A68204609F0B9
:1024E00048FA20460021FFF795FF204B187870B975
:1024F0001F4A2B681168042B0ADC08B111602B609D
:1025000013F003010BD1126813681BBA136070BD7E
:10251000086800BA41F8040B043B0120EBE75B427A
:1025200003F0030358BF5942022904D112681388EB
:102530005BBA9BB2EAE70329E9D11068026811048B
:10254000C2F3074301F47F010B4302F47F421343BC
:102550000360DCE7899500209C8900208B95002092
:10256000A8890020A089002042F700008A95002059
:10257000A48900202DE9F84F0C462B49DFF8AC80E8
:10258000DFF8AC90DFF8ACB000230B602A4988F884
:10259000003006460B601546012C2F4655F804AF57
:1025A0001ED90222494650460BF005FE80B99AF822
:1025B0000220003A18BF01229244204902225046CC
:1025C0000BF0F9FD30B9012388F80030013CE3E756
:1025D0000022F1E749465046FDF7FCFDA8B9043753
:1025E00000221146786807F0F7FE154B00221146CD
:1025F0001860786807F0F0FE124B134918603046F7
:10260000FFF708FF0020BDE8F88F9AF800202D2A78
:10261000E6D19AF80120002AE2D0524659463046C7
:1026200009F0A7F9D2E700BF9C8900208A95002015
:102630005CF7000062F70000A08900205FF700004F
:10264000A8890020A48900206124000007B50A4859
:102650000BF0F4F960B1094A0749126808480423ED
:102660000093012300F030FF002003B05DF804FB6D
:102670006FF01200F9E700BFE0E30000BCE90000E2
:10268000DCE6000010B54468C4E90012A3604268AB
:102690004023D36402F15803136300230821C2E9E5
:1026A0000E33C2E91133C2E90633C2E90933D162FC
:1026B0001468536302F15001136411615361136292
:1026C000C2F8D030A36823B11B6C13B10449204673
:1026D0009847A3681B6A0BB120469847002010BD9D
:1026E000E52600002DE9F74304460D468368DB6BC1
:1026F00003B19847A368DB6A0BBB4FF0000905F1F3
:102700003008EA6C01A9404608F0B5FD07460028EC
:1027100036D0A36801991B693BB30246204698470F
:10272000064628B33146404608F0C4FDB7424FF094
:102730000109E6D0D5E901310020984703E02046A1
:1027400098470028D9D1A368DB6963BB05F110075E
:10275000EA6A01A9384608F0E1FD064650BB20466A
:1027600008F07CFFC5F8D0602FE06FF05706D9E77E
:102770000146404608F09EFDB9F1000FE3D0D9E7CD
:102780001648036813F0060F03D0154A022108F01B
:10279000C9FEA3681B69002BEED001220DF10301D5
:1027A00020469847E8E7204698470028CED103B056
:1027B000BDE8F083A3680199DB685BB1024620465F
:1027C00098470146384608F0C9FDD5E90131012096
:1027D0009847ECE76FF05701F4E700BF207D002039
:1027E000C9F8000010B581680446183101F060F99D
:1027F000A168034A20461831BDE8104001F0FEB838
:102800000BF9000038B58368D3F87832DB0704464B
:102810001DD4C06909F05AFE606803685B68984778
:10282000054620B9E0680AF026F8A3681D75A3687C
:102830005B6C13B1294620469847A3680BF05EFDF8
:102840000022C3F82023034B185802F02BF86FF036
:102850000F05ECE708000000014908F09DBF00BF2C
:10286000E8F40000F7B504468068D0F878325A07DB
:102870000D4605D5002108F0B7FFE06809F0CDFF4F
:10288000E368DB6873B9002D3BD0A66806F15607F4
:10289000384608F08EFF002835D0394606F5AB7073
:1028A000FDF7A2FCA268E0680DF106035632294646
:1028B00009F0B6FF58B9A06800F5AB715630FDF7C6
:1028C00093FCA068563008F074FFADF8060020466F
:1028D00009F0B7FBA368D3F874329B0603D50B4904
:1028E000606908F059FF204600F016FFA268BDF8A5
:1028F0000630A2F85230A2682046A2F8503009F003
:1029000005FB03B0F0BD86F85601CBE718E80000E0
:102910002DE9F04FA7B004465422002111A80BF076
:1029200025FC0023CDE90533A368204656330293E6
:1029300009F08EFB204609F0D2FA10B96069FFF762
:102940008BFFA0681422002118300BF00FFC2046EA
:1029500009F06BFAA168E068B1F850205631002602
:1029600009F095FF20460AF014F84FF0FF37B24601
:1029700003960DF14408B3463546B146DDE905320C
:10298000012A6DD0132B6ED85FBBBBF1000F0AD0AC
:1029900020460AF01FF8A2681423563211A90DEB45
:1029A000030009F0C1F8B9F1000F0CD099F811300B
:1029B000FE2B08D1059B26AA02EB830252F8542C69
:1029C0000AB101330593A068059D436A002B40F0CE
:1029D000B680CEB1C3699E422DD00D9600F1180588
:1029E00024E0029A0223414606A809F09DF80699C0
:1029F000D8F804200292034631B101290AD148B126
:102A00006D4A204609F0D6FB6FF00705284627B02F
:102A1000BDE8F08F059B002B34D0D8F8000001F002
:102A200067F898B166B1A5680D9618350CAE0FCE53
:102A30000FC533682B602046FFF7D4FE0125E5E77C
:102A40005E4A0121204609F0B5FBDDE7059BCBB1CD
:102A5000D8F800202946204601F0ECF9022809D1D7
:102A6000059B132B91D9069B022B8ED1544B554AB3
:102A70000121C6E7032805D0059B013305934FF0DC
:102A8000010B7BE7039B33B9D8F8001007AA48462F
:102A900009F041F9054608F10408013F9DB3EB68D0
:102AA000BBF1000F08D0F3B1204609F0D1FA20465F
:102AB00009F02CFA444AC4E7ABB1A368DDF814A0CE
:102AC000AE4603F1180CBEE80F00ACE80F00DEF8CC
:102AD0000030CCF80030AB682BB96B7CFE2B04BF08
:102AE0002F7C07F1FF37D5F804C0BCF1000F08D0E8
:102AF000AE46BEE80F000CAE0FC6DEF80030336005
:102B00006646A94603E0059B53B101230393069B48
:102B100017B9022B7FF432AF059B013305932DE7E4
:102B2000A368DB6A13B1DB68002BEED1274B00935F
:102B3000274A119B0121204609F03CFBE5E790F86C
:102B40002830A5EB0A05BBB190F829104FF6FF72AB
:102B5000FF2918BF0A469D4202D313449D420BD958
:102B600083691C4A0121204609F024FB2046FFF717
:102B700039FE6FF0150549E7012108F02AFEA0682B
:102B800000F5437008F049FEA36811AA294602EB3C
:102B90008A025B6A204698470546A0684FF0FF32DC
:102BA0004FF0FF3300F5437008F0DEFDA068002110
:102BB00008F00FFE2AE700BF19F900002DF9000008
:102BC0008EF90000C7F300004BF900007AF900000D
:102BD00082FC0000B2F9000010B5836802221A7569
:102BE00083689B6C0446BBB908F095FD8368D3F8F5
:102BF0007832DB040BD50321084B094A09F0DAFAD5
:102C0000A0686FF4805100F51E7008F09EFD20460C
:102C1000BDE8104000F0D4BE10BD00BFCDF90000EB
:102C2000D1F500002DE9F04F04468068B1B00121D4
:102C300000F51E7008F07AFDA3681B7D022B20D1E1
:102C400000230993A36860689E6C03681D6909AB43
:102C50000EB310221BA9A847099B93B1A0680121BC
:102C600008F0B7FD099A1BA92046B047A0680021CB
:102C700008F0AFFDA3689B6C002BE3D12046FFF763
:102C8000ABFFA0686FF0010100F51E7031B0BDE828
:102C9000F04F08F05ABD01220DF12301A847099B0E
:102CA000002BEED09DF923209DF82310A368002A65
:102CB000C8DB5A7D032A00F29882DFE812F0040094
:102CC00085029C0296020D297CD00A2958D0B3F8BF
:102CD00078226FF3CA02A3F878220929A06800F0CD
:102CE00086803DD80029ADD0082900F0FC8103463C
:102CF000D3F874229207A5D501391629A2D801A2CA
:102D000052F821F0993200002131000029310000F1
:102D1000193100008D32000047310000452C0000C1
:102D2000452C0000452C0000452C00004F310000D0
:102D300057310000452C000081310000452C000077
:102D40008B310000452C0000452C0000452C000074
:102D5000452C00008F310000452C0000B9310000E7
:102D60001B2941D07F2900F0CA81A1F120025E2AEF
:102D70000346BDD8012108F037FD9DF82310B9E0C6
:102D8000D3F87822C2F3C7022AB1D3F87822C2F36B
:102D9000C7020A2AACD1B3F8782261F3CA02A3F8B9
:102DA0007822A568B5F85010C1B9284608F01CFD76
:102DB000E06809F032FD6069FFF74EFD2046FFF73D
:102DC0000BFF3FE7D3F87822C2F3C702002AE2D014
:102DD000D3F87822C2F3C7020D2ADBE72046FFF7BB
:102DE00097FDC5F82403E9E7012343752AE7D0F8E6
:102DF00074329B077FF526AF012108F0F5FCA0682F
:102E0000B0F85030FF2B3FF41DAFB0F8522000F166
:102E1000560100F5AB700BF081F9A368B3F85220AE
:102E20001344002583F85651A2681BA9142302F508
:102E3000AB720BA808F078FE0B9914293FF602AF8D
:102E400030AB03EB810343F8545CA368B3F8522022
:102E5000002A53D0134493F85530202B02D0093B5D
:102E6000042B4BD800294CD100250A950A9B30AA87
:102E700002EB8303002653F854AC504608F099FC4B
:102E8000B3468146B046374616AA3946284600F072
:102E9000A3FB0346002840D1012EA76865D10A9BF9
:102EA00030AA02EB830353F8540C08F082FC07F1BC
:102EB000180206464146284600F08EFB0568284663
:102EC00008F077FC864205D0821B92B2A9192046F1
:102ED00009F0B7F9A068B0F85230034493F85630BF
:102EE000202B31D0093B042B2ED9D0F87432DF07C8
:102EF0002FD42021204600F02BFDA3E60129B3D9D1
:102F0000013900200CAB009301900AAB1BAA08F01A
:102F10002DFF05460028A9D194E61B6803934A4675
:102F2000514618460BF047F960B9039B1846FDF768
:102F300063F9584538BF58461FFA80FB002E08BF7A
:102F4000B846013601379FE70121204609F012F803
:102F500078E6002108F052FC2021204600F0F8FC21
:102F6000A068012108F04AFC6CE604907FF66AAE86
:102F70000A9A30AB03EB8202C14652F8543C0393E9
:102F8000184608F016FC049B0590A7F840300496FC
:102F9000A26849461832284600F01EFB039BD0F871
:102FA00000A009F101094BB1BAF1000F06D0059A52
:102FB000194650460BF0FFF80028E9D1A168BAF194
:102FC000000F4ED1A1F840A0049B013B0493DFD138
:102FD0006069FFF741FC204600F0F2FC0A9B30AA32
:102FE00002EB830308F1010A53F8540C08F0E1FBEB
:102FF000414611AA8146284600F0EEFA0746A0682D
:103000003968FF2200F5AB700BF0E7F83B680393DB
:103010004FF6FF77B84616AA514628460AF1010B2B
:1030200000F0DAFA002852D0A168036801F25511C5
:10303000002211F801EF985C704503D110B1013204
:103040004245F6D1B9F1000F01D04A4507DBBA423B
:1030500006F1FF36A8BF3A46012E97B237D0DA46BE
:10306000D9E79948069108F0A4FB069907914A8F81
:1030700000EB0B07BFB2121A504692FBF7F292B266
:10308000069208F096FB0799069A3F1AB1F840009D
:1030900000F1010CA1F840C0B0FBF2F102FB1100FD
:1030A00080B2BFB260B9884B884ACDF800A0062133
:1030B000204609F07FF83946204600F017FB83E7E9
:1030C000834A53460621204609F074F8F3E7002F9F
:1030D0003FF4B8AD0399A7EB090292B249442046E8
:1030E00009F0AFF8AEE5D0F874329E077FF5AAADCF
:1030F000012108F079FB204609F0C4F8A2E5D0F8D8
:1031000074329D077FF59EAD012108F06DFBA36829
:10311000D3F874321907EED4204609F094F891E5FB
:10312000204608F09EFF8DE5204608F091FF2046DE
:1031300008F0D5FE10B96069FFF78EFBA068012189
:1031400008F052FB3AE6204608F094FF7AE5204664
:1031500008F09BFF76E5D3F874329B0603D55D49F2
:10316000606908F019FBA368D3F874329F0603D591
:103170005949606908F010FB204600F021FC61E528
:1031800000212046FFF76EFB5CE50121F9E72046B0
:1031900008F057FF204608F0BEFA0121A06808F0A9
:1031A00023FBA368D3F874329E067FF54BAD4B49E1
:1031B000606908F0F1FA45E5204600F027FBA068B9
:1031C000012108F011FB3DE55B2902D102225A756D
:1031D00038E5D3F874329D0706D5622907D14FF040
:1031E000FF31204608F0EFFEA3680022EFE76629D2
:1031F000FAD10121F5E700225A75A268D2F874329B
:1032000098077FF51FADA1F131031B2B3FF61AADD7
:1032100001A151F823F000BF95320000A132000057
:10322000B532000089320000452C0000452C00001A
:10323000452C0000452C0000452C0000452C0000CA
:10324000452C0000452C0000452C0000452C0000BA
:10325000452C0000452C00008B310000813100001E
:103260004731000021310000452C00008D32000064
:10327000452C000099320000452C0000452C000030
:10328000452C0000A532000003235375204608F0AA
:10329000DFFED7E403235375204608F0D2FED1E4C5
:1032A00003235375A068D0F8741201F0010181F076
:1032B000010157E603235375A368D3F874329B07C3
:1032C0007FF5C0AC28E700BFACF1000011FA0000A8
:1032D000D1F500001DE8000022E8000018E8000019
:1032E0002DE9F04104468068154600F51E7000295E
:1032F00037D04FF4804108F019FAA368DD646068A4
:10330000036800219B68984700284BD1204608F0AD
:10331000ABFA002846D1244E244FDFF89480A068F1
:1033200000F52F704FF0FF324FF0FF33032106F00E
:103330005FFC0546A0684FF0FF324FF0FF3300F509
:1033400043709DB108F010FA20462B46194A01211E
:1033500008F030FFA068BDE8F04100F5437008F0C8
:103360005CBA6FF4804108F0F0F9C6E708F0FCF9A8
:1033700032460221204608F0F9F93A46294620460D
:1033800008F0F4F920464246012108F0EFF96068A0
:1033900003685B6903B19847A06800F5437008F0C3
:1033A0003CFABCE7BDE8F08105280000252C0000B0
:1033B0001FB8000017FA000010B50B49044608F0CA
:1033C000D8FA2046094908F0D4FA2046084908F0FE
:1033D000D0FA2046074908F0CCFA2046064A0021D8
:1033E00000F00CFB002010BD2EFA00006CFA00006B
:1033F000CBFA00001FFB0000B9FB0000F8B5174630
:103400001E460A462949044608F0B3FA3EB33A7804
:103410002749204608F0ADFA01256A0703D125495E
:10342000204608F0A6FAAE421ED97A5D2049204611
:1034300008F09FFA0135102DEFD11F49204608F002
:1034400098FAB6B91B49204608F093FA0125AE4216
:103450002B4610D81749204608F08BFA15E017497B
:10346000204608F086FA01251449204608F081FA22
:10347000E0E700252B46FA5C1149A2F120035F2BFF
:1034800028BF2E22204608F074FA0135102D06D0F0
:103490006B07DCD10749204608F06BFAD7E72046D6
:1034A0000849BDE8F84008F064BA00BFCFFB00004F
:1034B000A5F10000ADF10000AFF10000ABF100009C
:1034C000F6FB0000D6FB00002DE9F04304468068BF
:1034D0008846D0F8201389B015461F46002960D1D0
:1034E0004FF44A720AF042FEE06809F038FAA06828
:1034F00000F543700AF045FB4FF42F794FF41F7627
:10350000A06830440AF0D8FDA06800228319012188
:10351000484410360AF0A7FDB6F52F7F09F11409CB
:10352000EED1A36900261E60A068022100F51E707E
:1035300008F0FCF8A36850225A87A36818221A875B
:103540002168204608F03FFAA368174A66F382050F
:10355000C3F874526068036841461D682346A84753
:103560000546D0B9A36801221A75D4E90A010022E0
:103570000023CDE906230E230393109B0495CDE988
:1035800001730094094B4FF4006205F04BFDA368F2
:10359000C3F82003616A05F077FC284609B0BDE84E
:1035A000F0836FF07705F8E7BFB70000E132000065
:1035B00010B5044613460A460146064801F026FCAB
:1035C00023691B7923B12046BDE8104008F04CBAAE
:1035D00010BD00BF81BA000038B50B46154648B98A
:1035E0001449154A521AB3EB920F05D251F82350E1
:1035F000284638BD84680CB90025F9E70F4A944283
:103600000AD30F4A944207D21846226829469047A7
:103610002B68002BECD1EFE70A4A944202D30A4A06
:10362000944205D3246814225343E518E358F0E785
:103630000133F8E70CE7000034E7000010E8000071
:1036400010E8000034E7000010E80000F7B5037848
:103650002D2B0446164605D16FF01503336000206C
:1036600003B0F0BD0AF04AFE0B4F00230546C351DC
:103670000A46204601A906F0AFFEEB59222B02D1E3
:103680006FF02103EAE7002BE6D1019BA342E3D0D0
:103690001B78002BE4D0DFE70C0000008368D3F830
:1036A00074329B0603D50249406908F0F9BB7047A4
:1036B00028E80000014908F0F3BB00BFE8F400006F
:1036C0000A1E0DDC0ED042238168D1F874128906DF
:1036D00008D5002A04494069B8BF524208F0E0BB4F
:1036E0004123F1E7704700BFF2FB00000A1E0DDC2A
:1036F0000ED044238168D1F87412890608D5002AB7
:1037000004494069B8BF524208F0CABB4323F1E7FD
:10371000704700BFF2FB00002DE9F0478568DFF835
:103720006890044605F15600FCF766FD002395F805
:103730003C7086B29846A268558FED1BB54209DBF6
:10374000002E1FDD563360691049BDE8F0471A446A
:1037500008F0A6BB1D442A44563392F856A082F8BE
:103760005680A26860691A44494608F099FBA3682C
:103770002B4483F856A0A3685B8FDB1BF61A002747
:103780002B46D8E7BDE8F087C7F30000D1F500006D
:1037900008290A4617D8836893F83E10914212D040
:1037A00083F83E208368082AD3F8743205D099063E
:1037B00009D50549406908F073BB9B0603D5034949
:1037C000406908F06DBB7047F9FB00002DE8000070
:1037D00038B50D4609780446FFF7DAFF6A78072AFC
:1037E00011D8A36893F83F1091420CD083F83F2082
:1037F000A368D3F874329B0605D560690249BDE819
:10380000384008F04DBB38BD02FC0000F8B58368B5
:10381000B3F850200446002A55D0B3F852100029BE
:1038200051D0553103F156050B441846A84206D332
:10383000014611F80169202E3CD0A8423CD286B244
:103840009DB2AB1B9BB2591C471CD21A014438468F
:103850000AF072FCA268B2F85030711B13FA81F3BF
:10386000A2F85030A368B3F850201344002283F824
:10387000562009B2204608F07DFBA368D3F87432C5
:103880009A0603D51049606908F00AFB3B460F4AC7
:103890000821204608F08EFC2046FFF7FFFEA368B3
:1038A000D3F874329B060ED560690949BDE8F8402B
:1038B00008F0F6BA0846B9E7014611F80169202E6A
:1038C000BDD00846B9E7F8BD32E80000D1F50000E8
:1038D00036E800002DE9F04104460D4617460AB1CE
:1038E000FFF7DCFEA368B3F85220D3F87412563207
:1038F00013444A0721D51846FCF77EFCDFF84880C0
:103900000646A6B9A368B3F85020A3F85220A068D1
:1039100008F0D3FA20B107B115B16069FFF7CAFE0C
:103920006942204609B2BDE8F04108F023BB606956
:10393000414608F0B5FA013EE3E7044A0821204673
:1039400008F038FCDEE700BF8D060100D1F500006D
:1039500013B583688DF80710D3F874220446D00796
:1039600025D5B3F85210B3F850208A421FD0481C16
:10397000A3F852000B449DF8072083F85620A36853
:10398000D3F87412890710D5D3F8743260690B49E3
:1039900013F0040F18BF2A2208F082FA204608F01C
:1039A0009EFA10B16069FFF785FE02B010BD0122DA
:1039B0000DF10701204608F00AFCF6E7F6FB0000CF
:1039C00010B504468368094A022108F0F3FBA36896
:1039D000D3F874329B0707D52046FFF79DFE20469B
:1039E000BDE8104008F0A1BA10BD00BFD1F500003D
:1039F000014908F0E1BD00BFE8F400002DE9F04FF7
:103A00000E46002189B0044617460D4603AA3046EB
:103A100001F10108FFF7E0FDB0B995B127B13A46D1
:103A20000821204608F0C6FB1E4FDFF87C90DFF827
:103A30007CA0002103AA304601F10108FFF7CCFD6C
:103A400060B909B0BDE8F08F006810B1FCF7D4FB95
:103A500080B2854238BF05464146D7E703688BB13F
:103A60001A787AB1D0F804B04A46CDE9005308215B
:103A70003B46204608F09EFBBBF1000F04D1606975
:103A8000FFF7B6FF4146D5E7524620463B460821A0
:103A900008F090FBAA1D92B25946204608F099FD05
:103AA000F0E700BF20FC00000BFC0000A0F10000CC
:103AB000F7B50F6805460E46A7B13846FCF79CFBE4
:103AC00084B2094B00932846084A3B46082108F077
:103AD00071FBE21C716892B2284603B0BDE8F04069
:103AE00008F077BD3C46ECE71CFC000012FA000031
:103AF00010B507490446FCF76DFB38B1054920466F
:103B0000FCF768FBB0FA80F0400910BD0120FCE72B
:103B100012FC000015FC000010B58368D3F8743265
:103B20009B06044603D50649406908F0C9FDA36811
:103B300050225A87A36818221A87002010BD00BFA0
:103B40003AE8000008B5836902491A6807F011FFD6
:103B5000002008BD23FC00002DE9F3410D490E4C67
:103B60000E4EDFF83C80054607F003FF0022B4420A
:103B700002F1010703D3002002B0BDE8F081636ABF
:103B80000093A36892B24146284607F0F2FE303413
:103B90003A46ECE733FC0000DCE600000CE70000EE
:103BA0004BFC000008B5024907F00DFF002008BDDE
:103BB000E9F4000073B50E4E04460025A268E068E3
:103BC0000DF1060302F5AB72012108F029FEBDF8E4
:103BD0000600A36840B12A4603F5AB733146204680
:103BE00007F0C7FE0135E9E783F8560102B070BD62
:103BF0005CFC000010B5044607F028FF03490246AC
:103C0000204607F0B6FE002010BD00BF58F70000A8
:103C1000022907B50BD15368009312680B4B0C496E
:103C200007F0C3FE6FF0150003B05DF804FB836876
:103C3000084AD3F87432084913F0020F074B18BF33
:103C40001A4607F096FE0020EEE700BF6AFC00006F
:103C50007FFC000066FC000088FC00005BF30000B5
:103C600010B58368D3F874329A06044603D5074921
:103C7000406908F025FDA368D3F874329B0603D58C
:103C80000349606908F01CFD002010BD41E80000F8
:103C900046E80000F0B5012985B004460AD0536813
:103CA000009312685D4B5E4907F07FFE6FF01500D0
:103CB00005B0F0BD8368D3F87432990603D559492D
:103CC000406908F0FDFC6FF0F9012046FFF7F8FCB1
:103CD000FA212046FFF70AFDA06800254FF4807204
:103CE000294600F5AB708DF80B500AF03FFA4E49AB
:103CF000606908F0E5FC606907F0B6FE4FF47A767B
:103D00006068036801221F690DF10B0103ABB8471E
:103D1000039BEBB9013E4FF47A70B6B209F089FE0D
:103D2000002EEDD1A368D3F874329B0603D53F492A
:103D3000606908F0C5FCA3683D4950225A87A36812
:103D4000182220461A8707F022FE6FF00700AFE71F
:103D50009DF80B20A3681B2A53D093F856111B29FA
:103D6000CED1522A4DD15A19002382F85631A66875
:103D700096F857215B2A2BD106F25710022510F82E
:103D8000011F2A463B2905F10105ADB223D1FF2AC7
:103D9000C8D002F5AB7216FA82F1002211F8010FB9
:103DA00018BB86F85601FA2AA16828BFFA224A876A
:103DB000FA2BA26828BFFA231387A368D3F87432BA
:103DC0009A0603D51949606908F07AFC00206FE76C
:103DD00086F85631A6E703EB8303303901EB430144
:103DE000B5F5807F8BB2CAD19CE7013502EB820228
:103DF000ADB2303800EB4200B5F5807F82B2CDD154
:103E000090E72B440135ADB2092D83F856217FF69A
:103E100077AFA368002283F8562183E76AFC00008D
:103E20007FFC00004CE80000D3FC000050E80000DC
:103E300099FC00002DE9F04F074689B015468946E8
:103E400021B1104608F091FD00285BD1032455E014
:103E50005C463CE029460AF5AB700AF0DAF9064602
:103E6000002854D0FCF7C8F982B2601C01323146F8
:103E700030440AF061F92246594630460AF04EF9BC
:103E80004FF020033355BAF8543001331C44AAF8DC
:103E9000544008F10108002401994B1C03AA48462C
:103EA0000193FFF799FB0646E8B1316800222846E6
:103EB00008F018FF0028EFD1D6F800B0D7F808A016
:103EC000BBF1000FC4D05846FCF796F984B2BAF89B
:103ED00054302344FF2BBDDD0E4A2B4603213846C8
:103EE00008F068F90124B8F1000F07D0B8682A4635
:103EF00000F1540100F5AB7007F0E6FE204609B072
:103F0000BDE8F08F4FF0000841460224C5E70224C7
:103F1000E9E700BF9B01010008B5044806F057FE21
:103F2000BDE80840024806F052BE00BFED010100A6
:103F300022020100014806F07BB800BF20ED00001E
:103F400038B5044618B90F4B0F485B68984761684D
:103F5000B1F5683F10D0B1F5680F0DD00B4DA942F7
:103F60000AD011F46861206807D00146084809F0BA
:103F7000BDFD00232360656038BD14220AF0F6F809
:103F8000F9E700BF1C070020500201002C5F5CA96C
:103F90003492002008B520B34368B3F5683F10D1D0
:103FA00001220368BFF35B8F53E8001F002903D190
:103FB00043E800200028F7D1BFF35B8F0DD100202C
:103FC00008BD094A93420AD000684FF0FF324FF013
:103FD000FF3304F001FE0028F1D00448F0E7044864
:103FE000EEE76FF4E040EBE72C5F5CA9E98FFFFFA1
:103FF000EA8FFFFF08B5D8B14368B3F5683F10D129
:1040000000220368BFF35B8F53E8001F012903D12F
:1040100043E800200028F7D1BFF35B8F0BD10020CD
:1040200008BD074A934208D0006804F04DFEF6E749
:104030006FF4E040F4E70348F2E70348F0E700BF1D
:104040002C5F5CA9E98FFFFFEA8FFFFF10B50446E4
:1040500018B91D4B1D485B6898476368B3F5683F06
:104060002FD0B3F5680F2CD0194A934219D1236889
:1040700003BB18484FF0FF324FF0FF33214604F0E6
:104080007DFD08B923681BB90F4B13485B6898473F
:104090002068142200210AF069F84FF46863636015
:1040A00008E0B3F5683F0DD83A2B03D040F6BA626A
:1040B0009342DED1206809F064FD636843F03A035F
:1040C000636010BD054AF3E71C07002050020100A1
:1040D0002C5F5CA934920020760201003A00003A7D
:1040E00008B5064906484023142209F0F1FCBDE852
:1040F00008400449044806F00DB800BF348D002084
:104100003492002028ED00003CED00002DE9F8433A
:10411000054600AF0C46002948D0DFF8B890D9F822
:1041200000305A0742D06E468AB0D1E90001A36838
:104130006A46DFF8A4C04FF00508C2E905C0C2E92D
:10414000071342F8108F00234FF421514846FDF722
:1041500021FBD9F800305B07B54627D08AB0D4E9F7
:10416000030163696A46DFF874C0C2E90713C2E954
:1041700005C042F8108F002348464FF42151FDF747
:1041800009FBD9F800305807B5460FD0E369012183
:10419000134A484607F0CFF9D9F80030590705D03F
:1041A000A369104A0121484607F0C5F9012D0AD13B
:1041B000EFF3058307480268520704D00A4A103B10
:1041C000294607F0B8F92146284604F00DFBBD4604
:1041D000BDE8F883187D0020A3020100D20201008F
:1041E00001030100100301003E03010030BFFFF78F
:1041F000FDBF00BF2DE9F0410B4EDFF8308006EB2C
:104200000807CC1B054632460949204609F086FFBF
:10421000A01942460021083C09F0A8FFC5F8A840B3
:1042200007F10800BDE8F081000000000800000070
:1042300010E80000074A936893F90E10002907DB85
:10424000526993421FBF044A536843F0805353603E
:10425000704700BF6093002000ED00E0F8B5374CD8
:1042600023685B0706460D4603D03549204608F013
:10427000CDFB344B9B6ADF0451D52368580703D02C
:1042800031492E4808F0C2FB17202E4B9B6A1905B6
:1042900007D523685A0703D02C49284808F0B6FBF5
:1042A0001820284FBB6A9B0519D52368580703D0EF
:1042B0002749224808F0AAFBBB6BBA6A11040DD546
:1042C0002268520704D0234A1C48012107F033F921
:1042D00026B11C4A936A23F4004393621920194BB8
:1042E0009B6A5B0507D523685F0703D01A4913480B
:1042F00008F08CFB1A20134B9A6AD60511D5236857
:10430000590703D015490D4808F080FB1B200D4AC2
:10431000936A43F47F43936200232B70F8BD162009
:10432000B3E79B6A9A04F2D523685B0703D00C4974
:10433000024808F06BFB1C20E9E700BF187D002055
:104340005103010000ED00E0670301007803010064
:104350008B030100A4030100B9030100D403010091
:10436000EC03010010B52D4C23685A0703D02C49EB
:10437000204608F04BFB2B4B9B6A9B014BD52368D7
:10438000580703D02849254808F040FB1E20254B3C
:104390009B6AD90107D523685A0703D023491F48D0
:1043A00008F034FB1F201F4B9B6A1B0307D52368B3
:1043B000580703D01E49194808F028FB2120194B43
:1043C0009B6A590307D523685A0703D01949134834
:1043D00008F01CFB2220134B9B6A9B0307D5236824
:1043E000590703D014490D4808F010FB23200D4B4A
:1043F0009B6ADA0307D523685B0703D00F49074898
:1044000008F004FB2420074A936A6FEA03436FEA2B
:104410001343936210BD1D20B9E700BF187D002033
:104420001B04010000ED00E033040100460401001C
:10443000600401007E040100A3040100BD0401002A
:104440002DE9F047454D2B688946590780461746A8
:1044500003D04349284608F0D9FA424B9B6ADA0652
:1044600039D52B685B0703D03F493C4808F0CEFAAA
:1044700011243C4B9B6A1E0707D52B68580703D0B5
:104480003A49364808F0C2FA1224DFF8D8A0DAF820
:104490002830990721D52B685A0703D034492F4873
:1044A00008F0B4FADAF83460DAF828301B0651D58F
:1044B0002B685C0705D02F4A28483346012107F0B6
:1044C0003AF8B9F1000F04D0264A936A23F080032A
:1044D0009362132403E01024CBE76FF01506214B01
:1044E0009B6AD80707D52B68590703D022491B4878
:1044F00008F08CFA14241B4B9B6A9A0607D52B688C
:104500005B0703D01D49154808F080FA1524154BA8
:104510009A6AD50602D49A6A90070AD55B6819058B
:1045200007D54146304600F099FA10B180F309886A
:1045300002240C4B9A6A920642BF5A6A22F4005235
:104540005A629A6A42F0FF029A6200233B70204648
:10455000BDE8F0876FF01506BBE700BF187D0020AF
:10456000E804010000ED00E0FE0401007803010012
:1045700031050100490501005F050100EC03010060
:104580002DE9F041744B8AB0D3F8048000AF0446A3
:10459000C8F30806002585F31188BFF36F8F02F07A
:1045A0007F43B3F17F4F0AD102F00C03082B15D1E2
:1045B0006A480368590702D0694908F027FA0025BC
:1045C0002C460023FB71F31E092B00F29F80DFE8CD
:1045D00003F00A91948D9D9D9D9D9D9712074CBF60
:1045E0000C460125EDE75D4E33685B0703D05D495E
:1045F000304608F00BFA0023FB71574BDA6A90073C
:1046000008D53368590703D05749544808F0FEF9D4
:1046100000233CE0DA6A002A04DA33685A07F7D04C
:104620005249F2E7DB6A5B00F2D53368580703D0E2
:104630004F494A4808F0EAF9474BA1695A6942F4E0
:1046400080725A61BFF34F8FBFF36F8F5A6931F891
:10465000021C22F480725A61BFF34F8FBFF36F8F39
:104660004DF60272914208D09A6AD2B28AB3FA1D0C
:1046700001212046FFF7E4FE3AE03368590705D0F0
:1046800023683C4A3548012106F055FF2368FA7932
:10469000DAB907F1080604F1200C20686168324697
:1046A00003C2083464451646F7D17A6A002D4DD00E
:1046B000C2F3080121B96FEA52226FEA42227A62FC
:1046C00007F108011846FFF721FD2837BD46BDE870
:1046D000F0819A6A12F47F4F04D0F91D0120FFF790
:1046E000BDFD05E09B6AB3F5803F91D3FFF73AFE2D
:1046F0000346CCE7FA1D0021BBE7F91D0020EEE7D9
:10470000164803685A0783D01B497FE7134803689C
:104710005B073FF47DAF194A194B18F4F87FE84660
:104720008AB018BF13466A461649C2E905134FF40A
:1047300000731384103E144BD66142F8103F0023DF
:104740004FF41151FDF726F8C54661E722F4FF72D8
:1047500022F00102B3E700BF00ED00E0187D002069
:10476000AC050100D7050100EE0501000F060100B0
:104770001D0601003C0601005806010093050100DA
:104780007E0501007C06010004000001044B5A690B
:1047900042F010025A615A6922F008025A617047C9
:1047A00000ED00E0EFF30880EFF3098101B57246F8
:1047B000FFF7E6FE01BD00BF002080F31488BFF3C1
:1047C0006F8F134880F3088802F00CFB002011491A
:1047D0000860BFF34F8F00F033F8202080F311887A
:1047E0000D484FF0AA014FF4046209F052F90A484B
:1047F0004FF40461401880F30988EFF3148002211C
:10480000084380F31488BFF36F8F00F0EFF80000C7
:1048100040BB002094ED00E080A100200749D1F8C2
:1048200090200023C2F307221846934200DB704712
:10483000C1F89830C1F8A0000133F6E700ED00E0C0
:1048400008B572B6002383F31388FFF7E7FF144B14
:104850004FF0FF32C3F88020C3F88420C3F88820CB
:10486000C3F88C20C3F89020C3F89420C3F8982094
:10487000C3F89C20C3F88021C3F88421C3F88821A1
:10488000C3F88C21C3F89021C3F89421C3F8982170
:10489000C3F89C2162B6BFF34F8FBFF36F8F08BD83
:1048A00000E100E0084B9B6883420BD1EFF30583E6
:1048B00043B1064B5A6842F080525A605A6A22F459
:1048C00000425A6204F04EBE6093002000ED00E00A
:1048D00016498A684FF030001044EFF3098C80E8E5
:1048E000F01F202080F31288BFF36F8F104F4FF01E
:1048F00000664A698A603E604FF0A8041419206877
:104900000C4C2060D2F8AC000023C2F8AC3080F32D
:10491000118804B5104600F009F9BDE8044002F121
:10492000300090E8F01F8CF30988704760930020F6
:1049300004ED00E0509200201EF0040F0CBFEFF3D6
:104940000880EFF30980816911F8021C0229FFD069
:1049500001B5724608F04FF801BD00BF40B2002813
:1049600007DB044A4109012300F01F00834042F89D
:104970002130704700E100E040B200280CDB430921
:10498000064900F01F0020330122824041F8232015
:10499000BFF34F8FBFF36F8F704700BF00E100E0A0
:1049A000054B420900F01F0053F82220012303FAAF
:1049B00000F01040704700BF00E100E040B2002866
:1049C000A8BF00F1604001F10101B8BF064B4FEAFA
:1049D0004111ACBF00F5614000F00F00C9B2B4BF97
:1049E000195480F80013704714ED00E00B4A08B525
:1049F0000B4B22F07F029A60BFF34F8FBFF36F8F94
:104A0000D3F8882022F47002C3F8882003F0ECFF6A
:104A100004F00EFF00F060F804F02EF80000000033
:104A200000ED00E042F8203C009B42F81C3C0A49A3
:104A3000019B42F8183C029B42F8143C21F0010112
:104A40004FF0807342F8043C42F8081C0023203ADF
:104A50000265C0F8AC307047090E00000A4A0346F0
:104A6000906878B113F1160FD0F8980005D0A0F136
:104A700040029A4205D8834203D2814228BF0020D7
:104A800070470020704700BF6093002008B51546AE
:104A90000A4A0B4B9060D0F8A8201A600E4600F02E
:104AA00045F82C4686F309880020064B9847204697
:104AB000002100220023044C204700BF6093002007
:104AC000509200201DCA0000090E0000014B102268
:104AD0001A61704700ED00E0044800232021C2184D
:104AE0000133302B82F80013F9D1704700E100E068
:104AF00008B5EFF30583064A103B02EBC30152F8F9
:104B0000330049688847BDE80840FFF793BB00BF02
:104B100028E40000024B034A0348012100F092B848
:104B200000000420000000204CED0000D0F8982088
:104B3000054B403A1A60054A4021C3E90112184664
:104B4000012100F089B800BF5492002000000B152D
:104B500008B503461148D0F89020C2F30722013A65
:104B600093420AD90E480268520703D00D4A012128
:104B700006F0E1FC6FF0150008BDC0F898300A6837
:104B800022F01F021A4342F01002C0F89C208A68EB
:104B900042F00102C0F8A0201846EDE700ED00E069
:104BA000147D002093060100F0B50E4685B01F4627
:104BB00004460025B54210DA606828B3AFB1431E41
:104BC00018420DD0124803685B0704D0114A2B46E7
:104BD000012106F0B0FC6FF01502104605B0F0BDE3
:104BE0001F28EFD921680B42ECD12368019307F00D
:104BF00038FFA36801A90343D0B20393FFF7A8FFCE
:104C000010F1160FE7D0421C01350C34D2E700BF7B
:104C1000147D0020B9060100044B0522C3F894203E
:104C2000BFF34F8FBFF36F8F704700BF00ED00E001
:104C3000BFF35F8F024B0022C3F89420704700BF80
:104C400000ED00E010B5034C01232278FFF7ACFF24
:104C5000207010BDAB95002008B50B4A00231278D8
:104C6000FFF7A2FF10F1160F07D0084A0021D2F873
:104C70009030C3F30723984200DB08BDC2F89800C8
:104C8000C2F8A0100130F2E7AB95002000ED00E083
:104C90002DE9F04357485849D0F890300D68C3F3D8
:104CA00007239D4285B000F2A180FFF7C1FF49684C
:104CB0000022954201F10C011AD1504C504F257041
:104CC0006846FDF7B5F8DFF83C81DFF83C91064611
:104CD0000025AE421FD1237846490020D1F890200C
:104CE000C2F3072293427BDBFFF796FF00204CE0E4
:104CF000C0F8982051F80C3C23F01F03134343F0F5
:104D00001003C0F89C3051F8043C43F00103C0F894
:104D1000A0300132CDE7009800EB05114FEA051CE9
:104D2000CB683B40B3F5000F44D00AD8B3F5001F61
:104D30002ED0B3F5800F34D0B3F5801F10D00135DD
:104D4000C7E7B3F1807F3ED0B3F1007FF7D150F8D1
:104D50000C3088684A6807F084FE40F4802009E03F
:104D600050F80C3088684A6807F07BFE40F08850A5
:104D700040F43020039001A92078CDE90123FFF70A
:104D8000E7FE002828DA6FF0150005B0BDE8F083D3
:104D900050F80C3088684A6807F063FE40EA080063
:104DA000E8E750F80C3088684A6807F05AFE40EA95
:104DB0000900DFE750F80C3088684A6807F051FEB8
:104DC00040F08270D6E750F80C3088684A6807F0E7
:104DD00048FE40F08870CDE7237801332370AEE7BA
:104DE000C1F89830C1F8A000013377E74FF0FF30E9
:104DF000CBE700BF00ED00E058ED0000AB950020D0
:104E00000000F0FF0000081100000207F0B587B0B5
:104E100007460E4614460021102268461D4609F03A
:104E2000A5F902238DF802302A46054B019321464D
:104E30006846CDE9047605F035FB07B0F0BD00BF4C
:104E400083CA000008B5024B1B689847002008BDC4
:104E500060920020034B044A1860937843F00203E9
:104E600093707047609200202805002008B506491D
:104E7000064821F00701C1F1005202F5802205F039
:104E8000F6FD002008BD00BFC7C1002064920020CD
:104E900008B500F0B7F80A4941610A490122C0E9A2
:104EA00000220A6008490A60084A00231360084A81
:104EB00003611360C0E90233064A136008BD00BFF6
:104EC000E9F40000540500205005002078920020ED
:104ED00074920020709200202DE9F04107460E46A2
:104EE000154600F08FF8C36804461BB943691A7869
:104EF000002A41D10023E3606368BB4256F82320B7
:104F000008DB324B6361204600F062F84FF0FF305F
:104F1000BDE8F081511C616192F80080B8F12D0F5D
:104F2000EFD1911C61615178A1602D2904D1927853
:104F30006AB901336360E4E749B9244B63614146D0
:104F4000284609F02BF90028DDD0C4F80880D4F8F1
:104F500008802846414609F021F9B8F13A0F636903
:104F600000D070B91B7813B96368013363602046C1
:104F700000F02EF83F20CBE75A1C42611B7883607B
:104F8000E5E742783A2A0BD0002222611B7813B958
:104F9000636801336360204600F01AF8A068B7E741
:104FA00018786268094928B901329742626004DDC5
:104FB00056F82230C4E90431EAE761612D783A2DD0
:104FC0002046D5D100F004F82846A1E7E9F4000016
:104FD000074B02681A60074B42681A60064B8268EA
:104FE0001A60064BC2681A60054B02691A60704766
:104FF0005405002050050020789200207492002073
:105000007092002000487047380500200E4A0123A6
:10501000C2F840354FF080424FF08051C2F87835E9
:10502000D1F83001082808D1D1F83411052904D865
:105030000648415C09B1C2F838364FF0804301227E
:10504000C3F880250020704700E00140F20601000F
:1050500020B1034B800143F001031847704700BFA4
:1050600060E80000084B70B5C31A0D4607499B1055
:10507000044659430648402207F040FE2B460146AD
:105080002046BDE87040184790920020B76DDBB60F
:1050900098E3000073B50C4C0C4A4023041B0093AA
:1050A0000D460B460A49A41061430646094807F01D
:1050B00050FE011E05DA30462B4602B0BDE87040B6
:1050C000184702B070BD00BF90920020BBCD000019
:1050D000B76DDBB698E3000010B5EFF31184202321
:1050E00083F31288BFF36F8F074A136823F002011E
:1050F000DB07116002D4012008F0B5F984F31188B0
:10510000BFF36F8F10BD00BFE0920020002270B58A
:10511000012104461046FFF751FC0F4801F0ECFF57
:105120000E4B984215D101F0F7FF26690C49304625
:1051300006F00AF800280BDB0125356424690849CC
:1051400004F11C0006F000F8002801DBE5640020F3
:1051500070BD6FF00400FBE7655200000000AD0B6E
:1051600078ED00007FB500220123CDE9022304ABD6
:10517000CDE90433094ACDF800D06B46CDF804D010
:1051800007F014FE002805DB4FF480420023684638
:1051900003F01EFE07B05DF804FB00BFD9CD000090
:1051A00030B4104B0C2202FB003301460020D3E93F
:1051B0000E529863EFF31180202484F31288BFF31A
:1051C0006F8F1C6C04F0C00444F002041C6480F374
:1051D0001188BFF36F8F1DB12B46034830BC1847B1
:1051E00030BC70479092002098E3000010B4EFF3B9
:1051F0001182202383F31288BFF36F8F1748016851
:1052000041F002040460C80707D482F31188BFF399
:105210006F8F012010BC01F091BF4FF08041D1F899
:105220000C04D1F80C14C907EFD5EFF3118083F308
:105230001288BFF36F8F0A490B6C03F0C00343F071
:1052400002030B6480F31188BFF36F8F82F3118820
:10525000BFF36F8F002010BCFFF7A2BFE0920020C9
:105260009092002010B1012804D07047034B1B6CB2
:105270005B0701D1FFF794BF704700BF90920020F9
:105280002DE9F0413849BFF35B8F0746012251E811
:10529000003F41E800200028F9D1BFF35B8F33B90C
:1052A000324933484B60CB608A6005F060FF7B1E5B
:1052B000012B2BD8012F07D14FF08043D3F81C349A
:1052C00003F00303012B21D008F072FC0546F8B966
:1052D000284B1B78E3B14FF080430222C3F8082328
:1052E0000646DFF894804FF08044D4F81824D4F8B0
:1052F0001834D20315D503F00303012B01D0012F7D
:105300000FD155B386F31188BFF36F8FBDE8F081DD
:10531000EFF31186202383F31288BFF36F8F0125EB
:10532000DFE7ADB1304607F08DFBD4F81835002B20
:10533000DBD1D4F80421002AD7D0C4F80431D4F842
:1053400004310123C4F81835C8F88031A360CCE7D4
:105350000021212008F0DEFCE7E74FF08043022225
:10536000C3F80423D2E700BF8C9200207C92002077
:10537000AC920020DE95002000E100E008B507486F
:1053800008F05CFB38B10648FFF764FD0448FBF702
:1053900035FD002008BD6FF01200FBE7E0E30000E0
:1053A000A55300000A2838B5074D044604D1AB6860
:1053B0000D215B6828469847AB6803485B68E1B2FB
:1053C0009847204638BD00BFE0E30000F0B54068D4
:1053D000057B01F01F0444EA4514056987B0002DE0
:1053E00064D0B2F5001F00F1100506D12146284611
:1053F00008F0CAF8002007B0F0BD01AE0027B2F5F2
:10540000800F0197776039D1B3F1007F14BF052376
:1054100004238DF804300023CDE9046303938368EB
:1054200023FA01F111F001011AD1B2F1A07F17D1D5
:1054300004F01F03620903F5E0732AD0012A3BD16F
:105440001F4A52F82330DB070AD40DF10306324617
:105450002146284602F05AF91A4B98421CD002966F
:1054600003AA2146284602F013F8174B984220D190
:1054700001222146284602F0ADF9BBE7B3F1C06F27
:1054800005D0B3F1007F14BF01230223C1E703233A
:10549000BFE74FF0A042D4E73146284602F094F926
:1054A000094B9842DBD06FF00B00A4E76FF085004A
:1054B000A1E76FF015009EE751F82330FFDE00BF33
:1054C000000300500400AD0B0000AD0B38B545687B
:1054D0002B69B3B11035284602F066F9044680B94D
:1054E0000146284602F02CF9084B98420BD1084996
:1054F0002246284602F004F9224605210620FFF73D
:105500005DFA002038BD6FF00400FBE70000AD0B32
:1055100015550000420970B5034602D0012A17D084
:1055200070BD0D4E326951680029F9D003F01F0398
:1055300001250C689D400029F2D08A682A4002D0DB
:105540004B68304698472CB1236821461C46F2E749
:10555000024EE7E72346F8E7C8E30000B0E30000A7
:105560002DE9F043466840F20635D006337B87B01C
:1055700002EA050554BFC2F34010032001F01F07E3
:10558000B5F5837F144647EA43178DF8030045D0ED
:105590000FD8062D18D007D8B5B1022D40D06FF026
:1055A000150007B0BDE8F083B5F5807FF7D1012580
:1055B0000AE040F20222954234D0B5F5407F33D064
:1055C000B5F5007FEBD102250123220303FA01F197
:1055D0002CD57368C3F80815326982BB07F01F0326
:1055E0007F0929D0012F77D13E4A02EB830284F450
:1055F0008033D2F80017C3F30043C4F3404444EAB5
:10560000430421F4E16144EA800421F0070144EA03
:1056100005230B43C2F800370020C2E70725D3E774
:105620000425D1E70525CFE70325CDE7630344BF74
:105630007368C3F80C15CFE74FF0A042D5E71036DA
:105640000DF102023946304602F060F814F4403F92
:1056500080460CD13946304607F094FF224B9845DE
:10566000DAD19DF80210304602F0A8F8D4E701AB79
:105670004FF0000903AA39463046CDE90439CDE997
:105680000199CDF80C9001F003FF174B984286D199
:1056900014F4003315D09DF803308DF80E3084F4E7
:1056A0008034C4F300444B4603AA394630468DF893
:1056B0000C508DF80D4001F0A5FF0B4B9842CDD05A
:1056C0006DE7CDE9043303AA0DF1030339463046F3
:1056D000039301F0DDFEF0E703F5E07352F82330A9
:1056E000FFDE00BF000300500000AD0B036803F0B5
:1056F0001F025B09026004D0012B034818BF002081
:1057000070474FF0A0407047000300502DE9F04F64
:10571000DFF89491DFF894A185B01546834600EB3D
:10572000810140F2FF18594503D1002005B0BDE8C2
:10573000F08FDBF800305E04C3F3C322C3F3080428
:1057400000F1AC801B0E19F80270444508BF4FF001
:10575000FF34222B00F2A580DFE803F012191F228C
:10576000252B22A3A3A3A33B68A3A3A3A3A3A3A323
:10577000A3A36B818487A3A3A38A9194979A9D0086
:10578000C5F80C45601C5ED10BF1040BCBE7C5F8E6
:105790001445621CF8D000265FE0C5F80845F1E723
:1057A000C5F81045F5E7631CC5F80845ECD00026A0
:1057B00004E0661CC5F80C45E6D0012603A8039456
:1057C000FFF794FF039B012202FA03F3C0F80C35A4
:1057D00008E0C5F80845002FDBD1631CD4D00026B3
:1057E00032460627DBF80030019303F4004000281E
:1057F00018BF002203A8009218BF01260394FFF7E8
:1058000075FF039C019B009A00EB8400C3F3412CBD
:10581000D0F800473B0243EA8C03134304EA0A042E
:10582000234343EA4603C0F80037ADE7C5F80C450B
:10583000D1E7C5F86045601CDBF80030A4D0C3F3A5
:105840000043002BB9D003A80394FFF74FFF039B3D
:10585000012606FA03F3C0F808353246C2E7C5F858
:105860006445E8E7C5F86845E5E7C5F86C45E2E753
:10587000C5F82445621C87D000220126B2E7C5F88E
:1058800028457FE7C5F83045F4E7C5F83445F1E72A
:10589000C5F83845EEE7C5F83C4573E76FF01500ED
:1058A00044E76FF0850041E753070100F0F8FCFF83
:1058B0002DE9F041044647680D4608F079F94FF0AC
:1058C000200888B9264B1B7873B16426606807F0FE
:1058D00092FBF0B9012007F0B8FD013EF6D100219E
:1058E000212008F017FAF0E7EFF31186314688F32C
:1058F0001288BFF36F8F606807F07DFBA8B986F34D
:105900001188BFF36F8FEFE786F31188BFF36F8FB6
:10591000E5E7EFF31186314688F31288BFF36F8F06
:10592000606807F068FB0028EED0BB691D706368F3
:10593000BA691B680020C3F844250122C3F8482532
:10594000C3F82001D3F82041C3F85801D3F8580117
:105950009A6081F31188BFF36F8FBDE8F08100BFBB
:10596000DE950020F7B50546002201210220FFF751
:1059700025F80220FEF7F2FF6A6811681369C1F882
:105980002435137D507D927D03431343C1F86C355C
:105990006E68D6E9004313F0010353D02F6907F175
:1059A0000C0007F05EFD344B98420BD0334803687F
:1059B0005B0703D0324A012105F0B4FD6FF004000B
:1059C00003B0F0BD387B04F10C0204F5907107F0D0
:1059D0003EFD387B012707FA00F001F025FB082384
:1059E000C4F80035B369C4F844350023C4F8483519
:1059F000A760D4F85831002BFBD00021C4F8001563
:105A00006B68DC6801AA204607F03EFA002805DB37
:105A1000019B226819791868FFF778FE6A68136895
:105A20000821C3F80015117A51B9D269C3F8342599
:105A30000122C3F83825C3F81011D3F810111A60E9
:105A40000020BDE70822C4F80025B269C4F8442547
:105A5000C4F848350123A360D4F82031002BFBD0D3
:105A60000023C4F82031D4F820310123E3604FF43F
:105A70008073C4F80433BCE70000AD0B347D002014
:105A80005B0701002DE9F04383B045680669D5F84E
:105A9000208000AF3A1D0021404607F0F5F9041EB2
:105AA0001DDB7B68D8F8002019791868FFF72EFEF7
:105AB000041E14DB696A481C21D005F1280000F09F
:105AC00081FB10F1130F04460ED1354803685A07C5
:105AD00003D0344A012107F02BFB6FF0120420465B
