:020000040000FA
:1000000040530020BD3200005B190100A9320000FE
:10001000A9320000A9320000A9320000000000004F
:100020000000000000000000000000002934000073
:10003000A932000000000000C5330000A932000012
:10004000D9350000D9350000D9350000D935000078
:10005000D9350000D9350000D9350000D935000068
:10006000D9350000D9350000D9350000D935000058
:10007000D9350000D9350000D9350000D935000048
:10008000D9350000D9350000D9350000D935000038
:10009000D9350000D9350000D9350000D935000028
:1000A000D9350000D9350000D9350000D935000018
:1000B000D9350000D9350000D9350000D935000008
:1000C000D9350000D9350000D9350000D9350000F8
:1000D000D9350000D9350000D9350000D9350000E8
:1000E000D9350000D9350000D9350000D9350000D8
:1000F000D9350000D9350000D9350000D9350000C8
:1001000080F0004002E000BF81F0004142001FBFCC
:100110005FEA410392EA030F7FEA226C7FEA236CD5
:100120006AD04FEA1262D2EB1363C1BFD2184140CA
:1001300048404140B8BF5B42192B88BF704710F060
:10014000004F40F4000020F07F4018BF404211F003
:10015000004F41F4000121F07F4118BF494292EA6B
:10016000030F3FD0A2F1010241FA03FC10EB0C0097
:10017000C3F1200301FA03F100F0004302D5494224
:1001800060EB4000B0F5000F13D3B0F1807F06D3D1
:1001900040084FEA310102F10102FE2A51D2B1F1C9
:1001A000004F40EBC25008BF20F0010040EA0300BE
:1001B0007047490040EB0000013A28BFB0F5000F3E
:1001C000EDD2B0FA80FCACF1080CB2EB0C0200FAF4
:1001D0000CF0AABF00EBC25052421843BCBFD04043
:1001E0001843704792F0000F81F4000106BF80F4BD
:1001F00000000132013BB5E74FEA41037FEA226C80
:1002000018BF7FEA236C21D092EA030F04D092F04A
:10021000000F08BF0846704790EA010F1CBF00207E
:10022000704712F07F4F04D1400028BF40F00040DB
:10023000704712F100723CBF00F50000704700F0FB
:10024000004343F0FE4040F4000070477FEA226222
:1002500016BF08467FEA23630146420206BF5FEAF3
:10026000412390EA010F40F4800070474FF00003F3
:1002700004E000BF10F0004348BF40425FEA000CBA
:1002800008BF704743F0964301464FF000001CE062
:1002900050EA010208BF70474FF000030AE000BFB8
:1002A00050EA010208BF704711F0004302D54042F6
:1002B00061EB41015FEA010C02BF84460146002068
:1002C00043F0B64308BFA3F18053A3F50003BCFA83
:1002D0008CF2083AA3EBC25310DB01FA02FC634430
:1002E00000FA02FCC2F12002BCF1004F20FA02F237
:1002F00043EB020008BF20F00100704702F120022A
:1003000001FA02FCC2F1200250EA4C0021FA02F28A
:1003100043EB020008BF20EADC7070474FEA40025E
:10032000B2F1FE4F0FD34FF09E03B3EB12620DD923
:100330004FEA002343F0004310F0004F23FA02F08D
:1003400018BF404270474FF00000704712F1610F34
:1003500001D1420205D110F0004008BF6FF000400B
:1003600070474FF0000070477BB972B90029BEBFDB
:1003700000204FF0004106E008BF00281CBF6FF0CE
:1003800000414FF0FF3000F057B8ADF1080C6DE9B7
:1003900004CE002909DB002B1ADB00F057F8DDF84A
:1003A00004E0DDE9022304B07047404261EB410103
:1003B000002B1BDB00F04AF8DDF804E0DDE9022346
:1003C00004B0404261EB4101524263EB430370478A
:1003D000524263EB430300F039F8DDF804E0DDE955
:1003E000022304B0404261EB41017047524263EB8B
:1003F000430300F02BF8DDF804E0DDE9022304B04C
:10040000524263EB4303704753B94AB9002908BF0E
:1004100000281CBF4FF0FF314FF0FF3000F00CB848
:10042000ADF1080C6DE904CE00F010F8DDF804E041
:10043000DDE9022304B07047704700BF034613F89C
:10044000012B002AFBD1181A013870472DE9F0471B
:1004500086468C460846089E154674461946002B6B
:1004600040F0C2808542B2FA82F245D94AB1C2F167
:10047000200300FA02FC2EFA03F3954043EA0C0C29
:1004800094404FEA154EA8B2BCFBFEF8230C0EFBBD
:1004900018CC08FB00F943EA0C43994528D9EB181E
:1004A00008F1FF3704D2994502D9A8F102072B447D
:1004B000A3EB0903A4B2B3FBFEFC0EFB1C330CFB45
:1004C00000F044EA0344A04214D92C190CF1FF3384
:1004D00004D2A04202D9ACF102032C44241A43EA0C
:1004E00007401EB1D440002334607360BDE8F0873C
:1004F0004746DDE76346F1E792BB431B01214FEA24
:10050000154EAFB2B3FBFEFC200C0EFB1C330CFBF4
:1005100007F840EA0343984562D9EB180CF1FF3025
:1005200004D2984502D9ACF102002B44A3EB080396
:10053000A4B2B3FBFEFC0EFB1C330CFB07F744EA32
:100540000344A7424ED92C190CF1FF3304D2A74221
:1005500002D9ACF102032C44E41B43EA0040C0E79B
:10056000C2F1200320FA03F1954090402EFA03F3E4
:1005700003434FEA154EAFB2B1FBFEFC0EFB1C105D
:10058000190C0CFB07F841EA0041884504FA02F413
:1005900022D969180CF1FF3004D2884502D9ACF198
:1005A00002002944A1EB08019BB2B1FBFEFC0EFB4B
:1005B0001C110CFB07F743EA01439F420ED9EB18CD
:1005C0000CF1FF3104D29F4202D9ACF102012B445D
:1005D000DB1B41EA004192E76046E3E76146F7E74B
:1005E0006046A3E76346B7E7834206D916B9002100
:1005F00008467BE7C6E900E0F9E7B3FA83F78FB96D
:10060000834201D3724508D8BEEB020460EB0303BA
:1006100001209C461EB9002168E73846FAE7C6E982
:10062000004CF8E7C7F1200CBB4022FA0CF41C4345
:100630002EFA0CF120FA0CF3B84001434FEA1449AA
:100640000EFA07F5B3FBF9F81FFA84FE09FB183020
:100650000B0C08FB0EFA43EA00439A4502FA07F234
:1006600040D9E31808F1FF3004D29A4502D9A8F125
:1006700002002344A3EB0A0389B2B3FBF9F809FB98
:10068000183308FB0EFE41EA03418E452CD9611850
:1006900008F1FF3304D28E4502D9A8F102032144A8
:1006A00043EA0040A0FB0298A1EB0E014145CE4673
:1006B000434602D306D14D4504D2B9EB020E68EB96
:1006C00004030138002EA6D0B5EB0E0261EB030146
:1006D00001FA0CFC22FA07F34CEA0303F940C6E9DD
:1006E000003198E74046C5E74346D9E7F0B5204FCB
:1006F000204D214E8FB00024234603222046CDE911
:1007000000440297294610F054FC4FF0FF324FF09E
:10071000FF330AA800F080F80028ECD09DF82930BB
:1007200016499DF828000094A34218BF3146DDE920
:100730000C23CDE90623124BCDE90301CDE901439A
:10074000032223462946204610F033FC9DF828302A
:100750008DF824309DF829301B1B18BF01238DF81C
:1007600025300022002309A906480EF08BFDC2E7C0
:100770006F550100044D0100665501005E550100F2
:1007800092550100600800202DE9F04F904685B099
:1007900013F0B1FE4FF47A73A0FB030503FB015580
:1007A000C40B1B4FDFF86C9044EA45440026ED0B68
:1007B00097F804A028FA0AF3DB0721D53868D0F8A7
:1007C00010B0836869465B68984750B9009BDBF8B6
:1007D00000205A40012303FA0AF31A4214BF0120F1
:1007E0000020B0FA80F04009CDE902458DF80060A4
:1007F0008DF8010000220023694648460EF042FDB4
:100800000136072E07F10807D2D105B0BDE8F08FF9
:10081000584E01003008002008B5014603480EF08C
:100820008BFDB0FA80F0400908BD00BF3008002001
:100830002DE9F04F3F4C404FDFF800A187B0002674
:10084000A346206813F026FC034690B95BF83620D7
:100850003B4912680090CDE903623A4ACDE90102B2
:10086000012210F0B6FB6FF01205284607B0BDE874
:10087000F08FE3882068217943EA0A020569D0F8FD
:1008800008C013F0010F4FF0010E2B680EFA01FEA5
:1008900014BF4EEA030323EA0E032B60DCF800309A
:1008A0009847054658B1284B039602930023CDE99B
:1008B000003323490122184610F08BFBD5E720684E
:1008C000217983689D694DB14FF000734FF0A0729C
:1008D000A847054628B11D4B0396E6E76FF057057C
:1008E000F9E794F804901A4B7B60012202FA09F3AD
:1008F000D4F80080BB60D8F80830DB6913B1394602
:1009000040469847CDF81490D8F800300C49CDE90E
:100910000363104B02930023CDE9003303221846F2
:10092000013610F056FB072E04F1080407F10C07FE
:1009300087D19AE7584E0100D00C0020100001002A
:100940000C4D0100C6550100E4550100025601009E
:1009500089070000285601002DE9F04F304CDFF8E0
:10096000C480314F87B000254FF00109266830461A
:1009700013F090FB034670B92C4A2B490395CDE93F
:1009800001020090012210F033FB6FF0120A504672
:1009900007B0BDE8F08F20682179E388D0F810C057
:1009A000D0F808E0DCF800A0DA0754BF43F4B01335
:1009B00083F4D01323F4801209FA01FBDB074CBF48
:1009C0004BEA0A032AEA0B03CCF80030DEF80030C9
:1009D0009847B0F1000A0BDA154B02930023CDE9DA
:1009E0000033114903950122184610F001FBCEE7B0
:1009F000237905933368CDF808800026CDE90353A9
:100A0000CDE900663346032239463046013510F001
:100A1000EFFA072D04F10804A8D1B246B7E700BFEA
:100A2000904E01008A560100444D010053560100CA
:100A30006B560100062803460A4615D80C4951F8A2
:100A4000300001EBC3010123097903FA01F10369C5
:100A50001B68194218BF82F0010212B18368DB687B
:100A6000184783681B69FBE76FF01500704700BFEC
:100A7000904E010008B5014603480EF05DFCB0FA47
:100A800080F0400908BD00BF60080020F0B5184F95
:100A9000184D194E89B00024234603222046CDE983
:100AA00000440297294610F0B2FA4FF0FF324FF09F
:100AB000FF3307A8FFF7DEFF0028ECD09DF81D30BC
:100AC00004939DF81C302946CDE902632046CDE908
:100AD00000442346032210F09AFA9DF81D109DF859
:100AE0001C00B1FA81F14909FFF7A4FFD3E700BF69
:100AF000AF5601003C4D0100D156010030B589B020
:100B0000C1F34004CDE9063401F0010100240F4B8C
:100B10000D9D0592CDE903010293CDE900440C49F6
:100B200023460322204610F082FA6DB1094B03934D
:100B3000094B0749CDE901439DF83030009303226A
:100B40002B46204610F073FA09B030BD055701005E
:100B50006C4D010038570100F963010010B588B0F1
:100B600004460DF11F010DF11E0010F072FF9DF8FB
:100B70001F300749CDE90343064B02930023CDE91B
:100B800000330322184610F052FA08B010BD00BF1F
:100B90006C4D0100425701002DE9F04399B007AFB9
:100BA00000F038FB00243946082209AE0120ADF8D8
:100BB0001A4000F099FA31460822022000F094FA17
:100BC00010220EA9032000F08FFA4FF6FF73ADF844
:100BD0002C30AC4BCDF82E40CDF83240ADF836403D
:100BE0000C93A94D284613F055FA034668B92A68B4
:100BF0000392A64AA6490090CDE90102012210F015
:100C000016FA002019B0BDE8F0832B680393A14BBE
:100C10009F490094CDE9014303222346204610F06A
:100C200006FA03F09DF9002809DA9B4B0390CDE901
:100C3000014300942346964901221846DFE70BA89A
:100C400003F078F9954803F085F902220DF11A01B5
:100C5000204600F0FDF90028C0F29780BDF81A3058
:100C600003938F4B8A490094CDE901430322234625
:100C7000204610F0DCF908223946012000F0E8F99E
:100C80000028ACBF874A884A8149DFF820824FF0AC
:100C90000003A9BFCDE90132CDE90132009303225F
:100CA000BCBF00930222184610F0C1F90822314659
:100CB000022000F0CDF90028ACBF7D4A7D4A74497E
:100CC0004FF00003A9BFCDE90132CDE90132009315
:100CD0000322BCBF00930222184610F0A8F910228C
:100CE0000EA9032000F0B4F9041EACBF724A734A87
:100CF00067494FF00003A9BFCDE90132CDE90132C8
:100D000000930322BCBF00930222184610F08FF913
:100D10000EABCDE91333BDF81A30ADF85430039360
:100D2000674B5B4916970025CDE9015300952B468B
:100D30000322284612968DF85C5010F078F9544F33
:100D40002E462B460493BDF85430CDE90283002390
:100D5000184603223946CDE9006610F068F912A85A
:100D600002F086FFA146041E05F101056FDA14F1B9
:100D7000740F17D1534B0096CDE901630222002373
:100D80003946184610F053F917E04F4B404900948C
:100D9000CDE9014303222346204610F048F9ADF87F
:100DA0001A4068E7494B0394CDE90163002300969C
:100DB00001223946184610F03AF9BDF81A300133CD
:100DC0009BB202220DF11A010020ADF81A30ADF8E5
:100DD000543000F063F9002810DA3D4B0096CDE95D
:100DE00001630023CDE9036901223946184610F05A
:100DF0001EF94FF42030002113F004FB002CA0D189
:100E0000344B0094CDE90143204623462049324E1D
:100E1000324D1F4C032210F00AF901230A223146F9
:100E2000052003F00DF810F10B0F17D12C4B029396
:100E300000230390CDE9003301222146184610F02B
:100E4000F6F800214FF4A02013F0DCFAE5E7254B7B
:100E50000096CDE901630322002391E700284FF0BB
:100E6000000305DA204A0390CDE901320093E2E65F
:100E7000CDE90135009303222146184610F0D7F83A
:100E8000DFE700BFFD0A0000344A01006657010099
:100E90006C4D01007C5701008E5701005D0B000076
:100EA000A7570100E7570100FD570100DB5801007B
:100EB000335801004A580100815801009758010039
:100EC000CD58010011590100C357010031590100EB
:100ED000535901007359010044070020C259010011
:100EE0008359010042590100AA59010030B5044656
:100EF0001B48A06289B013F0CDF8A56A034658B923
:100F00002A680392174A18490090CDE9010201228C
:100F100010F09CF809B030BD4FF47A2121602846CA
:100F200005AA12F094FC054648B1104B0293002329
:100F3000CDE9003303900C4901221846E8E7069BEF
:100F4000A3810323E381204600F084FE0028E1D042
:100F5000074B0390CDE9015300952B46EBE700BF0B
:100F6000F8490100D25901007C4D0100F0590100FF
:100F7000105A01002DE9F04F02EB42035E1C0833CA
:100F800087B023F00703DFF850B006AFADEB030DD9
:100F900005460DF1180A88468C184FF00009A04547
:100FA0000FD10E4B02930023CDE9035ACDE9003354
:100FB0000B490322184610F059F80437BD46BDE826
:100FC000F08FA6EB09010AEB090018F8013B5A461D
:100FD0000FF036FD8144E2E72A5A0100305A010041
:100FE000844D010030B51848184D174C87B0FFF7F5
:100FF0007DFF4FF0FF324FF0FF3301A928460EF07E
:101000009BF90028F5D19DF804303BB1012B13D09A
:10101000049B6BB16FF015021A6009E0DDE9022351
:10102000BDF80610204610F080FB049B03B1186049
:1010300005980EF0ABFADCE7DDE90223BDF80610F7
:10104000204600F0D9FFF0E7240D00209008002092
:1010500010B58CB0002306ACCDE902128DF8043037
:10106000ADF80600CDF810D00594012219462046AF
:1010700013F0D6F808480022002301A90EF002F967
:10108000002807DB4FF0FF324FF0FF3320460EF011
:10109000B1FA00980CB010BD9008002010B58CB0CB
:1010A000012306ACCDE902128DF80430ADF806003C
:1010B000CDF810D0059400211A46204613F0B0F860
:1010C00008480022002301A90EF0DCF8002807DB05
:1010D0004FF0FF324FF0FF3320460EF08BFA0098AE
:1010E0000CB010BD900800202DE9F0438BB00546F0
:1010F00089461646FFF7ACFFDFF8F480002858F861
:101100002530039311DB3B4B02930023CDE90033E1
:101110001846394903220FF0A9FF58F82500324636
:101120004946FFF727FF002718E00024334B0293BE
:10113000CDE9004430492346022220460FF096FFB5
:10114000102E0FD92E4B2C490094CDE901430122DA
:10115000234620460FF08AFF6FF0150738460BB084
:10116000BDE8F083314606A812F0C1FA002815DB6D
:10117000324606A92846FFF791FF071E29DA049791
:1011800058F8253003931F4B1B490094CDE90143C8
:101190000122234620460FF069FFDFE71A4B16496C
:1011A0000396CDE9014301222346204600940FF027
:1011B0005DFF58F825300393144B0F490094CDE997
:1011C00001430122234620460FF050FF6FF0040731
:1011D000C4E7324606A9484613F0D2FA58F825303B
:1011E00003930B4B0094CDE90143234690E700BFE6
:1011F000C8040020375A0100844D0100485A0100FC
:10120000815A0100F55A0100A65A0100D05A010086
:101210001D5B010030B585B00025164B16490293C1
:1012200003222B462846CDE900550FF02EFFFFF78D
:10123000FFFA044668B1114B0390CDE901530E4902
:1012400000952B46012228460FF01FFF204605B0CF
:1012500030BDFFF781FB044610B1094B0390ECE76A
:10126000084B05490090CDE90103032203460FF026
:101270000CFFEBE76E5B0100FC4C0100815B0100A1
:10128000995B0100AE5B010010B5094C0A44914224
:1012900000D110BD11F8013B584003090001E35C87
:1012A000C0B2434018091B01205CDBB25840EEE796
:1012B000CD5B01002DE9F04F91B08407009302F05F
:1012C00004030293C2F3C20303F10103DDF8688053
:1012D000039205460E46059340F0BA81041D30B1D5
:1012E000072909D86FF01B0011B0BDE8F08F01F09D
:1012F00007063444C6F10806009B4FF00009591E4A
:101300004FF0040A4FF0FF330193CDF810904F4691
:10131000CB4653460DB1009A22600598002800F391
:10132000E8809848009A824203D397488242C0F0EE
:10133000E080039AA4EB050E92074FEA9E0000F1AD
:1013400003810F2F00F2B180002D00F0058107F11D
:1013500040020DEB020C019A0CF8200C0CF8102C3A
:10136000049801300490E7E07A285DD84B280ED825
:10137000472859D829282DD8252852D054D8202894
:101380007AD02338D0F1000B4BEB000B74E04C38D3
:101390002E2849D8DFE800F07048484848484848B7
:1013A000484848484B484848484848484859484BA6
:1013B0004B595959704B6D487048184B1848488222
:1013C0007F4B48484B487F0000204FF0000B4FF008
:1013D000040A38E02A38C0B2012202FA00F010EA0A
:1013E0000E0F49D110F0625C2FD110EA020B43D0EE
:1013F0006046013C5444B4FBFAF40AFB04F4002DAB
:1014000061D0A3EB050CA444B4453FF66BAF0028B4
:1014100068D1042B47D158F8043B236004340423DB
:101420002AE0019A013A01924FF0000B24E011F8F2
:10143000010C6C2834D111F8023C00206C2B83463F
:10144000C5D14FF0080A5346D3E708F1070828F042
:1014500007080734F8E802AB24F0070435B1069812
:101460002044B0423FF63EAFC4E900AB08344FF031
:10147000000B4FF0080A534611F8010F002878D0EE
:10148000BBF1000F7FF470AF2528F5D1019B01332C
:1014900001934FF0010B4FF0040AECE7584694E734
:1014A00000208346A5E7082B02D06FF015001BE74C
:1014B00008F1070828F00708F8E80223C4E9002328
:1014C00008340823D8E768B9042B02D108F10408CE
:1014D000A4E7082BE9D108F1070828F0070808F16C
:1014E0000808EDE7059A013A059258F8042B009296
:1014F00010E7039A900720D5A4EB050E4FEA9E0053
:101500004FF0010CBEF5007FCFD20F2FCDD8F5B133
:1015100007F140020DEB020EC0B2019A0EF8200C4A
:101520000EF8102CBCF1000F3FF41AAF60F07F00F2
:101530000EF8200C09F101090137C5F10802043445
:1015400006924FF6DA7E97E74FF0000CDAE7BCF12F
:10155000000F01D00136EFE7029802360028EBD1E8
:101560000098CDE90631FEF769FFDDE90631064452
:10157000E2E7631BB3F5806F97D23DB9A6F108048B
:10158000E018B1E6EC48010010730100029A2860EF
:101590009B082B709DF81030C2B1EB7085F802905B
:1015A000B9F1000F05D008A80022C5F1010C97423F
:1015B0000ED1C5F101030DF120084FF0000A01938F
:1015C0000DF1300B574512D1601B8DE66B70E5E7CE
:1015D00010F8013B190608D50CEB040EB64503F0D4
:1015E0007F033FF67FAE04F8013B0132DFE7B9F13C
:1015F000000F03D098F90020002A17DB029BD3B11B
:101600001AF80B2004F8012B0022019B1819104432
:10161000B0423FF667AE98F8000004F8010B00995D
:101620000392204613F0ACF8039A14440AF1010A1D
:1016300008F10108C6E798F8002055F82230009319
:10164000029B45F822300098FEF7F8FE421CDCE7CA
:101650006FF00D0048E600BF014B1860704700BFF7
:10166000D804002080B505460E46174698460EF071
:1016700045FC034613F030F9DFF81890044649F8AA
:101680000030424630463946A84754F8090001F078
:1016900083FE00BF0800000008B50446EFF3118385
:1016A000202383F31288BFF36F8F0BF01DFC2046BD
:1016B00002F092F902480FF00AFE10F070F9FCE710
:1016C000EE5B01002DE9F047058B044628079046A4
:1016D00011D4022905F0070540F0CC8020460FF018
:1016E00003FE78B10138218B042811D8DFE800F01F
:1016F000C2106D85950001290CBF45F0100545F01D
:101700002005258388F31188BFF36F8FBDE8F0872C
:1017100001F0070AAA4500F0A5800027B9463E4619
:10172000A368002B00F0BC8041F00801218388F3FE
:101730001188BFF36F8FA168002900F0BA800D688F
:10174000002900F0B680D1F8048033465246204686
:10175000C047002D76D02B6829461D46F0E701F0E2
:1017600007035A1F012A1BD8002221F00701062B6C
:10177000276889B2C4E9002209D13B4603E0628BA5
:10178000013262831B68002BF9D141F002012183F1
:1017900020460FF0A9FD00287AD041F0200176E024
:1017A000042B0AD121F0070189B2218320460FF0D2
:1017B0009BFD10B141F020012183218B01F0070A2C
:1017C000AA454FD00027B946AAE7236921F00701AF
:1017D00041F00601062DD3F8009021832DD1B9F1F7
:1017E000000F3FD041F00801218388F31188BFF337
:1017F0006F8F3A492046C84729E021F00701236945
:1018000041F0040189B2042DD3F804902183E6D07D
:1018100000273E464FF0040A82E721F007012369C2
:1018200041F0050189B2052DD3F808902183D6D067
:1018300000273E464FF0050A72E700273E464FF06C
:10184000060A6DE72B4687E7B9F1000FD1D1EFF318
:101850001188202383F31288BFF36F8F238B23F02B
:1018600008032383258BEA062ED525F01003238356
:1018700005F007056669218B002EBFF670AF0023C7
:101880002768C4E9003321F0070141F001012183F9
:10189000218B01F0070AAA454FF000097FF440AF01
:1018A000002F9CD041F00801218388F31188BFF3F9
:1018B0006F8F002FC8D03D683946334652462046C8
:1018C0000FF03EFD2F46F4E7AB067FF51BAF25F08A
:1018D0002003238305F0070500E700BF6D13010017
:1018E00070B5838905680E0C090C86B003FB0155A1
:1018F000CDE90453104B0393104B0293044600238D
:101900000822CDE9003218460D4904220FF022FECC
:101910003604A06AA28929460FF0F3FF50B9E26AA3
:10192000A3895279314620460FF0D3FD002818BF15
:101930006FF0050006B070BDDA5D0100175C0100B4
:10194000344D01002DE9F04389B04B8804931D4BC1
:1019500003931D4B0293082400230746CDE900346E
:101960000D4618461949DFF8689004220FF0F2FD81
:10197000F86A21460FF0FEFD2C68241A80462C6080
:1019800004EA0906B44203D8002009B0BDE8F08398
:10199000082306AA214638460FF08DFD0028F4D111
:1019A00006A938460FF0F0FD40B1BDF81A30BDF879
:1019B0001C202C6006EA090613441E44A4EB08040C
:1019C000E0E700BFC55D0100385C0100344D010057
:1019D0000000FFFF70B588B083880493114B039318
:1019E000114B02930025044608230422CDE900533D
:1019F0000E492B4628460FF0ADFD4FF6FF76A36843
:101A0000ADF81A3006A8ADF81860ADF81C508DF886
:101A10001E600FF096FD06A920460FF075FE08B077
:101A200070BD00BFAA5D01005F5C0100344D010084
:101A300073B504460821C06A124E0FF09BFD4FF6A5
:101A4000FF726368ADF800208DF80620A28919188E
:101A500033401344181A002560606846ADF8021040
:101A6000ADF804500FF06DFD694620460FF04CFEB6
:101A70002046211D0FF058FD636828463340A360BF
:101A800002B070BD0000FFFF2DE9F04F04469BB08F
:101A9000C06A08210FF06EFD63681B0C1B0405462D
:101AA00009A9204609930FF03FFDDDF824B0A6896F
:101AB0005E44761B0CAA0823314620460A960FF096
:101AC000FAFC021EC0F2BB80E36A0CAA597900231B
:101AD00012F8010B814240F0A1800133082BF7D1AD
:101AE000A36862682B449A4280F090805946204651
:101AF000FFF7F6FE0246A2E0BDF83230360C36049F
:101B00001E440A960EAA0AA92046DDF828A00FF066
:101B100078FD0246002840F092800EA920460FF082
:101B200033FD18B9079B5345ECD1D9E763680B9394
:101B300010AA0BA920460B9E0FF063FD0246002859
:101B40007DD1BDF84020BDF838309A4238D0626867
:101B50000B9B9A42ECD1B245E4D1BDF83C30002B4E
:101B6000E0D00593BDF838300493374B0393374BDF
:101B7000029308220023CDE900321846344904229A
:101B80000FF0E8FCBDF83A704FEA1A431B041F44FB
:101B90000EA8A368ADF83A300FF0D3FCE36ABDF8A5
:101BA0003C901E68764206F02006B9F1000F0ED177
:101BB0000EA920460FF0A8FD02460028B2D03EE054
:101BC00010A920460FF0E0FC0028C0D0C3E74E4526
:101BD000B04628BFC84612AA4346394620460FF0F1
:101BE0006AFC024658BB4346A16812AA20460FF081
:101BF00052FD41460246E06A0FF0BCFCA368034474
:101C0000A360E2B9A9EB08094744CEE72046FFF7F5
:101C1000E1FE024600283FF469AF10E0731B0CA9F7
:101C2000204607930FF0CFFC00287FF465AF0AA988
:101C30002046FFF787FE024600283FF463AF1046B8
:101C40001BB0BDE8F08F00BFBE5D01007C5C0100F1
:101C5000344D01002DE9F04704468EB000F1140721
:101C6000384612F0D6FAA06A8368DB6898470346C4
:101C7000E06230B9904A0090CDE901028F4901221B
:101C80000FE0A06A8368DB6898470368013B1F2B5D
:101C90000FD98B4B02930023CDE9003387490122F2
:101CA00018460FF057FC6FF0150528460EB0BDE83A
:101CB000F087A06A21680BAA11F0C9FD08B1814B19
:101CC000E8E7A5892DB10C9BB5FBF3F203FB125598
:101CD0000DB17D4BDEE7E389012B05D87B4B0095E9
:101CE000CDE901532B46C9E7E36A069593F80590C1
:101CF0004FF0FF334FF0FF3238460DF07FFBE06AC4
:101D000008210FF037FCA8460646E3891FFA85FA3A
:101D1000534508D8E389434523D138460DF0E6FB07
:101D20006FF02C05C1E7A1892B04891B13FA81F1FF
:101D30004A460823204606910FF0CBFB78B106A94E
:101D400020460FF0F1FB08F10108069908234A46E6
:101D500020461FFA88F80FF0BCFB0028DAD00135C6
:101D6000D3E753450BD1069908234A46891B2046E1
:101D70000FF0AFFB18B906A920460FF0D5FB06A956
:101D80002046FFF7DFFD054618B138460DF0AEFBE3
:101D90008BE7069B63604FEA13484FEA0848C4F894
:101DA0000880D4E9011399420FD3082307AA2046DB
:101DB0000FF081FB05460028E7D107AB13F8012B94
:101DC000914543D10135082DF8D163681B0C1B04E4
:101DD00006A9204606930FF0A7FBA38906994A4659
:101DE00020460FF076FB051ECFDB636800F0828093
:101DF00006EB03084FF6FF79A389CDF818801FFA88
:101E000088F29B1B9A423DD3314B02930023184624
:101E1000CDE90033294903220FF09CFB616820467D
:101E2000FFF75EFD05460028AFD16368294AA18906
:101E300013400B44A3EB460363601340A3602046AA
:101E4000FFF722FE0546002D70D09EE707A9204629
:101E50000FF09AFB626810B9921B6260A1E7BDF8AF
:101E60002050BDF81E10E06AC4F8088029440FF025
:101E700081FB40449042A060EED1002DECD06FF089
:101E80001C0590E0082309AA414620460FF013FBE9
:101E9000054600287FF479AF09A920460FF074FBAE
:101EA00038B1BDF824304B4503D1BDF82830002BA4
:101EB0007FD0B044A0E700BFA65C0100344D010014
:101EC000C85C0100E55C0100FD5C0100115D0100E2
:101ED0006E5D01000000FFFF5B1A4A4620460FF0CE
:101EE000F8FA051EFFF651AF08D0E26AA36812683F
:101EF0001344A360D4E901318B42EDD86168A38912
:101F000001EB46029A429ED1DFF8D480A26801EA32
:101F100008039A4297D02046FFF7E2FC05460028C6
:101F20007FF433AF636803EA0803A360A389A28840
:101F3000A3EB46039A4232D038460DF0D7FA01237C
:101F40002374A3890493E38903930025254B02930B
:101F500028462B46CDE90055234903220FF0FAFA13
:101F60006368214900959AB21B0C03931F4B04929E
:101F7000CDE9015328462B4603220FF0EBFAA36864
:101F8000194900959AB21B0C0393194B0492CDE9A1
:101F9000015303222B4628460FF0DCFA85E6204643
:101FA000FFF718FD054638460DF0A0FA002DC6D003
:101FB0007BE6104B0C490095CDE9015303222B46DB
:101FC00028460FF0C7FA63681B0C1B0406A92046BD
:101FD00006930FF0A9FA06992046FFF781FC31E736
:101FE0000000FFFF345D0100344D01004B5D010036
:101FF0005D5D0100955D01002DE9F04F1D4695B036
:10200000037C06910446049273B9664A66490093BC
:10201000CDE90132184601220FF09CFA6FF00C0650
:10202000304615B0BDE8F08FC26A082110460FF0A7
:10203000A1FA2946059010460FF09CFAA389059A4B
:10204000A3EB8203AB420746C0F0A9801DB1049BFD
:10205000002B00F0A480636809930AAA09A920460E
:10206000DDF824A00FF0CDFA06460028D8D1BDF83F
:102070002830069A934206D06268099B9A42ECD1B6
:10208000002D36D1CCE70AA920460FF07DFA0028B2
:10209000F2D0BDF82A80BDF82C3045B39D4228D13E
:1020A000E36ADDF810B01B684FEA1A4A5B424FEA58
:1020B0000A4A03F02003D0440793AA46DDF81C9097
:1020C000D14528BFD1464B460CAA414620460FF0C9
:1020D000F2F900284AD14A460CA9584612F080FB72
:1020E00038B9BAEB090AC844CB44E7D198E7002BCA
:1020F00096D0002F3DD1B84604F1140A4FF0FF32BC
:102100004FF0FF3350460DF079F9E3899E4243D0FA
:10211000A168626808EB01039A422FD3069BADF8D1
:102120003030FF238DF83630049AADF832102B464C
:102130002046ADF834500FF0AEFA29460746E06A63
:102140000FF018FAA3680344A36057B90CA80FF066
:10215000F8F90CA920460FF0D7FA002814BF07465B
:102160002F4650460DF0C2F93E4659E7C1DC0646FF
:1021700056E7059B1F441FFA87F8BDE72046FFF787
:1021800057FC07460028ECD12046FFF77DFC0746A8
:102190000028E6D10136B8E76FF01B07E1E76FF0E2
:1021A00015063DE7925C0100344D01002DE9F04732
:1021B0001E4688B0037CBDF8409004460F4690460A
:1021C0006BB92F4A2F490093CDE9013218460122FD
:1021D0000FF0C0F96FF00C0008B0BDE8F087C06ADE
:1021E00008210FF0C7F9A389A3EB4003B34243D3FF
:1021F000D4F804A0CDF814A000254D455146DDF8D3
:1022000014A009D9636853451ED1BDF81830BB42EC
:102210001AD06FF00100DFE706AA05A920460FF0EB
:10222000F0F90028D8D1BDF81830BB4206D106A974
:1022300020460FF0A9F908B10135ADB26268059BDF
:102240009A42DAD15146E0E7BDF81C30002BE0D0CD
:10225000A945DED8BDF81A00090CB3424FEA014186
:1022600028BF33460144424620460FF024F9002897
:10227000B2D1BDF81C00AFE76FF01500ACE700BFAE
:10228000925C0100344D01002DE9F84F81462F4842
:102290000F460FF055FA064670B92D4CDFF8B4A082
:1022A0000546A0464FF0010B544507D3B9F1000F86
:1022B00002D04FF0010AE5B9BDE8F88F237B6BB17E
:1022C0002368DB680BB12046984723681B6943B934
:1022D000636804221968204600F0C8F801361034FB
:1022E000E2E7204698470028F2D00BFA06F31D4398
:1022F000F4E7A94695FAA5F4B4FA84F40AFA04F3CB
:10230000260108EB04146FEA030B25EA0305237B7F
:1023100063B158F806301B6993B9464404227368C8
:102320002046196809EA0B0900F0A0F8002DE1D158
:1023300027B14FF4A470002112F064F84D46BAE7BB
:10234000204698470028F1D1E7E700BF5C0D002048
:10235000CC4D0100EC4D0100014B53F820007047BB
:10236000C84E010008B5034608462BB1044A136065
:1023700000F082FA002008BD6FF01500FBE700BFF7
:10238000DC040020054A064800231370054A136048
:10239000054A4FF400411360FFF7E4BF66270020B1
:1023A0003D170100540D0020580D002070B50B4D55
:1023B000297841B90120FFF767FF094C094EB44263
:1023C00002D301232B7070BD63685B791BB1236856
:1023D00020469B6898471034F1E700BF662700202D
:1023E000CC4D0100EC4D010010B5044608480FF03B
:1023F000A7F95CB1BFF35B8F064B53E8001F0139AF
:1024000043E80012002AF8D1BFF35B8F10BD00BF74
:10241000540D0020580D002070B50A4B0A4C1B6863
:102420000A4E05469847A860B44200D370BD636861
:102430005B7923B1236829461B68204698471034EE
:10244000F2E700BFDC040020CC4D0100EC4D0100A0
:10245000044A054B9B1AB1EBD30F34BF52F831003D
:1024600000207047FC4C0100CC4D0100084BC31A02
:1024700010B41B1144680133237143689A71436897
:102480001960436801225A7110BC0FF07BB900BF7C
:10249000CC4D01002DE9F04F87B004AFD7E90EA96C
:1024A0003D6B04460E4693469846BAF1000F1ED087
:1024B000C7F80490CDF8009010217A6B53460020A5
:1024C000FEF7F8FEB0F5006F014611D340F2FF733E
:1024D0000393194B02930023CDE9003317490222DD
:1024E00018460FF06BF90C37BD46BDE8F08F51462A
:1024F00004F007040BF0070BE40044EA8B1444EAF1
:10250000412444EA055417350D4425F00705ADEB89
:10251000050D04ADBAF1000F07D0CDF800907A6B2D
:10252000534605F11000FEF7C5FE434622463146EC
:1025300028460FF02AF9D6E7055E01004C4D010050
:10254000406820B1034BC01A40F3CF0070474FF0F2
:10255000FF307047FC4C01000EB403B503AB0146DD
:1025600053F8042B0448019301F0C8F902B05DF858
:1025700004EB03B0704700BFF9170100CA0605D489
:102580008B064CBF02490349FFF7E6BF704700BF07
:102590003E5E01003D5E01002DE9F04F87B004462C
:1025A0009DF844600D4690469946002E00F0A280AA
:1025B000159B03F0020A03F001030493159B03F03B
:1025C000080B03F4807305930FF0DDF80246002832
:1025D0003DD095492046FFF7BFFF0746BAF1000FEF
:1025E00009D0159B13F0440F33D190492A46204659
:1025F000FFF7B2FF0744049B53B18D4B8D4953F84D
:1026000026208D4B2046002A08BF1A46FFF7A4FF5C
:10261000059B002B49D0BBF1000F64D1B8F1000F2E
:1026200066D0864942462046FFF796FF0546129B34
:102630003D44002B6DD1149B002B73D1159BDB0700
:1026400000F1EB8015992046FFF798FFD8E0074688
:10265000C4E77B4B18680028CCD07A4B4FF47A7AC9
:102660001B68B5FBF3F54FF46163B5FBF0F100FBBC
:1026700011550AFB05F54FF03C0CB1FBF3F203FBDF
:102680001211B5FBF0FEB1FBFCF300FB1E550CFB79
:1026900013110AFB05F50091B5FBF0F56A49CDE988
:1026A00001E52046FFF758FFA4E7BBF1000F1DD05E
:1026B000664B674953F826202046FFF74DFF054635
:1026C000B8F1000F05D05D4942462046FFF744FFB0
:1026D0000544B9F1000FAAD05E494A462046FFF7EB
:1026E0003BFF0544A3E74FF00009E1E75D46E7E75C
:1026F00045469CE7B9F1010F129B06D1002B66D12C
:10270000149B002B7CD000250CE0002BF8D0524805
:102710005EE05248129B524922460EF0A5FD149BE2
:10272000002B6AD0DFF83C81DFF83C91149F1599AB
:10273000102F204628BF1027FFF720FF4FF0000B77
:102740005D4547DC139B49461A782046FFF704FF96
:102750004FF0010B1BF0070F03D141462046FFF756
:10276000FBFE5F453DD9139B494613F80B202046DD
:10277000FFF7F2FE0BF1010BBBF1100FEAD13B4961
:10278000DFF8ECB020464FF0000AFFF7E5FE5246B6
:10279000139B9A5CA2F120015F2928BF2E22594683
:1027A0002046FFF7D9FE0AF1010ABAF1100F1DD039
:1027B0001AF0070F03D141462046FFF7CDFE5745DB
:1027C0005246E5D841462046FFF7C6FEEBE72348D0
:1027D00035469FE741462046FFF7BEFE0BF1010B51
:1027E000AEE724492046FFF7B7FEC3E7139B3B44FF
:1027F0001393149BDB1B149398D1002E7FF41EAF10
:102800006268A1682068D2E900230EF0E7FF6368E0
:1028100000221A6007B0BDE8F08F074A054920463C
:10282000FFF79AFE0EE700BF455E0100495E01001A
:10283000D84E0100F9630100405E01006E5E0100A8
:10284000640D0020600D0020525E0100EC4E01007E
:10285000725E0100785E010015180100F917010091
:10286000FD380000855E01007D5E0100875E01008D
:10287000895E0100835E0100074A00210123904226
:1028800006D8064A01B901231360054B186070474A
:1028900040085B000121F2E740420F00600D00207C
:1028A000640D0020014B01221A7070476727002039
:1028B000014B0020196070477C0D002010B5064BBD
:1028C00018680C46FFF748FD21460346BDE8104056
:1028D00002480F22184700BF7C0D00201C4F01004A
:1028E000F8B5094D094B0A4ED5E9004701221A7087
:1028F0000CB92C60F8BD214630463A4600F00AF883
:10290000241A0644F4E700BF700D00206827002059
:1029100069270020F8B5194D07460E4604243246B3
:10292000394600200CF062FAC8B101232B70144B19
:102930001B782BB93046F8BD5CB92C704FF0FF34D2
:1029400000200CF097FA0028F4D02B78002BF3D15C
:10295000F0E7013C41F2883011F097FBF0E72B786B
:1029600013B1013C04D12C702B78002BD7D1E1E7B7
:1029700041F2883011F089FBF6E700BF672700209D
:1029800068270020F8B5074F0D4604464618B442A4
:1029900001D12846F8BD14F8011BBB6801485B68EB
:1029A0009847F4E7D0490100014B036000207047CD
:1029B000604F010008B504480EF089FCBDE80840EE
:1029C00002480EF084BC00BFDC5E0100115F010014
:1029D00001480DF08DBE00BF604F010038B50446C0
:1029E00018B90F4B0F485B6898476168B1F5683FAD
:1029F00010D0B1F5680F0DD00B4DA9420AD011F4DB
:102A00006861206807D00146084811F0ABFB00233D
:102A10002360656038BD142211F0DAFEF9E700BFCB
:102A2000E40600203F5F01002C5F5CA9AC1200208F
:102A300008B520B34368B3F5683F10D1012203689D
:102A4000BFF35B8F53E8001F002903D143E8002048
:102A50000028F7D1BFF35B8F0DD1002008BD094AD4
:102A600093420AD000684FF0FF324FF0FF330CF072
:102A7000C5FC0028F1D00448F0E70448EEE76FF405
:102A8000E040EBE72C5F5CA9E98FFFFFEA8FFFFFD7
:102A900008B5D8B14368B3F5683F10D10022036888
:102AA000BFF35B8F53E8001F012903D143E80020E7
:102AB0000028F7D1BFF35B8F0BD1002008BD074A78
:102AC000934208D000680CF011FDF6E76FF4E04087
:102AD000F4E70348F2E70348F0E700BF2C5F5CA986
:102AE000E98FFFFFEA8FFFFF10B5044618B91D4BB1
:102AF0001D485B6898476368B3F5683F2FD0B3F50E
:102B0000680F2CD0194A934219D1236803BB184887
:102B10004FF0FF324FF0FF3321460CF085FB08B930
:102B200023681BB90F4B13485B6898472068142231
:102B3000002111F04DFE4FF46863636008E0B3F5C7
:102B4000683F0DD83A2B03D040F6BA629342DED1EB
:102B5000206811F05EFB636843F03A03636010BDC8
:102B6000054AF3E7E40600203F5F01002C5F5CA903
:102B7000AC120020655F01003A00003A08B5064932
:102B800006484023142211F0DFFABDE8084004494A
:102B900004480DF01FBE00BFAC0D0020AC12002099
:102BA000684F01007C4F010070B5064686B00D46A7
:102BB000002938D08B6805934B6804930B68039306
:102BC0000024244B24490293012223462046CDE9C8
:102BD00000440EF0AEFE6B6905932B690493EB681D
:102BE00003931E4B1C490094CDE901430122234667
:102BF00020460EF09EFEEB690393194B1649009494
:102C0000CDE901430122234620460EF092FEAB6936
:102C10000393144B10490094CDE90143012223464C
:102C200020460EF086FE012E0DD1EFF30583103BFA
:102C300003930D4B02930023CDE90033064932463E
:102C400018460EF076FE2946304606B0BDE87040C4
:102C50000CF046B9925F01008C4D0100C15F01008C
:102C6000F05F0100FF5F01002D60010030BFFFF742
:102C7000FDBF00BF2DE9F0410B4EDFF8308006EBC1
:102C80000807CC1B054632460949204611F078FD5D
:102C9000A01942460021083C11F09AFD6C6707F12B
:102CA0000800BDE8F08100BF000000000400000043
:102CB000EC4D0100074A936893F90E10002907DBD9
:102CC000526993421FBF044A536843F080535360D4
:102CD000704700BF5425002000ED00E0F0B585B03E
:102CE0000024434B0293CDE90044234607460E4699
:102CF0000122404920460EF037FE3F4B9B6ADB0421
:102D000065D53E4B3B490094CDE90143204623461F
:102D100001220EF029FE1720374B9B6A1D050AD5AC
:102D2000374B029300231846CDE900333149012285
:102D30000EF01AFE1820304DAB6A9C051FD50024FA
:102D4000304B0293012223462046CDE90044294915
:102D50000EF00AFEAB6BAA6A10040FD503932A4B40
:102D600024490094CDE901430122234620460EF078
:102D7000FBFD1FB1AB6A23F40043AB6219201E4B6D
:102D80009B6A59050AD5214B029300231846CDE9C9
:102D90000033184901220EF0E7FD1A20164A936A03
:102DA00013F4807315D01A4B029300231846CDE913
:102DB0000033104901220EF0D7FD1B200E4A936A02
:102DC00043F47F4393620023337005B0F0BD1620B7
:102DD000A2E7926A9204F1D50E4A06490093CDE922
:102DE0000132184601220EF0BFFD1C20E6E700BFAD
:102DF000406001008C4D010000ED00E056600100D4
:102E0000676001007A60010093600100A860010022
:102E1000C3600100DB6001001FB50024374B029343
:102E200001222346CDE90044354920460EF09CFDA1
:102E3000344B9B6A9A015ED5334B31490094CDE9FE
:102E400001432046234601220EF08EFD1E202D4B0D
:102E50009B6ADB010AD52D4B029300231846CDE96E
:102E60000033274901220EF07FFD1F20254B9B6A6E
:102E70001C030AD5264B029300231846CDE90033E4
:102E80001F4901220EF070FD21201E4B9B6A590341
:102E90000AD5204B029300231846CDE90033184988
:102EA00001220EF061FD2220164B9B6A9A030AD57F
:102EB000194B029300231846CDE900331049012233
:102EC0000EF052FD23200F4B9B6ADB030AD5134BF8
:102ED000029300231846CDE90033094901220EF080
:102EE00043FD2420074A936A6FEA03436FEA1343C2
:102EF000936204B010BD1D20A9E700BF0A61010064
:102F00008C4D010000ED00E02261010035610100FF
:102F10004F6101006D61010092610100AC6101002F
:102F20002DE9F04385B000244D4B0293CDE90044D8
:102F300023468046894616464A49012220460EF01D
:102F400013FD494B9B6ADF0640D5484B0094CDE901
:102F5000014320462346434901220EF005FD11247A
:102F6000414B9B6A1D070AD5414B02930023CDE9D3
:102F700000333C49012218460EF0F6FC12243A4D6B
:102F8000AB6A980724D500243A4B36490293CDE921
:102F900000442346012220460EF0E6FC6F6BAB6A2C
:102FA000190659D5344B2F490397CDE901430094B5
:102FB0002346012220460EF0D7FCB9F1000F03D0C2
:102FC000AB6A23F08003AB62132403E01024C7E74D
:102FD0006FF01507244B9B6ADA070AD5274B02933B
:102FE0000023CDE900331F49012218460EF0BCFC36
:102FF00014241D4B9B6A9B060AD5214B0293002388
:10300000CDE900331749012218460EF0ADFC152416
:10301000154B9A6AD50602D49A6A90070AD55B685E
:10302000190507D54146384600F090FA10B180F3F3
:10303000098802240C4B9A6A920642BF5A6A22F40B
:1030400000525A629A6A42F0FF029A6220460023B6
:10305000337005B0BDE8F0836FF01507B4E700BF2B
:10306000D76101008C4D010000ED00E0ED61010031
:103070006760010020620100386201004E620100B9
:10308000DB6001002DE9F041754B5F6890B00446AC
:10309000C7F30806002383F31188BFF36F8F02F094
:1030A0007F40B0F17F4F0CD102F00C00082819D1FD
:1030B0006C4A6D490093CDE90132184601220EF0A9
:1030C00053FC00252C464FF00008F31E8DF81F809E
:1030D000092B00F2AC80DFE803F00BA0A49CAAAAA5
:1030E000AAAAAAA8120746BF0C461D460125EAE770
:1030F0005E4B5D495A4FCDF80080CDE90183002336
:10310000012218460EF030FC8DF81F80FE6A16F082
:10311000020605D0564BCDF80080CDE9018306E0CC
:10312000FB6A002B0BDA534B0096CDE901630023B9
:103130004D49012218460EF017FC00223BE0FB6AC5
:103140005B00FAD54C4B48490096CDE9016301225A
:10315000334630460EF008FC7B69A26943F4807365
:103160007B61BFF34F8FBFF36F8F7B6932F8022C07
:1031700023F480737B61BFF34F8FBFF36F8F4DF6E6
:1031800002739A420AD0BB6ADBB2002B33D00DF136
:103190001F0201212046FFF7C3FE3CE02368039392
:1031A000364B31490096CDE9016301223346304662
:1031B0000EF0DAFB22689DF81F30CBB908AE04F19F
:1031C000200720686168334603C30834BC421E46AA
:1031D000F7D10F9B002D3ED0C3F3080121B96FEA50
:1031E00053236FEA43230F9308A91046FFF7DCFC33
:1031F00010B0BDE8F081BB6A13F47F4F05D00DF12C
:103200001F010120FFF76AFD05E0BB6AB3F5803FAF
:1032100093D3FFF701FE0246CDE70DF11F02002117
:10322000B8E70DF11F010020ECE7154B73E7154AD5
:10323000154B0D4917F4F87F18BF1346103ECDE922
:103240000336124B02930023CDE9003301221846C6
:103250000EF08AFB71E723F4FF7323F00103C2E74A
:1032600000ED00E09B6201008C4D0100C662010090
:10327000DD620100FE6201000C6301002B630100AE
:1032800047630100826201006D6201006B6301000F
:10329000044B5A6942F010025A615A6922F008023E
:1032A0005A61704700ED00E0EFF30880EFF3098109
:1032B00001B57246FFF7E6FE01BD00BF002080F3B6
:1032C0001488BFF36F8F0F4880F3088809F03EFE23
:1032D00000200D490860BFF34F8F00F02BF820202D
:1032E00080F3118809484FF40461401880F309887D
:1032F000EFF314800221084380F31488BFF36F8F2B
:1033000000F0ECF84053002094ED00E080410020F4
:103310000749D1F890200023C2F3072218469342B0
:1033200000DB7047C1F89830C1F8A0000133F6E720
:1033300000ED00E008B572B6002383F31388FFF7B1
:10334000E7FF144B4FF0FF32C3F88020C3F884200E
:10335000C3F88820C3F88C20C3F89020C3F89420C9
:10336000C3F89820C3F89C20C3F88021C3F88421B7
:10337000C3F88821C3F88C21C3F89021C3F89421A5
:10338000C3F89821C3F89C2162B6BFF34F8FBFF3F7
:103390006F8F08BD00E100E0084B9B6883420BD1B2
:1033A000EFF3058343B1064B5A6842F080525A60EE
:1033B0005A6A22F400425A620CF0A6BD542500203D
:1033C00000ED00E015498A684FF030001044EFF33B
:1033D000098C80E8F01F202080F31288BFF36F8FE4
:1033E0000F4F4FF000664A698A603E604FF07404E8
:1033F000141920680B4C2060906F0023936780F3B2
:10340000118804B5104600F005F9BDE8044002F14A
:10341000300090E8F01F8CF3098870475425002095
:1034200004ED00E0C81200201EF0040F0CBFEFF303
:103430000880EFF30980816911F8021C0229FFD08E
:1034400001B572460EF085FA01BD00BF40B20028FA
:1034500007DB044A4109012300F01F00834042F8C2
:103460002130704700E100E040B200280CDB430946
:10347000064900F01F0020330122824041F823203A
:10348000BFF34F8FBFF36F8F704700BF00E100E0C5
:10349000054B420900F01F0053F82220012303FAD4
:1034A00000F01040704700BF00E100E040B200288B
:1034B000A8BF00F1604001F10101B8BF064B4FEA1F
:1034C0004111ACBF00F5614000F00F00C9B2B4BFBC
:1034D000195480F80013704714ED00E00B4A08B54A
:1034E0000B4B22F07F029A60BFF34F8FBFF36F8FB9
:1034F000D3F8882022F47002C3F888200BF0CEFDA8
:103500000CF022FE00F05CF80BF00CFE0000000056
:1035100000ED00E042F8203C009B42F81C3C0A49C8
:10352000019B42F8183C029B42F8143C21F0010137
:103530004FF0807342F8043C42F8081C0023203A04
:1035400002658367704700BF65160000094A03469D
:10355000906870B113F1160F406E05D0A0F14002D3
:103560009A4205D8834203D2814228BF0020704787
:10357000002070475425002008B51546094A0A4B1B
:103580009060426F1A600E4600F044F82C4686F3B5
:1035900009880020054B984720460021002200237F
:1035A000034C204754250020C81200209119010027
:1035B00065160000014B10221A61704700ED00E013
:1035C000044800232021C2180133302B82F8001355
:1035D000F9D1704700E100E008B5EFF30583064A32
:1035E000103B02EBC30152F8330049688847BDE83D
:1035F0000840FFF75FBB00BF484A0100024B034A87
:103600000348012100F096B80000042000000020CB
:103610008C4F0100426E054B403A1A60044A40212B
:10362000C3E901121846012100F08EB8CC12002027
:1036300000000B151FB5144AD2F89030C3F30723CE
:10364000013B98420FD9114B029300230390CDE91F
:10365000003318460E4901220EF0CDF96FF0150027
:1036600005B05DF804FBC2F898000B6823F01F0357
:10367000034343F01003C2F89C308B6843F001030E
:10368000C2F8A030ECE700BF00ED00E0826301006B
:10369000744D0100F0B50E4689B01F460446002562
:1036A000B54212DA606838B3BFB1431E18420FD07A
:1036B000134B02930023CDE90033124903950122F5
:1036C00018460EF098F96FF01502104609B0F0BDDB
:1036D0001F28EDD921680B42EAD1236805930EF02B
:1036E0007AF9A36805A90343D0B20793FFF7A2FFB5
:1036F00010F1160FE7D0421C01350C34D0E700BFA3
:10370000A8630100744D0100044B0522C3F8942006
:10371000BFF34F8FBFF36F8F704700BF00ED00E026
:10372000BFF35F8F024B0022C3F89420704700BFA5
:1037300000ED00E010B5034C01232278FFF7AAFF4B
:10374000207010BD6B27002008B50B4A00231278AB
:10375000FFF7A0FF10F1160F07D0084A0021D2F89A
:103760009030C3F30723984200DB08BDC2F89800ED
:10377000C2F8A0100130F2E76B27002000ED00E056
:103780002DE9F04357485849D0F890300D68C3F3FD
:1037900007239D4285B000F2A180FFF7C1FF496871
:1037A0000022954201F10C011AD1504C504F257066
:1037B0006846FFF7F9F8DFF83C81DFF83C910646F0
:1037C0000025AE421FD1237846490020D1F8902031
:1037D000C2F3072293427BDBFFF796FF00204CE009
:1037E000C0F8982051F80C3C23F01F03134343F01A
:1037F0001003C0F89C3051F8043C43F00103C0F8BA
:10380000A0300132CDE7009800EB05114FEA051C0E
:10381000CB683B40B3F5000F44D00AD8B3F5001F86
:103820002ED0B3F5800F34D0B3F5801F10D0013502
:10383000C7E7B3F1807F3ED0B3F1007FF7D150F8F6
:103840000C3088684A680EF0C6F840F4802009E021
:1038500050F80C3088684A680EF0BDF840F0885087
:1038600040F43020039001A92078CDE90123FFF72F
:10387000E1FE002828DA6FF0150005B0BDE8F083FE
:1038800050F80C3088684A680EF0A5F840EA080045
:10389000E8E750F80C3088684A680EF09CF840EA77
:1038A0000900DFE750F80C3088684A680EF093F89A
:1038B00040F08270D6E750F80C3088684A680EF005
:1038C0008AF840F08870CDE7237801332370AEE7A3
:1038D000C1F89830C1F8A000013377E74FF0FF300E
:1038E000CBE700BF00ED00E0984F01006B27002000
:1038F0000000F0FF0000081100000202F0B587B0E0
:1039000007460E4614460021102268461D4610F058
:103910005FFF02238DF802302A46054B01932146B2
:103920006846CDE904760DF0B7F807B0F0BD00BFEA
:10393000171A010008B5024B1B689847002008BD04
:10394000D8120020034B044A1860937843F0020316
:1039500093707047D81200200805002008B506496A
:10396000064821F00701C1F1005202F580220DF056
:1039700023FC002008BD00BF435D0020DC120020B6
:103980000E4A0123C2F840354FF080424FF080517B
:10399000C2F87835D1F83001082808D1D1F83411AF
:1039A000052904D80648415C09B1C2F838364FF001
:1039B00080430122C3F880250020704700E00140C9
:1039C000DA63010020B1034B800143F00103184783
:1039D000704700BF504E0100BFF34F8F0549064BA3
:1039E000CA6802F4E0621343CB60BFF34F8F00BF9D
:1039F000FDE700BF00ED00E00400FA05024B1B6884
:103A000003B11847FF207047EC1200200A4B0B4A05
:103A10000020C3E900000A4B1A600A4A5A600A4AA9
:103A20009A600A4ADA600A4B0A4A9860C3E90020A1
:103A3000094ADA60704700BF101300201D3C0000E7
:103A400000130020613B00005D3A00002D1A0100C8
:103A5000F0120020FD3900002F1A010030B5447823
:103A60008FB00546ACB1204600F0D4FA1A4B029351
:103A70000023CDE9003303900122184918460DF0C8
:103A8000D8FF174B6A781A7016480BF07FFD0FB0FD
:103A900030BD0378052B12D0092B1BD0012BF0D1A0
:103AA000072304A88DF8103003F062FF059B0393F1
:103AB0000D4B0094CDE9014303222346DDE70B4B78
:103AC00006490094CDE901430322234620460DF028
:103AD000B0FFD6E7064BF3E7E4630100644D010055
:103AE0006C270020D8080020FC6301001A64010044
:103AF0003A64010030B5114C8FB02D23054604A85F
:103B00008DF8103003F034FF9DF914302278934281
:103B100000D18DB1D8B20A4B20701B6803B1984711
:103B200023780393074B02930023CDE90033064922
:103B3000032218460DF07DFF0FB030BD6E27002028
:103B4000E81200204A640100644D0100034BBFF3FA
:103B50005B8F1868BFF35B8F704700BF181300209E
:103B60002DE9FF414278044682B1104600F052FA36
:103B7000264B029300230390CDE900332449012210
:103B800018460DF056FF04B0BDE8F081FFF7DEFFE8
:103B9000C10702D51046FFF7ADFFFFF7D7FF830738
:103BA0000ED4237F63B1BFF35B8F1A4B53E8001F22
:103BB00041F0020143E80012002AF7D1BFF35B8F06
:103BC000217F63794900012B08BF41F00101124BAD
:103BD0001D68CFB2002DD6D0083D4FF6FF782B8858
:103BE000E078434501D083420AD1A3680193237B47
:103BF00000936E6894F91030B4F90E203946B0473E
:103C0000AD68002DBFD0083DE9E700BF6264010048
:103C1000644D010018130020101300201FB5044646
:103C2000407860B100F0F6F90D4B02930023039049
:103C3000CDE900330B49012218460DF0FAFEFFF7DB
:103C400085FFC30702D50020FFF754FF064B6278BB
:103C50001A70064804B0BDE810400BF097BC00BFD6
:103C60007D640100644D01006D270020C008002024
:103C7000F0B504469FB04FF0FF324FF0FF33684875
:103C80000BF0BCFB01261D230AA88DF828308DF807
:103C90002C6003F085FF257D002D6AD1614B8DF8E6
:103CA00014601B788DF819300227342314A88DF87E
:103CB00018708DF8503003F05BFE20B35A4B5B490F
:103CC0000095CDE9015332462B4628460DF0B1FE52
:103CD000EA24204600F092F9554B0293002303900A
:103CE000CDE900331846514901220DF0A2FE2046CD
:103CF00000F09CF9044600287CD049480BF0F6FB04
:103D000020461FB0F0BD159BA2899A8023691593A8
:103D100014A88DF8507003F043FF03238DF8503042
:103D200014A82368159303F03BFF09238DF8503046
:103D300014A86368159303F033FF08238DF85030FF
:103D400014A8A368159303F02BFF05A804F04EFAFE
:103D500004460028BDD14FF0FF3336484FF0FF3204
:103D60000BF048FC344B1878002843D000F070F971
:103D7000C0E7012D51D135238DF8503014A82F4BB9
:103D8000159303F00DFF06238DF8503014A800237F
:103D9000159303F005FF07238DF8503014A823680E
:103DA000159303F0FDFE0C238DF8503014A8A36882
:103DB000159303F0F5FE0D238DF8503014A8A36879
:103DC000159303F0EDFE0E238DF8503014A8A36870
:103DD000159303F0E5FE0F238DF8503014A86368A7
:103DE000159303F0DDFE14A88DF850508DF8545053
:103DF00003F0D6FEFFF7AAFEC30709D42D238DF8E2
:103E00005030084B14A81B788DF8543003F0C8FECE
:103E10000120FFF76FFE00246FE76FF015046CE7D9
:103E2000CC0700206F27002095640100644D01003D
:103E3000AF640100D80800206C27002000030001B7
:103E4000F0B507468BB015461C460E4609B9002A48
:103E50005FD131484FF0FF324FF0FF330BF0CEFA15
:103E600004A9284603F022FD88B300F0C7F8002417
:103E70002A4B03900293CDE90044294923460122AD
:103E800020460DF0D6FD01258DF814400794ADF8BD
:103E9000204005A88DF8224005F08AF8044630B38A
:103EA00000F0ACF81F4B02930023CDE900331C490E
:103EB0000390012218460DF0BCFD204600F0B6F834
:103EC000044615480BF012FB20460BB0F0BD5CB168
:103ED000012C09D0144BADF8205093F900408DF817
:103EE000187007960025D4E78DF81440F2E74FF0DC
:103EF000FF330E484FF0FF320BF07CFB0C4B187871
:103F000008B100F0A5F8002D044618BF6FF00A04B0
:103F1000D7E76FF01504D7E7E0070020C46401007D
:103F2000644D0100E96401006E270020C0080020F4
:103F30006D27002000238360054B596800F10802BB
:103F400011B9C3E9002270470A605A60704700BF88
:103F500010130020014B1860704700BFE8120020CA
:103F600070B51E4E1E4932781E4892B003F0D4FA46
:103F7000054680B100F042F81B4B02930023CDE9C7
:103F8000003303901846194901220DF052FD6FF0DD
:103F9000150012B070BD03F07FFC044640B100F084
:103FA0002DF8134B0390CDE9015300952B46E9E71B
:103FB000062306A930788DF818300FF06EF80D4BF7
:103FC000C0B218700C4B187030238DF8203008A840
:103FD0001423099303F0E4FD2046DAE74E0700209E
:103FE000F01200200013002001650100644D010063
:103FF000226501006F2700206E27002017289ABF36
:10400000024B53F820000248704700BF9450010053
:10401000506501000F289ABF024B53F82000024858
:10402000704700BF54500100606501001628034628
:1040300008D8064A52F8200030B9002B18BF6FF09C
:10404000150070476FF01500704700BFF84F010072
:104050000F28034608D8064A52F8200030B9002B32
:1040600018BF6FF0150070476FF01500704700BF64
:10407000B84F010001480BF019BC00BF1805002023
:10408000014B1860596070471C130020024B1A68DE
:104090005B6802600B6070471C13002008B50DF0D0
:1040A000E9FC024B1B68C01A08BD00BF24130020A6
:1040B000014810F022BA00BF8007002007B5014672
:1040C00040F2E7304FF47A72002300EBC130490C24
:1040D000FCF79AF902460B4600210020CDE90001C9
:1040E00002480CF0D7F903B05DF804FB800700200C
:1040F00008B50DF0BFFC014B186008BD241300206B
:10410000014B1868704700BF2413002010B5124CF3
:10411000BFF35B8F022354E8002F012A03D144E848
:1041200000310029F7D1BFF35B8F0CBF01200020C5
:1041300010D10A4BDB6A9847002344F8403CBFF398
:104140005B8F54E8002F44E800310029F9D1BFF318
:104150005B8F012010BD00BF6C13002008520100CE
:1041600010B5064B5C68FFF7D1FF30B12CB10021D0
:104170002046BDE810400CF01FBA10BD28130020E7
:1041800013B50D4BD3E901433BB10C4B5B6B019372
:10419000002002B0BDE810401847FFF7B7FF40B15C
:1041A0003CB16FF00401204602B0BDE810400CF0B5
:1041B00003BA02B010BD00BF28130020085201004E
:1041C0002DE9F347284C9A46D4E9019307460D465A
:1041D000164683B1254B00205B6B9847E368CDE919
:1041E00000A32A46D4F80880206833463946C047E1
:1041F00002B0BDE8F08704F144020223BFF35B8FF5
:1042000052E8001F012903D142E800300028F7D10D
:10421000BFF35B8F9046EBD1E36C1A78AA4288BF5C
:104220001D70E36CA06C1A78394610F0A9FA236D62
:1042300003B11E80636D0BB183F800A00B4BDB6AEA
:10424000984700216160BFF35B8F58E8003F48E862
:104250000012002AF9D1BFF35B8F484602B0BDE8D7
:10426000F0470CF0A9B900BF281300200852010044
:10427000F0B5044687B000680E460FF00BFF2568C6
:10428000034670B92A6803921E4A1F490090CDE97F
:10429000010201220DF035FC6FF01205284607B02F
:1042A000F0BDE38821793343D802D5F808C02F69DF
:1042B00006D513F4402F03D0DA0748BF83F4402318
:1042C0003868012623F480128E40DB074CBF304350
:1042D000B0433860DCF8003028469847054600288F
:1042E000DCD0059023790493236807491B68039366
:1042F000064B02930023CDE90033012218460DF04E
:1043000000FCCBE7E8670100BC4D0100016801003B
:1043100070B50D460F49BFF35B8F012051E8004F88
:10432000002C03D141E80006002EF7D1BFF35B8FCC
:104330000CD1094E41F8403CD4B2736D21469847E8
:104340002846B36A21469847002070BD6FF00F00E1
:10435000FBE700BF6C130020085201002DE9F04775
:1043600000258EB005ACDFF8BC8081468A46174632
:104370002946102209A80126CDE90544CDE90755B3
:1043800010F026FA8DF83160D8F834300D94002BF7
:1043900045D023463A4651464846FFF7B9FF041E2A
:1043A00039DBFFB2CDE901570396B8F83C301E4C1B
:1043B000009398F83A3098F8392098F83810646AE1
:1043C0003046A047014640F2E7304FF47A720023AE
:1043D00000EB0140C1F30E41FCF716F802460B4614
:1043E000314609A80CF090F8041E14DA0F4B10495E
:1043F0000095CDE9015332462B4628460DF081FB4E
:10440000FFF784FE38B94FF0FF324FF0FF333146EB
:1044100009A80CF079F820460EB0BDE8F0876FF0DF
:104420001504F8E728130020085201002168010054
:10443000BC4D0100F0B591B000248DF8172007ADF8
:104440000F46102221460BA8CDE90755CDE90944B6
:10445000012610F0BDF92C4B8DF839600F95BFF394
:104460005B8F53E8002FA24203D143E8006100298B
:10447000F7D1BFF35B8F43D10DF1170243E910541D
:104480009A60224D189ADA60199A1A615F60FF21CA
:104490006B6D304698476B6B20469847DDE91623D5
:1044A00031460BA80CF030F8051E1ADAFFF72EFE85
:1044B00050B94FF0FF324FF0FF3331460BA80CF0EC
:1044C00023F89DF8175009E0114B12490094CDE9EB
:1044D00001430322234620460DF013FB284611B06A
:1044E000F0BD0A9B002BECDA0B4B0A490094CDE996
:1044F00001433246234620460DF003FB0A9DEDE7BB
:104500006FF00F05EAE700BF6C13002008520100AE
:104510003D680100BC4D01004D68010010B529B98E
:10452000FFF7F4FDD8B96FF0150010BD0E4BBFF3C7
:104530005B8F012053E8004F002C04D143E8000CAE
:10454000BCF1000FF6D1BFF35B8F0AD1074C43E9F2
:104550000F12636DFF219847636B0020984700207E
:10456000E3E76FF00F00E0E76C1300200852010052
:10457000F0B52C4DBFF35B8F8BB00C46012755E88F
:10458000003F002B03D145E80072002AF7D1BFF3AA
:104590005B8F43D1244E2068F3689847E37A4BB38E
:1045A0002346103D04F11007186859682A4603C2D3
:1045B0000833BB421546F7D14FF47A6308930022C3
:1045C0000120237B0793CDE90522CDE90320238930
:1045D0000293A379019363790093F569237994F9A0
:1045E0000A10A847B36D607B9847FFF78FFD002046
:1045F0000BB0F0BD0997227BB569CDE90732CDE953
:104600000533CDE903330A2202922289CDE9003233
:104610003846A37962792179A847E3E76FF00F0064
:10462000E6E700BF6C1300200852010038B50846C9
:1046300011461A460B4BBFF35B8F012453E8005F12
:10464000002D04D143E8004CBCF1000FF6D1BFF3BC
:104650005B8F04D1044BDB6B9847002038BD6FF0B3
:104660000F00FBE76C1300200852010038B5114B16
:10467000BFF35B8F002453E8002F43E8004100297B
:10468000F9D1BFF35B8F0C4943F8341C0B490C4D37
:1046900043F82C1C0B4943F8241C0B4943F8301CED
:1046A0002A6843F8440CA3F134009047EB6A98471A
:1046B000204638BD6C13002061410000C14100005C
:1046C0000852010081410000211B01001FB50F4C61
:1046D000E36953B90E4A0F490093CDE901321846F8
:1046E00002220DF01FFA04B010BD002098470A4BBB
:1046F0001B6E03B1984794F82030002BF3D0034889
:1047000004B0BDE8104000F057B900BF801300208E
:1047100069680100B44D010008520100F0B54FF482
:10472000B011476885B006462348FFF7A1FD05464E
:1047300000283DD1214922480FF094FD304600F079
:1047400065F9044660B11F4B1F490095CDE901533F
:1047500001222B4628460DF0E5F9204605B0F0BDB4
:1047600038680FF097FC60B9184B02930023CDE92D
:1047700000331549012218460DF0D4F96FF01204E8
:10478000EBE7F86818B10FF085FC0028ECD0304654
:10479000FFF76CFF051EE0DA0D4B02930023CDE915
:1047A00000330949012218460DF0BCF92C46D4E724
:1047B0006FF00404D1E700BF0C510100CD460000AA
:1047C0008C13002098680100B44D0100B668010008
:1047D000CB680100024801220A210DF0B2B900BFE6
:1047E000A8490100024800220A210DF0AAB900BF21
:1047F000A8490100014B93F8200070478013002066
:104800000346034880F820300BB900F0EFB870473A
:1048100080130020014BD861704700BF8013002037
:1048200010B5044C204600F095F8012384F82030A0
:1048300010BD00BF8013002010B5054C204600F0CD
:10484000A3F800B910BD002121200FF0DBFDF5E732
:104850008013002070B590B00D46DDE91461CDE9FC
:104860000A3108ABCDE90802CDE90C5204930CAA39
:1048700002230446CDE90E61CDE9062305930DF030
:1048800051FB1248D5B9CEB9836811491D6804AAF5
:104890003346A84700280ADA0E4B02930023039000
:1048A000CDE900330C49012218460DF03BF923787D
:1048B000842B01D0FFF7C0FF10B070BD836804499E
:1048C0001D68024806AB04AAE3E700BF204A0100C6
:1048D000F8500100EE680100B44D010070B5154DAF
:1048E0008AB0284600F068F8C023ADF8143005AB54
:1048F000069302230793012406AB089309940E48FC
:104900000E49836808AA1E680023B04700280CDA05
:104910000B4B029300230390CDE900330949224653
:1049200018460DF0FFF80AB070BDFFF785FF85F857
:104930002040F8E780130020204A0100F8500100D1
:10494000EE680100B44D0100014800F029B800BF35
:104950008013002010B50B4C0122032120460DF0DE
:10496000D9F900214FF424700FF04CFD00220321EF
:1049700020460DF0CFF94FF4A470BDE8104000219F
:104980000FF040BDBC49010008B5042103480DF0FB
:1049900096F9003818BF012008BD00BFA8490100E2
:1049A00008B5062103480DF08AF90028D4BF00207D
:1049B000012008BDA849010010B40B4883689C6918
:1049C0007CB103691B6813F0400FA44618BF4FF079
:1049D000007310BC08BF4FF080634FF0A072062137
:1049E000604710BC704700BFA849010010B40648DA
:1049F00083689C6934B1A446002310BC4FF40012B4
:104A00000621604710BC7047A849010030B54FF43B
:104A1000D0110569194885B00DF032F970B1184B05
:104A200002930023CDE900331649012218460DF008
:104A300061F96FF00404204605B030BD12484FF410
:104A400080310DF01DF90028E9D110484FF4803174
:104A50000DF016F904460028E1D10D4B0D486B60AE
:104A60004023AB608368DB690BB90B4BD8E70122AD
:104A7000294698470028DEDAF7E700BF24510100F5
:104A800017690100B44D01001C51010014510100CF
:104A9000E71C0100A849010032690100074B0849E1
:104AA0001A6843F2390001FB020018606FF00043FE
:104AB000B0FBF3F3C3EBC373C01A704728050020A3
:104AC0006D4EC641014B1860704700BF280500209D
:104AD00030B530B10A4D01444FF0FF33814201D16E
:104AE000D84330BD10F8012B5340082243F3000493
:104AF000013A2C4092B284EA5303002AF6D1EDE742
:104B00002083B8ED044A13680BB100215972436148
:104B100010600DF0C0B900BFA413002037B50446E3
:104B200001A80CF0DFFF6CB1174D2A68134673B96A
:104B300063682360012323816AB9FFF7D9FA20460D
:104B4000FFF7E0FF01A80CF0D6FF03B030BD9C4298
:104B5000F8D05B69EBE7FFF7A1FA236818442B68EC
:104B600020601A689042EAD35A69596911B95C61A8
:104B70006161E7E71168884202D913465269F4E798
:104B80005C616261DEE700BFA4130020F8B5FFF7A7
:104B9000B7FA1C4C0546FFF7ABFA2368A3B1471BD5
:104BA0001E462D1A716929B95A692260DA6819728C
:104BB00042B9FEE70A68BA428CBF521900220A6065
:104BC0007669EFE718699047002623682BB92068BB
:104BD00080B9F8BD18699047F7E71D68FFF75EFADE
:104BE0008542F4D223685A692260DA681E72002A6C
:104BF000F0D1FEE7437A002BEBD1BDE8F8400DF091
:104C00004AB900BFA413002037B5134D044601A8CC
:104C10000CF068FF2B686BB164B10022A3422272D2
:104C200011D1597A5C6961B15A7244B120462C6045
:104C30000DF031F901A80CF05EFF03B030BDFFF7B5
:104C400037FA2C60F6E71A465B69002BF2D09C42DB
:104C5000F9D163695361EDE7A413002007B5074B51
:104C60001B7840BAADF804002BB9022201A940F22A
:104C7000BC600CF0C5FF03B05DF804FB7227002098
:104C800007B5074B1B7840BAADF804002BB90222D8
:104C900001A940F2BE600CF0B3FF03B05DF804FB65
:104CA0007227002010B50C4B1B7804469BB94FF4BB
:104CB000D7600CF0DAFFC4F3002100F0FE000143DE
:104CC0004FF4D7600CF0B0FFE1B240F2B960BDE83C
:104CD00010400CF0A9BF10BD7227002013B5044688
:104CE000FFF780FD04F0070314F004048DF807308B
:104CF00008BF084B4FF001020DF107014FF084008F
:104D000008BF1C700CF05CFF0020FFF779FD02B0BB
:104D100010BD00BF7027002010B50446FFF780FDCE
:104D20002046FFF777FDFFF7D9FD00200DF019F9B8
:104D30000CF01BFF0CF01AFF034B00221A70BDE8A9
:104D400010400120FFF75CBD70270020134B9842F4
:104D500007B50BD94EF6E113ADF80430022201A9D4
:104D600098200CF02DFF03B05DF804FB0C4B98422B
:104D700002D94DF6D733EFE70A4B984202D94CF2ED
:104D8000C153E9E7084B984202D948F27513E3E7AB
:104D9000064B9842E2D946F66B73DDE700E9A4358D
:104DA00080F8A9328044E52D000B6B1B40FC5419A0
:104DB00037B5104D2B7804461BB9FFF7C7FF012309
:104DC0002B7043F6095241F68463B4FBF2F102FB07
:104DD000114403EB8433B3FBF2F3042203EB81337E
:104DE0001BBA0DEB0201862001930CF0E9FE03B023
:104DF00030BD00BF7027002007B5064B8DF80700B7
:104E0000187001220DF107018A200CF0D9FE03B0C1
:104E10005DF804FB72270020014B1878704700BF33
:104E20007227002013B5224A0446516810686B4669
:104E300003C3204B20781B78834201D0FFF7DCFFAF
:104E400023781BB1012B2ED002B010BD62681A4B23
:104E5000B3FBF2F31A0C8DF800201A0A8DF801202A
:104E60008DF80230A268237B8DF8033043F6095198
:104E7000637BB2FBF1F08DF8043001FB102241F6A8
:104E8000846303EB8233B3FBF1F303EB80331A0C3F
:104E90005BBA8DF80520ADF80630082269468B20F4
:104EA0000CF08EFED0E7236900930422F6E700BFE2
:104EB000284E0100722700200000093D1FB52B4A33
:104EC0000446D1689068127C01AB03C31A70284B6A
:104ED00020781B78834201D0FFF78EFF23781BB127
:104EE000012B31D004B010BD637AF12B20D14FF6E5
:104EF000FF70FFF7B3FE48F20500FFF7C1FE022383
:104F00006288A188ADF8061052BAE188ADF8042095
:104F10008DF80B30227AA37A8DF80A20ADF80810AC
:104F20008DF80C30092201A98C200CF049FED9E73C
:104F3000F22BE5D141F60F50FFF790FE41F2210030
:104F4000FFF79EFE0623DBE7A3890A4A5BBAADF8AA
:104F50000430A37B13708DF80630E37B8DF80730A7
:104F6000238AADF808300622DDE700BF284E010095
:104F7000722700207127002037B505460C46022213
:104F800001A913200CF02AFE0A4B1B78012B0DD12E
:104F9000094B1B78012B09D140F202700CF065FE21
:104FA0009DF805302870237003B030BD9DF80400D3
:104FB000F6E700BF722700207127002013B50322F7
:104FC000044601A914200CF009FE184B1A7822702F
:104FD0004AB1012A17D013220021601C0FF0F8FB00
:104FE0000F2323700DE09DF8043023719DF80530E8
:104FF000A2605B425B10A3719DF806305B425B10C0
:10500000637102B010BD9DF804305B425B102373E6
:105010009DF9053002339B1063739DF806305B42A7
:105020005B10A373024B1B682361EAE77227002021
:10503000A8130020034B1B6813B15B6803B118472A
:10504000704700BFD0140020034B1B6813B1DB680E
:1050500003B11847704700BFD0140020014B012254
:105060001A7070477527002008B5FFF7C3FB043896
:10507000C0B2032896BF024B0020185C08BD00BFD9
:105080006269010038B50C46002340F201211A463E
:10509000054608460DF081F8FFF7BEFE0C4B0128CF
:1050A0000C480CBF83F8C74083F8C040FFF706FFE9
:1050B0002146284600220CF07CFF074B0748196860
:1050C0000CF007FFBDE838400448FFF727BD00BFDC
:1050D000DC13002094140020EC140020C4130020E2
:1050E00038B50D461446FFF763FE2846074D0CF011
:1050F00040FD0CF0F2FF4FF47A71284661430CF04A
:10510000E8FE2846BDE83840FFF708BDC41300207C
:1051100073B5574D01A80CF0E5FC2C78002301A8CD
:105120002B700CF0E8FC002C61D00DF04BF804461D
:105130000DF0D7F801A80CF0D5FCFFF705FC01280D
:1051400008BF287001A80CF0D6FCE5070BD549482C
:10515000FFF75AFD0120FFF753FB474B1B6813B1C4
:105160001B6803B19847A00711D54448424EFFF78A
:105170004BFD14F0400F424B3BD01B7813B901207C
:10518000FFF73EFB336813B11B6903B19847210653
:105190000AD50120FFF734FB374B1B6823B19B690D
:1051A00013B1C4F300209847A2050FD5FFF722FBE7
:1051B00004284CD12F48FFF727FD0120FFF720FBE3
:1051C0002D4B1B6813B15B6803B19847A3060ED53E
:1051D0002A48FFF719FD2A4B1B7813B90120FFF766
:1051E0000FFB254B1B6813B1DB6803B1984702B076
:1051F00070BD1D7895B90120FFF702FB294640F6E6
:1052000002100CF011FD40F644100CF02EFD40F0A1
:105210000201C9B240F644100CF006FD194D1A48BF
:10522000FF220DF103010DF043F82846FFF7C6FEFB
:105230003368002BABD09E68002EA8D095F90D30B6
:1052400095F90C209DF803100F48B0479FE7FFF732
:10525000D1FA0528BAD10948FFF7D6FC0120FFF79B
:10526000CFFA054B1B68002BB0D0DB68ACE700BF62
:1052700075270020C4130020D0140020AC13002098
:1052800075280020D41400207627002010B590B196
:105290000A4B012219461C68A04206D39C68A04212
:1052A00003D201EBC201087910BD0132162A03F1C5
:1052B0000803F0D1FEE71F20F6E700BF58510100B8
:1052C0000128094806D1094B80F8C7101970B83079
:1052D000FFF7F4BD90F8BF30012B04D1034B80F8E9
:1052E000C0101970F3E77047DC1300204F0700204F
:1052F00000234FF6FF7110B51A46044608460CF01D
:105300004CFF34B1094821460CF0E3FD0748FFF794
:1053100005FC074B1B782BB16FF07F40BDE81040B8
:105320000CF050BE034B18688001F7E7AC13002067
:1053300075280020E814002000234FF6FF7110B5F7
:105340001A46044608460CF028FF34B109482146A5
:105350000CF0BFFD0748FFF7E1FB074B1B782BB1B3
:105360006FF07F40BDE810400CF079BE034B186829
:105370008001F7E7AC13002075280020E814002016
:10538000F0B5BDF814409DF818C09DF81CE09DF8DC
:10539000205040B1012814D0012200239818013870
:1053A000B0FBF2F0F0BD8CF0010CE30003EBCC039A
:1053B00018330EEB450503EBC5034FF47A714B43ED
:1053C000ECE7501F012803F1040304D80C2C38BF6C
:1053D0000C24002706E0C1B9A2F10B07012F8CBFF6
:1053E000002701272801BCF1000F00EBCE000CBF05
:1053F00014250025A0EB8200062A4FEA82062844E5
:10540000A2F1020C08D835460BE00129E1D1A2F146
:105410000C0047424741E5E70830002FF3D04FEA40
:105420008C050028ACBF2E182E1C701E90FBF5F0CA
:1054300003FB0044094B062A5A5C8CBF0C340E3423
:105440000A2A0AD8A30001334FF47A7103FA0CF345
:105450004B43034951F82220A0E7FFDE66690100B3
:105460002C5101000D4B10B504461870587000F017
:1054700017F85CB134214FF4E8600CF0D5FB4421FF
:10548000BDE8104040F241700CF0CEBB14214FF447
:10549000E8600CF0C9FB2421F2E700BF732700206D
:1054A00008B50120FFF7A8FC054B18785A7882420E
:1054B00004D05870BDE80840FFF7D4BF08BD00BF56
:1054C00073270020012808B506D00020FFF794FCC0
:1054D000034B00225A7008BDBDE80840FFF7E0BF4B
:1054E000732700202DE9F04F85B089469DF84C10B8
:1054F00000919DF85C109DF844A0BDF84070694C87
:10550000DFF8A4B1BDF83C602170002918BF002766
:10551000BAF1000F15469DF8482008BFFF228BF80E
:105520000020804620B1012854D005B0BDE8F08F9E
:105530005E4C0CF0DDFD0B234FEA490084F8EC30A3
:1055400084F8E080C4F8E450FFF7A0FE41F60403BD
:10555000A4F8BC309BF8003084F8C030009B84F87D
:10556000ED00002B0CBF0123F22384F8C130F600BC
:1055700001238AF0010A84F8C23084F8B880A4F8C4
:10558000BA6084F8BE8084F8BFA00CF0B8FE94F82E
:10559000E000003818BF0120FFF794FF04F1E0009D
:1055A000FFF740FC04F1B800FFF788FC404A1068A0
:1055B000516802AB03C302A80CF0CAFC40F2FF1012
:1055C000FFF770FB4FF4FA537B43B3FBF5F3394A13
:1055D0001360AAE70020354C01930CF089FD364991
:1055E000019B11F8091084F8E080EAB284F8F020F9
:1055F000B9F1000F45D10B3D012D8CBF00250125D0
:10560000053A012A02D80C2E38BF0C2684F8F23055
:10561000012384F8B8309BF8003084F8C730009B31
:1056200084F8C8309DF8583084F8C93084F8F110F7
:1056300084F8F350A4F8C46084F8C6A00CF05FFEB0
:1056400094F8E000003818BF0120FFF73BFF1B482B
:10565000FFF7E8FB1A48FFF731FCF8B20CF054FDF5
:1056600094F8C930012B40F2367014D10CF0FDFAD9
:1056700000F0FB0140F236700CF0D6FA4FF6FF73E3
:10568000A5E7B9F1010F04D1A5F10C004542454150
:10569000B6E70025B4E70CF0E8FA40F00401C9B21F
:1056A000E8E700BF752800204F070020DC1300202A
:1056B000394E0100E814002066690100BC14002086
:1056C000941400202DE9F74F0C9DBDF838709DF81B
:1056D0003C909DF840A088469346064648B1012874
:1056E0004DD040F689000CF0C0FA40F00401C9B278
:1056F0008DE0524C0B2284F8E000580084F8EC2036
:10570000C4F8E450FFF7C2FD41F60403BAF1000FFC
:10571000A4F8BC300CBF0123F22384F8C130FF0091
:10572000012389F0010984F8C23084F8ED00C4F83F
:10573000E8B084F8B860A4F8BA7084F8BE6084F861
:10574000BF900CF0DCFD94F8E000003818BF012099
:10575000FFF7B8FE04F1E000FFF764FB04F1B800C6
:10576000FFF7ACFB364A106851686B4603C36846C6
:105770000CF0EEFB40F2FF10FFF794FAB1E72F4C6C
:10578000304984F8E000EAB2C95C84F8F020002BCC
:105790004AD10B3D012D8CBF00250125053A012A78
:1057A00002D80C2F38BF0C279DF8343084F8F23023
:1057B000012384F8B830244B84F8F1101B7884F866
:1057C000C7309DF84C3084F8C93084F8F350A4F801
:1057D000C47084F8C69084F8C8A00CF090FD94F8CA
:1057E000E000003818BF0120FFF76CFE1748FFF7F4
:1057F00019FB1748FFF762FB94F8F130062B7FF492
:1058000070AF40F689000CF030FA00F0FB0140F672
:1058100089000CF009FA40460CF0ABF9149A0D4BD4
:105820001A6003B0BDE8F08F012B04D1A5F10C0381
:105830005D425D41B2E70025B0E700BFDC13002008
:10584000394E0100666901004F070020BC1400209A
:1058500094140020EC14002008B5174B186017486A
:10586000FFF75AFA00200CF07CFB01200CF077FCCB
:10587000002108460CF002FD042100200CF0BBFCC6
:1058800000234FF6FF711A4608460CF086FC40F6DE
:10589000AC000CF0B0FD40F689000CF0ACFD0849FE
:1058A00008480CF00EFB084908480CF00AFB084BAE
:1058B00000221A7008BD00BFD01400205D50000007
:1058C00035500000C413002049500000AC130020E4
:1058D00075270020A1F11003DBB2102B2DE9F04752
:1058E000044604D83A4820FA03F3DB0705D4002322
:1058F00082F8F030FF20BDE8F087561E254615F8E7
:10590000013B06F8013F631B0B4413F0FF00F6D187
:1059100001F11C039B005FFA83FCC3F30313013BFB
:10592000DFF8B09082F8F030884653184FF0010E3F
:10593000B8FBF1FA01FB1A8A1AF0FF0A13F8047C8B
:1059400013F8036C13F8025C13F8014C30D119F80A
:1059500006A019F8056019F8045019F807404FEA35
:10596000DE1707EB47078EEA0A0A07EBC7074FEA7D
:105970004E0EFFB25FFA8EFE87EA0E0E574692F881
:1059800000A087EA0A071F7057787E405E709678FD
:1059900075409D70D57808F104085FFA88F86C406E
:1059A000C445DC7002F1040203F10403C0D8A2E78D
:1059B0001829E4D9BAF1100FE1D1DFF818A01AF8CC
:1059C00007701AF806601AF805501AF80440D6E76E
:1059D00001010100696B01002DE9F04FA3B092F8BD
:1059E000F0301D911B920193002B00F05381014672
:1059F0001EA80CF076FD1B9BA74CA84DA84E10339B
:105A00000293002303939DF87C0004909DF8860088
:105A10000590205C06909DF87B000790205C089024
:105A200004989DF881C0205C099014F80C000A903D
:105A30009DF880000B909DF885009DF878809DF87A
:105A40007DE09DF882A09DF887900C909DF87A00EB
:105A5000029B1C9314F80A2014F8093014F808105B
:105A600014F80E700D90205C0E909DF87F000F9042
:105A7000205C10900B98205C11900C98205C129088
:105A80009DF8840013909DF8790014909DF87E0095
:105A90001590205C16909DF883001790205C18905C
:105AA0001398205C19901498205C1A900398013088
:105AB00003900298DDF804B0103002909DF80C00BD
:105AC000834536D88DF878108DF87A2009990E9A8A
:105AD0008DF87C108DF882201199069A8DF880102F
