:020000040000FA
:1000000040C40020D5320000CF230100C1320000DF
:10001000C1320000C1320000C13200000000000007
:10002000000000000000000000000000513400004B
:10003000C132000000000000ED330000C1320000BA
:1000400001360000013600000136000001360000D4
:1000500001360000013600000136000001360000C4
:1000600001360000013600000136000001360000B4
:1000700001360000013600000136000001360000A4
:100080000136000001360000013600000136000094
:100090000136000001360000013600000136000084
:1000A0000136000001360000013600000136000074
:1000B0000136000001360000013600000136000064
:1000C0000136000001360000013600000136000054
:1000D0000136000001360000013600000136000044
:1000E0000136000001360000013600000136000034
:1000F0000136000001360000013600000136000024
:1001000080F0004002E000BF81F0004142001FBFCC
:100110005FEA410392EA030F7FEA226C7FEA236CD5
:100120006AD04FEA1262D2EB1363C1BFD2184140CA
:1001300048404140B8BF5B42192B88BF704710F060
:10014000004F40F4000020F07F4018BF404211F003
:10015000004F41F4000121F07F4118BF494292EA6B
:10016000030F3FD0A2F1010241FA03FC10EB0C0097
:10017000C3F1200301FA03F100F0004302D5494224
:1001800060EB4000B0F5000F13D3B0F1807F06D3D1
:1001900040084FEA310102F10102FE2A51D2B1F1C9
:1001A000004F40EBC25008BF20F0010040EA0300BE
:1001B0007047490040EB0000013A28BFB0F5000F3E
:1001C000EDD2B0FA80FCACF1080CB2EB0C0200FAF4
:1001D0000CF0AABF00EBC25052421843BCBFD04043
:1001E0001843704792F0000F81F4000106BF80F4BD
:1001F00000000132013BB5E74FEA41037FEA226C80
:1002000018BF7FEA236C21D092EA030F04D092F04A
:10021000000F08BF0846704790EA010F1CBF00207E
:10022000704712F07F4F04D1400028BF40F00040DB
:10023000704712F100723CBF00F50000704700F0FB
:10024000004343F0FE4040F4000070477FEA226222
:1002500016BF08467FEA23630146420206BF5FEAF3
:10026000412390EA010F40F4800070474FF00003F3
:1002700004E000BF10F0004348BF40425FEA000CBA
:1002800008BF704743F0964301464FF000001CE062
:1002900050EA010208BF70474FF000030AE000BFB8
:1002A00050EA010208BF704711F0004302D54042F6
:1002B00061EB41015FEA010C02BF84460146002068
:1002C00043F0B64308BFA3F18053A3F50003BCFA83
:1002D0008CF2083AA3EBC25310DB01FA02FC634430
:1002E00000FA02FCC2F12002BCF1004F20FA02F237
:1002F00043EB020008BF20F00100704702F120022A
:1003000001FA02FCC2F1200250EA4C0021FA02F28A
:1003100043EB020008BF20EADC7070474FEA40025E
:10032000B2F1FE4F0FD34FF09E03B3EB12620DD923
:100330004FEA002343F0004310F0004F23FA02F08D
:1003400018BF404270474FF00000704712F1610F34
:1003500001D1420205D110F0004008BF6FF000400B
:1003600070474FF0000070477BB972B90029BEBFDB
:1003700000204FF0004106E008BF00281CBF6FF0CE
:1003800000414FF0FF3000F057B8ADF1080C6DE9B7
:1003900004CE002909DB002B1ADB00F057F8DDF84A
:1003A00004E0DDE9022304B07047404261EB410103
:1003B000002B1BDB00F04AF8DDF804E0DDE9022346
:1003C00004B0404261EB4101524263EB430370478A
:1003D000524263EB430300F039F8DDF804E0DDE955
:1003E000022304B0404261EB41017047524263EB8B
:1003F000430300F02BF8DDF804E0DDE9022304B04C
:10040000524263EB4303704753B94AB9002908BF0E
:1004100000281CBF4FF0FF314FF0FF3000F00CB848
:10042000ADF1080C6DE904CE00F010F8DDF804E041
:10043000DDE9022304B07047704700BF034613F89C
:10044000012B002AFBD1181A013870472DE9F0471B
:1004500086468C460846089E154674461946002B6B
:1004600040F0C2808542B2FA82F245D94AB1C2F167
:10047000200300FA02FC2EFA03F3954043EA0C0C29
:1004800094404FEA154EA8B2BCFBFEF8230C0EFBBD
:1004900018CC08FB00F943EA0C43994528D9EB181E
:1004A00008F1FF3704D2994502D9A8F102072B447D
:1004B000A3EB0903A4B2B3FBFEFC0EFB1C330CFB45
:1004C00000F044EA0344A04214D92C190CF1FF3384
:1004D00004D2A04202D9ACF102032C44241A43EA0C
:1004E00007401EB1D440002334607360BDE8F0873C
:1004F0004746DDE76346F1E792BB431B01214FEA24
:10050000154EAFB2B3FBFEFC200C0EFB1C330CFBF4
:1005100007F840EA0343984562D9EB180CF1FF3025
:1005200004D2984502D9ACF102002B44A3EB080396
:10053000A4B2B3FBFEFC0EFB1C330CFB07F744EA32
:100540000344A7424ED92C190CF1FF3304D2A74221
:1005500002D9ACF102032C44E41B43EA0040C0E79B
:10056000C2F1200320FA03F1954090402EFA03F3E4
:1005700003434FEA154EAFB2B1FBFEFC0EFB1C105D
:10058000190C0CFB07F841EA0041884504FA02F413
:1005900022D969180CF1FF3004D2884502D9ACF198
:1005A00002002944A1EB08019BB2B1FBFEFC0EFB4B
:1005B0001C110CFB07F743EA01439F420ED9EB18CD
:1005C0000CF1FF3104D29F4202D9ACF102012B445D
:1005D000DB1B41EA004192E76046E3E76146F7E74B
:1005E0006046A3E76346B7E7834206D916B9002100
:1005F00008467BE7C6E900E0F9E7B3FA83F78FB96D
:10060000834201D3724508D8BEEB020460EB0303BA
:1006100001209C461EB9002168E73846FAE7C6E982
:10062000004CF8E7C7F1200CBB4022FA0CF41C4345
:100630002EFA0CF120FA0CF3B84001434FEA1449AA
:100640000EFA07F5B3FBF9F81FFA84FE09FB183020
:100650000B0C08FB0EFA43EA00439A4502FA07F234
:1006600040D9E31808F1FF3004D29A4502D9A8F125
:1006700002002344A3EB0A0389B2B3FBF9F809FB98
:10068000183308FB0EFE41EA03418E452CD9611850
:1006900008F1FF3304D28E4502D9A8F102032144A8
:1006A00043EA0040A0FB0298A1EB0E014145CE4673
:1006B000434602D306D14D4504D2B9EB020E68EB96
:1006C00004030138002EA6D0B5EB0E0261EB030146
:1006D00001FA0CFC22FA07F34CEA0303F940C6E9DD
:1006E000003198E74046C5E74346D9E72DE9F04396
:1006F000434B444F444E95B01B6813934FF0000397
:100700000025002331461846CDE901570095032204
:1007100011F0E5F94FF0FF324FF0FF330AA800F077
:10072000CFF89DF82920394B39499DF828000095CC
:10073000002A08BF1946DDE90C23CDE90623354B15
:10074000CDE901530023CDE90301032218462E49C8
:1007500011F0C5F99DF828308DF824309DF8293026
:10076000003B18BF01238DF82530002209A9002382
:1007700029480FF043FB294A9DF82830106851683A
:100780008DF83F3010AB03C312891A804FF0010877
:1007900040F60133ADF83C308DF83E80DFF88090B4
:1007A000002200230FA948460FF028FB0446D8B9C1
:1007B0009DF83D3003931B4B0090CDE901030322CC
:1007C0000346314611F08BF920230493D9F82030E9
:1007D0000393154B0094CDE9014303222346314690
:1007E000204611F07CF98CE7104B0390CDE90153C2
:1007F0000023009542463146184611F070F980E713
:10080000480701205F590100E45001004E590100E2
:1008100056590100825901007808002097590100BB
:10082000A8080020A2590100BE590100D3590100B7
:100830002DE9F04F904685B014F03CF84FF47A73F0
:10084000A0FB030503FB0155C40B1B4FDFF86C90A5
:1008500044EA45440026ED0B97F804A028FA0AF371
:10086000DB0721D53868D0F810B0836869465B682B
:10087000984750B9009BDBF800205A40012303FA47
:100880000AF31A4214BF01200020B0FA80F0400998
:10089000CDE902458DF800608DF8010000220023AB
:1008A000694648460FF0AAFA0136072E07F10807F5
:1008B000D2D105B0BDE8F08F4852010048080020B1
:1008C00008B5014603480FF0F3FAB0FA80F040098A
:1008D00008BD00BF480800202DE9F04F3F4C404FB5
:1008E000DFF800A187B00026A346206813F0A9FD19
:1008F000034690B95BF836203B4912680090CDE979
:1009000003623A4ACDE90102012211F0F7F86FF0D3
:100910001205284607B0BDE8F08FE38820682179EA
:1009200043EA0A020569D0F808C013F0010F4FF03E
:10093000010E2B680EFA01FE14BF4EEA030323EAF0
:100940000E032B60DCF800309847054658B1284B61
:10095000039602930023CDE9003323490122184670
:1009600011F0CCF8D5E72068217983689D694DB1F5
:100970004FF000734FF0A072A847054628B11D4BF9
:100980000396E6E76FF05705F9E794F804901A4BE1
:100990007B60012202FA09F3D4F80080BB60D8F82A
:1009A0000830DB6913B1394640469847CDF81490BA
:1009B000D8F800300C49CDE90363104B02930023B3
:1009C000CDE9003303221846013611F097F8072EBF
:1009D00004F1080407F10C0787D19AE74852010097
:1009E000980D002010000100EC500100135A010086
:1009F000315A01004F5A010031080000755A0100B8
:100A00002DE9F04F304CDFF8C480314F87B000251E
:100A10004FF001092668304613F013FD034670B904
:100A20002C4A2B490395CDE901020090012211F0D7
:100A300074F86FF0120A504607B0BDE8F08F2068D6
:100A40002179E388D0F810C0D0F808E0DCF800A0E5
:100A5000DA0754BF43F4B01383F4D01323F48012A5
:100A600009FA01FBDB074CBF4BEA0A032AEA0B0336
:100A7000CCF80030DEF800309847B0F1000A0BDA0D
:100A8000154B02930023CDE9003311490395012250
:100A9000184611F042F8CEE7237905933368CDF874
:100AA00008800026CDE90353CDE9006633460322D2
:100AB00039463046013511F030F8072D04F10804AD
:100AC000A8D1B246B7E700BF80520100D75A010053
:100AD00024510100A05A0100B85A0100062803461B
:100AE0000A4615D80C4951F8300001EBC301012327
:100AF000097903FA01F103691B68194218BF82F0F2
:100B0000010212B18368DB68184783681B69FBE741
:100B10006FF01500704700BF8052010008B5014614
:100B200003480FF0C5F9B0FA80F0400908BD00BFD6
:100B300078080020F0B5184F184D194E89B00024E0
:100B4000234603222046CDE900440297294610F0AF
:100B5000F3FF4FF0FF324FF0FF3307A8FFF7DEFF40
:100B60000028ECD09DF81D3004939DF81C302946D8
:100B7000CDE902632046CDE900442346032210F06C
:100B8000DBFF9DF81D109DF81C00B1FA81F14909A9
:100B9000FFF7A4FFD3E700BFFC5A01001C5101007E
:100BA0001E5B010010B588B004460DF11F010DF168
:100BB0001E0011F088FC9DF81F300749CDE9034362
:100BC000064B02930023CDE900330322184610F0B0
:100BD000C3FF08B010BD00BF44510100525B0100CB
:100BE00070B588B0C1F34004CDE9063401F00101CD
:100BF0000024104B0D9D0592CDE903010293CDE930
:100C000000440D499DF8306023460322204610F031
:100C1000A3FF65B15EB1094B0393094B06490096EA
:100C2000CDE9014303222B46204610F095FF08B082
:100C300070BD00BF765B010044510100A95B01005B
:100C4000F76601001FB5014660B90F4B0F490090D0
:100C5000CDE901030122034610F07EFF002005B01C
:100C60005DF804FB0A480FF023F958B1094B0293D1
:100C700000230390CDE9003304490122184610F007
:100C80006BFFEBE70120EAE7B35B01004451010091
:100C9000A8080020D85B010030B585B0214C204663
:100CA00013F0CFFB034670B9226803921E4A1F4916
:100CB0000090CDE90102012210F04EFF6FF0120505
:100CC000284605B030BD236803930024184B17490C
:100CD0000293032223462046CDE9004410F03CFF56
:100CE00003F052F9051E0BDA124B10490395CDE9BA
:100CF0000143009423460122204610F02DFFDFE738
:100D00000D4803F02BF90D4803F038F90C4B074957
:100D10000094CDE9014303222346204610F01CFF36
:100D20002546CDE7E04D0100F25B01004451010092
:100D3000085C01001A5C0100D0040020A50B000033
:100D4000335C01002DE9F0477C4B7D4992B01B6874
:100D500011934FF0000300247A4B0293CDE9004435
:100D600023460322204610F006FF0794042107A81B
:100D70000AF0BCFA13F09EFD079EDFF8CC81DFF885
:100D8000CC91DFF8CCA10F46054613F0CAF94FF419
:100D90007A71A5FB013201FB0721DB0B43EA4143DA
:100DA000704058406B4BA8F8000080B2CDE9014379
:100DB00003902346624900940322204610F0DBFE94
:100DC000654B0793654B5E4F8DF83040CDE9083396
:100DD000B8F80030ADF82830614B0B930494B8F8A4
:100DE00000300025CDE9029303222B4639462846E0
:100DF000CDE9005510F0BFFE07A802F04DFF10F13D
:100E0000740F064610D1574B0095CDE901530222CD
:100E10002B463946284610F0AEFE4FF42030002114
:100E200013F0C7FC0134D9E700280BDA4E4B0390CE
:100E3000CDE9015300952B4601223946284610F092
:100E40009AFEEAE7CDE9015A00952B46032239467E
:100E5000284610F090FE002EDFD1444F384DDFF8C9
:100E600010810E2200210DA813F091FE4FF0FF32E9
:100E70004FF0FF330DA8FFF7E5FE0028F1D09DF8F5
:100E80003560731E0A2B55D89DF83490CDF8088034
:100E90000024CDE903962346032229462046CDE9C6
:100EA00000449DF836A010F066FE324B0393324B9F
:100EB0000096CDE9014303220DF137032946204670
:100EC00010F059FE324653460DF13701484602F004
:100ED000CBFF10F10B0F064611D1284B0094CDE942
:100EE0000143022223462946204610F044FE244BAB
:100EF000039602930023CDE90033012215E0002878
:100F00000BDA204B0390CDE90143009423460122E4
:100F10002946204610F02FFEE9E71B4BCDF80C9038
:100F2000CDE901430094234603222946184610F0D8
:100F300022FE96E7CDE90276DCE700BF48070120F4
:100F40004C510100645C01002C2800209A5C0100D7
:100F5000F05C0100785C0100580700204807002081
:100F600060070020D05C0100DF5C01008E5D0100A5
:100F7000005D0100896F0100F7660100235D01003B
:100F80006E5D0100415D0100595D010030B5044610
:100F90001B48A06289B013F054FAA56A034658B9F9
:100FA0002A680392174A18490090CDE901020122EC
:100FB00010F0F9FD09B030BD4FF47A2121602846C8
:100FC00005AA12F01BFE054648B1104B0293002300
:100FD000CDE9003303900C4901221846E8E7069B4F
:100FE000A3810323E381204600F01EFE0028E1D008
:100FF000074B0390CDE9015300952B46EBE700BF6B
:10100000A44D0100C45D010064510100E25D0100D6
:10101000025E010030B51848184D174C87B0FFF735
:10102000B5FF4FF0FF324FF0FF3301A928460EF015
:101030003FFF0028F5D19DF804303BB1012B13D0C0
:10104000049B6BB16FF015021A6009E0DDE9022321
:10105000BDF80610204611F0A2F8049B03B11860F9
:1010600005980FF04FF8DCE7DDE90223BDF8061024
:10107000204600F0ABFFF0E7EC0D0020D808002080
:1010800030B585B000251A4B1A49029303222B462E
:101090002846CDE9005510F096FDFFF71DFC0446EB
:1010A00068B1154B0390CDE90153124900952B46C9
:1010B0000122284610F087FD204605B030BDFFF71D
:1010C0009FFC044610B10D4B0390ECE7FFF7E4FDE5
:1010D000044610B10A4B0390E5E70A4B054900901E
:1010E000CDE901030322034610F06DFDE4E700BFE4
:1010F000545E0100DC500100675E01007F5E01006C
:10110000945E0100AC5E010010B5094C0A449142A6
:1011100000D110BD11F8013B584003090001E35C08
:10112000C0B2434018091B01205CDBB25840EEE717
:10113000CB5E01002DE9F04F93B084070093944BF0
:1011400003921B6811934FF00003039BDDF870803E
:1011500003F004030293039BC3F3C20303F10103EF
:1011600005460E46059340F0C481041D68B1072969
:1011700010D86FF01B00864B1A68119B5A404FF035
:10118000000300F0B98113F04FFB01F0070634446F
:10119000C6F10806009B4FF00009591E4FF0040AE3
:1011A0004FF0FF330193CDF810904F46CB46534696
:1011B0000DB1009A22600598002800F3EF80754871
:1011C000009A824203D374488242C0F0E780039AB7
:1011D000A4EB050E92074FEA9E0000F10A810F2F43
:1011E00000F2B180002D00F00C8107F148020DEBF8
:1011F000020C019A0CF8240C0CF8142C0498013001
:101200000490EEE07A285DD84B280ED8472859D8AC
:1012100029282DD8252852D054D820287AD02338F0
:10122000D0F1000B4BEB000B74E04C382E2849D862
:10123000DFE800F07048484848484848484848486F
:101240004B484848484848484859484B4B595959D1
:10125000704B6D487048184B184848827F4B48487F
:101260004B487F0000204FF0000B4FF0040A38E09D
:101270002A38C0B2012202FA00F010EA0E0F49D15A
:1012800010F0625C2FD110EA020B43D06046013CA3
:101290005444B4FBFAF40AFB04F4002D61D0A3EB30
:1012A000050CA444B4453FF664AF002868D1042B74
:1012B00047D158F8043B2360043404232AE0019A00
:1012C000013A01924FF0000B24E011F8010C6C2858
:1012D00034D111F8023C00206C2B8346C5D14FF06D
:1012E000080A5346D3E708F1070828F0070807342F
:1012F000F8E802AB24F0070435B106982044B04268
:101300003FF637AFC4E900AB08344FF0000B4FF0A5
:10131000080A534611F8010F00287FD0BBF1000FD7
:101320007FF470AF2528F5D1019B013301934FF075
:10133000010B4FF0040AECE7584694E7002083467F
:10134000A5E7082B02D06FF0150014E708F1070895
:1013500028F00708F8E80223C4E90023083408232A
:10136000D8E768B9042B02D108F10408A4E7082BD8
:10137000E9D108F1070828F0070808F10808EDE7A7
:10138000059A013A059258F8042B009210E700BF25
:1013900048070120984C010014760100039A900739
:1013A00020D5A4EB050E4FEA9E004FF0010CBEF5D0
:1013B000007FC8D20F2FC6D8F5B107F148020DEB58
:1013C000020EC0B2019A0EF8240C0EF8142CBCF1D7
:1013D000000F3FF413AF60F07F000EF8240C09F10A
:1013E00001090137C5F10802043406924FF6DA7E8E
:1013F00090E74FF0000CDAE7BCF1000F01D00136A6
:10140000EFE7029802360028EBD10098CDE90631CB
:10141000FFF714F8DDE906310644E2E7631BB3F594
:10142000806F90D21DB9A6F10804E018A3E6029AD5
:1014300028609B082B709DF81030C2B1EB7085F8C6
:101440000290B9F1000F05D009A80022C5F1010CE6
:1014500097420ED1C5F101030DF124084FF0000AA7
:1014600001930DF1340B574512D1601B83E66B706D
:10147000E5E710F8013B190608D50CEB040EB6455C
:1014800003F07F033FF675AE04F8013B0132DFE75E
:10149000B9F1000F03D098F90020002A17DB029B56
:1014A000D3B11AF80B2004F8012B0022019B181964
:1014B0001044B0423FF65DAE98F8000004F8010B0E
:1014C00000990392204613F03AFB039A14440AF160
:1014D000010A08F10108C6E798F8002055F8223003
:1014E0000093029B45F822300098FEF7A7FF421CAC
:1014F000DCE76FF00D003EE613B0BDE8F08F00BFF3
:10150000014B1860704700BFDC04002080B5054621
:101510000E46174698460FF0B3FA034613F0B2FB97
:10152000DFF81890044649F8003042463046394604
:10153000A84754F8090001F043FF00BF080000006D
:1015400008B50446EFF31183202383F31288BFF319
:101550006F8F0CF041FA204602F052FA024810F068
:1015600054FC10F056FFFCE7EC5E01002DE9F0475B
:10157000058B04462807904611D4022905F007057B
:1015800040F0CC80204610F04DFC78B10138218B22
:10159000042811D8DFE800F0C2106D8595000129FC
:1015A0000CBF45F0100545F02005258388F3118810
:1015B000BFF36F8FBDE8F08701F0070AAA4500F07E
:1015C000A5800027B9463E46A368002B00F0BC80EA
:1015D00041F00801218388F31188BFF36F8FA16860
:1015E000002900F0BA800D68002900F0B680D1F81B
:1015F0000480334652462046C047002D76D02B68E3
:1016000029461D46F0E701F007035A1F012A1BD89F
:10161000002221F00701062B276889B2C4E90022C5
:1016200009D13B4603E0628B013262831B68002BC9
:10163000F9D141F002012183204610F0F3FB00288C
:101640007AD041F0200176E0042B0AD121F0070185
:1016500089B22183204610F0E5FB10B141F0200152
:101660002183218B01F0070AAA454FD00027B946F4
:10167000AAE7236921F0070141F00601062DD3F8FE
:10168000009021832DD1B9F1000F3FD041F0080126
:10169000218388F31188BFF36F8F3A492046C847EA
:1016A00029E021F00701236941F0040189B2042DEA
:1016B000D3F804902183E6D000273E464FF0040A79
:1016C00082E721F00701236941F0050189B2052D68
:1016D000D3F808902183D6D000273E464FF0050A64
:1016E00072E700273E464FF0060A6DE72B4687E774
:1016F000B9F1000FD1D1EFF31188202383F31288C1
:10170000BFF36F8F238B23F008032383258BEA0617
:101710002ED525F01003238305F007056669218B7C
:10172000002EBFF670AF00232768C4E9003321F014
:10173000070141F001012183218B01F0070AAA452D
:101740004FF000097FF440AF002F9CD041F008011A
:10175000218388F31188BFF36F8F002FC8D03D68B5
:10176000394633465246204610F088FB2F46F4E7B0
:10177000AB067FF51BAF25F02003238305F007059B
:1017800000E700BFA91E01002DE9F0431C461B4BDA
:101790008BB01B6809934FF00003C36A1D686D424C
:1017A00006468846174605F020054CB92046134BDF
:1017B0001A68099B5A404FF000031BD013F034F80D
:1017C000AC42A14628BFA9464B4601AA4146304635
:1017D00010F00FFC0028EAD101AB484502D1241AD1
:1017E0008044E2E713F8012BBA4201D10130F4E75B
:1017F0000120DCE70BB0BDE8F08300BF4807012003
:1018000070B5838905680E0C090C86B003FB015581
:10181000CDE90453104B0393104B0293044600236D
:101820000822CDE9003218460D49042210F005FCCB
:101830003604A06AA289294610F09DFD50B9E26ADB
:10184000A389527931462046FFF79EFF002818BF32
:101850006FF0050006B070BDD8600100155F010093
:10186000145101002DE9F04389B04B8804931D4BBE
:1018700003931D4B0293082400230746CDE900344F
:101880000D4618461949DFF86890042210F0D5FB80
:10189000F86A214610F0E1FB2C68241A80462C607F
:1018A00004EA0906B44203D8002009B0BDE8F08379
:1018B000082306AA2146384610F09BFB0028F4D1E5
:1018C00006A9384610F0D3FB40B1BDF81A30BDF878
:1018D0001C202C6006EA090613441E44A4EB0804ED
:1018E000E0E700BFC3600100365F01001451010052
:1018F0000000FFFF2DE9F043074622488BB09046D9
:10190000006809904FF000001E464BB900201D4BA7
:101910001A68099B5A404FF000032FD012F084FF41
:101920003C68BB89080C14FA81F100FB0314FB6AC4
:101930001D686D4235400CD0B86A83682146D3F8E3
:1019400004902B46C8470028E1D1761BDED02C44FA
:10195000A8443246414601A813F0F1F8FD6A2A680E
:10196000697901AB9819921B13F011F9B86A2B68C9
:1019700082682146556801AAA847C8E70BB0BDE8B0
:10198000F08300BF4807012070B588B083880493B6
:10199000114B0393114B02930025044608230422A4
:1019A000CDE900530E492B46284610F046FB4FF672
:1019B000FF76A368ADF81A3006A8ADF81860ADF848
:1019C0001C508DF81E6010F02FFB06A9204610F069
:1019D000D5FB08B070BD00BFA86001005D5F0100CD
:1019E0001451010073B504460821C06A124E10F06C
:1019F00034FB4FF6FF726368ADF800208DF80620C7
:101A0000A289191833401344181A002560606846EB
:101A1000ADF80210ADF8045010F006FB6946204600
:101A200010F0ACFB2046211D10F0F1FA6368284647
:101A30003340A36002B070BD0000FFFF2DE9F04FFE
:101A4000754B04469BB0C06A08211B6819934FF080
:101A5000000310F002FB63681B0C1B04054608A979
:101A60002046089310F0D3FADDF820B0A6895E4432
:101A7000761B0BAA082331462046099610F0B9FAC6
:101A8000021EC0F2BB80E36A0BAA5979002312F848
:101A9000010B814240F0A1800133082BF7D1A368EC
:101AA00062682B449A4280F0908059462046FFF7A6
:101AB000A7FE0246A2E0BDF82E30360C36041E44C6
:101AC00009960DAA09A92046DDF824A010F00CFB08
:101AD0000246002840F092800DA9204610F0C7FA77
:101AE00018B9079B5345ECD1D9E763680A930FAA4D
:101AF0000AA920460A9E10F0F7FA024600287DD176
:101B0000BDF83C20BDF834309A4238D062680A9B58
:101B10009A42ECD1B245E4D1BDF83830002BE0D088
:101B20000593BDF8343004933C4B03933C4B029334
:101B300008220023CDE9003218463A49042210F069
:101B40007CFABDF836704FEA1A431B041F440DA8F7
:101B5000A368ADF8363010F067FAE36ABDF8389044
:101B60001E68764206F02006B9F1000F0ED10DA9CD
:101B7000204610F003FB02460028B2D03EE00FA939
:101B8000204610F074FA0028C0D0C3E74E45B04696
:101B900028BFC84611AA43463946204610F029FA04
:101BA000024658BB4346A16811AA2046FFF7A2FE91
:101BB00041460246E06A10F050FAA3680344A3606D
:101BC000E2B9A9EB08094744CEE72046FFF7DCFE5F
:101BD000024600283FF469AF10E0731B0BA92046B2
:101BE000079310F063FA00287FF465AF09A9204637
:101BF000FFF738FE024600283FF463AF064B196832
:101C0000199B59404FF0000301D012F00DFE104611
:101C10001BB0BDE8F08F00BF48070120BC60010089
:101C20007A5F0100145101002DE9F04704468EB09F
:101C300000F11407384612F0C3FCA06A8368DB6821
:101C400098470346E06230B9904A0090CDE901021E
:101C50008F4901220FE0A06A8368DB689847036818
:101C6000013B1F2B0FD98B4B02930023CDE900338F
:101C700087490122184610F0E0F96FF01505284653
:101C80000EB0BDE8F087A06A21680BAA11F0B6FF7C
:101C900008B1814BE8E7A5892DB10C9BB5FBF3F2A8
:101CA00003FB12550DB17D4BDEE7E389012B05D80F
:101CB0007B4B0095CDE901532B46C9E7E36A0695B6
:101CC00093F805904FF0FF334FF0FF3238460EF097
:101CD00051F9E06A082110F0C0F9A8460646E389E8
:101CE0001FFA85FA534508D8E389434523D138467E
:101CF0000EF0B8F96FF02C05C1E7A1892B04891B00
:101D000013FA81F14A46082320460691FFF73CFD6D
:101D100078B106A9204610F07AF908F10108069971
:101D200008234A4620461FFA88F8FFF72DFD0028B1
:101D3000DAD00135D3E753450BD1069908234A463B
:101D4000891B2046FFF720FD18B906A9204610F090
:101D50005EF906A92046FFF785FD054618B138460D
:101D60000EF080F98BE7069B63604FEA13484FEA59
:101D70000848C4F80880D4E9011399420FD3082316
:101D800007AA204610F035F905460028E7D107AB31
:101D900013F8012B914543D10135082DF8D1636823
:101DA0001B0C1B0406A92046069310F030F9A389EA
:101DB00006994A462046FFF7E7FC051ECFDB63681D
:101DC00000F0828006EB03084FF6FF79A389CDF877
:101DD00018801FFA88F29B1B9A423DD3314B029325
:101DE00000231846CDE900332949032210F025F9D4
:101DF00061682046FFF704FD05460028AFD16368FF
:101E0000294AA18913400B44A3EB460363601340A6
:101E1000A3602046FFF712FE0546002D70D09EE716
:101E200007A9204610F023F9626810B9921B62607E
:101E3000A1E7BDF82050BDF81E10E06AC4F8088084
:101E4000294410F00AF940449042A060EED1002DE0
:101E5000ECD06FF01C0590E0082309AA414620460B
:101E600010F0C7F8054600287FF479AF09A920468D
:101E700010F0FDF838B1BDF824304B4503D1BDF862
:101E80002830002B7FD0B044A0E700BFA45F010042
:101E900014510100C65F0100E35F0100FB5F010018
:101EA0000F6001006C6001000000FFFF5B1A4A46F2
:101EB0002046FFF769FC051EFFF651AF08D0E26A25
:101EC000A36812681344A360D4E901318B42EDD8B2
:101ED0006168A38901EB46029A429ED1DFF8D48063
:101EE000A26801EA08039A4297D02046FFF788FCCF
:101EF000054600287FF433AF636803EA0803A36054
:101F0000A389A288A3EB46039A4232D038460EF04A
:101F1000A9F801232374A3890493E389039300257B
:101F2000254B029328462B46CDE900552349032231
:101F300010F083F86368214900959AB21B0C039353
:101F40001F4B0492CDE9015328462B46032210F083
:101F500074F8A368194900959AB21B0C0393194BA6
:101F60000492CDE9015303222B46284610F065F870
:101F700085E62046FFF708FD054638460EF072F864
:101F8000002DC6D07BE6104B0C490095CDE90153DE
:101F900003222B46284610F050F863681B0C1B04E4
:101FA00006A92046069310F032F806992046FFF75E
:101FB00027FC31E70000FFFF3260010014510100EF
:101FC000496001005B600100936001002DE9F04F62
:101FD00097B01D46704B069104921B6815934FF005
:101FE0000003037C0446A3B96C4A6D490093CDE914
:101FF00001321846012210F020F86FF00C06664BF3
:102000001A68159B5A404FF0000300F0C08012F090
:102010000BFCC26A0821104610F01FF829460590F3
:10202000104610F01AF8A389059AA3EB8203AB427D
:102030000746C0F0A9801DB1049B002B00F0A480CE
:102040006368089309AA08A92046DDF820A010F0CB
:102050004BF806460028D2D1BDF82430069A9342A8
:1020600006D06268089B9A42ECD1002D36D1C6E7B3
:1020700009A920460FF0FBFF0028F2D0BDF826800A
:10208000BDF8283045B39D4228D1E36ADDF810B091
:102090001B684FEA1A4A5B424FEA0A4A03F02003E0
:1020A000D0440793AA46DDF81C90D14528BFD146FD
:1020B0004B460DAA414620460FF09BFF00284AD10F
:1020C0004A460DA9584612F06AFD38B9BAEB090A1A
:1020D000C844CB44E7D192E7002B90D0002F3DD1EC
:1020E000B84604F1140A4FF0FF324FF0FF33504668
:1020F0000DF040FFE3899E4243D0A168626808EB7F
:1021000001039A422FD3069BADF82C30FF238DF8A4
:102110003230049AADF82E102B462046ADF83050E0
:10212000FFF7E8FB29460746E06A0FF096FFA36831
:102130000344A36057B90BA80FF076FF0BA9204604
:1021400010F01CF8002814BF07462F4650460DF02B
:1021500089FF3E4653E7C1DC064650E7059B1F4416
:102160001FFA87F8BDE72046FFF73CFC074600282A
:10217000ECD12046FFF762FC07460028E6D1013685
:10218000B8E76FF01B07E1E76FF0150637E7304659
:1021900017B0BDE8F08F00BF48070120905F010035
:1021A000145101002DE9F0471E4688B0037CBDF8AC
:1021B000409004460F4690466BB92F4A2F49009332
:1021C000CDE90132184601220FF037FF6FF00C0005
:1021D00008B0BDE8F087C06A08210FF03EFFA38970
:1021E000A3EB4003B34243D3D4F804A0CDF814A02A
:1021F00000254D455146DDF814A009D963685345C3
:102200001ED1BDF81830BB421AD06FF00100DFE7D5
:1022100006AA05A920460FF067FF0028D8D1BDF80F
:102220001830BB4206D106A920460FF020FF08B1A6
:102230000135ADB26268059B9A42DAD15146E0E7BA
:10224000BDF81C30002BE0D0A945DED8BDF81A003F
:10225000090CB3424FEA014128BF334601444246CC
:1022600020460FF0C6FE0028B2D1BDF81C00AFE733
:102270006FF01500ACE700BF905F01001451010042
:102280002DE9F84F81462F480F460FF093FF064681
:1022900070B92D4CDFF8B4A00546A0464FF0010BF5
:1022A000544507D3B9F1000F02D04FF0010AE5B948
:1022B000BDE8F88F237B6BB12368DB680BB1204648
:1022C000984723681B6943B963680422196820464C
:1022D00000F0C8F801361034E2E72046984700289D
:1022E000F2D00BFA06F31D43F4E7A94695FAA5F4DC
:1022F000B4FA84F40AFA04F3260108EB04146FEA32
:10230000030B25EA0305237B63B158F806301B69EC
:1023100093B94644042273682046196809EA0B09F8
:1023200000F0A0F8002DE1D127B14FF4A4700021F6
:1023300012F03FFA4D46BAE7204698470028F1D1FF
:10234000E7E700BF240E0020B4510100D451010082
:10235000014B53F820007047B852010008B50346FE
:1023600008462BB1044A136000F092FA002008BD21
:102370006FF01500FBE700BFE0040020054A0648A7
:1023800000231370054A1360054A4FF4004113609F
:10239000FFF7E4BF30280020B12101001C0E00200F
:1023A000200E002070B50B4D297841B90120FFF7B0
:1023B00067FF094C094EB44202D301232B7070BD54
:1023C00063685B791BB1236820469B68984710348B
:1023D000F1E700BF30280020B4510100D4510100C2
:1023E00010B5044608480FF0E5FE5CB1BFF35B8F03
:1023F000064B53E8001F013943E80012002AF8D1C8
:10240000BFF35B8F10BD00BF1C0E0020200E00200C
:1024100070B50A4B0A4C1B680A4E05469847A860DF
:10242000B44200D370BD63685B7923B12368294649
:102430001B68204698471034F2E700BFE0040020F4
:10244000B4510100D4510100044A054B9B1AB1EB71
:10245000D30F34BF52F8310000207047DC50010028
:10246000B4510100084BC31A10B41B114468013366
:10247000237143689A7143681960436801225A7155
:1024800010BC0FF0B9BE00BFB45101002DE9F04FF0
:1024900087B004AFD7E90EA993462C4A3D6B04469A
:1024A0000E46984612687A604FF00002BAF1000FAB
:1024B00023D0C7F80090CDF8009010217A6B5346D6
:1024C0000020FEF737FEB0F5006F014616D340F24C
:1024D000FF7303931E4B02930023CDE900331D4984
:1024E000022218460FF0A4FE184B1A687B685A4067
:1024F0004FF0000326D012F097F9514604F007047C
:102500000BF0070BE40044EA8B1444EA412444EA4C
:10251000055417350D4425F00705ADEB050D04AD49
:10252000BAF1000F07D0CDF800907A6B534605F151
:102530001000FEF7FFFD43462246314628460FF0C5
:102540005EFED1E70C37BD46BDE8F08F480701209D
:10255000036101002C510100406820B1034BC01AF7
:1025600040F3CF0070474FF0FF307047DC50010060
:102570000EB403B503AB014653F8042B0448019392
:1025800001F0D0F902B05DF804EB03B0704700BF72
:102590006D220100CA0605D48B064CBF02490349CF
:1025A000FFF7E6BF704700BF3C6101003B610100DF
:1025B0002DE9F04F87B004469DF844600D469046E3
:1025C0009946002E00F0A280159B03F0020A03F04A
:1025D00001030493159B03F0080B03F48073059328
:1025E0000FF00BFE024600283DD095492046FFF72C
:1025F000BFFF0746BAF1000F09D0159B13F0440F37
:1026000033D190492A462046FFF7B2FF0744049B86
:1026100053B18D4B8D4953F826208D4B2046002A0F
:1026200008BF1A46FFF7A4FF059B002B49D0BBF15A
:10263000000F64D1B8F1000F66D0864942462046AB
:10264000FFF796FF0546129B3D44002B6DD1149B6E
:10265000002B73D1159BDB0700F1EB801599204609
:10266000FFF798FFD8E00746C4E77B4B18680028BF
:10267000CCD07A4B4FF47A7A1B68B5FBF3F54FF464
:102680006163B5FBF0F100FB11550AFB05F54FF056
:102690003C0CB1FBF3F203FB1211B5FBF0FEB1FBF6
:1026A000FCF300FB1E550CFB13110AFB05F5009112
:1026B000B5FBF0F56A49CDE901E52046FFF758FF83
:1026C000A4E7BBF1000F1DD0664B674953F82620E5
:1026D0002046FFF74DFF0546B8F1000F05D05D49D4
:1026E00042462046FFF744FF0544B9F1000FAAD047
:1026F0005E494A462046FFF73BFF0544A3E74FF0FB
:102700000009E1E75D46E7E745469CE7B9F1010FBF
:10271000129B06D1002B66D1149B002B7CD0002588
:102720000CE0002BF8D052485EE05248129B524910
:1027300022460FF037FB149B002B6AD0DFF83C8158
:10274000DFF83C91149F1599102F204628BF1027C1
:10275000FFF720FF4FF0000B5D4547DC139B494618
:102760001A782046FFF704FF4FF0010B1BF0070F0C
:1027700003D141462046FFF7FBFE5F453DD9139B41
:10278000494613F80B202046FFF7F2FE0BF1010B30
:10279000BBF1100FEAD13B49DFF8ECB020464FF017
:1027A000000AFFF7E5FE5246139B9A5CA2F1200156
:1027B0005F2928BF2E2259462046FFF7D9FE0AF18D
:1027C000010ABAF1100F1DD01AF0070F03D14146CC
:1027D0002046FFF7CDFE57455246E5D841462046F4
:1027E000FFF7C6FEEBE7234835469FE74146204604
:1027F000FFF7BEFE0BF1010BAEE724492046FFF7C1
:10280000B7FEC3E7139B3B441393149BDB1B14934A
:1028100098D1002E7FF41EAF6268A1682068D2E9CB
:1028200000230FF015FD636800221A6007B0BDE8B1
:10283000F08F074A05492046FFF79AFE0EE700BFD2
:102840004361010047610100C8520100F7660100C1
:102850003E6101006C6101002C0E0020280E00205A
:1028600050610100DC5201007061010076610100DD
:10287000892201006D2201002539000083610100D9
:102880007B610100856101008761010081610100B8
:10289000074A00210123904206D8064A01B90123C4
:1028A0001360054B1860704740085B000121F2E798
:1028B00040420F00280E00202C0E0020014B012268
:1028C0001A70704731280020014B002019607047B2
:1028D000440E002010B5064B18680C46FFF738FD73
:1028E00021460346BDE8104002480F22184700BFAA
:1028F000440E00200C530100F8B5094D094B0A4E57
:10290000D5E9004701221A700CB92C60F8BD2146A8
:1029100030463A4600F00AF8241A0644F4E700BFAD
:10292000380E00203228002033280020F8B5194D39
:1029300007460E4604243246394600200CF0CEFFEE
:10294000C8B101232B70144B1B782BB93046F8BD4E
:102950005CB92C704FF0FF3400200DF003F8002814
:10296000F4D02B78002BF3D1F0E7013C41F2883012
:1029700011F062FDF0E72B7813B1013C04D12C700B
:102980002B78002BD7D1E1E741F2883011F054FDCC
:10299000F6E700BF3128002032280020F8B5074FA5
:1029A0000D4604464618B44201D12846F8BD14F835
:1029B000011BBB6801485B689847F4E77C4D010048
:1029C000014B0360002070475053010008B50448D4
:1029D0000FF01BFABDE8084002480FF016BA00BF1E
:1029E000DA6101000F62010001480EF043BC00BF34
:1029F0005053010038B5044618B90F4B0F485B68B7
:102A000098476168B1F5683F10D0B1F5680F0DD0F7
:102A10000B4DA9420AD011F46861206807D0014625
:102A2000084811F076FD00232360656038BD14224C
:102A300012F0ADF8F9E700BFE80600203D620100A2
:102A40002C5F5CA97413002008B520B34368B3F56C
:102A5000683F10D101220368BFF35B8F53E8001F6A
:102A6000002903D143E800200028F7D1BFF35B8F92
:102A70000DD1002008BD094A93420AD000684FF0EA
:102A8000FF324FF0FF330DF075FA0028F1D0044803
:102A9000F0E70448EEE76FF4E040EBE72C5F5CA959
:102AA000E98FFFFFEA8FFFFF08B5D8B14368B3F5A0
:102AB000683F10D100220368BFF35B8F53E8001F0B
:102AC000012903D143E800200028F7D1BFF35B8F31
:102AD0000BD1002008BD074A934208D000680DF0D2
:102AE000C1FAF6E76FF4E040F4E70348F2E7034881
:102AF000F0E700BF2C5F5CA9E98FFFFFEA8FFFFFC3
:102B000010B5044618B91D4B1D485B6898476368AB
:102B1000B3F5683F2FD0B3F5680F2CD0194A934214
:102B200019D1236803BB18484FF0FF324FF0FF3331
:102B300021460DF035F908B923681BB90F4B13482E
:102B40005B68984720681422002112F020F84FF4A7
:102B50006863636008E0B3F5683F0DD83A2B03D093
:102B600040F6BA629342DED1206811F029FD636815
:102B700043F03A03636010BD054AF3E7E80600201E
:102B80003D6201002C5F5CA97413002063620100A8
:102B90003A00003A08B5064906484023142211F0CD
:102BA000AAFCBDE80840044904480EF0D5BB00BFAC
:102BB000740E002074130020585301006C53010060
:102BC00070B5064686B00D46002938D08B6805934F
:102BD0004B6804930B6803930024244B244902930D
:102BE000012223462046CDE900440FF0DCFB6B694F
:102BF00005932B690493EB6803931E4B1C490094C7
:102C0000CDE901430122234620460FF0CCFBEB69BE
:102C10000393194B16490094CDE901430122234641
:102C200020460FF0C0FBAB690393144B104900948E
:102C3000CDE901430122234620460FF0B4FB012ECB
:102C40000DD1EFF30583103B03930D4B029300234B
:102C5000CDE900330649324618460FF0A4FB294659
:102C6000304606B0BDE870400CF0B2BE9062010084
:102C700074510100BF620100EE620100FD620100BB
:102C80002B63010030BFFFF7FDBF00BF2DE9F0410E
:102C90000B4EDFF8308006EB0807CC1B05463246AA
:102CA0000949204611F04BFFA01942460021083C7B
:102CB00011F06DFF6C6707F10800BDE8F08100BFFF
:102CC0000000000004000000D4510100074A93688E
:102CD00093F90E10002907DB526993421FBF044A83
:102CE000536843F080535360704700BF1C26002098
:102CF00000ED00E0F0B585B00024434B0293CDE930
:102D00000044234607460E460122404920460FF064
:102D100065FB3F4B9B6ADB0465D53E4B3B4900940A
:102D2000CDE901432046234601220FF057FB17202F
:102D3000374B9B6A1D050AD5374B02930023184673
:102D4000CDE90033314901220FF048FB1820304D06
:102D5000AB6A9C051FD50024304B02930122234609
:102D60002046CDE9004429490FF038FBAB6BAA6A35
:102D700010040FD503932A4B24490094CDE9014355
:102D80000122234620460FF029FB1FB1AB6A23F432
:102D90000043AB6219201E4B9B6A59050AD5214B93
:102DA000029300231846CDE90033184901220FF0A1
:102DB00015FB1A20164A936A13F4807315D01A4B28
:102DC000029300231846CDE90033104901220FF089
:102DD00005FB1B200E4A936A43F47F439362002352
:102DE000337005B0F0BD1620A2E7926A9204F1D5C7
:102DF0000E4A06490093CDE90132184601220FF030
:102E0000EDFA1C20E6E700BF3E63010074510100AB
:102E100000ED00E054630100656301007863010088
:102E200091630100A6630100C1630100D963010041
:102E30001FB50024374B029301222346CDE90044FD
:102E4000354920460FF0CAFA344B9B6A9A015ED589
:102E5000334B31490094CDE90143204623460122FA
:102E60000FF0BCFA1E202D4B9B6ADB010AD52D4BBF
:102E7000029300231846CDE90033274901220FF0C1
:102E8000ADFA1F20254B9B6A1C030AD5264B0293E3
:102E900000231846CDE900331F4901220FF09EFAA6
:102EA00021201E4B9B6A59030AD5204B0293002315
:102EB0001846CDE90033184901220FF08FFA22207D
:102EC000164B9B6A9A030AD5194B029300231846A6
:102ED000CDE90033104901220FF080FA23200F4B77
:102EE0009B6ADB030AD5134B029300231846CDE9F6
:102EF0000033094901220FF071FA2420074A936A2E
:102F00006FEA03436FEA1343936204B010BD1D20C0
:102F1000A9E700BF086401007451010000ED00E062
:102F200020640100336401004D6401006B64010002
:102F300090640100AA6401002DE9F04385B00024EB
:102F40004D4B0293CDE90044234680468946164600
:102F50004A49012220460FF041FA494B9B6ADF069D
:102F600040D5484B0094CDE90143204623464349D0
:102F700001220FF033FA1124414B9B6A1D070AD539
:102F8000414B02930023CDE900333C49012218460E
:102F90000FF024FA12243A4DAB6A980724D5002486
:102FA0003A4B36490293CDE900442346012220469C
:102FB0000FF014FA6F6BAB6A190659D5344B2F49D1
:102FC0000397CDE9014300942346012220460FF0E8
:102FD00005FAB9F1000F03D0AB6A23F08003AB62AE
:102FE000132403E01024C7E76FF01507244B9B6AF6
:102FF000DA070AD5274B02930023CDE900331F4996
:10300000012218460FF0EAF914241D4B9B6A9B0617
:103010000AD5214B02930023CDE900331749012241
:1030200018460FF0DBF91524154B9A6AD50602D421
:103030009A6A90070AD55B68190507D54146384654
:1030400000F098FA10B180F3098802240C4B9A6AB8
:10305000920642BF5A6A22F400525A629A6A42F0B9
:10306000FF029A6220460023337005B0BDE8F0836A
:103070006FF01507B4E700BFD5640100745101007B
:1030800000ED00E0EB640100656301001E650100D6
:10309000366501004C650100D96301002DE9F0415E
:1030A000754B5F6890B00446C7F30806002383F3AE
:1030B0001188BFF36F8F02F07F40B0F17F4F0CD1CA
:1030C00002F00C00082819D16C4A6D490093CDE933
:1030D0000132184601220FF081F900252C464FF0ED
:1030E0000008F31E8DF81F80092B00F2AC80DFE88A
:1030F00003F00BA0A49CAAAAAAAAAAA8120746BFDA
:103100000C461D460125EAE75E4B5D495A4FCDF856
:103110000080CDE901830023012218460FF05EF9FB
:103120008DF81F80FE6A16F0020605D0564BCDF8CA
:103130000080CDE9018306E0FB6A002B0BDA534BDC
:103140000096CDE9016300234D49012218460FF096
:1031500045F900223BE0FB6A5B00FAD54C4B48493D
:103160000096CDE901630122334630460FF036F96F
:103170007B69A26943F480737B61BFF34F8FBFF318
:103180006F8F7B6932F8022C23F480737B61BFF36D
:103190004F8FBFF36F8F4DF602739A420AD0BB6A0E
:1031A000DBB2002B33D00DF11F0201212046FFF7C7
:1031B000C3FE3CE023680393364B31490096CDE9CA
:1031C00001630122334630460FF008F922689DF86A
:1031D0001F30CBB908AE04F1200720686168334680
:1031E00003C30834BC421E46F7D10F9B002D3ED0CE
:1031F000C3F3080121B96FEA53236FEA43230F9306
:1032000008A91046FFF7DCFC10B0BDE8F081BB6AEE
:1032100013F47F4F05D00DF11F010120FFF76AFD68
:1032200005E0BB6AB3F5803F93D3FFF701FE02468A
:10323000CDE70DF11F020021B8E70DF11F010020BD
:10324000ECE7154B73E7154A154B0D4917F4F87F5A
:1032500018BF1346103ECDE90336124B02930023EC
:10326000CDE90033012218460FF0B8F871E723F4D6
:10327000FF7323F00103C2E700ED00E09965010050
:1032800074510100C4650100DB650100FC650100AB
:103290000A6601002966010045660100806501009B
:1032A0006B65010069660100044B5A6942F0100227
:1032B0005A615A6922F008025A61704700ED00E035
:1032C000EFF30880EFF3098101B57246FFF7E6FEE0
:1032D00001BD00BF002080F31488BFF36F8F134837
:1032E00080F308880AF0AAFB002011490860BFF3A8
:1032F0004F8F00F033F8202080F311880D484FF0F5
:10330000AA014FF4046211F0D7F80A484FF404619F
:10331000401880F30988EFF314800221084380F3FA
:103320001488BFF36F8F00F0EDF8000040C4002058
:1033300094ED00E0807A00200749D1F89020002326
:10334000C2F307221846934200DB7047C1F8983059
:10335000C1F8A0000133F6E700ED00E008B572B651
:10336000002383F31388FFF7E7FF144B4FF0FF327E
:10337000C3F88020C3F88420C3F88820C3F88C20C9
:10338000C3F89020C3F89420C3F89820C3F89C2079
:10339000C3F88021C3F88421C3F88821C3F88C21A5
:1033A000C3F89021C3F89421C3F89821C3F89C2155
:1033B00062B6BFF34F8FBFF36F8F08BD00E100E02F
:1033C000084B9B6883420BD1EFF3058343B1064B57
:1033D0005A6842F080525A605A6A22F400425A6295
:1033E0000DF054BB1C26002000ED00E015498A6852
:1033F0004FF030001044EFF3098C80E8F01F2020DC
:1034000080F31288BFF36F8F0F4F4FF000664A6949
:103410008A603E604FF07404141920680B4C2060E1
:10342000906F0023936780F3118804B5104600F075
:1034300005F9BDE8044002F1300090E8F01F8CF37C
:10344000098870471C26002004ED00E0901300203E
:103450001EF0040F0CBFEFF30880EFF309808169C1
:1034600011F8021C0229FFD001B572460EF0ABFF25
:1034700001BD00BF40B2002807DB044A4109012317
:1034800000F01F00834042F82130704700E100E067
:1034900040B200280CDB4309064900F01F0020332E
:1034A0000122824041F82320BFF34F8FBFF36F8F7B
:1034B000704700BF00E100E0054B420900F01F002B
:1034C00053F82220012303FA00F01040704700BF98
:1034D00000E100E040B20028A8BF00F1604001F127
:1034E0000101B8BF064B4FEA4111ACBF00F5614086
:1034F00000F00F00C9B2B4BF195480F80013704730
:1035000014ED00E00B4A08B50B4B22F07F029A60E5
:10351000BFF34F8FBFF36F8FD3F8882022F4700270
:10352000C3F888200CF032FB0DF0D0FB00F05CF803
:103530000CF0A8FB0000000000ED00E042F8203C89
:10354000009B42F81C3C0A49019B42F8183C029B34
:1035500042F8143C21F001014FF0807342F8043C22
:1035600042F8081C0023203A02658367704700BFB9
:103570000D150000094A0346906870B113F1160F4B
:10358000406E05D0A0F140029A4205D8834203D292
:10359000814228BF00207047002070471C26002071
:1035A00008B51546094A0A4B9060426F1A600E46EC
:1035B00000F044F82C4686F309880020054B984714
:1035C0002046002100220023034C20471C26002017
:1035D00090130020052401000D150000014B10225E
:1035E0001A61704700ED00E0044800232021C21852
:1035F0000133302B82F80013F9D1704700E100E06D
:1036000008B5EFF30583064A103B02EBC30152F8FD
:10361000330049688847BDE80840FFF757BB00BF43
:10362000F44D0100024B034A0348012100F096B813
:1036300000000420000000207C530100426E054B76
:10364000403A1A60044A4021C3E901121846012198
:1036500000F08EB89413002000000B151FB5144A1B
:10366000D2F89030C3F30723013B98420FD9114B96
:10367000029300230390CDE9003318460E4901223E
:103680000EF0F3FE6FF0150005B05DF804FBC2F814
:1036900098000B6823F01F03034343F01003C2F8A4
:1036A0009C308B6843F00103C2F8A030ECE700BF08
:1036B00000ED00E0806601005C510100F0B50E46AF
:1036C00089B01F4604460025B54212DA606838B357
:1036D000BFB1431E18420FD0134B02930023CDE914
:1036E000003312490395012218460EF0BEFE6FF01A
:1036F0001502104609B0F0BD1F28EDD921680B4214
:10370000EAD1236805930EF0A0FEA36805A9034340
:10371000D0B20793FFF7A2FF10F1160FE7D0421CBB
:1037200001350C34D0E700BFA66601005C510100F2
:10373000044B0522C3F89420BFF34F8FBFF36F8F64
:10374000704700BF00ED00E0BFF35F8F024B002227
:10375000C3F89420704700BF00ED00E010B5034CA3
:1037600001232278FFF7AAFF207010BD3528002022
:1037700008B50B4A00231278FFF7A0FF10F1160FCF
:1037800007D0084A0021D2F89030C3F307239842AB
:1037900000DB08BDC2F89800C2F8A0100130F2E7C3
:1037A0003528002000ED00E02DE9F0435748584946
:1037B000D0F890300D68C3F307239D4285B000F226
:1037C000A180FFF7C1FF49680022954201F10C0179
:1037D0001AD1504C504F25706846FFF7F1F8DFF8CA
:1037E0003C81DFF83C9106460025AE421FD123788C
:1037F00046490020D1F89020C2F3072293427BDB98
:10380000FFF796FF00204CE0C0F8982051F80C3CE0
:1038100023F01F03134343F01003C0F89C3051F80A
:10382000043C43F00103C0F8A0300132CDE700981A
:1038300000EB05114FEA051CCB683B40B3F5000FC8
:1038400044D00AD8B3F5001F2ED0B3F5800F34D082
:10385000B3F5801F10D00135C7E7B3F1807F3ED0AC
:10386000B3F1007FF7D150F80C3088684A680EF049
:10387000ECFD40F4802009E050F80C3088684A687C
:103880000EF0E3FD40F0885040F43020039001A991
:103890002078CDE90123FFF7E1FE002828DA6FF058
:1038A000150005B0BDE8F08350F80C3088684A6810
:1038B0000EF0CBFD40EA0800E8E750F80C308868CD
:1038C0004A680EF0C2FD40EA0900DFE750F80C300C
:1038D00088684A680EF0B9FD40F08270D6E750F86B
:1038E0000C3088684A680EF0B0FD40F08870CDE773
:1038F000237801332370AEE7C1F89830C1F8A000F7
:10390000013377E74FF0FF30CBE700BF00ED00E079
:1039100088530100352800200000F0FF0000081146
:1039200000000202F0B587B007460E46144600219B
:10393000102268461D4611F02AF902238DF8023044
:103940002A46054B019321466846CDE904760DF0E1
:1039500039FE07B0F0BD00BF8B24010008B5024B53
:103960001B689847002008BDA0130020034B044AA1
:103970001860937843F0020393707047A0130020FF
:103980000C05002008B50649064821F00701C1F1E1
:10399000005202F580220EF0ADF9002008BD00BFF4
:1039A00007080120A41300200E4A0123C2F8403565
:1039B0004FF080424FF08051C2F87835D1F8300195
:1039C000082808D1D1F83411052904D80648415CEB
:1039D00009B1C2F838364FF080430122C3F8802580
:1039E0000020704700E00140D866010020B1034B81
:1039F000800143F001031847704700BF40520100A7
:103A0000BFF34F8F0549064BCA6802F4E0621343C7
:103A1000CB60BFF34F8F00BFFDE700BF00ED00E0BC
:103A20000400FA05024B1B6803B11847FF207047DA
:103A3000B41300200A4B0B4A0020C3E900000A4BD4
:103A40001A600A4A5A600A4A9A600A4ADA600A4BBD
:103A50000A4A9860C3E90020094ADA60704700BF4B
:103A6000D8130020453C0000C8130020893B00000B
:103A7000853A0000A1240100B8130020253A000077
:103A8000A324010030B544788FB00546ACB1204680
:103A900000F0D4FA1A4B02930023CDE900330390CF
:103AA0000122184918460EF0FEFC174B6A781A706E
:103AB00016480CF027FB0FB030BD0378052B12D051
:103AC000092B1BD0012BF0D1072304A88DF810304F
:103AD00004F066FA059B03930D4B0094CDE9014376
:103AE00003222346DDE70B4B06490094CDE9014351
:103AF0000322234620460EF0D6FCD6E7064BF3E71A
:103B0000E2660100545101003628002020090020FF
:103B1000FA660100186701003867010030B5114CE2
:103B20008FB02D23054604A88DF8103004F038FA24
:103B30009DF914302278934200D18DB1D8B20A4B4E
:103B400020701B6803B1984723780393074B0293B7
:103B50000023CDE900330649032218460EF0A3FCEA
:103B60000FB030BD38280020B01300204867010096
:103B700054510100034BBFF35B8F1868BFF35B8F99
:103B8000704700BFE01300202DE9FF414278044652
:103B900082B1104600F052FA264B029300230390A4
:103BA000CDE900332449012218460EF07CFC04B014
:103BB000BDE8F081FFF7DEFFC10702D51046FFF731
:103BC000ADFFFFF7D7FF83070ED4237F63B1BFF3A9
:103BD0005B8F1A4B53E8001F41F0020143E80012CB
:103BE000002AF7D1BFF35B8F217F63794900012B56
:103BF00008BF41F00101124B1D68CFB2002DD6D095
:103C0000083D4FF6FF782B88E078434501D083428A
:103C10000AD1A3680193237B00936E6894F9103056
:103C2000B4F90E203946B047AD68002DBFD0083D2D
:103C3000E9E700BF6067010054510100E013002074
:103C4000D81300201FB50446407860B100F0F6F9A3
:103C50000D4B029300230390CDE900330B49012261
:103C600018460EF020FCFFF785FFC30702D50020A1
:103C7000FFF754FF064B62781A70064804B0BDE89F
:103C800010400CF03FBA00BF7B67010054510100A7
:103C90003728002008090020F0B504469FB04FF0F7
:103CA000FF324FF0FF3368480CF064F901261D2302
:103CB0000AA88DF828308DF82C6004F089FA257D4B
:103CC000002D6AD1614B8DF814601B788DF8193086
:103CD0000227342314A88DF818708DF8503004F0A2
:103CE0005FF920B35A4B5B490095CDE90153324649
:103CF0002B4628460EF0D7FBEA24204600F092F926
:103D0000554B029300230390CDE9003318465149E7
:103D100001220EF0C8FB204600F09CF90446002862
:103D20007CD049480CF09EF920461FB0F0BD159B91
:103D3000A2899A802369159314A88DF8507004F015
:103D400047FA03238DF8503014A82368159304F024
:103D50003FFA09238DF8503014A86368159304F0D6
:103D600037FA08238DF8503014A8A368159304F08F
:103D70002FFA05A804F052FD04460028BDD14FF0EB
:103D8000FF3336484FF0FF320CF0F0F9344B18781F
:103D9000002843D000F070F9C0E7012D51D1352340
:103DA0008DF8503014A82F4B159304F011FA062308
:103DB0008DF8503014A80023159304F009FA072356
:103DC0008DF8503014A82368159304F001FA0C23E1
:103DD0008DF8503014A8A368159304F0F9F90D2359
:103DE0008DF8503014A8A368159304F0F1F90E2350
:103DF0008DF8503014A8A368159304F0E9F90F2347
:103E00008DF8503014A86368159304F0E1F914A8F4
:103E10008DF850508DF8545004F0DAF9FFF7AAFEEF
:103E2000C30709D42D238DF85030084B14A81B78F4
:103E30008DF8543004F0CCF90120FFF76FFE002418
:103E40006FE76FF015046CE7E407002039280020C5
:103E50009367010054510100AD6701002009002063
:103E60003628002000030001F0B507468BB0154648
:103E70001C460E4609B9002A5FD131484FF0FF3287
:103E80004FF0FF330CF076F804A9284604F026F82A
:103E900088B300F0C7F800242A4B03900293CDE9C1
:103EA000004429492346012220460EF0FCFA012550
:103EB0008DF814400794ADF8204005A88DF82240F5
:103EC00005F0AAFB044630B300F0ACF81F4B029398
:103ED0000023CDE900331C490390012218460EF05F
:103EE000E2FA204600F0B6F8044615480CF0BAF89D
:103EF00020460BB0F0BD5CB1012C09D0144BADF8DD
:103F0000205093F900408DF8187007960025D4E7EB
:103F10008DF81440F2E74FF0FF330E484FF0FF32B8
:103F20000CF024F90C4B187808B100F0A5F8002D1E
:103F3000044618BF6FF00A04D7E76FF01504D7E7FF
:103F4000F8070020C267010054510100E767010033
:103F5000382800200809002037280020002383602B
:103F6000054B596800F1080211B9C3E900227047F6
:103F70000A605A60704700BFD8130020014B1860D8
:103F8000704700BFB013002070B51E4E1E49327836
:103F90001E4892B003F0D8FD054680B100F042F80B
:103FA0001B4B02930023CDE90033039018461949B7
:103FB00001220EF078FA6FF0150012B070BD03F018
:103FC00083FF044640B100F02DF8134B0390CDE978
:103FD000015300952B46E9E7062306A930788DF8B2
:103FE00018300FF07CFA0D4BC0B218700C4B1870E3
:103FF00030238DF8203008A81423099304F0E8F842
:104000002046DAE768070020B8130020C813002014
:10401000FF67010054510100206801003928002089
:104020003828002017289ABF024B53F82000024876
:10403000704700BF845401004E6801000F289ABFEA
:10404000024B53F820000248704700BF445401005F
:104050005E6801001628034608D8064A52F8200078
:1040600030B9002B18BF6FF0150070476FF01500C6
:10407000704700BFE85301000F28034608D8064ADE
:1040800052F8200030B9002B18BF6FF015007047B0
:104090006FF01500704700BFA853010001480CF0F5
:1040A000C1B900BF1C050020014B18605960704762
:1040B000E4130020024B1A685B6802600B607047D3
:1040C000E413002008B50EF00FFA024B1B68C01A6B
:1040D00008BD00BFEC130020014810F0EDBB00BF8D
:1040E0009807002007B5014640F2E7304FF47A7296
:1040F000002300EBC130490CFCF786F902460B4661
:1041000000210020CDE9000102480CF085FF03B03A
:104110005DF804FB9807002008B50EF0E5F9014BA7
:10412000186008BDEC130020014B1868704700BFF1
:10413000EC13002010B5124CBFF35B8F022354E840
:10414000002F012A03D144E800310029F7D1BFF341
:104150005B8F0CBF0120002010D10A4BDB6A98470F
:10416000002344F8403CBFF35B8F54E8002F44E841
:1041700000310029F9D1BFF35B8F012010BD00BFD2
:1041800034140020F855010010B5064B5C68FFF7A9
:10419000D1FF30B12CB100212046BDE810400CF019
:1041A000CDBF10BDF013002013B50D4BD3E9014373
:1041B0003BB10C4B5B6B0193002002B0BDE810409B
:1041C0001847FFF7B7FF40B13CB16FF0040120463C
:1041D00002B0BDE810400CF0B1BF02B010BD00BF8E
:1041E000F0130020F85501002DE9F347284C9A46BA
:1041F000D4E9019307460D46164683B1254B0020AE
:104200005B6B9847E368CDE900A32A46D4F80880A1
:10421000206833463946C04702B0BDE8F08704F154
:1042200044020223BFF35B8F52E8001F012903D130
:1042300042E800300028F7D1BFF35B8F9046EBD106
:10424000E36C1A78AA4288BF1D70E36CA06C1A78E0
:10425000394610F074FC236D03B11E80636D0BB101
:1042600083F800A00B4BDB6A984700216160BFF325
:104270005B8F58E8003F48E80012002AF9D1BFF3ED
:104280005B8F484602B0BDE8F0470CF057BF00BF57
:10429000F0130020F8550100F0B5044687B000681F
:1042A0000E4610F0CEF82568034670B92A680392CE
:1042B0001E4A1F490090CDE9010201220EF05BF970
:1042C0006FF01205284607B0F0BDE388217933432B
:1042D000D802D5F808C02F6906D513F4402F03D0B3
:1042E000DA0748BF83F440233868012623F480129C
:1042F0008E40DB074CBF3043B0433860DCF8003001
:104300002846984705460028DCD005902379049379
:10431000236807491B680393064B02930023CDE9EA
:104320000033012218460EF026F9CBE7E66A0100B9
:10433000A4510100FF6A010070B50D460F49BFF39B
:104340005B8F012051E8004F002C03D141E80006AB
:10435000002EF7D1BFF35B8F0CD1094E41F8403CE2
:10436000D4B2736D214698472846B36A21469847D0
:10437000002070BD6FF00F00FBE700BF3414002079
:10438000F85501002DE9F04700258EB005ACDFF8A7
:10439000BC8081468A4617462946102209A8012674
:1043A000CDE90544CDE9075510F0F1FB8DF83160FA
:1043B000D8F834300D94002B45D023463A46514668
:1043C0004846FFF7B9FF041E39DBFFB2CDE90157BC
:1043D0000396B8F83C301E4C009398F83A3098F8A1
:1043E000392098F83810646A3046A047014640F2F8
:1043F000E7304FF47A72002300EB0140C1F30E4125
:10440000FCF702F802460B46314609A80CF03EFEC6
:10441000041E14DA0F4B10490095CDE901533246C2
:104420002B4628460EF0A7F8FFF784FE38B94FF068
:10443000FF324FF0FF33314609A80CF027FE20462B
:104440000EB0BDE8F0876FF01504F8E7F013002018
:10445000F85501001F6B0100A4510100F0B591B0A7
:1044600000248DF8172007AD0F46102221460BA817
:10447000CDE90755CDE90944012610F088FB2C4B06
:104480008DF839600F95BFF35B8F53E8002FA24280
:1044900003D143E800610029F7D1BFF35B8F43D11B
:1044A0000DF1170243E910549A60224D189ADA6010
:1044B000199A1A615F60FF216B6D304698476B6BEC
:1044C00020469847DDE9162331460BA80CF0DEFDA7
:1044D000051E1ADAFFF72EFE50B94FF0FF324FF0EB
:1044E000FF3331460BA80CF0D1FD9DF8175009E0C1
:1044F000114B12490094CDE9014303222346204683
:104500000EF039F8284611B0F0BD0A9B002BECDA0A
:104510000B4B0A490094CDE901433246234620461D
:104520000EF029F80A9DEDE76FF00F05EAE700BFEE
:1045300034140020F85501003B6B0100A451010028
:104540004B6B010010B529B9FFF7F4FDD8B96FF036
:10455000150010BD0E4BBFF35B8F012053E8004FD9
:10456000002C04D143E8000CBCF1000FF6D1BFF3DE
:104570005B8F0AD1074C43E90F12636DFF21984707
:10458000636B002098470020E3E76FF00F00E0E73F
:1045900034140020F8550100F0B52C4DBFF35B8FAB
:1045A0008BB00C46012755E8003F002B03D145E8AE
:1045B0000072002AF7D1BFF35B8F43D1244E2068ED
:1045C000F3689847E37A4BB32346103D04F1100794
:1045D000186859682A4603C20833BB421546F7D10A
:1045E0004FF47A63089300220120237B0793CDE9DF
:1045F0000522CDE9032023890293A37901936379EE
:104600000093F569237994F90A10A847B36D607B8C
:104610009847FFF78FFD00200BB0F0BD0997227B74
:10462000B569CDE90732CDE90533CDE903330A2277
:1046300002922289CDE900323846A3796279217944
:10464000A847E3E76FF00F00E6E700BF341400204F
:10465000F855010038B5084611461A460B4BBFF312
:104660005B8F012453E8005F002D04D143E8004C28
:10467000BCF1000FF6D1BFF35B8F04D1044BDB6BB1
:104680009847002038BD6FF00F00FBE7341400207E
:10469000F855010038B5114BBFF35B8F002453E888
:1046A000002F43E800410029F9D1BFF35B8F0C498B
:1046B00043F8341C0B490C4D43F82C1C0B4943F8B0
:1046C000241C0B4943F8301C2A6843F8440CA3F11E
:1046D00034009047EB6A9847204638BD34140020D8
:1046E00089410000E9410000F8550100A94100009E
:1046F000952501001FB50F4CE36953B90E4A0F49C8
:104700000093CDE90132184602220DF045FF04B0B6
:1047100010BD002098470A4B1B6E03B1984794F8D0
:104720002030002BF3D0034804B0BDE8104000F067
:1047300057B900BF48140020676B01009C5101006D
:10474000F8550100F0B54FF4B011476885B0064642
:104750002348FFF7A1FD054600283DD12149224805
:104760000FF057FF304600F065F9044660B11F4B6B
:104770001F490095CDE9015301222B4628460DF033
:104780000BFF204605B0F0BD38680FF05AFE60B947
:10479000184B02930023CDE9003315490122184636
:1047A0000DF0FAFE6FF01204EBE7F86818B10FF0A5
:1047B00048FE0028ECD03046FFF76CFF051EE0DA1B
:1047C0000D4B02930023CDE900330949012218461D
:1047D0000DF0E2FE2C46D4E76FF00404D1E700BFF1
:1047E000FC540100F546000054140020966B0100B3
:1047F0009C510100B46B0100C96B01000248012209
:104800000A210DF0D8BE00BF544D0100024800221D
:104810000A210DF0D0BE00BF544D0100014B93F8AA
:1048200020007047481400200346034880F82030D9
:104830000BB900F0EFB8704748140020014BD86165
:10484000704700BF4814002010B5044C204600F00B
:1048500095F8012384F8203010BD00BF48140020D3
:1048600010B5054C204600F0A3F800B910BD00219A
:1048700021200FF09EFFF5E74814002070B590B09E
:104880000D46DDE91461CDE90A3108ABCDE9080236
:10489000CDE90C5204930CAA02230446CDE90E6123
:1048A000CDE9062305930EF077F81248D5B9CEB9B5
:1048B000836811491D6804AA3346A84700280ADA0C
:1048C0000E4B029300230390CDE900330C490122E3
:1048D00018460DF061FE2378842B01D0FFF7C0FF4E
:1048E00010B070BD836804491D68024806AB04AA75
:1048F000E3E700BFCC4D0100E8540100EC6B010080
:104900009C51010070B5154D8AB0284600F068F83A
:10491000C023ADF8143005AB06930223079301249E
:1049200006AB089309940E480E49836808AA1E68CE
:104930000023B04700280CDA0B4B029300230390AE
:10494000CDE900330949224618460DF025FE0AB08C
:1049500070BDFFF785FF85F82040F8E74814002078
:10496000CC4D0100E8540100EC6B01009C510100AA
:10497000014800F029B800BF4814002010B50B4CC6
:104980000122032120460DF0FFFE00214FF4247088
:104990000FF00FFF0022032120460DF0F5FE4FF42B
:1049A000A470BDE8104000210FF003BF684D010066
:1049B00008B5042103480DF0BCFE003818BF0120E3
:1049C00008BD00BF544D010008B5062103480DF095
:1049D000B0FE0028D4BF0020012008BD544D0100C6
:1049E00010B40B4883689C697CB103691B6813F0A1
:1049F000400FA44618BF4FF0007310BC08BF4FF023
:104A000080634FF0A0720621604710BC704700BF62
:104A1000544D010010B4064883689C6934B1A44623
:104A2000002310BC4FF400120621604710BC7047F1
:104A3000544D010030B54FF4D0110569194885B0C7
:104A40000DF058FE70B1184B02930023CDE90033EE
:104A50001649012218460DF087FE6FF00404204627
:104A600005B030BD12484FF480310DF043FE0028F0
:104A7000E9D110484FF480310DF03CFE0446002887
:104A8000E1D10D4B0D486B604023AB608368DB695F
:104A90000BB90B4BD8E70122294698470028DEDAEC
:104AA000F7E700BF14550100156C01009C5101008F
:104AB0000C550100045501005B270100544D010015
:104AC000306C0100074B08491A6843F2390001FBBA
:104AD000020018606FF00043B0FBF3F3C3EBC37345
:104AE000C01A70472C0500206D4EC641014B18605E
:104AF000704700BF2C05002030B530B10A4D01448D
:104B00004FF0FF33814201D1D84330BD10F8012B63
:104B10005340082243F30004013A2C4092B284EA45
:104B20005303002AF6D1EDE72083B8ED044A136859
:104B30000BB100215972436110600DF0E6BE00BF59
:104B40006C14002037B5044601A80DF005FD6CB1CA
:104B5000174D2A68134673B96368236001232381C4
:104B60006AB9FFF7D9FA2046FFF7E0FF01A80DF078
:104B7000FCFC03B030BD9C42F8D05B69EBE7FFF76B
:104B8000A1FA236818442B6820601A689042EAD37F
:104B90005A69596911B95C616161E7E71168884236
:104BA00002D913465269F4E75C616261DEE700BF37
:104BB0006C140020F8B5FFF7B7FA1C4C0546FFF758
:104BC000ABFA2368A3B1471B1E462D1A716929B998
:104BD0005A692260DA68197242B9FEE70A68BA4275
:104BE0008CBF521900220A607669EFE71869904776
:104BF000002623682BB9206880B9F8BD1869904752
:104C0000F7E71D68FFF75EFA8542F4D223685A6918
:104C10002260DA681E72002AF0D1FEE7437A002B88
:104C2000EBD1BDE8F8400DF070BE00BF6C14002061
:104C300037B5134D044601A80DF08EFC2B686BB1FF
:104C400064B10022A342227211D1597A5C6961B128
:104C50005A7244B120462C600DF057FE01A80DF0A9
:104C600084FC03B030BDFFF737FA2C60F6E71A4634
:104C70005B69002BF2D09C42F9D163695361EDE787
:104C80006C14002007B5074B1B7840BAADF8040040
:104C90002BB9022201A940F2BC600DF0EBFC03B07D
:104CA0005DF804FB3C28002007B5074B1B7840BA91
:104CB000ADF804002BB9022201A940F2BE600DF04C
:104CC000D9FC03B05DF804FB3C28002010B50C4B68
:104CD0001B7804469BB94FF4D7600DF000FDC4F378
:104CE000002100F0FE0001434FF4D7600DF0D6FC28
:104CF000E1B240F2B960BDE810400DF0CFBC10BD8C
:104D00003C28002013B50446FFF780FD04F007039C
:104D100014F004048DF8073008BF084B4FF001026F
:104D20000DF107014FF0840008BF1C700DF082FCEC
:104D30000020FFF779FD02B010BD00BF3A28002027
:104D400010B50446FFF780FD2046FFF777FDFFF71B
:104D5000D9FD00200DF03FFE0DF041FC0DF040FCB0
:104D6000034B00221A70BDE810400120FFF75CBD24
:104D70003A280020134B984207B50BD94EF6E113A1
:104D8000ADF80430022201A998200DF053FC03B0C5
:104D90005DF804FB0C4B984202D94DF6D733EFE790
:104DA0000A4B984202D94CF2C153E9E7084B9842AA
:104DB00002D948F27513E3E7064B9842E2D946F66A
:104DC0006B73DDE700E9A43580F8A9328044E52D56
:104DD000000B6B1B40FC541930B5114C85B052BA16
:104DE000246803944FF0000440BA49BAADF8082093
:104DF00008225BBAADF80400ADF80610104601A910
:104E0000ADF80A300DF016FC054B1A68039B5A40AA
:104E10004FF0000301D00FF007FD05B030BD00BF1B
:104E20004807012037B5104D2B7804461BB9FFF712
:104E3000A1FF01232B7043F6095241F68463B4FBB2
:104E4000F2F102FB114403EB8433B3FBF2F30422CF
:104E500003EB81331BBA0DEB0201862001930DF0A9
:104E6000E9FB03B030BD00BF3A28002007B5064B70
:104E70008DF80700187001220DF107018A200DF04E
:104E8000D9FB03B05DF804FB3C280020014B1878E7
:104E9000704700BF3C2800201FB52A4A2A4B5168A2
:104EA000044610681B6803934FF0000301AB03C373
:104EB000264B20781B78834201D0FFF7D7FF237859
:104EC00053B1012B35D0204B1A68039B5A404FF049
:104ED000000334D00FF0A8FC62681D4BB3FBF2F363
:104EE0001A0C8DF804201A0A8DF805208DF806306A
:104EF000A268237B8DF8073043F60951637BB2FB30
:104F0000F1F08DF8083001FB102241F6846303EBC9
:104F10008233B3FBF1F303EB80331A0C5BBA8DF8E9
:104F20000920ADF80A30082201A98B200DF082FB80
:104F3000C9E72369019304220DEB0201F5E704B0F0
:104F400010BD00BF18520100480701203C28002076
:104F50000000093D1FB5324A324BD16804469068C3
:104F6000127C1B6803934FF000036B4603C31A7057
:104F70002D4B20781B78834201D0FFF777FF2378F1
:104F800053B1012B38D0274B1A68039B5A404FF07E
:104F9000000342D00FF048FC637AF12B20D14FF68A
:104FA000FF70FFF76FFE48F20500FFF77DFE02235A
:104FB0006288A188ADF8021052BAE188ADF80020ED
:104FC0008DF80730227AA37A8DF80620ADF8041008
:104FD0008DF80830092269468C200DF02BFBD2E7B2
:104FE000F22BE5D141F60F50FFF74CFE41F22100C4
:104FF000FFF75AFE0623DBE7A3890C4A5BBAADF83C
:105000000030A37B13708DF80230E37B8DF8033002
:10501000238AADF804300622DDE704B010BD00BFDE
:1050200018520100480701203C2800203B2800209E
:1050300037B505460C46022201A913200DF008FBE6
:105040000A4B1B78012B0DD1094B1B78012B09D181
:1050500040F202700DF043FB9DF80530287023707C
:1050600003B030BD9DF80400F6E700BF3C280020E7
:105070003B28002013B50322044601A914200DF09B
:10508000E7FA184B1A7822704AB1012A17D0132276
:105090000021601C0FF07BFD0F2323700DE09DF8B5
:1050A000043023719DF80530A2605B425B10A37150
:1050B0009DF806305B425B10637102B010BD9DF835
:1050C00004305B425B1023739DF9053002339B1063
:1050D00063739DF806305B425B10A373024B1B6841
:1050E0002361EAE73C28002070140020034B1B6872
:1050F00013B15B6803B11847704700BF98150020D3
:10510000034B1B6813B1DB6803B11847704700BF3E
:1051100098150020014B01221A7070473F2800208B
:1051200008B5FFF77BFB0438C0B2032896BF024BDB
:105130000020185C08BD00BF606C010038B50C464B
:10514000002340F201211A4605460846FFF744FEB7
:10515000FFF79CFE0C4B01280C480CBF83F8C7409E
:1051600083F8C040FFF7F6FE2146284600220DF0E6
:105170005AFC074B074819680DF0E5FBBDE83840BD
:105180000448FFF7DFBC00BFA41400205C1500201A
:10519000B41500208C14002038B50D461446FFF7D6
:1051A00041FE2846074D0DF01EFA0DF0D0FC4FF4DD
:1051B0007A71284661430DF0C6FB2846BDE83840A9
:1051C000FFF7C0BC8C14002073B5574D01A80DF03B
:1051D000C3F92C78002301A82B700DF0C6F9002C20
:1051E00061D00DF014FD04460DF0A0FD01A80DF0F6
:1051F000B3F9FFF7BDFB012808BF287001A80DF027
:10520000B4F9E5070BD54948FFF712FD0120FFF778
:105210000BFB474B1B6813B11B6803B19847A007F2
:1052200011D54448424EFFF703FD14F0400F424BA6
:105230003BD01B7813B90120FFF7F6FA336813B19E
:105240001B6903B1984721060AD50120FFF7ECFA44
:10525000374B1B6823B19B6913B1C4F300209847F7
:10526000A2050FD5FFF7DAFA04284CD12F48FFF733
:10527000DFFC0120FFF7D8FA2D4B1B6813B15B68E8
:1052800003B19847A3060ED52A48FFF7D1FC2A4B55
:105290001B7813B90120FFF7C7FA254B1B6813B120
:1052A000DB6803B1984702B070BD1D7895B9012045
:1052B000FFF7BAFA294640F602100DF0EFF940F672
:1052C00044100DF00CFA40F00201C9B240F644104F
:1052D0000DF0E4F9194D1A48FF220DF103010DF00C
:1052E0000CFD2846FFF7C6FE3368002BABD09E6846
:1052F000002EA8D095F90D3095F90C209DF80310DB
:105300000F48B0479FE7FFF789FA0528BAD1094847
:10531000FFF78EFC0120FFF787FA054B1B68002B77
:10532000B0D0DB68ACE700BF3F2800208C14002021
:1053300098150020741400203F2900209C1500209F
:105340004028002010B590B10A4B012219461C6874
:10535000A04206D39C68A04203D201EBC2010879A7
:1053600010BD0132162A03F10803F0D1FEE71F2019
:10537000F6E700BF485501000128094806D1094B4E
:1053800080F8C7101970B830FFF7E4BD90F8BF304F
:10539000012B04D1034B80F8C0101970F3E770475C
:1053A000A41400206907002000234FF6FF7110B5F8
:1053B0001A4604460846FFF70FFD34B10948214656
:1053C0000DF0C1FA0748FFF7BDFB074B1B782BB167
:1053D0006FF07F40BDE810400DF02EBB034B186806
:1053E0008001F7E7741400203F290020B015002049
:1053F00000234FF6FF7110B51A4604460846FFF722
:10540000EBFC34B1094821460DF09DFA0748FFF73F
:1054100099FB074B1B782BB16FF07F40BDE8104024
:105420000DF057BB034B18688001F7E77414002098
:105430003F290020B0150020F0B5BDF814409DF8BC
:1054400018C09DF81CE09DF8205040B1012814D0F0
:105450000122002398180138B0FBF2F0F0BD8CF067
:10546000010CE30003EBCC0318330EEB450503EB13
:10547000C5034FF47A714B43ECE7501F012803F149
:10548000040304D80C2C38BF0C24002706E0C1B953
:10549000A2F10B07012F8CBF002701272801BCF1C7
:1054A000000F00EBCE000CBF14250025A0EB8200FE
:1054B000062A4FEA82062844A2F1020C08D8354693
:1054C0000BE00129E1D1A2F10C0047424741E5E799
:1054D0000830002FF3D04FEA8C050028ACBF2E18FF
:1054E0002E1C701E90FBF5F003FB0044094B062AAE
:1054F0005A5C8CBF0C340E340A2A0AD8A30001333C
:105500004FF47A7103FA0CF34B43034951F822200C
:10551000A0E7FFDE646C01001C5501000D4B10B5C7
:1055200004461870587000F017F85CB134214FF43D
:10553000E8600DF0B3F84421BDE8104040F241703E
:105540000DF0ACB814214FF4E8600DF0A7F8242159
:10555000F2E700BF3D28002008B50120FFF786FCD8
:10556000054B18785A78824204D05870BDE808403C
:10557000FFF7D4BF08BD00BF3D280020012808B5B3
:1055800006D00020FFF772FC034B00225A7008BDC2
:10559000BDE80840FFF7E0BF3D2800202DE9F04FAF
:1055A00087B089469DF8541000919DF86410724CA4
:1055B0009DF84CA0BDF84870DFF8C0B1BDF844605C
:1055C0000029246805944FF0000418BF00276C4C94
:1055D000BAF1000F15469DF85020217008BFFF2238
:1055E0008BF80020804658B101285BD0624B1A68C6
:1055F000059B5A404FF0000300F0BB800FF014F9F8
:10560000604C0DF0AFFA0B234FEA490084F8EC3000
:1056100084F8E080C4F8E450FFF794FE41F60403F8
:10562000A4F8BC309BF8003084F8C030009B84F8AC
:10563000ED00002B0CBF0123F22384F8C130F600EB
:1056400001238AF0010A84F8C23084F8B880A4F8F3
:10565000BA6084F8BE8084F8BFA00DF075FB94F8A2
:10566000E000003818BF0120FFF788FF04F1E000D8
:10567000FFF712FC04F1B800FFF76CFC424A106817
:10568000516803AB03C303A80DF09CF940F2FF106F
:10569000FFF71CFB4FF4FA537B43B3FBF5F33B4A94
:1056A0001360A3E70020374C01930DF05BFA3849F3
:1056B000019B11F8091084F8E080EAB284F8F02028
:1056C000B9F1000F45D10B3D012D8CBF00250125FF
:1056D000053A012A02D80C2E38BF0C2684F8F23085
:1056E000012384F8B8309BF8003084F8C730009B61
:1056F00084F8C8309DF8603084F8C93084F8F1101F
:1057000084F8F350A4F8C46084F8C6A00DF01CFB24
:1057100094F8E000003818BF0120FFF72FFF1D4864
:10572000FFF7BAFB1C48FFF715FCF8B20DF026FA9C
:1057300094F8C930012B40F2367014D10CF0CFFF31
:1057400000F0FB0140F236700CF0A8FF4FF6FF733B
:10575000A5E7B9F1010F04D1A5F10C00454245417F
:10576000B6E70025B4E70CF0BAFF40F00401C9B277
:10577000E8E707B0BDE8F08F48070120690700207F
:105780003F290020A414002029520100B015002058
:10579000646C0100841500205C1500202DE9F04F99
:1057A000934685B0624A0E9DBDF840709DF84490C6
:1057B0009DF848A08846126803924FF00002064602
:1057C00048B101284DD040F689000CF088FF40F028
:1057D0000401C9B28DE0574C0B2284F8E000580058
:1057E00084F8EC20C4F8E450FFF7ACFD41F6040364
:1057F000BAF1000FA4F8BC300CBF0123F22384F8E7
:10580000C130FF00012389F0010984F8C23084F817
:10581000ED00C4F8E8B084F8B860A4F8BA7084F871
:10582000BE6084F8BF900DF08FFA94F8E000003865
:1058300018BF0120FFF7A2FE04F1E000FFF72CFBE8
:1058400004F1B800FFF786FB3B4A1068516801ABD2
:1058500003C301A80DF0B6F840F2FF10FFF736FAC7
:10586000B1E7344C354984F8E000EAB2C95C84F809
:10587000F020002B50D10B3D012D8CBF00250125C0
:10588000053A012A02D80C2F38BF0C279DF83C306E
:1058900084F8F230012384F8B830294B84F8F110F1
:1058A0001B7884F8C7309DF8543084F8C93084F8E8
:1058B000F350A4F8C47084F8C69084F8C8A00DF022
:1058C00043FA94F8E000003818BF0120FFF756FEB5
:1058D0001C48FFF7E1FA1C48FFF73CFB94F8F13055
:1058E000062B7FF470AF40F689000CF0F8FE00F054
:1058F000FB0140F689000CF0D1FE40460CF073FE2F
:10590000124B169A1A600A4B1A68039B5A404FF0C2
:1059100000030AD00EF088FF012B04D1A5F10C037F
:105920005D425D41ACE70025AAE705B0BDE8F08F18
:1059300048070120A414002029520100646C0100D2
:1059400069070020841500205C150020B415002094
:1059500030B5214B85B069460446092240F29F20AC
:105960001B6803934FF000030CF0A3FE9DF800307A
:1059700068460021CAB2934217D8032B20D85A1C7C
:105980008DF8002004A9022203FB0211200A01F86D
:105990000F0C04A902FB031340F29F2003F80E4CE6
:1059A000092269460CF066FE0AE0024645789278C4
:1059B00002EB0522944201F1010100F10200D9D16C
:1059C000054B1A68039B5A404FF0000301D00EF0BC
:1059D0002BFF05B030BD00BF4807012008B5174BAD
:1059E00018601748FFF7ACF900200CF0F4FF012015
:1059F0000DF0EFF8002108460DF065F904210020B4
:105A00000DF01EF900234FF6FF711A460846FFF706
:105A1000E3F940F6AC00FFF79BFF40F68900FFF783
:105A200097FF084908480CF086FF084908480CF021
:105A300082FF084B00221A7008BD00BF9815002095
:105A400015510000ED5000008C14002001510000A1
:105A5000741400203F280020A1F11003DBB2102BAA
:105A60002DE9F047044604D83A4820FA03F3DB074F
:105A700005D4002382F8F030FF20BDE8F087561EE1
:105A8000254615F8013B06F8013F631B0B4413F054
:105A9000FF00F6D101F11C039B005FFA83FCC3F306
:105AA0000313013BDFF8B09082F8F03088465318BA
:105AB0004FF0010EB8FBF1FA01FB1A8A1AF0FF0A47
:105AC00013F8047C13F8036C13F8025C13F8014C10
:105AD00030D119F806A019F8056019F8045019F822
