:020000040000FA
:1000000080E401203D5C000049950200295C00006D
:10001000295C0000295C0000295C00000000000051
:10002000000000000000000000000000BD5D0000B6
:10003000295C000000000000555D0000295C000004
:10004000755F0000755F0000755F0000755F000060
:10005000755F0000755F0000755F0000755F000050
:10006000755F0000755F0000755F0000755F000040
:10007000755F0000755F0000755F0000755F000030
:10008000755F0000755F0000755F0000755F000020
:10009000755F0000755F0000755F0000755F000010
:1000A000755F0000755F0000755F0000755F000000
:1000B000755F0000755F0000755F0000755F0000F0
:1000C000755F0000755F0000755F0000755F0000E0
:1000D000755F0000755F0000755F0000755F0000D0
:1000E000755F0000755F0000755F0000755F0000C0
:1000F000755F0000755F0000755F0000755F0000B0
:1001000080F0004002E000BF81F0004142001FBFCC
:100110005FEA410392EA030F7FEA226C7FEA236CD5
:100120006AD04FEA1262D2EB1363C1BFD2184140CA
:1001300048404140B8BF5B42192B88BF704710F060
:10014000004F40F4000020F07F4018BF404211F003
:10015000004F41F4000121F07F4118BF494292EA6B
:10016000030F3FD0A2F1010241FA03FC10EB0C0097
:10017000C3F1200301FA03F100F0004302D5494224
:1001800060EB4000B0F5000F13D3B0F1807F06D3D1
:1001900040084FEA310102F10102FE2A51D2B1F1C9
:1001A000004F40EBC25008BF20F0010040EA0300BE
:1001B0007047490040EB0000013A28BFB0F5000F3E
:1001C000EDD2B0FA80FCACF1080CB2EB0C0200FAF4
:1001D0000CF0AABF00EBC25052421843BCBFD04043
:1001E0001843704792F0000F81F4000106BF80F4BD
:1001F00000000132013BB5E74FEA41037FEA226C80
:1002000018BF7FEA236C21D092EA030F04D092F04A
:10021000000F08BF0846704790EA010F1CBF00207E
:10022000704712F07F4F04D1400028BF40F00040DB
:10023000704712F100723CBF00F50000704700F0FB
:10024000004343F0FE4040F4000070477FEA226222
:1002500016BF08467FEA23630146420206BF5FEAF3
:10026000412390EA010F40F4800070474FF00003F3
:1002700004E000BF10F0004348BF40425FEA000CBA
:1002800008BF704743F0964301464FF000001CE062
:1002900050EA010208BF70474FF000030AE000BFB8
:1002A00050EA010208BF704711F0004302D54042F6
:1002B00061EB41015FEA010C02BF84460146002068
:1002C00043F0B64308BFA3F18053A3F50003BCFA83
:1002D0008CF2083AA3EBC25310DB01FA02FC634430
:1002E00000FA02FCC2F12002BCF1004F20FA02F237
:1002F00043EB020008BF20F00100704702F120022A
:1003000001FA02FCC2F1200250EA4C0021FA02F28A
:1003100043EB020008BF20EADC7070474FEA40025E
:10032000B2F1FE4F0FD34FF09E03B3EB12620DD923
:100330004FEA002343F0004310F0004F23FA02F08D
:1003400018BF404270474FF00000704712F1610F34
:1003500001D1420205D110F0004008BF6FF000400B
:1003600070474FF0000070477BB972B90029BEBFDB
:1003700000204FF0004106E008BF00281CBF6FF0CE
:1003800000414FF0FF3000F057B8ADF1080C6DE9B7
:1003900004CE002909DB002B1ADB00F069F8DDF838
:1003A00004E0DDE9022304B07047404261EB410103
:1003B000002B1BDB00F05CF8DDF804E0DDE9022334
:1003C00004B0404261EB4101524263EB430370478A
:1003D000524263EB430300F04BF8DDF804E0DDE943
:1003E000022304B0404261EB41017047524263EB8B
:1003F000430300F03DF8DDF804E0DDE9022304B03A
:10040000524263EB4303704753B94AB9002908BF0E
:1004100000281CBF4FF0FF314FF0FF3000F00CB848
:10042000ADF1080C6DE904CE00F022F8DDF804E02F
:10043000DDE9022304B07047704700BF10F8012BBC
:1004400011F8013B012A28BF9A42F7D0D01A704711
:10045000034611F8012B03F8012B002AF9D170474C
:10046000034613F8012B002AFBD1181A01387047F4
:100470002DE9F04786468C460846089E1546744688
:100480001946002B40F0C2808542B2FA82F245D96B
:100490004AB1C2F1200300FA02FC2EFA03F39540A0
:1004A00043EA0C0C94404FEA154EA8B2BCFBFEF890
:1004B000230C0EFB18CC08FB00F943EA0C439945CA
:1004C00028D9EB1808F1FF3704D2994502D9A8F1D1
:1004D00002072B44A3EB0903A4B2B3FBFEFC0EFB03
:1004E0001C330CFB00F044EA0344A04214D92C193D
:1004F0000CF1FF3304D2A04202D9ACF102032C4428
:10050000241A43EA07401EB1D440002334607360CC
:10051000BDE8F0874746DDE76346F1E792BB431B42
:1005200001214FEA154EAFB2B3FBFEFC200C0EFBCF
:100530001C330CFB07F840EA0343984562D9EB18DB
:100540000CF1FF3004D2984502D9ACF102002B44E3
:10055000A3EB0803A4B2B3FBFEFC0EFB1C330CFBA5
:1005600007F744EA0344A7424ED92C190CF1FF3394
:1005700004D2A74202D9ACF102032C44E41B43EAA3
:100580000040C0E7C2F1200320FA03F195409040FB
:100590002EFA03F303434FEA154EAFB2B1FBFEFC54
:1005A0000EFB1C10190C0CFB07F841EA00418845B2
:1005B00004FA02F422D969180CF1FF3004D28845FC
:1005C00002D9ACF102002944A1EB08019BB2B1FBB6
:1005D000FEFC0EFB1C110CFB07F743EA01439F4294
:1005E0000ED9EB180CF1FF3104D29F4202D9ACF1C5
:1005F00002012B44DB1B41EA004192E76046E3E73E
:100600006146F7E76046A3E76346B7E7834206D94A
:1006100016B9002108467BE7C6E900E0F9E7B3FA1E
:1006200083F78FB9834201D3724508D8BEEB020429
:1006300060EB030301209C461EB9002168E73846A1
:10064000FAE7C6E9004CF8E7C7F1200CBB4022FAF4
:100650000CF41C432EFA0CF120FA0CF3B8400143C1
:100660004FEA14490EFA07F5B3FBF9F81FFA84FEB6
:1006700009FB18300B0C08FB0EFA43EA00439A45BD
:1006800002FA07F240D9E31808F1FF3004D29A4584
:1006900002D9A8F102002344A3EB0A0389B2B3FBF9
:1006A000F9F809FB183308FB0EFE41EA03418E45B9
:1006B0002CD9611808F1FF3304D28E4502D9A8F174
:1006C0000203214443EA0040A0FB0298A1EB0E0183
:1006D0004145CE46434602D306D14D4504D2B9EB3F
:1006E000020E68EB04030138002EA6D0B5EB0E0213
:1006F00061EB030101FA0CFC22FA07F34CEA030355
:10070000F940C6E9003198E74046C5E74346D9E7D6
:100710002DE9F047064688B00F46904633F035FC89
:100720004FF47A73A0FB034503FB0155E40B012F43
:1007300044EA45444FEAD53507D1294922462B469C
:10074000304628F00EFC002012E0D8F8047025484E
:100750003946FFF773FE70B123483946FFF76EFE46
:1007600048B1304621493A4628F017FC6FF00400A2
:1007700008B0BDE8F0872046294617A3D3E9002337
:10078000FFF7F2FD05460C4610461946184A0023AD
:10079000FFF7EAFD80460F46104619464EF66022E6
:1007A0000023FFF7E1FD82468946104619464FF4C3
:1007B0007A720023FFF7D8FDCDE902A9CDE906231F
:1007C000CDE90401CDE900870A492A46234630468F
:1007D00028F0C7FBB7E700BF005C2605000000005B
:1007E000CFA50300E0A50300E3A50300ECA50300EB
:1007F00080EE360004A60300F0B5504B504D97B084
:100800001B6815934FF000032B6803F00703022BBE
:1008100032D900244B4B0293CDE9004423460322F6
:100820002946204627F00BFD2B6803F00703022B17
:1008300022D933F0CFFD444FC3590393434B009467
:10084000CDE901430646234603222946204627F0E8
:10085000F6FC2B6803F00703022B0DD9F05933F097
:1008600063FA3B4B0390CDE90143009423460322F6
:100870002946204627F0E3FC364C374E374F4FF0E1
:10088000FF334FF0FF3208A800F0B6F82B6803F0F2
:100890000703022B16D99DF821309DF820100297EE
:1008A000002B14BF20463046DDE90A23CDE906239C
:1008B0000023CDE90310CDE9003321490322184676
:1008C00027F0BDFC9DF82130002B14BF012300232D
:1008D0008DF830309DF820308DF83830DDE90A236E
:1008E0000CA8CDE910230CBF012300238DF848305C
:1008F00002F036FA68B12B685B070AD0184B0293F6
:1009000000230390CDE900330D490122184627F05A
:1009100096FCBDF82030002BB1D12A6802F0070206
:10092000022A08D90F4A06490093CDE90132184638
:10093000032227F084FC02F02BF8A0E7B48A0220FF
:10094000FC0600209F64030008000000BB64030055
:10095000E1640300966403008E640300FC640300FA
:1009600011650300426503002DE9F04F904685B004
:1009700033F00BFB4FF47A73A0FB030503FB015527
:10098000C40B1B4FDFF86C9044EA45440026ED0B86
:1009900097F804A028FA0AF3DB0721D53868D0F8C5
:1009A00010B0836869465B68984750B9009BDBF8D4
:1009B00000205A40012303FA0AF31A4214BF01200F
:1009C0000020B0FA80F04009CDE902458DF80060C2
:1009D0008DF80100002200236946484625F06CFC92
:1009E0000136072E07F10807D2D105B0BDE8F08F18
:1009F000384B03005C08002008B50146034825F089
:100A0000B7FCB0FA80F0400908BD00BF5C080020C8
:100A10002DE9F04F4A4C4B4FDFF82C8187B0002670
:100A2000A346206833F065F80346B0B9D8F8002033
:100A300051070CD05BF83620434912680090CDE98D
:100A40000362424ACDE90102012227F007FC6FF060
:100A50001205284607B0BDE8F08FE38820682179A9
:100A600043F4803242F010020569D0F808C013F058
:100A7000010F4FF0010E2B680EFA01FE14BF4EEA73
:100A8000030323EA0E032B60DCF800309847054689
:100A900078B1D8F800305A07DBD02D4B039602937B
:100AA0000023CDE9003328490122184627F0D6FB60
:100AB000CFE72068217983689D696DB14FF000739D
:100AC0004FF0A072A847054648B1D8F800305B0740
:100AD000BFD0204B0396E2E76FF05705F5E794F897
:100AE00004A01D4B7B60012202FA0AF3D4F80090A7
:100AF000BB60D9F80830DB6913B1394648469847DE
:100B0000D8F8003003F00703022B0FD9CDF814A05A
:100B1000D9F80030CDE90363104B02930023CDE9EF
:100B2000003303224146184627F098FB0136072E72
:100B300004F1080407F10C077FF473AF89E700BFE5
:100B4000384B03001854002000070020886503007C
:100B5000A6650300C465030069090000EA65030097
:100B6000014825F0C1BE00BF6C54002010B51D4BDC
:100B70001D498AB01B6809934FF000031B4B0024EA
:100B8000CDE905130022002305A80794ADF8204005
:100B900000F084FB164903460A68B0B902F0070268
:100BA000022A09D99DF815200392124A0090CDE936
:100BB0000102032227F061FB0A4B1A68099B5A4085
:100BC0004FF000030CD033F09AF95207F4D00A4BDF
:100BD0000390CDE901430094234601222046E9E732
:100BE0000AB010BDB48A022064040100112233004F
:100BF00010070020156603003066030013B50A4C89
:100C00000A490B4833F05EF80A490022204633F0C7
:100C1000BEF94FF440320023CDE90023204626F0F0
:100C20003FFD02B010BD00BF680A00206D0B000040
:100C30006C540020610B0000014825F055BE00BF38
:100C4000DC540020014825F04FBE00BFCC540020EA
:100C5000014825F049BE00BFBC540020014825F0E2
:100C600043BE00BFAC540020014825F03DBE00BF8C
:100C70009C540020014825F037BE00BF8C54002052
:100C8000014825F031BE00BF7C5400202DE9FF470C
:100C900000F0CAF9044688B11D490B685B0709D00A
:100CA0001C4B029300230390CDE900330122184628
:100CB00027F00EFB204604B0BDE8F087DFF858802F
:100CC000164E174FDFF85C9005464FF0380A304655
:100CD00058F8041B32F0F6FF0AFB059057F8041B86
:100CE0000022013533F053F9072D06F11006EED13D
:100CF00007490B6803F00703022BDBD90A4B029369
:100D00000023CDE900330322184627F0E1FAD1E7AA
:100D1000140700205A6603008C4B03007C5400200B
:100D2000704B0300580B0020786603001FB5014686
:100D300088B91D4C23685B0708D01C4B0090CDE997
:100D4000010301220346214627F0C2FA6FF0150481
:100D5000204604B010BD0378062B0ED912490A684C
:100D60005207F3D00393124B02930023CDE90033D3
:100D70000122184627F0ACFAE8E70E4800220023CB
:100D800025F09AFA04460028E2D007490B685B0771
:100D9000DED0094B029300230390CDE900330122FA
:100DA000184627F095FAD3E7140700209066030051
:100DB000A56603008C080020B866030070B50628FD
:100DC000254E86B0054612D933685A070AD0234B00
:100DD000029300230390CDE90033012231461846E7
:100DE00027F076FA6FF01504204606B070BD012199
:100DF00000F092F9044678B133685B07F4D0184BE1
:100E000002930023CDE90350CDE90033012231469E
:100E1000184627F05DFAE7E7124900220023C5EBE8
:100E2000C500CDE9002301EBC00000234FF40042D0
:100E300026F036FC336803F00703022BD4D90A4BA3
:100E40000395CDE901430094234603223146204611
:100E500027F03EFAC8E700BF14070020A56603008C
:100E6000D8660300580B0020F566030070B506280D
:100E700086B005460E4612D916490B685A0709D0A6
:100E8000154B029300230390CDE90033012218464D
:100E900027F01EFA6FF01504204606B070BD00F072
:100EA0003BF904460028F7D00A490B685B07F3D0EA
:100EB0000A4A0B4B0395002E18BF1346CDE90430A8
:100EC000084B02930023CDE900330122184627F096
:100ED000FFF9E1E714070020A5660300126703008D
:100EE0001567030019670300F0B5474B474D91B0F4
:100EF0001B680F934FF000032B6803F00703022BCE
:100F000032D90024424B0293CDE900442346032208
:100F10002946204627F0DCF92B6803F00703022B53
:100F200022D933F057FA3B4FC35903933A4B0094FD
:100F3000CDE901430646234603222946204627F0F1
:100F4000C7F92B6803F00703022B0DD9F05932F0D3
:100F5000EBFE324B0390CDE901430094234603227C
:100F60002946204627F0B4F92D4C4FF0FF324FF0C0
:100F7000FF3304A9204625F0FBF90028F5D19DF8A0
:100F80001130032B2ED8DFE803F0022123280121A2
:100F90009DF81000FFF76AFF2022002106A833F019
:100FA0007FF904238DF818309DF810308DF820302B
:100FB0009DF811302BB3DA1E534253418DF8213086
:100FC00006A8059B099301F0CBFECEE70021DFE7E1
:100FD0009DF8100000F0C0F8DEE79DF81000FFF764
:100FE000EDFED9E72A685107D6D003930D4B029343
:100FF0000023CDE9003305490122184627F068F99E
:10100000CAE70123DAE700BFB48A022014070020F0
:101010003867030008000000596703008467030075
:101020008C080020A46703002DE9F04F354C364EA4
:10103000DFF8D89087B000254FF0010827683846C0
:1010400032F057FD034688B93268510708D0304A5C
:101050002D490395CDE901020090012227F047F9BF
:101060006FF0120A504607B0BDE8F08F2068217972
:10107000E388D0F810C0D0F808E0DCF800A0DA0768
:1010800054BF43F4B01383F4D01323F4801208FA4E
:1010900001FBDB074CBF4BEA0A032AEA0B03CCF83F
:1010A0000030DEF800309847B0F1000A33680DDAFE
:1010B0005B07D7D0174B02930023CDE900331249C9
:1010C00003950122184627F012F9CBE703F0070336
:1010D000022B0ED9237905933B68CDF80890CDE912
:1010E00003530023CDE9003303223146184627F08D
:1010F000FEF80135072D04F108049FD14FF0000AD6
:10110000B0E700BFA84B03001807002015680300D4
:10111000DE670300F6670300062803460A4615D873
:101120000C4951F8300001EBC3010123097903FA9E
:1011300001F103691B68194218BF82F0010212B164
:101140008368DB68184783681B69FBE76FF015004D
:10115000704700BFA84B0300062803460AD8074A79
:1011600052F8300002EBC3020121137999408368E1
:101170005B6918476FF01500704700BFA84B03006C
:1011800010B588B00DF11F0104460DF11E0028F0C6
:1011900052FA0A490B6803F00703022B0CD99DF899
:1011A0001F30CDE90343064B02930023CDE9003302
:1011B0000322184627F0AAF808B010BD2407002023
:1011C0003A680300F0B5194D0C46296889B001F062
:1011D000070102299DF838700F9E12D9C4F340010F
:1011E000CDE90631124B029304F001040023CDE94E
:1011F00003040592CDE9003303222946184627F05F
:1012000085F88EB187B12B6803F00703022B0BD949
:10121000084B03930020084B0293CDE9007003496B
:101220003346032227F072F809B0F0BD24070020EE
:101230005E6803009168030051A903001FB50146D1
:1012400078B9124C23685A0708D0114B0090CDE9A9
:10125000010301220346214627F058F8002004B07C
:1012600010BD0C4825F084F870B108490B685B0785
:10127000F4D0094B029300230390CDE900330122FF
:10128000184627F043F8E9E70120E8E724070020A3
:101290009B680300EC080020C068030010B50146FD
:1012A00086B078B91C4C23685B0708D01B4B0090B4
:1012B000CDE9010301220346214627F027F86FF00C
:1012C000150426E040780B2810D913490B685A07FB
:1012D000F5D00B23CDE90303114B02930023CDE995
:1012E00000330122184627F011F8E8E70D4824F0F2
:1012F000E3FF044668B108490B685B0709D00A4B55
:10130000029300230390CDE900330122184626F012
:10131000FDFF204606B010BD24070020DA68030058
:10132000FF680300EC0800202A69030030B585B08F
:10133000334C344D204632F0DCFB034688B92A6832
:10134000520709D0226803922F4A0090CDE901028A
:101350002946012226F0DAFF6FF01204204605B07C
:1013600030BD2B6803F00703022B0BD923680393CE
:10137000264B02930023CDE9003303222946184669
:1013800026F0C4FF05F0D2FB041E0EDA2B685B07C3
:10139000E4D01F4B02930023CDE900331949039495
:1013A0000122184626F0B2FFD8E71A4805F0A8FB3C
:1013B000194805F0B5FB012005F0ECFA2B6803F0A5
:1013C0000703022B01D80024C8E70024134B029323
:1013D000CDE9004423460B490322204626F096FF20
:1013E0002B6803F00703022BEDD90D4B0549009440
:1013F000CDE9014303222346204626F087FFE2E79A
:1014000010450300240700205369030069690300A5
:101410007B690300D004002081110000946903005F
:10142000B5690300014825F05FBA00BFEC54002005
:101430001FB509490B6803F00703022B08D9074BB6
:1014400002930023CDE900330322184626F06DFFF6
:1014500005B05DF804FB00BF28070020E669030023
:1014600038B50446074D4FF0FF324FF0FF332846A2
:1014700024F0E2FF044B1C702846BDE8384025F0FC
:1014800053B800BF08550020BCE700202DE9F0410B
:10149000884B894D96B01B6815934FF000032B685D
:1014A00003F00703022B32D90024844B0293CDE9C9
:1014B0000044234603222946204626F036FF2B68A7
:1014C00003F00703022B22D932F084FF7C4FC3596B
:1014D00003937C4B0094CDE9014306462346032247
:1014E0002946204626F021FF2B6803F00703022B34
:1014F0000DD9F05932F018FC734B0390CDE901433C
:101500000094234603222946204626F00EFFDFF8EA
:10151000BC816F4F4FF0FF324FF0FF3306A94046BA
:1015200024F026FF04460028F4D12B6803F00703BB
:10153000022B20D9674B60490090CDE901030322BB
:10154000034626F0F2FE2B6803F00703022B12D9A4
:101550009DF8263005939DF8193004939DF81830B6
:1015600003935D4B54490094CDE901430322234684
:10157000204626F0DAFE0120FFF772FF9DF81A30B0
:101580009DF819209DF818000DF11B0105F034FAA3
:10159000064660BB0220FFF763FF504A1368013321
:1015A00013602B6803F00703022B09D94C4B424907
:1015B0000096CDE9016303223346304626F0B5FE9E
:1015C000202200210CA832F06BFE0223BDF8182067
:1015D0008DF830300CA89DF81A30ADF838208DF811
:1015E0003A3001F0BDFB3F4801F0D0FD92E710F129
:1015F0000B0F2B684FD113F0060F09D03A4B029313
:101600000023CDE900332C490222184626F08DFE36
:1016100040F6CD400021013432F035FC032CADD131
:101620000320FFF71DFF3B68304A01333B6013681E
:10163000234413602B685A070AD02D4B02930023D2
:10164000CDE900331C4903940122184626F06DFEB3
:10165000202200210CA832F023FE0323BDF818201D
:101660008DF830300CA89DF81A308DF83A30ADF86E
:10167000382001F075FB2B685B070AD01D4B0293E5
:101680000023CDE900330C4903960122184626F0C9
:101690004CFE1948A8E75907C2D0184B0293002303
:1016A0000390CDE9003304490122184626F03DFE9F
:1016B000B6E700BFB48A022028070020FE690300B5
:1016C00008000000206A03004C6A0300BC080020E8
:1016D000005500206D6A0300956A03000455002040
:1016E000C56A0300E46A0300F76A0300FC540020A3
:1016F000286B03004B6B03006B6B0300136B030041
:101700001FB5104832F0B5FA0F49104832F0DAFA36
:101710000F491048002232F03AFC0F4A0F490023CB
:1017200013700A6802F00702022A07D90C4A0093D4
:10173000CDE901321846032226F0F7FD002005B05E
:101740005DF804FB0855002031140000EC54002023
:1017500025140000980D0020BCE700202807002079
:10176000806B03001FB5014688B91E4C23685B07D8
:1017700008D01D4B0090CDE901030122034621460C
:1017800026F0D3FD6FF01504204604B010BD437859
:101790005A1E0A2A0ED913490A685207F2D0039337
:1017A000124B02930023CDE900330122184626F0A4
:1017B000BCFDE7E70E480022002324F07DFD04462F
:1017C0000028E1D007490B685B07DDD0094B029385
:1017D00000230390CDE900330122184626F0A5FD31
:1017E000D2E700BF28070020AB680300996B030015
:1017F000BC080020B46B030010B5184B88B0044639
:101800001422002101A81B6807934FF0000332F057
:1018100047FD40F20113ADF8003001238DF803407D
:101820008DF8023032F0B1FB4FF47A72A0FB020364
:1018300002FB0131C00B40EA4140C90BCDE9040174
:101840006846FFF78FFF054B1A68079B5A404FF019
:10185000000301D032F053FB08B010BDB48A02205F
:101860002DE9F04FB04BB14C93B01B6811934FF082
:101870000003236803F00703022B44D90025AC4B77
:101880000293CDE900552B4603222146284626F037
:101890005BFD236803F00703022B34D932F09AFD75
:1018A000A44FC3590393A44B0095CDE901530646B9
:1018B0002B4603222146284626F046FD236803F0E6
:1018C0000703022B1FD9F05932F02EFA9B4B0390DD
:1018D000CDE9015300952B4603222146284626F0E8
:1018E00033FD236803F00703022B0CD94FF4805318
:1018F0000393934B0095CDE9015303222B462146D8
:10190000284626F021FD8F4E0FCE07AD0FC5236868
:1019100096E8030003F00703022B85E8030009D9CA
:10192000894B02930023CDE90033804903221846F6
:1019300026F00AFDDFF81482DFF814927B4E0027B0
:1019400000250695042106A80CF0D6FA32F01DFBFE
:101950004FF47A7BA0FB0B03069A0BFB0131C30B00
:1019600043EA41435A40069229F009FB069B58403E
:10197000236803F0070380B2022BA8F80000ADF83B
:10198000280040F2CA812B46CDE90297CDE90055E7
:1019900003223146284626F0D7FC236803F00703CC
:1019A000022B40F2BA810497B8F800300393694BD8
:1019B0000095CDE9015303222B463146284626F0F7
:1019C000C3FC236803F00703022B07F1010A0ED9B9
:1019D000614B0095CDE9015303222B463146284641
:1019E00026F0B2FC236803F00703022B70D807A887
:1019F00004F0E0FE236803F00703022B5746054678
:101A00002AD94FF0000A554B03900293CDE900AA62
:101A1000534603223146504626F096FC236803F0D5
:101A20000703022B18D932F0B0FA4FF47A72A0FBF8
:101A3000020302FB0131C00B494BCDF800A040EA84
:101A40004140C90BCDE90401CDE901A3032253466E
:101A50003146504626F078FC15F1740F23684ED1BC
:101A600013F0060F0BD0052303933E4B0293002384
:101A7000CDE9003302223146184626F065FC236882
:101A800003F00703022B0BD905230393364B029374
:101A90000023CDE9003303223146184626F054FCDA
:101AA0004FF42030002132F0EEF9236803F00703F1
:101AB000022B09D92D4B02930023CDE900330322D9
:101AC0003146184626F040FC002D7FF439AF63E024
:101AD00032F05BFAA0FB0B030BFB0131C00B244B74
:101AE000009540EA4140C90BCDE90401CDE901531D
:101AF00003222B463146284626F026FC77E7002DA8
:101B000003F0070338DA002BCAD00523CDE90353CD
:101B1000184B02930023CDE90033044901221846F3
:101B200026F012FCABE700BFB48A02202C0700208D
:101B3000F96B030008000000136C0300376C03000E
:101B4000506C0300704A03006B6C0300B8E7002080
:101B50008B6C0300A36C0300D96C03001D6D0300A4
:101B6000396D03005C6D0300CF6D0300F76D03005A
:101B7000F96C0300866D0300022B40F2CA80684BAB
:101B800002930023CDE9003303223146184626F0A4
:101B9000DBFB002D7FF473AF236803F00703022BF8
:101BA00072D8DFF88091604DDFF880A10E2200210D
:101BB0000DA832F075FB4FF0FF324FF0FF330DA848
:101BC000FFF73CFB0028F1D0236803F00703022B4A
:101BD00009D9574B02930023CDE90033032229464C
:101BE000184626F0B1FB9DF8357023687A1E0A2A44
:101BF00003F0070300F28780022B9DF834809DF8E4
:101C000036B01ED900264B4B0293CDE903873346ED
:101C1000CDE9006603222946304626F095FB23686D
:101C200003F00703022B0CD9434B0393434B00975C
:101C3000CDE9016303220DF137032946304626F032
:101C400083FB5B463A460DF13701404604F0D4FE73
:101C500010F10B0F2368064632D113F0060F09D09E
:101C6000374B02930023CDE9003302222946184660
:101C700026F06AFB23685B0798D0CDE902A6002313
:101C8000CDE90033012239E000252E4B0293CDE946
:101C900000552B4624490322284626F055FB23688D
:101CA00003F00703022B7FF67CAF274B1E490095FC
:101CB000CDE9015303222B46284626F045FB70E769
:101CC000002803F007030EDA002B3FF46FAF1F4B21
:101CD000029300230390CDE90033012229461846E0
:101CE00026F032FBC6E7022B7FF660AF184B02935B
:101CF0000023CDE90033CDF80C8003222946184695
:101D000026F022FB52E7002B3FF450AFCDE90297BB
:101D1000B5E7002D3FF445AFC2E6BA4667E600BF1F
:101D2000B26D0300996B03002C0700204B6B03007E
:101D30007B6E0300A06E030094C1030051A9030051
:101D4000C36E0300236E0300516E0300E16E0300B7
:101D5000F96E03002DE9F04F704B714E9BB01B687C
:101D600019934FF00003336803F00703022B09D9DE
:101D70006C4B02930023CDE9003303223146184611
:101D800026F0F1FA01F020F80446B8B133685F0795
:101D90000AD0654B039002930023CDE900336049DC
:101DA0000122184626F0DFFA5C4B1A68199B5A404C
:101DB0004FF0000300F0CE8232F0A1F800F0A8FF4F
:101DC000044628B133685E07EED0584B0390E2E733
:101DD000FEF75CFF044628B133685D07E4D0544B3E
:101DE0000390D8E7FFF78CFC044628B13368580706
:101DF000DAD0504B0394CEE701F042F8044628B104
:101E000033685907D0D04C4B0390C4E7FEF7F6FE79
:101E1000336803F00703022B09D9484B404900946B
:101E2000CDE9014303222346204626F09CFA444B89
:101E3000D3F80090484625F0FBF8336803F0070319
:101E4000022B09D93F4B02930023CDE900333449DB
:101E50000322184626F087FA40F6CD40002132F0E2
:101E600012F8336803F00703022B09D9364B0293AB
:101E70000023CDE900332A490322184626F073FADD
:101E8000324BD3F80080404625F0D2F8336803F097
:101E90000703022B09D92E4B02930023CDE900330F
:101EA0001F490322184626F05EFA2A4B1F6838465F
:101EB00025F0BEF8336803F00703022B19D900257B
:101EC000254B0293CDE900552B46154903222846A0
:101ED00026F049FA336803F00703022B09D91F4B98
:101EE0000F490095CDE9015303222B46284626F0E1
:101EF0003AFA1B4D284631F0FCFD0346A0BB326880
:101F0000520707D0174A06490090CDE90102012285
:101F100026F029FA6FF0120446E700BFB48A0220C7
:101F200038070020296F0300486F0300696F030022
:101F3000916F0300B76F0300DE6F030007700300AB
:101F4000E84B03002870030052700300E04B0300CD
:101F50006A700300E44B03008B700300B37003004E
:101F6000F8440300D5700300336803F00703022B25
:101F70000BD92B680393CA4B02930023CDE900339E
:101F8000C8490322184626F0EEF9AB68C648DB695B
:101F90000CA99847336803F00703022B12D99DF868
:101FA0003C300593BDF832300493BDF830300393D4
:101FB000BE4B02930023CDE90033BA4903221846F1
:101FC00026F0D1F912F0F0FA054630F037F9C0F3F7
:101FD00007238DF81800C0F307408DF819308DF8ED
:101FE0001A000699284600222BF01AFE0022FF2133
:101FF00028462BF024FE284621F042FDAC498246BB
:1020000022F094F8AB49002250462BF044FE30F009
:1020100023F9C0F307238DF81C00C0F307408DF8A7
:102020001D308DF81E000799504600222BF024FE2B
:1020300014230022022150462AF03BFB284622F0BE
:1020400043FC9D498346022231F07CFA00220221A2
:1020500058462BF0FBFD30F0FFF8C0F307238DF856
:102060002000C0F307408DF821308DF82200089938
:10207000002258462BF0F1FD0A230E225146009310
:10208000584600230FF0B6FD284621F0F9FC8B4995
:10209000824622F04BF88A49002250462BF0FBFD85
:1020A00030F0DAF8C0F307238DF82400C0F30740BE
:1020B0008DF825308DF826000999504600222BF026
:1020C000DBFD6FF01D030022092150462AF0F1FAD2
:1020D000284621F0D5FC7B49824622F027F8784932
:1020E000002250462BF0D7FD30F0B6F8C0F307239E
:1020F0008DF82800C0F307408DF829308DF82A00AC
:102100000A99002250462BF0B7FD1E230022092118
:1021100050462AF0CEFA284621F0B2FC6A4905461C
:1021200022F004F86649002228462BF0B4FD30F076
:1021300093F8C0F307238DF82D30C0F307438DF8D3
:102140002C008DF82E300B99002228462BF094FDA0
:102150005A230022092128462AF0ABFA336803F0FB
:102160000703022B19D90025584B0293CDE90055DE
:102170002B464C490322284626F0F5F8336803F035
:102180000703022B09D9524B46490095CDE901536B
:1021900003222B46284626F0E6F82022002110A82C
:1021A00032F07EF8062310A88DF8403000F0D8FDFC
:1021B000336803F00703022B6ED90025454B0293C9
:1021C000CDE900552B4637490322284626F0CBF8A7
:1021D000336803F00703022B5ED93F4B314900956A
:1021E000CDE9015303222B46284626F0BCF833687C
:1021F00003F00703022B4FD9384B2A490095CDE94C
:10220000015303222B46284626F0ADF8336803F02D
:102210000703022B40D932F0DDF8314B21491B581E
:102220000393304B0095CDE9015303222B462846FA
:1022300026F099F8336803F00703022B2CD92A4BB8
:102240001849CDF80C90CDE9015300952B46032297
:10225000284626F088F8336803F00703022B1BD9C1
:10226000224B1049CDF80C80CDE9015300952B4647
:102270000322284626F077F8336803F00703022B81
:102280000AD91B4B07490397CDE9015300952B460B
:102290000322284626F067F8164D024F2CE000BFB7
:1022A000EE70030038070020F844030007710300B4
:1022B000217103005C4F0300DC0400203271030035
:1022C000044C0300467103005A7103006E71030051
:1022D00083710300A6710300DB710300F871030032
:1022E0000800000014720300277203004372030009
:1022F000567203001E7A030020F0A2FE40F6CD4085
:10230000002131F0C0FD642394FBF3F803FB18486F
:10231000B8F1000F1CD1336803F00703022B17D963
:1023200031F033FE4FF47A72A0FB020302FB01315D
:10233000C00B40EA4140C90BCDE90401CDE901855C
:10234000CDF80080434603223946404626F00BF87C
:102350000134D1E720461BB0BDE8F08F38B5074CFB
:102360004FF0FF3220464FF0FF3326F01EF8044BAB
:102370001D78204626F01BF8284638BD0C080020A2
:10238000BDE7002070B5194D8CB04FF0FF324FF013
:10239000FF330646164826F008F80FCD07AC0FC4E9
:1023A00014492B6823600B68134C03F00703022BBE
:1023B00015D90CAB03EB86030CAA53F8143C049319
:1023C000237802EB8303032253F8143C03930B4B53
:1023D00002930023CDE90033184625F0D6FF0448C8
:1023E00026700CB0BDE8704025F0E1BF884A0300BC
:1023F0000C08002040070020BDE700207572030094
:102400001FB5224C236803F00703022B09D9204B88
:1024100002930023CDE9003303222146184625F01C
:10242000B4FF4FF0FF331B484FF0FF3225F0BDFFE4
:10243000236859070CD5184B0393184B02930822B5
:102440000023CDE9003211490422184625F09DFFF2
:10245000134B0021186825F095FF68B123685B07CE
:102460000AD0104B029300230390CDE900330749B3
:102470000122184625F089FF064825F098FF002024
:1024800004B0BDE81040FFF77DBF00BF400700204B
:1024900089720300F80700204F7603009B72030047
:1024A0001C550020CA72030030B5954B954C97B06F
:1024B0001B6815934FF00003FFF750FF0346C8B1A8
:1024C000236813F0060F09D08F4B02930023CDE948
:1024D000003302222146184625F057FF6FF00F0502
:1024E000874B1A68159B5A404FF0000300F0058196
:1024F00031F005FD226802F00702022A07D9834A5B
:102500000090CDE901022146032225F03EFF012083
:10251000FFF738FF236803F00703022B09D97C4B30
:1025200002930023CDE9003376490322184625F0B3
:102530002CFF78484FF0FF334FF0FF3225F035FF86
:10254000236858070CD5744B0393744B02930821EE
:102550000023CDE9003104226A49184625F015FF11
:102560006F4D0121286825F00DFF68B123685A07D7
:102570000AD06C4B029300230390CDE900336149EC
:102580000122184625F001FF624825F010FF0220C5
:10259000FFF7F8FE236803F00703022B09D9624B0B
:1025A00002930023CDE9003356490322184625F053
:1025B000ECFE0220FFF7E6FE23685B070CD55B4BC1
:1025C00003935B4B029308200023CDE900304D4973
:1025D0000422184625F0D9FE4E484FF0FF324FF046
:1025E000FF3325F0E2FE286883680CA99B68082267
:1025F00098470546474825F0DAFE236859070DD568
:102600004A4B03934B4B029308220023CDE900323F
:102610003C4904950422184625F0B7FE002D56D1FA
:1026200001238DF838300CAB03CBCDF83900CDF851
:102630003D1031F0AAFC4FF47A72A0FB020302FBBA
:102640000131C00B40EA4140C90BCDE912013A48C3
:10265000002200230EA923F02FFE68B1236813F097
:10266000060F09D0354B27490095CDE901530222C9
:102670002B46284625F089FE236803F00703022B2A
:1026800021D99DF837300A939DF8363009939DF88B
:10269000353008939DF8343007939DF83330069316
:1026A0009DF8323005939DF8313004939DF8303019
:1026B0000393234B02930023CDE9003311490322F6
:1026C000184625F062FE0320FFF75CFE08E723684A
:1026D00003F00703022B0AD91A4B02930023CDE91A
:1026E0000033084903950322184625F04EFE0020CA
:1026F000FFF748FE6FF03C05F2E6284617B030BD04
:10270000B48A022040070020F17203000F73030017
:1027100021730300F8070020F775030031730300ED
:102720001C550020637303008C730300DF750300E6
:10273000A7730300CA7303001C090020F27303008F
:102740001E740300547403001FB50A490B6803F09C
:102750000703022B08D9084B02930023CDE900336D
:102760000322184625F011FEFFF74AFE002005B0AF
:102770005DF804FB400700206D740300F0B5784B52
:10278000784DA3B01B6821934FF000032B6803F032
:102790000703022B41D90024734B0293CDE9004477
:1027A000234603222946204625F0EFFD2B6803F03F
:1027B0000703022B31D931F00DFE6C4FC35903933F
:1027C0006B4B0094CDE9014306462346032229467C
:1027D000204625F0DAFD2B6803F00703022B1CD9F5
:1027E000F05931F0A1FA634B0390CDE90143009415
:1027F000234603222946204625F0C7FD2B6803F017
:102800000703022B09D95C4B0094CDE90143032255
:1028100023462946204625F0B8FD584E584F514CC6
:102820004FF0FF334FF0FF320CA9304623F0A0FDEC
:1028300003460028F4D12A6852070DD59DF83020B0
:102840000492504A0392504A02920822CDE90002B3
:102850002146042225F099FD9DF83030032BDFD866
:10286000DFE803F002055F7AFFF71EFED8E72B686A
:1028700003F00703022B21D99DF838300A939DF805
:10288000373009939DF8363008939DF8353007931B
:102890009DF8343006939DF8333005939DF832301F
:1028A00004939DF831300393384B02930023CDE914
:1028B000003303222146184625F067FD012103203D
:1028C000FEF7D4FADDF83100DDF8351007238DF876
:1028D00060301AAB03C3DDE9102318A8CDE91C232F
:1028E00001238DF8783000F03BFA40F66433ADF800
:1028F000483000238DF84A30DDF83130CDF84B30C8
:10290000DDF83530CDF84F304E238DF8533012A816
:1029100044F24633ADF85430FEF724FFFFF770FD64
:102920007EE72B6813F0060F08D00023CDE90033B3
:10293000029702222146184625F027FD08238DF82C
:10294000603000238DF87830DDE9102318A8CDE938
:102950001C2300F005FAE1E7FFF7F6FE60E700BF91
:10296000B48A0220400700207F74030008000000A2
:10297000A0740300CB740300EB7403001C09002057
:10298000897503005E760300327503004F750300FE
:1029900030B5134D2B6803F00703022B85B019D90E
:1029A0000024104B0293CDE900442346032229461C
:1029B000204625F0EAFC2B6803F00703022B09D917
:1029C000094B0094CDE901430322234629462046C2
:1029D00025F0DBFC05B0BDE83040FFF765BD00BF6A
:1029E00040070020AC750300C57503002DE9F041D8
:1029F000AC4BAD4C98B01B6817934FF000032368A5
:102A000003F00703022B32D90025A84B0293CDE92E
:102A100000552B4603222146284625F0CAFC236890
:102A200003F00703022B22D931F0D4FCA04FC35985
:102A30000393A04B0095CDE9015306462B46032294
:102A40002146284625F0B5FC236803F00703022B36
:102A50000DD9F05931F068F9974B0390CDE9015346
:102A600000952B4603222146284625F0A2FCDFF8DC
:102A70004C82934F4FF0FF334FF0FF320EA9404688
:102A800023F076FC03460028F4D1226802F0070206
:102A9000022A07D98B4A84490090CDE9010203221A
:102AA00025F087FC9DF83830082B70D8DFE803F05C
:102AB000050538384F516078A100236803F00703FB
:102AC000022B14D99DF850007F49804B9DF840207F
:102AD000002818BF0B46CDE903237D4B029300234A
:102AE000CDE9003370490322184625F062FC9DF8B9
:102AF0005030002B4BD09DF840308DF83030032300
:102B00008DF831300CA84FF47A730D93FEF70EF95F
:102B10009DF84000FEF770FE6E4800F037FB36E08F
:102B2000236803F00703022B0FD99DF8413004936B
:102B30009DF840300393684B02930023CDE90033A6
:102B400059490322184625F034FC6448E5E76448F7
:102B5000E3E723685B0709D0624B02930023CDE9CA
:102B6000003351490122184625F023FC5E48D4E782
:102B7000236803F00703022B09D95C4B029300235F
:102B8000CDE9003348490322184625F012FC3E786F
:102B9000052E3FF66FAFDFE806F03C436E773C7DD5
:102BA000236803F00703022B21D99DF847300A93CD
:102BB0009DF8463009939DF8453008939DF84430C0
:102BC00007939DF8433006939DF8423005939DF896
:102BD000413004939DF840300393454B029300230A
:102BE000CDE9003330490322184625F0E2FB414885
:102BF00093E7236813F0060F09D03F4B029300239D
:102C0000CDE9003328490222184625F0D2FB3B4883
:102C100083E79DF83830062B7FF42CAF012505E0C3
:102C20009DF83830002B7FF425AF02254FF0FF329E
:102C30004FF0FF33324823F0FFFB3D70304823F064
:102C400073FC236803F00703022B10D92D4B1649A0
:102C500053F8252053F8263003932B4B029300237F
:102C60000492CDE900330322184625F0A2FB274841
:102C700023F0AAFCFEE69DF83830042B10D0052B7B
:102C80007FF4F8AE0425D1E79DF83830022BC5D08B
:102C9000032BF5E79DF83830002B7FF4EBAEBDE752
:102CA0000325C3E7B48A0220600700207B76030077
:102CB000080000009E760300CB7603004C0900203C
:102CC000BEE70020ED7603008E64030096640300E7
:102CD000147703002177030039770300E46A0300C7
:102CE000557703006C770300827703009077030029
:102CF0009D770300DD77030089750300EF770300FC
:102D000038550020EC4B03000178030020550020CB
:102D10001FB50E4830F0ADFF012200210C4830F005
:102D2000AFFF0C4A0C49002313700A6802F0070237
:102D3000022A07D9094A0093CDE901321846032235
:102D400025F037FB002005B05DF804FB3855002066
:102D500020550020BEE70020600700201C780300FB
:102D60001FB5014688B9144C23685A0708D0134B85
:102D70000090CDE9010301220346214625F019FB0D
:102D80006FF01504204604B010BD0D48002200234A
:102D900023F092FA04460028F4D007490B685B0739
:102DA000F0D0084B029300230390CDE900330122B9
:102DB000184625F0FEFAE5E76007002036780300A4
:102DC0004C0900204978030030B5244D2B6803F0EE
:102DD0000703022B85B009D9214B02930023CDE9CB
:102DE000003303222946184625F0F2FAFDF710FEBB
:102DF000044680B12B6859070AD01A4B03900293FE
:102E00000023CDE9003315490122184625F0E0FAE8
:102E1000204605B030BDFEF707F9044628B12B68FF
:102E20005A07F5D0104B0390E9E7FEF77FFA2B68BD
:102E3000044620B15B07EBD00C4B0390DFE703F0B7
:102E40000703022BE4D90A4B04490090CDE90103A2
:102E50000322034625F0BCFADAE700BFF80600209B
:102E600095780300A8780300C0780300D5780300A4
:102E7000ED780300014823F057BB00BF4C550020FC
:102E80007FB5154830F0F5FE31F07FF84FF47A73D6
:102E9000A0FB030403FB0144104EC00B40EA444076
:102EA0000025E40BC6E9000429460D48202231F034
:102EB000F7F90C490B6803F00703022B08D90A4BFA
:102EC0000095CDE9015303222B46284625F08FFAC1
:102ED000002004B070BD00BF4C550020B010002091
:102EE000B81000206C0700200C79030038B50446A8
:102EF00088B10A4D0A484FF0FF324FF0FF3323F0FC
:102F00009BFA0FCD0FC495E80F0084E80F00FFF780
:102F1000B1FF002038BD6FF01500FBE7B8100020AE
:102F20004C5500202DE9F041864D2B6803F0070336
:102F3000022B8EB032D90024834B0293CDE900449A
:102F4000234603222946204625F051FA2B6803F038
:102F50000703022B22D931F03DFA7C4FC35903936A
:102F60007B4B0094CDE901430646234603222946C4
:102F7000204625F03CFA2B6803F00703022B0DD9FD
:102F8000F05930F0D1FE734B0390CDE9014300942A
:102F9000234603222946204625F029FADFF8B88186
:102FA0006E4E4FF0FF334FF0FF32404623F044FAAD
:102FB00073690A2B00F2C480052B94BF0023012300
:102FC000674F3B7030F0E1FF4FF47A72A0FB0203D1
:102FD00002FB0131C30B6348D0E9002043EA4143BF
:102FE0009B1A4FEAD13161EB0001C6E90631FFF7C8
:102FF00041FF06A8FFF77AFF0446002840F09A80B8
:103000002B6803F00703022B40F29480564B4D4986
:103010000090CDE901030322034625F0E8F92B686F
:1030200003F00703022B40F28580069B03934F4B6E
:1030300044490094CDE9014303222346204625F06C
:10304000D6F92B6803F00703022B73D9079B039370
:10305000474B3C490094CDE90143032223462046D7
:1030600025F0C5F92B6803F00703022B62D9089BF2
:103070000393404B33490094CDE901430322234697
:10308000204625F0B4F92B6803F00703022B51D931
:10309000099B0393384B2B490094CDE9014303224C
:1030A0002346204625F0A3F92B6803F00703022BE3
:1030B00040D90A9B0393314B22490094CDE9014347
:1030C00003222346204625F092F92B6803F00703DC
:1030D000022B2FD90B9B0393294B1A490094CDE95E
:1030E000014303222346204625F081F92B6803F093
:1030F0000703022B1ED9DDE90C23CDE90423214B64
:1031000010490094CDE9014303222346204625F0CF
:103110006EF92B6803F00703022B0BD93B7803935E
:10312000194B02930023CDE90033064903221846C8
:1031300025F05DF900214FF4481030F0A4FE30E78F
:1031400002233DE76C0700202779030008000000F8
:103150004B790300797903004C550020B81000200A
:10316000BFE70020B01000209C790300AC79030079
:10317000C0790300D0790300E2790300F5790300F8
:10318000087A03001C7A03002E7A03001FB5044658
:10319000002856D02D484FF0FF324FF0FF3323F078
:1031A0004BF92B492046FDF749F938B9294A1368EC
:1031B00001331360FFF75EFE002044E026492046FD
:1031C000FDF73CF920B9234A536801335360F1E716
:1031D00022492046FDF732F920B91E4A936801338F
:1031E0009360E7E71E492046FDF728F920B9194A00
:1031F000D3680133D360DDE71A492046FDF71EF995
:1032000020B9144A136901331361D3E716492046E4
:10321000FDF714F920B90F4A536901335361C9E727
:1032200012490B6813F0060F09D0114B02930023CB
:10323000CDE9003303940222184625F0D8F8FFF7B1
:1032400019FE6FF0150004B010BD00BF4C550020F2
:1032500021770300B8100020E46A03006B6B0300C1
:103260003B7A030055770300827703006C07002048
:10327000487A03002DE9F04F93B084070093944BF4
:1032800003921B6811934FF00003039BDDF87080DD
:1032900003F004030293039BC3F3C20303F101038E
:1032A00005460E46059340F0C481041D68B1072908
:1032B00010D86FF01B00864B1A68119B5A404FF0D4
:1032C000000300F0B98130F01AFE01F00706344423
:1032D000C6F10806009B4FF00009591E4FF0040A82
:1032E0004FF0FF330193CDF810904F46CB46534635
:1032F0000DB1009A22600598002800F3EF80754810
:10330000009A824203D374488242C0F0E780039A55
:10331000A4EB050E92074FEA9E0000F10A810F2FE1
:1033200000F2B180002D00F00C8107F148020DEB96
:10333000020C019A0CF8240C0CF8142C049801309F
:103340000490EEE07A285DD84B280ED8472859D84B
:1033500029282DD8252852D054D820287AD023388F
:10336000D0F1000B4BEB000B74E04C382E2849D801
:10337000DFE800F07048484848484848484848480E
:103380004B484848484848484859484B4B59595970
:10339000704B6D487048184B184848827F4B48481E
:1033A0004B487F0000204FF0000B4FF0040A38E03C
:1033B0002A38C0B2012202FA00F010EA0E0F49D1F9
:1033C00010F0625C2FD110EA020B43D06046013C42
:1033D0005444B4FBFAF40AFB04F4002D61D0A3EBCF
:1033E000050CA444B4453FF664AF002868D1042B13
:1033F00047D158F8043B2360043404232AE0019A9F
:10340000013A01924FF0000B24E011F8010C6C28F6
:1034100034D111F8023C00206C2B8346C5D14FF00B
:10342000080A5346D3E708F1070828F007080734CD
:10343000F8E802AB24F0070435B106982044B04206
:103440003FF637AFC4E900AB08344FF0000B4FF044
:10345000080A534611F8010F00287FD0BBF1000F76
:103460007FF470AF2528F5D1019B013301934FF014
:10347000010B4FF0040AECE7584694E7002083461E
:10348000A5E7082B02D06FF0150014E708F1070834
:1034900028F00708F8E80223C4E9002308340823C9
:1034A000D8E768B9042B02D108F10408A4E7082B77
:1034B000E9D108F1070828F0070808F10808EDE746
:1034C000059A013A059258F8042B009210E700BFC4
:1034D000B48A0220E8430300D42E0400039A900724
:1034E00020D5A4EB050E4FEA9E004FF0010CBEF56F
:1034F000007FC8D20F2FC6D8F5B107F148020DEBF7
:10350000020EC0B2019A0EF8240C0EF8142CBCF175
:10351000000F3FF413AF60F07F000EF8240C09F1A8
:1035200001090137C5F10802043406924FF6DA7E2C
:1035300090E74FF0000CDAE7BCF1000F01D0013644
:10354000EFE7029802360028EBD10098CDE906316A
:10355000FCF786FFDDE906310644E2E7631BB3F5BD
:10356000806F90D21DB9A6F10804E018A3E6029A74
:1035700028609B082B709DF81030C2B1EB7085F865
:103580000290B9F1000F05D009A80022C5F1010C85
:1035900097420ED1C5F101030DF124084FF0000A46
:1035A00001930DF1340B574512D1601B83E66B700C
:1035B000E5E710F8013B190608D50CEB040EB645FB
:1035C00003F07F033FF675AE04F8013B0132DFE7FD
:1035D000B9F1000F03D098F90020002A17DB029BF5
:1035E000D3B11AF80B2004F8012B0022019B181903
:1035F0001044B0423FF65DAE98F8000004F8010BAD
:1036000000990392204630F023FE039A14440AF1F5
:10361000010A08F10108C6E798F8002055F82230A1
:103620000093029B45F822300098FCF719FF421CDA
:10363000DCE76FF00D003EE613B0BDE8F08F00BF91
:1036400080B505460E461746984623F017FD0346FB
:1036500030F0C0FEDFF81890044649F800304246CA
:1036600030463946A84754F8090002F05DFB00BF18
:103670000800000008B50446EFF31183202383F30C
:103680001288BFF36F8F0BF027FE204602F022FF57
:10369000024825F03BFA25F079FFFCE77CA4030003
:1036A0002DE9F047058B04462807904611D40229DE
:1036B00005F0070540F0CC80204625F034FA78B1BB
:1036C0000138218B042811D8DFE800F0C2106D8585
:1036D000950001290CBF45F0100545F02005258314
:1036E00088F31188BFF36F8FBDE8F08701F0070AF8
:1036F000AA4500F0A5800027B9463E46A368002BE6
:1037000000F0BC8041F00801218388F31188BFF3E9
:103710006F8FA168002900F0BA800D68002900F0C1
:10372000B680D1F80480334652462046C047002D6B
:1037300076D02B6829461D46F0E701F007035A1F93
:10374000012A1BD8002221F00701062B276889B225
:10375000C4E9002209D13B4603E0628B0132628357
:103760001B68002BF9D141F002012183204625F08E
:10377000DAF900287AD041F0200176E0042B0AD152
:1037800021F0070189B22183204625F0CCF910B140
:1037900041F020012183218B01F0070AAA454FD077
:1037A0000027B946AAE7236921F0070141F0060185
:1037B000062DD3F8009021832DD1B9F1000F3FD011
:1037C00041F00801218388F31188BFF36F8F3A49D4
:1037D0002046C84729E021F00701236941F0040190
:1037E00089B2042DD3F804902183E6D000273E4609
:1037F0004FF0040A82E721F00701236941F0050137
:1038000089B2052DD3F808902183D6D000273E46F3
:103810004FF0050A72E700273E464FF0060A6DE7B3
:103820002B4687E7B9F1000FD1D1EFF311882023A0
:1038300083F31288BFF36F8F238B23F00803238356
:10384000258BEA062ED525F01003238305F0070506
:103850006669218B002EBFF670AF00232768C4E98C
:10386000003321F0070141F001012183218B01F098
:10387000070AAA454FF000097FF440AF002F9CD003
:1038800041F00801218388F31188BFF36F8F002F67
:10389000C8D03D68394633465246204625F06FF978
:1038A0002F46F4E7AB067FF51BAF25F020032383FB
:1038B00005F0070500E700BFAB8B02002DE9F84FCC
:1038C00081462F480F4625F019FA064670B92D4C4F
:1038D000DFF8B4A00546A0464FF0010B544507D3CE
:1038E000B9F1000F02D04FF0010AE5B9BDE8F88F39
:1038F000237B6BB12368DB680BB1204698472368B4
:103900001B6943B9636804221968204600F098F9DE
:1039100001361034E2E7204698470028F2D00BFA2F
:1039200006F31D43F4E7A94695FAA5F4B4FA84F426
:103930000AFA04F3260108EB04146FEA030B25EAE4
:103940000305237B63B158F806301B6993B94644DD
:10395000042273682046196809EA0B0900F070F91F
:10396000002DE1D127B14FF4A470002130F08BFA83
:103970004D46BAE7204698470028F1D1E7E700BF57
:10398000685500204849030058490300014B53F88B
:1039900020007047B452030008B5034608462BB117
:1039A000044A136000F092FB002008BD6FF0150080
:1039B000FBE700BFEC040020084A094808B50023D3
:1039C0001370084A1360084A4FF400411360FFF770
:1039D000E3FFBDE8084000F083B800BFC0E7002067
:1039E000F98C0200605500206455002070B50B4D25
:1039F000297841B90120FFF761FF094C094EB44213
:103A000002D301232B7070BD63685B791BB12368FF
:103A100020469B6898471034F1E700BFC0E70020BC
:103A2000484903005849030010B50446084825F0EA
:103A300065F95CB1BFF35B8F064B53E8001F01399A
:103A400043E80012002AF8D1BFF35B8F10BD00BF1E
:103A500060550020645500202DE9F041164B174CAD
:103A60001B68DFF85C8005469847A860444501D391
:103A7000BDE8F08163685B793BB129784B0706D5D7
:103A8000236829461B68204698471034EEE72846ED
:103A90002E88C1F3C20700F07DF9C6F382160246F4
:103AA000002EEDD00028EBDB01233946204600F044
:103AB000E1F8B042E9D3E3E7EC0400204849030011
:103AC00058490300044A054B9B1AB1EBD30F34BF8E
:103AD00052F831000020704758480300484903005D
:103AE0000B480C4B30B51B1A0B4CDB080021043083
:103AF000994200D130BD10F83120256802F007024C
:103B000025F007052A4344F8042B0131F0E700BFF4
:103B10005848030048490300F8060020F8B50B4F49
:103B20000B4DED1B0646ED080024AC4203D14FF0CF
:103B3000FF342046F8BD57F8340020B13146FCF779
:103B40007DFC0028F5D00134EFE700BF58480300A2
:103B50004849030000282DE9F047884615461F46CE
:103B60001DDADFF89890264E4FF0000AA6EB090602
:103B700036095446B24509F1100902D12046BDE884
:103B8000F08759F80C0C3B4600792A464146FFF76E
:103B9000E1FF844238BF04460AF1010AEAE7194B03
:103BA000194AD21AB5EBD20F26D203EBC5031C7902
:103BB000BC4228BF3C46154EC0B200EB400056F850
:103BC00025300722824023EA020304F007028240E4
:103BD00013430021032223FA02F000F00700814280
:103BE00002F1030238BF01461E2AF4D123F0070375
:103BF0000B4346F82530C1E70024DCE748490300C1
:103C0000584903005848030048490300F8060020BB
:103C1000F8B5094D094BED1A06460F46ED0800248C
:103C2000AC4200D3F8BD002122B23B4630460134FD
:103C300025F089F8A4B2F3E7484903005848030087
:103C400038B50B4BC31A0D461B11114642680133A0
:103C50001371436804469971FFF7DAFF63681D60CA
:103C6000636801225A71BDE8384025F069B800BF89
:103C70004849030070B14168097973B1002A17DB24
:103C8000CBB20C4951F8220003EB4303D84000F0BB
:103C9000070070474FF0FF31EFE707490748401A28
:103CA000B2EBD00F3ABF01EBC2010879184670475A
:103CB00004207047F80600205848030048490300D4
:103CC0002DE9F04F87B004AFD7E90EA993462E4AED
:103CD0003D6B04460E46984612687A604FF000022B
:103CE000BAF1000F27D0C7F80090CDF8009010214E
:103CF0007A6B53460020FFF7BDFAB0F5006F01461E
:103D00001AD322490B6813F0060F0BD040F2FF7351
:103D100003931F4B02930023CDE900330222184680
:103D200025F032F8184B1A687B685A404FF00003B0
:103D300026D030F0E4F8514604F007040BF0070BEE
:103D4000E40044EA8B1444EA412444EA055417355C
:103D50000D4425F00705ADEB050D04ADBAF1000FDC
:103D600007D0CDF800907A6B534605F11000FFF7AD
:103D700081FA434622463146284624F0ECFFD1E73B
:103D80000C37BD46BDE8F08FB48A02201C07002026
:103D9000B2A40300406820B1034BC01A40F38F0067
:103DA00070474FF0FF307047F80600200EB403B59F
:103DB00003AB014653F8042B0448019302F072FA56
:103DC00002B05DF804EB03B0704700BFC58D020080
:103DD000CA0605D48B064CBF02490349FFF7E6BF6C
:103DE000704700BF6EA80300EAA403002DE9F04F5E
:103DF00087B004469DF844600D4690469946002ED3
:103E000000F0A280159B03F0020A03F00103049363
:103E1000159B03F0080B03F48073059324F091FFC6
:103E2000024600283DD095492046FFF7BFFF0746D0
:103E3000BAF1000F09D0159B13F0440F33D190490C
:103E40002A462046FFF7B2FF0744049B53B18D4B2F
:103E50008D4953F826208D4B2046002A08BF1A466C
:103E6000FFF7A4FF059B002B49D0BBF1000F64D1E5
:103E7000B8F1000F66D0864942462046FFF796FF0C
:103E80000546129B3D44002B6DD1149B002B73D132
:103E9000159BDB0700F1EB8015992046FFF798FF93
:103EA000D8E00746C4E77B4B18680028CCD07A4B93
:103EB0004FF47A7A1B68B5FBF3F54FF46163B5FBF9
:103EC000F0F100FB11550AFB05F54FF03C0CB1FB7E
:103ED000F3F203FB1211B5FBF0FEB1FBFCF300FBA8
:103EE0001E550CFB13110AFB05F50091B5FBF0F50F
:103EF0006A49CDE901E52046FFF758FFA4E7BBF189
:103F0000000F1DD0664B674953F826202046FFF767
:103F10004DFF0546B8F1000F05D05D4942462046E9
:103F2000FFF744FF0544B9F1000FAAD05E494A46A5
:103F30002046FFF73BFF0544A3E74FF00009E1E708
:103F40005D46E7E745469CE7B9F1010F129B06D1B4
:103F5000002B66D1149B002B7CD000250CE0002B9D
:103F6000F8D052485EE05248129B5249224624F053
:103F70009CFD149B002B6AD0DFF83C81DFF83C915C
:103F8000149F1599102F204628BF1027FFF720FFF8
:103F90004FF0000B5D4547DC139B49461A782046DD
:103FA000FFF704FF4FF0010B1BF0070F03D1414651
:103FB0002046FFF7FBFE5F453DD9139B494613F8AA
:103FC0000B202046FFF7F2FE0BF1010BBBF1100FA7
:103FD000EAD13B49DFF8ECB020464FF0000AFFF78A
:103FE000E5FE5246139B9A5CA2F120015F2928BF8F
:103FF0002E2259462046FFF7D9FE0AF1010ABAF1EE
:10400000100F1DD01AF0070F03D141462046FFF7CD
:10401000CDFE57455246E5D841462046FFF7C6FE3D
:10402000EBE7234835469FE741462046FFF7BEFEB3
:104030000BF1010BAEE724492046FFF7B7FEC3E7BB
:10404000139B3B441393149BDB1B149398D1002EBA
:104050007FF41EAF6268A1682068D2E9002324F0D3
:10406000A3FE636800221A6007B0BDE8F08F074A1C
:1040700005492046FFF79AFE0EE700BFF2A40300B1
:10408000F6A40300C452030051A90300EDA40300E9
:104090001BA50300705500206C550020FFA40300F1
:1040A000D85203001FA5030025A50300E18D0200DF
:1040B000C58D0200A562000032A503002AA50300F9
:1040C00034A5030024AE030030A50300074A0021F5
:1040D0000123904206D8064A01B901231360054B1B
:1040E0001860704740085B000121F2E740420F0072
:1040F0006C55002070550020014B01221A7070474A
:10410000C1E70020014B002019607047885500204E
:1041100010B5064B18680C46FFF738FC21460346DD
:10412000BDE8104002480F22184700BF8855002004
:1041300008530300F8B5094D094B0A4ED5E900476D
:1041400001221A700CB92C60F8BD214630463A465F
:1041500000F00AF8241A0644F4E700BF7C5500205A
:10416000C2E70020C3E70020F8B5194D07460E4608
:10417000042432463946002020F08EFEC8B10123C7
:104180002B70144B1B782BB93046F8BD5CB92C70E2
:104190004FF0FF34002020F0C3FE0028F4D02B782D
:1041A000002BF3D1F0E7013C41F288302FF09CFC6A
:1041B000F0E72B7813B1013C04D12C702B78002B45
:1041C000D7D1E1E741F288302FF08EFCF6E700BF4F
:1041D000C1E70020C2E70020014B036000207047C8
:1041E0001853030010B5044626F0C9FE03490246E1
:1041F000204624F0B6FE002010BD00BF7DA50300C0
:1042000073B5134600220192044601AA58680A2198
:1042100000F016FD019D95B920EAE0744FF40046C8
:10422000294640F2E7304FF47A720023C4FB0601BE
:10423000FCF7EAF82FF027FE284602B070BD2A46A8
:104240000249204624F0A9FE019DF5E7A9A5030037
:1042500008B5034A034924F084FE002008BD00BFCE
:1042600096A603009DA603002DE9F34117460023FF
:10427000044601AAB86801930A2100F0E1FC019DFF
:10428000C6B24DB12A461449204624F086FE019D4F
:10429000284602B0BDE8F081042E09D90F49324604
:1042A000204624F07AFE204624F0B3FE0125EFE7F5
:1042B0007868FFF733FCB0F1000804DA7A6808493F
:1042C000204624F06AFE002133460FFA88F20846A1
:1042D00024F039FDDCE700BFC8A60300EFA6030009
:1042E00006A7030010B504460AF0ECFF0749024692
:1042F000204624F036FE2046054924F032FE0548CB
:10430000214623F003F8002010BD00BF91A7030051
:10431000B0A703001943000070B52D4BD0F89C6086
:104320008EB004460D461B680D934FF000032FF02E
:10433000FEFC034630F04EF8264A27491058274A1B
:10434000002B18BF1A460092254A2346844218BF04
:104350000A462846234924F004FED4E90A23CDE97D
:104360000023284694F90E30227B1F4924F0F9FDE2
:1043700005A92022204622F00BFB636E1B49024652
:10438000284624F0EEFD04A920462FF0DEFC02466C
:1043900060B11749284624F0E4FD0D4B1A680D9BC7
:1043A0005A404FF0000310D02FF0A9FD049B642267
:1043B000F11A4A430091B2FBF6F20E49CDE90162CF
:1043C0002846324624F0CDFDE7E70EB070BD00BFB1
:1043D000B48A02200800000032A50300BAA7030037
:1043E00064B80300BDA70300C9A70300F5A7030035
:1043F0000CA8030039A8030070B51E4B90B000252F
:1044000004461C22294607AE08A81B680F934FF0EC
:1044100000032FF045FF1A22202130462FF040FFE5
:104420001548214622F072FF06AA4FF40061134896
:104430002FF07FFC069A0096C2F5006164234B437F
:10444000DB0A05934FF40063CDE90313CDE9013294
:104450000B490C4A2B46204624F083FD054B1A6875
:104460000F9B5A404FF0000301D02FF048FD284623
:1044700010B070BDB48A022089440000005B0120A6
:104480008AA80300C05A012070B50446D0F89C6089
:1044900088B00D4607A92FF058FC024628B10F49F5
:1044A000284624F05EFD08B070BD20462FF03FFC8A
:1044B000079B0096F11ACDE90131094B64224A436A
:1044C000002818BF0346B2FBF6F20649CDE90362A5
:1044D0002846224624F045FDE5E700BF0CA803006E
:1044E000BAA70300D3A803002DE9F04F324BDFF841
:1044F000CCA0DFF8CCB089B0044601A81B680793B4
:104500004FF0000321F08AFC019F2E4A182303FB81
:1045100000770821204624F017FD019DBD4208D3F5
:10452000254B1A68079B5A404FF000033FD02FF0ED
:10453000E6FC2B680BB11A7832B92B46224A1421BB
:1045400002A81FF087F902AB52460821204624F04A
:10455000FBFC28462FF0CDFA1C4B1D4A002808BF53
:104560005B460821204624F0EFFC6B69A3B11E686E
:1045700096B1336883B1174A0821204624F0E4FC41
:10458000B1464FF000083368134A434506D8134A32
:104590000821204624F0D8FC1835BFE759F8043F1D
:1045A0000821204624F0D0FC08F10108EBE70020A8
:1045B00009B0BDE8F08F00BFB48A02204FA9030004
:1045C00037A9030040A903004AA903007B78030030
:1045D0007EAE030054A9030050A903006EA8030097
:1045E0002DE9F041144688460746102260680021F4
:1045F00023F032FBB8F1020F064607D8254A2023E4
:104600000821384624F0A0FC336816E00A22002175
:10461000A06823F021FBC5B21E4A2B46082138466C
:1046200024F092FCB8F1030F1AD1102D0CD0202DDC
:10463000EAD0082D0BD13378DBB2174A082138466F
:1046400024F082FC002009E033889BB2F5E738466D
:10465000124A082124F078FC6FF01500BDE8F081C3
:10466000E0681022002123F0F7FA0D4A03460446C1
:104670000821384624F068FC102D06D0202D07D0E4
:10468000082DE4D1E4B23470DCE7A4B23480D9E779
:104690003460D7E795A90300C0A90300AAA90300C5
:1046A000D1A903002DE9F04F5A4BDFF86CA187B078
:1046B0001B6805934FF0000300230093574B91466E
:1046C0000122074688461A6001F01AFE4FF0FF35B6
:1046D00020262C4649465246404601F035FE411CF4
:1046E00006D16A1C47D14E49384624F056FC17E0E3
:1046F000732820D077282ED0612811D1DFF824B17B
:104700006A46DBF80000102100F09AFA009B05468B
:10471000002BDFD0DBF800204349384624F03DFC75
:104720006FF015003B4B1A68059B5A404FF0000391
:104730006DD02FF0E4FBDFF8ECB06A46DBF8000048
:10474000002100F07DFA009B0446002BC2D0DBF86C
:1047500000203649E1E7DFF8CCB06A46DBF800001C
:10476000002100F06DFA009B0646002BB2D0DBF86A
:1047700000202F49D1E7631C01D12E49B4E75FFA2D
:1047800086F8C6F3C406002C3FD001AB29461A4672
:10479000A6EB050C0CE0B8F1100F1DD0B8F1200FFE
:1047A00020D0B8F1080F2AD108781870314433446A
:1047B000A64203D80CEB01001028ECD9102CA1461E
:1047C00028BF4FF0100929464B46384600F084F9BF
:1047D0001035A4EB0904D6E7088880B21870000AE7
:1047E0005870E3E7086818704FEA102E83F801E06C
:1047F0004FEA104E000E83F802E0D870D6E70E4A5A
:104800000821384624F0A0FB8AE720468AE707B053
:10481000BDE8F08FB48A02201FAA030028050020FB
:1048200026AA0300D45A0020E5A90300F8A9030032
:104830000BAA030043AA0300AAA9030070B50F4EF8
:10484000044633780D4671B123B1BDE870400C4980
:1048500024F0A3BB012333700A49204624F081FBD6
:104860000123337004E083F001033370002BF3D194
:1048700029462046BDE8704024F0E8BBC4E700208C
:104880005DAA030098AA030070B504463B4803786C
:10489000182B02D10B78112B31D0013A0B468D1811
:1048A000AB4225D18B5C0A780370A2F13003092B4F
:1048B000334C04D922F02003413B052B04D8236854
:1048C0003049CA54013323602368022B33D11022AC
:1048D0002C48002123F0C0F92B4A136803F8010B80
:1048E00013602A4A1368013313600023236022E017
:1048F00013F8016B182ED3D11E78112ED0D1234D71
:1049000023492A68204624F02CFB20460021FFF78B
:1049100095FF204B187870B91F4A2B681168042B3B
:104920000ADC08B111602B6013F003010BD112688F
:1049300013681BBA136070BD086800BA41F8040B15
:10494000043B0120EBE75B4203F0030358BF5942ED
:10495000022904D1126813885BBA9BB2EAE70329E3
:10496000E9D1106802681104C2F3074301F47F0122
:104970000B4302F47F4213430360DCE7C5E70020EA
:104980008C550020C7E70020985500209055002046
:10499000C2AA0300C6E70020945500202DE9F84F75
:1049A0000C462B49DFF8AC80DFF8AC90DFF8ACB0F8
:1049B00000230B602A4988F8003006460B60154634
:1049C000012C2F4655F804AF1ED902224946504605
:1049D0002FF07BFC80B99AF80220003A18BF012220
:1049E00092442049022250462FF06FFC30B9012337
:1049F00088F80030013CE3E70022F1E749465046E1
:104A0000FBF71CFDA8B9043700221146786823F093
:104A100023F9154B002211461860786823F01CF921
:104A2000124B134918603046FFF708FF0020BDE81D
:104A3000F88F9AF800202D2AE6D19AF80120002A52
:104A4000E2D052465946304624F08BFAD2E700BFF6
:104A50008C550020C6E70020DCAA0300E2AA030070
:104A600090550020DFAA030098550020945500209F
:104A70008948000010B581680446183100F038FA02
:104A8000A168034A20461831BDE8104000F0D6B9AD
:104A900049AC030010B50B49044624F062FA2046E5
:104AA000094924F05EFA2046084924F05AFA2046C3
:104AB000074924F056FA2046064A002100F0BEF9C4
:104AC000002010BD57AC030095AC0300F4AC03000C
:104AD00048AD0300E2AD0300F8B517461E460A468E
:104AE0002949044624F03DFA3EB33A782749204646
:104AF00024F037FA01256A0703D12549204624F01E
:104B000030FAAE421ED97A5D2049204624F029FAB7
:104B10000135102DEFD11F49204624F022FAB6B9F5
:104B20001B49204624F01DFA0125AE422B4610D821
:104B30001749204624F015FA15E01749204624F0BD
:104B400010FA01251449204624F00BFAE0E700256D
:104B50002B46FA5C1149A2F120035F2B28BF2E22BD
:104B6000204624F0FEF90135102D06D06B07DCD16C
:104B70000749204624F0F5F9D7E720460849BDE863
:104B8000F84024F0EEB900BFF8AD03002AA50300F9
:104B900032A5030034A5030030A5030024AE0300B2
:104BA000FFAD030010B5044613460A460146064809
:104BB00001F078FB23691B7923B12046BDE8104042
:104BC00024F04ABA10BD00BF7190020038B50B4600
:104BD000154648B91449154A521AB3EB920F05D23B
:104BE00051F82350284638BD84680CB90025F9E7F0
:104BF0000F4A94420AD30F4A944207D218462268B9
:104C0000294690472B68002BECD1EFE70A4A9442E3
:104C100002D30A4A944205D3246814225343E51868
:104C2000E358F0E70133F8E75849030080490300EF
:104C3000704A0300704A030080490300704A030071
:104C4000F7B503782D2B0446164605D16FF01503F2
:104C50003360002003B0F0BD2FF0BCFB0B4F0023EE
:104C60000546C3510A46204601A922F0F5FFEB593B
:104C7000222B02D16FF02103EAE7002BE6D1019B42
:104C8000A342E3D01B78002BE4D0DFE70C00000048
:104C90008368D3F874329B0603D50249406924F037
:104CA0001BBA7047CC4A0300014924F015BA00BF73
:104CB0006EA803000A1E0DDC0ED042238168D1F8D5
:104CC0007412890608D5002A04494069B8BF5242C7
:104CD00024F002BA4123F1E7704700BF20AE030081
:104CE0000A1E0DDC0ED044238168D1F874128906A7
:104CF00008D5002A04494069B8BF524224F0ECB9F3
:104D00004323F1E7704700BF20AE03002DE9F047D1
:104D10008568DFF86890044605F15600FBF7A0FBB4
:104D2000002395F83C7086B29846A268558FED1B1B
:104D3000B54209DB002E1FDD563360691049BDE81E
:104D4000F0471A4424F0C8B91D442A44563392F857
:104D500056A082F85680A26860691A44494624F039
:104D6000BBF9A3682B4483F856A0A3685B8FDB1BB9
:104D7000F61A00272B46D8E7BDE8F08721A70300E5
:104D800051A9030008290A4617D8836893F83E10F2
:104D9000914212D083F83E208368082AD3F87432F7
:104DA00005D0990609D50549406924F095B99B06B7
:104DB00003D50349406924F08FB9704727AE03003B
:104DC000D14A030038B50D4609780446FFF7DAFFEB
:104DD0006A78072A11D8A36893F83F1091420CD043
:104DE00083F83F20A368D3F874329B0605D5606929
:104DF0000249BDE8384024F06FB938BD30AE030039
:104E000010B504468368094A022124F02EFAA368EB
:104E1000D3F874329B0707D52046FFF777FF20466B
:104E2000BDE8104024F077B910BD00BF51A90300C0
:104E3000014924F027BA00BF6EA803002DE9F04F06
:104E40000E46002189B0044617460D4603AA304697
:104E500001F10108FFF7BAFEB0B995B127B13A46A2
:104E60000821204624F001FA1E4FDFF87C90DFF87D
:104E70007CA0002103AA304601F10108FFF7A6FE3D
:104E800060B909B0BDE8F08F006810B1FBF7E8FA2F
:104E900080B2854238BF05464146D7E703688BB1EB
:104EA0001A787AB1D0F804B04A46CDE90053082107
:104EB0003B46204624F0D9F9BBF1000F04D16069CC
:104EC000FFF7B6FF4146D5E7524620463B4608214C
:104ED00024F0CBF9AA1D92B25946204624F0DFF9FE
:104EE000F0E700BF49AE030039AE030025A503007B
:104EF000F7B50F6805460E46A7B13846FBF7B0FA7E
:104F000084B2094B00932846084A3B46082124F006
:104F1000ACF9E21C716892B2284603B0BDE8F040DB
:104F200024F0BDB93C46ECE745AE030040AE0300BB
:104F300010B58368D3F874329B06044603D506493E
:104F4000406924F023FAA36850225A87A3681822E4
:104F50001A87002010BD00BFDE4A030008B5836930
:104F600002491A6823F0FDFF002008BD4CAE030083
:104F70002DE9F3410D490E4C0E4EDFF83C800546FD
:104F800023F0EFFF0022B44202F1010703D3002017
:104F900002B0BDE8F081636A0093A36892B2414613
:104FA000284623F0DEFF30343A46ECE75CAE0300DF
:104FB000584903005849030074AE030008B502497C
:104FC00023F0F9FF002008BD94C1030073B50E4E15
:104FD00004460025A268E0680DF1060302F5AB72F5
:104FE000012124F06EFABDF80600A36840B12A46FC
:104FF00003F5AB733146204623F0B3FF0135E9E7F3
:1050000083F8560102B070BD85AE030010B50446AA
:1050100024F014F803490246204623F0A2FF0020A2
:1050200010BD00BFD8AA0300022907B50BD15368F1
:10503000009312680B4B0C4923F0AFFF6FF0150083
:1050400003B05DF804FB8368084AD3F8743208495A
:1050500013F0020F074B18BF1A4623F082FF0020FF
:10506000EEE700BF93AE0300A8AE03008FAE0300CF
:10507000B1AE030059BC030010B58368D3F8743295
:105080009A06044603D50749406924F07FF9A368CE
:10509000D3F874329B0603D50349606924F076F98E
:1050A000002010BDE54A0300EA4A0300F0B50129DB
:1050B00085B004460AD05368009312685D4B5E4980
:1050C00023F06BFF6FF0150005B0F0BD8368D3F8D7
:1050D0007432990603D55949406924F057F96FF0A5
:1050E000F9012046FFF7E6FDFA212046FFF7F8FD1B
:1050F000A06800254FF48072294600F5AB708DF84A
:105100000B502FF0CDF84E49606924F03FF96069EB
:1051100023F0A2FF4FF47A766068036801221F69CA
:105120000DF10B0103ABB847039BEBB9013E4FF404
:105130007A70B6B22EF0D8FC002EEDD1A368D3F869
:1051400074329B0603D53F49606924F01FF9A368B8
:105150003D4950225A87A368182220461A8723F017
:105160000EFF6FF00700AFE79DF80B20A3681B2A26
:1051700053D093F856111B29CED1522A4DD15A192A
:10518000002382F85631A66896F857215B2A2BD166
:1051900006F25710022510F8011F2A463B2905F197
:1051A0000105ADB223D1FF2AC8D002F5AB7216FAC1
:1051B00082F1002211F8010F18BB86F85601FA2A75
:1051C000A16828BFFA224A87FA2BA26828BFFA23CF
:1051D0001387A368D3F874329A0603D51949606916
:1051E00024F0D4F800206FE786F85631A6E703EBE9
:1051F0008303303901EB4301B5F5807F8BB2CAD10F
:105200009CE7013502EB8202ADB2303800EB420080
:10521000B5F5807F82B2CDD190E72B440135ADB298
:10522000092D83F856217FF677AFA368002283F813
:10523000562183E793AE0300A8AE0300F04A0300B3
:10524000FCAE0300F44A0300C2AE030008B50448F4
:1052500023F05CFCBDE80840024823F057BC00BFC7
:10526000C4B30300F9B30300014822F04DBB00BFF3
:10527000DC56030038B5044618B90F4B0F485B687D
:1052800098476168B1F5683F10D0B1F5680F0DD04F
:105290000B4DA9420AD011F46861206807D001467D
:1052A00008482EF08EFC00232360656038BD142270
:1052B0002EF0F6FFF9E700BF5006002027B40300E8
:1052C0002C5F5CA99C5A002008B520B34368B3F555
:1052D000683F10D101220368BFF35B8F53E8001FC2
:1052E000002903D143E800200028F7D1BFF35B8FEA
:1052F0000DD1002008BD094A93420AD000684FF042
:10530000FF324FF0FF3321F097F80028F1D0044826
:10531000F0E70448EEE76FF4E040EBE72C5F5CA9B0
:10532000E98FFFFFEA8FFFFF08B5D8B14368B3F5F7
:10533000683F10D100220368BFF35B8F53E8001F62
:10534000012903D143E800200028F7D1BFF35B8F88
:105350000BD1002008BD074A934208D0006821F015
:10536000E3F8F6E76FF4E040F4E70348F2E70348B8
:10537000F0E700BF2C5F5CA9E98FFFFFEA8FFFFF1A
:1053800010B5044618B91D4B1D485B689847636803
:10539000B3F5683F2FD0B3F5680F2CD0194A93426C
:1053A00019D1236803BB18484FF0FF324FF0FF3389
:1053B000214620F053FF08B923681BB90F4B13484F
:1053C0005B6898472068142200212EF069FF4FF493
:1053D0006863636008E0B3F5683F0DD83A2B03D0EB
:1053E00040F6BA629342DED120682EF042FC636838
:1053F00043F03A03636010BD054AF3E7500600200E
:1054000027B403002C5F5CA99C5A00204DB4030014
:105410003A00003A08B506490648402314222EF007
:10542000C2FBBDE808400449044822F0DFBA00BFCF
:105430009C5500209C5A0020E4560300F8560300B7
:10544000F0B5074687B00D46002945D02F4E33688A
:105450005A0741D08B6805934B6804930B680393FC
:1054600000242B4B0293CDE9004423460122314610
:10547000204624F055F833685B072DD06B690593FF
:105480002B690493EB680393224B0094CDE901430D
:10549000204623460122314624F042F8336858075B
:1054A0001AD0EB6903931C4B0094CDE901433146BC
:1054B00023460122204624F033F8336859070BD0E5
:1054C000AB690393154B0094CDE9014301222346B8
:1054D0003146204624F024F8012F10D1EFF3058344
:1054E0000A490A6852070AD0103B03930C4B0293F7
:1054F0000023CDE900333A46184624F011F8294636
:10550000384607B0BDE8F04020F0ACBC44070020AE
:105510007AB40300A9B40300D8B40300E7B40300CD
:1055200015B5030030BFFFF7FDBF00BF2DE9F04107
:105530000B4EDFF8308006EB0807CC1B05463246E1
:10554000094920462EF084FEA01942460021083C5D
:105550002EF0A6FEC5F8A84007F10800BDE8F081CE
:105560000000000008000000704A0300074A93682A
:1055700093F90E10002907DB526993421FBF044ABA
:10558000536843F080535360704700BFA4E5002088
:1055900000ED00E07FB5504C2368064658070D46E5
:1055A00009D04E4B02930023CDE90033012221465E
:1055B000184623F0D0FF4A4B9B6AD90478D523685C
:1055C0005A0709D0474B02930023CDE900334249E3
:1055D0000122184623F0BFFF1720414B9B6A1B0591
:1055E0000DD52368590709D03F4B02930023CDE91D
:1055F000003339490122184623F0ADFF1820384BFB
:105600009B6A9A0526D523685B0709D0374B02931E
:105610000023CDE9003330490122184623F09BFFD7
:105620002F4B9A6B9B6A180413D5236859070AD02D
:105630002F4B029300230392CDE900332649012228
:10564000184623F088FF26B1254A936A23F40043C5
:1056500093621920224B9B6A5B050DD523685E0778
:1056600009D0244B02930023CDE900331A490122CB
:10567000184623F070FF1A20194A936A13F48073B6
:1056800018D02368580709D01B4B02930023CDE99B
:10569000003311490122184623F05DFF1B20104AF8
:1056A000936A43F47F43936200232B7004B070BD70
:1056B000162092E7926A9104F1D52268520708D029
:1056C0000E4A05490093CDE901321846012223F024
:1056D00042FF1C20E3E700BF4407002028B5030079
:1056E00000ED00E03EB503004FB5030062B50300D6
:1056F0007BB5030090B50300ABB50300C3B5030051
:105700001FB5424C23685A0709D0414B029300232E
:10571000CDE9003301222146184623F01CFF3D4B02
:105720009B6A9B0170D52368580709D03A4B0293B6
:105730000023CDE9003335490122184623F00BFF41
:105740001E20344B9B6AD9010DD523685A0709D016
:10575000324B02930023CDE900332C490122184635
:1057600023F0F9FE1F202B4B9B6A1B030DD52368EA
:10577000580709D02A4B02930023CDE9003323496F
:105780000122184623F0E7FE2120224B9B6A590391
:105790000DD523685A0709D0224B02930023CDE987
:1057A00000331A490122184623F0D5FE2220194B56
:1057B0009B6A9B030DD52368590709D01A4B0293A6
:1057C0000023CDE9003311490122184623F0C3FE1E
:1057D0002320104B9B6ADA030DD523685B0709D0A1
:1057E000124B02930023CDE90033084901221846E9
:1057F00023F0B1FE2420074A936A6FEA03436FEA5D
:105800001343936204B010BD1D209AE744070020A3
:10581000F2B5030000ED00E00AB603001DB6030078
:1058200037B6030055B603007AB6030094B60300FA
:105830002DE9F043594D2B688946590785B08046BC
:10584000174609D0564B02930023CDE900330122BD
:105850002946184623F07FFE524B9B6ADA064DD547
:105860002B685B0709D0504B02930023CDE900332E
:105870004A490122184623F06EFE1124494B9B6AC7
:105880001E070DD52B68580709D0484B02930023FB
:10589000CDE9003341490122184623F05CFE122471
:1058A000404B9B6A99072BD52B685A0709D0404B70
:1058B00002930023CDE9003338490122184623F032
:1058C0004AFE384B5E6B9B6A1B0663D52B685C07F0
:1058D0000AD0384B02930023CDE900332F490396B9
:1058E0000122184623F037FEB9F1000F04D02D4AEB
:1058F000936A23F080039362132403E01024BDE72E
:105900006FF01506274B9B6AD8070DD52B685907F2
:1059100009D0294B02930023CDE900331F4901220E
:10592000184623F018FE14241E4B9B6A9A060DD5C8
:105930002B685B0709D0214B02930023CDE900338C
:1059400016490122184623F006FE1524154B9A6AC3
:10595000D50602D49A6A90070AD55B68190507D55F
:105960004146304600F0BCFA10B180F309880224A9
:105970000C4B9A6A920642BF5A6A22F400525A624B
:105980009A6A42F0FF029A62204600233B7005B0FB
:10599000BDE8F0836FF01506AEE700BF44070020B6
:1059A000BFB6030000ED00E0D5B603004FB503001D
:1059B00008B7030020B7030036B70300C3B50300E0
:1059C000F0B5874B5F6891B00446C7F30806002323
:1059D00083F31188BFF36F8F02F07F40B0F17F4FE8
:1059E0000FD102F00C00082820D17E490A68500728
:1059F00007D07D4A0093CDE901321846012223F0F9
:105A0000AAFD00252C4600238DF81F30F31E092B1C
:105A100000F2C980DFE813F01000B300B700AF0058
:105A2000C700C700C700C700C700BB00120746BFBA
:105A30000C461D460125E6E76A4E33685F0709D02C
:105A40006A4B02930023CDE9003301223146184608
:105A500023F081FD624800218DF81F10C36A13F006
:105A600002030ED03368580709D0614B0091CDE98D
:105A700001130B465B490122184623F06CFD0022FE
:105A80004CE0C26A002A07DA32685207F7D0594A56
:105A90000093CDE90132EDE7C26A5700EFD53268D5
:105AA000500708D0544A4F490093CDE901321846B7
:105AB000012223F050FD4A4BA1695A6942F48072D9
:105AC0005A61BFF34F8FBFF36F8F5A6931F8021CD1
:105AD00022F480725A61BFF34F8FBFF36F8F4DF680
