:020000040000FA
:1000000080C4002041340000C12501002D340000CF
:100010002D3400002D3400002D34000000000000BD
:10002000000000000000000000000000BD350000DE
:100030002D34000000000000593500002D34000070
:100040006D3700006D3700006D3700006D37000020
:100050006D3700006D3700006D3700006D37000010
:100060006D3700006D3700006D3700006D37000000
:100070006D3700006D3700006D3700006D370000F0
:100080006D3700006D3700006D3700006D370000E0
:100090006D3700006D3700006D3700006D370000D0
:1000A0006D3700006D3700006D3700006D370000C0
:1000B0006D3700006D3700006D3700006D370000B0
:1000C0006D3700006D3700006D3700006D370000A0
:1000D0006D3700006D3700006D3700006D37000090
:1000E0006D3700006D3700006D3700006D37000080
:1000F0006D3700006D3700006D3700006D37000070
:1001000080F0004002E000BF81F0004142001FBFCC
:100110005FEA410392EA030F7FEA226C7FEA236CD5
:100120006AD04FEA1262D2EB1363C1BFD2184140CA
:1001300048404140B8BF5B42192B88BF704710F060
:10014000004F40F4000020F07F4018BF404211F003
:10015000004F41F4000121F07F4118BF494292EA6B
:10016000030F3FD0A2F1010241FA03FC10EB0C0097
:10017000C3F1200301FA03F100F0004302D5494224
:1001800060EB4000B0F5000F13D3B0F1807F06D3D1
:1001900040084FEA310102F10102FE2A51D2B1F1C9
:1001A000004F40EBC25008BF20F0010040EA0300BE
:1001B0007047490040EB0000013A28BFB0F5000F3E
:1001C000EDD2B0FA80FCACF1080CB2EB0C0200FAF4
:1001D0000CF0AABF00EBC25052421843BCBFD04043
:1001E0001843704792F0000F81F4000106BF80F4BD
:1001F00000000132013BB5E74FEA41037FEA226C80
:1002000018BF7FEA236C21D092EA030F04D092F04A
:10021000000F08BF0846704790EA010F1CBF00207E
:10022000704712F07F4F04D1400028BF40F00040DB
:10023000704712F100723CBF00F50000704700F0FB
:10024000004343F0FE4040F4000070477FEA226222
:1002500016BF08467FEA23630146420206BF5FEAF3
:10026000412390EA010F40F4800070474FF00003F3
:1002700004E000BF10F0004348BF40425FEA000CBA
:1002800008BF704743F0964301464FF000001CE062
:1002900050EA010208BF70474FF000030AE000BFB8
:1002A00050EA010208BF704711F0004302D54042F6
:1002B00061EB41015FEA010C02BF84460146002068
:1002C00043F0B64308BFA3F18053A3F50003BCFA83
:1002D0008CF2083AA3EBC25310DB01FA02FC634430
:1002E00000FA02FCC2F12002BCF1004F20FA02F237
:1002F00043EB020008BF20F00100704702F120022A
:1003000001FA02FCC2F1200250EA4C0021FA02F28A
:1003100043EB020008BF20EADC7070474FEA40025E
:10032000B2F1FE4F0FD34FF09E03B3EB12620DD923
:100330004FEA002343F0004310F0004F23FA02F08D
:1003400018BF404270474FF00000704712F1610F34
:1003500001D1420205D110F0004008BF6FF000400B
:1003600070474FF0000070477BB972B90029BEBFDB
:1003700000204FF0004106E008BF00281CBF6FF0CE
:1003800000414FF0FF3000F057B8ADF1080C6DE9B7
:1003900004CE002909DB002B1ADB00F057F8DDF84A
:1003A00004E0DDE9022304B07047404261EB410103
:1003B000002B1BDB00F04AF8DDF804E0DDE9022346
:1003C00004B0404261EB4101524263EB430370478A
:1003D000524263EB430300F039F8DDF804E0DDE955
:1003E000022304B0404261EB41017047524263EB8B
:1003F000430300F02BF8DDF804E0DDE9022304B04C
:10040000524263EB4303704753B94AB9002908BF0E
:1004100000281CBF4FF0FF314FF0FF3000F00CB848
:10042000ADF1080C6DE904CE00F010F8DDF804E041
:10043000DDE9022304B07047704700BF034613F89C
:10044000012B002AFBD1181A013870472DE9F0471B
:1004500086468C460846089E154674461946002B6B
:1004600040F0C2808542B2FA82F245D94AB1C2F167
:10047000200300FA02FC2EFA03F3954043EA0C0C29
:1004800094404FEA154EA8B2BCFBFEF8230C0EFBBD
:1004900018CC08FB00F943EA0C43994528D9EB181E
:1004A00008F1FF3704D2994502D9A8F102072B447D
:1004B000A3EB0903A4B2B3FBFEFC0EFB1C330CFB45
:1004C00000F044EA0344A04214D92C190CF1FF3384
:1004D00004D2A04202D9ACF102032C44241A43EA0C
:1004E00007401EB1D440002334607360BDE8F0873C
:1004F0004746DDE76346F1E792BB431B01214FEA24
:10050000154EAFB2B3FBFEFC200C0EFB1C330CFBF4
:1005100007F840EA0343984562D9EB180CF1FF3025
:1005200004D2984502D9ACF102002B44A3EB080396
:10053000A4B2B3FBFEFC0EFB1C330CFB07F744EA32
:100540000344A7424ED92C190CF1FF3304D2A74221
:1005500002D9ACF102032C44E41B43EA0040C0E79B
:10056000C2F1200320FA03F1954090402EFA03F3E4
:1005700003434FEA154EAFB2B1FBFEFC0EFB1C105D
:10058000190C0CFB07F841EA0041884504FA02F413
:1005900022D969180CF1FF3004D2884502D9ACF198
:1005A00002002944A1EB08019BB2B1FBFEFC0EFB4B
:1005B0001C110CFB07F743EA01439F420ED9EB18CD
:1005C0000CF1FF3104D29F4202D9ACF102012B445D
:1005D000DB1B41EA004192E76046E3E76146F7E74B
:1005E0006046A3E76346B7E7834206D916B9002100
:1005F00008467BE7C6E900E0F9E7B3FA83F78FB96D
:10060000834201D3724508D8BEEB020460EB0303BA
:1006100001209C461EB9002168E73846FAE7C6E982
:10062000004CF8E7C7F1200CBB4022FA0CF41C4345
:100630002EFA0CF120FA0CF3B84001434FEA1449AA
:100640000EFA07F5B3FBF9F81FFA84FE09FB183020
:100650000B0C08FB0EFA43EA00439A4502FA07F234
:1006600040D9E31808F1FF3004D29A4502D9A8F125
:1006700002002344A3EB0A0389B2B3FBF9F809FB98
:10068000183308FB0EFE41EA03418E452CD9611850
:1006900008F1FF3304D28E4502D9A8F102032144A8
:1006A00043EA0040A0FB0298A1EB0E014145CE4673
:1006B000434602D306D14D4504D2B9EB020E68EB96
:1006C00004030138002EA6D0B5EB0E0261EB030146
:1006D00001FA0CFC22FA07F34CEA0303F940C6E9DD
:1006E000003198E74046C5E74346D9E72DE9F04396
:1006F000434B444F444E95B01B6813934FF0000397
:100700000025002331461846CDE901570095032204
:1007100011F0CDFA4FF0FF324FF0FF330AA800F08E
:10072000CFF89DF82920394B39499DF828000095CC
:10073000002A08BF1946DDE90C23CDE90623354B15
:10074000CDE901530023CDE90301032218462E49C8
:1007500011F0ADFA9DF828308DF824309DF829303D
:10076000003B18BF01238DF82530002209A9002382
:1007700029480FF02BFC294A9DF828301068516851
:100780008DF83F3010AB03C312891A804FF0010877
:1007900040F60133ADF83C308DF83E80DFF88090B4
:1007A000002200230FA948460FF010FC0446D8B9D8
:1007B0009DF83D3003931B4B0090CDE901030322CC
:1007C0000346314611F073FA0A230493D9F8203016
:1007D0000393154B0094CDE9014303222346314690
:1007E000204611F064FA8CE7104B0390CDE90153D9
:1007F0000023009542463146184611F058FA80E72A
:10080000540601206F5B0100EC5201005E5B0100A9
:10081000665B0100925B010078080020A75B010085
:10082000A8080020B25B0100CE5B0100E35B010081
:100830002DE9F04F904685B014F035F94FF47A73F6
:10084000A0FB030503FB0155C40B1B4FDFF86C90A5
:1008500044EA45440026ED0B97F804A028FA0AF371
:10086000DB0721D53868D0F810B0836869465B682B
:10087000984750B9009BDBF800205A40012303FA47
:100880000AF31A4214BF01200020B0FA80F0400998
:10089000CDE902458DF800608DF8010000220023AB
:1008A000694648460FF092FB0136072E07F108070C
:1008B000D2D105B0BDE8F08F58540100480800209F
:1008C00008B5014603480FF0DBFBB0FA80F04009A1
:1008D00008BD00BF480800202DE9F04F3F4C404FB5
:1008E000DFF800A187B00026A346206813F0A2FE1F
:1008F000034690B95BF836203B4912680090CDE979
:1009000003623A4ACDE90102012211F0DFF96FF0EA
:100910001205284607B0BDE8F08FE38820682179EA
:1009200043EA0A020569D0F808C013F0010F4FF03E
:10093000010E2B680EFA01FE14BF4EEA030323EAF0
:100940000E032B60DCF800309847054658B1284B61
:10095000039602930023CDE9003323490122184670
:1009600011F0B4F9D5E72068217983689D694DB10C
:100970004FF000734FF0A072A847054628B11D4BF9
:100980000396E6E76FF05705F9E794F804901A4BE1
:100990007B60012202FA09F3D4F80080BB60D8F82A
:1009A0000830DB6913B1394640469847CDF81490BA
:1009B000D8F800300C49CDE90363104B02930023B3
:1009C000CDE9003303221846013611F07FF9072ED6
:1009D00004F1080407F10C0787D19AE75854010085
:1009E000D00D002010000100F4520100235C010032
:1009F000415C01005F5C010031080000855C010082
:100A000001480FF0F7BD00BF240E002010B51B4BAE
:100A10001B4A8AB01B6809934FF000034CF6BB4396
:100A2000CDE9052300240023002205A80794ADF892
:100A3000204000F097F9034698B99DF815200392DD
:100A4000104A11490090CDE90102032211F04DF93D
:100A50000A4B1A68099B5A404FF000030BD013F061
:100A6000DCFF0A4B0390CDE901430749009423467C
:100A700001222046EAE70AB010BD00BF540601205B
:100A80000A0300AAB05C010024530100CB5C010002
:100A900013B50A4C0A490B4813F0B4FE0A49002268
:100AA000204614F002F84FF4F0120023CDE90023A1
:100AB000204610F099FB02B010BD00BFB80900201D
:100AC0000D0A0000240E0020010A00002DE9F04F5D
:100AD000304CDFF8C480314F87B000254FF001095A
:100AE0002668304613F0A6FD034670B92C4A2B4900
:100AF0000395CDE901020090012211F005F96FF094
:100B0000120A504607B0BDE8F08F20682179E388CB
:100B1000D0F810C0D0F808E0DCF800A0DA0754BF25
:100B200043F4B01383F4D01323F4801209FA01FBC9
:100B3000DB074CBF4BEA0A032AEA0B03CCF8003070
:100B4000DEF800309847B0F1000A0BDA154B02933B
:100B50000023CDE90033114903950122184611F015
:100B6000D3F8CEE7237905933368CDF808800026C3
:100B7000CDE90353CDE900663346032239463046BA
:100B8000013511F0C1F8072D04F10804A8D1B246CF
:100B9000B7E700BF905401002C5D01003453010001
:100BA000F55C01000D5D0100062803460A4615D8D4
:100BB0000C4951F8300001EBC3010123097903FA14
:100BC00001F103691B68194218BF82F0010212B1DA
:100BD0008368DB68184783681B69FBE76FF01500C3
:100BE000704700BF9054010008B5014603480FF05C
:100BF00047FAB0FA80F0400908BD00BF780800202D
:100C0000F0B5184F184D194E89B000242346032221
:100C10002046CDE900440297294611F084F84FF0B0
:100C2000FF324FF0FF3307A8FFF7DEFF0028ECD0BC
:100C30009DF81D3004939DF81C302946CDE90263D0
:100C40002046CDE900442346032211F06CF89DF8BC
:100C50001D109DF81C00B1FA81F14909FFF7A4FFAE
:100C6000D3E700BF515D01002C530100735D01000B
:100C700010B588B004460DF11F010DF11E0011F0F2
:100C80001BFD9DF81F300749CDE90343064B029336
:100C90000023CDE900330322184611F054F808B0C0
:100CA00010BD00BF54530100A75D010070B588B0AE
:100CB000C1F34004CDE9063401F001010024104BDA
:100CC0000D9D0592CDE903010293CDE900440D4944
:100CD0009DF8306023460322204611F034F865B1B8
:100CE0005EB1094B0393094B06490096CDE90143D8
:100CF00003222B46204611F026F808B070BD00BF35
:100D0000CB5D010054530100FE5D0100E669010066
:100D10001FB5014660B90F4B0F490090CDE90103A3
:100D20000122034611F00FF8002005B05DF804FB26
:100D30000A480FF0A5F958B1094B0293002303901C
:100D4000CDE9003304490122184610F0FCFFEBE71F
:100D50000120EAE7085E010054530100A8080020C2
:100D60002D5E010010B5014686B068B9184B1949CF
:100D70000090CDE901030122034610F0E4FF6FF07B
:100D80001504204606B010BD40780B280DD90B2362
:100D9000CDE90303104B02930023CDE900330D4945
:100DA0000122184610F0CFFFE9E70C480FF00EF9CA
:100DB00004460028E5D00A4B029300230390CDE9B6
:100DC000003304490122184610F0BDFFD9E700BFE7
:100DD000475E0100545301006C5E0100A80800202A
:100DE000975E010030B585B0284C204613F022FCF8
:100DF000034670B922680392254A26490090CDE93E
:100E00000102012210F09FFF6FF01205284605B085
:100E100030BD2368039300241F4B1E490293032215
:100E200023462046CDE9004410F08DFF03F094F9ED
:100E3000051E0BDA194B17490395CDE901430094C0
:100E400023460122204610F07EFFDFE7144803F01E
:100E50006DF9144803F07AF9012003F0BBF8124B46
:100E60000C490094CDE9014303222346204610F0AB
:100E70006AFF0E4B07490094CDE901430322234644
:100E8000204610F060FF2546C0E700BFEC4F010090
:100E9000C05E010054530100D65E0100E85E01000F
:100EA000D0040020710C0000015F0100225F0100EE
:100EB0002DE9F0477C4B7D4992B01B6811934FF0B0
:100EC000000300247A4B0293CDE900442346032219
:100ED000204610F047FF0794042107A80AF0EEFA15
:100EE00013F0E1FD079EDFF8CC81DFF8CC91DFF84D
:100EF000CCA10F46054613F00DFA4FF47A71A5FB0D
:100F0000013201FB0721DB0B43EA414370405840AB
:100F10006B4BA8F8000080B2CDE901430390234653
:100F2000624900940322204610F01CFF654B079392
:100F3000654B5E4F8DF83040CDE90833B8F800308E
:100F4000ADF82830614B0B930494B8F800300025BD
:100F5000CDE9029303222B4639462846CDE90055B8
:100F600010F000FF07A802F04DFF10F1740F0646C5
:100F700010D1574B0095CDE9015302222B4639463B
:100F8000284610F0EFFE4FF42030002113F00AFD48
:100F90000134D9E700280BDA4E4B0390CDE9015319
:100FA00000952B4601223946284610F0DBFEEAE781
:100FB000CDE9015A00952B4603223946284610F008
:100FC000D1FE002EDFD1444F384DDFF810810E22C4
:100FD00000210DA813F0E0FE4FF0FF324FF0FF3379
:100FE0000DA8FFF795FE0028F1D09DF83560731E1F
:100FF0000A2B55D89DF83490CDF808800024CDE90F
:1010000003962346032229462046CDE900449DF855
:1010100036A010F0A7FE324B0393324B0096CDE979
:10102000014303220DF137032946204610F09AFEB2
:10103000324653460DF13701484602F0FDFF10F1EC
:101040000B0F064611D1284B0094CDE90143022233
:1010500023462946204610F085FE244B0396029332
:101060000023CDE90033012215E000280BDA204BE4
:101070000390CDE9014300942346012229462046EE
:1010800010F070FEE9E71B4BCDF80C90CDE9014361
:101090000094234603222946184610F063FE96E783
:1010A000CDE90276DCE700BF540601205C53010065
:1010B000535F010074280020895F0100DF5F010099
:1010C000675F0100580700204807002060070020E4
:1010D000BF5F0100CE5F01007D600100EF5F010096
:1010E00078720100E6690100126001005D60010094
:1010F000306001004860010030B504461B48A06222
:1011000089B013F097FAA56A034658B92A68039282
:10111000174A18490090CDE90102012210F03CFE67
:1011200009B030BD4FF47A212160284605AA12F09B
:101130005EFE054648B1104B02930023CDE9003313
:1011400003900C4901221846E8E7069BA38103237C
:10115000E381204600F01EFE0028E1D0074B0390FB
:10116000CDE9015300952B46EBE700BFB04F0100DE
:10117000B360010074530100D1600100F16001000F
:1011800030B51848184D174C87B0FFF7B5FF4FF032
:10119000FF324FF0FF3301A928460EF071FF0028FF
:1011A000F5D19DF804303BB1012B13D0049B6BB1FA
:1011B0006FF015021A6009E0DDE90223BDF80610A0
:1011C000204611F0E5F8049B03B1186005980FF074
:1011D00081F8DCE7DDE90223BDF80610204600F0C7
:1011E000ABFFF0E7340E0020D808002030B585B002
:1011F00000251A4B1A49029303222B462846CDE9B3
:10120000005510F0D9FDFFF767FB044668B1154B98
:101210000390CDE90153124900952B46012228463F
:1012200010F0CAFD204605B030BDFFF74FFC044664
:1012300010B10D4B0390ECE7FFF7D4FD044610B15D
:101240000A4B0390E5E70A4B05490090CDE90103FD
:101250000322034610F0B0FDE4E700BF4361010044
:10126000E4520100566101006E61010083610100DA
:101270009B61010010B5094C0A44914200D110BD98
:1012800011F8013B584003090001E35CC0B2434040
:1012900018091B01205CDBB25840EEE7BA6101007F
:1012A0002DE9F04F93B084070093944B03921B6891
:1012B00011934FF00003039BDDF8708003F00403EB
:1012C0000293039BC3F3C20303F1010305460E46D9
:1012D000059340F0C481041D68B1072910D86FF050
:1012E0001B00864B1A68119B5A404FF0000300F018
:1012F000B98113F092FB01F007063444C6F10806E9
:10130000009B4FF00009591E4FF0040A4FF0FF33C5
:101310000193CDF810904F46CB4653460DB1009A3D
:1013200022600598002800F3EF807548009A8242F9
:1013300003D374488242C0F0E780039AA4EB050E01
:1013400092074FEA9E0000F10A810F2F00F2B18050
:10135000002D00F00C8107F148020DEB020C019A00
:101360000CF8240C0CF8142C049801300490EEE0D6
:101370007A285DD84B280ED8472859D829282DD847
:10138000252852D054D820287AD02338D0F1000B09
:101390004BEB000B74E04C382E2849D8DFE800F006
:1013A0007048484848484848484848484B48484892
:1013B000484848484859484B4B595959704B6D4813
:1013C0007048184B184848827F4B48484B487F006C
:1013D00000204FF0000B4FF0040A38E02A38C0B26A
:1013E000012202FA00F010EA0E0F49D110F0625CFF
:1013F0002FD110EA020B43D06046013C5444B4FBA9
:10140000FAF40AFB04F4002D61D0A3EB050CA4440C
:10141000B4453FF664AF002868D1042B47D158F893
:10142000043B2360043404232AE0019A013A019228
:101430004FF0000B24E011F8010C6C2834D111F8A6
:10144000023C00206C2B8346C5D14FF0080A53465E
:10145000D3E708F1070828F007080734F8E802ABDB
:1014600024F0070435B106982044B0423FF637AF68
:10147000C4E900AB08344FF0000B4FF0080A5346A4
:1014800011F8010F00287FD0BBF1000F7FF470AF7F
:101490002528F5D1019B013301934FF0010B4FF04B
:1014A000040AECE7584694E700208346A5E7082B9A
:1014B00002D06FF0150014E708F1070828F00708BC
:1014C000F8E80223C4E9002308340823D8E768B900
:1014D000042B02D108F10408A4E7082BE9D108F194
:1014E000070828F0070808F10808EDE7059A013A0F
:1014F000059258F8042B009210E700BF5406012013
:10150000A44E010000790100039A900720D5A4EBB6
:10151000050E4FEA9E004FF0010CBEF5007FC8D2C9
:101520000F2FC6D8F5B107F148020DEB020EC0B27D
:10153000019A0EF8240C0EF8142CBCF1000F3FF4A5
:1015400013AF60F07F000EF8240C09F10109013798
:10155000C5F10802043406924FF6DA7E90E74FF0A8
:10156000000CDAE7BCF1000F01D00136EFE702987A
:1015700002360028EBD10098CDE90631FEF75EFF78
:10158000DDE906310644E2E7631BB3F5806F90D2D4
:101590001DB9A6F10804E018A3E6029A28609B088A
:1015A0002B709DF81030C2B1EB7085F80290B9F144
:1015B000000F05D009A80022C5F1010C97420ED1F9
:1015C000C5F101030DF124084FF0000A01930DF15C
:1015D000340B574512D1601B83E66B70E5E710F8BA
:1015E000013B190608D50CEB040EB64503F07F034A
:1015F0003FF675AE04F8013B0132DFE7B9F1000FA9
:1016000003D098F90020002A17DB029BD3B11AF807
:101610000B2004F8012B0022019B18191044B04242
:101620003FF65DAE98F8000004F8010B00990392B4
:10163000204613F089FB039A14440AF1010A08F1C9
:101640000108C6E798F8002055F822300093029B65
:1016500045F822300098FEF7F1FE421CDCE76FF0FF
:101660000D003EE613B0BDE8F08F00BF014B1860DF
:10167000704700BFDC04002080B505460E461746C3
:1016800098460FF0E5FA034613F002FCDFF81890D5
:10169000044649F80030424630463946A84754F8D7
:1016A000090001F043FF00BF0800000008B5044630
:1016B000EFF31183202383F31288BFF36F8F0CF0B5
:1016C00073FA204602F052FA024810F097FC10F02C
:1016D00099FFFCE7DB6101002DE9F047058B04462B
:1016E0002807904611D4022905F0070540F0CC8068
:1016F000204610F090FC78B10138218B042811D8D5
:10170000DFE800F0C2106D85950001290CBF45F09F
:10171000100545F02005258388F31188BFF36F8FEE
:10172000BDE8F08701F0070AAA4500F0A580002770
:10173000B9463E46A368002B00F0BC8041F008018A
:10174000218388F31188BFF36F8FA168002900F00F
:10175000BA800D68002900F0B680D1F804803346C5
:1017600052462046C047002D76D02B6829461D469C
:10177000F0E701F007035A1F012A1BD8002221F0CD
:101780000701062B276889B2C4E9002209D13B462C
:1017900003E0628B013262831B68002BF9D141F0B8
:1017A00002012183204610F036FC00287AD041F057
:1017B000200176E0042B0AD121F0070189B22183B0
:1017C000204610F028FC10B141F020012183218B2C
:1017D00001F0070AAA454FD00027B946AAE72369B6
:1017E00021F0070141F00601062DD3F80090218376
:1017F0002DD1B9F1000F3FD041F00801218388F3CA
:101800001188BFF36F8F3A492046C84729E021F07D
:101810000701236941F0040189B2042DD3F8049033
:101820002183E6D000273E464FF0040A82E721F0EC
:101830000701236941F0050189B2052DD3F808900D
:101840002183D6D000273E464FF0050A72E70027D5
:101850003E464FF0060A6DE72B4687E7B9F1000FC9
:10186000D1D1EFF31188202383F31288BFF36F8F58
:10187000238B23F008032383258BEA062ED525F03E
:101880001003238305F007056669218B002EBFF640
:1018900070AF00232768C4E9003321F0070141F04D
:1018A00001012183218B01F0070AAA454FF00009AD
:1018B0007FF440AF002F9CD041F00801218388F3D2
:1018C0001188BFF36F8F002FC8D03D68394633466B
:1018D0005246204610F0CBFB2F46F4E7AB067FF5CF
:1018E0001BAF25F02003238305F0070500E700BFA9
:1018F0009B2001002DE9F0431C461B4B8BB01B685D
:1019000009934FF00003C36A1D686D42064688467E
:10191000174605F020054CB92046134B1A68099B61
:101920005A404FF000031BD013F077F8AC42A146A9
:1019300028BFA9464B4601AA4146304610F052FC4A
:101940000028EAD101AB484502D1241A8044E2E7DD
:1019500013F8012BBA4201D10130F4E70120DCE792
:101960000BB0BDE8F08300BF5406012070B5838939
:1019700005680E0C090C86B003FB0155CDE9045334
:10198000104B0393104B0293044600230822CDE929
:10199000003218460D49042210F048FC3604A06AB3
:1019A000A289294610F0E0FD50B9E26AA389527974
:1019B00031462046FFF79EFF002818BF6FF0050054
:1019C00006B070BDC7630100046201001C53010032
:1019D0002DE9F04389B04B8804931D4B03931D4BB5
:1019E0000293082400230746CDE900340D4618462B
:1019F0001949DFF86890042210F018FCF86A2146B3
:101A000010F024FC2C68241A80462C6004EA090695
:101A1000B44203D8002009B0BDE8F083082306AA29
:101A20002146384610F0DEFB0028F4D106A93846DE
:101A300010F016FC40B1BDF81A30BDF81C202C6027
:101A400006EA090613441E44A4EB0804E0E700BFBD
:101A5000B2630100256201001C5301000000FFFF7A
:101A60002DE9F043074622488BB090460068099064
:101A70004FF000001E464BB900201D4B1A68099B11
:101A80005A404FF000032FD012F0C7FF3C68BB89CB
:101A9000080C14FA81F100FB0314FB6A1D686D4207
:101AA00035400CD0B86A83682146D3F804902B46A1
:101AB000C8470028E1D1761BDED02C44A84432462A
:101AC000414601A813F040F9FD6A2A68697901AB23
:101AD0009819921B13F060F9B86A2B688268214646
:101AE000556801AAA847C8E70BB0BDE8F08300BF5E
:101AF0005406012070B588B083880493114B03937A
:101B0000114B02930025044608230422CDE900531B
:101B10000E492B46284610F089FB4FF6FF76A36846
:101B2000ADF81A3006A8ADF81860ADF81C508DF865
:101B30001E6010F072FB06A9204610F018FC08B0D9
:101B400070BD00BF976301004C6201001C5301008F
:101B500073B504460821C06A124E10F077FB4FF6A9
:101B6000FF726368ADF800208DF80620A28919186D
:101B700033401344181A002560606846ADF802101F
:101B8000ADF8045010F049FB6946204610F0EFFB19
:101B90002046211D10F034FB636828463340A360C3
:101BA00002B070BD0000FFFF2DE9F04F754B0446F9
:101BB0009BB0C06A08211B6819934FF0000310F016
:101BC00045FB63681B0C1B04054608A920460893C7
:101BD00010F016FBDDF820B0A6895E44761B0BAA38
:101BE000082331462046099610F0FCFA021EC0F286
:101BF000BB80E36A0BAA5979002312F8010B8142DA
:101C000040F0A1800133082BF7D1A36862682B4410
:101C10009A4280F0908059462046FFF7A7FE024680
:101C2000A2E0BDF82E30360C36041E4409960DAAEB
:101C300009A92046DDF824A010F04FFB0246002839
:101C400040F092800DA9204610F00AFB18B9079BBE
:101C50005345ECD1D9E763680A930FAA0AA9204635
:101C60000A9E10F03AFB024600287DD1BDF83C20C8
:101C7000BDF834309A4238D062680A9B9A42ECD15F
:101C8000B245E4D1BDF83830002BE0D00593BDF863
:101C9000343004933C4B03933C4B029308220023C3
:101CA000CDE9003218463A49042210F0BFFABDF8D7
:101CB00036704FEA1A431B041F440DA8A368ADF801
:101CC000363010F0AAFAE36ABDF838901E68764202
:101CD00006F02006B9F1000F0ED10DA9204610F034
:101CE00046FB02460028B2D03EE00FA9204610F085
:101CF000B7FA0028C0D0C3E74E45B04628BFC84653
:101D000011AA43463946204610F06CFA024658BBE9
:101D10004346A16811AA2046FFF7A2FE41460246AB
:101D2000E06A10F093FAA3680344A360E2B9A9EB58
:101D300008094744CEE72046FFF7DCFE02460028AC
:101D40003FF469AF10E0731B0BA92046079310F016
:101D5000A6FA00287FF465AF09A92046FFF738FEF0
:101D6000024600283FF463AF064B1968199B59409F
:101D70004FF0000301D012F050FE10461BB0BDE83A
:101D8000F08F00BF54060120AB63010069620100BF
:101D90001C5301002DE9F04704468EB000F11407F2
:101DA000384612F006FDA06A8368DB689847034650
:101DB000E06230B9904A0090CDE901028F490122DA
:101DC0000FE0A06A8368DB6898470368013B1F2B1C
:101DD0000FD98B4B02930023CDE9003387490122B1
:101DE000184610F023FA6FF0150528460EB0BDE82E
:101DF000F087A06A21680BAA11F0F9FF08B1814BA6
:101E0000E8E7A5892DB10C9BB5FBF3F203FB125556
:101E10000DB17D4BDEE7E389012B05D87B4B0095A7
:101E2000CDE901532B46C9E7E36A069593F805907F
:101E30004FF0FF334FF0FF3238460EF083F9E06A7F
:101E4000082110F003FAA8460646E3891FFA85FA2E
:101E5000534508D8E389434523D138460EF0EAF9C3
:101E60006FF02C05C1E7A1892B04891B13FA81F1BE
:101E70004A46082320460691FFF73CFD78B106A9A3
:101E8000204610F0BDF908F10108069908234A46DA
:101E900020461FFA88F8FFF72DFD0028DAD001351B
:101EA000D3E753450BD1069908234A46891B2046A0
:101EB000FFF720FD18B906A9204610F0A1F906A9E0
:101EC0002046FFF785FD054618B138460EF0B2F9F9
:101ED0008BE7069B63604FEA13484FEA0848C4F853
:101EE0000880D4E9011399420FD3082307AA20469A
:101EF00010F078F905460028E7D107AB13F8012B5D
:101F0000914543D10135082DF8D163681B0C1B04A2
:101F100006A92046069310F073F9A38906994A464C
:101F20002046FFF7E7FC051ECFDB636800F08280E8
:101F300006EB03084FF6FF79A389CDF818801FFA46
:101F400088F29B1B9A423DD3314B029300231846E3
:101F5000CDE900332949032210F068F96168204671
:101F6000FFF704FD05460028AFD16368294AA1891F
:101F700013400B44A3EB460363601340A360204669
:101F8000FFF712FE0546002D70D09EE707A92046F8
:101F900010F066F9626810B9921B6260A1E7BDF8A3
:101FA0002050BDF81E10E06AC4F80880294410F0E3
:101FB0004DF940449042A060EED1002DECD06FF07E
:101FC0001C0590E0082309AA4146204610F00AF9B2
:101FD000054600287FF479AF09A9204610F040F9A2
:101FE00038B1BDF824304B4503D1BDF82830002B63
:101FF0007FD0B044A0E700BF936201001C530100F2
:10200000B5620100D2620100EA620100FE620100D5
:102010005B6301000000FFFF5B1A4A462046FFF7A2
:1020200069FC051EFFF651AF08D0E26AA36812688A
:102030001344A360D4E901318B42EDD86168A389D0
:1020400001EB46029A429ED1DFF8D480A26801EAF1
:1020500008039A4297D02046FFF788FC05460028DF
:102060007FF433AF636803EA0803A360A389A288FF
:10207000A3EB46039A4232D038460EF0DBF8012338
:102080002374A3890493E38903930025254B0293CA
:1020900028462B46CDE900552349032210F0C6F807
:1020A0006368214900959AB21B0C03931F4B04925D
:1020B000CDE9015328462B46032210F0B7F8A36858
:1020C000194900959AB21B0C0393194B0492CDE960
:1020D000015303222B46284610F0A8F885E6204637
:1020E000FFF708FD054638460EF0A4F8002DC6D0CF
:1020F0007BE6104B0C490095CDE9015303222B469A
:10210000284610F093F863681B0C1B0406A92046B0
:10211000069310F075F806992046FFF727FC31E783
:102120000000FFFF216301001C5301003863010020
:102130004A630100826301002DE9F04F97B01D460C
:10214000704B069104921B6815934FF00003037CBB
:102150000446A3B96C4A6D490093CDE90132184693
:10216000012210F063F86FF00C06664B1A68159B9D
:102170005A404FF0000300F0C08012F04EFCC26ADB
:102180000821104610F062F829460590104610F01C
:102190005DF8A389059AA3EB8203AB420746C0F022
:1021A000A9801DB1049B002B00F0A48063680893F4
:1021B00009AA08A92046DDF820A010F08EF80646EE
:1021C0000028D2D1BDF82430069A934206D0626826
:1021D000089B9A42ECD1002D36D1C6E709A92046CA
:1021E00010F03EF80028F2D0BDF82680BDF8283067
:1021F00045B39D4228D1E36ADDF810B01B684FEA71
:102200001A4A5B424FEA0A4A03F02003D04407937C
:10221000AA46DDF81C90D14528BFD1464B460DAAF1
:10222000414620460FF0DEFF00284AD14A460DA95C
:10223000584612F0B9FD38B9BAEB090AC844CB4484
:10224000E7D192E7002B90D0002F3DD1B84604F1A2
:10225000140A4FF0FF324FF0FF3350460DF072FF7B
:10226000E3899E4243D0A168626808EB01039A4269
:102270002FD3069BADF82C30FF238DF83230049A13
:10228000ADF82E102B462046ADF83050FFF7E8FB96
:1022900029460746E06A0FF0D9FFA3680344A3600C
:1022A00057B90BA80FF0B9FF0BA9204610F05FF843
:1022B000002814BF07462F4650460DF0BBFF3E4690
:1022C00053E7C1DC064650E7059B1F441FFA87F819
:1022D000BDE72046FFF73CFC07460028ECD120462E
:1022E000FFF762FC07460028E6D10136B8E76FF039
:1022F0001B07E1E76FF0150637E7304617B0BDE87A
:10230000F08F00BF540601207F6201001C530100C2
:102310002DE9F0471E4688B0037CBDF84090044686
:102320000F4690466BB92F4A2F490093CDE90132F1
:10233000184601220FF07AFF6FF00C0008B0BDE8DC
:10234000F087C06A08210FF081FFA389A3EB400347
:10235000B34243D3D4F804A0CDF814A000254D45D2
:102360005146DDF814A009D9636853451ED1BDF864
:102370001830BB421AD06FF00100DFE706AA05A9AA
:1023800020460FF0AAFF0028D8D1BDF81830BB4274
:1023900006D106A920460FF063FF08B10135ADB2A2
:1023A0006268059B9A42DAD15146E0E7BDF81C30DD
:1023B000002BE0D0A945DED8BDF81A00090CB342C5
:1023C0004FEA014128BF33460144424620460FF000
:1023D00009FF0028B2D1BDF81C00AFE76FF015006F
:1023E000ACE700BF7F6201001C5301002DE9F84FEC
:1023F00081462F480F460FF0D6FF064670B92D4C88
:10240000DFF8B4A00546A0464FF0010B544507D3B2
:10241000B9F1000F02D04FF0010AE5B9BDE8F88F1D
:10242000237B6BB12368DB680BB120469847236898
:102430001B6943B9636804221968204600F0C8F894
:1024400001361034E2E7204698470028F2D00BFA14
:1024500006F31D43F4E7A94695FAA5F4B4FA84F40B
:102460000AFA04F3260108EB04146FEA030B25EAC9
:102470000305237B63B158F806301B6993B94644C2
:10248000042273682046196809EA0B0900F0A0F8D5
:10249000002DE1D127B14FF4A470002112F082FA8F
:1024A0004D46BAE7204698470028F1D1E7E700BF3C
:1024B0006C0E0020C4530100E4530100014B53F89B
:1024C00020007047C854010008B5034608462BB1E8
:1024D000044A136000F092FA002008BD6FF0150066
:1024E000FBE700BFE0040020054A06480023137004
:1024F000054A1360054A4FF400411360FFF7E4BF3B
:1025000078280020A3230100640E0020680E00201C
:1025100070B50B4D297841B90120FFF767FF094CD1
:10252000094EB44202D301232B7070BD63685B79FE
:102530001BB1236820469B6898471034F1E700BF21
:1025400078280020C4530100E453010010B504466C
:1025500008480FF028FF5CB1BFF35B8F064B53E8D0
:10256000001F013943E80012002AF8D1BFF35B8F46
:1025700010BD00BF640E0020680E002070B50A4B2D
:102580000A4C1B680A4E05469847A860B44200D31F
:1025900070BD63685B7923B1236829461B682046B8
:1025A00098471034F2E700BFE0040020C453010054
:1025B000E4530100044A054B9B1AB1EBD30F34BF1F
:1025C00052F8310000207047E4520100C45301006A
:1025D000084BC31A10B41B114468013323714368BC
:1025E0009A7143681960436801225A7110BC0FF058
:1025F000FCBE00BFC45301002DE9F04F87B004AF0B
:10260000D7E90EA993462C4A3D6B04460E469846E0
:1026100012687A604FF00002BAF1000F23D0C7F8B9
:102620000090CDF8009010217A6B53460020FEF701
:1026300037FEB0F5006F014616D340F2FF730393E7
:102640001E4B02930023CDE900331D490222184698
:102650000FF0E7FE184B1A687B685A404FF00003F2
:1026600026D012F0DAF9514604F007040BF0070BFC
:10267000E40044EA8B1444EA412444EA0554173543
:102680000D4425F00705ADEB050D04ADBAF1000FC3
:1026900007D0CDF800907A6B534605F11000FEF795
:1026A000FFFD43462246314628460FF0A1FED1E702
:1026B0000C37BD46BDE8F08F54060120F2630100DF
:1026C0003C530100406820B1034BC01A40F3CF00D7
:1026D00070474FF0FF307047E45201000EB403B56D
:1026E00003AB014653F8042B0448019301F0D0F9E1
:1026F00002B05DF804EB03B0704700BF5F24010037
:10270000CA0605D48B064CBF02490349FFF7E6BF52
:10271000704700BF2B6401002A6401002DE9F04FCF
:1027200087B004469DF844600D4690469946002EB9
:1027300000F0A280159B03F0020A03F0010304934A
:10274000159B03F0080B03F4807305930FF04EFE06
:10275000024600283DD095492046FFF7BFFF0746B7
:10276000BAF1000F09D0159B13F0440F33D19049F3
:102770002A462046FFF7B2FF0744049B53B18D4B16
:102780008D4953F826208D4B2046002A08BF1A4653
:10279000FFF7A4FF059B002B49D0BBF1000F64D1CC
:1027A000B8F1000F66D0864942462046FFF796FFF3
:1027B0000546129B3D44002B6DD1149B002B73D119
:1027C000159BDB0700F1EB8015992046FFF798FF7A
:1027D000D8E00746C4E77B4B18680028CCD07A4B7A
:1027E0004FF47A7A1B68B5FBF3F54FF46163B5FBE0
:1027F000F0F100FB11550AFB05F54FF03C0CB1FB65
:10280000F3F203FB1211B5FBF0FEB1FBFCF300FB8E
:102810001E550CFB13110AFB05F50091B5FBF0F5F5
:102820006A49CDE901E52046FFF758FFA4E7BBF16F
:10283000000F1DD0664B674953F826202046FFF74E
:102840004DFF0546B8F1000F05D05D4942462046D0
:10285000FFF744FF0544B9F1000FAAD05E494A468C
:102860002046FFF73BFF0544A3E74FF00009E1E7EF
:102870005D46E7E745469CE7B9F1010F129B06D19B
:10288000002B66D1149B002B7CD000250CE0002B84
:10289000F8D052485EE05248129B524922460FF04F
:1028A0007AFB149B002B6AD0DFF83C81DFF83C9167
:1028B000149F1599102F204628BF1027FFF720FFDF
:1028C0004FF0000B5D4547DC139B49461A782046C4
:1028D000FFF704FF4FF0010B1BF0070F03D1414638
:1028E0002046FFF7FBFE5F453DD9139B494613F891
:1028F0000B202046FFF7F2FE0BF1010BBBF1100F8E
:10290000EAD13B49DFF8ECB020464FF0000AFFF770
:10291000E5FE5246139B9A5CA2F120015F2928BF75
:102920002E2259462046FFF7D9FE0AF1010ABAF1D4
:10293000100F1DD01AF0070F03D141462046FFF7B4
:10294000CDFE57455246E5D841462046FFF7C6FE24
:10295000EBE7234835469FE741462046FFF7BEFE9A
:102960000BF1010BAEE724492046FFF7B7FEC3E7A2
:10297000139B3B441393149BDB1B149398D1002EA1
:102980007FF41EAF6268A1682068D2E900230FF0CF
:1029900058FD636800221A6007B0BDE8F08F074A4F
:1029A00005492046FFF79AFE0EE700BF326401009A
:1029B00036640100D8540100E66901002D6401006D
:1029C0005B640100740E0020700E00203F64010063
:1029D000EC5401005F640100656401007B24010088
:1029E0005F240100913A0000726401006A640100F2
:1029F000746401007664010070640100074A0021DC
:102A00000123904206D8064A01B901231360054B01
:102A10001860704740085B000121F2E740420F0058
:102A2000700E0020740E0020014B01221A707047B6
:102A300079280020014B0020196070478C0E00207F
:102A400010B5064B18680C46FFF738FD21460346C3
:102A5000BDE8104002480F22184700BF8C0E00202E
:102A60001C550100F8B5094D094B0A4ED5E9004740
:102A700001221A700CB92C60F8BD214630463A4646
:102A800000F00AF8241A0644F4E700BF800E002084
:102A90007A2800207B280020F8B5194D07460E46FD
:102AA00004243246394600200DF000F8C8B1012355
:102AB0002B70144B1B782BB93046F8BD5CB92C70C9
:102AC0004FF0FF3400200DF035F80028F4D02B78BB
:102AD000002BF3D1F0E7013C41F2883011F0A5FD65
:102AE000F0E72B7813B1013C04D12C702B78002B2C
:102AF000D7D1E1E741F2883011F097FDF6E700BF4A
:102B0000792800207A280020F8B5074F0D460446A2
:102B10004618B44201D12846F8BD14F8011BBB6821
:102B200001485B689847F4E7884F0100014B036058
:102B3000002070476055010008B504480FF05EFAA8
:102B4000BDE8084002480FF059BA00BFC96401004F
:102B5000FE64010001480EF075BC00BF6055010025
:102B600038B5044618B90F4B0F485B689847616841
:102B7000B1F5683F10D0B1F5680F0DD00B4DA942EB
:102B80000AD011F46861206807D00146084811F0A6
:102B9000B9FD00232360656038BD142212F0FCF8F3
:102BA000F9E700BFE80600202C6501002C5F5CA956
:102BB000BC13002008B520B34368B3F5683F10D1BB
:102BC00001220368BFF35B8F53E8001F002903D184
:102BD00043E800200028F7D1BFF35B8F0DD1002020
:102BE00008BD094A93420AD000684FF0FF324FF007
:102BF000FF330DF0A7FA0028F1D00448F0E70448AD
:102C0000EEE76FF4E040EBE72C5F5CA9E98FFFFF94
:102C1000EA8FFFFF08B5D8B14368B3F5683F10D11C
:102C200000220368BFF35B8F53E8001F012903D123
:102C300043E800200028F7D1BFF35B8F0BD10020C1
:102C400008BD074A934208D000680DF0F3FAF6E792
:102C50006FF4E040F4E70348F2E70348F0E700BF11
:102C60002C5F5CA9E98FFFFFEA8FFFFF10B50446D8
:102C700018B91D4B1D485B6898476368B3F5683FFA
:102C80002FD0B3F5680F2CD0194A934219D123687D
:102C900003BB18484FF0FF324FF0FF3321460DF0D1
:102CA00067F908B923681BB90F4B13485B6898474D
:102CB00020681422002112F06FF84FF468636360FB
:102CC00008E0B3F5683F0DD83A2B03D040F6BA625E
:102CD0009342DED1206811F06CFD636843F03A0343
:102CE000636010BD054AF3E7E80600202C6501008B
:102CF0002C5F5CA9BC130020526501003A00003A29
:102D000008B5064906484023142211F0EDFCBDE841
:102D10000840044904480EF007BC00BFBC0E002068
:102D2000BC130020685501007C55010070B50646B3
:102D300086B00D46002938D08B6805934B68049304
:102D40000B6803930024244B244902930122234659
:102D50002046CDE900440FF01FFC6B6905932B69F9
:102D60000493EB6803931E4B1C490094CDE9014387
:102D70000122234620460FF00FFCEB690393194B09
:102D800016490094CDE901430122234620460FF065
:102D900003FCAB690393144B10490094CDE9014344
:102DA0000122234620460FF0F7FB012E0DD1EFF351
:102DB0000583103B03930D4B02930023CDE90033B1
:102DC0000649324618460FF0E7FB2946304606B062
:102DD000BDE870400CF0E4BE7F6501008453010043
:102DE000AE650100DD650100EC6501001A660100B9
:102DF00030BFFFF7FDBF00BF2DE9F0410B4EDFF8FC
:102E0000308006EB0807CC1B0546324609492046B0
:102E100011F09AFFA01942460021083C11F0BCFFB6
:102E20006C6707F10800BDE8F08100BF00000000FA
:102E300004000000E4530100074A936893F90E1060
:102E4000002907DB526993421FBF044A536843F0CD
:102E500080535360704700BF6426002000ED00E0FF
:102E6000F0B585B00024434B0293CDE900442346DE
:102E700007460E460122404920460FF0A8FB3F4B73
:102E80009B6ADB0465D53E4B3B490094CDE9014389
:102E90002046234601220FF09AFB1720374B9B6AEE
:102EA0001D050AD5374B029300231846CDE90033A0
:102EB000314901220FF08BFB1820304DAB6A9C0585
:102EC0001FD50024304B0293012223462046CDE932
:102ED000004429490FF07BFBAB6BAA6A10040FD5A5
:102EE00003932A4B24490094CDE901430122234650
:102EF00020460FF06CFB1FB1AB6A23F40043AB62BA
:102F000019201E4B9B6A59050AD5214B02930023B9
:102F10001846CDE90033184901220FF058FB1A205A
:102F2000164A936A13F4807315D01A4B0293002348
:102F30001846CDE90033104901220FF048FB1B2051
:102F40000E4A936A43F47F4393620023337005B0C3
:102F5000F0BD1620A2E7926A9204F1D50E4A064906
:102F60000093CDE90132184601220FF030FB1C20FE
:102F7000E6E700BF2D6601008453010000ED00E08C
:102F80004366010054660100676601008066010027
:102F900095660100B0660100C86601001FB50024F7
:102FA000374B029301222346CDE9004435492046A0
:102FB0000FF00DFB344B9B6A9A015ED5334B3149C0
:102FC0000094CDE901432046234601220FF0FFFA89
:102FD0001E202D4B9B6ADB010AD52D4B029300234B
:102FE0001846CDE90033274901220FF0F0FA1F20DF
:102FF000254B9B6A1C030AD5264B029300231846D7
:10300000CDE900331F4901220FF0E1FA21201E4BC8
:103010009B6A59030AD5204B029300231846CDE939
:103020000033184901220FF0D2FA2220164B9B6A76
:103030009A030AD5194B029300231846CDE90033B1
:10304000104901220FF0C3FA23200F4B9B6ADB03C8
:103050000AD5134B029300231846CDE900330949E2
:1030600001220FF0B4FA2420074A936A6FEA03435F
:103070006FEA1343936204B010BD1D20A9E700BF9F
:10308000F76601008453010000ED00E00F670100C6
:10309000226701003C6701005A6701007F67010059
:1030A000996701002DE9F04385B000244D4B029350
:1030B000CDE9004423468046894616464A49012206
:1030C00020460FF084FA494B9B6ADF0640D5484BF7
:1030D0000094CDE9014320462346434901220FF0E5
:1030E00076FA1124414B9B6A1D070AD5414B029386
:1030F0000023CDE900333C49012218460FF067FA5E
:1031000012243A4DAB6A980724D500243A4B36492D
:103110000293CDE900442346012220460FF057FADE
:103120006F6BAB6A190659D5344B2F490397CDE91C
:10313000014300942346012220460FF048FAB9F1DA
:10314000000F03D0AB6A23F08003AB62132403E0CB
:103150001024C7E76FF01507244B9B6ADA070AD5DE
:10316000274B02930023CDE900331F490122184663
:103170000FF02DFA14241D4B9B6A9B060AD5214B98
:1031800002930023CDE900331749012218460FF0BE
:103190001EFA1524154B9A6AD50602D49A6A90072E
:1031A0000AD55B68190507D54146384600F098FAFC
:1031B00010B180F3098802240C4B9A6A920642BF30
:1031C0005A6A22F400525A629A6A42F0FF029A62E4
:1031D00020460023337005B0BDE8F0836FF015077B
:1031E000B4E700BFC46701008453010000ED00E0B4
:1031F000DA670100546601000D68010025680100CE
:103200003B680100C86601002DE9F041754B5F681D
:1032100090B00446C7F30806002383F31188BFF378
:103220006F8F02F07F40B0F17F4F0CD102F00C00A5
:10323000082819D16C4A6D490093CDE9013218462E
:1032400001220FF0C4F900252C464FF00008F31EB0
:103250008DF81F80092B00F2AC80DFE803F00BA093
:10326000A49CAAAAAAAAAAA8120746BF0C461D4651
:103270000125EAE75E4B5D495A4FCDF80080CDE964
:1032800001830023012218460FF0A1F98DF81F8059
:10329000FE6A16F0020605D0564BCDF80080CDE947
:1032A000018306E0FB6A002B0BDA534B0096CDE955
:1032B000016300234D49012218460FF088F90022CE
:1032C0003BE0FB6A5B00FAD54C4B48490096CDE9E0
:1032D00001630122334630460FF079F97B69A26918
:1032E00043F480737B61BFF34F8FBFF36F8F7B69B4
:1032F00032F8022C23F480737B61BFF34F8FBFF34E
:103300006F8F4DF602739A420AD0BB6ADBB2002B74
:1033100033D00DF11F0201212046FFF7C3FE3CE030
:1033200023680393364B31490096CDE901630122AE
:10333000334630460FF04BF922689DF81F30CBB969
:1033400008AE04F1200720686168334603C30834DF
:10335000BC421E46F7D10F9B002D3ED0C3F308019F
:1033600021B96FEA53236FEA43230F9308A910464C
:10337000FFF7DCFC10B0BDE8F081BB6A13F47F4FAF
:1033800005D00DF11F010120FFF76AFD05E0BB6AC2
:10339000B3F5803F93D3FFF701FE0246CDE70DF171
:1033A0001F020021B8E70DF11F010020ECE7154BCB
:1033B00073E7154A154B0D4917F4F87F18BF1346EC
:1033C000103ECDE90336124B02930023CDE90033C2
:1033D000012218460FF0FBF871E723F4FF7323F086
:1033E0000103C2E700ED00E088680100845301009A
:1033F000B3680100CA680100EB680100F9680100C8
:1034000018690100346901006F6801005A68010001
:1034100058690100044B5A6942F010025A615A6916
:1034200022F008025A61704700ED00E0EFF30880D7
:10343000EFF3098101B57246FFF7E6FE01BD00BF5B
:10344000002080F31488BFF36F8F134880F308883F
:103450000AF0DCFB002011490860BFF34F8F00F039
:1034600033F8202080F311880D484FF0AA014FF463
:10347000046211F01AF90A484FF40461401880F30D
:103480000988EFF314800221084380F31488BFF306
:103490006F8F00F0EDF8000080C4002094ED00E094
:1034A000C07A00200749D1F890200023C2F30722F8
:1034B0001846934200DB7047C1F89830C1F8A0006D
:1034C0000133F6E700ED00E008B572B6002383F3A0
:1034D0001388FFF7E7FF144B4FF0FF32C3F880204B
:1034E000C3F88420C3F88820C3F88C20C3F8902048
:1034F000C3F89420C3F89820C3F89C20C3F8802117
:10350000C3F88421C3F88821C3F88C21C3F8902123
:10351000C3F89421C3F89821C3F89C2162B6BFF385
:103520004F8FBFF36F8F08BD00E100E0084B9B6831
:1035300083420BD1EFF3058343B1064B5A6842F047
:1035400080525A605A6A22F400425A620DF086BBD9
:103550006426002000ED00E015498A684FF0300035
:103560001044EFF3098C80E8F01F202080F31288CC
:10357000BFF36F8F0F4F4FF000664A698A603E605D
:103580004FF07404141920680B4C2060906F0023D6
:10359000936780F3118804B5104600F005F9BDE883
:1035A000044002F1300090E8F01F8CF30988704766
:1035B0006426002004ED00E0D81300201EF0040F64
:1035C0000CBFEFF30880EFF30980816911F8021C4A
:1035D0000229FFD001B572460EF0EEFF01BD00BF1B
:1035E00040B2002807DB044A4109012300F01F0014
:1035F000834042F82130704700E100E040B20028EB
:103600000CDB4309064900F01F00203301228240F1
:1036100041F82320BFF34F8FBFF36F8F704700BF78
:1036200000E100E0054B420900F01F0053F82220A2
:10363000012303FA00F01040704700BF00E100E0F2
:1036400040B20028A8BF00F1604001F10101B8BFFD
:10365000064B4FEA4111ACBF00F5614000F00F008E
:10366000C9B2B4BF195480F80013704714ED00E0DC
:103670000B4A08B50B4B22F07F029A60BFF34F8FC5
:10368000BFF36F8FD3F8882022F47002C3F888202C
:103690000CF064FB0DF002FC00F05CF80CF0DAFBBF
:1036A0000000000000ED00E042F8203C009B42F8E2
:1036B0001C3C0A49019B42F8183C029B42F8143C0E
:1036C00021F001014FF0807342F8043C42F8081CDD
:1036D0000023203A02658367704700BF7916000017
:1036E000094A0346906870B113F1160F406E05D079
:1036F000A0F140029A4205D8834203D2814228BFFA
:1037000000207047002070476426002008B5154649
:10371000094A0A4B9060426F1A600E4600F044F866
:103720002C4686F309880020054B98472046002147
:1037300000220023034C204764260020D8130020D9
:10374000F725010079160000014B10221A6170471D
:1037500000ED00E0044800232021C2180133302B83
:1037600082F80013F9D1704700E100E008B5EFF3EB
:103770000583064A103B02EBC30152F83300496847
:103780008847BDE80840FFF757BB00BF0050010065
:10379000024B034A0348012100F096B800000420C0
:1037A000000000208C550100426E054B403A1A6023
:1037B000044A4021C3E901121846012100F08EB8E5
:1037C000DC13002000000B151FB5144AD2F890300E
:1037D000C3F30723013B98420FD9114B02930023F7
:1037E0000390CDE9003318460E4901220EF036FF52
:1037F0006FF0150005B05DF804FBC2F898000B6887
:1038000023F01F03034343F01003C2F89C308B687E
:1038100043F00103C2F8A030ECE700BF00ED00E088
:103820006F6901006C530100F0B50E4689B01F4668
:1038300004460025B54212DA606838B3BFB1431EB2
:1038400018420FD0134B02930023CDE900331249E5
:103850000395012218460EF001FF6FF01502104685
:1038600009B0F0BD1F28EDD921680B42EAD12368C9
:1038700005930EF0E3FEA36805A90343D0B20793B6
:10388000FFF7A2FF10F1160FE7D0421C01350C34F0
:10389000D0E700BF956901006C530100044B05227D
:1038A000C3F89420BFF34F8FBFF36F8F704700BFF3
:1038B00000ED00E0BFF35F8F024B0022C3F89420BD
:1038C000704700BF00ED00E010B5034C01232278E3
:1038D000FFF7AAFF207010BD7D28002008B50B4A15
:1038E00000231278FFF7A0FF10F1160F07D0084A47
:1038F0000021D2F89030C3F30723984200DB08BDC3
:10390000C2F89800C2F8A0100130F2E77D2800202C
:1039100000ED00E02DE9F04357485849D0F89030C9
:103920000D68C3F307239D4285B000F2A180FFF725
:10393000C1FF49680022954201F10C011AD1504C97
:10394000504F25706846FFF7F1F8DFF83C81DFF84B
:103950003C9106460025AE421FD1237846490020FF
:10396000D1F89020C2F3072293427BDBFFF796FF4A
:1039700000204CE0C0F8982051F80C3C23F01F03C5
:10398000134343F01003C0F89C3051F8043C43F05B
:103990000103C0F8A0300132CDE7009800EB05111B
:1039A0004FEA051CCB683B40B3F5000F44D00AD862
:1039B000B3F5001F2ED0B3F5800F34D0B3F5801FC0
:1039C00010D00135C7E7B3F1807F3ED0B3F1007F5F
:1039D000F7D150F80C3088684A680EF02FFE40F49A
:1039E000802009E050F80C3088684A680EF026FE06
:1039F00040F0885040F43020039001A92078CDE9B0
:103A00000123FFF7E1FE002828DA6FF0150005B06A
:103A1000BDE8F08350F80C3088684A680EF00EFE5E
:103A200040EA0800E8E750F80C3088684A680EF071
:103A300005FE40EA0900DFE750F80C3088684A6864
:103A40000EF0FCFD40F08270D6E750F80C3088682C
:103A50004A680EF0F3FD40F08870CDE7237801331B
:103A60002370AEE7C1F89830C1F8A000013377E7C2
:103A70004FF0FF30CBE700BF00ED00E098550100AC
:103A80007D2800200000F0FF000008110000020265
:103A9000F0B587B007460E4614460021102268464E
:103AA0001D4611F079F902238DF802302A46054BA4
:103AB000019321466846CDE904760DF06BFE07B010
:103AC000F0BD00BF7D26010008B5024B1B6898477A
:103AD000002008BDE8130020034B044A18609378C7
:103AE00043F0020393707047E81300200C05002098
:103AF00008B50649064821F00701C1F1005202F558
:103B000080220EF0F0F9002008BD00BF130701204D
:103B1000EC1300200E4A0123C2F840354FF08042DA
:103B20004FF08051C2F87835D1F83001082808D11B
:103B3000D1F83411052904D80648415C09B1C2F80E
:103B400038364FF080430122C3F8802500207047AB
:103B500000E00140C769010020B1034B800143F040
:103B600001031847704700BF50540100BFF34F8F47
:103B70000549064BCA6802F4E0621343CB60BFF309
:103B80004F8F00BFFDE700BF00ED00E00400FA0525
:103B9000024B1B6803B11847FF207047FC1300203D
:103BA0000A4B0B4A0020C3E900000A4B1A600A4A7C
:103BB0005A600A4A9A600A4ADA600A4B0A4A9860CE
:103BC000C3E90020094ADA60704700BF20140020D2
:103BD000B13D000010140020F53C0000F13B000056
:103BE0009326010000140020913B0000952601005F
:103BF00030B544788FB00546ACB1204600F006FBE6
:103C00001A4B02930023CDE9003303900122184997
:103C100018460EF041FD174B6A781A7016480CF0E2
:103C200059FB0FB030BD0378052B12D0092B1BD0E8
:103C3000012BF0D1072304A88DF8103004F098FA76
:103C4000059B03930D4B0094CDE9014303222346CA
:103C5000DDE70B4B06490094CDE9014303222346DF
:103C600020460EF019FDD6E7064BF3E7D1690100B7
:103C7000645301007E28002020090020E96901002A
:103C8000076A0100276A010030B5114C8FB02D235F
:103C9000054604A88DF8103004F06AFA9DF9143036
:103CA0002278934200D18DB1D8B20A4B20701B68A4
:103CB00003B1984723780393074B02930023CDE980
:103CC00000330649032218460EF0E6FC0FB030BD63
:103CD00080280020F8130020376A01006453010097
:103CE000034BBFF35B8F1868BFF35B8F704700BF58
:103CF000281400202DE9FF414278044682B1104685
:103D000000F084FA264B029300230390CDE90033A0
:103D10002449012218460EF0BFFC04B0BDE8F08132
:103D2000FFF7DEFFC10702D51046FFF7ADFFFFF733
:103D3000D7FF83070ED4237F63B1BFF35B8F1A4B8A
:103D400053E8001F41F0020143E80012002AF7D1B6
:103D5000BFF35B8F217F63794900012B08BF41F0DE
:103D60000101124B1D68CFB2002DD6D0083D4FF691
:103D7000FF782B88E078434501D083420AD1A368BD
:103D80000193237B00936E6894F91030B4F90E20F0
:103D90003946B047AD68002DBFD0083DE9E700BF08
:103DA0004F6A0100645301002814002020140020F1
:103DB0001FB50446407860B100F028FA0D4B02931D
:103DC00000230390CDE900330B49012218460EF081
:103DD00063FCFFF785FFC30702D50020FFF754FF00
:103DE000064B62781A70064804B0BDE810400CF02B
:103DF00071BA00BF6A6A0100645301007F28002085
:103E000008090020F0B504469FB04FF0FF324FF094
:103E1000FF3368480CF096F901261D230AA88DF897
:103E200028308DF82C6004F0BBFA257D002D6AD176
:103E3000614B8DF814601B788DF8193002273423FC
:103E400014A88DF818708DF8503004F091F920B353
:103E50005A4B5B490095CDE9015332462B46284623
:103E60000EF01AFCEA24204600F0C4F9554B0293E8
:103E700000230390CDE900331846514901220EF08A
:103E80000BFC204600F0CEF9044600287CD04948BF
:103E90000CF0D0F920461FB0F0BD159BA2899A8086
:103EA0002369159314A88DF8507004F079FA032350
:103EB0008DF8503014A82368159304F071FA092383
:103EC0008DF8503014A86368159304F069FA08233C
:103ED0008DF8503014A8A368159304F061FA05A872
:103EE00004F084FD04460028BDD14FF0FF3336486E
:103EF0004FF0FF320CF022FA344B1878002843D0F0
:103F000000F0A2F9C0E7012D51D135238DF85030D2
:103F100014A82F4B159304F043FA06238DF8503064
:103F200014A80023159304F03BFA07238DF85030B2
:103F300014A82368159304F033FA0C238DF850303D
:103F400014A8A368159304F02BFA0D238DF85030B4
:103F500014A8A368159304F023FA0E238DF85030AB
:103F600014A8A368159304F01BFA0F238DF85030A2
:103F700014A86368159304F013FA14A88DF8505030
:103F80008DF8545004F00CFAFFF7AAFEC30709D4C9
:103F90002D238DF85030084B14A81B788DF8543021
:103FA00004F0FEF90120FFF76FFE00246FE76FF0C9
:103FB00015046CE7E407002081280020826A0100D4
:103FC000645301009C6A0100200900207E28002023
:103FD0000003000100B58BB00246FFF781FE00F040
:103FE0000100824219D0BFF35B8F124BC2B153E87C
:103FF000001F41F0010143E80012002AF7D1BFF38E
:104000005B8F05238DF80030FFF76AFE00F001009A
:104010008DF80400684604F0C3F90BB05DF804FBAA
:1040200053E8001F21F0010143E80012002AE6D006
:10403000F6E700BF28140020F0B507468BB0154600
:104040001C460E4609B9002A5FD131484FF0FF32B5
:104050004FF0FF330CF076F804A9284604F026F858
:1040600088B300F0C7F800242A4B03900293CDE9EF
:10407000004429492346012220460EF00DFB01256C
:104080008DF814400794ADF8204005A88DF8224023
:1040900005F0AAFB044630B300F0ACF81F4B0293C6
:1040A0000023CDE900331C490390012218460EF08D
:1040B000F3FA204600F0B6F8044615480CF0BAF8BA
:1040C00020460BB0F0BD5CB1012C09D0144BADF80B
:1040D000205093F900408DF8187007960025D4E71A
:1040E0008DF81440F2E74FF0FF330E484FF0FF32E7
:1040F0000CF024F90C4B187808B100F0A5F8002D4D
:10410000044618BF6FF00A04D7E76FF01504D7E72D
:10411000F8070020B16A010064530100D66A01006B
:1041200080280020080900207F28002000238360C9
:10413000054B596800F1080211B9C3E90022704724
:104140000A605A60704700BF20140020014B1860BD
:10415000704700BFF813002070B51E4E1E4932781C
:104160001E4892B003F0D8FD054680B100F042F839
:104170001B4B02930023CDE90033039018461949E5
:1041800001220EF089FA6FF0150012B070BD03F035
:1041900083FF044640B100F02DF8134B0390CDE9A6
:1041A000015300952B46E9E7062306A930788DF8E0
:1041B00018300FF08DFA0D4BC0B218700C4B187000
:1041C00030238DF8203008A81423099304F0E8F870
:1041D0002046DAE7680700200014002010140020B1
:1041E000EE6A0100645301000F6B0100812800207A
:1041F0008028002017289ABF024B53F8200002485D
:10420000704700BF945601003D6B01000F289ABF14
:10421000024B53F820000248704700BF545601007B
:104220004D6B01001628034608D8064A52F82000B4
:1042300030B9002B18BF6FF0150070476FF01500F4
:10424000704700BFF85501000F28034608D8064AFA
:1042500052F8200030B9002B18BF6FF015007047DE
:104260006FF01500704700BFB855010001480CF011
:10427000C1B900BF1C050020014B18605960704790
:104280002C140020024B1A685B6802600B607047B8
:104290002C14002008B50EF020FA024B1B68C01A3F
:1042A00008BD00BF34140020014810F00ABC00BF54
:1042B0009807002007B5014640F2E7304FF47A72C4
:1042C000002300EBC130490CFCF79EF802460B4678
:1042D00000210020CDE9000102480CF085FF03B069
:1042E0005DF804FB9807002008B50EF0F6F9014BC5
:1042F000186008BD34140020014B1868704700BFD7
:104300003414002010B5124CBFF35B8F022354E825
:10431000002F012A03D144E800310029F7D1BFF36F
:104320005B8F0CBF0120002010D10A4BDB6A98473D
:10433000002344F8403CBFF35B8F54E8002F44E86F
:1043400000310029F9D1BFF35B8F012010BD00BF00
:104350007C1400200858010010B5064B5C68FFF77C
:10436000D1FF30B12CB100212046BDE810400CF047
:10437000CDBF10BD3814002013B50D4BD3E9014358
:104380003BB10C4B5B6B0193002002B0BDE81040C9
:104390001847FFF7B7FF40B13CB16FF0040120466A
:1043A00002B0BDE810400CF0B1BF02B010BD00BFBC
:1043B00038140020085801002DE9F347284C9A468C
:1043C000D4E9019307460D46164683B1254B0020DC
:1043D0005B6B9847E368CDE900A32A46D4F80880D0
:1043E000206833463946C04702B0BDE8F08704F183
:1043F00044020223BFF35B8F52E8001F012903D15F
:1044000042E800300028F7D1BFF35B8F9046EBD134
:10441000E36C1A78AA4288BF1D70E36CA06C1A780E
:10442000394610F091FC236D03B11E80636D0BB112
:1044300083F800A00B4BDB6A984700216160BFF353
:104440005B8F58E8003F48E80012002AF9D1BFF31B
:104450005B8F484602B0BDE8F0470CF057BF00BF85
:104460003814002008580100F0B5044687B00068F1
:104470000E4610F0DFF82568034670B92A680392EB
:104480001E4A1F490090CDE9010201220EF06CF98D
:104490006FF01205284607B0F0BDE3882179334359
:1044A000D802D5F808C02F6906D513F4402F03D0E1
:1044B000DA0748BF83F440233868012623F48012CA
:1044C0008E40DB074CBF3043B0433860DCF800302F
:1044D0002846984705460028DCD0059023790493A8
:1044E000236807491B680393064B02930023CDE919
:1044F0000033012218460EF037F9CBE7D56D0100E5
:10450000B4530100EE6D010070B50D460F49BFF3C5
:104510005B8F012051E8004F002C03D141E80006D9
:10452000002EF7D1BFF35B8F0CD1094E41F8403C10
:10453000D4B2736D214698472846B36A21469847FE
:10454000002070BD6FF00F00FBE700BF7C1400205F
:10455000085801002DE9F04700258EB005ACDFF8C2
:10456000BC8081468A4617462946102209A80126A2
:10457000CDE90544CDE9075510F00EFC8DF831600A
:10458000D8F834300D94002B45D023463A46514696
:104590004846FFF7B9FF041E39DBFFB2CDE90157EA
:1045A0000396B8F83C301E4C009398F83A3098F8CF
:1045B000392098F83810646A3046A047014640F226
:1045C000E7304FF47A72002300EB0140C1F30E4153
:1045D000FBF71AFF02460B46314609A80CF03EFED7
:1045E000041E14DA0F4B10490095CDE901533246F1
:1045F0002B4628460EF0B8F8FFF784FE38B94FF086
:10460000FF324FF0FF33314609A80CF027FE204659
:104610000EB0BDE8F0876FF01504F8E738140020FD
:10462000085801000E6E0100B4530100F0B591B0BE
:1046300000248DF8172007AD0F46102221460BA845
:10464000CDE90755CDE90944012610F0A5FB2C4B17
:104650008DF839600F95BFF35B8F53E8002FA242AE
:1046600003D143E800610029F7D1BFF35B8F43D149
:104670000DF1170243E910549A60224D189ADA603E
:10468000199A1A615F60FF216B6D304698476B6B1A
:1046900020469847DDE9162331460BA80CF0DEFDD5
:1046A000051E1ADAFFF72EFE50B94FF0FF324FF019
:1046B000FF3331460BA80CF0D1FD9DF8175009E0EF
:1046C000114B12490094CDE90143032223462046B1
:1046D0000EF04AF8284611B0F0BD0A9B002BECDA28
:1046E0000B4B0A490094CDE901433246234620464C
:1046F0000EF03AF80A9DEDE76FF00F05EAE700BF0C
:104700007C140020085801002A6E0100B4530100F7
:104710003A6E010010B529B9FFF7F4FDD8B96FF072
:10472000150010BD0E4BBFF35B8F012053E8004F07
:10473000002C04D143E8000CBCF1000FF6D1BFF30C
:104740005B8F0AD1074C43E90F12636DFF21984735
:10475000636B002098470020E3E76FF00F00E0E76D
:104760007C14002008580100F0B52C4DBFF35B8F7E
:104770008BB00C46012755E8003F002B03D145E8DC
:104780000072002AF7D1BFF35B8F43D1244E20681B
:10479000F3689847E37A4BB32346103D04F11007C2
:1047A000186859682A4603C20833BB421546F7D138
:1047B0004FF47A63089300220120237B0793CDE90D
:1047C0000522CDE9032023890293A379019363791C
:1047D0000093F569237994F90A10A847B36D607BBB
:1047E0009847FFF78FFD00200BB0F0BD0997227BA3
:1047F000B569CDE90732CDE90533CDE903330A22A6
:1048000002922289CDE900323846A3796279217972
:10481000A847E3E76FF00F00E6E700BF7C14002035
:104820000858010038B5084611461A460B4BBFF32D
:104830005B8F012453E8005F002D04D143E8004C56
:10484000BCF1000FF6D1BFF35B8F04D1044BDB6BDF
:104850009847002038BD6FF00F00FBE77C14002064
:104860000858010038B5114BBFF35B8F002453E8A3
:10487000002F43E800410029F9D1BFF35B8F0C49B9
:1048800043F8341C0B490C4D43F82C1C0B4943F8DE
:10489000241C0B4943F8301C2A6843F8440CA3F14C
:1048A00034009047EB6A9847204638BD7C140020BE
:1048B00059430000B9430000085801007943000043
:1048C000872701001FB50F4CE36953B90E4A0F4902
:1048D0000093CDE90132184602220DF056FF04B0D4
:1048E00010BD002098470A4B1B6E03B1984794F8FF
:1048F0002030002BF3D0034804B0BDE8104000F096
:1049000057B900BF90140020566E0100AC5301004F
:1049100008580100F0B54FF4B011476885B006465D
:104920002348FFF7A1FD054600283DD12149224833
:104930000FF068FF304600F065F9044660B11F4B88
:104940001F490095CDE9015301222B4628460DF061
:104950001CFF204605B0F0BD38680FF06BFE60B953
:10496000184B02930023CDE9003315490122184664
:104970000DF00BFF6FF01204EBE7F86818B10FF0C1
:1049800059FE0028ECD03046FFF76CFF051EE0DA38
:104990000D4B02930023CDE900330949012218464B
:1049A0000DF0F3FE2C46D4E76FF00404D1E700BF0E
:1049B0000C570100C54800009C140020856E0100C2
:1049C000AC530100A36E0100B86E01000248012241
:1049D0000A210DF0E9BE00BF604F0100024800222D
:1049E0000A210DF0E1BE00BF604F0100014B93F8BA
:1049F00020007047901400200346034880F82030C0
:104A00000BB900F0EFB8704790140020014BD8614B
:104A1000704700BF9014002010B5044C204600F0F1
:104A200095F8012384F8203010BD00BF90140020B9
:104A300010B5054C204600F0A3F800B910BD0021C8
:104A400021200FF0AFFFF5E79014002070B590B073
:104A50000D46DDE91461CDE90A3108ABCDE9080264
:104A6000CDE90C5204930CAA02230446CDE90E6151
:104A7000CDE9062305930EF088F81248D5B9CEB9D2
:104A8000836811491D6804AA3346A84700280ADA3A
:104A90000E4B029300230390CDE900330C49012211
:104AA00018460DF072FE2378842B01D0FFF7C0FF6B
:104AB00010B070BD836804491D68024806AB04AAA3
:104AC000E3E700BFD84F0100F8560100DB6E01009C
:104AD000AC53010070B5154D8AB0284600F068F857
:104AE000C023ADF8143005AB0693022307930124CD
:104AF00006AB089309940E480E49836808AA1E68FD
:104B00000023B04700280CDA0B4B029300230390DC
:104B1000CDE900330949224618460DF036FE0AB0A9
:104B200070BDFFF785FF85F82040F8E7901400205E
:104B3000D84F0100F8560100DB6E0100AC530100B4
:104B4000014800F029B800BF9014002010B50B4CAC
:104B50000122032120460DF010FF00214FF42470A4
:104B60000FF020FF0022032120460DF006FF4FF436
:104B7000A470BDE8104000210FF014BF744F010075
:104B800008B5042103480DF0CDFE003818BF012000
:104B900008BD00BF604F010008B5062103480DF0B5
:104BA000C1FE0028D4BF0020012008BD604F0100D5
:104BB00010B40B4883689C697CB103691B6813F0CF
:104BC000400FA44618BF4FF0007310BC08BF4FF051
:104BD00080634FF0A0720621604710BC704700BF91
:104BE000604F010010B4064883689C6934B1A44644
:104BF000002310BC4FF400120621604710BC704720
:104C0000604F010030B54FF4D0110569194885B0E7
:104C10000DF069FE70B1184B02930023CDE900330B
:104C20001649012218460DF098FE6FF00404204644
:104C300005B030BD12484FF480310DF054FE00280D
:104C4000E9D110484FF480310DF04DFE04460028A4
:104C5000E1D10D4B0D486B604023AB608368DB698D
:104C60000BB90B4BD8E70122294698470028DEDA1A
:104C7000F7E700BF24570100046F0100AC530100A7
:104C80001C570100145701004D290100604F01001D
:104C90001F6F0100074B08491A6843F2390001FBF6
:104CA000020018606FF00043B0FBF3F3C3EBC37373
:104CB000C01A70472C0500206D4EC641014B18608C
:104CC000704700BF2C05002030B530B10A4D0144BB
:104CD0004FF0FF33814201D1D84330BD10F8012B92
:104CE0005340082243F30004013A2C4092B284EA74
:104CF0005303002AF6D1EDE72083B8ED044A136888
:104D00000BB100215972436110600DF0F7BE00BF76
:104D1000B414002037B5044601A80DF016FD6CB19F
:104D2000174D2A68134673B96368236001232381F2
:104D30006AB9FFF7D9FA2046FFF7E0FF01A80DF0A6
:104D40000DFD03B030BD9C42F8D05B69EBE7FFF787
:104D5000A1FA236818442B6820601A689042EAD3AD
:104D60005A69596911B95C616161E7E71168884264
:104D700002D913465269F4E75C616261DEE700BF65
:104D8000B4140020F8B5FFF7B7FA1C4C0546FFF73E
:104D9000ABFA2368A3B1471B1E462D1A716929B9C6
:104DA0005A692260DA68197242B9FEE70A68BA42A3
:104DB0008CBF521900220A607669EFE718699047A4
:104DC000002623682BB9206880B9F8BD1869904780
:104DD000F7E71D68FFF75EFA8542F4D223685A6947
:104DE0002260DA681E72002AF0D1FEE7437A002BB7
:104DF000EBD1BDE8F8400DF081BE00BFB414002037
:104E000037B5134D044601A80DF09FFC2B686BB11C
:104E100064B10022A342227211D1597A5C6961B156
:104E20005A7244B120462C600DF068FE01A80DF0C6
:104E300095FC03B030BDFFF737FA2C60F6E71A4651
:104E40005B69002BF2D09C42F9D163695361EDE7B5
:104E5000B414002007B5074B1B7840BAADF8040026
:104E60002BB9022201A940F2BC600DF0FCFC03B09A
:104E70005DF804FB8428002007B5074B1B7840BA77
:104E8000ADF804002BB9022201A940F2BE600DF07A
:104E9000EAFC03B05DF804FB8428002010B50C4B3D
:104EA0001B7804469BB94FF4D7600DF011FDC4F395
:104EB000002100F0FE0001434FF4D7600DF0E7FC45
:104EC000E1B240F2B960BDE810400DF0E0BC10BDA9
:104ED0008428002013B50446FFF780FD04F0070383
:104EE00014F004048DF8073008BF084B4FF001029E
:104EF0000DF107014FF0840008BF1C700DF093FC0A
:104F00000020FFF779FD02B010BD00BF822800200D
:104F100010B50446FFF780FD2046FFF777FDFFF749
:104F2000D9FD00200DF050FE0DF052FC0DF051FCAB
:104F3000034B00221A70BDE810400120FFF75CBD52
:104F400082280020134B984207B50BD94EF6E11387
:104F5000ADF80430022201A998200DF064FC03B0E2
:104F60005DF804FB0C4B984202D94DF6D733EFE7BE
:104F70000A4B984202D94CF2C153E9E7084B9842D8
:104F800002D948F27513E3E7064B9842E2D946F698
:104F90006B73DDE700E9A43580F8A9328044E52D84
:104FA000000B6B1B40FC541930B5114C85B052BA44
:104FB000246803944FF0000440BA49BAADF80820C1
:104FC00008225BBAADF80400ADF80610104601A93E
:104FD000ADF80A300DF027FC054B1A68039B5A40C8
:104FE0004FF0000301D00FF018FD05B030BD00BF39
:104FF0005406012037B5104D2B7804461BB9FFF736
:10500000A1FF01232B7043F6095241F68463B4FBE0
:10501000F2F102FB114403EB8433B3FBF2F30422FD
:1050200003EB81331BBA0DEB0201862001930DF0D7
:10503000FAFB03B030BD00BF8228002007B5064B45
:105040008DF80700187001220DF107018A200DF07C
:10505000EAFB03B05DF804FB84280020014B1878BC
:10506000704700BF842800201FB52A4A2A4B516888
:10507000044610681B6803934FF0000301AB03C3A1
:10508000264B20781B78834201D0FFF7D7FF237887
:1050900053B1012B35D0204B1A68039B5A404FF077
:1050A000000334D00FF0B9FC62681D4BB3FBF2F380
:1050B0001A0C8DF804201A0A8DF805208DF8063098
:1050C000A268237B8DF8073043F60951637BB2FB5E
:1050D000F1F08DF8083001FB102241F6846303EBF8
:1050E0008233B3FBF1F303EB80331A0C5BBA8DF818
:1050F0000920ADF80A30082201A98B200DF093FB9E
:10510000C9E72369019304220DEB0201F5E704B01E
:1051100010BD00BF2854010054060120842800203F
:105120000000093D1FB5324A324BD16804469068F1
:10513000127C1B6803934FF000036B4603C31A7085
:105140002D4B20781B78834201D0FFF777FF23781F
:1051500053B1012B38D0274B1A68039B5A404FF0AC
:10516000000342D00FF059FC637AF12B20D14FF6A7
:10517000FF70FFF76FFE48F20500FFF77DFE022388
:105180006288A188ADF8021052BAE188ADF800201B
:105190008DF80730227AA37A8DF80620ADF8041036
:1051A0008DF80830092269468C200DF03CFBD2E7CF
:1051B000F22BE5D141F60F50FFF74CFE41F22100F2
:1051C000FFF75AFE0623DBE7A3890C4A5BBAADF86A
:1051D0000030A37B13708DF80230E37B8DF8033031
:1051E000238AADF804300622DDE704B010BD00BF0D
:1051F0002854010054060120842800208328002020
:1052000037B505460C46022201A913200DF019FB03
:105210000A4B1B78012B0DD1094B1B78012B09D1AF
:1052200040F202700DF054FB9DF805302870237099
:1052300003B030BD9DF80400F6E700BF84280020CD
:105240008328002013B50322044601A914200DF081
:10525000F8FA184B1A7822704AB1012A17D0132293
:105260000021601C0FF098FD0F2323700DE09DF8C6
:10527000043023719DF80530A2605B425B10A3717E
:105280009DF806305B425B10637102B010BD9DF863
:1052900004305B425B1023739DF9053002339B1091
:1052A00063739DF806305B425B10A373024B1B686F
:1052B0002361EAE784280020B8140020034B1B6810
:1052C00013B15B6803B11847704700BFE0150020B9
:1052D000034B1B6813B1DB6803B11847704700BF6D
:1052E000E0150020014B01221A707047872800202A
:1052F00008B5FFF77BFB0438C0B2032896BF024B0A
:105300000020185C08BD00BF4F6F010038B50C4687
:10531000002340F201211A4605460846FFF744FEE5
:10532000FFF79CFE0C4B01280C480CBF83F8C740CC
:1053300083F8C040FFF7F6FE2146284600220DF014
:105340006BFC074B074819680DF0F6FBBDE83840C9
:105350000448FFF7DFBC00BFEC140020A4150020B8
:10536000FC150020D414002038B50D461446FFF774
:1053700041FE2846074D0DF02FFA0DF0E1FC4FF4E9
:105380007A71284661430DF0D7FB2846BDE83840C6
:10539000FFF7C0BCD414002073B5574D01A80DF021
:1053A000D4F92C78002301A82B700DF0D7F9002C2C
:1053B00061D00DF025FD04460DF0B1FD01A80DF002
:1053C000C4F9FFF7BDFB012808BF287001A80DF044
:1053D000C5F9E5070BD54948FFF712FD0120FFF796
:1053E0000BFB474B1B6813B11B6803B19847A00721
:1053F00011D54448424EFFF703FD14F0400F424BD5
:105400003BD01B7813B90120FFF7F6FA336813B1CC
:105410001B6903B1984721060AD50120FFF7ECFA72
:10542000374B1B6823B19B6913B1C4F30020984725
:10543000A2050FD5FFF7DAFA04284CD12F48FFF761
:10544000DFFC0120FFF7D8FA2D4B1B6813B15B6816
:1054500003B19847A3060ED52A48FFF7D1FC2A4B83
:105460001B7813B90120FFF7C7FA254B1B6813B14E
:10547000DB6803B1984702B070BD1D7895B9012073
:10548000FFF7BAFA294640F602100DF000FA40F68E
:1054900044100DF01DFA40F00201C9B240F644106C
:1054A0000DF0F5F9194D1A48FF220DF103010DF029
:1054B0001DFD2846FFF7C6FE3368002BABD09E6863
:1054C000002EA8D095F90D3095F90C209DF8031009
:1054D0000F48B0479FE7FFF789FA0528BAD1094876
:1054E000FFF78EFC0120FFF787FA054B1B68002BA6
:1054F000B0D0DB68ACE700BF87280020D4140020C0
:10550000E0150020BC14002087290020E4150020AD
:105510008828002010B590B10A4B012219461C685A
:10552000A04206D39C68A04203D201EBC2010879D5
:1055300010BD0132162A03F10803F0D1FEE71F2047
:10554000F6E700BF585701000128094806D1094B6A
:1055500080F8C7101970B830FFF7E4BD90F8BF307D
:10556000012B04D1034B80F8C0101970F3E770478A
:10557000EC1400206907002000234FF6FF7110B5DE
:105580001A4604460846FFF70FFD34B10948214684
:105590000DF0D2FA0748FFF7BDFB074B1B782BB184
:1055A0006FF07F40BDE810400DF03FBB034B186823
:1055B0008001F7E7BC14002087290020F81500209F
:1055C00000234FF6FF7110B51A4604460846FFF750
:1055D000EBFC34B1094821460DF0AEFA0748FFF75D
:1055E00099FB074B1B782BB16FF07F40BDE8104053
:1055F0000DF068BB034B18688001F7E7BC1400206E
:1056000087290020F8150020F0B5BDF814409DF85A
:1056100018C09DF81CE09DF8205040B1012814D01E
:105620000122002398180138B0FBF2F0F0BD8CF095
:10563000010CE30003EBCC0318330EEB450503EB41
:10564000C5034FF47A714B43ECE7501F012803F177
:10565000040304D80C2C38BF0C24002706E0C1B981
:10566000A2F10B07012F8CBF002701272801BCF1F5
:10567000000F00EBCE000CBF14250025A0EB82002C
:10568000062A4FEA82062844A2F1020C08D83546C1
:105690000BE00129E1D1A2F10C0047424741E5E7C7
:1056A0000830002FF3D04FEA8C050028ACBF2E182D
:1056B0002E1C701E90FBF5F003FB0044094B062ADC
:1056C0005A5C8CBF0C340E340A2A0AD8A30001336A
:1056D0004FF47A7103FA0CF34B43034951F822203B
:1056E000A0E7FFDE536F01002C5701000D4B10B5F2
:1056F00004461870587000F017F85CB134214FF46C
:10570000E8600DF0C4F84421BDE8104040F241705B
:105710000DF0BDB814214FF4E8600DF0B8F8242165
:10572000F2E700BF8528002008B50120FFF786FCBE
:10573000054B18785A78824204D05870BDE808406A
:10574000FFF7D4BF08BD00BF85280020012808B599
:1057500006D00020FFF772FC034B00225A7008BDF0
:10576000BDE80840FFF7E0BF852800202DE9F04F95
:1057700087B089469DF8541000919DF86410724CD2
:105780009DF84CA0BDF84870DFF8C0B1BDF844608A
:105790000029246805944FF0000418BF00276C4CC2
:1057A000BAF1000F15469DF85020217008BFFF2266
:1057B0008BF80020804658B101285BD0624B1A68F4
:1057C000059B5A404FF0000300F0BB800FF025F915
:1057D000604C0DF0C0FA0B234FEA490084F8EC301E
:1057E00084F8E080C4F8E450FFF794FE41F6040327
:1057F000A4F8BC309BF8003084F8C030009B84F8DB
:10580000ED00002B0CBF0123F22384F8C130F60019
:1058100001238AF0010A84F8C23084F8B880A4F821
:10582000BA6084F8BE8084F8BFA00DF086FB94F8BF
:10583000E000003818BF0120FFF788FF04F1E00006
:10584000FFF712FC04F1B800FFF76CFC424A106845
:10585000516803AB03C303A80DF0ADF940F2FF108C
:10586000FFF71CFB4FF4FA537B43B3FBF5F33B4AC2
:105870001360A3E70020374C01930DF06CFA384910
:10588000019B11F8091084F8E080EAB284F8F02056
:10589000B9F1000F45D10B3D012D8CBF002501252D
:1058A000053A012A02D80C2E38BF0C2684F8F230B3
:1058B000012384F8B8309BF8003084F8C730009B8F
:1058C00084F8C8309DF8603084F8C93084F8F1104D
:1058D00084F8F350A4F8C46084F8C6A00DF02DFB42
:1058E00094F8E000003818BF0120FFF72FFF1D4893
:1058F000FFF7BAFB1C48FFF715FCF8B20DF037FABA
:1059000094F8C930012B40F2367014D10CF0E0FF4E
:1059100000F0FB0140F236700CF0B9FF4FF6FF7358
:10592000A5E7B9F1010F04D1A5F10C0045424541AD
:10593000B6E70025B4E70CF0CBFF40F00401C9B294
:10594000E8E707B0BDE8F08F5406012069070020A2
:1059500087290020EC14002039540100F81500209C
:10596000536F0100CC150020A41500202DE9F04F45
:10597000934685B0624A0E9DBDF840709DF84490F4
:105980009DF848A08846126803924FF00002064630
:1059900048B101284DD040F689000CF099FF40F045
:1059A0000401C9B28DE0574C0B2284F8E000580086
:1059B00084F8EC20C4F8E450FFF7ACFD41F6040392
:1059C000BAF1000FA4F8BC300CBF0123F22384F815
:1059D000C130FF00012389F0010984F8C23084F846
:1059E000ED00C4F8E8B084F8B860A4F8BA7084F8A0
:1059F000BE6084F8BF900DF0A0FA94F8E000003883
:105A000018BF0120FFF7A2FE04F1E000FFF72CFB16
:105A100004F1B800FFF786FB3B4A1068516801AB00
:105A200003C301A80DF0C7F840F2FF10FFF736FAE4
:105A3000B1E7344C354984F8E000EAB2C95C84F837
:105A4000F020002B50D10B3D012D8CBF00250125EE
:105A5000053A012A02D80C2F38BF0C279DF83C309C
:105A600084F8F230012384F8B830294B84F8F1101F
:105A70001B7884F8C7309DF8543084F8C93084F816
:105A8000F350A4F8C47084F8C69084F8C8A00DF050
:105A900054FA94F8E000003818BF0120FFF756FED2
:105AA0001C48FFF7E1FA1C48FFF73CFB94F8F13083
:105AB000062B7FF470AF40F689000CF009FF00F070
:105AC000FB0140F689000CF0E2FE40460CF084FE3B
:105AD000124B169A1A600A4B1A68039B5A404FF0F1
