:020000040000FA
:1000000080180120453B000085140100313B0000B1
:10001000313B0000313B0000313B0000000000009C
:10002000000000000000000000000000C13C0000D3
:10003000313B0000000000005D3C0000313B00004F
:10004000713E0000713E0000713E0000713E0000F4
:10005000713E0000713E0000713E0000713E0000E4
:10006000713E0000713E0000713E0000713E0000D4
:10007000713E0000713E0000713E0000713E0000C4
:10008000713E0000713E0000713E0000713E0000B4
:10009000713E0000713E0000713E0000713E0000A4
:1000A000713E0000713E0000713E0000713E000094
:1000B000713E0000713E0000713E0000713E000084
:1000C000713E0000713E0000713E0000713E000074
:1000D000713E0000713E0000713E0000713E000064
:1000E000713E0000713E0000713E0000713E000054
:1000F000713E0000713E0000713E0000713E000044
:1001000080F0004002E000BF81F0004142001FBFCC
:100110005FEA410392EA030F7FEA226C7FEA236CD5
:100120006AD04FEA1262D2EB1363C1BFD2184140CA
:1001300048404140B8BF5B42192B88BF704710F060
:10014000004F40F4000020F07F4018BF404211F003
:10015000004F41F4000121F07F4118BF494292EA6B
:10016000030F3FD0A2F1010241FA03FC10EB0C0097
:10017000C3F1200301FA03F100F0004302D5494224
:1001800060EB4000B0F5000F13D3B0F1807F06D3D1
:1001900040084FEA310102F10102FE2A51D2B1F1C9
:1001A000004F40EBC25008BF20F0010040EA0300BE
:1001B0007047490040EB0000013A28BFB0F5000F3E
:1001C000EDD2B0FA80FCACF1080CB2EB0C0200FAF4
:1001D0000CF0AABF00EBC25052421843BCBFD04043
:1001E0001843704792F0000F81F4000106BF80F4BD
:1001F00000000132013BB5E74FEA41037FEA226C80
:1002000018BF7FEA236C21D092EA030F04D092F04A
:10021000000F08BF0846704790EA010F1CBF00207E
:10022000704712F07F4F04D1400028BF40F00040DB
:10023000704712F100723CBF00F50000704700F0FB
:10024000004343F0FE4040F4000070477FEA226222
:1002500016BF08467FEA23630146420206BF5FEAF3
:10026000412390EA010F40F4800070474FF00003F3
:1002700004E000BF10F0004348BF40425FEA000CBA
:1002800008BF704743F0964301464FF000001CE062
:1002900050EA010208BF70474FF000030AE000BFB8
:1002A00050EA010208BF704711F0004302D54042F6
:1002B00061EB41015FEA010C02BF84460146002068
:1002C00043F0B64308BFA3F18053A3F50003BCFA83
:1002D0008CF2083AA3EBC25310DB01FA02FC634430
:1002E00000FA02FCC2F12002BCF1004F20FA02F237
:1002F00043EB020008BF20F00100704702F120022A
:1003000001FA02FCC2F1200250EA4C0021FA02F28A
:1003100043EB020008BF20EADC7070474FEA40025E
:10032000B2F1FE4F0FD34FF09E03B3EB12620DD923
:100330004FEA002343F0004310F0004F23FA02F08D
:1003400018BF404270474FF00000704712F1610F34
:1003500001D1420205D110F0004008BF6FF000400B
:1003600070474FF0000070477BB972B90029BEBFDB
:1003700000204FF0004106E008BF00281CBF6FF0CE
:1003800000414FF0FF3000F057B8ADF1080C6DE9B7
:1003900004CE002909DB002B1ADB00F061F8DDF840
:1003A00004E0DDE9022304B07047404261EB410103
:1003B000002B1BDB00F054F8DDF804E0DDE902233C
:1003C00004B0404261EB4101524263EB430370478A
:1003D000524263EB430300F043F8DDF804E0DDE94B
:1003E000022304B0404261EB41017047524263EB8B
:1003F000430300F035F8DDF804E0DDE9022304B042
:10040000524263EB4303704753B94AB9002908BF0E
:1004100000281CBF4FF0FF314FF0FF3000F00CB848
:10042000ADF1080C6DE904CE00F01AF8DDF804E037
:10043000DDE9022304B07047704700BF10F8012BBC
:1004400011F8013B012A28BF9A42F7D0D01A704711
:10045000034613F8012B002AFBD1181A0138704704
:100460002DE9F04786468C460846089E1546744698
:100470001946002B40F0C2808542B2FA82F245D97B
:100480004AB1C2F1200300FA02FC2EFA03F39540B0
:1004900043EA0C0C94404FEA154EA8B2BCFBFEF8A0
:1004A000230C0EFB18CC08FB00F943EA0C439945DA
:1004B00028D9EB1808F1FF3704D2994502D9A8F1E1
:1004C00002072B44A3EB0903A4B2B3FBFEFC0EFB13
:1004D0001C330CFB00F044EA0344A04214D92C194D
:1004E0000CF1FF3304D2A04202D9ACF102032C4438
:1004F000241A43EA07401EB1D440002334607360DD
:10050000BDE8F0874746DDE76346F1E792BB431B52
:1005100001214FEA154EAFB2B3FBFEFC200C0EFBDF
:100520001C330CFB07F840EA0343984562D9EB18EB
:100530000CF1FF3004D2984502D9ACF102002B44F3
:10054000A3EB0803A4B2B3FBFEFC0EFB1C330CFBB5
:1005500007F744EA0344A7424ED92C190CF1FF33A4
:1005600004D2A74202D9ACF102032C44E41B43EAB3
:100570000040C0E7C2F1200320FA03F1954090400B
:100580002EFA03F303434FEA154EAFB2B1FBFEFC64
:100590000EFB1C10190C0CFB07F841EA00418845C2
:1005A00004FA02F422D969180CF1FF3004D288450C
:1005B00002D9ACF102002944A1EB08019BB2B1FBC6
:1005C000FEFC0EFB1C110CFB07F743EA01439F42A4
:1005D0000ED9EB180CF1FF3104D29F4202D9ACF1D5
:1005E00002012B44DB1B41EA004192E76046E3E74E
:1005F0006146F7E76046A3E76346B7E7834206D95B
:1006000016B9002108467BE7C6E900E0F9E7B3FA2E
:1006100083F78FB9834201D3724508D8BEEB020439
:1006200060EB030301209C461EB9002168E73846B1
:10063000FAE7C6E9004CF8E7C7F1200CBB4022FA04
:100640000CF41C432EFA0CF120FA0CF3B8400143D1
:100650004FEA14490EFA07F5B3FBF9F81FFA84FEC6
:1006600009FB18300B0C08FB0EFA43EA00439A45CD
:1006700002FA07F240D9E31808F1FF3004D29A4594
:1006800002D9A8F102002344A3EB0A0389B2B3FB09
:10069000F9F809FB183308FB0EFE41EA03418E45C9
:1006A0002CD9611808F1FF3304D28E4502D9A8F184
:1006B0000203214443EA0040A0FB0298A1EB0E0193
:1006C0004145CE46434602D306D14D4504D2B9EB4F
:1006D000020E68EB04030138002EA6D0B5EB0E0223
:1006E00061EB030101FA0CFC22FA07F34CEA030365
:1006F000F940C6E9003198E74046C5E74346D9E7E7
:10070000F0B5334B3349344E344F354D97B01B68F9
:1007100015934FF00003334B02930023CDE90033D0
:100720000322184610F0F9FA4FF0FF324FF0FF3372
:1007300008A800F0A5F89DF821309DF8201002953A
:10074000002B14BF30463846DDE90A230024CDE9EA
:100750000623CDE90310234603222046CDE90044B9
:100760001C4910F0DAFA9DF82130A34214BF01238E
:1007700023468DF830309DF820308DF83830DDE993
:100780000A230CA8CDE910230CBF012323468DF8C2
:10079000483001F083FC50B1134B0390CDE9014385
:1007A0000C49009423460122204610F0B6FABDF809
:1007B0002030002BB8D10D4A06490093CDE9013213
:1007C0001846032210F0A9FA01F006FBACE700BFBF
:1007D000C45D0120403E0100E8450100E045010004
:1007E00007460100F14501001C4601004D4601008D
:1007F0002DE9F04F904685B012F030FF4FF47A7338
:10080000A0FB030503FB0155C40B1B4FDFF86C90E5
:1008100044EA45440026ED0B97F804A028FA0AF3B1
:10082000DB0721D53868D0F810B0836869465B686B
:10083000984750B9009BDBF800205A40012303FA87
:100840000AF31A4214BF01200020B0FA80F04009D8
:10085000CDE902458DF800608DF8010000220023EB
:10086000694648460EF0CAFB0136072E07F1080715
:10087000D2D105B0BDE8F08F983F0100A00700205D
:1008800008B5014603480EF013FCB0FA80F04009A9
:1008900008BD00BFA00700202DE9F04F3F4C404F9E
:1008A000DFF800A187B00026A346206812F09DFC67
:1008B000034690B95BF836203B4912680090CDE9B9
:1008C00003623A4ACDE90102012210F035FA6FF0D5
:1008D0001205284607B0BDE8F08FE388206821792B
:1008E00043EA0A020569D0F808C013F0010F4FF07F
:1008F000010E2B680EFA01FE14BF4EEA030323EA31
:100900000E032B60DCF800309847054658B1284BA1
:10091000039602930023CDE90033234901221846B0
:1009200010F00AFAD5E72068217983689D694DB1F6
:100930004FF000734FF0A072A847054628B11D4B39
:100940000396E6E76FF05705F9E794F804901A4B21
:100950007B60012202FA09F3D4F80080BB60D8F86A
:100960000830DB6913B1394640469847CDF81490FA
:10097000D8F800300C49CDE90363104B02930023F3
:10098000CDE9003303221846013610F0D5F9072EC1
:1009900004F1080407F10C0787D19AE7983F01009A
:1009A000F010002010000100483E010093460100B5
:1009B000B1460100CF460100F1070000F5460100F5
:1009C00001480EF02FBE00BF4411002010B51B4B94
:1009D0001B4A8AB01B6809934FF000036FF07F43F6
:1009E000CDE9052300240023002205A80794ADF8D3
:1009F000204000F003FB034698B99DF815200392B0
:100A0000104A11490090CDE90102032210F0A3F928
:100A10000A4B1A68099B5A404FF000030BD012F0A2
:100A2000D7FD0A4B0390CDE90143074900942346C3
:100A300001222046EAE70AB010BD00BFC45D0120D4
:100A4000640401FF20470100603E01003B470100B4
:100A500013B50A4C0A490B4812F0AFFC0A490022B0
:100A6000204612F0FDFD4FF420320023CDE9002393
:100A700020460FF0EFFB02B010BD00BF7009002050
:100A8000CD09000044110020C109000001480EF00A
:100A9000C9BD00BFB411002001480EF0C3BD00BFA6
:100AA000A411002001480EF0BDBD00BF941100202C
:100AB00001480EF0B7BD00BF8411002001480EF0C0
:100AC000B1BD00BF7411002001480EF0ABBD00BFE6
:100AD0006411002001480EF0A5BD00BF5411002094
:100AE0002DE9FF4700F06EF90023044668B1194A6A
:100AF0000390CDE90132184900930122184610F005
:100B000055F9204604B0BDE8F087DFF85080144E58
:100B1000144FDFF8549005464FF0380A304658F825
:100B2000041B12F04AFC0AFB059057F8041B002234
:100B3000013512F095FD072D06F11006EED10B4B95
:100B400002930023CDE9003303490322184610F035
:100B50002DF9D6E765470100683E0100EC3F010032
:100B600054110020D03F0100280A002083470100D3
:100B70001FB5014668B9184B18490090CDE901032B
:100B80000122034610F012F96FF01504204604B05C
:100B900010BD0378062B0BD90393114B029300234E
:100BA000CDE900330D490122184610F0FFF8EBE7BC
:100BB0000C48002200230EF021FA04460028E5D05C
:100BC000094B029300230390CDE90033034901222E
:100BD000184610F0EBF8D9E79B470100683E01008A
:100BE000B0470100D0070020C347010030B50628F8
:100BF00087B005460FD91E4B029300230390CDE921
:100C000000331C490122184610F0D0F86FF015048B
:100C1000204607B030BD012100F042F9044660B122
:100C2000154B02930023CDE90350CDE90033114960
:100C30000122184610F0BAF8EAE71049C5EBC500E2
:100C400000220023CDE9002301EBC0004FF4004255
:100C500000230FF0FFFA0A4B06490395CDE9014343
:100C6000009423460322204610F0A0F8D0E700BFEE
:100C7000B0470100683E0100E3470100280A002058
:100C80000048010070B5062886B005460E460FD90B
:100C9000134B029300230390CDE900331149012245
:100CA000184610F083F86FF01504204606B070BDAA
:100CB00000F0F6F804460028F7D00B4A0B4B094920
:100CC0000395002E18BF1346CDE90430084B02935C
:100CD0000023CDE900330122184610F067F8E4E75D
:100CE000B0470100683E01001D4801002048010096
:100CF0002448010010B52E4B2E492F4C90B01B6894
:100D00000F934FF000032D4B02930023CDE90033E6
:100D10000322184610F04AF84FF0FF324FF0FF332D
:100D200004A920460EF0C4F90028F5D19DF8113031
:100D3000032B2ED8DFE803F00221232801219DF8A0
:100D40001000FFF79FFF2022002106A812F0E5FD0A
:100D500004238DF818309DF810308DF820309DF860
:100D6000113013B3DA1E534253418DF8213006A8D7
:100D7000059B099301F092F9CEE70021DFE79DF88A
:100D8000100000F0ADF8DEE79DF81000FFF72EFF31
:100D9000D9E703930A4B02930023CDE900330549B9
:100DA0000122184610F002F8CDE70123DDE700BF6D
:100DB000C45D0120683E0100D007002043480100C7
:100DC0005E4801002DE9F04F304CDFF8C480314F10
:100DD00087B000254FF001092668304612F005FA69
:100DE000034670B92C4A2B490395CDE901020090C6
:100DF00001220FF0EAFF6FF0120A504607B0BDE87B
:100E0000F08F20682179E388D0F810C0D0F808E08E
:100E1000DCF800A0DA0754BF43F4B01383F4D01316
:100E200023F4801209FA01FBDB074CBF4BEA0A03EB
:100E30002AEA0B03CCF80030DEF800309847B0F116
:100E4000000A0BDA154B02930023CDE90033114958
:100E50000395012218460FF0B8FFCEE723790593DA
:100E60003368CDF808800026CDE90353CDE900664C
:100E7000334603223946304601350FF0A6FF072DD1
:100E800004F10804A8D1B246B7E700BF084001004A
:100E9000CF480100703E010098480100B0480100B1
:100EA000062803460A4615D80C4951F8300001EBD4
:100EB000C3010123097903FA01F103691B6819428F
:100EC00018BF82F0010212B18368DB68184783689B
:100ED0001B69FBE76FF01500704700BF0840010079
:100EE000062803460AD8074A52F8300002EBC3022C
:100EF00001211379994083685B6918476FF01500E9
:100F0000704700BF0840010010B588B004460DF1DD
:100F10001F010DF11E0010F02CFB9DF81F3007493A
:100F2000CDE90343064B02930023CDE900330322AE
:100F300018460FF059FF08B010BD00BF883E0100F1
:100F4000F448010070B588B0C1F34004CDE906341F
:100F500001F001010024104B0D9D0592CDE9030124
:100F60000293CDE900440D499DF8306023460322E9
:100F700020460FF039FF65B15EB1094B0393094B71
:100F800006490096CDE9014303222B4620460FF087
:100F90002BFF08B070BD00BF18490100883E01005A
:100FA0004B490100225C01001FB5014660B90F4B9F
:100FB0000F490090CDE90103012203460FF014FF11
:100FC000002005B05DF804FB0A480EF071F858B136
:100FD000094B029300230390CDE900330449012219
:100FE00018460FF001FFEBE70120EAE75549010041
:100FF000883E0100300800207A49010010B5014602
:1010000086B068B9184B19490090CDE90103012257
:1010100003460FF0E9FE6FF01504204606B010BD40
:1010200040780B280DD90B23CDE90303104B029315
:101030000023CDE900330D49012218460FF0D4FEFC
:10104000E9E70C480DF0DAFF04460028E5D00A4B2A
:10105000029300230390CDE900330449012218468E
:101060000FF0C2FED9E700BF94490100883E01009D
:10107000B949010030080020E449010030B585B0CD
:10108000284C204612F0B1F8034670B9226803924A
:10109000254A26490090CDE9010201220FF0A4FE65
:1010A0006FF01205284605B030BD23680393002475
:1010B0001F4B1E490293032223462046CDE90044DC
:1010C0000FF092FE03F0B6FB051E0BDA194B174921
:1010D0000395CDE9014300942346012220460FF0F9
:1010E00083FEDFE7144803F08FFB144803F09CFBFA
:1010F000012003F0DDFA124B0C490094CDE90143C5
:101100000322234620460FF06FFE0E4B0749009442
:10111000CDE901430322234620460FF065FE254614
:10112000C0E700BFF03A01000D4A0100883E01000F
:10113000234A0100354A0100D0040020090F0000B5
:101140004E4A01006F4A010001480EF06BBA00BF21
:10115000C41100201FB5064B02930023CDE90033D4
:101160000449032218460FF04EFE05B05DF804FB5B
:10117000A04A0100903E010038B50446074D4FF0EB
:10118000FF324FF0FF3328460DF0F4FF044B1C7084
:101190002846BDE838400EF065B800BFE0110020D9
:1011A000A62B00202DE9F0415F4B6049604E614F56
:1011B00096B01B6815934FF000035F4B029300231A
:1011C000CDE90033032218460FF01DFE4FF0FF3229
:1011D0004FF0FF3306A930460DF06AFF05460028A0
:1011E000F4D19DF8263005939DF8193004939DF8AD
:1011F00018300393514B4D490090CDE90103032270
:1012000003460FF000FE0120FFF7B6FFDFF81C8158
:101210009DF81A309DF819209DF818000DF11B015A
:1012200003F078FA044638BB0220FFF7A5FF444AD2
:101230003E49136801331360424B0094CDE90143EA
:101240000322234620460FF0DEFD202221460CA873
:1012500012F063FB0223BDF818208DF830300CA883
:101260009DF81A30ADF838208DF83A3000F016FFAE
:10127000354801F0BBF8A9E710F10B0F4FF0000360
:1012800046D1CDE9013700930222414618460FF0BE
:10129000BAFD40F6CD400021013512F05EF9032D74
:1012A000B6D10320FFF768FF284A204913680133AD
:1012B0001360274A13682B441360264B03950025BF
:1012C000029301222B462846CDE900550FF09BFDE5
:1012D000294620220CA812F020FB0323BDF8182079
:1012E0008DF830300CA89DF81A30ADF838208DF804
:1012F0003A3000F0D3FE184B0C490394CDE901536A
:10130000284600952B4601220FF07DFD1348B0E7DB
:10131000134A0390CDE90132044900930122184693
:101320000FF071FDBDE700BFC45D0120903E0100DC
:1013300000080020364B0100B84A0100D44A0100E1
:10134000DC110020044B0100234B0100D8110020C8
:10135000D4110020674B01008A4B0100AA4B010009
:10136000524B01001FB50E4811F0FEFF0D490E480B
:1013700012F023F80D490E48002212F071F90D4BBE
:101380000D4900241C700D4B0094CDE9014320460B
:10139000234603220FF037FD204604B010BD00BFE6
:1013A000E011002055110000C41100204911000077
:1013B000300C0020A62B0020903E0100BF4B010006
:1013C0001FB5014668B9194B19490090CDE90103D1
:1013D000012203460FF017FD6FF01504204604B0FC
:1013E00010BD43785A1E0A2A0BD90393114B02935E
:1013F0000023CDE900330E49012218460FF003FD0A
:10140000EAE70D48002200230DF0F8FD044600280D
:10141000E4D00A4B029300230390CDE90033044942
:10142000012218460FF0EFFCD8E700BF6549010024
:10143000903E0100D84B010000080020F34B010052
:1014400010B5184B88B004461422002101A81B686F
:1014500007934FF0000312F060FA40F20113ADF869
:10146000003001238DF803408DF8023012F0F6F8B9
:101470004FF47A72A0FB020302FB0131C00B40EA79
:101480004140C90BCDE904016846FFF799FF054BC0
:101490001A68079B5A404FF0000301D012F098F8E9
:1014A00008B010BDC45D01202DE9F047834B844E88
:1014B0008449854FDFF8148292B01B6811934FF076
:1014C00000030025824B029303222B462846CDE9D8
:1014D00000550FF0A7FC0FCE07AC0FC496E8030031
:1014E00084E80300774E00240694042106A80AF03D
:1014F00053FB12F0B3F84FF47A72A0FB020302FB25
:101500000133C20B42EA4342069B5340069311F05B
:10151000D4FC069B04955840ADF8280080B2CDE974
:1015200002702346032231462046CDE900440FF0E5
:1015300079FC07A802F0D4FF10F1740F814610D196
:10154000644B0094CDE901430222234631462046F4
:101550000FF068FC4FF42030002111F0FEFF013540
:10156000C1E700280BDA5C4B0390CDE901430094FE
:1015700023460122314620460FF054FCEAE7234679
:10158000032231462046CDE9014800940FF04AFC81
:10159000524B0094CDE901430322234631462046B5
:1015A0000FF040FC00F0DEF9034600285FD04C4B02
:1015B0000390CDE9014300942346012231462046A1
:1015C0000FF030FCB9F1000FC4D1464F3D4DDFF8AC
:1015D00018810E2200210DA812F09FF94FF0FF3262
:1015E0004FF0FF330DA8FFF7DFFC0028F1D09DF886
:1015F0003560731E0A2B5ED89DF83490CDF80880B4
:101600000024CDE903962346032229462046CDE94E
:1016100000449DF836A00FF005FC344B0393344B87
:101620000096CDE9014303220DF1370329462046F8
:101630000FF0F8FB324653460DF13701484603F0F0
:1016400069F810F10B0F06461AD12A4B0094CDE928
:10165000014302222346294620460FF0E3FB264B96
:10166000039602930023CDE9003301221EE0234AB2
:101670000090CDE90102314603220FF0D3FBA1E730
:1016800000280BDA1E4B0390CDE90143009423465A
:101690000122294620460FF0C5FBE0E7194BCDF8A3
:1016A0000C90CDE9014300942346032229461846B5
:1016B0000FF0B8FB8DE7CDE90276D3E7C45D0120DA
:1016C000203F0100983E01004C4C0100A24C01005B
:1016D000384C0100824C0100914C0100B24C0100D9
:1016E000DE4C0100D84B0100294D0100B46401001B
:1016F000225C01004C4D01008A4B0100044D0100A9
:101700006A4D0100824D010030B53F4B3F498FB01B
:101710001B680D934FF0000300253D4B02930322FD
:101720002B462846CDE900550FF08BFB00F0F8FC66
:10173000044698B1374B0390CDE9015301222B4663
:101740003249009528460FF07CFB2F4B1A680D9B01
:101750005A404FF0000354D011F03AFF00F07AFCE9
:10176000044610B12C4B0390E6E7FFF7B9F90446A5
:1017700010B12A4B0390DFE7FFF7F4FD044610B1E8
:10178000274B0390D8E700F015FD044610B1254B18
:101790000390D1E7FFF75CF9234B18680EF068FA65
:1017A000224B1A490094CDE90143032223462046E7
:1017B0000FF047FB2022214604A812F0AEF80623C2
:1017C00004A88DF8103000F069FC194B0F49009403
:1017D000CDE901430322234620460FF032FB154B8F
:1017E0000A490094CDE901430322234620460FF025
:1017F00028FB00F081FC00214FF4A02011F0ADFE89
:10180000F7E720460FB030BDC45D0120A83E0100BF
:10181000B24D0100D14D0100F24D01001A4E010000
:10182000404E0100674E010040400100904E010013
:10183000C74E0100FC4E010038B5074C4FF0FF3297
:1018400020464FF0FF330FF01EFB044B1D7820465F
:101850000FF01BFB284638BD50070020A72B0020A7
:10186000F0B5174F174D8DB006464FF0FF32384692
:101870004FF0FF330FF007FB0FCD07AC0FC42B6801
:1018800023600CAB03EB86030F4C53F8143C04931A
:1018900023780E490CAA02EB8303032253F8143C6D
:1018A00003930B4B029300231846CDE900330FF04E
:1018B000DAFA384626700DB0BDE8F0400FF0E5BA10
:1018C00050070020383F0100A72B0020B83E010040
:1018D0001E4F01001FB500241B4B1C49029303221D
:1018E00023462046CDE900440FF0BDFA18484FF0DA
:1018F000FF324FF0FF330FF0C6FA164B0393164B2F
:1019000002930823CDE900431049234620460422D0
:101910000FF0A9FA114B214618680FF0A1FA50B147
:101920000F4B0390CDE9014308490094234601225F
:1019300020460FF098FA06480FF0A7FA002004B0EE
:10194000BDE81040FFF78CBF324F0100B83E0100E8
:101950003C070020A5520100444F0100F411002073
:10196000734F010030B51D4D1D48286085B011F042
:101970003CFC034660B91B4A1B490090CDE90102BB
:1019800001220FF070FA6FF01204204605B030BD4E
:10199000286883681B689847044658B1134B039026
:1019A00002930023CDE900330F49012218460FF0BE
:1019B0005AFAEAE7286801210FF052FA044610B1FA
:1019C0000B4B0390ECE70B4B07490090CDE901036B
:1019D000032203460FF047FAD7E700BFF4110020B7
:1019E000DC3A01009A4F0100B83E0100AF4F010000
:1019F000D34F0100044D0100F0B57E4B97B01B683A
:101A000015934FF00003FFF717FF0446A8B17A4B78
:101A100002930023CDE900337849022218460FF0E3
:101A200022FA6FF00F05734B1A68159B5A404FF05E
:101A3000000300F0DC8011F0CBFD714B6F4900908A
:101A4000CDE90103032203460FF00DFA0120FFF751
:101A500007FF6C4B69490094CDE9014303222346FB
:101A600020460FF000FA6848684D4FF0FF324FF003
:101A7000FF330FF008FA664B0393664B029308237B
:101A8000CDE900435D492046234604220FF0EBF9DF
:101A9000286801210FF0E4F950B15F4B0390CDE9C4
:101AA0000143564900942346012220460FF0DBF9FA
:101AB00055485A4F0FF0E9F902200024FFF7D0FEF5
:101AC000574B4E490293032223462046CDE900445A
:101AD0000FF0C9F90220FFF7C3FE0826514B474912
:101AE0000293042223462046CDE9004603970FF0D7
:101AF000BAF945484FF0FF324FF0FF330FF0C3F90A
:101B00002868836832469B680CA9984705463E487A
:101B10000FF0BBF9444B39490094CDE90163CDE99D
:101B200003752346042220460FF09DF9002D4DD168
:101B300001238DF838300CAB03CBCDF83900CDF84C
:101B40003D1011F08BFD4FF47A72A0FB020302FBF3
:101B50000131C00B40EA4140C90BCDE912013348C5
:101B6000002200230EA90DF049FA48B1304B234959
:101B70000095CDE9015302222B4628460FF073F958
:101B80009DF837300A939DF8363009939DF835302B
:101B900008939DF8343007939DF8333006939DF8F1
:101BA000323005939DF8313004939DF83030039323
:101BB000204B029300231846CDE900330F4903223E
:101BC0000FF051F90320FFF74BFE2CE71A4B0B499E
:101BD0000395CDE9014303222346204600940FF0EC
:101BE00042F92046FFF73CFE6FF03C051BE7284614
:101BF00017B0F0BDC45D0120F84F0100B83E0100F0
:101C000016500100285001003C070020F41100206C
:101C10004D520100385001006A5001003552010058
:101C200093500100AE500100D15001006008002027
:101C3000F9500100255101005B5101001FB500243E
:101C4000074B08490293204623460322CDE900446E
:101C50000FF009F9FFF73EFE204604B010BD00BFAB
:101C600074510100B83E0100F0B5534B5349544D37
:101C7000544E554FA3B01B6821934FF00003534BB4
:101C800002930023CDE90033032218460FF0EBF84E
:101C90004FF0FF334FF0FF320CA928460DF008FA41
:101CA00003460028F4D19DF8302044490297CDE93D
:101CB00003620822CDE9000204220FF0D4F89DF857
:101CC0003030032BE4D8DFE803F002055C74FFF743
:101CD00093FEDDE79DF838300A939DF8373009937D
:101CE0009DF8363008939DF8353007939DF83430D1
:101CF00006939DF8333005939DF8323004939DF898
:101D0000313003930024324B2C49029303222346A3
:101D10002046CDE900440FF0A6F801210320FEF78C
:101D2000B1FFDDF83100DDF8351007238DF86030A4
:101D30001AAB03C3DDE9102318A8CDE91C23012346
:101D40008DF8783000F0AAF940F66433ADF84830E9
:101D5000DDF83130CDF84B30DDF83530CDF84F308F
:101D6000BDF840309DF842208DF84A405BBA12A879
:101D70008DF85320ADF85430FFF722FBFFF7AAFD92
:101D800086E70024134B029320462346CDE9004406
:101D90000A4902220FF067F808238DF86030DDE968
:101DA000102318A8CDE91C238DF8784000F076F9AF
:101DB000E4E7FFF743FF6BE7C45D0120B83E010095
:101DC00060080020B4520100A151010086510100B9
:101DD000BE510100F85101001FB5074B02930023CB
:101DE000CDE900330549032218460FF03CF805B051
:101DF0005DF804EBFFF700BE1B520100B83E010086
:101E0000F0B57D4B7D497E4F7E4E99B01B68179390
:101E10004FF000037C4B02930023CDE900330322F3
:101E200018460FF034F84FF0FF324FF0FF330EA991
:101E300038460DF03DF90028F5D19DF83830082BD3
:101E40005ED8DFE803F00505333345475365890065
:101E50009DF850006D496E4B9DF84020002818BF3A
:101E60000B46CDE903236B4B02930023CDE90033EE
:101E70001846624903220FF00AF89DF85030002BF3
:101E80003ED09DF840308DF8303003238DF831304E
:101E90000CA84FF47A730D93FEF76AFE9DF840008C
:101EA000FFF7CEFA5C4800F0A1FA29E09DF8413036
:101EB00004939DF840300393584B02930023184637
:101EC000CDE900334D4903220EF0E1FF5448EAE723
:101ED0005448E8E7544B029300231846CDE90033F9
:101EE000464901220EF0D3FF5048DCE7504B0293E5
:101EF0000023CDE900334149032218460EF0C7FF05
:101F00003578052D8FD8DFE805F0333A6069336FF7
:101F10009DF847300A939DF8463009939DF8453067
:101F200008939DF8443007939DF8433006939DF83D
:101F3000423005939DF8413004939DF8403003935F
:101F40003C4B029300231846CDE900332B49032272
:101F50000EF09DFF3848A6E7384B02930023184641
:101F6000CDE90033254902220EF091FF34489AE76B
:101F70009DF83830062B7FF456AF012405E09DF81C
:101F80003830002B7FF44FAF02244FF0FF324FF078
:101F9000FF332C480DF0EEF834702A480DF062F94A
:101FA000294B164953F8242053F825300393274B27
:101FB000029300230492CDE90033032218460EF069
:101FC00066FF23480DF09EF92DE79DF83830042B6D
:101FD00010D0052B7FF427AF0424D6E79DF83830C6
:101FE000022BCAD0032BF5E79DF83830002B7FF485
:101FF0001AAFC2E70324C8E7C45D0120E83E010030
:1020000090080020A82B0020D1520100E0450100DB
:10201000E8450100EE520100FB520100135301009C
:10202000234B01002F530100465301005C53010074
:102030006A53010077530100B7530100F8510100C2
:10204000C95301001012002044400100DB5301007D
:10205000F81100201FB50C4811F086F9012200216B
:102060000A4811F088F90A4B0A4900241C700A4BEF
:102070000094CDE901432046234603220EF007FFDA
:10208000204604B010BD00BF10120020F81100203F
:10209000A82B0020E83E0100F65301001FB50146C1
:1020A00068B9114B11490090CDE9010301220346A3
:1020B0000EF0EDFE6FF01504204604B010BD0C4884
:1020C000002200230CF09AFF04460028F4D0094BAC
:1020D000029300230390CDE90033044901221846FE
:1020E0000EF0D5FEE8E700BF10540100E83E010005
:1020F000900800202354010038B5074C4FF0FF3200
:102100004FF0FF3320460DF035F8044B1D78204684
:102110000DF0A8F8284638BD10120020A82B00208A
:1021200030B585B000251A4B1A49029303222B467D
:102130002846CDE900550EF0B9FEFEF7ADFB04468A
:1021400068B1154B0390CDE90153124900952B4618
:10215000012228460EF0AAFE204605B030BDFEF74B
:1021600031FE044610B10D4B0390ECE7FEF786FFFD
:10217000044610B10A4B0390E5E70A4B054900906D
:10218000CDE90103032203460EF090FEE4E700BF11
:102190006F540100383E0100825401009A5401003E
:1021A000AF540100C754010001480DF05BB800BFF7
:1021B0002412002030B585B0124811F0D5F811F086
:1021C0004DFA4FF47A72A0FB020302FB01310E4D6F
:1021D000C00B002440EA4140C90BC5E900012022A0
:1021E00021460A4811F099FB094B0A490094CDE9B0
:1021F00001432046234603220EF067FE204605B029
:1022000030BD00BF24120020680E0020700E002098
:10221000E6540100003F010038B5044688B10A4D7C
:102220000A484FF0FF324FF0FF330CF0A3FF0FCD01
:102230000FC495E80F0084E80F00FFF7B5FF0020FA
:1022400038BD6FF01500FBE7700E0020241200204F
:10225000F0B58FB0564B02930023CDE900335549BA
:10226000554F564D032218460EF02FFE4FF0FF3308
:102270004FF0FF3238460CF07DFF6B690A2B00F2FD
:102280009480052B94BF002301234D4E337011F031
:10229000E5F94FF47A72A0FB020302FB0131C30B94
:1022A0004848D0E9002043EA41439B1A4FEAD13124
:1022B00061EB0001C5E90631FFF776FF06A8FFF7DD
:1022C000ABFF044600286AD13F4B3A490090CDE964
:1022D0000103032203460EF0F8FD069B03933B4BDC
:1022E00034490094CDE901430322234620460EF0F1
:1022F000ECFD079B0393364B2E490094CDE9014337
:102300000322234620460EF0E0FD089B0393314B49
:1023100028490094CDE901430322234620460EF0CC
:10232000D4FD099B03932C4B22490094CDE9014332
:102330000322234620460EF0C8FD0A9B0393274B39
:102340001C490094CDE901430322234620460EF0A8
:10235000BCFD0B9B0393224B16490094CDE901432E
:102360000322234620460EF0B0FDDDE90C23CDE923
:1023700004231C4B0F490094CDE90143032223465B
:1023800020460EF0A2FD33780393174B09490094C1
:10239000CDE901430322234620460EF096FD00219D
:1023A0004FF4A02011F0D9F860E702236DE700BFD9
:1023B00001550100003F010024120020700E002092
:1023C000A92B0020680E00201F5501002F55010089
:1023D0004355010053550100655501007855010032
:1023E0008B5501009F550100B15501001FB50446F2
:1023F000002852D02B484FF0FF324FF0FF330CF043
:10240000B9FE29492046FEF719F838B9274A13685A
:1024100001331360FFF7C8FE002040E02449204646
:10242000FEF70CF820B9214A536801335360F1E7F5
:1024300020492046FEF702F820B91C4A9368013370
:102440009360E7E71C492046FDF7F8FF20B9174ADB
:10245000D3680133D360DDE718492046FDF7EEFF6E
:1024600020B9124A136901331361D3E71449204696
:10247000FDF7E4FF20B90D4A536901335361C9E701
:10248000104B02930023CDE900330F49039402223D
:1024900018460EF01AFDFFF787FE6FF0150004B026
:1024A00010BD00BF24120020FB520100700E00205E
:1024B000234B0100AA4B0100BE5501002F53010020
:1024C0005C530100CB550100003F01002DE9F04FA6
:1024D00093B084070093944B03921B6811934FF0C1
:1024E0000003039BDDF8708003F004030293039B59
:1024F000C3F3C20303F1010305460E46059340F002
:10250000C481041D68B1072910D86FF01B00864BE9
:102510001A68119B5A404FF0000300F0B98111F086
:1025200057F801F007063444C6F10806009B4FF047
:102530000009591E4FF0040A4FF0FF330193CDF804
:1025400010904F46CB4653460DB1009A2260059835
:10255000002800F3EF807548009A824203D3744844
:102560008242C0F0E780039AA4EB050E92074FEA7F
:102570009E0000F10A810F2F00F2B180002D00F0C3
:102580000C8107F148020DEB020C019A0CF8240CA7
:102590000CF8142C049801300490EEE07A285DD8F1
:1025A0004B280ED8472859D829282DD8252852D06D
:1025B00054D820287AD02338D0F1000B4BEB000BF5
:1025C00074E04C382E2849D8DFE800F070484848BD
:1025D00048484848484848484B4848484848484878
:1025E0004859484B4B595959704B6D487048184BD6
:1025F000184848827F4B48484B487F0000204FF0E6
:10260000000B4FF0040A38E02A38C0B2012202FA67
:1026100000F010EA0E0F49D110F0625C2FD110EAE1
:10262000020B43D06046013C5444B4FBFAF40AFB6D
:1026300004F4002D61D0A3EB050CA444B4453FF68F
:1026400064AF002868D1042B47D158F8043B2360BD
:10265000043404232AE0019A013A01924FF0000B5E
:1026600024E011F8010C6C2834D111F8023C002050
:102670006C2B8346C5D14FF0080A5346D3E708F1C7
:10268000070828F007080734F8E802AB24F007042D
:1026900035B106982044B0423FF637AFC4E900ABED
:1026A00008344FF0000B4FF0080A534611F8010FA1
:1026B00000287FD0BBF1000F7FF470AF2528F5D143
:1026C000019B013301934FF0010B4FF0040AECE73B
:1026D000584694E700208346A5E7082B02D06FF008
:1026E000150014E708F1070828F00708F8E80223A6
:1026F000C4E9002308340823D8E768B9042B02D1C1
:1027000008F10408A4E7082BE9D108F1070828F02C
:10271000070808F10808EDE7059A013A059258F80C
:10272000042B009210E700BFC45D0120043A0100B1
:10273000546B0100039A900720D5A4EB050E4FEAD5
:102740009E004FF0010CBEF5007FC8D20F2FC6D8F7
:10275000F5B107F148020DEB020EC0B2019A0EF876
:10276000240C0EF8142CBCF1000F3FF413AF60F0F2
:102770007F000EF8240C09F101090137C5F10802A8
:10278000043406924FF6DA7E90E74FF0000CDAE759
:10279000BCF1000F01D00136EFE7029802360028A5
:1027A000EBD10098CDE90631FDF752FEDDE90631A7
:1027B0000644E2E7631BB3F5806F90D21DB9A6F122
:1027C0000804E018A3E6029A28609B082B709DF885
:1027D0001030C2B1EB7085F80290B9F1000F05D04E
:1027E00009A80022C5F1010C97420ED1C5F10103E1
:1027F0000DF124084FF0000A01930DF1340B5745F9
:1028000012D1601B83E66B70E5E710F8013B1906F7
:1028100008D50CEB040EB64503F07F033FF675AE0A
:1028200004F8013B0132DFE7B9F1000F03D098F95A
:102830000020002A17DB029BD3B11AF80B2004F802
:10284000012B0022019B18191044B0423FF65DAEE7
:1028500098F8000004F8010B00990392204611F04B
:102860004EF8039A14440AF1010A08F10108C6E778
:1028700098F8002055F822300093029B45F822304A
:102880000098FDF7E5FD421CDCE76FF00D003EE629
:1028900013B0BDE8F08F00BF80B505460E46174661
:1028A00098460DF00BFA034611F0A2F8DFF81890E5
:1028B000044649F80030424630463946A84754F8A5
:1028C000090001F0B5F900BF0800000008B5044692
:1028D000EFF31183202383F31288BFF36F8F0AF085
:1028E00021FB204601F0B0FC02480EF00EFC0EF079
:1028F000EBFDFCE7185601002DE9F047058B044677
:102900002807904611D4022905F0070540F0CC8035
:1029100020460EF007FC78B10138218B042811D82D
:10292000DFE800F0C2106D85950001290CBF45F06D
:10293000100545F02005258388F31188BFF36F8FBC
:10294000BDE8F08701F0070AAA4500F0A58000273E
:10295000B9463E46A368002B00F0BC8041F0080158
:10296000218388F31188BFF36F8FA168002900F0DD
:10297000BA800D68002900F0B680D1F80480334693
:1029800052462046C047002D76D02B6829461D466A
:10299000F0E701F007035A1F012A1BD8002221F09B
:1029A0000701062B276889B2C4E9002209D13B46FA
:1029B00003E0628B013262831B68002BF9D141F086
:1029C0000201218320460EF0ADFB00287AD041F0B1
:1029D000200176E0042B0AD121F0070189B221837E
:1029E00020460EF09FFB10B141F020012183218B86
:1029F00001F0070AAA454FD00027B946AAE7236984
:102A000021F0070141F00601062DD3F80090218343
:102A10002DD1B9F1000F3FD041F00801218388F397
:102A20001188BFF36F8F3A492046C84729E021F04B
:102A30000701236941F0040189B2042DD3F8049001
:102A40002183E6D000273E464FF0040A82E721F0BA
:102A50000701236941F0050189B2052DD3F80890DB
:102A60002183D6D000273E464FF0050A72E70027A3
:102A70003E464FF0060A6DE72B4687E7B9F1000F97
:102A8000D1D1EFF31188202383F31288BFF36F8F26
:102A9000238B23F008032383258BEA062ED525F00C
:102AA0001003238305F007056669218B002EBFF60E
:102AB00070AF00232768C4E9003321F0070141F01B
:102AC00001012183218B01F0070AAA454FF000097B
:102AD0007FF440AF002F9CD041F00801218388F3A0
:102AE0001188BFF36F8F002FC8D03D683946334639
:102AF000524620460EF042FB2F46F4E7AB067FF528
:102B00001BAF25F02003238305F0070500E700BF76
:102B1000A91101002DE9F84F81462F480F460EF00C
:102B2000ECFB064670B92D4CDFF8B4A00546A04674
:102B30004FF0010B544507D3B9F1000F02D04FF00D
:102B4000010AE5B9BDE8F88F237B6BB12368DB6828
:102B50000BB12046984723681B6943B96368042278
:102B60001968204600F0C8F801361034E2E7204624
:102B700098470028F2D00BFA06F31D43F4E7A94664
:102B800095FAA5F4B4FA84F40AFA04F3260108EBE2
:102B900004146FEA030B25EA0305237B63B158F89D
:102BA00006301B6993B946440422736820461968AD
:102BB00009EA0B0900F0A0F8002DE1D127B14FF48C
:102BC000A470002110F0C9FC4D46BAE72046984792
:102BD0000028F1D1E7E700BF40120020083F0100C4
:102BE000183F0100014B53F8200070475C40010082
:102BF00008B5034608462BB1044A136000F092FA68
:102C0000002008BD6FF01500FBE700BFDC040020CA
:102C1000054A064800231370054A1360054A4FF41D
:102C200000411360FFF7E4BFAA2B0020F712010058
:102C3000381200203C12002070B50B4D297841B9A4
:102C40000120FFF767FF094C094EB44202D301236C
:102C50002B7070BD63685B791BB1236820469B684D
:102C600098471034F1E700BFAA2B0020083F01006D
:102C7000183F010010B5044608480EF03EFB5CB159
:102C8000BFF35B8F064B53E8001F013943E8001286
:102C9000002AF8D1BFF35B8F10BD00BF38120020AF
:102CA0003C12002070B50A4B0A4C1B680A4E0546C0
:102CB0009847A860B44200D370BD63685B7923B1C4
:102CC000236829461B68204698471034F2E700BF66
:102CD000DC040020083F0100183F0100044A054BB6
:102CE0009B1AB1EBD30F34BF52F83100002070476C
:102CF000383E0100083F0100084BC31A10B41B11F5
:102D000044680133237143689A71436819604368CA
:102D100001225A7110BC0EF012BB00BF083F010027
:102D20002DE9F04F87B004AFD7E90EA993462C4A9E
:102D30003D6B04460E46984612687A604FF00002DA
:102D4000BAF1000F23D0C7F80090CDF80090102101
:102D50007A6B53460020FFF7B9FBB0F5006F0146D0
:102D600016D340F2FF7303931E4B02930023CDE969
:102D700000331D49022218460EF0FDFA184B1A685E
:102D80007B685A404FF0000326D010F021FC5146DA
:102D900004F007040BF0070BE40044EA8B1444EA48
:102DA000412444EA055417350D4425F00705ADEBE1
:102DB000050D04ADBAF1000F07D0CDF800907A6B85
:102DC000534605F11000FFF781FB4346224631468A
:102DD00028460EF0B7FAD1E70C37BD46BDE8F08FB4
:102DE000C45D01204E560100783E0100406820B1CC
:102DF000034BC01A40F3CF0070474FF0FF307047CD
:102E0000383E01000EB403B503AB014653F8042B62
:102E10000448019301F0BEF902B05DF804EB03B081
:102E2000704700BFB3130100CA0605D48B064CBF20
:102E300002490349FFF7E6BF704700BF875601000C
:102E4000865601002DE9F04F87B004469DF8446096
:102E50000D4690469946002E00F0A280159B03F087
:102E6000020A03F001030493159B03F0080B03F41B
:102E7000807305930EF064FA024600283DD0954910
:102E80002046FFF7BFFF0746BAF1000F09D0159B98
:102E900013F0440F33D190492A462046FFF7B2FF82
:102EA0000744049B53B18D4B8D4953F826208D4B1D
:102EB0002046002A08BF1A46FFF7A4FF059B002BF7
:102EC00049D0BBF1000F64D1B8F1000F66D086493C
:102ED00042462046FFF796FF0546129B3D44002BD5
:102EE0006DD1149B002B73D1159BDB0700F1EB8098
:102EF00015992046FFF798FFD8E00746C4E77B4BBB
:102F000018680028CCD07A4B4FF47A7A1B68B5FB4E
:102F1000F3F54FF46163B5FBF0F100FB11550AFBCB
:102F200005F54FF03C0CB1FBF3F203FB1211B5FBBE
:102F3000F0FEB1FBFCF300FB1E550CFB13110AFB6A
:102F400005F50091B5FBF0F56A49CDE901E52046AC
:102F5000FFF758FFA4E7BBF1000F1DD0664B674990
:102F600053F826202046FFF74DFF0546B8F1000F25
:102F700005D05D4942462046FFF744FF0544B9F1BC
:102F8000000FAAD05E494A462046FFF73BFF0544A2
:102F9000A3E74FF00009E1E75D46E7E745469CE718
:102FA000B9F1010F129B06D1002B66D1149B002BA7
:102FB0007CD000250CE0002BF8D052485EE052484F
:102FC000129B524922460EF06FF8149B002B6AD0D8
:102FD000DFF83C81DFF83C91149F1599102F2046B3
:102FE00028BF1027FFF720FF4FF0000B5D4547DC9F
:102FF000139B49461A782046FFF704FF4FF0010B58
:103000001BF0070F03D141462046FFF7FBFE5F454B
:103010003DD9139B494613F80B202046FFF7F2FEDB
:103020000BF1010BBBF1100FEAD13B49DFF8ECB01B
:1030300020464FF0000AFFF7E5FE5246139B9A5CCC
:10304000A2F120015F2928BF2E2259462046FFF712
:10305000D9FE0AF1010ABAF1100F1DD01AF0070FBC
:1030600003D141462046FFF7CDFE57455246E5D8ED
:1030700041462046FFF7C6FEEBE7234835469FE76B
:1030800041462046FFF7BEFE0BF1010BAEE7244997
:103090002046FFF7B7FEC3E7139B3B441393149BF3
:1030A000DB1B149398D1002E7FF41EAF6268A168D9
:1030B0002068D2E900230EF06EF9636800221A60DE
:1030C00007B0BDE8F08F074A05492046FFF79AFE92
:1030D0000EE700BF8E560100925601006C400100C1
:1030E000225C010089560100B756010048120020F9
:1030F000441200209B56010080400100BB56010095
:10310000C1560100CF130100B31301009541000027
:10311000CE560100C6560100D0560100D25601001D
:10312000CC560100074A00210123904206D8064AE6
:1031300001B901231360054B1860704740085B001C
:103140000121F2E740420F00441200204812002003
:10315000014B01221A707047AB2B0020014B00205D
:10316000196070476012002010B5064B18680C46B5
:10317000FFF738FD21460346BDE8104002480F2204
:10318000184700BF60120020B0400100F8B5094D9B
:10319000094B0A4ED5E9004701221A700CB92C6080
:1031A000F8BD214630463A4600F00AF8241A064493
:1031B000F4E700BF54120020AC2B0020AD2B002000
:1031C000F8B5194D07460E4604243246394600200C
:1031D0000BF0A2F8C8B101232B70144B1B782BB94C
:1031E0003046F8BD5CB92C704FF0FF3400200BF076
:1031F000D7F80028F4D02B78002BF3D1F0E7013C6E
:1032000041F288300FF0ECFFF0E72B7813B1013C6E
:1032100004D12C702B78002BD7D1E1E741F2883014
:103220000FF0DEFFF6E700BFAB2B0020AC2B002039
:10323000014B036000207047C040010008B50448FE
:103240000DF063FFBDE8084002480DF05EBF00BF0F
:10325000055701003A57010001480DF029B900BF98
:10326000C040010038B5044618B90F4B0F485B68E1
:1032700098476168B1F5683F10D0B1F5680F0DD07F
:103280000B4DA9420AD011F46861206807D00146AD
:10329000084810F012F800232360656038BD14223E
:1032A00010F03BFBF9E700BF200600206857010043
:1032B0002C5F5CA96417002008B520B34368B3F500
:1032C000683F10D101220368BFF35B8F53E8001FF2
:1032D000002903D143E800200028F7D1BFF35B8F1A
:1032E0000DD1002008BD094A93420AD000684FF072
:1032F000FF324FF0FF330BF03DFF0028F1D00448C0
:10330000F0E70448EEE76FF4E040EBE72C5F5CA9E0
:10331000E98FFFFFEA8FFFFF08B5D8B14368B3F527
:10332000683F10D100220368BFF35B8F53E8001F92
:10333000012903D143E800200028F7D1BFF35B8FB8
:103340000BD1002008BD074A934208D000680BF05B
:1033500089FFF6E76FF4E040F4E70348F2E703483B
:10336000F0E700BF2C5F5CA9E98FFFFFEA8FFFFF4A
:1033700010B5044618B91D4B1D485B689847636833
:10338000B3F5683F2FD0B3F5680F2CD0194A93429C
:1033900019D1236803BB18484FF0FF324FF0FF33B9
:1033A00021460BF0FDFD08B923681BB90F4B1348EC
:1033B0005B68984720681422002110F0AEFA4FF4A1
:1033C0006863636008E0B3F5683F0DD83A2B03D01B
:1033D00040F6BA629342DED120680FF0C5FF636801
:1033E00043F03A03636010BD054AF3E7200600206E
:1033F000685701002C5F5CA9641700208E570100FC
:103400003A00003A08B506490648402314220FF056
:1034100046FFBDE80840044904480DF0BBB800BFB2
:103420006412002064170020C8400100DC40010045
:1034300070B5064686B00D46002938D08B680593D6
:103440004B6804930B6803930024244B2449029394
:10345000012223462046CDE900440DF0FFFF6B69B1
:1034600005932B690493EB6803931E4B1C4900944E
:10347000CDE901430122234620460DF0EFFFEB6921
:103480000393194B16490094CDE9014301222346C9
:1034900020460DF0E3FFAB690393144B10490094F1
:1034A000CDE901430122234620460DF0D7FF012E2E
:1034B0000DD1EFF30583103B03930D4B02930023D3
:1034C000CDE900330649324618460DF0C7FF2946BC
:1034D000304606B0BDE870400BF07ABBBB57010028
:1034E000C03E0100EA5701001958010028580100A8
:1034F0005658010030BFFFF7FDBF00BF2DE9F04176
:103500000B4EDFF8308006EB0807CC1B0546324631
:103510000949204610F0F3F9A01942460021083C61
:1035200010F0FBF96C6707F10800BDE8F08100BFFF
:103530000000000004000000183F0100074A9368E3
:1035400093F90E10002907DB526993421FBF044A0A
:10355000536843F080535360704700BF94290020A4
:1035600000ED00E0F0B585B00024434B0293CDE9B7
:103570000044234607460E460122404920460DF0EE
:1035800088FF3F4B9B6ADB0465D53E4B3B4900946B
:10359000CDE901432046234601220DF07AFF172092
:1035A000374B9B6A1D050AD5374B029300231846FB
:1035B000CDE90033314901220DF06BFF1820304D69
:1035C000AB6A9C051FD50024304B02930122234691
:1035D0002046CDE9004429490DF05BFFAB6BAA6A98
:1035E00010040FD503932A4B24490094CDE90143DD
:1035F0000122234620460DF04CFF1FB1AB6A23F495
:103600000043AB6219201E4B9B6A59050AD5214B1A
:10361000029300231846CDE90033184901220DF02A
:1036200038FF1A20164A936A13F4807315D01A4B88
:10363000029300231846CDE90033104901220DF012
:1036400028FF1B200E4A936A43F47F4393620023B2
:10365000337005B0F0BD1620A2E7926A9204F1D54E
:103660000E4A06490093CDE90132184601220DF0B9
:1036700010FF1C20E6E700BF69580100C03E0100B2
:1036800000ED00E07F58010090580100A3580100B0
:10369000BC580100D1580100EC5801000459010048
:1036A0001FB50024374B029301222346CDE9004485
:1036B000354920460DF0EDFE344B9B6A9A015ED5EC
:1036C000334B31490094CDE9014320462346012282
:1036D0000DF0DFFE1E202D4B9B6ADB010AD52D4B22
:1036E000029300231846CDE90033274901220DF04B
:1036F000D0FE1F20254B9B6A1C030AD5264B029344
:1037000000231846CDE900331F4901220DF0C1FE08
:1037100021201E4B9B6A59030AD5204B029300239C
:103720001846CDE90033184901220DF0B2FE2220DF
:10373000164B9B6A9A030AD5194B0293002318462D
:10374000CDE90033104901220DF0A3FE23200F4BD9
:103750009B6ADB030AD5134B029300231846CDE97D
:103760000033094901220DF094FE2420074A936A90
:103770006FEA03436FEA1343936204B010BD1D2048
:10378000A9E700BF33590100C03E010000ED00E091
:103790004B5901005E59010078590100965901000A
:1037A000BB590100D55901002DE9F04385B0002433
:1037B0004D4B0293CDE90044234680468946164688
:1037C0004A49012220460DF064FE494B9B6ADF0600
:1037D00040D5484B0094CDE9014320462346434958
:1037E00001220DF056FE1124414B9B6A1D070AD59C
:1037F000414B02930023CDE900333C490122184696
:103800000DF047FE12243A4DAB6A980724D50024E8
:103810003A4B36490293CDE9004423460122204623
:103820000DF037FE6F6BAB6A190659D5344B2F4933
:103830000397CDE9014300942346012220460DF071
:1038400028FEB9F1000F03D0AB6A23F08003AB620E
:10385000132403E01024C7E76FF01507244B9B6A7D
:10386000DA070AD5274B02930023CDE900331F491D
:10387000012218460DF00DFE14241D4B9B6A9B0679
:103880000AD5214B02930023CDE9003317490122C9
:1038900018460DF0FEFD1524154B9A6AD50602D484
:1038A0009A6A90070AD55B68190507D541463846DC
:1038B00000F098FA10B180F3098802240C4B9A6A40
:1038C000920642BF5A6A22F400525A629A6A42F041
:1038D000FF029A6220460023337005B0BDE8F083F2
:1038E0006FF01507B4E700BF005A0100C03E0100A9
:1038F00000ED00E0165A010090580100495A0100FD
:10390000615A0100775A0100045901002DE9F04184
:10391000754B5F6890B00446C7F30806002383F335
:103920001188BFF36F8F02F07F40B0F17F4F0CD151
:1039300002F00C00082819D16C4A6D490093CDE9BA
:103940000132184601220DF0A4FD00252C464FF04F
:103950000008F31E8DF81F80092B00F2AC80DFE811
:1039600003F00BA0A49CAAAAAAAAAAA8120746BF61
:103970000C461D460125EAE75E4B5D495A4FCDF8DE
:103980000080CDE901830023012218460DF081FD5E
:103990008DF81F80FE6A16F0020605D0564BCDF852
:1039A0000080CDE9018306E0FB6A002B0BDA534B64
:1039B0000096CDE9016300234D49012218460DF020
:1039C00068FD00223BE0FB6A5B00FAD54C4B48499E
:1039D0000096CDE901630122334630460DF059FDD2
:1039E0007B69A26943F480737B61BFF34F8FBFF3A0
:1039F0006F8F7B6932F8022C23F480737B61BFF3F5
:103A00004F8FBFF36F8F4DF602739A420AD0BB6A95
:103A1000DBB2002B33D00DF11F0201212046FFF74E
:103A2000C3FE3CE023680393364B31490096CDE951
:103A300001630122334630460DF02BFD22689DF8CC
:103A40001F30CBB908AE04F1200720686168334607
:103A500003C30834BC421E46F7D10F9B002D3ED055
:103A6000C3F3080121B96FEA53236FEA43230F938D
:103A700008A91046FFF7DCFC10B0BDE8F081BB6A76
:103A800013F47F4F05D00DF11F010120FFF76AFDF0
:103A900005E0BB6AB3F5803F93D3FFF701FE024612
:103AA000CDE70DF11F020021B8E70DF11F01002045
:103AB000ECE7154B73E7154A154B0D4917F4F87FE2
:103AC00018BF1346103ECDE90336124B0293002374
:103AD000CDE90033012218460DF0DBFC71E723F439
:103AE000FF7323F00103C2E700ED00E0C45A0100B8
:103AF000C03E0100EF5A0100065B0100275B010098
:103B0000355B0100545B0100705B0100AB5A0100A2
:103B1000965A0100945B0100044B5A6942F010026E
:103B20005A615A6922F008025A61704700ED00E0BC
:103B3000EFF30880EFF3098101B57246FFF7E6FE67
:103B400001BD00BF002080F31488BFF36F8F1348BE
:103B500080F3088809F018FA002011490860BFF3C3
:103B60004F8F00F033F8202080F311880D484FF07C
:103B7000AA014FF404620FF073FB0A484FF404618A
:103B8000401880F30988EFF314800221084380F382
:103B90001488BFF36F8F00F0EDF80000801801204B
:103BA00094ED00E0C0CE00200749D1F8902000231A
:103BB000C2F307221846934200DB7047C1F89830E1
:103BC000C1F8A0000133F6E700ED00E008B572B6D9
:103BD000002383F31388FFF7E7FF144B4FF0FF3206
:103BE000C3F88020C3F88420C3F88820C3F88C2051
:103BF000C3F89020C3F89420C3F89820C3F89C2001
:103C0000C3F88021C3F88421C3F88821C3F88C212C
:103C1000C3F89021C3F89421C3F89821C3F89C21DC
:103C200062B6BFF34F8FBFF36F8F08BD00E100E0B6
:103C3000084B9B6883420BD1EFF3058343B1064BDE
:103C40005A6842F080525A605A6A22F400425A621C
:103C50000CF03AB89429002000ED00E015498A687C
:103C60004FF030001044EFF3098C80E8F01F202063
:103C700080F31288BFF36F8F0F4F4FF000664A69D1
:103C80008A603E604FF07404141920680B4C206069
:103C9000906F0023936780F3118804B5104600F0FD
:103CA00005F9BDE8044002F1300090E8F01F8CF304
:103CB000098870479429002004ED00E08017002057
:103CC0001EF0040F0CBFEFF30880EFF30980816949
:103CD00011F8021C0229FFD001B572460DF0CEFB8F
:103CE00001BD00BF40B2002807DB044A410901239F
:103CF00000F01F00834042F82130704700E100E0EF
:103D000040B200280CDB4309064900F01F002033B5
:103D10000122824041F82320BFF34F8FBFF36F8F02
:103D2000704700BF00E100E0054B420900F01F00B2
:103D300053F82220012303FA00F01040704700BF1F
:103D400000E100E040B20028A8BF00F1604001F1AE
:103D50000101B8BF064B4FEA4111ACBF00F561400D
:103D600000F00F00C9B2B4BF195480F800137047B7
:103D700014ED00E00B4A08B50B4B22F07F029A606D
:103D8000BFF34F8FBFF36F8FD3F8882022F47002F8
:103D9000C3F888200AF0FAFF0CF0B6F800F05CF8DF
:103DA0000BF070F80000000000ED00E042F8203C4D
:103DB000009B42F81C3C0A49019B42F8183C029BBC
:103DC00042F8143C21F001014FF0807342F8043CAA
:103DD00042F8081C0023203A02658367704700BF41
:103DE00099280000094A0346906870B113F1160F34
:103DF000406E05D0A0F140029A4205D8834203D21A
:103E0000814228BF0020704700207047942900207D
:103E100008B51546094A0A4B9060426F1A600E4673
:103E200000F044F82C4686F309880020054B98479B
:103E30002046002100220023034C20479429002023
:103E400080170020BB14010099280000014B1022AC
:103E50001A61704700ED00E0044800232021C218D9
:103E60000133302B82F80013F9D1704700E100E0F4
:103E700008B5EFF30583064A103B02EBC30152F885
:103E8000330049688847BDE80840FFF757BB00BFCB
:103E9000043B0100024B034A0348012100F096B89D
:103EA0000000042000000020EC400100426E054BA1
:103EB000403A1A60044A4021C3E901121846012120
:103EC00000F08EB88417002000000B151FB5144AAF
:103ED000D2F89030C3F30723013B98420FD9114B1E
:103EE000029300230390CDE9003318460E490122C6
:103EF0000DF016FB6FF0150005B05DF804FBC2F87D
:103F000098000B6823F01F03034343F01003C2F82B
:103F10009C308B6843F00103C2F8A030ECE700BF8F
:103F200000ED00E0AB5B0100B03E0100F0B50E46D5
:103F300089B01F4604460025B54212DA606838B3DE
:103F4000BFB1431E18420FD0134B02930023CDE99B
:103F5000003312490395012218460DF0E1FA6FF083
:103F60001502104609B0F0BD1F28EDD921680B429B
:103F7000EAD1236805930DF0C3FAA36805A90343AA
:103F8000D0B20793FFF7A2FF10F1160FE7D0421C43
:103F900001350C34D0E700BFD15B0100B03E010019
:103FA000044B0522C3F89420BFF34F8FBFF36F8FEC
:103FB000704700BF00ED00E0BFF35F8F024B0022AF
:103FC000C3F89420704700BF00ED00E010B5034C2B
:103FD00001232278FFF7AAFF207010BDAE2B00202E
:103FE00008B50B4A00231278FFF7A0FF10F1160F57
:103FF00007D0084A0021D2F89030C3F30723984233
:1040000000DB08BDC2F89800C2F8A0100130F2E74A
:10401000AE2B002000ED00E02DE9F0435748584951
:10402000D0F890300D68C3F307239D4285B000F2AD
:10403000A180FFF7C1FF49680022954201F10C0100
:104040001AD1504C504F25706846FFF7F1F8DFF851
:104050003C81DFF83C9106460025AE421FD1237813
:1040600046490020D1F89020C2F3072293427BDB1F
:10407000FFF796FF00204CE0C0F8982051F80C3C68
:1040800023F01F03134343F01003C0F89C3051F892
:10409000043C43F00103C0F8A0300132CDE70098A2
:1040A00000EB05114FEA051CCB683B40B3F5000F50
:1040B00044D00AD8B3F5001F2ED0B3F5800F34D00A
:1040C000B3F5801F10D00135C7E7B3F1807F3ED034
:1040D000B3F1007FF7D150F80C3088684A680DF0D2
:1040E0000FFA40F4802009E050F80C3088684A68E4
:1040F0000DF006FA40F0885040F43020039001A9FA
:104100002078CDE90123FFF7E1FE002828DA6FF0DF
:10411000150005B0BDE8F08350F80C3088684A6897
:104120000DF0EEF940EA0800E8E750F80C30886836
:104130004A680DF0E5F940EA0900DFE750F80C3075
:1041400088684A680DF0DCF940F08270D6E750F8D4
:104150000C3088684A680DF0D3F940F08870CDE7DC
:10416000237801332370AEE7C1F89830C1F8A0007E
:10417000013377E74FF0FF30CBE700BF00ED00E001
:10418000F8400100AE2B00200000F0FF00000811F5
:1041900000000202F0B587B007460E461446002123
:1041A000102268461D460FF0B8FB02238DF802303E
:1041B0002A46054B019321466846CDE904760CF06A
:1041C0001FFB07B0F0BD00BF4115010008B506494F
:1041D000064821F00701C1F1005202F580220CF0DF
:1041E0000BFF002008BD00BF6F5E0120901700206C
:1041F0000E4A0123C2F840354FF080424FF0805103
:10420000C2F87835D1F83001082808D1D1F8341136
:10421000052904D80648415C09B1C2F838364FF088
:1042200080430122C3F880250020704700E0014050
:10423000035C010020B1034B800143F001031847E8
:10424000704700BF903F0100BFF34F8F0549064BF9
:10425000CA6802F4E0621343CB60BFF34F8F00BF24
:10426000FDE700BF00ED00E00400FA05024B1B680B
:1042700003B11847FF207047A01700200A4B0B4AD4
:104280000020C3E900000A4B1A600A4A5A600A4A31
:104290009A600A4ADA600A4B0A4A9860C3E9002029
:1042A000094ADA60704700BFC41700208D4400003F
:1042B000B4170020D1430000CD4200004D1501008D
:1042C000A41700206D4200004F15010030B544785E
:1042D0008FB00546ACB1204600F006FB1A4B0293A6
:1042E0000023CDE9003303900122184918460DF050
:1042F00030F9174B6A781A7016480BF003F80FB0B4
:1043000030BD0378052B12D0092B1BD0012BF0D127
:10431000072304A88DF8103004F098FA059B039346
:104320000D4B0094CDE9014303222346DDE70B4BFF
:1043300006490094CDE901430322234620460DF0AF
:1043400008F9D6E7064BF3E70D5C0100A03E01003B
:10435000AF2B0020D8080020255C0100435C010041
:10436000635C010030B5114C8FB02D23054604A8C5
:104370008DF8103004F06AFA9DF9143022789342D7
:1043800000D18DB1D8B20A4B20701B6803B1984799
:1043900023780393074B02930023CDE900330649AA
:1043A000032218460DF0D5F80FB030BDB12B002018
:1043B0009C170020735C0100A03E0100034BBFF37B
:1043C0005B8F1868BFF35B8F704700BFCC1700206E
:1043D0002DE9FF414278044682B1104600F084FA8C
:1043E000264B029300230390CDE900332449012298
:1043F00018460DF0AEF804B0BDE8F081FFF7DEFF1F
:10440000C10702D51046FFF7ADFFFFF7D7FF8307BF
:104410000ED4237F63B1BFF35B8F1A4B53E8001FA9
:1044200041F0020143E80012002AF7D1BFF35B8F8D
:10443000217F63794900012B08BF41F00101124B34
:104440001D68CFB2002DD6D0083D4FF6FF782B88DF
:10445000E078434501D083420AD1A3680193237BCE
:1044600000936E6894F91030B4F90E203946B047C5
:10447000AD68002DBFD0083DE9E700BF8B5C0100AF
:10448000A03E0100CC170020C41700201FB5044631
:10449000407860B100F028FA0D4B0293002303909E
:1044A000CDE900330B49012218460DF052F8FFF711
:1044B00085FFC30702D50020FFF754FF064B627843
:1044C0001A70064804B0BDE810400AF01BBF00BFD8
:1044D000A65C0100A03E0100B02B0020C008002017
:1044E000F0B504469FB04FF0FF324FF0FF336848FD
:1044F0000AF040FE01261D230AA88DF828308DF809
:104500002C6004F0BBFA257D002D6AD1614B8DF83B
:1045100014601B788DF819300227342314A88DF805
:1045200018708DF8503004F091F920B35A4B5B4964
:104530000095CDE9015332462B4628460DF009F887
:10454000EA24204600F0C4F9554B0293002303905F
:10455000CDE900331846514901220CF0FAFF2046FC
:1045600000F0CEF9044600287CD049480AF07AFED3
:1045700020461FB0F0BD159BA2899A802369159330
:1045800014A88DF8507004F079FA03238DF8503098
:1045900014A82368159304F071FA09238DF850309C
:1045A00014A86368159304F069FA08238DF8503055
:1045B00014A8A368159304F061FA05A804F084FD1B
:1045C00004460028BDD14FF0FF3336484FF0FF328C
:1045D0000AF0CCFE344B1878002843D000F0A2F942
:1045E000C0E7012D51D135238DF8503014A82F4B41
:1045F000159304F043FA06238DF8503014A80023D5
:10460000159304F03BFA07238DF8503014A8236863
:10461000159304F033FA0C238DF8503014A8A368D6
:10462000159304F02BFA0D238DF8503014A8A368CD
:10463000159304F023FA0E238DF8503014A8A368C4
:10464000159304F01BFA0F238DF8503014A86368FB
:10465000159304F013FA14A88DF850508DF85450A7
:1046600004F00CFAFFF7AAFEC30709D42D238DF836
:104670005030084B14A81B788DF8543004F0FEF924
:104680000120FFF76FFE00246FE76FF015046CE761
:1046900014070020B22B0020BE5C0100A03E0100E8
:1046A000D85C0100D8080020AF2B002000030001D7
:1046B00000B58BB00246FFF781FE00F00100824298
:1046C00019D0BFF35B8F124BC2B153E8001F41F00A
:1046D000010143E80012002AF7D1BFF35B8F0523E5
:1046E0008DF80030FFF76AFE00F001008DF804003D
:1046F000684604F0C3F90BB05DF804FB53E8001FF3
:1047000021F0010143E80012002AE6D0F6E700BFDD
:10471000CC170020F0B507468BB015461C460E4658
:1047200009B9002A5FD131484FF0FF324FF0FF3313
:104730000AF020FD04A9284604F026F888B300F00A
:10474000C7F800242A4B03900293CDE9004429497D
:104750002346012220460CF0FCFE01258DF8144072
:104760000794ADF8204005A88DF8224005F0AAFB7B
:10477000044630B300F0ACF81F4B02930023CDE9A0
:1047800000331C490390012218460CF0E2FE20463B
:1047900000F0B6F8044615480AF064FD20460BB058
:1047A000F0BD5CB1012C09D0144BADF8205093F949
:1047B00000408DF8187007960025D4E78DF8144056
:1047C000F2E74FF0FF330E484FF0FF320AF0CEFD14
:1047D0000C4B187808B100F0A5F8002D044618BF5E
:1047E0006FF00A04D7E76FF01504D7E72807002019
:1047F000ED5C0100A03E0100125D0100B12B002024
:10480000C0080020B02B002000238360054B5968AE
:1048100000F1080211B9C3E9002270470A605A602A
:10482000704700BFC4170020014B1860704700BFDD
:104830009C17002070B51E4E1E4932781E4892B05B
:1048400003F0D8FD054680B100F042F81B4B0293FF
:104850000023CDE9003303901846194901220CF0DA
:1048600078FE6FF0150012B070BD03F083FF0446B0
:1048700040B100F02DF8134B0390CDE901530095A2
:104880002B46E9E7062306A930788DF818300DF09D
:104890007CFE0D4BC0B218700C4B187030238DF895
:1048A000203008A81423099304F0E8F82046DAE73A
:1048B000A0060020A4170020B41700202A5D0100E4
:1048C000A03E01004B5D0100B22B0020B12B002067
:1048D00017289ABF024B53F820000248704700BFC8
:1048E000F4410100795D01000F289ABF024B53F893
:1048F00020000248704700BFB4410100895D0100FB
:104900001628034608D8064A52F8200030B9002B72
:1049100018BF6FF0150070476FF01500704700BFAB
:10492000584101000F28034608D8064A52F82000D3
:1049300030B9002B18BF6FF0150070476FF01500ED
:10494000704700BF1841010001480AF06BBE00BF6C
:1049500000050020014B186059607047D0170020F7
:10496000024B1A685B6802600B607047D01700202A
:1049700008B50CF00FFE024B1B68C01A08BD00BF43
:10498000D817002001480EF077BE00BFC8060020EF
:1049900007B5014640F2E7304FF47A72002300EB8E
:1049A000C130490CFBF730FD02460B4600210020C8
:1049B000CDE9000102480BF04DFC03B05DF804FBAB
:1049C000C806002008B50CF0E5FD014B186008BDD5
:1049D000D8170020014B1868704700BFD817002077
:1049E00010B5124CBFF35B8F022354E8002F012A4D
:1049F00003D144E800310029F7D1BFF35B8F0CBF2E
:104A00000120002010D10A4BDB6A9847002344F8AC
:104A1000403CBFF35B8F54E8002F44E8003100298D
:104A2000F9D1BFF35B8F012010BD00BF201800201B
:104A30006843010010B5064B5C68FFF7D1FF30B149
:104A40002CB100212046BDE810400BF095BC10BDF4
:104A5000DC17002013B50D4BD3E901433BB10C4BE0
:104A60005B6B0193002002B0BDE810401847FFF7D0
:104A7000B7FF40B13CB16FF00401204602B0BDE881
:104A800010400BF079BC02B010BD00BFDC17002055
:104A9000684301002DE9F347284C9A46D4E9019375
:104AA00007460D46164683B1254B00205B6B9847A1
:104AB000E368CDE900A32A46D4F80880206833468D
:104AC0003946C04702B0BDE8F08704F14402022332
:104AD000BFF35B8F52E8001F012903D142E8003089
:104AE0000028F7D1BFF35B8F9046EBD1E36C1A78C7
:104AF000AA4288BF1D70E36CA06C1A7839460EF08C
:104B0000FEFE236D03B11E80636D0BB183F800A020
:104B10000B4BDB6A984700216160BFF35B8F58E85D
:104B2000003F48E80012002AF9D1BFF35B8F4846E6
:104B300002B0BDE8F0470BF01FBC00BFDC1700203F
:104B400068430100F0B5044687B000680E460EF0D9
:104B50004CFB2568034670B92A6803921E4A1F4918
:104B60000090CDE9010201220CF05BFD6FF012050F
:104B7000284607B0F0BDE38821793343D802D5F841
:104B800008C02F6906D513F4402F03D0DA0748BFB9
:104B900083F440233868012623F480128E40DB071B
:104BA0004CBF3043B0433860DCF8003028469847AB
:104BB00005460028DCD00590237904932368074933
:104BC0001B680393064B02930023CDE900330122B7
:104BD00018460CF026FDCBE711600100F83E0100FD
:104BE0002A60010070B50D460F49BFF35B8F0120AD
:104BF00051E8004F002C03D141E80006002EF7D108
:104C0000BFF35B8F0CD1094E41F8403CD4B2736DB9
:104C1000214698472846B36A21469847002070BD30
:104C20006FF00F00FBE700BF201800206843010071
:104C30002DE9F04700258EB005ACDFF8BC80814639
:104C40008A4617462946102209A80126CDE90544BF
:104C5000CDE907550EF061FE8DF83160D8F834309B
:104C60000D94002B45D023463A4651464846FFF75F
:104C7000B9FF041E39DBFFB2CDE901570396B8F83E
:104C80003C301E4C009398F83A3098F8392098F848
:104C90003810646A3046A047014640F2E7304FF4CE
:104CA0007A72002300EB0140C1F30E41FBF7ACFB2D
:104CB00002460B46314609A80BF006FB041E14DA27
:104CC0000F4B10490095CDE9015332462B4628463B
:104CD0000CF0A7FCFFF784FE38B94FF0FF324FF01D
:104CE000FF33314609A80BF0EFFA20460EB0BDE8BD
:104CF000F0876FF01504F8E7DC1700206843010027
:104D00004A600100F83E0100F0B591B000248DF832
:104D1000172007AD0F46102221460BA8CDE90755F5
:104D2000CDE9094401260EF0F8FD2C4B8DF83960D1
:104D30000F95BFF35B8F53E8002FA24203D143E8E6
:104D400000610029F7D1BFF35B8F43D10DF117024A
:104D500043E910549A60224D189ADA60199A1A6140
:104D60005F60FF216B6D304698476B6B204698471C
:104D7000DDE9162331460BA80BF0A6FA051E1ADA58
:104D8000FFF72EFE50B94FF0FF324FF0FF333146A0
:104D90000BA80BF099FA9DF8175009E0114B124936
:104DA0000094CDE901430322234620460CF039FC50
:104DB000284611B0F0BD0A9B002BECDA0B4B0A49D8
:104DC0000094CDE901433246234620460CF029FCED
:104DD0000A9DEDE76FF00F05EAE700BF20180020FD
:104DE0006843010066600100F83E01007660010042
:104DF00010B529B9FFF7F4FDD8B96FF0150010BD53
:104E00000E4BBFF35B8F012053E8004F002C04D101
:104E100043E8000CBCF1000FF6D1BFF35B8F0AD161
:104E2000074C43E90F12636DFF219847636B002025
:104E300098470020E3E76FF00F00E0E7201800201C
:104E400068430100F0B52C4DBFF35B8F8BB00C466F
:104E5000012755E8003F002B03D145E80072002AE6
:104E6000F7D1BFF35B8F43D1244E2068F368984796
:104E7000E37A4BB32346103D04F1100718685968D4
:104E80002A4603C20833BB421546F7D14FF47A6372
:104E9000089300220120237B0793CDE90522CDE969
:104EA000032023890293A379019363790093F56921
:104EB000237994F90A10A847B36D607B9847FFF7F0
:104EC0008FFD00200BB0F0BD0997227BB569CDE9BD
:104ED0000732CDE90533CDE903330A220292228954
:104EE000CDE900323846A37962792179A847E3E712
:104EF0006FF00F00E6E700BF2018002068430100B4
:104F000038B5084611461A460B4BBFF35B8F012498
:104F100053E8005F002D04D143E8004CBCF1000FC2
:104F2000F6D1BFF35B8F04D1044BDB6B98470020B5
:104F300038BD6FF00F00FBE7201800206843010028
:104F400038B5114BBFF35B8F002453E8002F43E8C3
:104F500000410029F9D1BFF35B8F0C4943F8341CA1
:104F60000B490C4D43F82C1C0B4943F8241C0B49EE
:104F700043F8301C2A6843F8440CA3F134009047EE
:104F8000EB6A9847204638BD20180020354A0000BB
:104F9000954A000068430100554A0000411601008F
:104FA0001FB50F4CE36953B90E4A0F490093CDE981
:104FB0000132184602220CF045FB04B010BD00205F
:104FC00098470A4B1B6E03B1984794F82030002B8A
:104FD000F3D0034804B0BDE8104000F057B900BF5B
:104FE0003418002092600100F03E01006843010087
:104FF000F0B54FF4B011476885B006462348FFF777
:10500000A1FD054600283DD1214922480EF0D5F9E1
:10501000304600F065F9044660B11F4B1F4900950A
:10502000CDE9015301222B4628460CF00BFB20460C
:1050300005B0F0BD38680EF0D8F860B9184B02938F
:105040000023CDE900331549012218460CF0FAFA85
:105050006FF01204EBE7F86818B10EF0C6F80028FC
:10506000ECD03046FFF76CFF051EE0DA0D4B0293E3
:105070000023CDE900330949012218460CF0E2FA79
:105080002C46D4E76FF00404D1E700BF6C42010066
:10509000A14F000040180020C1600100F03E010057
:1050A000DF600100F4600100024801220A210CF0D7
:1050B000D8BA00BFA03A0100024800220A210CF031
:1050C000D0BA00BFA03A0100014B93F8200070470E
:1050D000341800200346034880F820300BB900F054
:1050E000EFB8704734180020014BD861704700BFFB
:1050F0003418002010B5044C204600F095F8012328
:1051000084F8203010BD00BF3418002010B5054CC5
:10511000204600F0A3F800B910BD002121200EF0B8
:105120001CFAF5E73418002070B590B00D46DDE9A3
:105130001461CDE90A3108ABCDE90802CDE90C5282
:1051400004930CAA02230446CDE90E61CDE906239F
:1051500005930CF077FC1248D5B9CEB98368114994
:105160001D6804AA3346A84700280ADA0E4B0293AA
:1051700000230390CDE900330C49012218460CF0BE
:1051800061FA2378842B01D0FFF7C0FF10B070BD07
:10519000836804491D68024806AB04AAE3E700BF20
:1051A000C83A01005842010017610100F03E0100B9
:1051B00070B5154D8AB0284600F068F8C023ADF8E8
:1051C000143005AB069302230793012406AB089322
:1051D00009940E480E49836808AA1E680023B04748
:1051E00000280CDA0B4B029300230390CDE9003327
:1051F0000949224618460CF025FA0AB070BDFFF79F
:1052000085FF85F82040F8E734180020C83A0100EF
:105210005842010017610100F03E0100014800F012
:1052200029B800BF3418002010B50B4C012203210F
:1052300020460CF0FFFA00214FF424700EF08DF997
:105240000022032120460CF0F5FA4FF4A470BDE8CB
:10525000104000210EF081B9B43A010008B51F21B9
:1052600003480CF0BCFA003818BF012008BD00BF8D
:10527000B43A010008B5132103480CF0B0FA002835
:10528000D4BF0020012008BDB43A010010B40B487F
:1052900083689C697CB103691B6813F4002FA446E2
:1052A00018BF4FF0007310BC08BF4FF080634FF081
:1052B000A0721321604710BC704700BFB43A0100D0
:1052C00010B4064883689C6934B1A446002310BC1E
:1052D0004FF400121321604710BC7047B43A01002C
:1052E00030B54FF4D0110569194885B00CF058FA63
:1052F00070B1184B02930023CDE900331649012207
:1053000018460CF087FA6FF00404204605B030BD53
:1053100012484FF480310CF043FA0028E9D11048CC
:105320004FF480310CF03CFA04460028E1D10D4BDB
:105330000D486B604FF40023AB608368DB690BB9E9
:105340000A4BD7E70122294698470028DDDAF7E71C
:105350008442010040610100F03E01007C420100F6
:105360007442010007180100B43A01005B610100BA
:10537000074B08491A6843F2390001FB0200186024
:105380006FF00043B0FBF3F3C3EBC373C01A704775
:10539000100500206D4EC641014B1860704700BFDC
:1053A0001005002030B530B10A4D01444FF0FF33F5
:1053B000814201D1D84330BD10F8012B534008225F
:1053C00043F30004013A2C4092B284EA5303002ACA
:1053D000F6D1EDE72083B8ED044A13680BB1002144
:1053E0005972436110600CF0E6BA00BF58180020F3
:1053F00037B5044601A80CF005F96CB1174D2A68C1
:10540000134673B963682360012323816AB9FFF7E8
:10541000D9FA2046FFF7E0FF01A80CF0FCF803B032
:1054200030BD9C42F8D05B69EBE7FFF7A1FA236837
:1054300018442B6820601A689042EAD35A69596967
:1054400011B95C616161E7E71168884202D91346CE
:105450005269F4E75C616261DEE700BF5818002022
:10546000F8B5FFF7B7FA1C4C0546FFF7ABFA23680F
:10547000A3B1471B1E462D1A716929B95A692260CA
:10548000DA68197242B9FEE70A68BA428CBF52194B
:1054900000220A607669EFE71869904700262368C2
:1054A0002BB9206880B9F8BD18699047F7E71D68E7
:1054B000FFF75EFA8542F4D223685A692260DA68FF
:1054C0001E72002AF0D1FEE7437A002BEBD1BDE833
:1054D000F8400CF070BA00BF5818002037B5134DD3
:1054E000044601A80CF08EF82B686BB164B1002261
:1054F000A342227211D1597A5C6961B15A7244B1E6
:1055000020462C600CF057FA01A80CF084F803B088
:1055100030BDFFF737FA2C60F6E71A465B69002BBF
:10552000F2D09C42F9D163695361EDE7581800202D
:1055300007B5074B1B7840BAADF804002BB902221F
:1055400001A940F2BC600CF0EBF803B05DF804FB7D
:10555000B52B002007B5074B1B7840BAADF8040007
:105560002BB9022201A940F2BE600CF0D9F803B0B9
:105570005DF804FBB52B002010B50C4B1B780446DE
:105580009BB94FF4D7600CF000F9C4F3002100F090
:10559000FE0001434FF4D7600CF0D6F8E1B240F2C0
:1055A000B960BDE810400CF0CFB810BDB52B00209D
:1055B00013B50446FFF780FD04F0070314F004045C
:1055C0008DF8073008BF084B4FF001020DF10701BD
:1055D0004FF0840008BF1C700CF082F80020FFF729
:1055E00079FD02B010BD00BFB32B002010B50446FA
:1055F000FFF780FD2046FFF777FDFFF7D9FD00207C
:105600000CF03FFA0CF041F80CF040F8034B00228C
:105610001A70BDE810400120FFF75CBDB32B0020DD
:10562000134B984207B50BD94EF6E113ADF8043091
:10563000022201A998200CF053F803B05DF804FB96
:105640000C4B984202D94DF6D733EFE70A4B9842FC
:1056500002D94CF2C153E9E7084B984202D948F20B
:105660007513E3E7064B9842E2D946F66B73DDE724
:1056700000E9A43580F8A9328044E52D000B6B1BAE
:1056800040FC541930B5114C85B052BA24680394CB
:105690004FF0000440BA49BAADF8082008225BBABE
:1056A000ADF80400ADF80610104601A9ADF80A30B7
:1056B0000CF016F8054B1A68039B5A404FF0000394
:1056C00001D00DF085FF05B030BD00BFC45D0120E5
:1056D00037B5104D2B7804461BB9FFF7A1FF012306
:1056E0002B7043F6095241F68463B4FBF2F102FBDE
:1056F000114403EB8433B3FBF2F3042203EB813355
:105700001BBA0DEB0201862001930BF0E9FF03B0F9
:1057100030BD00BFB32B002007B5064B8DF8070046
:10572000187001220DF107018A200BF0D9FF03B098
:105730005DF804FBB52B0020014B1878704700BFC3
:10574000B52B00201FB52A4A2A4B51680446106821
:105750001B6803934FF0000301AB03C3264B207873
:105760001B78834201D0FFF7D7FF237853B1012B79
:1057700035D0204B1A68039B5A404FF0000334D0B9
:105780000DF026FF62681D4BB3FBF2F31A0C8DF887
:1057900004201A0A8DF805208DF80630A268237BB4
:1057A0008DF8073043F60951637BB2FBF1F08DF8B9
:1057B000083001FB102241F6846303EB8233B3FB14
:1057C000F1F303EB80331A0C5BBA8DF80920ADF8C6
:1057D0000A30082201A98B200BF082FFC9E7236958
:1057E000019304220DEB0201F5E704B010BD00BFE8
:1057F000543F0100C45D0120B52B00200000093D8D
:105800001FB5324A324BD16804469068127C1B683F
:1058100003934FF000036B4603C31A702D4B20789F
:105820001B78834201D0FFF777FF237853B1012B18
:1058300038D0274B1A68039B5A404FF0000342D0E0
:105840000DF0C6FE637AF12B20D14FF6FF70FFF703
:105850006FFE48F20500FFF77DFE02236288A188F3
:10586000ADF8021052BAE188ADF800208DF807308B
:10587000227AA37A8DF80620ADF804108DF808304E
:10588000092269468C200BF02BFFD2E7F22BE5D1E1
:1058900041F60F50FFF74CFE41F22100FFF75AFE90
:1058A0000623DBE7A3890C4A5BBAADF80030A37B83
:1058B00013708DF80230E37B8DF80330238AADF846
:1058C00004300622DDE704B010BD00BF543F0100E4
:1058D000C45D0120B52B0020B42B002037B5054650
:1058E0000C46022201A913200BF008FF0A4B1B787B
:1058F000012B0DD1094B1B78012B09D140F202700D
:105900000BF043FF9DF805302870237003B030BDC5
:105910009DF80400F6E700BFB52B0020B42B002053
:1059200013B50322044601A914200BF0E7FE184B1F
:105930001A7822704AB1012A17D013220021601C64
:105940000DF0EBFF0F2323700DE09DF80430237161
:105950009DF80530A2605B425B10A3719DF8063094
:105960005B425B10637102B010BD9DF804305B4276
:105970005B1023739DF9053002339B1063739DF810
:1059800006305B425B10A373024B1B682361EAE79E
:10599000B52B00205C180020034B1B6813B15B681B
:1059A00003B11847704700BF84190020034B1B68E0
:1059B00013B1DB6803B11847704700BF841900209A
:1059C000014B01221A707047B82B002008B5FFF771
:1059D0007BFB0438C0B2032896BF024B0020185C42
:1059E00008BD00BF8B61010038B50C46002340F2B2
:1059F00001211A4605460846FFF744FEFFF79CFEC4
:105A00000C4B01280C480CBF83F8C74083F8C040FA
:105A1000FFF7F6FE2146284600220CF05AF8074B05
:105A2000074819680BF0E5FFBDE838400448FFF768
:105A3000DFBC00BF9018002048190020A0190020EA
:105A40007818002038B50D461446FFF741FE284669
:105A5000074D0BF01EFE0CF0D0F84FF47A7128467B
:105A600061430BF0C6FF2846BDE83840FFF7C0BCD5
:105A70007818002073B5574D01A80BF0C3FD2C78A2
:105A8000002301A82B700BF0C6FD002C61D00CF098
:105A900014F904460CF0A0F901A80BF0B3FDFFF7D0
:105AA000BDFB012808BF287001A80BF0B4FDE50775
:105AB0000BD54948FFF712FD0120FFF70BFB474BC1
:105AC0001B6813B11B6803B19847A00711D5444860
:105AD000424EFFF703FD14F0400F424B3BD01B78C2
