:020000040000FA
:10000000401E0120594700005534010045470000BB
:10001000454700004547000045470000000000003C
:10002000000000000000000000000000D5480000B3
:1000300045470000000000007148000045470000EF
:10004000854A0000854A0000854A0000854A000074
:10005000854A0000854A0000854A0000854A000064
:10006000854A0000854A0000854A0000854A000054
:10007000854A0000854A0000854A0000854A000044
:10008000854A0000854A0000854A0000854A000034
:10009000854A0000854A0000854A0000854A000024
:1000A000854A0000854A0000854A0000854A000014
:1000B000854A0000854A0000854A0000854A000004
:1000C000854A0000854A0000854A0000854A0000F4
:1000D000854A0000854A0000854A0000854A0000E4
:1000E000854A0000854A0000854A0000854A0000D4
:1000F000854A0000854A0000854A0000854A0000C4
:1001000080F0004002E000BF81F0004142001FBFCC
:100110005FEA410392EA030F7FEA226C7FEA236CD5
:100120006AD04FEA1262D2EB1363C1BFD2184140CA
:1001300048404140B8BF5B42192B88BF704710F060
:10014000004F40F4000020F07F4018BF404211F003
:10015000004F41F4000121F07F4118BF494292EA6B
:10016000030F3FD0A2F1010241FA03FC10EB0C0097
:10017000C3F1200301FA03F100F0004302D5494224
:1001800060EB4000B0F5000F13D3B0F1807F06D3D1
:1001900040084FEA310102F10102FE2A51D2B1F1C9
:1001A000004F40EBC25008BF20F0010040EA0300BE
:1001B0007047490040EB0000013A28BFB0F5000F3E
:1001C000EDD2B0FA80FCACF1080CB2EB0C0200FAF4
:1001D0000CF0AABF00EBC25052421843BCBFD04043
:1001E0001843704792F0000F81F4000106BF80F4BD
:1001F00000000132013BB5E74FEA41037FEA226C80
:1002000018BF7FEA236C21D092EA030F04D092F04A
:10021000000F08BF0846704790EA010F1CBF00207E
:10022000704712F07F4F04D1400028BF40F00040DB
:10023000704712F100723CBF00F50000704700F0FB
:10024000004343F0FE4040F4000070477FEA226222
:1002500016BF08467FEA23630146420206BF5FEAF3
:10026000412390EA010F40F4800070474FF00003F3
:1002700004E000BF10F0004348BF40425FEA000CBA
:1002800008BF704743F0964301464FF000001CE062
:1002900050EA010208BF70474FF000030AE000BFB8
:1002A00050EA010208BF704711F0004302D54042F6
:1002B00061EB41015FEA010C02BF84460146002068
:1002C00043F0B64308BFA3F18053A3F50003BCFA83
:1002D0008CF2083AA3EBC25310DB01FA02FC634430
:1002E00000FA02FCC2F12002BCF1004F20FA02F237
:1002F00043EB020008BF20F00100704702F120022A
:1003000001FA02FCC2F1200250EA4C0021FA02F28A
:1003100043EB020008BF20EADC7070474FEA40025E
:10032000B2F1FE4F0FD34FF09E03B3EB12620DD923
:100330004FEA002343F0004310F0004F23FA02F08D
:1003400018BF404270474FF00000704712F1610F34
:1003500001D1420205D110F0004008BF6FF000400B
:1003600070474FF0000070477BB972B90029BEBFDB
:1003700000204FF0004106E008BF00281CBF6FF0CE
:1003800000414FF0FF3000F057B8ADF1080C6DE9B7
:1003900004CE002909DB002B1ADB00F061F8DDF840
:1003A00004E0DDE9022304B07047404261EB410103
:1003B000002B1BDB00F054F8DDF804E0DDE902233C
:1003C00004B0404261EB4101524263EB430370478A
:1003D000524263EB430300F043F8DDF804E0DDE94B
:1003E000022304B0404261EB41017047524263EB8B
:1003F000430300F035F8DDF804E0DDE9022304B042
:10040000524263EB4303704753B94AB9002908BF0E
:1004100000281CBF4FF0FF314FF0FF3000F00CB848
:10042000ADF1080C6DE904CE00F01AF8DDF804E037
:10043000DDE9022304B07047704700BF10F8012BBC
:1004400011F8013B012A28BF9A42F7D0D01A704711
:10045000034613F8012B002AFBD1181A0138704704
:100460002DE9F04786468C460846089E1546744698
:100470001946002B40F0C2808542B2FA82F245D97B
:100480004AB1C2F1200300FA02FC2EFA03F39540B0
:1004900043EA0C0C94404FEA154EA8B2BCFBFEF8A0
:1004A000230C0EFB18CC08FB00F943EA0C439945DA
:1004B00028D9EB1808F1FF3704D2994502D9A8F1E1
:1004C00002072B44A3EB0903A4B2B3FBFEFC0EFB13
:1004D0001C330CFB00F044EA0344A04214D92C194D
:1004E0000CF1FF3304D2A04202D9ACF102032C4438
:1004F000241A43EA07401EB1D440002334607360DD
:10050000BDE8F0874746DDE76346F1E792BB431B52
:1005100001214FEA154EAFB2B3FBFEFC200C0EFBDF
:100520001C330CFB07F840EA0343984562D9EB18EB
:100530000CF1FF3004D2984502D9ACF102002B44F3
:10054000A3EB0803A4B2B3FBFEFC0EFB1C330CFBB5
:1005500007F744EA0344A7424ED92C190CF1FF33A4
:1005600004D2A74202D9ACF102032C44E41B43EAB3
:100570000040C0E7C2F1200320FA03F1954090400B
:100580002EFA03F303434FEA154EAFB2B1FBFEFC64
:100590000EFB1C10190C0CFB07F841EA00418845C2
:1005A00004FA02F422D969180CF1FF3004D288450C
:1005B00002D9ACF102002944A1EB08019BB2B1FBC6
:1005C000FEFC0EFB1C110CFB07F743EA01439F42A4
:1005D0000ED9EB180CF1FF3104D29F4202D9ACF1D5
:1005E00002012B44DB1B41EA004192E76046E3E74E
:1005F0006146F7E76046A3E76346B7E7834206D95B
:1006000016B9002108467BE7C6E900E0F9E7B3FA2E
:1006100083F78FB9834201D3724508D8BEEB020439
:1006200060EB030301209C461EB9002168E73846B1
:10063000FAE7C6E9004CF8E7C7F1200CBB4022FA04
:100640000CF41C432EFA0CF120FA0CF3B8400143D1
:100650004FEA14490EFA07F5B3FBF9F81FFA84FEC6
:1006600009FB18300B0C08FB0EFA43EA00439A45CD
:1006700002FA07F240D9E31808F1FF3004D29A4594
:1006800002D9A8F102002344A3EB0A0389B2B3FB09
:10069000F9F809FB183308FB0EFE41EA03418E45C9
:1006A0002CD9611808F1FF3304D28E4502D9A8F184
:1006B0000203214443EA0040A0FB0298A1EB0E0193
:1006C0004145CE46434602D306D14D4504D2B9EB4F
:1006D000020E68EB04030138002EA6D0B5EB0E0223
:1006E00061EB030101FA0CFC22FA07F34CEA030365
:1006F000F940C6E9003198E74046C5E74346D9E7E7
:10070000F0B5334B3349344E344F354D97B01B68F9
:1007100015934FF00003334B02930023CDE90033D0
:100720000322184612F0E1F94FF0FF324FF0FF3389
:1007300008A800F0A5F89DF821309DF8201002953A
:10074000002B14BF30463846DDE90A230024CDE9EA
:100750000623CDE90310234603222046CDE90044B9
:100760001C4912F0C2F99DF82130A34214BF0123A5
:1007700023468DF830309DF820308DF83830DDE993
:100780000A230CA8CDE910230CBF012323468DF8C2
:10079000483001F0FBFC50B1134B0390CDE901430D
:1007A0000C49009423460122204612F09EF9BDF820
:1007B0002020032AB8D10D4B02930023CDE900334A
:1007C0000449184612F091F901F0F8FAACE700BFBD
:1007D0004C640120E06001005A6901005269010087
:1007E00079690100636901008E690100BF69010038
:1007F0002DE9F04F904685B015F00AF84FF47A7362
:10080000A0FB030503FB0155C40B1B4FDFF86C90E5
:1008100044EA45440026ED0B97F804A028FA0AF3B1
:10082000DB0721D53868D0F810B0836869465B686B
:10083000984750B9009BDBF800205A40012303FA87
:100840000AF31A4214BF01200020B0FA80F04009D8
:10085000CDE902458DF800608DF8010000220023EB
:100860006946484610F0B2FA0136072E07F108072C
:10087000D2D105B0BDE8F08F78620100E00700201A
:1008800008B50146034810F0FBFAB0FA80F04009C1
:1008900008BD00BFE00700202DE9F04F3F4C404F5E
:1008A000DFF800A187B00026A346206814F077FD8A
:1008B000034690B95BF836203B4912680090CDE9B9
:1008C00003623A4ACDE90102012212F01DF96FF0EC
:1008D0001205284607B0BDE8F08FE388206821792B
:1008E00043EA0A020569D0F808C013F0010F4FF07F
:1008F000010E2B680EFA01FE14BF4EEA030323EA31
:100900000E032B60DCF800309847054658B1284BA1
:10091000039602930023CDE90033234901221846B0
:1009200012F0F2F8D5E72068217983689D694DB10E
:100930004FF000734FF0A072A847054628B11D4B39
:100940000396E6E76FF05705F9E794F804901A4B21
:100950007B60012202FA09F3D4F80080BB60D8F86A
:100960000830DB6913B1394640469847CDF81490FA
:10097000D8F800300C49CDE90363104B02930023F3
:10098000CDE9003303221846013612F0BDF8072ED8
:1009900004F1080407F10C0787D19AE77862010097
:1009A000E011002010000100E8600100056A01006C
:1009B000236A0100416A0100F1070000676A010033
:1009C000014810F017BD00BF3412002010B51B4BBA
:1009D0001B4A8AB01B6809934FF000034CF6BB43D7
:1009E000CDE9052300240023002205A80794ADF8D3
:1009F000204000F003FB034698B99DF815200392B0
:100A0000104A11490090CDE90102032212F08BF83F
:100A10000A4B1A68099B5A404FF000030BD014F0A0
:100A2000B1FE0A4B0390CDE90143074900942346E8
:100A300001222046EAE70AB010BD00BF4C64012045
:100A40000A0300AA926A010018610100AD6A010060
:100A500013B50A4C0A490B4814F089FD0A490022D3
:100A6000204614F0D7FE4FF4F0120023CDE9002306
:100A7000204611F0D7FA02B010BD00BFE0090020F7
:100A8000CD09000034120020C1090000014810F017
:100A9000B1BC00BFA4120020014810F0ABBC00BFE5
:100AA00094120020014810F0A5BC00BF8412002061
:100AB000014810F09FBC00BF74120020014810F0E4
:100AC00099BC00BF64120020014810F093BC00BF25
:100AD00054120020014810F08DBC00BF44120020C9
:100AE0002DE9FF4700F06EF90023044668B1194A6A
:100AF0000390CDE90132184900930122184612F003
:100B00003DF8204604B0BDE8F087DFF85080144E71
:100B1000144FDFF8549005464FF0380A304658F825
:100B2000041B14F024FD0AFB059057F8041B002257
:100B3000013514F06FFE072D06F11006EED10B4BB8
:100B400002930023CDE9003303490322184612F033
:100B500015F8D6E7D76A010020610100CC620100D8
:100B600044120020B0620100980A0020F56A0100DA
:100B70001FB5014668B9184B18490090CDE901032B
:100B80000122034611F0FAFF6FF01504204604B06D
:100B900010BD0378062B0BD90393114B029300234E
:100BA000CDE900330D490122184611F0E7FFEBE7CC
:100BB0000C480022002310F009F904460028E5D073
:100BC000094B029300230390CDE90033034901222E
:100BD000184611F0D3FFD9E70D6B01002061010029
:100BE000226B010010080020356B010030B506288B
:100BF00087B005460FD91E4B029300230390CDE921
:100C000000331C490122184611F0B8FF6FF015049B
:100C1000204607B030BD012100F042F9044660B122
:100C2000154B02930023CDE90350CDE90033114960
:100C30000122184611F0A2FFEAE71049C5EBC500F2
:100C400000220023CDE9002301EBC0004FF4004255
:100C5000002311F0E7F90A4B06490395CDE901435A
:100C6000009423460322204611F088FFD0E700BFFE
:100C7000226B010020610100556B0100980A0020E1
:100C8000726B010070B5062886B005460E460FD976
:100C9000134B029300230390CDE900331149012245
:100CA000184611F06BFF6FF01504204606B070BDBA
:100CB00000F0F6F804460028F7D00B4A0B4B094920
:100CC0000395002E18BF1346CDE90430084B02935C
:100CD0000023CDE900330122184611F04FFFE4E76D
:100CE000226B0100206101008F6B0100926B0100FB
:100CF000966B010010B52E4B2E492F4C90B01B68FF
:100D00000F934FF000032D4B02930023CDE90033E6
:100D10000322184611F032FF4FF0FF324FF0FF333D
:100D200004A9204610F0ACF80028F5D19DF8113048
:100D3000032B2ED8DFE803F00221232801219DF8A0
:100D40001000FFF79FFF2022002106A814F0D9FE13
:100D500004238DF818309DF810308DF820309DF860
:100D6000113013B3DA1E534253418DF8213006A8D7
:100D7000059B099301F00AFACEE70021DFE79DF811
:100D8000100000F0ADF8DEE79DF81000FFF72EFF31
:100D9000D9E703930A4B02930023CDE900330549B9
:100DA0000122184611F0EAFECDE70123DDE700BF7E
:100DB0004C6401202061010010080020B56B010087
:100DC000D06B01002DE9F04F304CDFF8C480314F7B
:100DD00087B000254FF001092668304614F0DFFA8D
:100DE000034670B92C4A2B490395CDE901020090C6
:100DF000012211F0D2FE6FF0120A504607B0BDE892
:100E0000F08F20682179E388D0F810C0D0F808E08E
:100E1000DCF800A0DA0754BF43F4B01383F4D01316
:100E200023F4801209FA01FBDB074CBF4BEA0A03EB
:100E30002AEA0B03CCF80030DEF800309847B0F116
:100E4000000A0BDA154B02930023CDE90033114958
:100E500003950122184611F0A0FECEE723790593F1
:100E60003368CDF808800026CDE90353CDE900664C
:100E70003346032239463046013511F08EFE072DE8
:100E800004F10804A8D1B246B7E700BFE862010048
:100E9000416C0100286101000A6C0100226C010014
:100EA000062803460A4615D80C4951F8300001EBD4
:100EB000C3010123097903FA01F103691B6819428F
:100EC00018BF82F0010212B18368DB68184783689B
:100ED0001B69FBE76FF01500704700BFE862010077
:100EE000062803460AD8074A52F8300002EBC3022C
:100EF00001211379994083685B6918476FF01500E9
:100F0000704700BFE862010010B588B004460DF1DB
:100F10001F010DF11E0012F014FB9DF81F30074950
:100F2000CDE90343064B02930023CDE900330322AE
:100F3000184611F041FE08B010BD00BF406101002D
:100F4000666C010070B588B0C1F34004CDE9063489
:100F500001F001010024104B0D9D0592CDE9030124
:100F60000293CDE900440D499DF8306023460322E9
:100F7000204611F021FE65B15EB1094B0393094B88
:100F800006490096CDE9014303222B46204611F085
:100F900013FE08B070BD00BF8A6C01004061010003
:100FA000BD6C0100F78101001FB5014660B90F4B10
:100FB0000F490090CDE901030122034611F0FCFD29
:100FC000002005B05DF804FB0A480FF059FF58B146
:100FD000094B029300230390CDE900330449012219
:100FE000184611F0E9FDEBE70120EAE7C76C0100C4
:100FF0004061010070080020EC6C010010B5014652
:1010000086B068B9184B19490090CDE90103012257
:10101000034611F0D1FD6FF01504204606B010BD57
:1010200040780B280DD90B23CDE90303104B029315
:101030000023CDE900330D490122184611F0BCFD13
:10104000E9E70C480FF0C2FE04460028E5D00A4B41
:10105000029300230390CDE900330449012218468E
:1010600011F0AAFDD9E700BF066D01004061010043
:101070002B6D010070080020566D010030B585B061
:10108000284C204614F08BF9034670B9226803926D
:10109000254A26490090CDE90102012211F08CFD7C
:1010A0006FF01205284605B030BD23680393002475
:1010B0001F4B1E490293032223462046CDE90044DC
:1010C00011F07AFD04F0C0F9051E0BDA194B17492F
:1010D0000395CDE90143009423460122204611F0F7
:1010E0006BFDDFE7144804F099F9144804F0A6F901
:1010F000012004F0E7F8124B0C490094CDE90143BC
:1011000003222346204611F057FD0E4B0749009459
:10111000CDE9014303222346204611F04DFD25462B
:10112000C0E700BF305D01007F6D0100406101003C
:10113000956D0100A76D0100D0040020090F00008B
:10114000C06D0100E16D0100014810F053B900BF0E
:10115000B41200201FB5064B02930023CDE90033E3
:1011600004490322184611F036FD05B05DF804FB72
:10117000126E01004861010038B50446074D4FF07A
:10118000FF324FF0FF3328460FF0DCFE044B1C709B
:101190002846BDE838400FF04DBF00BFD0120020F8
:1011A000242D00202DE9F0415F4B6049604E614FD6
:1011B00096B01B6815934FF000035F4B029300231A
:1011C000CDE900330322184611F005FD4FF0FF3240
:1011D0004FF0FF3306A930460FF052FE05460028B7
:1011E000F4D19DF8263005939DF8193004939DF8AD
:1011F00018300393514B4D490090CDE90103032270
:10120000034611F0E8FC0120FFF7B6FFDFF81C8170
:101210009DF81A309DF819209DF818000DF11B015A
:1012200004F082F8044638BB0220FFF7A5FF444AC9
:101230003E49136801331360424B0094CDE90143EA
:1012400003222346204611F0C6FC202221460CA88A
:1012500014F057FC0223BDF818208DF830300CA88C
:101260009DF81A30ADF838208DF83A3000F08EFF36
:10127000354801F033F9A9E710F10B0F4FF00003E7
:1012800046D1CDE90137009302224146184611F0BC
:10129000A2FC40F6CD400021013514F038FA032DB0
:1012A000B6D10320FFF768FF284A204913680133AD
:1012B0001360274A13682B441360264B03950025BF
:1012C000029301222B462846CDE9005511F083FCFC
:1012D000294620220CA814F014FC0323BDF8182082
:1012E0008DF830300CA89DF81A30ADF838208DF804
:1012F0003A3000F04BFF184B0C490394CDE90153F1
:10130000284600952B46012211F065FC1348B0E7F2
:10131000134A0390CDE90132044900930122184693
:1013200011F059FCBDE700BF4C6401204861010089
:1013300040080020A86E01002A6E0100466E0100E0
:10134000CC120020766E0100956E0100C8120020BC
:10135000C4120020D96E0100FC6E01001C6F010058
:10136000C46E01001FB50E4814F0D8F80D490E48A0
:1013700014F0FDF80D490E48002214F04BFA0D4B05
:101380000D4900241C700D4B0094CDE9014320460B
:101390002346032211F01FFC204604B010BD00BFFD
:1013A000D012002055110000B41200204911000095
:1013B000A00C0020242D002048610100316F0100A5
:1013C0001FB5014668B9194B19490090CDE90103D1
:1013D0000122034611F0FFFB6FF01504204604B014
:1013E00010BD43785A1E0A2A0BD90393114B02935E
:1013F0000023CDE900330E490122184611F0EBFB22
:10140000EAE70D48002200230FF0E0FC0446002824
:10141000E4D00A4B029300230390CDE90033044942
:101420000122184611F0D7FBD8E700BFD76C0100A6
:10143000486101004A6F010040080020656F01000B
:1014400010B5184B88B004461422002101A81B686F
:1014500007934FF0000314F054FB40F20113ADF872
:10146000003001238DF803408DF8023014F0D0F9DC
:101470004FF47A72A0FB020302FB0131C00B40EA79
:101480004140C90BCDE904016846FFF799FF054BC0
:101490001A68079B5A404FF0000301D014F072F90C
:1014A00008B010BD4C6401202DE9F0477C4B7D490C
:1014B00092B01B6811934FF0000300247A4B029303
:1014C000CDE9004423460322204611F093FB079404
:1014D000042107A80BF06AF914F09AF9079EDFF8C7
:1014E000CC81DFF8CC91DFF8CCA10F46054613F094
:1014F000A6FD4FF47A71A5FB013201FB0721DB0B3E
:1015000043EA4143704058406B4BA8F8000080B25A
:10151000CDE901430390234662490094032220460B
:1015200011F068FB654B0793654B5E4F8DF83040BB
:10153000CDE90833B8F80030ADF82830614B0B9393
:101540000494B8F800300025CDE9029303222B461D
:1015500039462846CDE9005511F04CFB07A803F0A9
:10156000C9FD10F1740F064610D1574B0095CDE917
:10157000015302222B463946284611F03BFB4FF41B
:101580002030002114F0C3F80134D9E700280BDA29
:101590004E4B0390CDE9015300952B46012239466D
:1015A000284611F027FBEAE7CDE9015A00952B46C2
:1015B00003223946284611F01DFB002EDFD1444F8F
:1015C000384DDFF810810E2200210DA814F099FA91
:1015D0004FF0FF324FF0FF330DA8FFF7E5FC002876
:1015E000F1D09DF83560731E0A2B55D89DF83490C4
:1015F000CDF808800024CDE903962346032229462E
:101600002046CDE900449DF836A011F0F3FA324BA4
:101610000393324B0096CDE9014303220DF13703CA
:101620002946204611F0E6FA324653460DF13701BD
:10163000484603F079FE10F10B0F064611D1284BF6
:101640000094CDE90143022223462946204611F0A9
:10165000D1FA244B039602930023CDE900330122F3
:1016600015E000280BDA204B0390CDE901430094EC
:10167000234601222946204611F0BCFAE9E71B4B1C
:10168000CDF80C90CDE9014300942346032229466E
:10169000184611F0AFFA96E7CDE90276DCE700BF15
:1016A0004C64012050610100AA6F0100202D002030
:1016B000E06F010036700100BE6F0100C806002017
:1016C000B8060020D0060020167001002570010029
:1016D0004A6F010046700100898A0100F78101000C
:1016E00069700100FC6E0100877001009F700100AD
:1016F00030B53E4B3E498FB01B680D934FF0000351
:1017000000253C4B029303222B462846CDE9005589
:1017100011F07FFA00F07CFD044698B1364B03903F
:10172000CDE9015301222B4631490095284611F09D
:1017300070FA2E4B1A680D9B5A404FF0000351D09F
:1017400014F020F800F0FEFC044610B12B4B03907F
:10175000E6E7FFF7C5F9044610B1294B0390DFE730
:10176000FFF700FE044610B1264B0390D8E700F0C7
:1017700099FD044610B1244B0390D1E700F0E4F842
:10178000044610B1214B0390CAE7FFF761F9204BE3
:10179000186810F055F92022214604A814F0B1F978
:1017A000062304A88DF8103000F0F0FC194B104906
:1017B0000094CDE9014303222346204611F029FA83
:1017C000154B0B490094CDE90143032223462046E3
:1017D00011F01FFA00F008FD00214FF4A02013F0D3
:1017E00096FFF7E720460FB030BD00BF4C640120E4
:1017F00060610100CF700100EE7001000F71010007
:10180000377101005D71010084710100AD7101004B
:1018100020630100D37101000872010038B5074C44
:101820004FF0FF3220464FF0FF3311F014FA044B13
:101830001D78204611F011FA284638BD9007002087
:10184000252D0020F0B5174F174D8DB006464FF0EF
:10185000FF3238464FF0FF3311F0FDF90FCD07ACE2
:101860000FC42B6823600CAB03EB86030F4C53F8BB
:10187000143C049323780E490CAA02EB8303032241
:1018800053F8143C03930B4B029300231846CDE905
:10189000003311F0D0F9384626700DB0BDE8F040A5
:1018A00011F0DBB990070020F0610100252D002028
:1018B000706101002A7201001FB500241B4B1C49F6
:1018C0000293032223462046CDE9004411F0B3F9E8
:1018D00018484FF0FF324FF0FF3311F0BCF9164BB0
:1018E0000393164B02930823CDE900431049234686
:1018F0002046042211F09FF9114B2146186811F07F
:1019000097F950B10F4B0390CDE90143084900947A
:1019100023460122204611F08EF9064811F09DF968
:10192000002004B0BDE81040FFF78CBF3E720100FC
:10193000706101007C070020D67501005072010023
:10194000E41200207F72010030B51D4D1D48286053
:1019500085B013F024FD034660B91B4A1B49009073
:10196000CDE90102012211F066F96FF01204204660
:1019700005B030BD286883681B689847044658B195
:10198000134B039002930023CDE900330F4901224A
:10199000184611F050F9EAE72868012111F048F9DA
:1019A000044610B10B4B0390ECE70B4B074900903A
:1019B000CDE901030322034611F03DF9D7E700BF4B
:1019C000E41200201C5D0100A6720100706101009C
:1019D000BB720100DF72010004730100F0B57E4BA1
:1019E00097B01B6815934FF00003FFF717FF0446ED
:1019F000A8B17A4B02930023CDE900337849022243
:101A0000184611F018F96FF00F05734B1A68159B03
:101A10005A404FF0000300F0DC8013F0B3FE714B2E
:101A20006F490090CDE901030322034611F003F949
:101A30000120FFF707FF6C4B69490094CDE9014392
:101A400003222346204611F0F6F86848684D4FF00F
:101A5000FF324FF0FF3311F0FEF8664B0393664BF5
:101A600002930823CDE900435D4920462346042222
:101A700011F0E1F82868012111F0DAF850B15F4B5C
:101A80000390CDE9014356490094234601222046A4
:101A900011F0D1F855485A4F11F0DFF80220002418
:101AA000FFF7D0FE574B4E490293032223462046B0
:101AB000CDE9004411F0BFF80220FFF7C3FE08266D
:101AC000514B47490293042223462046CDE9004664
:101AD000039711F0B0F845484FF0FF324FF0FF3355
:101AE00011F0B9F82868836832469B680CA99847BA
:101AF00005463E4811F0B1F8444B39490094CDE910
:101B00000163CDE9037523460422204611F093F8C2
:101B1000002D4DD101238DF838300CAB03CBCDF81F
:101B20003900CDF83D1013F073FE4FF47A72A0FB2C
:101B3000020302FB0131C00B40EA4140C90BCDE971
:101B400012013348002200230EA90FF03FF948B1DB
:101B5000304B23490095CDE9015302222B462846FC
:101B600011F069F89DF837300A939DF836300993E3
:101B70009DF8353008939DF8343007939DF8333045
:101B800006939DF8323005939DF8313004939DF80B
:101B900030300393204B029300231846CDE90033E5
:101BA0000F49032211F047F80320FFF74BFE2CE703
:101BB0001A4B0B490395CDE90143032223462046E6
:101BC000009411F038F82046FFF73CFE6FF03C051A
:101BD0001BE7284617B0F0BD4C64012029730100B3
:101BE0007061010047730100597301007C070020F8
:101BF000E41200207E750100697301009B730100EF
:101C000066750100C4730100DF73010002740100F6
:101C1000A00800202A740100567401008C74010091
:101C20001FB50024074B0849029320462346032290
:101C3000CDE9004410F0FFFFFFF73EFE204604B060
:101C400010BD00BFA574010070610100F0B5534BD9
:101C50005349544D544E554FA3B01B6821934FF038
:101C60000003534B02930023CDE9003303221846AF
:101C700010F0E1FF4FF0FF334FF0FF320CA9284680
:101C80000FF0FEF803460028F4D19DF830204449B7
:101C90000297CDE903620822CDE90002042210F088
:101CA000CAFF9DF83030032BE4D8DFE803F00205CB
:101CB0005C74FFF793FEDDE79DF838300A939DF8DA
:101CC000373009939DF8363008939DF835300793E7
:101CD0009DF8343006939DF8333005939DF83230EB
:101CE00004939DF8313003930024324B2C49029326
:101CF000032223462046CDE9004410F09CFF012139
:101D00000320FEF7BFFFDDF83100DDF835100723B3
:101D10008DF860301AAB03C3DDE9102318A8CDE9B4
:101D20001C2301238DF8783000F030FA40F664333C
:101D3000ADF84830DDF83130CDF84B30DDF83530D6
:101D4000CDF84F30BDF840309DF842208DF84A4024
:101D50005BBA12A88DF85320ADF85430FFF730FB72
:101D6000FFF7AAFD86E70024134B02932046234683
:101D7000CDE900440A49022210F05DFF08238DF8E6
:101D80006030DDE9102318A8CDE91C238DF87840D8
:101D900000F0FCF9E4E7FFF743FF6BE74C64012038
:101DA00070610100A0080020E5750100D2740100F7
:101DB000B7740100EF740100297501001FB5074BCE
:101DC00002930023CDE9003305490322184610F0A1
:101DD00032FF05B05DF804EBFFF700BE4C75010063
:101DE0007061010070B505462048A86288B013F004
:101DF000D6FAAC6A034670B9226803921C4A1D49A0
:101E00000090CDE90102012210F029FF6FF01204C9
:101E1000204608B070BD4FF47A212960204605AAFB
:101E200012F02AFF044658B1134B0390029300238B
:101E3000CDE900330F490122184610F010FFE7E703
:101E4000069BAB810326EE81284601F041F904464A
:101E500010B10A4B0390E9E7094B06490090CDE920
:101E600001033246034610F0FAFED1E7F45C0100AC
:101E7000F8750100786101001676010036760100E0
:101E80005076010030B51848184D174C87B0FFF751
:101E9000A9FF4FF0FF324FF0FF3301A928460EF0A3
:101EA000EFFF0028F5D19DF804303BB1012B13D092
:101EB000049B6BB16FF015021A6009E0DDE90223A3
:101EC000BDF80610204611F0E1F9049B03B118603B
:101ED00005980FF0FFF8DCE7DDE90223BDF80610F6
:101EE000204601F0C7FAF0E7E8120020D0080020F1
:101EF000F0B57D4B7D497E4F7E4E99B01B681793A0
:101F00004FF000037C4B02930023CDE90033032202
:101F1000184610F0B3FE4FF0FF324FF0FF330EA91A
:101F200038460EF0ADFF0028F5D19DF83830082B6B
:101F30005ED8DFE803F00505333345475365890074
:101F40009DF850006D496E4B9DF84020002818BF49
:101F50000B46CDE903236B4B02930023CDE90033FD
:101F600018466249032210F089FE9DF85030002B7C
:101F70003ED09DF840308DF8303003238DF831305D
:101F80000CA84FF47A730D93FEF7F2FD9DF8400014
:101F9000FFF756FA5C4800F0A1FA29E09DF84130BD
:101FA00004939DF840300393584B02930023184646
:101FB000CDE900334D49032210F060FE5448EAE7B2
:101FC0005448E8E7544B029300231846CDE9003308
:101FD0004649012210F052FE5048DCE7504B029374
:101FE0000023CDE9003341490322184610F046FE94
:101FF0003578052D8FD8DFE805F0333A6069336F07
:102000009DF847300A939DF8463009939DF8453076
:1020100008939DF8443007939DF8433006939DF84C
:10202000423005939DF8413004939DF8403003936E
:102030003C4B029300231846CDE900332B49032281
:1020400010F01CFE3848A6E7384B029300231846D0
:10205000CDE900332549022210F010FE34489AE7FA
:102060009DF83830062B7FF456AF012405E09DF82B
:102070003830002B7FF44FAF02244FF0FF324FF087
:10208000FF332C480EF05EFF34702A480EF0D2FF6A
:10209000294B164953F8242053F825300393274B36
:1020A000029300230492CDE900330322184610F076
:1020B000E5FD23480FF00EF82DE79DF83830042B8E
:1020C00010D0052B7FF427AF0424D6E79DF83830D5
:1020D000022BCAD0032BF5E79DF83830002B7FF494
:1020E0001AAFC2E70324C8E74C640120B8610100BD
:1020F00000090020262D0020AF7601005269010062
:102100005A690100CC760100D9760100F176010010
:10211000956E01000D770100247701003A770100E8
:102120004877010055770100957701002975010076
:10213000A77701003013002024630100B977010064
:10214000181300201FB50C4813F0E8F901220021F4
:102150000A4813F0EAF90A4B0A4900241C700A4B9A
:102160000094CDE9014320462346032210F086FD6A
:10217000204604B010BD00BF30130020181300200B
:10218000262D0020B8610100D47701001FB501465B
:1021900068B9114B11490090CDE9010301220346B2
:1021A00010F06CFD6FF01504204604B010BD0C4813
:1021B000002200230EF00AFE04460028F4D0094B4A
:1021C000029300230390CDE900330449012218460D
:1021D00010F054FDE8E700BFEE770100B8610100A0
:1021E000000900200178010038B5074C4FF0FF329C
:1021F0004FF0FF3320460EF0A5FE044B1D7820461D
:102200000EF018FF284638BD30130020262D002080
:1022100030B585B000251A4B1A49029303222B468C
:102220002846CDE9005510F038FDFEF735FB044691
:1022300068B1154B0390CDE90153124900952B4627
:102240000122284610F029FD204605B030BDFEF7DA
:10225000B9FD044610B10D4B0390ECE7FEF70EFFFD
:10226000044610B10A4B0390E5E70A4B054900907C
:10227000CDE901030322034610F00FFDE4E700BFA0
:102280004D780100D8600100607801007878010085
:102290008D780100A578010001480EF0CBBE00BF8B
:1022A0004413002030B585B0124813F037F913F00D
:1022B000AFFA4FF47A72A0FB020302FB01310E4D1C
:1022C000C00B002440EA4140C90BC5E900012022AF
:1022D00021460A4813F015FC094B0A490094CDE940
:1022E000014320462346032210F0E6FC204605B0B9
:1022F00030BD00BF44130020580F0020600F0020A5
:10230000C4780100D061010038B5044688B10A4D97
:102310000A484FF0FF324FF0FF330EF013FE0FCD9F
:102320000FC495E80F0084E80F00FFF7B5FF002009
:1023300038BD6FF01500FBE7600F0020441300204C
:10234000F0B58FB0564B02930023CDE900335549C9
:10235000554F564D0322184610F0AEFC4FF0FF3398
:102360004FF0FF3238460EF0EDFD6B690A2B00F29C
:102370009480052B94BF002301234D4E337013F03E
:1023800047FA4FF47A72A0FB020302FB0131C30B40
:102390004848D0E9002043EA41439B1A4FEAD13133
:1023A00061EB0001C5E90631FFF776FF06A8FFF7EC
:1023B000ABFF044600286AD13F4B3A490090CDE973
:1023C00001030322034610F077FC069B03933B4B6B
:1023D00034490094CDE9014303222346204610F0FE
:1023E0006BFC079B0393364B2E490094CDE90143C8
:1023F00003222346204610F05FFC089B0393314BD9
:1024000028490094CDE9014303222346204610F0D9
:1024100053FC099B03932C4B22490094CDE90143C3
:1024200003222346204610F047FC0A9B0393274BC8
:102430001C490094CDE9014303222346204610F0B5
:102440003BFC0B9B0393224B16490094CDE90143BF
:1024500003222346204610F02FFCDDE90C23CDE9B2
:1024600004231C4B0F490094CDE90143032223466A
:10247000204610F021FC33780393174B0949009450
:10248000CDE9014303222346204610F015FC00212C
:102490004FF4004013F03BF960E702236DE700BF03
:1024A000DF780100D061010044130020600F00209C
:1024B000272D0020580F0020FD7801000D79010024
:1024C0002179010031790100437901005679010039
:1024D000697901007D7901008F7901001FB50446FB
:1024E000002852D02B484FF0FF324FF0FF330EF050
:1024F00029FD29492046FDF7A1FF38B9274A13686D
:1025000001331360FFF7C8FE002040E02449204655
:10251000FDF794FF20B9214A536801335360F1E776
:1025200020492046FDF78AFF20B91C4A93680133F1
:102530009360E7E71C492046FDF780FF20B9174A62
:10254000D3680133D360DDE718492046FDF776FFF5
:1025500020B9124A136901331361D3E714492046A5
:10256000FDF76CFF20B90D4A536901335361C9E788
:10257000104B02930023CDE900330F49039402224C
:10258000184610F099FBFFF787FE6FF0150004B0B6
:1025900010BD00BF44130020D9760100600F002059
:1025A000956E01001C6F01009C7901000D77010000
:1025B0003A770100A9790100D061010010B5094CFA
:1025C0000A44914200D110BD11F8013B5840030963
:1025D0000001E35CC0B2434018091B01205CDBB280
:1025E0005840EEE7E57901002DE9F04F93B08407FC
:1025F0000093944B03921B6811934FF00003039BCD
:10260000DDF8708003F004030293039BC3F3C2035D
:1026100003F1010305460E46059340F0C481041DF5
:1026200068B1072910D86FF01B00864B1A68119B00
:102630005A404FF0000300F0B98113F0A3F801F005
:1026400007063444C6F10806009B4FF00009591EE6
:102650004FF0040A4FF0FF330193CDF810904F462E
:10266000CB4653460DB1009A22600598002800F32E
:10267000EF807548009A824203D374488242C0F0CA
:10268000E780039AA4EB050E92074FEA9E0000F143
:102690000A810F2F00F2B180002D00F00C8107F1AC
:1026A00048020DEB020C019A0CF8240C0CF8142CC7
:1026B000049801300490EEE07A285DD84B280ED8BB
:1026C000472859D829282DD8252852D054D8202831
:1026D0007AD02338D0F1000B4BEB000B74E04C3870
:1026E0002E2849D8DFE800F0704848484848484854
:1026F000484848484B484848484848484859484B43
:102700004B595959704B6D487048184B18484882BE
:102710007F4B48484B487F0000204FF0000B4FF0A4
:10272000040A38E02A38C0B2012202FA00F010EAA6
:102730000E0F49D110F0625C2FD110EA020B43D08A
:102740006046013C5444B4FBFAF40AFB04F4002D47
:1027500061D0A3EB050CA444B4453FF664AF002858
:1027600068D1042B47D158F8043B23600434042378
:102770002AE0019A013A01924FF0000B24E011F88F
:10278000010C6C2834D111F8023C00206C2B8346DC
:10279000C5D14FF0080A5346D3E708F1070828F0DF
:1027A00007080734F8E802AB24F0070435B10698AF
:1027B0002044B0423FF637AFC4E900AB08344FF0D5
:1027C000000B4FF0080A534611F8010F00287FD084
:1027D000BBF1000F7FF470AF2528F5D1019B0133C9
:1027E00001934FF0010B4FF0040AECE7584694E7D1
:1027F00000208346A5E7082B02D06FF0150014E7F0
:1028000008F1070828F00708F8E80223C4E90023C4
:1028100008340823D8E768B9042B02D108F104086A
:10282000A4E7082BE9D108F1070828F0070808F108
:102830000808EDE7059A013A059258F8042B009232
:1028400010E700BF4C6401200C5C01007093010094
:10285000039A900720D5A4EB050E4FEA9E004FF097
:10286000010CBEF5007FC8D20F2FC6D8F5B107F115
:1028700048020DEB020EC0B2019A0EF8240C0EF8BD
:10288000142CBCF1000F3FF413AF60F07F000EF882
:10289000240C09F101090137C5F10802043406923C
:1028A0004FF6DA7E90E74FF0000CDAE7BCF1000F4C
:1028B00001D00136EFE7029802360028EBD10098EC
:1028C000CDE90631FDF7C4FDDDE906310644E2E756
:1028D000631BB3F5806F90D21DB9A6F10804E01810
:1028E000A3E6029A28609B082B709DF81030C2B1B5
:1028F000EB7085F80290B9F1000F05D009A800220D
:10290000C5F1010C97420ED1C5F101030DF1240868
:102910004FF0000A01930DF1340B574512D1601BA3
:1029200083E66B70E5E710F8013B190608D50CEB60
:10293000040EB64503F07F033FF675AE04F8013B85
:102940000132DFE7B9F1000F03D098F90020002A27
:1029500017DB029BD3B11AF80B2004F8012B0022DD
:10296000019B18191044B0423FF65DAE98F8000084
:1029700004F8010B00990392204613F09AF8039A89
:1029800014440AF1010A08F10108C6E798F800208A
:1029900055F822300093029B45F822300098FDF74D
:1029A00057FD421CDCE76FF00D003EE613B0BDE8BA
:1029B000F08F00BF80B505460E46174698460FF0CB
:1029C00065F8034613F018F9DFF81890044649F843
:1029D0000030424630463946A84754F8090001F015
:1029E00031FF00BF0800000008B50446EFF3118373
:1029F000202383F31288BFF36F8F0BF0D5FD2046A1
:102A000002F02CFA024810F077FA10F045FDFCE7CE
:102A1000067A01002DE9F047058B04462807904609
:102A200011D4022905F0070540F0CC80204610F0B3
:102A300070FA78B10138218B042811D8DFE800F052
:102A4000C2106D85950001290CBF45F0100545F0B9
:102A50002005258388F31188BFF36F8FBDE8F087C9
:102A600001F0070AAA4500F0A5800027B9463E46B6
:102A7000A368002B00F0BC8041F00801218388F39B
:102A80001188BFF36F8FA168002900F0BA800D682C
:102A9000002900F0B680D1F8048033465246204623
:102AA000C047002D76D02B6829461D46F0E701F07F
:102AB00007035A1F012A1BD8002221F00701062B09
:102AC000276889B2C4E9002209D13B4603E0628B42
:102AD000013262831B68002BF9D141F0020121838E
:102AE000204610F016FA00287AD041F0200176E056
:102AF000042B0AD121F0070189B22183204610F06E
:102B000008FA10B141F020012183218B01F0070A5E
:102B1000AA454FD00027B946AAE7236921F007014B
:102B200041F00601062DD3F8009021832DD1B9F193
:102B3000000F3FD041F00801218388F31188BFF3D3
:102B40006F8F3A492046C84729E021F007012369E1
:102B500041F0040189B2042DD3F804902183E6D01A
:102B600000273E464FF0040A82E721F0070123695F
:102B700041F0050189B2052DD3F808902183D6D004
:102B800000273E464FF0050A72E700273E464FF009
:102B9000060A6DE72B4687E7B9F1000FD1D1EFF3B5
:102BA0001188202383F31288BFF36F8F238B23F0C8
:102BB00008032383258BEA062ED525F010032383F3
:102BC00005F007056669218B002EBFF670AF002364
:102BD0002768C4E9003321F0070141F00101218396
:102BE000218B01F0070AAA454FF000097FF440AF9E
:102BF000002F9CD041F00801218388F31188BFF396
:102C00006F8F002FC8D03D68394633465246204664
:102C100010F0ABF92F46F4E7AB067FF51BAF25F0BC
:102C20002003238305F0070500E700BF972F01006D
:102C30002DE9F0431C461B4B8BB01B6809934FF0EA
:102C40000003C36A1D686D4206468846174605F0B4
:102C500020054CB92046134B1A68099B5A404FF087
:102C600000031BD012F08EFDAC42A14628BFA9463E
:102C70004B4601AA4146304610F032FA0028EAD10C
:102C800001AB484502D1241A8044E2E713F8012B36
:102C9000BA4201D10130F4E70120DCE70BB0BDE816
:102CA000F08300BF4C64012070B5838905680E0C69
:102CB000090C86B003FB0155CDE90453104B039377
:102CC000104B0293044600230822CDE90032184637
:102CD0000D49042210F028FA3604A06AA289294678
:102CE00010F08CFB50B9E26AA38952793146204634
:102CF000FFF79EFF002818BF6FF0050006B070BDFB
:102D0000F27B01002F7A0100106101002DE9F043F0
:102D100089B04B8804931D4B03931D4B02930824E9
:102D200000230746CDE900340D4618461949DFF85F
:102D30006890042210F0F8F9F86A214610F004FABD
:102D40002C68241A80462C6004EA0906B44203D891
:102D5000002009B0BDE8F083082306AA21463846C2
:102D600010F0BEF90028F4D106A9384610F0F6F9A3
:102D700040B1BDF81A30BDF81C202C6006EA0906E7
:102D800013441E44A4EB0804E0E700BFDD7B010010
:102D9000507A0100106101000000FFFF2DE9F043AF
:102DA000074622488BB09046006809904FF000001B
:102DB0001E464BB900201D4B1A68099B5A404FF024
:102DC00000032FD012F0DEFC3C68BB89080C14FA1B
:102DD00081F100FB0314FB6A1D686D4235400CD085
:102DE000B86A83682146D3F804902B46C847002868
:102DF000E1D1761BDED02C44A8443246414601A8DE
:102E000012F057FEFD6A2A68697901AB9819921B86
:102E100012F077FEB86A2B6882682146556801AACD
:102E2000A847C8E70BB0BDE8F08300BF4C640120A1
:102E300070B588B083880493114B0393114B0293B0
:102E40000025044608230422CDE900530E492B46F1
:102E5000284610F069F94FF6FF76A368ADF81A30EE
:102E600006A8ADF81860ADF81C508DF81E6010F083
:102E700052F906A9204610F0F8F908B070BD00BF5D
:102E8000C27B0100777A01001061010073B504462E
:102E90000821C06A124E10F057F94FF6FF726368AE
:102EA000ADF800208DF80620A2891918334013448C
:102EB000181A002560606846ADF80210ADF804509D
:102EC00010F029F96946204610F0CFF92046211D5F
:102ED00010F014F9636828463340A36002B070BD57
:102EE0000000FFFF2DE9F04F754B04469BB0C06A10
:102EF00008211B6819934FF0000310F025F963684F
:102F00001B0C1B04054608A92046089310F0F6F890
:102F1000DDF820B0A6895E44761B0BAA0823314653
:102F20002046099610F0DCF8021EC0F2BB80E36A6E
:102F30000BAA5979002312F8010B814240F0A180BD
:102F40000133082BF7D1A36862682B449A4280F0C2
:102F5000908059462046FFF7A7FE0246A2E0BDF842
:102F60002E30360C36041E4409960DAA09A92046B7
:102F7000DDF824A010F02FF90246002840F09280DE
:102F80000DA9204610F0EAF818B9079B5345ECD17B
:102F9000D9E763680A930FAA0AA920460A9E10F08F
:102FA0001AF9024600287DD1BDF83C20BDF8343026
:102FB0009A4238D062680A9B9A42ECD1B245E4D179
:102FC000BDF83830002BE0D00593BDF834300493C1
:102FD0003C4B03933C4B029308220023CDE9003283
:102FE00018463A49042210F09FF8BDF836704FEAAF
:102FF0001A431B041F440DA8A368ADF8363010F027
:103000008AF8E36ABDF838901E68764206F020061A
:10301000B9F1000F0ED10DA9204610F026F9024695
:103020000028B2D03EE00FA9204610F097F8002803
:10303000C0D0C3E74E45B04628BFC84611AA434694
:103040003946204610F04CF8024658BB4346A1686A
:1030500011AA2046FFF7A2FE41460246E06A10F0A0
:1030600073F8A3680344A360E2B9A9EB08094744D5
:10307000CEE72046FFF7DCFE024600283FF469AFAA
:1030800010E0731B0BA92046079310F086F8002868
:103090007FF465AF09A92046FFF738FE02460028F5
:1030A0003FF463AF064B1968199B59404FF000037A
:1030B00001D012F067FB10461BB0BDE8F08F00BFD7
:1030C0004C640120D67B0100947A0100106101005C
:1030D0002DE9F04704468EB000F11407384612F08F
:1030E0001DFAA06A8368DB6898470346E06230B93E
:1030F000904A0090CDE901028F4901220FE0A06AB9
:103100008368DB6898470368013B1F2B0FD98B4B03
:1031100002930023CDE9003387490122184610F0BD
:1031200003F86FF0150528460EB0BDE8F087A06AD9
:1031300021680BAA11F0A0FD08B1814BE8E7A58931
:103140002DB10C9BB5FBF3F203FB12550DB17D4B7A
:10315000DEE7E389012B05D87B4B0095CDE90153D0
:103160002B46C9E7E36A069593F805904FF0FF33C5
:103170004FF0FF3238460DF0E5FEE06A08210FF00F
:10318000E3FFA8460646E3891FFA85FA534508D8A7
:10319000E389434523D138460DF04CFF6FF02C05F1
:1031A000C1E7A1892B04891B13FA81F14A46082340
:1031B00020460691FFF73CFD78B106A920460FF0A6
:1031C0009DFF08F10108069908234A4620461FFA88
:1031D00088F8FFF72DFD0028DAD00135D3E75345F5
:1031E0000BD1069908234A46891B2046FFF720FD8C
:1031F00018B906A920460FF081FF06A92046FFF75F
:1032000085FD054618B138460DF014FF8BE7069B87
:1032100063604FEA13484FEA0848C4F80880D4E9CD
:10322000011399420FD3082307AA20460FF058FF35
:1032300005460028E7D107AB13F8012B914543D190
:103240000135082DF8D163681B0C1B0406A9204624
:1032500006930FF053FFA38906994A462046FFF7CD
:10326000E7FC051ECFDB636800F0828006EB0308F5
:103270004FF6FF79A389CDF818801FFA88F29B1BBF
:103280009A423DD3314B029300231846CDE90033D7
:10329000294903220FF048FF61682046FFF704FD2B
:1032A00005460028AFD16368294AA18913400B4421
:1032B000A3EB460363601340A3602046FFF712FEB2
:1032C0000546002D70D09EE707A920460FF046FF67
:1032D000626810B9921B6260A1E7BDF82050BDF88A
:1032E0001E10E06AC4F8088029440FF02DFF404406
:1032F0009042A060EED1002DECD06FF01C0590E064
:10330000082309AA414620460FF0EAFE0546002898
:103310007FF479AF09A920460FF020FF38B1BDF83E
:1033200024304B4503D1BDF82830002B7FD0B0446A
:10333000A0E700BFBE7A010010610100E07A010041
:10334000FD7A0100157B0100297B0100867B0100CD
:103350000000FFFF5B1A4A462046FFF769FC051E86
:10336000FFF651AF08D0E26AA36812681344A36065
:10337000D4E901318B42EDD86168A38901EB4602A3
:103380009A429ED1DFF8D480A26801EA08039A42EB
:1033900097D02046FFF788FC054600287FF433AF1E
:1033A000636803EA0803A360A389A288A3EB46032A
:1033B0009A4232D038460DF03DFE01232374A38992
:1033C0000493E38903930025254B029328462B465B
:1033D000CDE90055234903220FF0A6FE6368214979
:1033E00000959AB21B0C03931F4B0492CDE9015335
:1033F00028462B4603220FF097FEA3681949009533
:103400009AB21B0C0393194B0492CDE9015303228A
:103410002B4628460FF088FE85E62046FFF708FD7C
:10342000054638460DF006FE002DC6D07BE6104B53
:103430000C490095CDE9015303222B4628460FF095
:1034400073FE63681B0C1B0406A9204606930FF04D
:1034500055FE06992046FFF727FC31E70000FFFFE5
:103460004C7B010010610100637B0100757B010052
:10347000AD7B01002DE9F04F97B01D46704B0691D2
:1034800004921B6815934FF00003037C0446A3B914
:103490006C4A6D490093CDE90132184601220FF0C4
:1034A00043FE6FF00C06664B1A68159B5A404FF0AE
:1034B000000300F0C08012F065F9C26A08211046CE
:1034C0000FF042FE2946059010460FF03DFEA389FD
:1034D000059AA3EB8203AB420746C0F0A9801DB159
:1034E000049B002B00F0A4806368089309AA08A934
:1034F0002046DDF820A00FF06EFE06460028D2D14F
:10350000BDF82430069A934206D06268089B9A421E
:10351000ECD1002D36D1C6E709A920460FF01EFEDA
:103520000028F2D0BDF82680BDF8283045B39D4272
:1035300028D1E36ADDF810B01B684FEA1A4A5B42F3
:103540004FEA0A4A03F02003D0440793AA46DDF865
:103550001C90D14528BFD1464B460DAA4146204676
:103560000FF0BEFD00284AD14A460DA9584612F078
:10357000D0FA38B9BAEB090AC844CB44E7D192E78C
:10358000002B90D0002F3DD1B84604F1140A4FF023
:10359000FF324FF0FF3350460DF0D4FCE3899E42DA
:1035A00043D0A168626808EB01039A422FD3069BBF
:1035B000ADF82C30FF238DF83230049AADF82E1080
:1035C0002B462046ADF83050FFF7E8FB294607466A
:1035D000E06A0FF0B9FDA3680344A36057B90BA8D4
:1035E0000FF099FD0BA920460FF03FFE002814BFF5
:1035F00007462F4650460DF01DFD3E4653E7C1DC01
:10360000064650E7059B1F441FFA87F8BDE7204692
:10361000FFF73CFC07460028ECD12046FFF762FC90
:1036200007460028E6D10136B8E76FF01B07E1E74F
:103630006FF0150637E7304617B0BDE8F08F00BFD2
:103640004C640120AA7A0100106101002DE9F047C5
:103650001E4688B0037CBDF8409004460F46904655
:103660006BB92F4A2F490093CDE901321846012248
:103670000FF05AFD6FF00C0008B0BDE8F087C06A8B
:1036800008210FF061FDA389A3EB4003B34243D3AC
:10369000D4F804A0CDF814A000254D455146DDF81E
:1036A00014A009D9636853451ED1BDF81830BB4238
:1036B0001AD06FF00100DFE706AA05A920460FF037
:1036C0008AFD0028D8D1BDF81830BB4206D106A922
:1036D00020460FF043FD08B10135ADB26268059B8D
:1036E0009A42DAD15146E0E7BDF81C30002BE0D019
:1036F000A945DED8BDF81A00090CB3424FEA0141D2
:1037000028BF33460144424620460FF0E9FC00281A
:10371000B2D1BDF81C00AFE76FF01500ACE700BFF9
:10372000AA7A0100106101002DE9F84F81462F4867
:103730000F460FF0B6FD064670B92D4CDFF8B4A069
:103740000546A0464FF0010B544507D3B9F1000FD1
:1037500002D04FF0010AE5B9BDE8F88F237B6BB1C9
:103760002368DB680BB12046984723681B6943B97F
:10377000636804221968204600F0C8F80136103446
:10378000E2E7204698470028F2D00BFA06F31D43E3
:10379000F4E7A94695FAA5F4B4FA84F40AFA04F316
:1037A000260108EB04146FEA030B25EA0305237BCB
:1037B00063B158F806301B6993B946440422736814
:1037C0002046196809EA0B0900F0A0F8002DE1D1A4
:1037D00027B14FF4A470002111F099FF4D46BAE7CC
:1037E000204698470028F1D1E7E700BF601300208A
:1037F000D8610100E8610100014B53F820007047D7
:103800003C63010008B5034608462BB1044A136027
:1038100000F092FA002008BD6FF01500FBE700BF32
:10382000DC040020054A064800231370054A136093
:10383000054A4FF400411360FFF7E4BF282D002034
:103840009F320100581300205C13002070B50B4D0F
:10385000297841B90120FFF767FF094C094EB442AE
:1038600002D301232B7070BD63685B791BB12368A1
:1038700020469B6898471034F1E700BF282D0020B0
:10388000D8610100E861010010B5044608480FF056
:1038900008FD5CB1BFF35B8F064B53E8001F013995
:1038A00043E80012002AF8D1BFF35B8F10BD00BFC0
:1038B000581300205C13002070B50A4B0A4C1B689B
:1038C0000A4E05469847A860B44200D370BD6368AD
:1038D0005B7923B1236829461B682046984710343A
:1038E000F2E700BFDC040020D8610100E8610100BC
:1038F000044A054B9B1AB1EBD30F34BF52F8310089
:1039000000207047D8600100D8610100084BC31A3D
:1039100010B41B1144680133237143689A714368E2
:103920001960436801225A7110BC0FF0DCBC00BF63
:10393000D86101002DE9F04F87B004AFD7E90EA997
:1039400093462C4A3D6B04460E46984612687A60B0
:103950004FF00002BAF1000F23D0C7F80090CDF865
:10396000009010217A6B53460020FEF73DFEB0F523
:10397000006F014616D340F2FF7303931E4B029370
:103980000023CDE900331D49022218460FF0C7FC81
:10399000184B1A687B685A404FF0000326D011F08C
:1039A000F1FE514604F007040BF0070BE40044EA73
:1039B0008B1444EA412444EA055417350D4425F09C
:1039C0000705ADEB050D04ADBAF1000F07D0CDF83A
:1039D00000907A6B534605F11000FEF705FE434652
:1039E0002246314628460FF081FCD1E70C37BD4610
:1039F000BDE8F08F4C6401201D7C010030610100A6
:103A0000406820B1034BC01A40F3CF0070474FF01D
:103A1000FF307047D86001000EB403B503AB014618
:103A200053F8042B0448019301F0BEF902B05DF88D
:103A300004EB03B0704700BF5B330100CA0605D436
:103A40008B064CBF02490349FFF7E6BF704700BF32
:103A5000567C0100557C01002DE9F04F87B00446EB
:103A60009DF844600D4690469946002E00F0A280D5
:103A7000159B03F0020A03F001030493159B03F066
:103A8000080B03F4807305930FF02EFC0246002808
:103A90003DD095492046FFF7BFFF0746BAF1000F1A
:103AA00009D0159B13F0440F33D190492A46204684
:103AB000FFF7B2FF0744049B53B18D4B8D4953F878
:103AC00026208D4B2046002A08BF1A46FFF7A4FF88
:103AD000059B002B49D0BBF1000F64D1B8F1000F5A
:103AE00066D0864942462046FFF796FF0546129B60
:103AF0003D44002B6DD1149B002B73D1159BDB072C
:103B000000F1EB8015992046FFF798FFD8E00746B3
:103B1000C4E77B4B18680028CCD07A4B4FF47A7AF4
:103B20001B68B5FBF3F54FF46163B5FBF0F100FBE7
:103B300011550AFB05F54FF03C0CB1FBF3F203FB0A
:103B40001211B5FBF0FEB1FBFCF300FB1E550CFBA4
:103B500013110AFB05F50091B5FBF0F56A49CDE9B3
:103B600001E52046FFF758FFA4E7BBF1000F1DD089
:103B7000664B674953F826202046FFF74DFF054660
:103B8000B8F1000F05D05D4942462046FFF744FFDB
:103B90000544B9F1000FAAD05E494A462046FFF716
:103BA0003BFF0544A3E74FF00009E1E75D46E7E787
:103BB00045469CE7B9F1010F129B06D1002B66D157
:103BC000149B002B7CD000250CE0002BF8D0524831
:103BD0005EE05248129B524922460FF05CF9149B5A
:103BE000002B6AD0DFF83C81DFF83C91149F1599D7
:103BF000102F204628BF1027FFF720FF4FF0000BA3
:103C00005D4547DC139B49461A782046FFF704FFC1
:103C10004FF0010B1BF0070F03D141462046FFF781
:103C2000FBFE5F453DD9139B494613F80B20204608
:103C3000FFF7F2FE0BF1010BBBF1100FEAD13B498C
:103C4000DFF8ECB020464FF0000AFFF7E5FE5246E1
:103C5000139B9A5CA2F120015F2928BF2E225946AE
:103C60002046FFF7D9FE0AF1010ABAF1100F1DD064
:103C70001AF0070F03D141462046FFF7CDFE574506
:103C80005246E5D841462046FFF7C6FEEBE72348FB
:103C900035469FE741462046FFF7BEFE0BF1010B7C
:103CA000AEE724492046FFF7B7FEC3E7139B3B442A
:103CB0001393149BDB1B149398D1002E7FF41EAF3B
:103CC0006268A1682068D2E900230FF038FB6368BE
:103CD00000221A6007B0BDE8F08F074A0549204668
:103CE000FFF79AFE0EE700BF5D7C0100617C0100DA
:103CF0004C630100F7810100587C0100867C0100C3
:103D000068130020641300206A7C010060630100D6
:103D10008A7C0100907C0100773301005B33010055
:103D2000A94D00009D7C0100957C01009F7C010055
:103D3000A17C01009B7C0100074A002101239042E5
:103D400006D8064A01B901231360054B1860704775
:103D500040085B000121F2E740420F00641300209D
:103D600068130020014B01221A707047292D002092
:103D7000014B0020196070478013002010B5064BDE
:103D800018680C46FFF738FD21460346BDE8104091
:103D900002480F22184700BF8013002090630100E3
:103DA000F8B5094D094B0A4ED5E9004701221A70B2
:103DB0000CB92C60F8BD214630463A4600F00AF8AE
:103DC000241A0644F4E700BF741300202A2D0020B3
:103DD0002B2D0020F8B5194D07460E460424324617
:103DE000394600200CF080F9C8B101232B70144B28
:103DF0001B782BB93046F8BD5CB92C704FF0FF34FE
:103E000000200CF0B5F90028F4D02B78002BF3D16A
:103E1000F0E7013C41F2883011F0BCFAF0E72B7872
:103E200013B1013C04D12C702B78002BD7D1E1E7E2
:103E300041F2883011F0AEFAF6E700BF292D0020DC
:103E40002A2D0020014B036000207047A063010071
:103E500008B504480FF050F8BDE8084002480FF0DC
:103E60004BB800BFDA7C01000F7D010001480EF065
:103E700007BA00BFA063010038B5044618B90F4B5C
:103E80000F485B6898476168B1F5683F10D0B1F59D
:103E9000680F0DD00B4DA9420AD011F4686120685B
:103EA00007D00146084811F0E2FA0023236065605C
:103EB00038BD142211F025FEF9E700BF5806002096
:103EC0003D7D01002C5F5CA98418002008B520B35B
:103ED0004368B3F5683F10D101220368BFF35B8FDD
:103EE00053E8001F002903D143E800200028F7D140
:103EF000BFF35B8F0DD1002008BD094A93420AD061
:103F000000684FF0FF324FF0FF330DF01BF8002830
:103F1000F1D00448F0E70448EEE76FF4E040EBE747
:103F20002C5F5CA9E98FFFFFEA8FFFFF08B5D8B1CE
:103F30004368B3F5683F10D100220368BFF35B8F7D
:103F400053E8001F012903D143E800200028F7D1DE
:103F5000BFF35B8F0BD1002008BD074A934208D006
:103F600000680DF067F8F6E76FF4E040F4E7034807
:103F7000F2E70348F0E700BF2C5F5CA9E98FFFFF81
:103F8000EA8FFFFF10B5044618B91D4B1D485B684A
:103F900098476368B3F5683F2FD0B3F5680F2CD00E
:103FA000194A934219D1236803BB18484FF0FF32D6
:103FB0004FF0FF3321460CF0DBFE08B923681BB934
:103FC0000F4B13485B68984720681422002111F0BA
:103FD00098FD4FF46863636008E0B3F5683F0DD85F
:103FE0003A2B03D040F6BA629342DED1206811F03A
:103FF00095FA636843F03A03636010BD054AF3E73E
:10400000580600203D7D01002C5F5CA9841800202B
:10401000637D01003A00003A08B50649064840238E
:10402000142211F016FABDE80840044904480EF0C5
:1040300099B900BF8413002084180020A8630100F0
:10404000BC63010070B5064686B00D46002938D025
:104050008B6805934B6804930B6803930024244BEF
:1040600024490293012223462046CDE900440FF063
:10407000DDF96B6905932B690493EB6803931E4B81
:104080001C490094CDE901430122234620460FF04C
:10409000CDF9EB690393194B16490094CDE901431F
:1040A0000122234620460FF0C1F9AB690393144B5C
:1040B00010490094CDE901430122234620460FF028
:1040C000B5F9012E0DD1EFF30583103B03930D4B92
:1040D00002930023CDE900330649324618460FF01B
:1040E000A5F92946304606B0BDE870400CF058BC32
:1040F000907D010088610100BF7D0100EE7D01001F
:10410000FD7D01002B7E010030BFFFF7FDBF00BF2A
:104110002DE9F0410B4EDFF8308006EB0807CC1B91
:10412000054632460949204611F0C3FCA019424613
:104130000021083C11F0E5FC6C6707F10800BDE8C0
:10414000F08100BF0000000004000000E8610100F1
:10415000074A936893F90E10002907DB52699342CE
:104160001FBF044A536843F080535360704700BF39
:10417000102B002000ED00E0F0B585B00024434B8B
:104180000293CDE90044234607460E4601224049EA
:1041900020460FF066F93F4B9B6ADB0465D53E4B2A
:1041A0003B490094CDE901432046234601220FF00C
:1041B00058F91720374B9B6A1D050AD5374B0293D8
:1041C00000231846CDE90033314901220FF049F9A7
:1041D0001820304DAB6A9C051FD50024304B02934C
:1041E000012223462046CDE9004429490FF039F940
:1041F000AB6BAA6A10040FD503932A4B2449009491
:10420000CDE901430122234620460FF02AF91FB1D0
:10421000AB6A23F40043AB6219201E4B9B6A59051D
:104220000AD5214B029300231846CDE900331849E3
:1042300001220FF016F91A20164A936A13F48073BC
:1042400015D01A4B029300231846CDE900331049CC
:1042500001220FF006F91B200E4A936A43F47F43B4
:1042600093620023337005B0F0BD1620A2E7926A76
:104270009204F1D50E4A06490093CDE90132184661
:1042800001220FF0EEF81C20E6E700BF3E7E0100A1
:104290008861010000ED00E0547E0100657E0100B0
:1042A000787E0100917E0100A67E0100C17E0100A2
:1042B000D97E01001FB50024374B0293012223460B
:1042C000CDE90044354920460FF0CBF8344B9B6ACA
:1042D0009A015ED5334B31490094CDE90143204624
:1042E000234601220FF0BDF81E202D4B9B6ADB01F7
:1042F0000AD52D4B029300231846CDE900332749F8
:1043000001220FF0AEF81F20254B9B6A1C030AD533
:10431000264B029300231846CDE900331F490122A2
:104320000FF09FF821201E4B9B6A59030AD5204BA2
:10433000029300231846CDE90033184901220FF0FB
:1043400090F82220164B9B6A9A030AD5194B0293C8
:1043500000231846CDE90033104901220FF081F8FF
:1043600023200F4B9B6ADB030AD5134B02930023D8
:104370001846CDE90033094901220FF072F82420D4
:10438000074A936A6FEA03436FEA1343936204B0E8
:1043900010BD1D20A9E700BF087F01008861010052
:1043A00000ED00E0207F0100337F01004D7F010020
:1043B0006B7F0100907F0100AA7F01002DE9F0438F
:1043C00085B000244D4B0293CDE90044234680463E
:1043D000894616464A49012220460FF042F8494BC9
:1043E0009B6ADF0640D5484B0094CDE90143204647
:1043F0002346434901220FF034F81124414B9B6AB4
:104400001D070AD5414B02930023CDE900333C49F7
:10441000012218460FF025F812243A4DAB6A98078E
:1044200024D500243A4B36490293CDE90044234673
:10443000012220460FF015F86F6BAB6A190659D5AB
:10444000344B2F490397CDE90143009423460122C1
:1044500020460FF006F8B9F1000F03D0AB6A23F045
:104460008003AB62132403E01024C7E76FF0150745
:10447000244B9B6ADA070AD5274B02930023CDE928
:1044800000331F49012218460EF0EBFF14241D4B88
:104490009B6A9B060AD5214B02930023CDE900338A
:1044A0001749012218460EF0DCFF1524154B9A6AB5
:1044B000D50602D49A6A90070AD55B68190507D514
:1044C0004146384600F098FA10B180F3098802247A
:1044D0000C4B9A6A920642BF5A6A22F400525A6200
:1044E0009A6A42F0FF029A6220460023337005B0B8
:1044F000BDE8F0836FF01507B4E700BFD57F01007A
:104500008861010000ED00E0EB7F0100657E0100A5
:104510001E800100368001004C800100D97E010020
:104520002DE9F041754B5F6890B00446C7F308066B
:10453000002383F31188BFF36F8F02F07F40B0F147
:104540007F4F0CD102F00C00082819D16C4A6D493C
:104550000093CDE90132184601220EF082FF0025BA
:104560002C464FF00008F31E8DF81F80092B00F237
:10457000AC80DFE803F00BA0A49CAAAAAAAAAAA870
:10458000120746BF0C461D460125EAE75E4B5D4912
:104590005A4FCDF80080CDE901830023012218464F
:1045A0000EF05FFF8DF81F80FE6A16F0020605D040
:1045B000564BCDF80080CDE9018306E0FB6A002B65
:1045C0000BDA534B0096CDE9016300234D490122DC
:1045D00018460EF046FF00223BE0FB6A5B00FAD56E
:1045E0004C4B48490096CDE90163012233463046E1
:1045F0000EF037FF7B69A26943F480737B61BFF3E0
:104600004F8FBFF36F8F7B6932F8022C23F48073D6
:104610007B61BFF34F8FBFF36F8F4DF602739A42EA
:104620000AD0BB6ADBB2002B33D00DF11F0201218F
:104630002046FFF7C3FE3CE023680393364B314925
:104640000096CDE901630122334630460EF009FFA2
:1046500022689DF81F30CBB908AE04F1200720680E
:104660006168334603C30834BC421E46F7D10F9B32
:10467000002D3ED0C3F3080121B96FEA53236FEA3E
:1046800043230F9308A91046FFF7DCFC10B0BDE8E8
:10469000F081BB6A13F47F4F05D00DF11F0101209B
:1046A000FFF76AFD05E0BB6AB3F5803F93D3FFF7E0
:1046B00001FE0246CDE70DF11F020021B8E70DF122
:1046C0001F010020ECE7154B73E7154A154B0D4908
:1046D00017F4F87F18BF1346103ECDE90336124B8E
:1046E00002930023CDE90033012218460EF0B9FEF3
:1046F00071E723F4FF7323F00103C2E700ED00E04C
:104700009980010088610100C4800100DB80010004
:10471000FC8001000A81010029810100458101001E
:10472000808001006B80010069810100044B5A699F
:1047300042F010025A615A6922F008025A61704729
:1047400000ED00E0EFF30880EFF3098101B5724658
:10475000FFF7E6FE01BD00BF002080F31488BFF321
:104760006F8F134880F3088809F050FF002011492B
:104770000860BFF34F8F00F033F8202080F31188DA
:104780000D484FF0AA014FF4046210F043FE0A48AE
:104790004FF40461401880F30988EFF3148002217C
:1047A000084380F31488BFF36F8F00F0EDF800002A
:1047B000401E012094ED00E080D400200749D1F88C
:1047C00090200023C2F307221846934200DB704773
:1047D000C1F89830C1F8A0000133F6E700ED00E021
:1047E00008B572B6002383F31388FFF7E7FF144B75
:1047F0004FF0FF32C3F88020C3F88420C3F888202C
:10480000C3F88C20C3F89020C3F89420C3F89820F4
:10481000C3F89C20C3F88021C3F88421C3F8882101
:10482000C3F88C21C3F89021C3F89421C3F89821D0
:10483000C3F89C2162B6BFF34F8FBFF36F8F08BDE3
:1048400000E100E0084B9B6883420BD1EFF3058346
:1048500043B1064B5A6842F080525A605A6A22F4B9
:1048600000425A620DF018B9102B002000ED00E054
:1048700015498A684FF030001044EFF3098C80E846
:10488000F01F202080F31288BFF36F8F0F4F4FF07F
:1048900000664A698A603E604FF07404141920680B
:1048A0000B4C2060906F0023936780F3118804B550
:1048B000104600F005F9BDE8044002F1300090E830
:1048C000F01F8CF309887047102B002004ED00E0E6
:1048D000A01800201EF0040F0CBFEFF30880EFF3C8
:1048E0000980816911F8021C0229FFD001B57246C6
:1048F0000EF0ACFD01BD00BF40B2002807DB044A4A
:104900004109012300F01F00834042F82130704725
:1049100000E100E040B200280CDB4309064900F04A
:104920001F0020330122824041F82320BFF34F8F24
:10493000BFF36F8F704700BF00E100E0054B4209F5
:1049400000F01F0053F82220012303FA00F010406A
:10495000704700BF00E100E040B20028A8BF00F1AE
:10496000604001F10101B8BF064B4FEA4111ACBFF5
:1049700000F5614000F00F00C9B2B4BF195480F8CF
:104980000013704714ED00E00B4A08B50B4B22F002
:104990007F029A60BFF34F8FBFF36F8FD3F88820E9
:1049A00022F47002C3F888200CF0D8F80DF094F9C6
:1049B00000F05CF80CF04EF90000000000ED00E0A3
:1049C00042F8203C009B42F81C3C0A49019B42F8FB
:1049D000183C029B42F8143C21F001014FF0807317
:1049E00042F8043C42F8081C0023203A0265836721
:1049F000704700BFB5290000094A0346906870B1AE
:104A000013F1160F406E05D0A0F140029A4205D86E
:104A1000834203D2814228BF0020704700207047A4
:104A2000102B002008B51546094A0A4B9060426FCA
:104A30001A600E4600F044F82C4686F309880020E0
:104A4000054B98472046002100220023034C2047B5
:104A5000102B0020A01800208B340100B529000085
:104A6000014B10221A61704700ED00E0044800235A
:104A70002021C2180133302B82F80013F9D170477E
:104A800000E100E008B5EFF30583064A103B02EBB6
:104A9000C30152F8330049688847BDE80840FFF772
:104AA00057BB00BF445D0100024B034A034801218C
:104AB00000F096B80000042000000020CC63010044
:104AC000426E054B403A1A60044A4021C3E9011284
:104AD0001846012100F08EB8A418002000000B1524
:104AE0001FB5144AD2F89030C3F30723013B984214
:104AF0000FD9114B029300230390CDE900331846E0
:104B00000E4901220EF0F4FC6FF0150005B05DF8BF
:104B100004FBC2F898000B6823F01F03034343F023
:104B20001003C2F89C308B6843F00103C2F8A03038
:104B3000ECE700BF00ED00E080810100686101004A
:104B4000F0B50E4689B01F4604460025B54212DA7C
:104B5000606838B3BFB1431E18420FD0134B0293A5
:104B60000023CDE9003312490395012218460EF0C7
:104B7000BFFC6FF01502104609B0F0BD1F28EDD93B
:104B800021680B42EAD1236805930EF0A1FCA368CB
:104B900005A90343D0B20793FFF7A2FF10F1160F48
:104BA000E7D0421C01350C34D0E700BFA6810100DC
:104BB00068610100044B0522C3F89420BFF34F8FB6
:104BC000BFF36F8F704700BF00ED00E0BFF35F8F52
:104BD000024B0022C3F89420704700BF00ED00E0B4
:104BE00010B5034C01232278FFF7AAFF207010BDF7
:104BF0002C2D002008B50B4A00231278FFF7A0FFE8
:104C000010F1160F07D0084A0021D2F89030C3F3F4
:104C10000723984200DB08BDC2F89800C2F8A01034
:104C20000130F2E72C2D002000ED00E02DE9F043EB
:104C300057485849D0F890300D68C3F307239D4278
:104C400085B000F2A180FFF7C1FF496800229542BC
:104C500001F10C011AD1504C504F25706846FFF7F6
:104C6000F1F8DFF83C81DFF83C9106460025AE42C2
:104C70001FD1237846490020D1F89020C2F30722A3
:104C800093427BDBFFF796FF00204CE0C0F89820B2
:104C900051F80C3C23F01F03134343F01003C0F8FA
:104CA0009C3051F8043C43F00103C0F8A0300132BD
:104CB000CDE7009800EB05114FEA051CCB683B409F
:104CC000B3F5000F44D00AD8B3F5001F2ED0B3F5CA
:104CD000800F34D0B3F5801F10D00135C7E7B3F192
:104CE000807F3ED0B3F1007FF7D150F80C30886858
:104CF0004A680EF0EDFB40F4802009E050F80C30DB
:104D000088684A680EF0E4FB40F0885040F4302098
:104D1000039001A92078CDE90123FFF7E1FE0028E7
:104D200028DA6FF0150005B0BDE8F08350F80C30BC
:104D300088684A680EF0CCFB40EA0800E8E750F8C3
:104D40000C3088684A680EF0C3FB40EA0900DFE7D0
:104D500050F80C3088684A680EF0BAFB40F0827058
:104D6000D6E750F80C3088684A680EF0B1FB40F086
:104D70008870CDE7237801332370AEE7C1F898300F
:104D8000C1F8A000013377E74FF0FF30CBE700BF59
:104D900000ED00E0D86301002C2D00200000F0FFA2
:104DA0000000081100000202F0B587B007460E4669
:104DB00014460021102268461D4610F0A2FE022370
:104DC0008DF802302A46054B019321466846CDE90D
:104DD00004760DF0FDFB07B0F0BD00BF11350100FA
:104DE00008B50649064821F00701C1F1005202F555
:104DF00080220DF0F8FF002008BD00BFF7640120FD
:104E0000B01800200E4A0123C2F840354FF080420E
:104E10004FF08051C2F87835D1F83001082808D118
:104E2000D1F83411052904D80648415C09B1C2F80B
:104E300038364FF080430122C3F8802500207047A8
:104E400000E00140D881010020B1034B800143F014
:104E500001031847704700BF70620100BFF34F8F16
:104E60000549064BCA6802F4E0621343CB60BFF306
:104E70004F8F00BFFDE700BF00ED00E00400FA0522
:104E8000024B1B6803B11847FF207047C018002071
:104E90000A4B0B4A0020C3E900000A4B1A600A4A79
:104EA0005A600A4A9A600A4ADA600A4B0A4A9860CB
:104EB000C3E90020094ADA60704700BFE418002007
:104EC000A1500000D4180020E54F0000E14E000082
:104ED0001D350100C4180020814E00001F3501005F
:104EE00030B544788FB00546ACB1204600F006FBE3
:104EF0001A4B02930023CDE9003303900122184995
:104F000018460EF00EFB174B6A781A7016480CF014
:104F1000E1F80FB030BD0378052B12D0092B1BD060
:104F2000012BF0D1072304A88DF8103004F098FA73
:104F3000059B03930D4B0094CDE9014303222346C7
:104F4000DDE70B4B06490094CDE9014303222346DC
:104F500020460EF0E6FAD6E7064BF3E7E2810100C1
:104F6000586101002D2D002048090020FA81010020
:104F7000188201003882010030B5114C8FB02D230A
:104F8000054604A88DF8103004F06AFA9DF9143033
:104F90002278934200D18DB1D8B20A4B20701B68A1
:104FA00003B1984723780393074B02930023CDE97D
:104FB00000330649032218460EF0B3FA0FB030BD95
:104FC0002F2D0020BC1800204882010058610100EC
:104FD000034BBFF35B8F1868BFF35B8F704700BF55
:104FE000EC1800202DE9FF414278044682B11046BA
:104FF00000F084FA264B029300230390CDE900339E
:105000002449012218460EF08CFA04B0BDE8F08164
:10501000FFF7DEFFC10702D51046FFF7ADFFFFF730
:10502000D7FF83070ED4237F63B1BFF35B8F1A4B87
:1050300053E8001F41F0020143E80012002AF7D1B3
:10504000BFF35B8F217F63794900012B08BF41F0DB
:105050000101124B1D68CFB2002DD6D0083D4FF68E
:10506000FF782B88E078434501D083420AD1A368BA
:105070000193237B00936E6894F91030B4F90E20ED
:105080003946B047AD68002DBFD0083DE9E700BF05
:105090006082010058610100EC180020E418002033
:1050A0001FB50446407860B100F028FA0D4B02931A
:1050B00000230390CDE900330B49012218460EF07E
:1050C00030FAFFF785FFC30702D50020FFF754FF32
:1050D000064B62781A70064804B0BDE810400BF029
:1050E000F9BF00BF7B820100586101002E2D002016
:1050F00030090020F0B504469FB04FF0FF324FF06A
:10510000FF3368480BF01EFF01261D230AA88DF807
:1051100028308DF82C6004F0BBFA257D002D6AD173
:10512000614B8DF814601B788DF8193002273423F9
:1051300014A88DF818708DF8503004F091F920B350
:105140005A4B5B490095CDE9015332462B46284620
:105150000EF0E7F9EA24204600F0C4F9554B02931B
:1051600000230390CDE900331846514901220EF087
:10517000D8F9204600F0CEF9044600287CD04948F2
:105180000BF058FF20461FB0F0BD159BA2899A80F6
:105190002369159314A88DF8507004F079FA03234D
:1051A0008DF8503014A82368159304F071FA092380
:1051B0008DF8503014A86368159304F069FA082339
:1051C0008DF8503014A8A368159304F061FA05A86F
:1051D00004F084FD04460028BDD14FF0FF3336486B
:1051E0004FF0FF320BF0AAFF344B1878002843D061
:1051F00000F0A2F9C0E7012D51D135238DF85030D0
:1052000014A82F4B159304F043FA06238DF8503061
:1052100014A80023159304F03BFA07238DF85030AF
:1052200014A82368159304F033FA0C238DF850303A
:1052300014A8A368159304F02BFA0D238DF85030B1
:1052400014A8A368159304F023FA0E238DF85030A8
:1052500014A8A368159304F01BFA0F238DF850309F
:1052600014A86368159304F013FA14A88DF850502D
:105270008DF8545004F00CFAFFF7AAFEC30709D4C6
:105280002D238DF85030084B14A81B788DF854301E
:1052900004F0FEF90120FFF76FFE00246FE76FF0C6
:1052A00015046CE754070020302D00209382010084
:1052B00058610100AD820100480900202D2D002019
:1052C0000003000100B58BB00246FFF781FE00F03D
:1052D0000100824219D0BFF35B8F124BC2B153E879
:1052E000001F41F0010143E80012002AF7D1BFF38B
:1052F0005B8F05238DF80030FFF76AFE00F0010098
:105300008DF80400684604F0C3F90BB05DF804FBA7
:1053100053E8001F21F0010143E80012002AE6D003
:10532000F6E700BFEC180020F0B507468BB0154635
:105330001C460E4609B9002A5FD131484FF0FF32B2
:105340004FF0FF330BF0FEFD04A9284604F026F8C9
:1053500088B300F0C7F800242A4B03900293CDE9EC
:10536000004429492346012220460EF0DAF801259F
:105370008DF814400794ADF8204005A88DF8224020
:1053800005F0AAFB044630B300F0ACF81F4B0293C3
:105390000023CDE900331C490390012218460EF08A
:1053A000C0F8204600F0B6F8044615480BF042FE5F
:1053B00020460BB0F0BD5CB1012C09D0144BADF808
:1053C000205093F900408DF8187007960025D4E717
:1053D0008DF81440F2E74FF0FF330E484FF0FF32E4
:1053E0000BF0ACFE0C4B187808B100F0A5F8002DBE
:1053F000044618BF6FF00A04D7E76FF01504D7E72B
:1054000068070020C282010058610100E7820100A4
:105410002F2D0020300900202E2D00200023836036
:10542000054B596800F1080211B9C3E90022704721
:105430000A605A60704700BFE4180020014B1860F2
:10544000704700BFBC18002070B51E4E1E49327850
:105450001E4892B003F0D8FD054680B100F042F836
:105460001B4B02930023CDE90033039018461949E2
:1054700001220EF056F86FF0150012B070BD03F067
:1054800083FF044640B100F02DF8134B0390CDE9A3
:10549000015300952B46E9E7062306A930788DF8DD
:1054A00018300FF05AF80D4BC0B218700C4B187032
:1054B00030238DF8203008A81423099304F0E8F86D
:1054C0002046DAE7D8060020C4180020D4180020AF
:1054D000FF8201005861010020830100302D00206F
:1054E0002F2D002017289ABF024B53F820000248A6
:1054F000704700BFD46401004E8301000F289ABF9B
:10550000024B53F820000248704700BF946401002A
:105510005E8301001628034608D8064A52F8200088
:1055200030B9002B18BF6FF0150070476FF01500F1
:10553000704700BF386401000F28034608D8064AA8
:1055400052F8200030B9002B18BF6FF015007047DB
:105550006FF01500704700BFF863010001480BF0C1
:1055600049BF00BF00050020014B1860596070471B
:10557000F0180020024B1A685B6802600B607047ED
:10558000F018002008B50DF0EDFF024B1B68C01AA3
:1055900008BD00BFF8180020014810F047B900BF4F
:1055A0000807002007B5014640F2E7304FF47A7251
:1055B000002300EBC130490CFAF726FF02460B46E8
:1055C00000210020CDE9000102480CF02BFD03B0C2
:1055D0005DF804FB0807002008B50DF0C3FF014B80
:1055E000186008BDF8180020014B1868704700BF0C
:1055F000F818002010B5124CBFF35B8F022354E85B
:10560000002F012A03D144E800310029F7D1BFF36C
:105610005B8F0CBF0120002010D10A4BDB6A98473A
:10562000002344F8403CBFF35B8F54E8002F44E86C
:1056300000310029F9D1BFF35B8F012010BD00BFFD
:10564000401900204866010010B5064B5C68FFF762
:10565000D1FF30B12CB100212046BDE810400CF044
:1056600073BD10BDFC18002013B50D4BD3E90143E9
:105670003BB10C4B5B6B0193002002B0BDE81040C6
:105680001847FFF7B7FF40B13CB16FF00401204667
:1056900002B0BDE810400CF057BD02B010BD00BF15
:1056A000FC180020486601002DE9F347284C9A4673
:1056B000D4E9019307460D46164683B1254B0020D9
:1056C0005B6B9847E368CDE900A32A46D4F80880CD
:1056D000206833463946C04702B0BDE8F08704F180
:1056E00044020223BFF35B8F52E8001F012903D15C
:1056F00042E800300028F7D1BFF35B8F9046EBD132
:10570000E36C1A78AA4288BF1D70E36CA06C1A780B
:10571000394610F0CEF9236D03B11E80636D0BB1D5
:1057200083F800A00B4BDB6A984700216160BFF350
:105730005B8F58E8003F48E80012002AF9D1BFF318
:105740005B8F484602B0BDE8F0470CF0FDBC00BFDF
:10575000FC18002048660100F0B5044687B00068D8
:105760000E460FF01CFE2568034670B92A680392A6
:105770001E4A1F490090CDE9010201220DF039FFB8
:105780006FF01205284607B0F0BDE3882179334356
:10579000D802D5F808C02F6906D513F4402F03D0DE
:1057A000DA0748BF83F440233868012623F48012C7
:1057B0008E40DB074CBF3043B0433860DCF800302C
:1057C0002846984705460028DCD0059023790493A5
:1057D000236807491B680393064B02930023CDE916
:1057E0000033012218460DF004FFCBE7E6850100E7
:1057F000C8610100FF85010070B50D460F49BFF378
:105800005B8F012051E8004F002C03D141E80006D6
:10581000002EF7D1BFF35B8F0CD1094E41F8403C0D
:10582000D4B2736D214698472846B36A21469847FB
:10583000002070BD6FF00F00FBE700BF4019002093
:10584000486601002DE9F04700258EB005ACDFF871
:10585000BC8081468A4617462946102209A801269F
:10586000CDE90544CDE9075510F04BF98DF83160CD
:10587000D8F834300D94002B45D023463A46514693
:105880004846FFF7B9FF041E39DBFFB2CDE90157E7
:105890000396B8F83C301E4C009398F83A3098F8CC
:1058A000392098F83810646A3046A047014640F223
:1058B000E7304FF47A72002300EB0140C1F30E4150
:1058C000FAF7A2FD02460B46314609A80CF0E4FBAC
:1058D000041E14DA0F4B10490095CDE901533246EE
:1058E0002B4628460DF085FEFFF784FE38B94FF0B1
:1058F000FF324FF0FF33314609A80CF0CDFB2046B4
:105900000EB0BDE8F0876FF01504F8E7FC18002032
:10591000486601001F860100C8610100F0B591B022
:1059200000248DF8172007AD0F46102221460BA842
:10593000CDE90755CDE90944012610F0E2F82C4BDA
:105940008DF839600F95BFF35B8F53E8002FA242AB
:1059500003D143E800610029F7D1BFF35B8F43D146
:105960000DF1170243E910549A60224D189ADA603B
:10597000199A1A615F60FF216B6D304698476B6B17
:1059800020469847DDE9162331460BA80CF084FB2E
:10599000051E1ADAFFF72EFE50B94FF0FF324FF016
:1059A000FF3331460BA80CF077FB9DF8175009E048
:1059B000114B12490094CDE90143032223462046AE
:1059C0000DF017FE284611B0F0BD0A9B002BECDA53
:1059D0000B4B0A490094CDE9014332462346204649
:1059E0000DF007FE0A9DEDE76FF00F05EAE700BF37
:1059F00040190020486601003B860100C861010093
:105A00004B86010010B529B9FFF7F4FDD8B96FF046
:105A1000150010BD0E4BBFF35B8F012053E8004F04
:105A2000002C04D143E8000CBCF1000FF6D1BFF309
:105A30005B8F0AD1074C43E90F12636DFF21984732
:105A4000636B002098470020E3E76FF00F00E0E76A
:105A50004019002048660100F0B52C4DBFF35B8F64
:105A60008BB00C46012755E8003F002B03D145E8D9
:105A70000072002AF7D1BFF35B8F43D1244E206818
:105A8000F3689847E37A4BB32346103D04F11007BF
:105A9000186859682A4603C20833BB421546F7D135
:105AA0004FF47A63089300220120237B0793CDE90A
:105AB0000522CDE9032023890293A3790193637919
:105AC0000093F569237994F90A10A847B36D607BB8
:105AD0009847FFF78FFD00200BB0F0BD0997227BA0
