:1000000000360020C91E0000E3AA0000B51E000053
:10001000B51E0000B51E0000B51E00000000000067
:10002000000000000000000000000000352000007B
:10003000B51E000000000000D11F0000B51E00002A
:10004000E5210000E5210000E5210000E521000098
:10005000E5210000E5210000E5210000E521000088
:10006000E5210000E5210000E5210000E521000078
:10007000E5210000E5210000E5210000E521000068
:10008000E5210000E5210000E5210000E521000058
:10009000E5210000E5210000E5210000E521000048
:1000A000E5210000E5210000E5210000E521000038
:1000B000E5210000E5210000E5210000E521000028
:1000C000E5210000E5210000E5210000E521000018
:1000D000E5210000E5210000E5210000E521000008
:1000E000E5210000E5210000E5210000E5210000F8
:1000F000E5210000E5210000E5210000E5210000E8
:1001000053B94AB9002908BF00281CBF4FF0FF317E
:100110004FF0FF3000F00CB8ADF1080C6DE904CEE3
:1001200000F010F8DDF804E0DDE9022304B07047C8
:10013000704700BF034613F8012B002AFBD1181AA1
:10014000013870472DE9F04786468C460846089EE0
:10015000154674461946002B40F0C2808542B2FA1B
:1001600082F245D94AB1C2F1200300FA02FC2EFA0C
:1001700003F3954043EA0C0C94404FEA154EA8B2A5
:10018000BCFBFEF8230C0EFB18CC08FB00F943EA7D
:100190000C43994528D9EB1808F1FF3704D299454B
:1001A00002D9A8F102072B44A3EB0903A4B2B3FBC5
:1001B000FEFC0EFB1C330CFB00F044EA0344A0429F
:1001C00014D92C190CF1FF3304D2A04202D9ACF19E
:1001D00002032C44241A43EA07401EB1D4400023F2
:1001E00034607360BDE8F0874746DDE76346F1E7BA
:1001F00092BB431B01214FEA154EAFB2B3FBFEFC8D
:10020000200C0EFB1C330CFB07F840EA0343984517
:1002100062D9EB180CF1FF3004D2984502D9ACF149
:1002200002002B44A3EB0803A4B2B3FBFEFC0EFBBD
:100230001C330CFB07F744EA0344A7424ED92C19A0
:100240000CF1FF3304D2A74202D9ACF102032C44D3
:10025000E41B43EA0040C0E7C2F1200320FA03F1A7
:10026000954090402EFA03F303434FEA154EAFB288
:10027000B1FBFEFC0EFB1C10190C0CFB07F841EA4D
:100280000041884504FA02F422D969180CF1FF30C4
:1002900004D2884502D9ACF102002944A1EB08013F
:1002A0009BB2B1FBFEFC0EFB1C110CFB07F743EAF3
:1002B00001439F420ED9EB180CF1FF3104D29F424B
:1002C00002D9ACF102012B44DB1B41EA004192E769
:1002D0006046E3E76146F7E76046A3E76346B7E7B2
:1002E000834206D916B9002108467BE7C6E900E03B
:1002F000F9E7B3FA83F78FB9834201D3724508D87F
:10030000BEEB020460EB030301209C461EB90021F2
:1003100068E73846FAE7C6E9004CF8E7C7F1200C71
:10032000BB4022FA0CF41C432EFA0CF120FA0CF319
:10033000B84001434FEA14490EFA07F5B3FBF9F848
:100340001FFA84FE09FB18300B0C08FB0EFA43EA77
:1003500000439A4502FA07F240D9E31808F1FF304A
:1003600004D29A4502D9A8F102002344A3EB0A0360
:1003700089B2B3FBF9F809FB183308FB0EFE41EA1A
:1003800003418E452CD9611808F1FF3304D28E4504
:1003900002D9A8F10203214443EA0040A0FB0298DD
:1003A000A1EB0E014145CE46434602D306D14D4551
:1003B00004D2B9EB020E68EB04030138002EA6D07C
:1003C000B5EB0E0261EB030101FA0CFC22FA07F314
:1003D0004CEA0303F940C6E9003198E74046C5E717
:1003E0004346D9E7F0B5204F204D214E8FB0002471
:1003F000234603222046CDE90044029729460AF00D
:1004000016F84FF0FF324FF0FF330AA800F080F8E3
:100410000028ECD09DF8293016499DF8280000945A
:10042000A34218BF3146DDE90C23CDE90623124B68
:10043000CDE90301CDE901430322234629462046A5
:1004400009F0F5FF9DF828308DF824309DF829300B
:100450001B1B18BF01238DF825300022002309A99A
:10046000064808F0A9F9C2E753D0000074C900009B
:100470004AD0000042D0000076D00000F8070020EB
:100480002DE9F04F904685B00BF092FE4FF47A7351
:10049000A0FB030503FB0155C40B1B4FDFF86C9059
:1004A00044EA45440026ED0B97F804A028FA0AF325
:1004B000DB0721D53868D0F810B0836869465B68DF
:1004C000984750B9009BDBF800205A40012303FAFB
:1004D0000AF31A4214BF01200020B0FA80F040094C
:1004E000CDE902458DF800608DF80100002200235F
:1004F0006946484608F060F90136072E07F10807FB
:10050000D2D105B0BDE8F08FB8CA0000C8070020FE
:1005100008B50146034808F0A9F9B0FA80F040098F
:1005200008BD00BFC80700202DE9F04F3F4C404FE9
:10053000DFF800A187B00026A34620680BF007FC77
:10054000034690B95BF836203B4912680090CDE92C
:1005500003623A4ACDE90102012209F078FF6FF007
:100560001205284607B0BDE8F08FE388206821799E
:1005700043EA0A020569D0F808C013F0010F4FF0F2
:10058000010E2B680EFA01FE14BF4EEA030323EAA4
:100590000E032B60DCF800309847054658B1284B15
:1005A000039602930023CDE9003323490122184624
:1005B00009F04DFFD5E72068217983689D694DB129
:1005C0004FF0C0634FF0A072A847054628B11D4BFD
:1005D0000396E6E76FF05705F9E794F804901A4B95
:1005E0007B60012202FA09F3D4F80080BB60D8F8DE
:1005F0000830DB6913B1394640469847CDF814906E
:10060000D8F800300C49CDE90363104B0293002366
:10061000CDE9003303221846013609F018FF072EF2
:1006200004F1080407F10C0787D19AE7B8CA000063
:10063000880B0020100001007CC90000AAD0000037
:10064000C8D00000E6D00000810400000CD10000FA
:100650002DE9F04F304CDFF8C480314F87B00025D2
:100660004FF00109266830460BF071FB034670B964
:100670002C4A2B490395CDE901020090012209F093
:10068000F5FE6FF0120A504607B0BDE8F08F206803
:100690002179E388D0F810C0D0F808E0DCF800A099
:1006A000DA0754BF43F4B01383F4D01323F4801259
:1006B00009FA01FBDB074CBF4BEA0A032AEA0B03EA
:1006C000CCF80030DEF800309847B0F1000A0BDAC1
:1006D000154B02930023CDE9003311490395012204
:1006E000184609F0C3FECEE7237905933368CDF8A9
:1006F00008800026CDE90353CDE900663346032286
:1007000039463046013509F0B1FE072D04F10804E1
:10071000A8D1B246B7E700BFF0CA00006ED1000012
:10072000B4C9000037D100004FD1000006280346AD
:100730000A4615D80C4951F8300001EBC3010123DA
:10074000097903FA01F103691B68194218BF82F0A5
:10075000010212B18368DB68184783681B69FBE7F5
:100760006FF01500704700BFF0CA000008B50146E1
:10077000034808F07BF8B0FA80F0400908BD00BFDC
:10078000F8070020F0B5184F184D194E89B0002415
:10079000234603222046CDE900440297294609F06A
:1007A00074FE4FF0FF324FF0FF3307A8FFF7DEFF74
:1007B0000028ECD09DF81D3004939DF81C3029468C
:1007C000CDE902632046CDE900442346032209F027
:1007D0005CFE9DF81D109DF81C00B1FA81F14909DD
:1007E000FFF7A4FFD3E700BF93D10000ACC900001E
:1007F000B5D1000030B585B00025164B16490293DF
:1008000003222B462846CDE9005509F057FEFFF795
:100810008BFE044668B1114B0390CDE901530E499C
:1008200000952B460122284609F048FE204605B0D7
:1008300030BDFFF70DFF044610B1094B0390ECE704
:10084000084B05490090CDE901030322034609F056
:1008500035FEEBE7EED100006CC9000001D20000CC
:1008600019D200002ED200002DE9F04F91B084077C
:10087000009302F004030293C2F3C20303F10103E5
:10088000DDF86880039205460E46059340F0BA8174
:10089000041D30B1072909D86FF01B0011B0BDE865
:1008A000F08F01F007063444C6F10806009B4FF0B4
:1008B0000009591E4FF0040A4FF0FF330193CDF8A1
:1008C00010904F46CB4653460DB1009A22600598D2
:1008D000002800F3E8809848009A824203D39748A2
:1008E0008242C0F0E080039AA4EB050E92074FEA23
:1008F0009E0000F103810F2F00F2B180002D00F067
:10090000058107F140020DEB020C019A0CF8200C56
:100910000CF8102C049801300490E7E07A285DD898
:100920004B280ED8472859D829282DD8252852D009
:1009300054D820287AD02338D0F1000B4BEB000B91
:1009400074E04C382E2849D8DFE800F07048484859
:1009500048484848484848484B4848484848484814
:100960004859484B4B595959704B6D487048184B72
:10097000184848827F4B48484B487F0000204FF082
:10098000000B4FF0040A38E02A38C0B2012202FA04
:1009900000F010EA0E0F49D110F0625C2FD110EA7E
:1009A000020B43D06046013C5444B4FBFAF40AFB0A
:1009B00004F4002D61D0A3EB050CA444B4453FF62C
:1009C0006BAF002868D1042B47D158F8043B236053
:1009D000043404232AE0019A013A01924FF0000BFB
:1009E00024E011F8010C6C2834D111F8023C0020ED
:1009F0006C2B8346C5D14FF0080A5346D3E708F164
:100A0000070828F007080734F8E802AB24F00704C9
:100A100035B106982044B0423FF63EAFC4E900AB82
:100A200008344FF0000B4FF0080A534611F8010F3D
:100A3000002878D0BBF1000F7FF470AF2528F5D1E6
:100A4000019B013301934FF0010B4FF0040AECE7D7
:100A5000584694E700208346A5E7082B02D06FF0A4
:100A600015001BE708F1070828F00708F8E802233B
:100A7000C4E9002308340823D8E768B9042B02D15D
:100A800008F10408A4E7082BE9D108F1070828F0C9
:100A9000070808F10808EDE7059A013A059258F8A9
:100AA000042B009210E7039A900720D5A4EB050EC3
:100AB0004FEA9E004FF0010CBEF5007FCFD20F2F02
:100AC000CDD8F5B107F140020DEB020EC0B2019A8C
:100AD0000EF8200C0EF8102CBCF1000F3FF41AAFEA
:100AE00060F07F000EF8200C09F101090137C5F113
:100AF0000802043406924FF6DA7E97E74FF0000CB6
:100B0000DAE7BCF1000F01D00136EFE702980236B8
:100B10000028EBD10098CDE90631FFF70BFBDDE9AA
:100B200006310644E2E7631BB3F5806F97D23DB907
:100B3000A6F10804E018B1E694C50000ECDF00005F
:100B4000029A28609B082B709DF81030C2B1EB70A0
:100B500085F80290B9F1000F05D008A80022C5F170
:100B6000010C97420ED1C5F101030DF120084FF0A1
:100B7000000A01930DF1300B574512D1601B8DE631
:100B80006B70E5E710F8013B190608D50CEB040E75
:100B9000B64503F07F033FF67FAE04F8013B013218
:100BA000DFE7B9F1000F03D098F90020002A17DB26
:100BB000029BD3B11AF80B2004F8012B0022019BF1
:100BC00018191044B0423FF667AE98F8000004F8D8
:100BD000010B0099039220460BF02FFC039A14445A
:100BE0000AF1010A08F10108C6E798F8002055F853
:100BF00022300093029B45F822300098FFF79AFAC2
:100C0000421CDCE76FF00D0048E600BF014B1860A6
:100C1000704700BFC004002080B505460E46174649
:100C2000984608F005FC03460BF0AAFCDFF8189084
:100C3000044649F80030424630463946A84754F841
:100C4000090001F0AFF900BF0800000008B5044634
:100C5000EFF31183202383F31288BFF36F8F05F026
:100C6000DDFB204601F0BEFC024809F049FD09F019
:100C70005AFFFCE75ED200002DE9F047058B0446E1
:100C80002807904611D4022905F0070540F0CC80D2
:100C9000204609F042FD78B10138218B042811D893
:100CA000DFE800F0C2106D85950001290CBF45F00A
:100CB000100545F02005258388F31188BFF36F8F59
:100CC000BDE8F08701F0070AAA4500F0A5800027DB
:100CD000B9463E46A368002B00F0BC8041F00801F5
:100CE000218388F31188BFF36F8FA168002900F07A
:100CF000BA800D68002900F0B680D1F80480334630
:100D000052462046C047002D76D02B6829461D4606
:100D1000F0E701F007035A1F012A1BD8002221F037
:100D20000701062B276889B2C4E9002209D13B4696
:100D300003E0628B013262831B68002BF9D141F022
:100D400002012183204609F0E8FC00287AD041F016
:100D5000200176E0042B0AD121F0070189B221831A
:100D6000204609F0DAFC10B141F020012183218BEB
:100D700001F0070AAA454FD00027B946AAE7236920
:100D800021F0070141F00601062DD3F800902183E0
:100D90002DD1B9F1000F3FD041F00801218388F334
:100DA0001188BFF36F8F3A492046C84729E021F0E8
:100DB0000701236941F0040189B2042DD3F804909E
:100DC0002183E6D000273E464FF0040A82E721F057
:100DD0000701236941F0050189B2052DD3F8089078
:100DE0002183D6D000273E464FF0050A72E7002740
:100DF0003E464FF0060A6DE72B4687E7B9F1000F34
:100E0000D1D1EFF31188202383F31288BFF36F8FC2
:100E1000238B23F008032383258BEA062ED525F0A8
:100E20001003238305F007056669218B002EBFF6AA
:100E300070AF00232768C4E9003321F0070141F0B7
:100E400001012183218B01F0070AAA454FF0000917
:100E50007FF440AF002F9CD041F00801218388F33C
:100E60001188BFF36F8F002FC8D03D6839463346D5
:100E70005246204609F07DFC2F46F4E7AB067FF58D
:100E80001BAF25F02003238305F0070500E700BF13
:100E90009FA700002DE9F84F81462F480F4609F023
:100EA00027FD064670B92D4CDFF8B4A00546A046D4
:100EB0004FF0010B544507D3B9F1000F02D04FF0AA
:100EC000010AE5B9BDE8F88F237B6BB12368DB68C5
:100ED0000BB12046984723681B6943B96368042215
:100EE0001968204600F0C8F801361034E2E72046C1
:100EF00098470028F2D00BFA06F31D43F4E7A94601
:100F000095FAA5F4B4FA84F40AFA04F3260108EB7E
:100F100004146FEA030B25EA0305237B63B158F839
:100F200006301B6993B94644042273682046196849
:100F300009EA0B0900F0A0F8002DE1D127B14FF428
:100F4000A47000210BF0BBF84D46BAE72046984745
:100F50000028F1D1E7E700BFE40B002024CA00001D
:100F600044CA0000014B53F82000704728CB000012
:100F700008B5034608462BB1044A136000F082FA14
:100F8000002008BD6FF01500FBE700BFC40400207F
:100F9000054A064800231370054A1360054A4FF4BA
:100FA00000411360FFF7E4BF98160020EDA8000091
:100FB000DC0B0020E00B002070B50B4D297841B907
:100FC0000120FFF767FF094C094EB44202D3012309
:100FD0002B7070BD63685B791BB1236820469B68EA
:100FE00098471034F1E700BF9816002024CA00008B
:100FF00044CA000010B50446084809F079FC5CB109
:10100000BFF35B8F064B53E8001F013943E8001222
:10101000002AF8D1BFF35B8F10BD00BFDC0B0020AE
:10102000E00B002070B50A4B0A4C1B680A4E0546BF
:101030009847A860B44200D370BD63685B7923B160
:10104000236829461B68204698471034F2E700BF02
:10105000C404002024CA000044CA0000044A054B0E
:101060009B1AB1EBD30F34BF52F831000020704708
:101070006CC9000024CA0000084BC31A10B41B112D
:1010800044680133237143689A7143681960436867
:1010900001225A7110BC09F04DBC00BF24CA0000E7
:1010A0002DE9F04F87B004AFD7E90EA93D6B044698
:1010B0000E4693469846BAF1000F1ED0C7F804902A
:1010C000CDF8009010217A6B53460020FFF7CCFB3F
:1010D000B0F5006F014611D340F2FF730393194B33
:1010E00002930023CDE9003317490222184609F084
:1010F0003DFC0C37BD46BDE8F08F514604F00704B7
:101100000BF0070BE40044EA8B1444EA412444EA60
:10111000055417350D4425F00705ADEB050D04AD5D
:10112000BAF1000F07D0CDF800907A6B534605F165
:101130001000FFF799FB434622463146284609F046
:10114000FCFBD6E79BD20000BCC90000406820B180
:10115000034BC01A40F3CF0070474FF0FF30704789
:101160006CC900000EB403B503AB014653F8042B61
:101170000448019301F0C8F902B05DF804EB03B034
:10118000704700BFA9A90000CA0605D48B064CBF52
:1011900002490349FFF7E6BF704700BFD4D2000001
:1011A000D3D200002DE9F04F87B004469DF844608B
:1011B0000D4690469946002E00F0A280159B03F044
:1011C000020A03F001030493159B03F0080B03F4D8
:1011D0008073059309F0AFFB024600283DD0954986
:1011E0002046FFF7BFFF0746BAF1000F09D0159B55
:1011F00013F0440F33D190492A462046FFF7B2FF3F
:101200000744049B53B18D4B8D4953F826208D4BD9
:101210002046002A08BF1A46FFF7A4FF059B002BB3
:1012200049D0BBF1000F64D1B8F1000F66D08649F8
:1012300042462046FFF796FF0546129B3D44002B91
:101240006DD1149B002B73D1159BDB0700F1EB8054
:1012500015992046FFF798FFD8E00746C4E77B4B77
:1012600018680028CCD07A4B4FF47A7A1B68B5FB0B
:10127000F3F54FF46163B5FBF0F100FB11550AFB88
:1012800005F54FF03C0CB1FBF3F203FB1211B5FB7B
:10129000F0FEB1FBFCF300FB1E550CFB13110AFB27
:1012A00005F50091B5FBF0F56A49CDE901E5204669
:1012B000FFF758FFA4E7BBF1000F1DD0664B67494D
:1012C00053F826202046FFF74DFF0546B8F1000FE2
:1012D00005D05D4942462046FFF744FF0544B9F179
:1012E000000FAAD05E494A462046FFF73BFF05445F
:1012F000A3E74FF00009E1E75D46E7E745469CE7D5
:10130000B9F1010F129B06D1002B66D1149B002B63
:101310007CD000250CE0002BF8D052485EE052480B
:10132000129B5249224609F0B8F9149B002B6AD04F
:10133000DFF83C81DFF83C91149F1599102F20466F
:1013400028BF1027FFF720FF4FF0000B5D4547DC5B
:10135000139B49461A782046FFF704FF4FF0010B14
:101360001BF0070F03D141462046FFF7FBFE5F4508
:101370003DD9139B494613F80B202046FFF7F2FE98
:101380000BF1010BBBF1100FEAD13B49DFF8ECB0D8
:1013900020464FF0000AFFF7E5FE5246139B9A5C89
:1013A000A2F120015F2928BF2E2259462046FFF7CF
:1013B000D9FE0AF1010ABAF1100F1DD01AF0070F79
:1013C00003D141462046FFF7CDFE57455246E5D8AA
:1013D00041462046FFF7C6FEEBE7234835469FE728
:1013E00041462046FFF7BEFE0BF1010BAEE7244954
:1013F0002046FFF7B7FEC3E7139B3B441393149BB0
:10140000DB1B149398D1002E7FF41EAF6268A16895
:101410002068D2E9002309F0B9FA636800221A6053
:1014200007B0BDE8F08F074A05492046FFF79AFE4E
:101430000EE700BFDBD20000DFD2000038CB000097
:1014400092DD0000D6D2000004D30000EC0B002097
:10145000E80B0020E8D200004CCB000008D30000CD
:101460000ED30000C5A90000A9A9000009250000AD
:101470001BD3000013D300001DD300001FD30000B6
:1014800019D30000074A00210123904206D8064ADA
:1014900001B901231360054B1860704740085B00D9
:1014A0000121F2E740420F00E80B0020EC0B002086
:1014B000014B01221A70704799160020014B002041
:1014C00019607047040C002010B5064B18680C46D4
:1014D000FFF748FD21460346BDE8104002480F22B1
:1014E000184700BF040C00207CCB0000F8B5094D64
:1014F000094B0A4ED5E9004701221A700CB92C603D
:10150000F8BD214630463A4600F00AF8241A06444F
:10151000F4E700BFF80B00209A1600209B1600206D
:10152000F8B5194D07460E460424324639460020C8
:1015300006F0F6FEC8B101232B70144B1B782BB9B3
:101540003046F8BD5CB92C704FF0FF34002006F037
:101550002BFF0028F4D02B78002BF3D1F0E7013CCF
:1015600041F288300AF0EEFBF0E72B7813B1013C32
:1015700004D12C702B78002BD7D1E1E741F28830D1
:101580000AF0E0FBF6E700BF991600209A1600204B
:10159000F8B5074F0D4604464618B44201D1284617
:1015A000F8BD14F8011BBB6801485B689847F4E775
:1015B00070C60000014B036000207047C0CB0000E4
:1015C00008B5044809F09CF8BDE80840024809F055
:1015D00097B800BF72D30000A7D30000014808F0FD
:1015E00021BB00BFC0CB000038B5044618B90F4B73
:1015F0000F485B6898476168B1F5683F10D0B1F556
:10160000680F0DD00B4DA9420AD011F46861206813
:1016100007D0014608480AF002FC002323606560F9
:1016200038BD14220AF031FFF9E700BFC8060020D8
:10163000D5D300002C5F5CA93411002008B520B37D
:101640004368B3F5683F10D101220368BFF35B8F95
:1016500053E8001F002903D143E800200028F7D1F8
:10166000BFF35B8F0DD1002008BD094A93420AD019
:1016700000684FF0FF324FF0FF3307F059F90028B0
:10168000F1D00448F0E70448EEE76FF4E040EBE700
:101690002C5F5CA9E98FFFFFEA8FFFFF08B5D8B187
:1016A0004368B3F5683F10D100220368BFF35B8F36
:1016B00053E8001F012903D143E800200028F7D197
:1016C000BFF35B8F0BD1002008BD074A934208D0BF
:1016D000006807F0A5F9F6E76FF4E040F4E7034887
:1016E000F2E70348F0E700BF2C5F5CA9E98FFFFF3A
:1016F000EA8FFFFF10B5044618B91D4B1D485B6803
:1017000098476368B3F5683F2FD0B3F5680F2CD0C6
:10171000194A934219D1236803BB18484FF0FF328E
:101720004FF0FF33214607F019F808B923681BB9B9
:101730000F4B13485B6898472068142200210AF079
:10174000A4FE4FF46863636008E0B3F5683F0DD80A
:101750003A2B03D040F6BA629342DED120680AF0F9
:10176000B5FB636843F03A03636010BD054AF3E7D5
:10177000C8060020D5D300002C5F5CA934110020DE
:10178000FBD300003A00003A08B50649064840235A
:1017900014220AF036FBBDE808400449044808F06A
:1017A000B3BA00BF340C002034110020C8CB0000B5
:1017B000DCCB000070B5064686B00D46002938D057
:1017C0008B6805934B6804930B6803930024244BA8
:1017D00024490293012223462046CDE9004409F022
:1017E0006CF96B6905932B690493EB6803931E4BAB
:1017F0001C490094CDE9014301222346204609F00B
:101800005CF9EB690393194B16490094CDE9014348
:1018100001222346204609F050F9AB690393144B8B
:1018200010490094CDE9014301222346204609F0E6
:1018300044F9012E0DD1EFF30583103B03930D4BBB
:1018400002930023CDE9003306493246184609F0D9
:1018500034F92946304606B0BDE8704006F0DABDDE
:1018600028D40000E4C9000057D4000086D400004A
:1018700095D40000C3D4000030BFFFF7FDBF00BF08
:101880002DE9F0410B4EDFF8308006EB0807CC1B4A
:1018900005463246094920460AF0CFFDA0194246C6
:1018A0000021083C0AF0F1FD6C6707F10800BDE873
:1018B000F08100BF000000000400000044CA0000E6
:1018C000074A936893F90E10002907DB5269934287
:1018D0001FBF044A536843F080535360704700BFF2
:1018E0008814002000ED00E0F0B585B00024434BE3
:1018F0000293CDE90044234607460E4601224049A3
:10190000204609F0F5F83F4B9B6ADB0465D53E4B5A
:101910003B490094CDE9014320462346012209F0CA
:10192000E7F81720374B9B6A1D050AD5374B029302
:1019300000231846CDE900333149012209F0D8F8D7
:101940001820304DAB6A9C051FD50024304B029304
:10195000012223462046CDE90044294909F0C8F870
:10196000AB6BAA6A10040FD503932A4B2449009449
:10197000CDE9014301222346204609F0B9F81FB101
:10198000AB6A23F40043AB6219201E4B9B6A5905D6
:101990000AD5214B029300231846CDE9003318499C
:1019A000012209F0A5F81A20164A936A13F48073ED
:1019B00015D01A4B029300231846CDE90033104985
:1019C000012209F095F81B200E4A936A43F47F43E5
:1019D00093620023337005B0F0BD1620A2E7926A2F
:1019E0009204F1D50E4A06490093CDE9013218461A
:1019F000012209F07DF81C20E6E700BFD6D40000E4
:101A0000E4C9000000ED00E0ECD40000FDD40000CB
:101A100010D5000029D500003ED5000059D50000A2
:101A200071D500001FB50024374B029301222346D5
:101A3000CDE900443549204609F05AF8344B9B6AF9
:101A40009A015ED5334B31490094CDE901432046DC
:101A50002346012209F04CF81E202D4B9B6ADB0126
:101A60000AD52D4B029300231846CDE900332749B0
:101A7000012209F03DF81F20254B9B6A1C030AD563
:101A8000264B029300231846CDE900331F4901225B
:101A900009F02EF821201E4B9B6A59030AD5204BD2
:101AA000029300231846CDE900331849012209F0BA
:101AB0001FF82220164B9B6A9A030AD5194B0293F2
:101AC00000231846CDE900331049012209F010F82F
:101AD00023200F4B9B6ADB030AD5134B0293002391
:101AE0001846CDE900330949012209F001F8242004
:101AF000074A936A6FEA03436FEA1343936204B0A1
:101B000010BD1D20A9E700BFA0D50000E4C900005A
:101B100000ED00E0B8D50000CBD50000E5D5000011
:101B200003D6000028D6000042D600002DE9F0437D
:101B300085B000244D4B0293CDE9004423468046F6
:101B4000894616464A490122204608F0D1FF494BF2
:101B50009B6ADF0640D5484B0094CDE901432046FF
:101B600023464349012208F0C3FF1124414B9B6ADD
:101B70001D070AD5414B02930023CDE900333C49B0
:101B80000122184608F0B4FF12243A4DAB6A9807B8
:101B900024D500243A4B36490293CDE9004423462C
:101BA0000122204608F0A4FF6F6BAB6A190659D5D5
:101BB000344B2F490397CDE901430094234601227A
:101BC000204608F095FFB9F1000F03D0AB6A23F06F
:101BD0008003AB62132403E01024C7E76FF01507FE
:101BE000244B9B6ADA070AD5274B02930023CDE9E1
:101BF00000331F490122184608F07AFF14241D4BB8
:101C00009B6A9B060AD5214B02930023CDE9003342
:101C100017490122184608F06BFF1524154B9A6AE4
:101C2000D50602D49A6A90070AD55B68190507D5CC
:101C30004146384600F090FA10B180F3098802243A
:101C40000C4B9A6A920642BF5A6A22F400525A62B8
:101C50009A6A42F0FF029A6220460023337005B070
:101C6000BDE8F0836FF01507B4E700BF6DD6000044
:101C7000E4C9000000ED00E083D60000FDD40000C0
:101C8000B6D60000CED60000E4D6000071D5000024
:101C90002DE9F041754B5F6890B00446C7F3080624
:101CA000002383F31188BFF36F8F02F07F40B0F100
:101CB0007F4F0CD102F00C00082819D16C4A6D49F5
:101CC0000093CDE901321846012208F011FF0025EA
:101CD0002C464FF00008F31E8DF81F80092B00F2F0
:101CE000AC80DFE803F00BA0A49CAAAAAAAAAAA829
:101CF000120746BF0C461D460125EAE75E4B5D49CB
:101D00005A4FCDF80080CDE9018300230122184607
:101D100008F0EEFE8DF81F80FE6A16F0020605D070
:101D2000564BCDF80080CDE9018306E0FB6A002B1D
:101D30000BDA534B0096CDE9016300234D49012294
:101D4000184608F0D5FE00223BE0FB6A5B00FAD59E
:101D50004C4B48490096CDE9016301223346304699
:101D600008F0C6FE7B69A26943F480737B61BFF310
:101D70004F8FBFF36F8F7B6932F8022C23F480738F
:101D80007B61BFF34F8FBFF36F8F4DF602739A42A3
:101D90000AD0BB6ADBB2002B33D00DF11F02012148
:101DA0002046FFF7C3FE3CE023680393364B3149DE
:101DB0000096CDE9016301223346304608F098FED3
:101DC00022689DF81F30CBB908AE04F120072068C7
:101DD0006168334603C30834BC421E46F7D10F9BEB
:101DE000002D3ED0C3F3080121B96FEA53236FEAF7
:101DF00043230F9308A91046FFF7DCFC10B0BDE8A1
:101E0000F081BB6A13F47F4F05D00DF11F01012053
:101E1000FFF76AFD05E0BB6AB3F5803F93D3FFF798
:101E200001FE0246CDE70DF11F020021B8E70DF1DA
:101E30001F010020ECE7154B73E7154A154B0D49C0
:101E400017F4F87F18BF1346103ECDE90336124B46
:101E500002930023CDE900330122184608F048FE22
:101E600071E723F4FF7323F00103C2E700ED00E004
:101E700031D70000E4C900005CD7000073D7000030
:101E800094D70000A2D70000C1D70000DDD7000022
:101E900018D7000003D7000001D80000044B5A698E
:101EA00042F010025A615A6922F008025A617047E2
:101EB00000ED00E0EFF30880EFF3098101B5724611
:101EC000FFF7E6FE01BD00BF002080F31488BFF3DA
:101ED0006F8F0F4880F3088804F0D2FA00200D4974
:101EE0000860BFF34F8F00F02BF8202080F311889B
:101EF00009484FF40461401880F30988EFF3148017
:101F00000221084380F31488BFF36F8F00F0ECF8D0
:101F10000036002094ED00E0402800200749D1F869
:101F200090200023C2F307221846934200DB70473B
:101F3000C1F89830C1F8A0000133F6E700ED00E0E9
:101F400008B572B6002383F31388FFF7E7FF144B3D
:101F50004FF0FF32C3F88020C3F88420C3F88820F4
:101F6000C3F88C20C3F89020C3F89420C3F89820BD
:101F7000C3F89C20C3F88021C3F88421C3F88821CA
:101F8000C3F88C21C3F89021C3F89421C3F8982199
:101F9000C3F89C2162B6BFF34F8FBFF36F8F08BDAC
:101FA00000E100E0084B9B6883420BD1EFF305830F
:101FB00043B1064B5A6842F080525A605A6A22F482
:101FC00000425A6207F03ABA8814002000ED00E09F
:101FD00015498A684FF030001044EFF3098C80E80F
:101FE000F01F202080F31288BFF36F8F0F4F4FF048
:101FF00000664A698A603E604FF0740414192068D4
:102000000B4C2060906F0023936780F3118804B518
:10201000104600F005F9BDE8044002F1300090E8F8
:10202000F01F8CF3098870478814002004ED00E04D
:10203000501100201EF0040F0CBFEFF30880EFF3E7
:102040000980816911F8021C0229FFD001B572468E
:1020500008F043FD01BD00BF40B2002807DB044A81
:102060004109012300F01F00834042F821307047EE
:1020700000E100E040B200280CDB4309064900F013
:102080001F0020330122824041F82320BFF34F8FED
:10209000BFF36F8F704700BF00E100E0054B4209BE
:1020A00000F01F0053F82220012303FA00F0104033
:1020B000704700BF00E100E040B20028A8BF00F177
:1020C000604001F10101B8BF064B4FEA4111ACBFBE
:1020D00000F5614000F00F00C9B2B4BF195480F898
:1020E0000013704714ED00E00B4A08B50B4B22F0CB
:1020F0007F029A60BFF34F8FBFF36F8FD3F88820B2
:1021000022F47002C3F8882006F062FA07F0B6FAEB
:1021100000F05CF806F0A0FA0000000000ED00E01E
:1021200042F8203C009B42F81C3C0A49019B42F8C3
:10213000183C029B42F8143C21F001014FF08073DF
:1021400042F8043C42F8081C0023203A02658367E9
:10215000704700BF190C0000094A0346906870B12F
:1021600013F1160F406E05D0A0F140029A4205D837
:10217000834203D2814228BF00207047002070476D
:102180008814002008B51546094A0A4B9060426F32
:102190001A600E4600F044F82C4686F309880020A9
:1021A000054B98472046002100220023034C20477E
:1021B000881400205011002019AB0000190C0000F9
:1021C000014B10221A61704700ED00E00448002323
:1021D0002021C2180133302B82F80013F9D1704747
:1021E00000E100E008B5EFF30583064A103B02EB7F
:1021F000C30152F8330049688847BDE80840FFF73B
:102200005FBB00BFE8C60000024B034A0348012140
:1022100000F096B80000042000000020ECCB000085
:10222000426E054B403A1A60044A4021C3E901124C
:102230001846012100F08EB85411002000000B1543
:102240001FB5144AD2F89030C3F30723013B9842DC
:102250000FD9114B029300230390CDE900331846A8
:102260000E49012208F08BFC6FF0150005B05DF8F7
:1022700004FBC2F898000B6823F01F03034343F0EC
:102280001003C2F89C308B6843F00103C2F8A03001
:10229000ECE700BF00ED00E018D80000DCC900004A
:1022A000F0B50E4689B01F4604460025B54212DA45
:1022B000606838B3BFB1431E18420FD0134B02936E
:1022C0000023CDE90033124903950122184608F096
:1022D00056FC6FF01502104609B0F0BD1F28EDD96D
:1022E00021680B42EAD12368059308F038FCA36803
:1022F00005A90343D0B20793FFF7A2FF10F1160F11
:10230000E7D0421C01350C34D0E700BF3ED80000B6
:10231000DCC90000044B0522C3F89420BFF34F8FA3
:10232000BFF36F8F704700BF00ED00E0BFF35F8F1A
:10233000024B0022C3F89420704700BF00ED00E07C
:1023400010B5034C01232278FFF7AAFF207010BDBF
:102350009D16002008B50B4A00231278FFF7A0FF56
:1023600010F1160F07D0084A0021D2F89030C3F3BD
:102370000723984200DB08BDC2F89800C2F8A010FD
:102380000130F2E79D16002000ED00E02DE9F0435A
:1023900057485849D0F890300D68C3F307239D4241
:1023A00085B000F2A180FFF7C1FF49680022954285
:1023B00001F10C011AD1504C504F25706846FFF7BF
:1023C000F9F8DFF83C81DFF83C9106460025AE4283
:1023D0001FD1237846490020D1F89020C2F307226C
:1023E00093427BDBFFF796FF00204CE0C0F898207B
:1023F00051F80C3C23F01F03134343F01003C0F8C3
:102400009C3051F8043C43F00103C0F8A030013285
:10241000CDE7009800EB05114FEA051CCB683B4067
:10242000B3F5000F44D00AD8B3F5001F2ED0B3F592
:10243000800F34D0B3F5801F10D00135C7E7B3F15A
:10244000807F3ED0B3F1007FF7D150F80C30886820
:102450004A6808F084FB40F4802009E050F80C3012
:1024600088684A6808F07BFB40F0885040F43020D0
:10247000039001A92078CDE90123FFF7E1FE0028B0
:1024800028DA6FF0150005B0BDE8F08350F80C3085
:1024900088684A6808F063FB40EA0800E8E750F8FB
:1024A0000C3088684A6808F05AFB40EA0900DFE708
:1024B00050F80C3088684A6808F051FB40F0827090
:1024C000D6E750F80C3088684A6808F048FB40F0BE
:1024D0008870CDE7237801332370AEE7C1F89830D8
:1024E000C1F8A000013377E74FF0FF30CBE700BF22
:1024F00000ED00E0F8CB00009D1600200000F0FF8A
:102500000000081100000202F0B587B007460E4631
:1025100014460021102268461D4609F0B6FF02232A
:102520008DF802302A46054B019321466846CDE9D5
:10253000047607F01FFD07B0F0BD00BF9FAB0000A1
:1025400008B5024B1B689847002008BD60110020A9
:10255000034B044A1860937843F00203937070476A
:1025600060110020F004002008B50649064821F05B
:102570000701C1F1005202F5802208F036F8002070
:1025800008BD00BF3B3B0020641100200E4A012320
:10259000C2F840354FF080424FF08051C2F8783594
:1025A000D1F83001082808D1D1F83411052904D810
:1025B0000648415C09B1C2F838364FF08043012229
:1025C000C3F880250020704700E0014070D800006B
:1025D00020B1034B800143F001031847704700BF4F
:1025E000B0CA0000BFF34F8F0549064BCA6802F41A
:1025F000E0621343CB60BFF34F8F00BFFDE700BF26
:1026000000ED00E00400FA05084B70B5C31A0D4652
:1026100007499B10044659430648402208F0D3FA64
:102620002B4601462046BDE8704018478411002023
:10263000B76DDBB634C6000073B50C4C0C4A4023B2
:10264000041B00930D460B460A49A410614306463D
:10265000094808F0E3FA011E05DA30462B4602B0BD
:10266000BDE87040184702B070BD00BF8411002063
:1026700085AC0000B76DDBB634C6000010B5EFF3D3
:102680001184202383F31288BFF36F8F074A1368E6
:1026900023F00201DB07116002D4012009F0E5F903
:1026A00084F31188BFF36F8F10BD00BFD4110020D9
:1026B000002270B5012104461046FFF7FDFC0F48CB
:1026C00004F068F80E4B984215D104F073F82669AF
:1026D0000C49304608F070F800280BDB0125356402
:1026E0002469084904F11C0008F066F8002801DBA1
:1026F000E564002070BD6FF00400FBE709280000CE
:102700000000AD0B18CC00007FB500220123CDE9FD
:10271000022304ABCDE90433094ACDF800D06B465F
:10272000CDF804D008F0A7FA002805DB4FF480426A
:102730000023684606F0F8F907B05DF804FB00BF17
:10274000A3AC000030B4104B0C2202FB0033014656
:102750000020D3E90E529863EFF31180202484F314
:102760001288BFF36F8F1C6C04F0C00444F00204A5
:102770001C6480F31188BFF36F8F1DB12B46034893
:1027800030BC184730BC70478411002034C60000AC
:1027900010B4EFF31182202383F31288BFF36F8FFD
:1027A0001748016841F002040460C80707D482F3A7
:1027B0001188BFF36F8F012010BC04F00DB84FF0EB
:1027C0008041D1F80C04D1F80C14C907EFD5EFF310
:1027D000118083F31288BFF36F8F0A490B6C03F0EB
:1027E000C00343F002030B6480F31188BFF36F8FC3
:1027F00082F31188BFF36F8F002010BCFFF7A2BFD8
:10280000D41100208411002010B1012804D0704799
:10281000034B1B6C5B0701D1FFF794BF704700BFF0
:10282000841100202DE9F0413849BFF35B8F074642
:10283000012251E8003F41E800200028F9D1BFF310
:102840005B8F33B9324933484B60CB608A6007F005
:10285000C6FF7B1E012B2BD8012F07D14FF08043E1
:10286000D3F81C3403F00303012B21D009F083FBC0
:102870000546F8B9284B1B78E3B14FF0804302229C
:10288000C3F808230646DFF894804FF08044D4F85C
:102890001824D4F81834D20315D503F00303012B00
:1028A00001D0012F0FD155B386F31188BFF36F8F7D
:1028B000BDE8F081EFF31186202383F31288BFF384
:1028C0006F8F0125DFE7ADB1304608F039F9D4F854
:1028D0001835002BDBD1D4F80421002AD7D0C4F856
:1028E0000431D4F804310123C4F81835C8F8803114
:1028F000A360CCE70021212009F0E1FBE7E74FF0DE
:1029000080430222C3F80423D2E700BF80110020D5
:1029100070110020A0110020B717002000E100E096
:1029200008B5074809F013FA38B10648FFF710FE5A
:102930000448FEF76BF9002008BD6FF01200FBE7BA
:1029400070C60000492900000A2838B5074D044622
:1029500004D1AB680D215B6828469847AB680348F3
:102960005B68E1B29847204638BD00BF70C60000E2
:1029700000F1744000F5A6000A289ABF024B33F913
:1029800010006FF00F0070472CD00000024B0B605E
:1029900001231360704700BFA8CC000000487047B7
:1029A0003CCC00000268154BFF2A08BF4FF0FF32F5
:1029B000C3F824254268FF2A08BF4FF0FF32C3F84E
:1029C00028258268FF2A08BF4FF0FF32C3F8302560
:1029D000C268FF2A08BF4FF0FF32C3F834250269EE
:1029E000FF2A08BF4FF0FF32C3F838254269FF2A9B
:1029F00008BF4FF0FF32C3F83C25704700900240FB
:102A000030B50D46416889B0E9B1D1E90013846859
:102A1000DCB1D4E90024CCB1C3B19C420FD1013365
:102A2000092B007815D9CDE90303144B0293002339
:102A3000CDE9003312490222184608F042F96FF03E
:102A4000150009B030BD0B46E1E7224601332344AF
:102A5000E6E78DF8193040F201138DF81800ADF853
:102A60001A3006A800238DF81C308DF81D5004F094
:102A7000CBFD09B0BDE83040FFF77ABFA3D8000016
:102A8000ECC90000054B994206D14FF0FF324FF0E0
:102A9000FF33183006F048B8704700BF0000AD0B98
:102AA0002DE9F04743685D6B9AB0074614AA0021F0
:102AB000284608F027FE041E6FDB149B2A6819794C
:102AC000186802F0D3F9041E67DB002201212920D7
:102AD000FFF7F2FAD7F804803A697049404604F0EB
:102AE00073FDFFF745FF041E52DB6D4D0FCD14AC97
:102AF0000FC495E803000DF12C09002584E80300BC
:102B00000B95AB23C9E901558DF82C30654BD3F8F3
:102B10002425D2B20E92D3F82825D2B20F92D3F840
:102B20003025D2B21092D3F83425D2B21192D3F814
:102B30003825D2B21292D3F83C3514A8DBB21393E5
:102B4000FFF730FF012004F0B5FD0EAE0146304620
:102B5000FFF728FF544B994223D129464846FFF7F7
:102B60004FFF041E14DB232009F0ECF84FF0030A9A
:102B70009F23294614A8CDE91455CDF83890CDF8F7
:102B80003CA08DF850301696FFF73AFF041E0BDA82
:102B900004F0AEFD08B104F099FD20461AB0BDE87E
:102BA000F0876FF00404F3E75246494608F130001D
:102BB00009F073FC0446F0B198F83230089398F8A5
:102BC0003130079398F8303006939DF82E300593F6
:102BD0009DF82D3004939DF82C300393334B3449EA
:102BE0000095CDE9015301222B46284608F069F8EB
:102BF0006FF01204CCE77A68537F023B012B16D9A1
:102C0000177F023F022F8CBF0027012708F068F8CA
:102C1000051E0EDA274B02930023CDE90033244929
:102C200003950122184608F04CF82C46B0E701271E
:102C3000ECE7EAB2C5F38015AF42A9D0002382F0D9
:102C400040020121ADF8283014A88DF828200AAAE6
:102C500014930E920F9116938DF850101596FFF75E
:102C6000CFFE041E07D108F03BF8041E04DB14F06D
:102C70000104F8D18CE78BDA0F4A104B0C49002F76
:102C800018BF1346CDE903340D4B02930023CDE961
:102C900000330122184608F014F879E7B7AC0000B9
:102CA00050CA0000009002400000AD0BD0D80000D8
:102CB000ECC9000002D90000C6D80000CAD8000044
:102CC00012D900002DE9F0470E4688B0416807464A
:102CD0001D469046CAB1C3B1042B01D9AB0714D12C
:102CE00016F0030411D1002E03DBCA6A7319934254
:102CF00011D93C4B02930023CDE90365CDE90033A4
:102D000039490122184607F0DCFF6FF01504204610
:102D100008B0BDE8F087384608F02DF8204607F0E7
:102D2000FAFF044630B1012007F0F5FF384608F0FD
:102D300007F8ECE7032D1CD83246042107A808F059
:102D40003BFF044601463869FFF79CFE274B9C4237
:102D500034D12A46414607A809F06FFB32460421C8
:102D600007A808F026FF044601463869FFF78AFEE7
:102D700024E008F06043B3F1005F02D118F0030FC4
:102D80002BD0DFF868A0042DA94628BF4FF0040916
:102D90004A46414607A809F050FB3246494607A873
:102DA00008F007FF044601463869FFF76BFE5445FB
:102DB00004D1B5EB0905C8444E44E4D12046FFF7E1
:102DC000D7FD0446012007F0A6FF0546384607F068
:102DD000B7FF002C08BF2C4699E7324629464046EB
:102DE000BFE700BF23D90000ECC900000000AD0B15
:102DF0002DE9F04F82468BB00E461C469046AAB194
:102E0000002B00F093800029426803DBD26ACB18C4
:102E1000934210D9464B02930023CDE90364CDE9D8
:102E2000003344490122184607F04BFF6FF01500AC
:102E30000BB0BDE8F08F754205F0030507F09BFF6E
:102E4000A54228BF2546D8F1000303F0030308F08C
:102E5000030758BF5F427F4207F00307A74228BF1E
:102E60002746631BE41B24F0030423F00309A14558
:102E7000C8BFA14603F0030BC8BFA3EB040BB9F115
:102E8000000F19D008EB070372194946184607933B
:102E900008F092FE04460146DAF81000FFF7F2FD52
:102EA000254A944239D1BD4206D0079B4A4619466D
:102EB00008EB050009F0CFFAADB1C5F10407F21B2C
:102EC000042108A808F078FE04460146DAF810004C
:102ED000FFF7D8FD184B9C421FD108AB2A46D919E1
:102EE000404609F0AAFABBF1000F15D072194A4406
:102EF000082108A808F060FE04460146DAF8100030
:102F0000FFF7C0FD0C4B9C4207D109EB05005A4668
:102F100008A9404409F091FA074C504607F010FF09
:102F200020460BB0BDE8F04FFFF722BD18467FE703
:102F30006DD90000ECC900000000AD0B2DE9F04791
:102F4000C1F30B03D0F804C086B007460E46154601
:102F50002AB96FF01504204606B0BDE8F087C2F329
:102F60000B0252EA0304F4D1002904DBDCF82C2024
:102F70004B1993420CD9474B02930023CDE903151B
:102F8000CDE9003344490122184607F09AFEE0E7F4
:102F900007F0F1FE2046D7F8048007F0BCFE044697
:102FA000002872D1DFF8F490D8F82C309D4220D15F
:102FB00008F005FE2C46824638695146FFF762FD4F
:102FC000CA4542D126442D1B00214FF4A47009F0BC
:102FD00076F807F085FE041E48DB14F00104F3D1F7
:102FE000002DE1D1012007F096FE002C08BF044619
:102FF0004BE0B5F5803F09D3B3B253B93146012058
:1030000004F080FB4FF480348246D5E7B5F5805F4D
:1030100009D3C6F30B0030B9314604F073FB4FF40B
:1030200080548246C8E71E4B029300231846CDE920
:1030300000331949DFF86CA00122CDE9036507F0E0
:1030400040FE18493869FFF71DFD174B0293002316
:103050001846CDE90033CDE903650F49012207F099
:1030600030FE5046FFF784FC0446BBE70F4B02934B
:1030700000231846CDE90365CDE900330649012256
:1030800007F01FFE012007F046FE384607F058FE05
:1030900061E700BFB6D90000ECC900000000AD0B2D
:1030A00000DA00000400AD0B3BDA00001EDA00007D
:1030B000024B0B6001231360704700BFD811002042
:1030C00000487047B0CC000070B50D4686B0194678
:1030D00028461C46164607F06BFE034668B90B4AA5
:1030E0000090CDE90102CDE903540949012207F01E
:1030F00070FE6FF0150006B070BD24B1224629465F
:10310000304609F09AF90020F5E700BF6FDA0000B9
:103110009CC9000010B5012211460648064C08F073
:10312000DCFE08F042FD206008F03BFD60600020FE
:1031300010BD00BFE0110020D81100204FF08042E8
:10314000D2F81015D2F8103501F01E0123F01F033C
:103150000B4343F00103C2F81035024B00221A70F2
:10316000704700BF9E1600204FF08053D3F83031D7
:10317000082B20D14FF08042D2F81015CB071AD57A
:10318000D2F8103501F01E0123F01F030B43C2F8E3
:103190001035D2F808315BB1D2F8103523F01F0397
:1031A0000B4343F00103C2F810356FF08B007047FA
:1031B000024B01221A700020704700BF9E160020AB
:1031C0002DE9F04186B08846154608F0EAFC29460C
:1031D0000646404607F0ECFD4746034600283FD030
:1031E000B8FBF6F306FB138323B9B5FBF6F406FB35
:1031F000145474B11F4B02930023CDE90385CDE92C
:1032000000331D490122184607F0E3FD6FF0150455
:103210001FE0AE421DD84FF0FF324FF0FF3317488A
:10322000DFF85C8005F080FC08F0BBFC0646FFF789
:103230009BFF044688B9384603F05CFF98F80030DD
:103240000BB1FFF77BFFAD1B3744F0D10B4805F006
:1032500037FC204606B0BDE8F0816FF08B04F5E73F
:10326000084A05490090CDE90102CDE90385012214
:10327000CAE700BF8CDA00009CC90000E011002002
:103280009E1600206FDA00002DE9F0430E4687B04D
:10329000194630461C46174607F08AFD034678B9A2
:1032A000254A26490090CDE90364CDE901020122B7
:1032B00007F08FFD6FF01504204607B0BDE8F083DE
:1032C00046EA040515F003050AD01D4B02930023BE
:1032D000CDE90364CDE90033184901221846E7E738
:1032E000002CE9D01748DFF860904FF0FF324FF024
:1032F000FF3305F019FC24F00304A54205EB060892
:1033000009D1124AD2F80034DB07FBD500240D485E
:1033100005F0D6FBD0E7FFF727FF50B979594046B3
:1033200003F008FF99F800300BB1FFF707FF0435F1
:10333000E3E76FF08B04EAE76FDA00009CC9000056
:10334000ABDA0000E01100209E16002000E00140F2
:10335000F0B54068057B01F01F0444EA4514056997
:1033600087B0002D64D0B2F5001F00F1100506D122
:103370002146284608F00AFC002007B0F0BD01AE47
:103380000027B2F5800F0197776039D1B3F1007F44
:1033900014BF052304238DF804300023CDE9046312
:1033A0000393836823FA01F111F001011AD1B2F1FC
:1033B000A07F17D104F01F03620903F5E0732AD040
:1033C000012A3BD11F4A52F82330DB070AD40DF102
:1033D000030632462146284603F0E6FC1A4B984283
:1033E0001CD0029603AA2146284603F09FFB174BE8
:1033F000984220D101222146284603F039FDBBE73F
:10340000B3F1C06F05D0B3F1007F14BF01230223D5
:10341000C1E70323BFE74FF0A042D4E73146284677
:1034200003F020FD094B9842DBD06FF00B00A4E7BE
:103430006FF08500A1E76FF015009EE751F823308B
:10344000FFDE00BF000300500400AD0B0000AD0B19
:1034500038B545682B69B3B11035284603F0F2FC46
:10346000044680B90146284603F0B8FC084B984250
:103470000BD108492246284603F090FC224605213C
:103480000620FEF719FE002038BD6FF00400FBE7B0
:103490000000AD0B99340000420970B5034602D01C
:1034A000012A17D070BD0D4E326951680029F9D03C
:1034B00003F01F0301250C689D400029F2D08A68A3
:1034C0002A4002D04B68304698472CB123682146E9
:1034D0001C46F2E7024EE7E72346F8E75CC6000029
:1034E00048C600002DE9F043466840F20635D00694
:1034F000337B87B002EA050554BFC2F340100320B6
:1035000001F01F07B5F5837F144647EA43178DF88E
:10351000030045D00FD8062D18D007D8B5B1022D1D
:1035200040D06FF0150007B0BDE8F083B5F5807F9F
:10353000F7D101250AE040F20222954234D0B5F5D8
:10354000407F33D0B5F5007FEBD102250123220364
:1035500003FA01F12CD57368C3F80815326982BBF0
:1035600007F01F037F0929D0012F77D13E4A02EBD4
:10357000830284F48033D2F80017C3F30043C4F30A
:10358000404444EA430421F4E16144EA800421F028
:10359000070144EA05230B43C2F800370020C2E7C5
:1035A0000725D3E70425D1E70525CFE70325CDE798
:1035B000630344BF7368C3F80C15CFE74FF0A04214
:1035C000D5E710360DF102023946304603F0ECFB28
:1035D00014F4403F80460CD13946304608F0D4FA06
:1035E000224B9845DAD19DF80210304603F034FCA6
:1035F000D4E701AB4FF0000903AA39463046CDE9C4
:103600000439CDE90199CDF80C9003F08FFA174BEE
:10361000984286D114F4003315D09DF803308DF80C
:103620000E3084F48034C4F300444B4603AA394678
:1036300030468DF80C508DF80D4003F031FB0B4BEC
:103640009842CDD06DE7CDE9043303AA0DF1030311
:1036500039463046039303F069FAF0E703F5E07367
:1036600052F82330FFDE00BF000300500000AD0B16
:10367000014805F0B5BB00BF3805002008B507F0CC
:103680000FFC024B1B68C01A08BD00BF10120020BF
:10369000014808F08FBD00BF4007002007B5014674
:1036A00040F2E7304FF47A72002300EBC130490C4E
:1036B000FCF726FD02460B4600210020CDE9000163
:1036C000024806F081F903B05DF804FB40070020D2
:1036D00008B507F0E5FB014B186008BD101200208B
:1036E000014B1868704700BF1012002010B5124C33
:1036F000BFF35B8F022354E8002F012A03D144E873
:1037000000310029F7D1BFF35B8F0CBF01200020EF
:1037100010D10A4BDB6A9847002344F8403CBFF3C2
:103720005B8F54E8002F44E800310029F9D1BFF342
:103730005B8F012010BD00BF58120020FCCD00009F
:1037400010B5064B5C68FFF7D1FF30B12CB10021FA
:103750002046BDE8104006F0C9B910BD1412002083
:1037600013B50D4BD3E901433BB10C4B5B6B01939C
:10377000002002B0BDE810401847FFF7B7FF40B186
:103780003CB16FF00401204602B0BDE8104006F0E5
:10379000ADB902B010BD00BF14120020FCCD000076
:1037A0002DE9F347284C9A46D4E9019307460D4684
:1037B000164683B1254B00205B6B9847E368CDE943
:1037C00000A32A46D4F80880206833463946C0470B
:1037D00002B0BDE8F08704F144020223BFF35B8F1F
:1037E00052E8001F012903D142E800300028F7D138
:1037F000BFF35B8F9046EBD1E36C1A78AA4288BF87
:103800001D70E36CA06C1A78394608F016FE236D23
:1038100003B11E80636D0BB183F800A00B4BDB6A14
:10382000984700216160BFF35B8F58E8003F48E88C
:103830000012002AF9D1BFF35B8F484602B0BDE801
:10384000F04706F053B900BF14120020FCCD000071
:10385000F0B5044687B000680E4608F078FA25688F
:10386000034670B92A6803921E4A1F490090CDE9A9
:103870000102012207F046FB6FF01205284607B04F
:10388000F0BDE38821793343D802D5F808C02F6909
:1038900006D513F4402F03D0DA0748BF83F4402342
:1038A0003868012623F480128E40DB074CBF30437A
:1038B000B0433860DCF800302846984705460028B9
:1038C000DCD0059023790493236807491B68039390
:1038D000064B02930023CDE900330122184607F07E
:1038E00011FBCBE709DB000014CA000022DB00005B
:1038F00070B50D460F49BFF35B8F012051E8004FB3
:10390000002C03D141E80006002EF7D1BFF35B8FF6
:103910000CD1094E41F8403CD4B2736D2146984712
:103920002846B36A21469847002070BD6FF00F000B
:10393000FBE700BF58120020FCCD00002DE9F04746
:1039400000258EB005ACDFF8BC8081468A4617465C
:103950002946102209A80126CDE90544CDE90755DD
:1039600008F093FD8DF83160D8F834300D94002BB9
:1039700045D023463A4651464846FFF7B9FF041E54
:1039800039DBFFB2CDE901570396B8F83C301E4C45
:10399000009398F83A3098F8392098F83810646A0B
:1039A0003046A047014640F2E7304FF47A720023D8
:1039B00000EB0140C1F30E41FCF7A2FB02460B46AF
:1039C000314609A806F03AF8041E14DA0F4B1049E4
:1039D0000095CDE9015332462B46284607F092FA6E
:1039E000FFF784FE38B94FF0FF324FF0FF33314616
:1039F00009A806F023F820460EB0BDE8F0876FF066
:103A00001504F8E714120020FCCD000042DB000092
:103A100014CA0000F0B591B000248DF8172007AD4E
:103A20000F46102221460BA8CDE90755CDE90944E0
:103A3000012608F02AFD2C4B8DF839600F95BFF355
:103A40005B8F53E8002FA24203D143E800610029B5
:103A5000F7D1BFF35B8F43D10DF1170243E9105447
:103A60009A60224D189ADA60199A1A615F60FF21F4
:103A70006B6D304698476B6B20469847DDE91623FF
:103A800031460BA805F0DAFF051E1ADAFFF72EFE05
:103A900050B94FF0FF324FF0FF3331460BA805F01D
:103AA000CDFF9DF8175009E0114B12490094CDE964
:103AB000014303222346204607F024FA284611B08A
:103AC000F0BD0A9B002BECDA0B4B0A490094CDE9C0
:103AD000014332462346204607F014FA0A9DEDE7DB
:103AE0006FF00F05EAE700BF58120020FCCD000080
:103AF0005EDB000014CA00006EDB000010B529B9BF
:103B0000FFF7F4FDD8B96FF0150010BD0E4BBFF3F1
:103B10005B8F012053E8004F002C04D143E8000CD8
:103B2000BCF1000FF6D1BFF35B8F0AD1074C43E91C
:103B30000F12636DFF219847636B002098470020A8
:103B4000E3E76FF00F00E0E758120020FCCD000023
:103B5000F0B52C4DBFF35B8F8BB00C46012755E8B9
:103B6000003F002B03D145E80072002AF7D1BFF3D4
:103B70005B8F43D1244E2068F3689847E37A4BB3B8
:103B80002346103D04F11007186859682A4603C2FD
:103B90000833BB421546F7D14FF47A6308930022ED
:103BA0000120237B0793CDE90522CDE9032023895A
:103BB0000293A379019363790093F569237994F9CA
:103BC0000A10A847B36D607B9847FFF78FFD002070
:103BD0000BB0F0BD0997227BB569CDE90732CDE97D
:103BE0000533CDE903330A2202922289CDE900325E
:103BF0003846A37962792179A847E3E76FF00F008F
:103C0000E6E700BF58120020FCCD000038B508469A
:103C100011461A460B4BBFF35B8F012453E8005F3C
:103C2000002D04D143E8004CBCF1000FF6D1BFF3E6
:103C30005B8F04D1044BDB6B9847002038BD6FF0DD
:103C40000F00FBE758120020FCCD000038B5114BE7
:103C5000BFF35B8F002453E8002F43E800410029A5
:103C6000F9D1BFF35B8F0C4943F8341C0B490C4D61
:103C700043F82C1C0B4943F8241C0B4943F8301C17
:103C80002A6843F8440CA3F134009047EB6A984744
:103C9000204638BD5812002041370000A1370000EF
:103CA000FCCD00006137000023AF00001FB50F4CB2
:103CB000E36953B90E4A0F490093CDE90132184622
:103CC000022207F030F904B010BD002098470A4BDB
:103CD0001B6E03B1984794F82030002BF3D00348B3
:103CE00004B0BDE8104000F057B900BF6C120020CE
:103CF0008ADB00000CCA0000FCCD0000F0B54FF4D8
:103D0000B011476885B006462348FFF7A1FD054678
:103D100000283DD12149224808F001F9304600F041
:103D200065F9044660B11F4B1F490095CDE9015369
:103D300001222B46284607F0F6F8204605B0F0BDD4
:103D4000386808F004F860B9184B02930023CDE9F5
:103D5000003315490122184607F0E5F86FF0120408
:103D6000EBE7F86818B107F0F2FF0028ECD0304616
:103D7000FFF76CFF051EE0DA0D4B02930023CDE93F
:103D8000003309490122184607F0CDF82C46D4E744
:103D90006FF00404D1E700BF00CD0000AD3C00008F
:103DA00078120020B9DB00000CCA0000D7DB00004D
:103DB000ECDB0000024801220A2107F0C3B800BF73
:103DC00048C60000024800220A2107F0BBB800BF25
:103DD00048C60000014B93F8200070476C12002089
:103DE0000346034880F820300BB900F0EFB8704765
:103DF0006C120020014BD861704700BF6C1200208C
:103E000010B5044C204600F095F8012384F82030CA
:103E100010BD00BF6C12002010B5054C204600F00C
:103E2000A3F800B910BD0021212008F048F9F5E7FA
:103E30006C12002070B590B00D46DDE91461CDE93B
:103E40000A3108ABCDE90802CDE90C5204930CAA63
:103E500002230446CDE90E61CDE90623059307F060
:103E6000B3F91248D5B9CEB9836811491D6804AABF
:103E70003346A84700280ADA0E4B0293002303902A
:103E8000CDE900330C490122184607F04CF823789D
:103E9000842B01D0FFF7C0FF10B070BD83680449C8
:103EA0001D68024806AB04AAE3E700BFC0C60000D5
:103EB000ECCC00000FDC00000CCA000070B5154D02
:103EC0008AB0284600F068F8C023ADF8143005AB7E
:103ED000069302230793012406AB089309940E4826
:103EE0000E49836808AA1E680023B04700280CDA30
:103EF0000B4B029300230390CDE90033094922467E
:103F0000184607F010F80AB070BDFFF785FF85F876
:103F10002040F8E76C120020C0C60000ECCC000086
:103F20000FDC00000CCA0000014800F029B800BFF7
:103F30006C12002010B50B4C01220321204607F023
:103F4000EAF800214FF4247008F0B9F800220321A8
:103F5000204607F0E0F84FF4A470BDE810400021BF
:103F600008F0ADB85CC6000008B50421034807F0AE
:103F7000A7F8003818BF012008BD00BF48C60000E0
:103F800008B50621034807F09BF80028D4BF00209D
:103F9000012008BD48C6000010B40B4883689C6926
:103FA0007CB103691B6813F0400FA44618BF4FF0A3
:103FB000007310BC08BF4FF080634FF0A072062161
:103FC000604710BC704700BF48C6000010B40648E8
:103FD00083689C6934B1A446002310BC4FF40012DE
:103FE0000621604710BC704748C6000030B54FF44A
:103FF000D0110569194885B007F043F870B1184B26
:1040000002930023CDE9003316490122184607F038
:1040100072F86FF00404204605B030BD12484FF42A
:10402000803107F02EF80028E9D110484FF4803194
:1040300007F027F804460028E1D10D4B0D486B60CE
:104040004023AB608368DB690BB90B4BD8E70122D7
:10405000294698470028DEDAF7E700BF18CD0000B0
:1040600038DC00000CCA000010CD000008CD0000B4
:10407000E9B0000048C6000053DC0000044A1368A1
:104080000BB1002159724361106007F056B800BFB0
:104090009012002037B5044601A806F024FF6CB149
:1040A000174D2A68134673B963682360012323817F
:1040B0006AB9FFF70DFB2046FFF7E0FF01A806F005
:1040C0001BFF03B030BD9C42F8D05B69EBE7FFF704
:1040D000D5FA236818442B6820601A689042EAD306
:1040E0005A69596911B95C616161E7E711688842F1
:1040F00002D913465269F4E75C616261DEE700BFF2
:1041000090120020F8B5FFF7EBFA1C4C0546FFF7BC
:10411000DFFA2368A3B1471B1E462D1A716929B91E
:104120005A692260DA68197242B9FEE70A68BA422F
:104130008CBF521900220A607669EFE71869904730
:10414000002623682BB9206880B9F8BD186990470C
:10415000F7E71D68FFF792FA8542F4D223685A699F
:104160002260DA681E72002AF0D1FEE7437A002B43
:10417000EBD1BDE8F84006F0E0BF00BF9012002090
:1041800037B5134D044601A806F0ADFE2B686BB1A0
:1041900064B10022A342227211D1597A5C6961B1E3
:1041A0005A7244B120462C6006F0C7FF01A806F001
:1041B000A3FE03B030BDFFF76BFA2C60F6E71A469A
:1041C0005B69002BF2D09C42F9D163695361EDE742
:1041D0009012002007B5074B1B7840BAADF80400D9
:1041E0002BB9022201A940F2BC6006F00AFF03B01D
:1041F0005DF804FBA116002007B5074B1B7840BAF9
:10420000ADF804002BB9022201A940F2BE6006F00D
:10421000F8FE03B05DF804FBA116002010B50C4BAE
:104220001B7804469BB94FF4D76006F01FFFC4F318
:10423000002100F0FE0001434FF4D76006F0F5FEC8
:10424000E1B240F2B960BDE8104006F0EEBE10BD2C
:10425000A116002013B50446FFF7B4FD04F00703D0
:1042600014F004048DF8073008BF084B4FF001022A
:104270000DF107014FF0840008BF1C7006F0A1FE8D
:104280000020FFF7ADFD02B010BD00BF9F1600205B
:1042900010B50446FFF7B4FD2046FFF7ABFDFFF76E
:1042A0000DFE002006F0AFFF06F060FE06F05FFE98
:1042B000034B00221A70BDE810400120FFF790BDAB
:1042C0009F160020134B984207B50BD94EF6E11309
:1042D000ADF80430022201A9982006F072FE03B066
:1042E0005DF804FB0C4B984202D94DF6D733EFE74B
:1042F0000A4B984202D94CF2C153E9E7084B984265
:1043000002D948F27513E3E7064B9842E2D946F624
:104310006B73DDE700E9A43580F8A9328044E52D10
:10432000000B6B1B40FC541937B5104D2B7804461D
:104330001BB9FFF7C7FF01232B7043F6095241F663
:104340008463B4FBF2F102FB114403EB8433B3FB4F
:10435000F2F3042203EB81331BBA0DEB020186203A
:10436000019306F02EFE03B030BD00BF9F16002063
:1043700007B5064B8DF80700187001220DF10701F3
:104380008A2006F01EFE03B05DF804FBA116002093
:10439000014B1878704700BFA116002013B5224AC0
:1043A0000446516810686B4603C3204B20781B7885
:1043B000834201D0FFF7DCFF23781BB1012B2ED005
:1043C00002B010BD62681A4BB3FBF2F31A0C8DF801
:1043D00000201A0A8DF801208DF80230A268237B94
:1043E0008DF8033043F60951637BB2FBF1F08DF891
:1043F000043001FB102241F6846303EB8233B3FBEC
:10440000F1F303EB80331A0C5BBA8DF80520ADF89D
:104410000630082269468B2006F0D3FDD0E72369D9
:1044200000930422F6E700BF88CA0000A11600200E
:104430000000093D1FB52B4A0446D1689068127CE4
:1044400001AB03C31A70284B20781B78834201D03C
:10445000FFF78EFF23781BB1012B31D004B010BDC4
:10446000637AF12B20D14FF6FF70FFF7B3FE48F2CD
:104470000500FFF7C1FE02236288A188ADF806108F
:1044800052BAE188ADF804208DF80B30227AA37A75
:104490008DF80A20ADF808108DF80C30092201A91A
:1044A0008C2006F08EFDD9E7F22BE5D141F60F50B6
:1044B000FFF790FE41F22100FFF79EFE0623DBE7A7
:1044C000A3890A4A5BBAADF80430A37B13708DF858
:1044D0000630E37B8DF80730238AADF808300622DA
:1044E000DDE700BF88CA0000A1160020A01600204A
:1044F00037B505460C46022201A9132006F06FFDD0
:104500000A4B1B78012B0DD1094B1B78012B09D1CC
:1045100040F2027006F0AAFD9DF805302870237065
:1045200003B030BD9DF80400F6E700BFA1160020DF
:10453000A016002013B50322044601A9142006F09A
:104540004EFD184B1A7822704AB1012A17D0132257
:104550000021601C07F099FF0F2323700DE09DF8E8
:10456000043023719DF80530A2605B425B10A3719B
:104570009DF806305B425B10637102B010BD9DF880
:1045800004305B425B1023739DF9053002339B10AE
:1045900063739DF806305B425B10A373024B1B688C
:1045A0002361EAE7A116002094120020034B1B6848
:1045B00013B15B6803B11847704700BFBC130020FC
:1045C000034B1B6813B1DB6803B11847704700BF8A
:1045D000BC130020014B01221A707047A416002062
:1045E00008B5FFF7F7FB0438C0B2032896BF024BAB
:1045F0000020185C08BD00BF83DC000038B50C4605
:10460000002340F201211A460546084606F017FF2E
:10461000FFF7BEFE0C4B01280C480CBF83F8C740C7
:1046200083F8C040FFF706FF21462846002206F027
:1046300012FE074B0748196806F09DFDBDE838409B
:104640000448FFF727BD00BFC812002080130020D8
:10465000D8130020B012002038B50D461446FFF7DD
:1046600063FE2846074D06F085FC06F088FE4FF4F1
:104670007A712846614306F07EFD2846BDE8384041
:10468000FFF708BDB012002073B5574D01A806F022
:104690002AFC2C78002301A82B7006F02DFC002C9E
:1046A00061D006F0E1FE044606F06DFF01A806F0B9
:1046B0001AFCFFF739FC012808BF287001A806F092
:1046C0001BFCE5070BD54948FFF75AFD0120FFF712
:1046D00087FB474B1B6813B11B6803B19847A007C2
:1046E00011D54448424EFFF74BFD14F0400F424BAA
:1046F0003BD01B7813B90120FFF772FB336813B16D
:104700001B6903B1984721060AD50120FFF768FB12
:10471000374B1B6823B19B6913B1C4F30020984742
:10472000A2050FD5FFF756FB04284CD12F48FFF701
:1047300027FD0120FFF754FB2D4B1B6813B15B686D
:1047400003B19847A3060ED52A48FFF719FD2A4B57
:104750001B7813B90120FFF743FB254B1B6813B1EE
:10476000DB6803B1984702B070BD1D7895B9012090
:10477000FFF736FB294640F6021006F056FC40F6DD
:10478000441006F073FC40F00201C9B240F6441038
:1047900006F04BFC194D1A48FF220DF1030106F0FB
:1047A000D9FE2846FFF7C6FE3368002BABD09E68C3
:1047B000002EA8D095F90D3095F90C209DF8031026
:1047C0000F48B0479FE7FFF705FB0528BAD1094816
:1047D000FFF7D6FC0120FFF703FB054B1B68002BFE
:1047E000B0D0DB68ACE700BFA4160020B0120020F8
:1047F000BC13002098120020A4170020C013002032
:10480000A516002010B590B10A4B012219461C686C
:10481000A04206D39C68A04203D201EBC2010879F2
:1048200010BD0132162A03F10803F0D1FEE71F2064
:10483000F6E700BF4CCD00000128094806D1094B1E
:1048400080F8C7101970B830FFF7F4BD90F8BF308A
:10485000012B04D1034B80F8C0101970F3E77047A7
:10486000C81200202807002000234FF6FF7110B562
:104870001A460446084606F0E2FD34B109482146CE
:1048800006F079FC0748FFF705FC074B1B782BB1B6
:104890006FF07F40BDE8104006F0E6BC034B18689F
:1048A0008001F7E798120020A4170020D4130020FD
:1048B00000234FF6FF7110B51A460446084606F06D
:1048C000BEFD34B10948214606F055FC0748FFF704
:1048D000E1FB074B1B782BB16FF07F40BDE8104028
:1048E00006F00FBD034B18688001F7E7981200200F
:1048F000A4170020D4130020F0B5BDF814409DF893
:1049000018C09DF81CE09DF8205040B1012814D03B
:104910000122002398180138B0FBF2F0F0BD8CF0B2
:10492000010CE30003EBCC0318330EEB450503EB5E
:10493000C5034FF47A714B43ECE7501F012803F194
:10494000040304D80C2C38BF0C24002706E0C1B99E
:10495000A2F10B07012F8CBF002701272801BCF112
:10496000000F00EBCE000CBF14250025A0EB820049
:10497000062A4FEA82062844A2F1020C08D83546DE
:104980000BE00129E1D1A2F10C0047424741E5E7E4
:104990000830002FF3D04FEA8C050028ACBF2E184A
:1049A0002E1C701E90FBF5F003FB0044094B062AF9
:1049B0005A5C8CBF0C340E340A2A0AD8A300013387
:1049C0004FF47A7103FA0CF34B43034951F8222058
:1049D000A0E7FFDE87DC000020CD00000D4B10B506
:1049E00004461870587000F017F85CB134214FF489
:1049F000E86006F01AFB4421BDE8104040F2417027
:104A000006F013BB14214FF4E86006F00EFB2421DE
:104A1000F2E700BFA216002008B50120FFF7A8FCAE
:104A2000054B18785A78824204D05870BDE8084087
:104A3000FFF7D4BF08BD00BFA2160020012808B5AB
:104A400006D00020FFF794FC034B00225A7008BDEB
:104A5000BDE80840FFF7E0BFA21600202DE9F04FA7
:104A600085B089469DF84C1000919DF85C109DF82A
:104A700044A0BDF84070694CDFF8A4B1BDF83C60BB
:104A80002170002918BF0027BAF1000F15469DF8C4
:104A9000482008BFFF228BF80020804620B1012863
:104AA00054D005B0BDE8F08F5E4C06F073FC0B23CC
:104AB0004FEA490084F8EC3084F8E080C4F8E45010
:104AC000FFF7A0FE41F60403A4F8BC309BF80030C9
:104AD00084F8C030009B84F8ED00002B0CBF01234C
:104AE000F22384F8C130F60001238AF0010A84F829
:104AF000C23084F8B880A4F8BA6084F8BE8084F824
:104B0000BFA006F04EFD94F8E000003818BF012069
:104B1000FFF794FF04F1E000FFF740FC04F1B80058
:104B2000FFF788FC404A1068516802AB03C302A833
:104B300006F060FB40F2FF10FFF770FB4FF4FA53F2
:104B40007B43B3FBF5F3394A1360AAE70020354CE9
:104B5000019306F01FFC3649019B11F8091084F8F7
:104B6000E080EAB284F8F020B9F1000F45D10B3DA6
:104B7000012D8CBF00250125053A012A02D80C2EF3
:104B800038BF0C2684F8F230012384F8B8309BF843
:104B9000003084F8C730009B84F8C8309DF8583046
:104BA00084F8C93084F8F11084F8F350A4F8C46094
:104BB00084F8C6A006F0F5FC94F8E000003818BFB1
:104BC0000120FFF73BFF1B48FFF7E8FB1A48FFF700
:104BD00031FCF8B206F0EAFB94F8C930012B40F240
:104BE000367014D106F042FA00F0FB0140F2367044
:104BF00006F01BFA4FF6FF73A5E7B9F1010F04D1D8
:104C0000A5F10C0045424541B6E70025B4E706F0A2
:104C10002DFA40F00401C9B2E8E700BFA417002054
:104C200028070020C812002099CA0000D4130020D1
:104C300087DC0000A8130020801300202DE9F74F27
:104C40000C9DBDF838709DF83C909DF840A08846BA
:104C50009346064648B101284DD040F6890006F03B
:104C600005FA40F00401C9B28DE0524C0B2284F8E1
:104C7000E000580084F8EC20C4F8E450FFF7C2FDCF
:104C800041F60403BAF1000FA4F8BC300CBF0123B5
:104C9000F22384F8C130FF00012389F0010984F870
:104CA000C23084F8ED00C4F8E8B084F8B860A4F825
:104CB000BA7084F8BE6084F8BF9006F072FC94F875
:104CC000E000003818BF0120FFF7B8FE04F1E00053
:104CD000FFF764FB04F1B800FFF7ACFB364A10683D
:104CE00051686B4603C3684606F084FA40F2FF1031
:104CF000FFF794FAB1E72F4C304984F8E000EAB2AC
:104D0000C95C84F8F020002B4AD10B3D012D8CBFEB
:104D100000250125053A012A02D80C2F38BF0C279F
:104D20009DF8343084F8F230012384F8B830244BF5
:104D300084F8F1101B7884F8C7309DF84C3084F863
:104D4000C93084F8F350A4F8C47084F8C69084F88D
:104D5000C8A006F026FC94F8E000003818BF012037
:104D6000FFF76CFE1748FFF719FB1748FFF762FBC8
:104D700094F8F130062B7FF470AF40F6890006F00E
:104D800075F900F0FB0140F6890006F04EF9404647
:104D900006F0F0F8149A0D4B1A6003B0BDE8F08FDE
:104DA000012B04D1A5F10C035D425D41B2E7002562
:104DB000B0E700BFC812002099CA000087DC0000DD
:104DC00028070020A813002080130020D8130020FB
:104DD00008B5174B18601748FFF75AFA002006F07D
:104DE00012FA012006F00DFB0021084606F098FBA0
:104DF0000421002006F051FB00234FF6FF711A46F4
:104E0000084606F01CFB40F6AC0006F046FC40F6F7
:104E1000890006F042FC0849084806F0A4F9084950
:104E2000084806F0A0F9084B00221A7008BD00BF20
:104E3000BC130020D5450000AD450000B012002095
:104E4000C145000098120020A4160020036803F05A
:104E50001F025B09026004D0012B034818BF002029
:104E600070474FF0A0407047000300502DE9F04F0D
:104E7000DFF89491DFF894A185B01546834600EBE6
:104E8000810140F2FF18594503D1002005B0BDE86B
:104E9000F08FDBF800305E04C3F3C322C3F30804D1
:104EA00000F1AC801B0E19F80270444508BF4FF0AA
:104EB000FF34222B00F2A580DFE803F012191F2235
:104EC000252B22A3A3A3A33B68A3A3A3A3A3A3A3CC
:104ED000A3A36B818487A3A3A38A9194979A9D002F
:104EE000C5F80C45601C5ED10BF1040BCBE7C5F88F
:104EF0001445621CF8D000265FE0C5F80845F1E7CC
:104F0000C5F81045F5E7631CC5F80845ECD0002648
:104F100004E0661CC5F80C45E6D0012603A80394FE
:104F2000FFF794FF039B012202FA03F3C0F80C354C
:104F300008E0C5F80845002FDBD1631CD4D000265B
:104F400032460627DBF80030019303F400400028C6
:104F500018BF002203A8009218BF01260394FFF790
:104F600075FF039C019B009A00EB8400C3F3412C66
:104F7000D0F800473B0243EA8C03134304EA0A04D7
:104F8000234343EA4603C0F80037ADE7C5F80C45B4
:104F9000D1E7C5F86045601CDBF80030A4D0C3F34E
:104FA0000043002BB9D003A80394FFF74FFF039BE6
:104FB000012606FA03F3C0F808353246C2E7C5F801
:104FC0006445E8E7C5F86845E5E7C5F86C45E2E7FC
:104FD000C5F82445621C87D000220126B2E7C5F837
:104FE00028457FE7C5F83045F4E7C5F83445F1E7D3
:104FF000C5F83845EEE7C5F83C4573E76FF0150096
:1050000044E76FF0850041E78ADC0000F0F8FCFF20
:105010007FB50BAB05930393054B02930023CDE9BA
:10502000003301221846FCF73BF807B05DF804FB9B
:1050300092DC00002DE9F041044647680D4606F079
:105040009AFF4FF0200888B9264B1B7873B164266D
:10505000606806F084FBF0B9012006F0F8FC013E20
:10506000F6D10021212007F02AF8F0E7EFF31186AE
:10507000314688F31288BFF36F8F606806F06FFBCC
:10508000A8B986F31188BFF36F8FEFE786F3118815
:10509000BFF36F8FE5E7EFF31186314688F312888F
:1050A000BFF36F8F606806F05AFB0028EED0BB6933
:1050B0001D706368BA691B680020C3F8442501228B
:1050C000C3F84825C3F82001D3F82041C3F858019C
:1050D000D3F858019A6081F31188BFF36F8FBDE850
:1050E000F08100BFB7170020F0B50022054601216E
:1050F00087B00220FCF7E0FF0220FCF7ADFF6A68F2
:1051000011681369C1F82435137D507D927D0343E6
:105110001343C1F86C356E68D6E9004313F0010300
:1051200055D02F6907F1080006F09DFC354B9842D9
:105130000DD0354B029300231846CDE90033334997
:105140000122FFF765FF6FF0040007B0F0BD387A69
:1051500004F10C0204F5907106F07BFC387A01270B
:1051600007FA00F001F0AEFA0823C4F80035B3697D
:10517000C4F844350023C4F84835A760D4F8583142
:10518000002BFBD00021C4F800156B68DC6805AA71
:10519000204606F0B7FA002805DB059B226819793E
:1051A0001868FFF763FE6A6813680821C3F80015E2
:1051B000117A51B9D269C3F834250122C3F83825D0
:1051C000C3F81011D3F810111A600020BDE70822AF
:1051D000C4F80025B269C4F84425C4F84835012351
:1051E000A360D4F82031002BFBD00023C4F8203179
:1051F000D4F820310123E3604FF48073C4F8043302
:10520000BCE700BF0000AD0B92DC00001CCA000030
:105210002DE9F041456806692F6A88B007AA002188
:10522000384606F06FFA041E2BDB079B3A681979A3
:105230001868FFF71BFE041E23DB696A481C24D094
:1052400005F1280000F038FB10F1130F04460CD1D3
:10525000304B02930023CDE900332F490122184639
:1052600006F0C6FA6FF012040BE0411D0DD12B4B76
:1052700002930023CDE9003327490122184606F0A6
:10528000B7FA204608B0BDE8F081EB699847B568E9
:105290000127D6E9023203EBC2039D4204D3304614
:1052A00006F0C9FA0024ECE7286806F050FD034632
:1052B00068B92A7904922A68174912680392184A31
:1052C0000090CDE90102012206F092FACAE72868AF
:1052D0002979EB88D0F810C0D0F80880DCF80040BD
:1052E000DA0754BF43F4B01383F4D01323F48012CD
:1052F00007FA01FEDB074CBF44EA0E0424EA0E0461
:10530000CCF80040D8F800309847041EB9DB0835C7
:10531000BFE700BFCFDC0000FCC90000FADC0000E2
:1053200017DD00007FB50546406829698A6D0B6E60
:105330000ABBABB14C6D8B6616461A46C96D02911D
:10534000CDE9004611B3002B18BF13460022694671
:10535000039302F0A7FB0E4B98420AD06FF00403B0
:105360002C69236404F1280003F0AAFB002384F8CD
:105370006C3004B070BD4C6D13B19A4228BF1A4610
:10538000002C8A6614BF16460026D7E70B46DDE7D9
:105390000000AD0B30B5037885B00C4663B98D6E57
:1053A00065B94B6E1C696FF07303236404F1280028
:1053B00003F086FB84F86C5005B030BD8A6D52B1A5
:1053C00095421DD9274A28490093CDE90132184654
:1053D000012206F00DFA236EA26E5BB19A4227D924
:1053E000204B02930023CDE900331F4901221846C8
:1053F00006F0FEF9606E05B0BDE83040FFF792BFE1
:10540000521B8A6572B94B6C08334B648B6C013B41
:105410008B6401F1580204F14400483106F0D5F9DB
:105420006065D8E74B6D002BD5D02B444B65D2E798
:105430009B1A23667BB9E36C0833E364236D013B5D
:10544000236504F1600204F1500104F14C0006F000
:10545000BCF9E065CEE7E36D002BCBD01344E365E8
:10546000C8E700BF3BDD0000FCC900002DE9F04F9C
:105470008DB004690493436805938B8807469804AC
:105480008846924634D44FF0FF324FF0FF3304F198
:10549000100003F049FBC4F80480D7F81090D7F847
:1054A00004B099F86D3023B1D9F80030984500F078
:1054B0000881B8F8046016F4006320D06D4B0293A5
:1054C0000023CDE900336C490122184606F090F91B
:1054D0006FF0850523689B8813F4005304D1636043
:1054E00004F1100003F0ECFA28460DB0BDE8F08F8F
:1054F000A369002BC7D163689942C4D1CDE716F0E8
:1055000001020DD03A6803925C4A5B490093CDE9F1
:1055100001321846012206F06BF96FF01505D9E744
:1055200016F008030AD0564B0092CDE9012313462A
:1055300051490122184606F05BF9EEE7C6F3451221
:10554000082A04D04F4A0093CDE90132F0E7D8F899
:1055500000504D4A954201D84C4AF4E70BF1080E31
:10556000BEE80F000DF11C0CACE80F00DEF80030B7
:10557000CCF80030464B9D4258D9464B9D4258D9F5
:10558000454B9D4258D9454B9D4258D9444B9D426D
:1055900058D9444B9D422CBF4FF000454FF08045F9
:1055A000B107099506F004034FD5002B14BF032360
:1055B00002238DF82830C6F300138DF82930DBF86C
:1055C0000030D3F8081516F0020F4FEA5113C6F356
:1055D000400201F01F013FD1002B3AD0012B40F0D7
:1055E0003E81314A01238B40C2F80C3599F86D3069
:1055F0002BB1584602F01EFA002389F86D304B4655
:105600002A4A07A9584602F0E1F9294B984253D09B
:10561000284B029300230390CDE900331649012261
:10562000184606F0E5F86FF0040553E74FF00075F3
:10563000B6E74FF08065B3E74FF00065B0E74FF095
:105640008055ADE74FF00055AAE7003B18BF012396
:10565000AFE74FF0A042C5E743B1012B40F0028114
:10566000114A01238B40C2F80835BFE74FF0A04232
:10567000F7E700BF59DD0000FCC9000073DD000042
:1056800095DD0000B4DD000047E80100E3DD000027
:105690008FD003001FA107003F420F007F841E0030
:1056A000FF083D0000127A000003005095530000EF
:1056B0000000AD0B14DE0000012389F86D30C9F83D
:1056C0000080012384F86C30059B596A4A1C0FD076
:1056D00003F1280006F0D9F8743009D1634B029326
:1056E0000023CDE9003362490222184606F080F813
:1056F000BAF1000F7BD1C4F844A00023A36404F1E5
:10570000580204F1480104F1440006F05EF8049BDD
:105710006065002B73D1E3640023236504F160020C
:1057200004F1500104F14C0006F04FF8E0652068E8
:105730000023236448B183683BB10121083006F09F
:1057400066F82368186906F0FDFA3846FFF7EAFDA7
:105750000022A06C1346834259D10023256D1946BF
:10576000A9425BD19342264638BF13464FF4FA5202
:1057700002FB03F556F8283B4FF000081B68B5FB09
:10578000F3F54FF4004CC835414640F2E7304FF492
:105790007A720023E5FB0C01FAF7B2FC02460B46D5
:1057A000304603F0C1F900283FD0324B3049CDF8E4
:1057B0000080CDE9018301224346404606F018F8F7
:1057C00000250598A56602F035F984F86D503F690B
:1057D0006FF07308C7F8408007F1280003F070F9F4
:1057E00087F86C50304603F0C5F9454621E0DAF8F9
:1057F00000306364002B80D0DAF804307EE7049B2D
:105800001B68E364002B87D0049B5B6885E7616CB1
:1058100001EBC301013349680A449CE7E06C00EBEB
:10582000C1000131406803449AE7256C15F1740FFB
:10583000C6D02368002B3FF44DAE9A68002A3FF48F
:1058400049AE998811F480567FF444AE186906F089
:1058500079FA20683146083005F0D9FF3AE6C2F8F7
:105860000C25FFDE0023C3F80835FAE73BDE000015
:10587000FCC9000065DE000000F01F0240090DD0E9
:1058800001280ED10A4B03EB82030A4AD3F8000722
:10589000024042EA8102C3F8002770474FF0A0435C
:1058A000F1E702F5E072002353F82230FFDE00BF7B
:1058B00000030050F0F8FCFFF0B587B001238DF82D
:1058C000023002238DF804306B4403930F4601AB82
:1058D0000DF103010024049305460291059401F0A3
:1058E000C1FA0C4B984206460FD103AA3946284606
:1058F00001F01CF9B0420BD09DF80310284601F0CE
:10590000ABFA6FF0040007B0F0BD6FF01200FAE7D9
:105910002046F8E70000AD0B2DE9F0434568076924
:1059200087B00646E86B05F0FFFF041E16DB296C06
:10593000481C24D005F14400FFF7BEFF10F1130FFF
:1059400004460FD1324B02930023CDE90033314995
:105950000122184605F0D9FF6FF01204204607B067
:10596000BDE8F083411D0AD12B4B02930023CDE902
:10597000003328490122184605F0C7FFEEE76B6B9C
:105980009847BD684FF00108D7E9023203EBC20324
:105990009D4208D3384606F00BF87368D86B05F0C3
:1059A000C3FF0024DAE7286806F0D1F9034668B996
:1059B0002A7904922A68174912680392174A0090BC
:1059C000CDE90102012205F0A0FFC5E72868297989
:1059D000EB88D0F810C0D0F80890DCF80040DA0767
:1059E00054BF43F4B01383F4D01323F4801208FAA5
:1059F00001FEDB074CBF44EA0E0424EA0E04CCF897
:105A00000040D9F800309847041EA7DB0835BBE7F3
:105A1000CFDC000004CA0000FADC000017DD000043
:105A20002DE9FF410569D0F804802B6E0646A86D6C
:105A3000002835D1002B53D0B8F838406A6DEF6D8F
:105A40009C4228BF1C46EB6D53B1296E41B107F053
:105A50006041B1F1005F03D0082C6F6F28BF0824AC
:105A600000926A6DAC661AB1AA6D002A18BF224670
:105A7000CDE901271BB12B6E002B18BF2346002256
:105A800069464046039302F0FFFA184B984229D02A
:105A90006FF00401304604B0BDE8F04105F0AABF44
:105AA000696DEF6DB8F838400A46ABB1834228BF44
:105AB00003469C4228BF1C460029C4D001F0604325
:105AC000B3F1005FBFD0082C28BF08242246286FFE
:105AD00006F0B3FC2A6FB6E7844228BF0446EBE722
