:020000040000FA
:10000000C0660220B94400004B5A0200A54400001B
:10001000A5440000A5440000A54400000000000025
:100020000000000000000000000000003546000055
:10003000A544000000000000D1450000A5440000D8
:10004000E5470000E5470000E5470000E547000000
:10005000E5470000E5470000E5470000E5470000F0
:10006000E5470000E5470000E5470000E5470000E0
:10007000E5470000E5470000E5470000E5470000D0
:10008000E5470000E5470000E5470000E5470000C0
:10009000E5470000E5470000E5470000E5470000B0
:1000A000E5470000E5470000E5470000E5470000A0
:1000B000E5470000E5470000E5470000E547000090
:1000C000E5470000E5470000E5470000E547000080
:1000D000E5470000E5470000E5470000E547000070
:1000E000E5470000E5470000E5470000E547000060
:1000F000E5470000E5470000E5470000E547000050
:1001000080F0004002E000BF81F0004142001FBFCC
:100110005FEA410392EA030F7FEA226C7FEA236CD5
:100120006AD04FEA1262D2EB1363C1BFD2184140CA
:1001300048404140B8BF5B42192B88BF704710F060
:10014000004F40F4000020F07F4018BF404211F003
:10015000004F41F4000121F07F4118BF494292EA6B
:10016000030F3FD0A2F1010241FA03FC10EB0C0097
:10017000C3F1200301FA03F100F0004302D5494224
:1001800060EB4000B0F5000F13D3B0F1807F06D3D1
:1001900040084FEA310102F10102FE2A51D2B1F1C9
:1001A000004F40EBC25008BF20F0010040EA0300BE
:1001B0007047490040EB0000013A28BFB0F5000F3E
:1001C000EDD2B0FA80FCACF1080CB2EB0C0200FAF4
:1001D0000CF0AABF00EBC25052421843BCBFD04043
:1001E0001843704792F0000F81F4000106BF80F4BD
:1001F00000000132013BB5E74FEA41037FEA226C80
:1002000018BF7FEA236C21D092EA030F04D092F04A
:10021000000F08BF0846704790EA010F1CBF00207E
:10022000704712F07F4F04D1400028BF40F00040DB
:10023000704712F100723CBF00F50000704700F0FB
:10024000004343F0FE4040F4000070477FEA226222
:1002500016BF08467FEA23630146420206BF5FEAF3
:10026000412390EA010F40F4800070474FF00003F3
:1002700004E000BF10F0004348BF40425FEA000CBA
:1002800008BF704743F0964301464FF000001CE062
:1002900050EA010208BF70474FF000030AE000BFB8
:1002A00050EA010208BF704711F0004302D54042F6
:1002B00061EB41015FEA010C02BF84460146002068
:1002C00043F0B64308BFA3F18053A3F50003BCFA83
:1002D0008CF2083AA3EBC25310DB01FA02FC634430
:1002E00000FA02FCC2F12002BCF1004F20FA02F237
:1002F00043EB020008BF20F00100704702F120022A
:1003000001FA02FCC2F1200250EA4C0021FA02F28A
:1003100043EB020008BF20EADC7070474FEA40025E
:10032000B2F1FE4F0FD34FF09E03B3EB12620DD923
:100330004FEA002343F0004310F0004F23FA02F08D
:1003400018BF404270474FF00000704712F1610F34
:1003500001D1420205D110F0004008BF6FF000400B
:1003600070474FF0000070477BB972B90029BEBFDB
:1003700000204FF0004106E008BF00281CBF6FF0CE
:1003800000414FF0FF3000F057B8ADF1080C6DE9B7
:1003900004CE002909DB002B1ADB00F061F8DDF840
:1003A00004E0DDE9022304B07047404261EB410103
:1003B000002B1BDB00F054F8DDF804E0DDE902233C
:1003C00004B0404261EB4101524263EB430370478A
:1003D000524263EB430300F043F8DDF804E0DDE94B
:1003E000022304B0404261EB41017047524263EB8B
:1003F000430300F035F8DDF804E0DDE9022304B042
:10040000524263EB4303704753B94AB9002908BF0E
:1004100000281CBF4FF0FF314FF0FF3000F00CB848
:10042000ADF1080C6DE904CE00F01AF8DDF804E037
:10043000DDE9022304B07047704700BF10F8012BBC
:1004400011F8013B012A28BF9A42F7D0D01A704711
:10045000034613F8012B002AFBD1181A0138704704
:100460002DE9F04786468C460846089E1546744698
:100470001946002B40F0C2808542B2FA82F245D97B
:100480004AB1C2F1200300FA02FC2EFA03F39540B0
:1004900043EA0C0C94404FEA154EA8B2BCFBFEF8A0
:1004A000230C0EFB18CC08FB00F943EA0C439945DA
:1004B00028D9EB1808F1FF3704D2994502D9A8F1E1
:1004C00002072B44A3EB0903A4B2B3FBFEFC0EFB13
:1004D0001C330CFB00F044EA0344A04214D92C194D
:1004E0000CF1FF3304D2A04202D9ACF102032C4438
:1004F000241A43EA07401EB1D440002334607360DD
:10050000BDE8F0874746DDE76346F1E792BB431B52
:1005100001214FEA154EAFB2B3FBFEFC200C0EFBDF
:100520001C330CFB07F840EA0343984562D9EB18EB
:100530000CF1FF3004D2984502D9ACF102002B44F3
:10054000A3EB0803A4B2B3FBFEFC0EFB1C330CFBB5
:1005500007F744EA0344A7424ED92C190CF1FF33A4
:1005600004D2A74202D9ACF102032C44E41B43EAB3
:100570000040C0E7C2F1200320FA03F1954090400B
:100580002EFA03F303434FEA154EAFB2B1FBFEFC64
:100590000EFB1C10190C0CFB07F841EA00418845C2
:1005A00004FA02F422D969180CF1FF3004D288450C
:1005B00002D9ACF102002944A1EB08019BB2B1FBC6
:1005C000FEFC0EFB1C110CFB07F743EA01439F42A4
:1005D0000ED9EB180CF1FF3104D29F4202D9ACF1D5
:1005E00002012B44DB1B41EA004192E76046E3E74E
:1005F0006146F7E76046A3E76346B7E7834206D95B
:1006000016B9002108467BE7C6E900E0F9E7B3FA2E
:1006100083F78FB9834201D3724508D8BEEB020439
:1006200060EB030301209C461EB9002168E73846B1
:10063000FAE7C6E9004CF8E7C7F1200CBB4022FA04
:100640000CF41C432EFA0CF120FA0CF3B8400143D1
:100650004FEA14490EFA07F5B3FBF9F81FFA84FEC6
:1006600009FB18300B0C08FB0EFA43EA00439A45CD
:1006700002FA07F240D9E31808F1FF3004D29A4594
:1006800002D9A8F102002344A3EB0A0389B2B3FB09
:10069000F9F809FB183308FB0EFE41EA03418E45C9
:1006A0002CD9611808F1FF3304D28E4502D9A8F184
:1006B0000203214443EA0040A0FB0298A1EB0E0193
:1006C0004145CE46434602D306D14D4504D2B9EB4F
:1006D000020E68EB04030138002EA6D0B5EB0E0223
:1006E00061EB030101FA0CFC22FA07F34CEA030365
:1006F000F940C6E9003198E74046C5E74346D9E7E7
:10070000F0B5434B4349444E97B000241B68159302
:100710004FF00003414B029320462346CDE90044AD
:10072000032224F06EFB3DF063FD835903933C4BA1
:10073000384900940546CDE901432046234603226B
:1007400024F05FFBA8593DF045FA364B0390CDE904
:1007500001433049009423460322204624F051FBF4
:10076000314E324F324D4FF0FF324FF0FF3308A879
:1007700000F0ACF89DF821309DF820100295002B78
:1007800014BF30463846DDE90A230024CDE90623AC
:10079000CDE90310234603222046CDE900441D493C
:1007A00024F02FFB9DF82130A34214BF01232346E0
:1007B0008DF830309DF820308DF83830DDE90A238F
:1007C0000CA8CDE910230CBF012323468DF8483037
:1007D00002F00EF950B1174B0390CDE901430D49DA
:1007E000009423460122204624F00BFBBDF8203064
:1007F000052BB8D1104B02930023CDE900330549F6
:100800000322184624F0FDFA01F050FFABE700BFC9
:10081000F40D032060E6030008000000950A0400C0
:10082000B10A0400D70A04008C0A0400840A0400F8
:10083000F20A0400070B0400380B04002DE9F04F06
:10084000904685B03DF0E8FA4FF47A73A0FB0305BB
:1008500003FB0155C40B1B4FDFF86C9044EA454481
:100860000026ED0B97F804A028FA0AF3DB0721D540
:100870003868D0F810B0836869465B68984750B90B
:10088000009BDBF800205A40012303FA0AF31A42C6
:1008900014BF01200020B0FA80F04009CDE90245E4
:1008A0008DF800608DF8010000220023694648465B
:1008B00022F072FB0136072E07F10807D2D105B0EE
:1008C000BDE8F08FE8E703002408002008B50146E2
:1008D000034822F0BBFBB0FA80F0400908BD00BF1E
:1008E000240800202DE9F04F3F4C404FDFF800A1D5
:1008F00087B00026A34620683DF052F8034690B921
:100900005BF836203B4912680090CDE903623A4A11
:10091000CDE90102012224F083FA6FF01205284686
:1009200007B0BDE8F08FE3882068217943EA0A0226
:100930000569D0F808C013F0010F4FF0010E2B68C5
:100940000EFA01FE14BF4EEA030323EA0E032B60E6
:10095000DCF800309847054658B1284B03960293BF
:100960000023CDE9003323490122184624F058FA28
:10097000D5E72068217983689D694DB14FF00073F8
:100980004FF0A072A847054628B11D4B0396E6E735
:100990006FF05705F9E794F804901A4B7B60012239
:1009A00002FA09F3D4F80080BB60D8F80830DB699C
:1009B00013B1394640469847CDF81490D8F8003026
:1009C0000C49CDE90363104B02930023CDE90033BA
:1009D00003221846013624F023FA072E04F10804F6
:1009E00007F10C0787D19AE7E8E70300A8910020F8
:1009F0001000010068E603007E0B04009C0B04005D
:100A0000BA0B04003D080000E00B0400014822F08E
:100A1000D7BD00BFFC91002030B51E4B8BB01B68CA
:100A200009934FF0000364238DF81430042300244D
:100A30008DF8153001250023002205A8CDF81B40B4
:100A4000CDF81740CDF81E408DF8165000F06CFB25
:100A5000034698B99DF8152003920F4A0F4900905C
:100A6000CDE90102032224F0EAF90A4B1A68099B36
:100A70005A404FF000030BD03DF088F9084B03902B
:100A8000CDE901430549009423462A462046EAE77A
:100A90000BB030BDF40D03200B0C040080E6030006
:100AA000260C040013B50A4C0A490B483DF060F8C7
:100AB0000A49002220463DF0B1F94FF440320023AC
:100AC000CDE90023204623F095FB02B010BD00BF06
:100AD000280A0020190A0000FC9100200D0A0000DD
:100AE000014822F06DBD00BF6C920020014822F049
:100AF00067BD00BF5C920020014822F061BD00BFCD
:100B00004C920020014822F05BBD00BF3C920020C7
:100B1000014822F055BD00BF2C920020014822F070
:100B20004FBD00BF1C920020014822F049BD00BF0C
:100B30000C9200202DE9FF4700F092F900230446B3
:100B400068B1194A0390CDE9013218490093012296
:100B5000184624F09FF9204604B0BDE8F087DFF87E
:100B60005080144E144FDFF8549005464FF0380A69
:100B7000304658F8041B3CF0FBFF0AFB059057F881
:100B8000041B002201353DF049F9072D06F110063E
:100B9000EED10B4B02930023CDE90033034903222E
:100BA000184624F077F9D6E7500C040088E60300D5
:100BB0003CE803000C92002020E80300E00A00203B
:100BC0006E0C04001FB5014668B9184B1849009017
:100BD000CDE901030122034624F05CF96FF015040E
:100BE000204604B010BD0378062B0BD90393114B9C
:100BF00002930023CDE900330D490122184624F069
:100C000049F9EBE70C480022002322F0C5F904461D
:100C10000028E5D0094B029300230390CDE900336F
:100C200003490122184624F035F9D9E7860C04005F
:100C300088E603009B0C040054080020AE0C04005E
:100C400030B5062887B005460FD91E4B0293002306
:100C50000390CDE900331C490122184624F01AF90B
:100C60006FF01504204607B030BD012100F066F991
:100C7000044660B1154B02930023CDE90350CDE942
:100C8000003311490122184624F004F9EAE710491B
:100C9000C5EBC50000220023CDE9002301EBC00015
:100CA0004FF40042002323F0A5FA0A4B06490395AE
:100CB000CDE90143009423460322204624F0EAF8BC
:100CC000D0E700BF9B0C040088E60300CE0C0400B4
:100CD000E00A0020EB0C040070B5062886B005463B
:100CE0000E460FD9134B029300230390CDE9003336
:100CF00011490122184624F0CDF86FF01504204662
:100D000006B070BD00F01AF904460028F7D00B4A6F
:100D10000B4B09490395002E18BF1346CDE904304B
:100D2000084B02930023CDE900330122184624F03A
:100D3000B1F8E4E79B0C040088E60300080D04000A
:100D40000B0D04000F0D040070B53D4B3D493E4EA8
:100D500090B000241B680F934FF000033B4B0293AD
:100D600020462346CDE90044032224F093F83DF0C9
:100D70003FFA83590393364B324900940546CDE937
:100D8000014320462346032224F084F8A8593CF06E
:100D900021FF304B0390CDE90143009423462046C8
:100DA00028492D4C032224F075F84FF0FF324FF004
:100DB000FF3304A9204622F049F90028F5D19DF817
:100DC0001130032B2ED8DFE803F002212328012164
:100DD0009DF81000FFF780FF2022002106A83DF0BB
:100DE00094F904238DF818309DF810308DF82030D8
:100DF0009DF8113013B3DA1E534253418DF8213060
:100E000006A8059B099301F0F3FDCEE70021DFE77B
:100E10009DF8100000F0B2F8DEE79DF81000FFF733
:100E20000FFFD9E703930D4B02930023CDE9003365
:100E300004490122184624F02DF8CDE70123DDE70F
:100E4000F40D032088E60300080000002E0D0400C6
:100E50004F0D04007A0D0400540800209A0D040080
:100E60002DE9F04F304CDFF8C480314F87B00025BA
:100E70004FF00109266830463CF092FD034670B9F8
:100E80002C4A2B490395CDE901020090012224F060
:100E900010F86FF0120A504607B0BDE8F08F2068D6
:100EA0002179E388D0F810C0D0F808E0DCF800A081
:100EB000DA0754BF43F4B01383F4D01323F4801241
:100EC00009FA01FBDB074CBF4BEA0A032AEA0B03D2
:100ED000CCF80030DEF800309847B0F1000A0BDAA9
:100EE000154B02930023CDE90033114903950122EC
:100EF000184623F0DEFFCEE7237905933368CDF85B
:100F000008800026CDE90353CDE90066334603226D
:100F100039463046013523F0CCFF072D04F1080493
:100F2000A8D1B246B7E700BF58E803000B0E040093
:100F300090E60300D40D0400EC0D040006280346DF
:100F40000A4615D80C4951F8300001EBC3010123C2
:100F5000097903FA01F103691B68194218BF82F08D
:100F6000010212B18368DB68184783681B69FBE7DD
:100F70006FF01500704700BF58E8030006280346CD
:100F80000AD8074A52F8300002EBC3020121137954
:100F9000994083685B6918476FF01500704700BF80
:100FA00058E8030010B588B004460DF11F010DF19B
:100FB0001E0024F0C1FD9DF81F300749CDE9034311
:100FC000064B02930023CDE900330322184623F099
:100FD0007FFF08B010BD00BFA8E60300300E04007C
:100FE0002DE9F04F8BB0334E08AF36687E604FF07E
:100FF0000006C1F340067C6B97F830500592CDE9AE
:10100000063601F0010100262B4B0293CDE90301C6
:10101000CDE900662949334603223046E84623F0ED
:1010200057FF04B14DB9234B1A687B685A404FF003
:101030000003C5463AD03CF0A9FE214B0393214B57
:101040000095CDE90163304623461C49DFF878B0AE
:10105000032223F03DFF6B00083303F47E73ADEBF6
:10106000030D0DF120092EB2CA46254414F8012BB8
:101070005046594623F09AFBAC420AF1020AF5D1D8
:10108000002409F81640114800220023494621F0A7
:1010900083FF0028C7D00E4B08490094CDE90143D7
:1010A00002222346204623F013FFBCE70C37BD463F
:1010B000BDE8F08FF40D0320540E0400A8E60300F1
:1010C000870E0400A45A0400781D04008408002040
:1010D000900E04001FB5014660B90F4B0F490090F8
:1010E000CDE901030122034623F0F2FE002005B002
:1010F0005DF804FB0A4821F0A9FF58B1094B02939F
:1011000000230390CDE9003304490122184623F05F
:10111000DFFEEBE70120EAE7BE0E0400A8E60300CD
:10112000E4080020E30E040010B5014686B068B95B
:10113000184B19490090CDE901030122034623F021
:10114000C7FE6FF01504204606B010BD40780B288E
:101150000DD90B23CDE90303104B02930023CDE9F6
:1011600000330D490122184623F0B2FEE9E70C488E
:1011700021F012FF04460028E5D00A4B0293002319
:101180000390CDE9003304490122184623F0A0FE64
:10119000D9E700BFFD0E0400A8E60300220F0400FB
:1011A000E40800204D0F040030B585B0284C2046DF
:1011B0003CF0F6FB034670B922680392254A2649A3
:1011C0000090CDE90102012223F082FE6FF01205AA
:1011D000284605B030BD2368039300241F4B1E49E9
:1011E0000293032223462046CDE9004423F070FEFB
:1011F00003F0DAFF051E0BDA194B17490395CDE909
:101200000143009423460122204623F061FEDFE7DC
:10121000144803F0B3FF144803F0C0FF012003F0AB
:1012200001FF124B0C490094CDE9014303222346F0
:10123000204623F04DFE0E4B07490094CDE90143B3
:1012400003222346204623F043FE2546C0E700BF85
:1012500014E30300760F0400A8E603008C0F0400DB
:101260009E0F0400D0040020A50F0000B70F04005B
:10127000D80F0400014822F0A3B900BF7C920020DF
:101280001FB5064B02930023CDE900330449032226
:10129000184623F02CFE05B05DF804FB091004008D
:1012A000B0E6030038B50446074D4FF0FF324FF06B
:1012B000FF33284621F02CFF044B1C702846BDE864
:1012C000384021F09DBF00BF98920020F8690120AE
:1012D0002DE9F041734B7449744E96B000241B689D
:1012E00015934FF00003724B029320462346CDE93D
:1012F0000044032223F0FBFD3CF07AFF8359039363
:101300006C4B694900940546CDE9014320462346CC
:10131000032223F0ECFDA8593CF05CFC664B0390E3
:10132000CDE901436049009423460322204623F07F
:10133000DEFD624E624F4FF0FF324FF0FF3306A9E1
:10134000304621F083FE04460028F4D15D4B564917
:101350000090CDE901030322034623F0C8FD9DF868
:10136000263005939DF8193004939DF818300393A7
:10137000554B4D490094CDE90143032223462046B5
:1013800023F0B5FD0120FFF78DFFDFF81C819DF8EC
:101390001A309DF819209DF818000DF11B0103F07B
:1013A00073FE054638BB0220FFF77CFF474A3E49E3
:1013B000136801331360464B0095CDE901530322B6
:1013C0002B46284623F093FD202229460CA83CF00A
:1013D0009CFE0223BDF818208DF830300CA89DF833
:1013E0001A30ADF838208DF83A3001F001FB394859
:1013F00001F0B6FC9FE710F10B0F4FF0000346D150
:10140000CDE90137009302224146184623F06FFDD3
:1014100040F6CD40002101343CF07DFC032CB6D1D8
:101420000320FFF73FFF2C4A1F4913680133136065
:101430002A4A136823441360294B0394002402931F
:10144000012223462046CDE9004423F050FD2146E9
:1014500020220CA83CF059FE0323BDF818208DF87B
:1014600030300CA89DF81A30ADF838208DF83A309D
:1014700001F0BEFA1B4B0C490395CDE90143204610
:1014800000942346012223F032FD1748B0E7174AA3
:101490000390CDE90132044900930122184623F05C
:1014A00026FDBDE7F40D0320B0E6030008000000B0
:1014B00021100400431004006F100400B408002041
:1014C0001A11040090100400B81004009492002037
:1014D000E810040007110400909200208C92002074
:1014E0004B1104006E1104008E110400361104002B
:1014F0001FB50E483CF013FB0D490E483CF038FB7D
:101500000D490E4800223CF089FC0D4B0D4900248A
:101510001C700D4B0094CDE9014320462346032265
:1015200023F0E5FC204604B010BD00BF98920020D7
:10153000811200007C92002075120000E80C00204F
:10154000F8690120B0E60300A31104001FB50146AD
:1015500068B9194B19490090CDE9010301220346EE
:1015600023F0C5FC6FF01504204604B010BD43788D
:101570005A1E0A2A0BD90393114B02930023CDE97B
:1015800000330E490122184623F0B1FCEAE70D486A
:101590000022002321F000FD04460028E4D00A4B7D
:1015A000029300230390CDE9003304490122184639
:1015B00023F09DFCD8E700BFCE0E0400B0E6030088
:1015C000BC110400B4080020D711040010B5184B5A
:1015D00088B004461422002101A81B6807934FF02D
:1015E00000033CF092FD40F20113ADF800300123FE
:1015F0008DF803408DF802303CF00EFC4FF47A7207
:10160000A0FB020302FB0131C00B40EA4140C90BC1
:10161000CDE904016846FFF799FF054B1A68079B5F
:101620005A404FF0000301D03CF0B0FB08B010BDB1
:10163000F40D03202DE9F047864B8749874E92B081
:1016400000241B6811934FF00003854B0293204642
:101650002346CDE90044032223F058FC3CF0C8FDAA
:10166000835903937F4B7C4900940546CDE90143A0
:1016700020462346032223F049FCA8593CF0AAFA4D
:10168000794B75490390CDE9014303222346204657
:10169000009423F03BFC4FF480530393734B744E40
:1016A0006D490094CDE9014303222346204623F0EF
:1016B0002DFC0FCE07AD0FC596E803006D4BDFF88C
:1016C000B881654E85E803000322CDE901436249F4
:1016D00000942346204623F019FC25460024069456
:1016E000042106A80AF012FF3CF096FB4FF47A7929
:1016F000A0FB090309FB0131069AC30B43EA4143EE
:101700005A40069225F0BCFE069B58405B4B80B2C7
:10171000A8F80000ADF82800CDE901430395234661
:10172000314620460094032223F0F0FB2B4604931D
:10173000B8F800300393524B0094CDE90143314691
:1017400023462046032223F0E1FB4E4B0094CDE9D3
:101750000143032223463146204623F0D7FB0135BF
:101760003CF05AFBA0FB090309FB0131C00B464BBF
:10177000009440EA4140C90BCDE90401CDE90143A1
:10178000314623460322204623F0C0FB07A803F07E
:1017900061FB3E4B0390CDE901430746009423468D
:1017A00003223146204623F0B1FB3CF035FBA0FB81
:1017B000090309FB0131C00B354B009440EA41405D
:1017C000C90BCDE90401CDE901430322234631468B
:1017D000204623F09BFB17F1740F2BD105230393B5
:1017E0002C4B0094CDE9014302222346314620468A
:1017F00023F08CFB052300240393274B0293CDE9B0
:101800000044234603223146204623F07FFB00217B
:101810004FF420303CF07FFA204B0094CDE9014397
:10182000032223463146204623F070FB002F7FF42D
:1018300055AF5DE0002F35DA0523CDE90373184B72
:101840000094CDE90143012223463146204623F08E
:101850005DFBCFE7F40D0320B8E6030008000000AD
:101860001C120400361204005A1204007312040001
:1018700050E703008E120400F4690120AE12040048
:10188000C6120400FC1204001C13040040130400E0
:101890005C1304007F130400691404009114040015
:1018A000A9130400604B0094CDE9014303222346B1
:1018B0003146204623F02AFB5C4B0094CDE90143DE
:1018C000032223463146204623F020FB00F06AFC29
:1018D000034600287DD0564B0390CDE90143009488
:1018E000234601223146204623F010FB002F81D1F0
:1018F0000024504B50490293032223462046CDE951
:10190000004423F003FB4D4B4B490094CDE90143C8
:1019100003222346204623F0F9FADFF82481464DBE
:10192000484F0E2200210DA83CF0EFFB4FF0FF3294
:101930004FF0FF330DA8FFF7CDFB0028F1D00024B6
:101940002346CDE90044CDF80880032229462046ED
:1019500023F0DCFA9DF83560731E0A2B5DD89DF8E4
:101960003490394B0094CDE90396CDE9014303222D
:101970002346294620469DF836A023F0C7FA334B6C
:101980000393334B0096CDE9014303220DF1370356
:101990002946204623F0BAFA324653460DF1370164
:1019A000484603F071FB10F10B0F06461AD1294B84
:1019B0000094CDE90143022223462946204623F024
:1019C000A5FA254B02930023CDE9003303960122AB
:1019D0001EE0224A0090CDE901023146032223F0A5
:1019E00095FA83E700280BDA1D4B0390CDE90143FC
:1019F0000094234601222946204623F087FAE0E797
:101A0000184BCDF80C90CDE90143009423460322F6
:101A10002946184623F07AFA83E7CDE90276CDE924
:101A200000442346D3E700BFD5130400F21304009B
:101A30001E140400BD140400B8E60300EB140400F7
:101A400015150400BC1104003A15040036630400A7
:101A5000A45A04005D1504006E110400441404002F
:101A60007B150400931504001FB51A4C206818B1AB
:101A700029F0E4F900232360174B0121186826F0B0
:101A800016FA164B0121186826F011FA144B0121A1
:101A9000186826F00CFA134B0121186826F007FA93
:101AA000114B0121186826F002FA104B0121186829
:101AB00026F0FDF90FF0EEFE27F04CFD0C4B0293E3
:101AC0000023CDE900330B490322184623F02DFAF9
:101AD00004B010BDAC920020C4920020C09200203F
:101AE000BC920020B8920020B4920020B092002056
:101AF000C3150400C8E603002DE9F0478CB014F0CC
:101B000077FF9F4C20463BF04BFF034650B99D4A60
:101B10000090CDE901029C49012223F006FA0CB0A5
:101B2000BDE8F087236803930024984B96490293FD
:101B3000032223462046CDE9004423F0F6F90FF0B6
:101B4000A9FE054628B9924B0090CDE90103034652
:101B5000E1E734F058FDC0F307238DF81400C0F31B
:101B600007408DF815308DF816000599894EDFF87D
:101B700028822846224629F067F82246FF21284677
:101B800029F071F828461BF0FBFD8449306038F0DD
:101B9000F4FF83493068224629F098F8376834F01A
:101BA00040FDC0F307238DF81800C0F307408DF8FF
:101BB00019308DF81A0006993846224629F077F830
:101BC000142330682246022127F099FA28461CF097
:101BD00079FE7449C8F80000022239F059F9D8F8A2
:101BE00000002246012129F04CF8D8F8007034F0AA
:101BF00018FDC0F307238DF81C00C0F307408DF8D3
:101C00001D308DF81E004FF00A093846079922460C
:101C100029F03EF8CDF8009023463168D8F800004E
:101C2000614E0E220DF060FD28461BF0A9FD5F49B4
:101C3000306038F0A2FF5E493068224629F046F84D
:101C4000376834F0EEFCC0F307238DF82000C0F3B2
:101C500007408DF821308DF8220008993846224639
:101C60000F2729F024F800972346D8F80010306891
:101C7000DFF840810E220DF037FD28461BF080FD75
:101C80004D49C8F8000038F078FF4949D8F80000FD
:101C9000224629F01BF8D8F800A034F0C2FCC0F3AB
:101CA00007238DF82400C0F307408DF825308DF808
:101CB000260009992246504628F0F9FFCDF80090F9
:101CC00023463168D8F800003C4E0E220DF00CFD82
:101CD00028461CF0F7FD3A493060022239F0D8F866
:101CE00022460121306828F0CCFFD6F8009034F06D
:101CF00098FCC0F307238DF82800C0F307408DF847
:101D000029308DF82A000A992246484628F0C0FF5B
:101D100000972346D8F8001030680E220DF0E4FC3E
:101D200028461BF02DFD274D2749286038F025FF58
:101D300026492868224628F0C9FFD5F8008034F0EB
:101D400070FCC0F307238DF82C00C0F307408DF81A
:101D50002D308DF82E000B992246404628F0A7FF23
:101D600000973168286823460E220DF0BDFC184B01
:101D700005490094CDE90143032223462046CCE6E1
:101D800000E30300DB150400C8E60300F4150400BB
:101D90000D160400C4920020C09200202A160400F0
:101DA00060EF0300EC040020BC9200203B1604000E
:101DB00008EC0300B89200204F160400B4920020F3
:101DC000DC040020B092002063160400B0E8030099
:101DD0006E1604002DE9F04FA3B0924B924904AF68
:101DE0001B687B674FF000030025904B0293032292
:101DF0002B462846CDE9005523F097F800F026FE43
:101E0000044698B18A4B88490095CDE901530122D7
:101E10002B46284623F089F8824B1A687B6F5A407C
:101E20004FF0000300F0F7803BF0B0FF00F0BCFD86
:101E3000FEF780FEFFF75CFB00F052FEFEF732FE7D
:101E40007C4B186821F0E2FE002140F6CD403BF0CB
:101E500062FF794B1868DFF8D0A121F0D7FEFFF7B9
:101E60004BFE2022214607F110003CF04EF90623DC
:101E700007F110003B7400F0BBFD704B6A49009401
:101E8000CDE9014303222346204623F04EF86C4857
:101E90000022002307F1340121F0D8F8054600287C
:101EA00040F0A58007F13400C7F804D0FEF7D0FA5F
:101EB000012804460AD8634B0095CDE9015302225C
:101EC0002B465146284623F030F8E0E7C30700F1DF
:101ED00096804FEA540B0BF1080222F00702ADEB9B
:101EE000020D4FF000090DF1100807F134054E46C0
:101EF0002A783A726A787A720021102207F1080073
:101F0000BE7222F07BFC4FEA590209F102094C45EE
:101F100008F8020005F10205EAD84B4B08F80B60FF
:101F2000CDE9016300230322CDF80C805146184609
:101F3000009622F0FAFF0FF0ADFC444B444D0446EE
:101F40000121186826F0FDF9424B0121186826F09E
:101F5000F8F9414B0121186826F0F3F93F4B0121B4
:101F6000186826F0EEF93E4B0121186826F0E9F9D1
:101F70003C4B0121186826F0E4F920461BF000FCD8
:101F80004146286038F0F9FD37492868002228F0DA
:101F90009DFED5F8008034F044FBC0F3072338736E
:101FA000C0F307407B73B873F9680022404628F0FD
:101FB0007EFE00231A460921286827F0A0F8204653
:101FC00027F0C8FA294B0096CDE901630023184693
:101FD0000322514622F0A9FF002240F6B8312448DE
:101FE00015F024FB012135F040FFD7F804D015F09F
:101FF00053FB002140F6CD403BF08DFE47E71D4BE3
:102000000095CDE9015302222B465146284622F085
:102010008CFF013C5DE74FF0FF307C37BD46BDE8EB
:10202000F08F00BFF40D0320C8E6030095160400EE
:10203000B416040094E8030090E80300D1160400ED
:1020400084080020F51604003E170400C492002006
:10205000AC920020C0920020BC920020B8920020D8
:10206000B4920020B092002060EF030054170400E7
:10207000691A00001217040038B5074C4FF0FF3200
:1020800020464FF0FF3322F072FF044B1D782046AC
:1020900022F06FFF284638BDD4070020F9690120DF
:1020A000F0B5174F174D8DB006464FF0FF3238464A
:1020B0004FF0FF3322F05BFF0FCD07AC0FC42B684E
:1020C00023600CAB03EB86030F4C53F8143C0493D2
:1020D00023780E490CAA02EB8303032253F8143C25
:1020E00003930B4B029300231846CDE9003322F0F3
:1020F0002EFF384626700DB0BDE8F04022F039BF03
:10210000D407002068E70300F9690120D8E603003E
:102110007F1704001FB500241B4B1C4902930322A8
:1021200023462046CDE9004422F011FF18484FF025
:10213000FF324FF0FF3322F01AFF164B0393164B7A
:1021400002930823CDE90043104923462046042288
:1021500022F0FDFE114B2146186822F0F5FE50B129
:102160000F4B0390CDE90143084900942346012217
:10217000204622F0ECFE064822F0FBFE002004B0D0
:10218000BDE81040FFF78CBF93170400D8E60300AA
:10219000C0070020EF1B0400A5170400C892002010
:1021A000D41704007FB50025274B02932846CDE9BC
:1021B00000552649264E2B46032222F0C8FE25480C
:1021C00030603BF0EDFB034660B9234A1F490090A5
:1021D000CDE90102012222F0BAFE6FF0120420467E
:1021E00004B070BD336819491B6803931B4B0095FD
:1021F000CDE9015303222B46284622F0A8FE306881
:1022000083681B689847044658B1154B0390CDE985
:1022100001530E4900952B460122284622F097FED5
:10222000DDE73068012122F08FFE044610B10D4B2E
:102230000390ECE70C4B05490090CDE90103032224
:10224000034622F084FECAE7FB170400D8E6030029
:10225000C8920020ECE203001E18040033180400AA
:10226000481804006C18040044140400F0B57E4BB8
:1022700097B01B6815934FF00003FFF7FDFE04466F
:10228000A8B17A4B02930023CDE9003378490222AA
:10229000184622F05CFE6FF00F05734B1A68159B11
:1022A0005A404FF0000300F0DC803BF06FFD714BB3
:1022B0006F490090CDE901030322034622F047FE57
:1022C0000120FFF7EDFE6C4B69490094CDE9014315
:1022D00003222346204622F03AFE6848684D4FF01C
:1022E000FF324FF0FF3322F042FE664B0393664B02
:1022F00002930823CDE900435D492046234604228A
:1023000022F025FE2868012122F01EFE50B15F4B0D
:102310000390CDE90143564900942346012220460B
:1023200022F015FE55485A4F22F023FE02200024C9
:10233000FFF7B6FE574B4E49029303222346204631
:10234000CDE9004422F003FE0220FFF7A9FE082693
:10235000514B47490293042223462046CDE90046CB
:10236000039722F0F4FD45484FF0FF324FF0FF3362
:1023700022F0FDFD2868836832469B680CA99847C7
:1023800005463E4822F0F5FD444B39490094CDE91D
:102390000163CDE9037523460422204622F0D7FDD0
:1023A000002D4DD101238DF838300CAB03CBCDF887
:1023B0003900CDF83D103BF02FFD4FF47A72A0FBB1
:1023C000020302FB0131C00B40EA4140C90BCDE9D9
:1023D00012013348002200230EA920F0DDFD48B190
:1023E000304B23490095CDE9015302222B46284664
:1023F00022F0ADFD9DF837300A939DF836300993F1
:102400009DF8353008939DF8343007939DF83330AC
:1024100006939DF8323005939DF8313004939DF872
:1024200030300393204B029300231846CDE900334C
:102430000F49032222F08BFD0320FFF731FE2CE72A
:102440001A4B0B490395CDE901430322234620464D
:10245000009422F07CFD2046FFF722FE6FF03C0541
:102460001BE7284617B0F0BDF40D032091180400B7
:10247000D8E60300AF180400C1180400C00700200C
:10248000C8920020971B0400D1180400031904000F
:102490007F1B04002C190400471904006A1904006A
:1024A0001409002092190400BE190400F419040054
:1024B0001FB50024074B08490293204623460322F8
:1024C000CDE9004422F043FDFFF724FE204604B08E
:1024D00010BD00BF0D1A0400D8E60300F0B5674B2D
:1024E0006749684EA3B000241B6821934FF0000396
:1024F000654B029320462346CDE90044032222F097
:1025000026FD3BF075FE83590393604B5C490094B4
:102510000546CDE9014320462346032222F017FD5C
:10252000A8593BF057FB5A4B55490390CDE901435D
:10253000032223462046009422F009FD554B5049C2
:102540000094CDE9014303222346204622F0FFFCFC
:10255000514D524E524F4FF0FF334FF0FF320CA906
:10256000284620F073FD03460028F4D19DF8302062
:1025700043490297CDE903620822CDE90002042213
:1025800022F0E5FC9DF83030032BE4D8DFE803F0BF
:1025900002055A72FFF76AFEDDE79DF838300A93AC
:1025A0009DF8373009939DF8363008939DF8353003
:1025B00007939DF8343006939DF8333005939DF8CA
:1025C000323004939DF8313003930024354B2C496D
:1025D0000293032223462046CDE9004422F0B7FCB3
:1025E00001210320FEF778FBDDF83100DDF835101E
:1025F00007238DF860301AAB03C3DDE9102318A858
:10260000CDE91C2301238DF8783000F0F1F940F674
:102610006433ADF84830DDF83130CDF84B30DDF8BB
:102620003530CDF84F304E238DF8533012A844F298
:1026300046338DF84A40ADF85430FEF787FFFFF778
:1026400069FD88E70024184B029320462346CDE914
:1026500000440B49022222F07AFC08238DF86030F6
:10266000DDE9102318A8CDE91C238DF8784000F08F
:10267000BFF9E4E7FFF71CFF6DE700BFF40D03208F
:10268000D8E60300080000001F1A0400401A0400E6
:102690006B1A04008B1A040014090020FE1B0400AE
:1026A000D21A0400EF1A0400291B040030B50E4DA5
:1026B0000E4B85B000240293294623462046CDE9DF
:1026C0000044032222F043FC094B0094CDE901436E
:1026D000032223462946204622F039FC05B0BDE8F6
:1026E0003040FFF7C3BD00BFD8E603004C1B040019
:1026F000651B0400F0B5914B9149924E99B00024AE
:102700001B6817934FF000038F4B0293204623461C
:10271000CDE90044032222F02EFC3BF069FD8359F1
:1027200003938A4B864900940546CDE90143204630
:102730002346032222F01FFCA8593BF04BFA844B9E
:102740000390CDE901437E490094234603222046AD
:1027500022F011FC7F4F804E4FF0FF334FF0FF32DD
:102760000EA9384620F072FC03460028F4D17B4ABB
:1027700073490090CDE90102032222F0FCFB9DF891
:102780003830082B5ED8DFE803F0050533334547C2
:10279000536589009DF850007149724B9DF84020A7
:1027A000002818BF0B46CDE903236F4B029300238B
:1027B000CDE9003318466249032222F0DCFB9DF884
:1027C0005030002B3ED09DF840308DF83030032340
:1027D0008DF831300CA84FF47A730D93FEF7F2F9AF
:1027E0009DF84000FEF7F2FE604800F0B9FA29E0DB
:1027F0009DF8413004939DF8403003935C4B029365
:1028000000231846CDE900334D49032222F0B3FBE3
:102810005848EAE75848E8E7584B0293002318461F
:10282000CDE900334649012222F0A5FB5448DCE7FC
:10283000544B02930023CDE900334149032218464B
:1028400022F099FB3578052D86D8DFE805F0333A7C
:102850006069336F9DF847300A939DF846300993BD
:102860009DF8453008939DF8443007939DF8433018
:1028700006939DF8423005939DF8413004939DF8EE
:1028800040300393404B029300231846CDE90033B8
:102890002B49032222F06FFB3C48A6E73C4B0293F6
:1028A00000231846CDE900332549022222F063FBBC
:1028B00038489AE79DF83830062B7FF44DAF012455
:1028C00005E09DF83830002B7FF446AF02244FF02E
:1028D000FF324FF0FF33304820F01AFC34702E489E
:1028E00020F08EFC2D4B164953F8242053F8253048
:1028F00003932B4B029300230492CDE90033032270
:10290000184622F038FB274820F0CAFC24E79DF83F
:102910003830042B10D0052B7FF41EAF0424D6E7EB
:102920009DF83830022BCAD0032BF5E79DF83830DC
:10293000002B7FF411AFC2E70324C8E7F40D032096
:1029400018E70300080000001B1C04003E1C0400E4
:102950006B1C040044090020FA6901208D1C04004E
:10296000840A04008C0A0400B41C0400C11C040086
:10297000D91C040007110400F51C04000C1D040000
:10298000221D0400301D04003D1D04007D1D0400B7
:10299000291B04008F1D0400E492002098E8030026
:1029A000A11D0400CC9200201FB50C483BF0B7F8E5
:1029B000012200210A483BF0B9F80A4B0A490024D9
:1029C0001C700A4B0094CDE90143204623460322A4
:1029D00022F0D1FA204604B010BD00BFE4920020DE
:1029E000CC920020FA69012018E70300BC1D040006
:1029F0001FB5014668B9114B11490090CDE901039B
:102A00000122034622F0B7FA6FF01504204604B005
:102A100010BD0C480022002320F0BEFA0446002816
:102A2000F4D0094B029300230390CDE9003304490D
:102A30000122184622F09FFAE8E700BFD61D0400E5
:102A400018E7030044090020E91D040030B585B0F3
:102A500000251A4B1A49029303222B462846CDE93A
:102A6000005522F097FAFDF73DFF044668B1154B7B
:102A70000390CDE90153124900952B4601222846C7
:102A800022F088FA204605B030BDFEF7E9F9044689
:102A900010B10D4B0390ECE7FEF786FB044610B136
:102AA0000A4B0390E5E70A4B05490090CDE9010385
:102AB0000322034622F06EFAE4E700BF351E04004D
:102AC00058E60300481E0400601E0400751E040042
:102AD0008D1E0400014820F093BB00BFF892002037
:102AE00030B585B012483BF01AF83BF095F94FF439
:102AF0007A72A0FB020302FB01310E4DC00B0024D1
:102B000040EA4140C90BC5E90001202221460A489C
:102B10003BF0FBFA094B0A490094CDE901432046FA
:102B20002346032222F045FA204605B030BD00BFFF
:102B3000F8920020200F0020280F0020AC1E040077
:102B400030E7030038B5044688B10A4D0A484FF013
:102B5000FF324FF0FF3320F0DBFA0FCD0FC495E8C2
:102B60000F0084E80F00FFF7B5FF002038BD6FF0BD
:102B70001500FBE7280F0020F8920020F0B58FB079
:102B80000024654B029320462346CDE90044634967
:102B9000634E032222F00DFA3BF02AFB8359039384
:102BA000604B5E4900940546CDE90143204623462B
:102BB000032222F0FEF9A8593BF00CF85A4B03907F
:102BC000CDE901435549009423460322204622F0D3
:102BD000F0F9564F564D4FF0FF334FF0FF32384665
:102BE00020F096FA6B690A2B00F29480052B94BFB3
:102BF000002301234F4E33703BF00EF94FF47A72ED
:102C0000A0FB020302FB0131C30B4B48D0E90020BB
:102C100043EA41439B1A4FEAD13161EB0001C5E918
:102C20000631FFF757FF06A8FFF78CFF0446002880
:102C30006AD1424B39490090CDE901030322034692
:102C400022F0B7F9069B03933D4B34490094CDE93C
:102C5000014303222346204622F0ABF9079B03934E
:102C6000384B2E490094CDE90143032223462046E8
:102C700022F09FF9089B0393334B28490094CDE938
:102C8000014303222346204622F093F9099B039334
:102C90002E4B22490094CDE90143032223462046CE
:102CA00022F087F90A9B0393294B1C490094CDE934
:102CB000014303222346204622F07BF90B9B03931A
:102CC000244B16490094CDE90143032223462046B4
:102CD00022F06FF9DDE90C23CDE904231E4B0F49E7
:102CE0000094CDE9014303222346204622F061F9F6
:102CF00033780393194B09490094CDE9014303222A
:102D00002346204622F055F900214FF448103BF0AD
:102D100002F860E702236DE7C71E040030E70300F6
:102D200008000000EB1E0400191F0400F8920020A8
:102D3000280F0020FB690120200F00203C1F040009
:102D40004C1F0400601F0400701F0400821F040059
:102D5000951F0400A81F0400BC1F0400CE1F040020
:102D60001FB50446002852D02B484FF0FF324FF0D9
:102D7000FF3320F0CDF929492046FDF75FFB38B934
:102D8000274A136801331360FFF7A4FE002040E0D8
:102D900024492046FDF752FB20B9214A53680133EC
:102DA0005360F1E720492046FDF748FB20B91C4A53
:102DB000936801339360E7E71C492046FDF73EFB2B
:102DC00020B9174AD3680133D360DDE7184920469C
:102DD000FDF734FB20B9124A136901331361D3E7BD
:102DE00014492046FDF72AFB20B90D4A53690133E7
:102DF0005361C9E7104B02930023CDE900330F491B
:102E000003940222184622F0D4F8FFF763FE6FF015
:102E1000150004B010BD00BFF8920020C11C0400D2
:102E2000280F0020071104008E110400DB1F04008E
:102E3000F51C0400221D0400E81F040030E7030015
:102E40002DE9F04F93B084070093944B03921B68D5
:102E500011934FF00003039BDDF8708003F004032F
:102E60000293039BC3F3C20303F1010305460E461D
:102E7000059340F0C481041D68B1072910D86FF094
:102E80001B00864B1A68119B5A404FF0000300F05C
:102E9000B9813AF07BFF01F007063444C6F1080619
:102EA000009B4FF00009591E4FF0040A4FF0FF330A
:102EB0000193CDF810904F46CB4653460DB1009A82
:102EC00022600598002800F3EF807548009A82423E
:102ED00003D374488242C0F0E780039AA4EB050E46
:102EE00092074FEA9E0000F10A810F2F00F2B18095
:102EF000002D00F00C8107F148020DEB020C019A45
:102F00000CF8240C0CF8142C049801300490EEE01A
:102F10007A285DD84B280ED8472859D829282DD88B
:102F2000252852D054D820287AD02338D0F1000B4D
:102F30004BEB000B74E04C382E2849D8DFE800F04A
:102F40007048484848484848484848484B484848D6
:102F5000484848484859484B4B595959704B6D4857
:102F60007048184B184848827F4B48484B487F00B0
:102F700000204FF0000B4FF0040A38E02A38C0B2AE
:102F8000012202FA00F010EA0E0F49D110F0625C43
:102F90002FD110EA020B43D06046013C5444B4FBED
:102FA000FAF40AFB04F4002D61D0A3EB050CA44451
:102FB000B4453FF664AF002868D1042B47D158F8D8
:102FC000043B2360043404232AE0019A013A01926D
:102FD0004FF0000B24E011F8010C6C2834D111F8EB
:102FE000023C00206C2B8346C5D14FF0080A5346A3
:102FF000D3E708F1070828F007080734F8E802AB20
:1030000024F0070435B106982044B0423FF637AFAC
:10301000C4E900AB08344FF0000B4FF0080A5346E8
:1030200011F8010F00287FD0BBF1000F7FF470AFC3
:103030002528F5D1019B013301934FF0010B4FF08F
:10304000040AECE7584694E700208346A5E7082BDE
:1030500002D06FF0150014E708F1070828F0070800
:10306000F8E80223C4E9002308340823D8E768B944
:10307000042B02D108F10408A4E7082BE9D108F1D8
:10308000070828F0070808F10808EDE7059A013A53
:10309000059258F8042B009210E700BFF40D0320AE
:1030A00004E2030018A60400039A900720D5A4EBBD
:1030B000050E4FEA9E004FF0010CBEF5007FC8D20E
:1030C0000F2FC6D8F5B107F148020DEB020EC0B2C2
:1030D000019A0EF8240C0EF8142CBCF1000F3FF4EA
:1030E00013AF60F07F000EF8240C09F101090137DD
:1030F000C5F10802043406924FF6DA7E90E74FF0ED
:10310000000CDAE7BCF1000F01D00136EFE70298BE
:1031100002360028EBD10098CDE90631FDF798F989
:10312000DDE906310644E2E7631BB3F5806F90D218
:103130001DB9A6F10804E018A3E6029A28609B08CE
:103140002B709DF81030C2B1EB7085F80290B9F188
:10315000000F05D009A80022C5F1010C97420ED13D
:10316000C5F101030DF124084FF0000A01930DF1A0
:10317000340B574512D1601B83E66B70E5E710F8FE
:10318000013B190608D50CEB040EB64503F07F038E
:103190003FF675AE04F8013B0132DFE7B9F1000FED
:1031A00003D098F90020002A17DB029BD3B11AF84C
:1031B0000B2004F8012B0022019B18191044B04287
:1031C0003FF65DAE98F8000004F8010B00990392F9
:1031D00020463AF072FF039A14440AF1010A08F1FA
:1031E0000108C6E798F8002055F822300093029BAA
:1031F00045F822300098FDF72BF9421CDCE76FF010
:103200000D003EE613B0BDE8F08F00BF80B5054667
:103210000E461746984620F01FFD03463AF0E8FF99
:10322000DFF81890044649F80030424630463946E7
:10323000A84754F8090001F0B5F900BF08000000E4
:1032400008B50446EFF31183202383F31288BFF3FC
:103250006F8F0AF021FB204601F0B0FC024822F0FB
:1032600037FA22F014FCFCE79A5404002DE9F047E9
:10327000058B04462807904611D4022905F007055E
:1032800040F0CC80204622F030FA78B10138218B12
:10329000042811D8DFE800F0C2106D8595000129DF
:1032A0000CBF45F0100545F02005258388F31188F3
:1032B000BFF36F8FBDE8F08701F0070AAA4500F061
:1032C000A5800027B9463E46A368002B00F0BC80CD
:1032D00041F00801218388F31188BFF36F8FA16843
:1032E000002900F0BA800D68002900F0B680D1F8FE
:1032F0000480334652462046C047002D76D02B68C6
:1033000029461D46F0E701F007035A1F012A1BD882
:10331000002221F00701062B276889B2C4E90022A8
:1033200009D13B4603E0628B013262831B68002BAC
:10333000F9D141F002012183204622F0D6F900287C
:103340007AD041F0200176E0042B0AD121F0070168
:1033500089B22183204622F0C8F910B141F0200142
:103360002183218B01F0070AAA454FD00027B946D7
:10337000AAE7236921F0070141F00601062DD3F8E1
:10338000009021832DD1B9F1000F3FD041F0080109
:10339000218388F31188BFF36F8F3A492046C847CD
:1033A00029E021F00701236941F0040189B2042DCD
:1033B000D3F804902183E6D000273E464FF0040A5C
:1033C00082E721F00701236941F0050189B2052D4B
:1033D000D3F808902183D6D000273E464FF0050A47
:1033E00072E700273E464FF0060A6DE72B4687E757
:1033F000B9F1000FD1D1EFF31188202383F31288A4
:10340000BFF36F8F238B23F008032383258BEA06FA
:103410002ED525F01003238305F007056669218B5F
:10342000002EBFF670AF00232768C4E9003321F0F7
:10343000070141F001012183218B01F0070AAA4510
:103440004FF000097FF440AF002F9CD041F00801FD
:10345000218388F31188BFF36F8F002FC8D03D6898
:10346000394633465246204622F06BF92F46F4E7A0
:10347000AB067FF51BAF25F02003238305F007057E
:1034800000E700BF6F5702002DE9F84F81462F4833
:103490000F4622F015FA064670B92D4CDFF8B4A09D
:1034A0000546A0464FF0010B544507D3B9F1000F74
:1034B00002D04FF0010AE5B9BDE8F88F237B6BB16C
:1034C0002368DB680BB12046984723681B6943B922
:1034D000636804221968204600F0C8F801361034E9
:1034E000E2E7204698470028F2D00BFA06F31D4386
:1034F000F4E7A94695FAA5F4B4FA84F40AFA04F3B9
:10350000260108EB04146FEA030B25EA0305237B6D
:1035100063B158F806301B6993B9464404227368B6
:103520002046196809EA0B0900F0A0F8002DE1D146
:1035300027B14FF4A47000213AF0EDFB4D46BAE7F5
:10354000204698470028F1D1E7E700BF14930020F8
:1035500038E7030048E70300014B53F820007047A9
:10356000B8F2030008B5034608462BB1044A1360BD
:1035700000F092FA002008BD6FF01500FBE700BFD5
:10358000FC040020054A064800231370054A136016
:10359000054A4FF400411360FFF7E4BFFC690120C6
:1035A000BD5802000C9300201093002070B50B4D05
:1035B000297841B90120FFF767FF094C094EB44251
:1035C00002D301232B7070BD63685B791BB1236844
:1035D00020469B6898471034F1E700BFFC69012042
:1035E00038E7030048E7030010B50446084822F016
:1035F00067F95CB1BFF35B8F064B53E8001F0139DD
:1036000043E80012002AF8D1BFF35B8F10BD00BF62
:103610000C9300201093002070B50A4B0A4C1B68D5
:103620000A4E05469847A860B44200D370BD63684F
:103630005B7923B1236829461B68204698471034DC
:10364000F2E700BFFC04002038E7030048E703006E
:10365000044A054B9B1AB1EBD30F34BF52F831002B
:103660000020704758E6030038E70300084BC31AF0
:1036700010B41B1144680133237143689A71436885
:103680001960436801225A7110BC22F03BB900BF97
:1036900038E703002DE9F04F87B004AFD7E90EA952
:1036A00093462C4A3D6B04460E46984612687A6053
:1036B0004FF00002BAF1000F23D0C7F80090CDF808
:1036C000009010217A6B53460020FFF7B9FBB0F54C
:1036D000006F014616D340F2FF7303931E4B029313
:1036E0000023CDE900331D490222184622F026F9B5
:1036F000184B1A687B685A404FF0000326D03AF006
:1037000045FB514604F007040BF0070BE40044EAC4
:103710008B1444EA412444EA055417350D4425F03E
:103720000705ADEB050D04ADBAF1000F07D0CDF8DC
:1037300000907A6B534605F11000FFF781FB43467A
:1037400022463146284622F0E0F8D1E70C37BD4644
:10375000BDE8F08FF40D0320D054040098E6030078
:10376000406820B1034BC01A40F3CF0070474FF0C0
:10377000FF30704758E603000EB403B503AB0146B3
:1037800053F8042B0448019301F0BEF902B05DF830
:1037900004EB03B0704700BF79590200CA0605D494
:1037A0008B064CBF02490349FFF7E6BF704700BFD5
:1037B00009550400085504002DE9F04F87B0044670
:1037C0009DF844600D4690469946002E00F0A28078
:1037D000159B03F0020A03F001030493159B03F009
:1037E000080B03F48073059322F08DF8024600283D
:1037F0003DD095492046FFF7BFFF0746BAF1000FBD
:1038000009D0159B13F0440F33D190492A46204626
:10381000FFF7B2FF0744049B53B18D4B8D4953F81A
:1038200026208D4B2046002A08BF1A46FFF7A4FF2A
:10383000059B002B49D0BBF1000F64D1B8F1000FFC
:1038400066D0864942462046FFF796FF0546129B02
:103850003D44002B6DD1149B002B73D1159BDB07CE
:1038600000F1EB8015992046FFF798FFD8E0074656
:10387000C4E77B4B18680028CCD07A4B4FF47A7A97
:103880001B68B5FBF3F54FF46163B5FBF0F100FB8A
:1038900011550AFB05F54FF03C0CB1FBF3F203FBAD
:1038A0001211B5FBF0FEB1FBFCF300FB1E550CFB47
:1038B00013110AFB05F50091B5FBF0F56A49CDE956
:1038C00001E52046FFF758FFA4E7BBF1000F1DD02C
:1038D000664B674953F826202046FFF74DFF054603
:1038E000B8F1000F05D05D4942462046FFF744FF7E
:1038F0000544B9F1000FAAD05E494A462046FFF7B9
:103900003BFF0544A3E74FF00009E1E75D46E7E729
:1039100045469CE7B9F1010F129B06D1002B66D1F9
:10392000149B002B7CD000250CE0002BF8D05248D3
:103930005EE05248129B5249224621F098FE149BA9
:10394000002B6AD0DFF83C81DFF83C91149F159979
:10395000102F204628BF1027FFF720FF4FF0000B45
:103960005D4547DC139B49461A782046FFF704FF64
:103970004FF0010B1BF0070F03D141462046FFF724
:10398000FBFE5F453DD9139B494613F80B202046AB
:10399000FFF7F2FE0BF1010BBBF1100FEAD13B492F
:1039A000DFF8ECB020464FF0000AFFF7E5FE524684
:1039B000139B9A5CA2F120015F2928BF2E22594651
:1039C0002046FFF7D9FE0AF1010ABAF1100F1DD007
:1039D0001AF0070F03D141462046FFF7CDFE5745A9
:1039E0005246E5D841462046FFF7C6FEEBE723489E
:1039F00035469FE741462046FFF7BEFE0BF1010B1F
:103A0000AEE724492046FFF7B7FEC3E7139B3B44CC
:103A10001393149BDB1B149398D1002E7FF41EAFDD
:103A20006268A1682068D2E9002321F097FF6368EB
:103A300000221A6007B0BDE8F08F074A054920460A
:103A4000FFF79AFE0EE700BF10550400145504005E
:103A5000C8F20300A45A04000B55040039550400B1
:103A60001C930020189300201D550400DCF2030075
:103A70003D55040043550400955902007959020050
:103A8000094B0000505504004855040052550400ED
:103A9000545504004E550400074A0021012390426A
:103AA00006D8064A01B901231360054B1860704718
:103AB00040085B000121F2E740420F00189300200C
:103AC0001C930020014B01221A707047FD690120F0
:103AD000014B0020196070473493002010B5064B4D
:103AE00018680C46FFF738FD21460346BDE8104034
:103AF00002480F22184700BF349300200CF3030044
:103B0000F8B5094D094B0A4ED5E9004701221A7054
:103B10000CB92C60F8BD214630463A4600F00AF850
:103B2000241A0644F4E700BF28930020FE69012010
:103B3000FF690120F8B5194D07460E4604243246A8
:103B4000394600201DF066FFC8B101232B70144BCD
:103B50001B782BB93046F8BD5CB92C704FF0FF34A0
:103B600000201DF09BFF0028F4D02B78002BF3D110
:103B7000F0E7013C41F2883039F00DFFF0E72B7897
:103B800013B1013C04D12C702B78002BD7D1E1E785
:103B900041F2883039F0FFFEF6E700BFFD690120F1
:103BA000FE690120014B0360002070471CF30300F5
:103BB00008B5044821F08CFDBDE80840024821F01A
:103BC00087BD00BF87550400BC550400014820F0A4
:103BD00045BC00BF1CF3030038B5044618B90F4BB1
:103BE0000F485B6898476168B1F5683F10D0B1F540
:103BF000680F0DD00B4DA9420AD011F468612068FE
:103C000007D00146084839F033FF00232360656080
:103C100038BD14223AF079FAF9E700BF9006002087
:103C2000EA5504002C5F5CA93898002008B520B341
:103C30004368B3F5683F10D101220368BFF35B8F7F
:103C400053E8001F002903D143E800200028F7D1E2
:103C5000BFF35B8F0DD1002008BD094A93420AD003
:103C600000684FF0FF324FF0FF331FF051FA002889
:103C7000F1D00448F0E70448EEE76FF4E040EBE7EA
:103C80002C5F5CA9E98FFFFFEA8FFFFF08B5D8B171
:103C90004368B3F5683F10D100220368BFF35B8F20
:103CA00053E8001F012903D143E800200028F7D181
:103CB000BFF35B8F0BD1002008BD074A934208D0A9
:103CC00000681FF09DFAF6E76FF4E040F4E7034860
:103CD000F2E70348F0E700BF2C5F5CA9E98FFFFF24
:103CE000EA8FFFFF10B5044618B91D4B1D485B68ED
:103CF00098476368B3F5683F2FD0B3F5680F2CD0B1
:103D0000194A934219D1236803BB18484FF0FF3278
:103D10004FF0FF3321461FF011F908B923681BB992
:103D20000F4B13485B6898472068142200213AF033
:103D3000ECF94FF46863636008E0B3F5683F0DD8B1
:103D40003A2B03D040F6BA629342DED1206839F0B4
:103D5000E6FE636843F03A03636010BD054AF3E78B
:103D600090060020EA5504002C5F5CA938980020DA
:103D7000105604003A00003A08B5064906484023A8
:103D8000142239F067FEBDE808400449044820F0D9
:103D9000D7BB00BF389300203898002024F30300DD
:103DA00038F3030070B5064686B00D46002938D0BA
:103DB0008B6805934B6804930B6803930024244B92
:103DC00024490293012223462046CDE9004421F0F4
:103DD00028FE6B6905932B690493EB6803931E4BD4
:103DE0001C490094CDE9014301222346204621F0DD
:103DF00018FEEB690393194B16490094CDE9014372
:103E000001222346204621F00CFEAB690393144B9C
:103E100010490094CDE9014301222346204621F0B8
:103E200000FE012E0DD1EFF30583103B03930D4BE4
:103E300002930023CDE9003306493246184621F0AB
:103E4000F0FD2946304606B0BDE870401EF08CBE3D
:103E50003D560400E0E603006C5604009B56040047
:103E6000AA560400D856040030BFFFF7FDBF00BFBC
:103E70002DE9F0410B4EDFF8308006EB0807CC1B34
:103E800005463246094920463AF017F9A01942463C
:103E90000021083C3AF039F96C6707F10800BDE8E9
:103EA000F08100BF000000000800000048E70300A8
:103EB000074A936893F90E10002907DB5269934271
:103EC0001FBF044A536843F080535360704700BFDC
:103ED000E467012000ED00E0F0B585B00024434B1D
:103EE0000293CDE90044234607460E46012240498D
:103EF000204621F0B1FD3F4B9B6ADB0465D53E4B6C
:103F00003B490094CDE9014320462346012221F09C
:103F1000A3FD1720374B9B6A1D050AD5374B02932B
:103F200000231846CDE900333149012221F094FDE8
:103F30001820304DAB6A9C051FD50024304B0293EE
:103F4000012223462046CDE90044294921F084FD81
:103F5000AB6BAA6A10040FD503932A4B2449009433
:103F6000CDE9014301222346204621F075FD1FB112
:103F7000AB6A23F40043AB6219201E4B9B6A5905C0
:103F80000AD5214B029300231846CDE90033184986
:103F9000012221F061FD1A20164A936A13F48073FE
:103FA00015D01A4B029300231846CDE9003310496F
:103FB000012221F051FD1B200E4A936A43F47F43F6
:103FC00093620023337005B0F0BD1620A2E7926A19
:103FD0009204F1D50E4A06490093CDE90132184604
:103FE000012221F039FD1C20E6E700BFEB5604005A
:103FF000E0E6030000ED00E0015704001257040062
:10400000255704003E570400535704006E57040020
:10401000865704001FB50024374B02930122234624
:10402000CDE900443549204621F016FD344B9B6A0A
:104030009A015ED5334B31490094CDE901432046C6
:104040002346012221F008FD1E202D4B9B6ADB0137
:104050000AD52D4B029300231846CDE9003327499A
:10406000012221F0F9FC1F20254B9B6A1C030AD575
:10407000264B029300231846CDE900331F49012245
:1040800021F0EAFC21201E4B9B6A59030AD5204BE4
:10409000029300231846CDE900331849012221F08C
:1040A000DBFC2220164B9B6A9A030AD5194B02931C
:1040B00000231846CDE900331049012221F0CCFC41
:1040C00023200F4B9B6ADB030AD5134B029300237B
:1040D0001846CDE900330949012221F0BDFC242016
:1040E000074A936A6FEA03436FEA1343936204B08B
:1040F00010BD1D20A9E700BFB5570400E0E603008E
:1041000000ED00E0CD570400E0570400FA5704002A
:10411000185804003D580400575804002DE9F04396
:1041200085B000244D4B0293CDE9004423468046E0
:10413000894616464A490122204621F08DFC494B0A
:104140009B6ADF0640D5484B0094CDE901432046E9
:1041500023464349012221F07FFC1124414B9B6AF5
:104160001D070AD5414B02930023CDE900333C499A
:104170000122184621F070FC12243A4DAB6A9807D0
:1041800024D500243A4B36490293CDE90044234616
:104190000122204621F060FC6F6BAB6A190659D5ED
:1041A000344B2F490397CDE9014300942346012264
:1041B000204621F051FCB9F1000F03D0AB6A23F087
:1041C0008003AB62132403E01024C7E76FF01507E8
:1041D000244B9B6ADA070AD5274B02930023CDE9CB
:1041E00000331F490122184621F036FC14241D4BD0
:1041F0009B6A9B060AD5214B02930023CDE900332D
:1042000017490122184621F027FC1524154B9A6AFC
:10421000D50602D49A6A90070AD55B68190507D5B6
:104220004146384600F098FA10B180F3098802241C
:104230000C4B9A6A920642BF5A6A22F400525A62A2
:104240009A6A42F0FF029A6220460023337005B05A
:10425000BDE8F0836FF01507B4E700BF8258040093
:10426000E0E6030000ED00E0985804001257040057
:10427000CB580400E3580400F958040086570400A2
:104280002DE9F041754B5F6890B00446C7F308060E
:10429000002383F31188BFF36F8F02F07F40B0F1EA
:1042A0007F4F0CD102F00C00082819D16C4A6D49DF
:1042B0000093CDE901321846012221F0CDFB002503
:1042C0002C464FF00008F31E8DF81F80092B00F2DA
:1042D000AC80DFE803F00BA0A49CAAAAAAAAAAA813
:1042E000120746BF0C461D460125EAE75E4B5D49B5
:1042F0005A4FCDF80080CDE90183002301221846F2
:1043000021F0AAFB8DF81F80FE6A16F0020605D088
:10431000564BCDF80080CDE9018306E0FB6A002B07
:104320000BDA534B0096CDE9016300234D4901227E
:10433000184621F091FB00223BE0FB6A5B00FAD5B6
:104340004C4B48490096CDE9016301223346304683
:1043500021F082FB7B69A26943F480737B61BFF328
:104360004F8FBFF36F8F7B6932F8022C23F4807379
:104370007B61BFF34F8FBFF36F8F4DF602739A428D
:104380000AD0BB6ADBB2002B33D00DF11F02012132
:104390002046FFF7C3FE3CE023680393364B3149C8
:1043A0000096CDE9016301223346304621F054FBEB
:1043B00022689DF81F30CBB908AE04F120072068B1
:1043C0006168334603C30834BC421E46F7D10F9BD5
:1043D000002D3ED0C3F3080121B96FEA53236FEAE1
:1043E00043230F9308A91046FFF7DCFC10B0BDE88B
:1043F000F081BB6A13F47F4F05D00DF11F0101203E
:10440000FFF76AFD05E0BB6AB3F5803F93D3FFF782
:1044100001FE0246CDE70DF11F020021B8E70DF1C4
:104420001F010020ECE7154B73E7154A154B0D49AA
:1044300017F4F87F18BF1346103ECDE90336124B30
:1044400002930023CDE900330122184621F004FB3A
:1044500071E723F4FF7323F00103C2E700ED00E0EE
:1044600046590400E0E6030071590400885904002D
:10447000A9590400B7590400D6590400F2590400A0
:104480002D59040018590400165A0400044B5A69A7
:1044900042F010025A615A6922F008025A617047CC
:1044A00000ED00E0EFF30880EFF3098101B57246FB
:1044B000FFF7E6FE01BD00BF002080F31488BFF3C4
:1044C0006F8F134880F3088809F018FA002011490B
:1044D0000860BFF34F8F00F033F8202080F311887D
:1044E0000D484FF0AA014FF4046239F094FA0A48DB
:1044F0004FF40461401880F30988EFF3148002211F
:10450000084380F31488BFF36F8F00F0EDF80000CC
:10451000C066022094ED00E000DD01200749D1F8DB
:1045200090200023C2F307221846934200DB704715
:10453000C1F89830C1F8A0000133F6E700ED00E0C3
:1045400008B572B6002383F31388FFF7E7FF144B17
:104550004FF0FF32C3F88020C3F88420C3F88820CE
:10456000C3F88C20C3F89020C3F89420C3F8982097
:10457000C3F89C20C3F88021C3F88421C3F88821A4
:10458000C3F88C21C3F89021C3F89421C3F8982173
:10459000C3F89C2162B6BFF34F8FBFF36F8F08BD86
:1045A00000E100E0084B9B6883420BD1EFF30583E9
:1045B00043B1064B5A6842F080525A605A6A22F45C
:1045C00000425A621FF04EBBE467012000ED00E09C
:1045D00015498A684FF030001044EFF3098C80E8E9
:1045E000F01F202080F31288BFF36F8F0F4F4FF022
:1045F00000664A698A603E604FF0740414192068AE
:104600000B4C2060906F0023936780F3118804B5F2
:10461000104600F005F9BDE8044002F1300090E8D2
:10462000F01F8CF309887047E467012004ED00E077
:10463000549800201EF0040F0CBFEFF30880EFF336
:104640000980816911F8021C0229FFD001B5724668
:1046500021F0F7F901BD00BF40B2002807DB044A92
:104660004109012300F01F00834042F821307047C8
:1046700000E100E040B200280CDB4309064900F0ED
:104680001F0020330122824041F82320BFF34F8FC7
:10469000BFF36F8F704700BF00E100E0054B420998
:1046A00000F01F0053F82220012303FA00F010400D
:1046B000704700BF00E100E040B20028A8BF00F151
:1046C000604001F10101B8BF064B4FEA4111ACBF98
:1046D00000F5614000F00F00C9B2B4BF195480F872
:1046E0000013704714ED00E00B4A08B50B4B22F0A5
:1046F0007F029A60BFF34F8FBFF36F8FD3F888208C
:1047000022F47002C3F888201EF00CFB1FF0CCFBD3
:1047100000F05CF81EF082FB0000000000ED00E0FD
:1047200042F8203C009B42F81C3C0A49019B42F89D
:10473000183C029B42F8143C21F001014FF08073B9
:1047400042F8043C42F8081C0023203A02658367C3
:10475000704700BF0D320000094A0346906870B1EF
:1047600013F1160F406E05D0A0F140029A4205D811
:10477000834203D2814228BF002070470020704747
:10478000E467012008B51546094A0A4B9060426F5C
:104790001A600E4600F044F82C4686F30988002083
:1047A000054B98472046002100220023034C204758
:1047B000E467012054980020815A02000D32000065
:1047C000014B10221A61704700ED00E004480023FD
:1047D0002021C2180133302B82F80013F9D1704721
:1047E00000E100E008B5EFF30583064A103B02EB59
:1047F000C30152F8330049688847BDE80840FFF715
:1048000057BB00BF28E30300024B034A03480121C2
:1048100000F096B8000004200000002048F30300D8
:10482000426E054B403A1A60044A4021C3E9011226
:104830001846012100F08EB85898002000000B1592
:104840001FB5144AD2F89030C3F30723013B9842B6
:104850000FD9114B029300230390CDE90033184682
:104860000E49012221F03FF96FF0150005B05DF807
:1048700004FBC2F898000B6823F01F03034343F0C6
:104880001003C2F89C308B6843F00103C2F8A030DB
:10489000ECE700BF00ED00E02D5A0400D0E6030075
:1048A000F0B50E4689B01F4604460025B54212DA1F
:1048B000606838B3BFB1431E18420FD0134B029348
:1048C0000023CDE90033124903950122184621F057
:1048D0000AF96FF01502104609B0F0BD1F28EDD996
:1048E00021680B42EAD12368059321F0ECF8A36814
:1048F00005A90343D0B20793FFF7A2FF10F1160FEB
:10490000E7D0421C01350C34D0E700BF535A0400F5
:10491000D0E60300044B0522C3F89420BFF34F8F69
:10492000BFF36F8F704700BF00ED00E0BFF35F8FF4
:10493000024B0022C3F89420704700BF00ED00E056
:1049400010B5034C01232278FFF7AAFF207010BD99
:10495000006A012008B50B4A00231278FFF7A0FF78
:1049600010F1160F07D0084A0021D2F89030C3F397
:104970000723984200DB08BDC2F89800C2F8A010D7
:104980000130F2E7006A012000ED00E02DE9F0437C
:1049900057485849D0F890300D68C3F307239D421B
:1049A00085B000F2A180FFF7C1FF4968002295425F
:1049B00001F10C011AD1504C504F25706846FFF799
:1049C000F1F8DFF83C81DFF83C9106460025AE4265
:1049D0001FD1237846490020D1F89020C2F3072246
:1049E00093427BDBFFF796FF00204CE0C0F8982055
:1049F00051F80C3C23F01F03134343F01003C0F89D
:104A00009C3051F8043C43F00103C0F8A03001325F
:104A1000CDE7009800EB05114FEA051CCB683B4041
:104A2000B3F5000F44D00AD8B3F5001F2ED0B3F56C
:104A3000800F34D0B3F5801F10D00135C7E7B3F134
:104A4000807F3ED0B3F1007FF7D150F80C308868FA
:104A50004A6821F038F840F4802009E050F80C3022
:104A600088684A6821F02FF840F0885040F43020E0
:104A7000039001A92078CDE90123FFF7E1FE00288A
:104A800028DA6FF0150005B0BDE8F08350F80C305F
:104A900088684A6821F017F840EA0800E8E750F80B
:104AA0000C3088684A6821F00EF840EA0900DFE718
:104AB00050F80C3088684A6821F005F840F08270A0
:104AC000D6E750F80C3088684A6820F0FCFF40F0C8
:104AD0008870CDE7237801332370AEE7C1F89830B2
:104AE000C1F8A000013377E74FF0FF30CBE700BFFC
:104AF00000ED00E054F30300006A01200000F0FF25
:104B00000000081100000202F0B587B007460E460B
:104B100014460021102268461D4639F0F6FA022399
:104B20008DF802302A46054B019321466846CDE9AF
:104B300004761FF0D9FE07B0F0BD00BF075B02008E
:104B400008B50649064821F00701C1F1005202F5F7
:104B5000802220F034FD002008BD00BF9F0E0320FE
:104B6000649800200E4A0123C2F840354FF080427D
:104B70004FF08051C2F87835D1F83001082808D1BB
:104B8000D1F83411052904D80648415C09B1C2F8AE
:104B900038364FF080430122C3F88025002070474B
:104BA00000E00140855A040020B1034B800143F02E
:104BB00001031847704700BFE0E70300BFF34F8FC2
:104BC0000549064BCA6802F4E0621343CB60BFF3A9
:104BD0004F8F00BFFDE700BF00ED00E00400FA05C5
:104BE000024B1B6803B11847FF20704774980020E0
:104BF0000A4B0B4A0020C3E900000A4B1A600A4A1C
:104C00005A600A4A9A600A4ADA600A4B0A4A98606D
:104C1000C3E90020094ADA60704700BF9898002075
:104C2000014E000088980020454D0000414C0000D6
:104C3000135B020078980020E14B0000155B020036
:104C400030B544788FB00546ACB1204600F006FB85
:104C50001A4B02930023CDE9003303900122184937
:104C6000184620F059FF174B6A781A7016481EF044
:104C700017FB0FB030BD0378052B12D0092B1BD0CA
:104C8000012BF0D1072304A88DF8103004F098FA16
:104C9000059B03930D4B0094CDE90143032223466A
:104CA000DDE70B4B06490094CDE90143032223467F
:104CB000204620F031FFD6E7064BF3E78F5A040079
:104CC000C0E60300016A01208C090020A75A0400F5
:104CD000C55A0400E55A040030B5114C8FB02D239D
:104CE000054604A88DF8103004F06AFA9DF91430D6
:104CF0002278934200D18DB1D8B20A4B20701B6844
:104D000003B1984723780393074B02930023CDE91F
:104D1000003306490322184620F0FEFE0FB030BDD6
:104D2000036A012070980020F55A0400C0E60300D1
:104D3000034BBFF35B8F1868BFF35B8F704700BFF7
:104D4000A09800202DE9FF414278044682B1104628
:104D500000F084FA264B029300230390CDE9003340
:104D600024490122184620F0D7FE04B0BDE8F081A6
:104D7000FFF7DEFFC10702D51046FFF7ADFFFFF7D3
:104D8000D7FF83070ED4237F63B1BFF35B8F1A4B2A
:104D900053E8001F41F0020143E80012002AF7D156
:104DA000BFF35B8F217F63794900012B08BF41F07E
:104DB0000101124B1D68CFB2002DD6D0083D4FF631
:104DC000FF782B88E078434501D083420AD1A3685D
:104DD0000193237B00936E6894F91030B4F90E2090
:104DE0003946B047AD68002DBFD0083DE9E700BFA8
:104DF0000D5B0400C0E60300A098002098980020F6
:104E00001FB50446407860B100F028FA0D4B0293BC
:104E100000230390CDE900330B490122184620F00E
:104E20007BFEFFF785FFC30702D50020FFF754FF85
:104E3000064B62781A70064804B0BDE810401EF0B8
:104E40002FBA00BF285B0400C0E60300026A0120FD
:104E500074090020F0B504469FB04FF0FF324FF0C8
:104E6000FF3368481EF054F901261D230AA88DF867
:104E700028308DF82C6004F0BBFA257D002D6AD116
:104E8000614B8DF814601B788DF81930022734239C
:104E900014A88DF818708DF8503004F091F920B3F3
:104EA0005A4B5B490095CDE9015332462B462846C3
:104EB00020F032FEEA24204600F0C4F9554B02935C
:104EC00000230390CDE9003318465149012220F018
:104ED00023FE204600F0CEF9044600287CD0494845
:104EE0001EF08EF920461FB0F0BD159BA2899A8056
:104EF0002369159314A88DF8507004F079FA0323F0
:104F00008DF8503014A82368159304F071FA092322
:104F10008DF8503014A86368159304F069FA0823DB
:104F20008DF8503014A8A368159304F061FA05A811
:104F300004F084FD04460028BDD14FF0FF3336480D
:104F40004FF0FF321EF0E0F9344B1878002843D0C0
:104F500000F0A2F9C0E7012D51D135238DF8503072
:104F600014A82F4B159304F043FA06238DF8503004
:104F700014A80023159304F03BFA07238DF8503052
:104F800014A82368159304F033FA0C238DF85030DD
:104F900014A8A368159304F02BFA0D238DF8503054
:104FA00014A8A368159304F023FA0E238DF850304B
:104FB00014A8A368159304F01BFA0F238DF8503042
:104FC00014A86368159304F013FA14A88DF85050D0
:104FD0008DF8545004F00CFAFFF7AAFEC30709D469
:104FE0002D238DF85030084B14A81B788DF85430C1
:104FF00004F0FEF90120FFF76FFE00246FE76FF069
:1050000015046CE798070020046A0120405B040047
:10501000C0E603005A5B04008C090020016A0120ED
:105020000003000100B58BB00246FFF781FE00F0DF
:105030000100824219D0BFF35B8F124BC2B153E81B
:10504000001F41F0010143E80012002AF7D1BFF32D
:105050005B8F05238DF80030FFF76AFE00F001003A
:105060008DF80400684604F0C3F90BB05DF804FB4A
:1050700053E8001F21F0010143E80012002AE6D0A6
:10508000F6E700BFA0980020F0B507468BB01546A4
:105090001C460E4609B9002A5FD131484FF0FF3255
:1050A0004FF0FF331EF034F804A9284604F026F828
:1050B00088B300F0C7F800242A4B03900293CDE98F
:1050C0000044294923460122204620F025FD0125E0
:1050D0008DF814400794ADF8204005A88DF82240C3
:1050E00005F0AAFB044630B300F0ACF81F4B029366
:1050F0000023CDE900331C4903900122184620F01B
:105100000BFD204600F0B6F8044615481EF078F86E
:1051100020460BB0F0BD5CB1012C09D0144BADF8AA
:10512000205093F900408DF8187007960025D4E7B9
:105130008DF81440F2E74FF0FF330E484FF0FF3286
:105140001EF0E2F80C4B187808B100F0A5F8002D1D
:10515000044618BF6FF00A04D7E76FF01504D7E7CD
:10516000AC0700206F5B0400C0E60300945B040002
:10517000036A012074090020026A01200023836071
:10518000054B596800F1080211B9C3E900227047C4
:105190000A605A60704700BF98980020014B186061
:1051A000704700BF7098002070B51E4E1E493278BF
:1051B0001E4892B003F0D8FD054680B100F042F8D9
:1051C0001B4B02930023CDE9003303901846194985
:1051D000012220F0A1FC6FF0150012B070BD03F0A9
:1051E00083FF044640B100F02DF8134B0390CDE946
:1051F000015300952B46E9E7062306A930788DF880
:10520000183021F0A5FC0D4BC0B218700C4B187073
:1052100030238DF8203008A81423099304F0E8F80F
:105220002046DAE7100700207898002088980020B0
:10523000AC5B0400C0E60300CD5B0400046A0120FF
:10524000036A012017289ABF024B53F82000024836
:10525000704700BF50F40300FB5B04000F289ABFA7
:10526000024B53F820000248704700BF10F40300BF
:105270000B5C04001628034608D8064A52F82000A2
:1052800030B9002B18BF6FF0150070476FF0150094
:10529000704700BFB4F303000F28034608D8064A3E
:1052A00052F8200030B9002B18BF6FF0150070477E
:1052B0006FF01500704700BF74F3030001481EF043
:1052C0007FB900BF20050020014B1860596070476E
:1052D000A4980020024B1A685B6802600B6070475C
:1052E000A498002008B520F038FC024B1B68C01AB7
:1052F00008BD00BFAC980020014838F09BBD00BF3E
:105300003807002007B5014640F2E7304FF47A72C3
:10531000002300EBC130490CFBF776F802460B4640
:1053200000210020CDE9000102481EF063FF03B018
:105330005DF804FB3807002008B520F00EFC014B97
:10534000186008BDAC980020014B1868704700BF7A
:10535000AC98002010B5124CBFF35B8F022354E8C9
:10536000002F012A03D144E800310029F7D1BFF30F
:105370005B8F0CBF0120002010D10A4BDB6A9847DD
:10538000002344F8403CBFF35B8F54E8002F44E80F
:1053900000310029F9D1BFF35B8F012010BD00BFA0
:1053A000F4980020C4F5030010B5064B5C68FFF7C5
:1053B000D1FF30B12CB100212046BDE810401EF0D5
:1053C000ABBF10BDB098002013B50D4BD3E901431E
:1053D0003BB10C4B5B6B0193002002B0BDE8104069
:1053E0001847FFF7B7FF40B13CB16FF0040120460A
:1053F00002B0BDE810401EF08FBF02B010BD00BF6C
:10540000B0980020C4F503002DE9F347284C9A46D4
:10541000D4E9019307460D46164683B1254B00207B
:105420005B6B9847E368CDE900A32A46D4F808806F
:10543000206833463946C04702B0BDE8F08704F122
:1054400044020223BFF35B8F52E8001F012903D1FE
:1054500042E800300028F7D1BFF35B8F9046EBD1D4
:10546000E36C1A78AA4288BF1D70E36CA06C1A78AE
:10547000394638F022FE236D03B11E80636D0BB1F7
:1054800083F800A00B4BDB6A984700216160BFF3F3
:105490005B8F58E8003F48E80012002AF9D1BFF3BB
:1054A0005B8F484602B0BDE8F0471EF035BF00BF35
:1054B000B0980020C4F50300F0B5044687B000683A
:1054C0000E4638F06DFA2568034670B92A680392D3
:1054D0001E4A1F490090CDE90102012220F084FB01
:1054E0006FF01205284607B0F0BDE38821793343F9
:1054F000D802D5F808C02F6906D513F4402F03D081
:10550000DA0748BF83F440233868012623F4801269
:105510008E40DB074CBF3043B0433860DCF80030CE
:105520002846984705460028DCD005902379049347
:10553000236807491B680393064B02930023CDE9B8
:1055400000330122184620F04FFBCBE7935E0400A6
:1055500028E70300AC5E040070B50D460F49BFF3A9
:105560005B8F012051E8004F002C03D141E8000679
:10557000002EF7D1BFF35B8F0CD1094E41F8403CB0
:10558000D4B2736D214698472846B36A214698479E
:10559000002070BD6FF00F00FBE700BFF498002003
:1055A000C4F503002DE9F04700258EB005ACDFF807
:1055B000BC8081468A4617462946102209A8012642
:1055C000CDE90544CDE9075538F09FFD8DF83160F0
:1055D000D8F834300D94002B45D023463A46514636
:1055E0004846FFF7B9FF041E39DBFFB2CDE901578A
:1055F0000396B8F83C301E4C009398F83A3098F86F
:10560000392098F83810646A3046A047014640F2C5
:10561000E7304FF47A72002300EB0140C1F30E41F2
:10562000FAF7F2FE02460B46314609A81EF01CFEB0
:10563000041E14DA0F4B10490095CDE90153324690
:105640002B46284620F0D0FAFFF784FE38B94FF0F9
:10565000FF324FF0FF33314609A81EF005FE204609
:105660000EB0BDE8F0876FF01504F8E7B0980020A1
:10567000C4F50300CC5E040028E70300F0B591B048
:1056800000248DF8172007AD0F46102221460BA8E5
:10569000CDE90755CDE90944012638F036FD2C4BFC
:1056A0008DF839600F95BFF35B8F53E8002FA2424E
:1056B00003D143E800610029F7D1BFF35B8F43D1E9
:1056C0000DF1170243E910549A60224D189ADA60DE
:1056D000199A1A615F60FF216B6D304698476B6BBA
:1056E00020469847DDE9162331460BA81EF0BCFD85
:1056F000051E1ADAFFF72EFE50B94FF0FF324FF0B9
:10570000FF3331460BA81EF0AFFD9DF8175009E09E
:10571000114B12490094CDE9014303222346204650
:1057200020F062FA284611B0F0BD0A9B002BECDA9B
:105730000B4B0A490094CDE90143324623462046EB
:1057400020F052FA0A9DEDE76FF00F05EAE700BF7F
:10575000F4980020C4F50300E85E040028E7030085
:10576000F85E040010B529B9FFF7F4FDD8B96FF061
:10577000150010BD0E4BBFF35B8F012053E8004FA7
:10578000002C04D143E8000CBCF1000FF6D1BFF3AC
:105790005B8F0AD1074C43E90F12636DFF219847D5
:1057A000636B002098470020E3E76FF00F00E0E70D
:1057B000F4980020C4F50300F0B52C4DBFF35B8FC7
:1057C0008BB00C46012755E8003F002B03D145E87C
:1057D0000072002AF7D1BFF35B8F43D1244E2068BB
:1057E000F3689847E37A4BB32346103D04F1100762
:1057F000186859682A4603C20833BB421546F7D1D8
:105800004FF47A63089300220120237B0793CDE9AC
:105810000522CDE9032023890293A37901936379BB
:105820000093F569237994F90A10A847B36D607B5A
:105830009847FFF78FFD00200BB0F0BD0997227B42
:10584000B569CDE90732CDE90533CDE903330A2245
:1058500002922289CDE900323846A3796279217912
:10586000A847E3E76FF00F00E6E700BFF4980020D9
:10587000C4F5030038B5084611461A460B4BBFF372
:105880005B8F012453E8005F002D04D143E8004CF6
:10589000BCF1000FF6D1BFF35B8F04D1044BDB6B7F
:1058A0009847002038BD6FF00F00FBE7F498002008
:1058B000C4F5030038B5114BBFF35B8F002453E8E8
:1058C000002F43E800410029F9D1BFF35B8F0C4959
:1058D00043F8341C0B490C4D43F82C1C0B4943F87E
:1058E000241C0B4943F8301C2A6843F8440CA3F1EC
:1058F00034009047EB6A9847204638BDF498002062
:10590000A953000009540000C4F50300C953000066
:10591000075C02001FB50F4CE36953B90E4A0F49EB
:105920000093CDE901321846022220F06EF904B04E
:1059300010BD002098470A4B1B6E03B1984794F89E
:105940002030002BF3D0034804B0BDE8104000F035
:1059500057B900BF08990020145F040020E7030036
:10596000C4F50300F0B54FF4B011476885B00646A2
:105970002348FFF7A1FD054600283DD121492248D3
:1059800038F0F6F8304600F065F9044660B11F4B78
:105990001F490095CDE9015301222B46284620F0EE
:1059A00034F9204605B0F0BD386837F0F9FF60B92A
:1059B000184B02930023CDE9003315490122184604
:1059C00020F023F96FF01204EBE7F86818B137F014
:1059D000E7FF0028ECD03046FFF76CFF051EE0DA49
:1059E0000D4B02930023CDE90033094901221846EB
:1059F00020F00BF92C46D4E76FF00404D1E700BF88
:105A0000C8F403001559000014990020435F0400F6
:105A100020E70300615F0400765F04000248012272
:105A20000A2120F001B900BFB0E2030002480022C1
:105A30000A2120F0F9B800BFB0E20300014B93F84F
:105A400020007047089900200346034880F8203062
:105A50000BB900F0EFB8704708990020014BD861EE
:105A6000704700BF0899002010B5044C204600F094
:105A700095F8012384F8203010BD00BF089900205C
:105A800010B5054C204600F0A3F800B910BD002168
:105A9000212038F040F9F5E70899002070B590B062
:105AA0000D46DDE91461CDE90A3108ABCDE9080204
:105AB000CDE90C5204930CAA02230446CDE90E61F1
:105AC000CDE90623059320F0A0FA1248D5B9CEB946
:105AD000836811491D6804AA3346A84700280ADADA
