:020000040000FA
:10000000C01D01207D470000D12501006947000087
:1000100069470000694700006947000000000000D0
:10002000000000000000000000000000F94800008F
:100030006947000000000000954800006947000083
:10004000A94A0000A94A0000A94A0000A94A0000E4
:10005000A94A0000A94A0000A94A0000A94A0000D4
:10006000A94A0000A94A0000A94A0000A94A0000C4
:10007000A94A0000A94A0000A94A0000A94A0000B4
:10008000A94A0000A94A0000A94A0000A94A0000A4
:10009000A94A0000A94A0000A94A0000A94A000094
:1000A000A94A0000A94A0000A94A0000A94A000084
:1000B000A94A0000A94A0000A94A0000A94A000074
:1000C000A94A0000A94A0000A94A0000A94A000064
:1000D000A94A0000A94A0000A94A0000A94A000054
:1000E000A94A0000A94A0000A94A0000A94A000044
:1000F000A94A0000A94A0000A94A0000A94A000034
:1001000080F0004002E000BF81F0004142001FBFCC
:100110005FEA410392EA030F7FEA226C7FEA236CD5
:100120006AD04FEA1262D2EB1363C1BFD2184140CA
:1001300048404140B8BF5B42192B88BF704710F060
:10014000004F40F4000020F07F4018BF404211F003
:10015000004F41F4000121F07F4118BF494292EA6B
:10016000030F3FD0A2F1010241FA03FC10EB0C0097
:10017000C3F1200301FA03F100F0004302D5494224
:1001800060EB4000B0F5000F13D3B0F1807F06D3D1
:1001900040084FEA310102F10102FE2A51D2B1F1C9
:1001A000004F40EBC25008BF20F0010040EA0300BE
:1001B0007047490040EB0000013A28BFB0F5000F3E
:1001C000EDD2B0FA80FCACF1080CB2EB0C0200FAF4
:1001D0000CF0AABF00EBC25052421843BCBFD04043
:1001E0001843704792F0000F81F4000106BF80F4BD
:1001F00000000132013BB5E74FEA41037FEA226C80
:1002000018BF7FEA236C21D092EA030F04D092F04A
:10021000000F08BF0846704790EA010F1CBF00207E
:10022000704712F07F4F04D1400028BF40F00040DB
:10023000704712F100723CBF00F50000704700F0FB
:10024000004343F0FE4040F4000070477FEA226222
:1002500016BF08467FEA23630146420206BF5FEAF3
:10026000412390EA010F40F4800070474FF00003F3
:1002700004E000BF10F0004348BF40425FEA000CBA
:1002800008BF704743F0964301464FF000001CE062
:1002900050EA010208BF70474FF000030AE000BFB8
:1002A00050EA010208BF704711F0004302D54042F6
:1002B00061EB41015FEA010C02BF84460146002068
:1002C00043F0B64308BFA3F18053A3F50003BCFA83
:1002D0008CF2083AA3EBC25310DB01FA02FC634430
:1002E00000FA02FCC2F12002BCF1004F20FA02F237
:1002F00043EB020008BF20F00100704702F120022A
:1003000001FA02FCC2F1200250EA4C0021FA02F28A
:1003100043EB020008BF20EADC7070474FEA40025E
:10032000B2F1FE4F0FD34FF09E03B3EB12620DD923
:100330004FEA002343F0004310F0004F23FA02F08D
:1003400018BF404270474FF00000704712F1610F34
:1003500001D1420205D110F0004008BF6FF000400B
:1003600070474FF0000070477BB972B90029BEBFDB
:1003700000204FF0004106E008BF00281CBF6FF0CE
:1003800000414FF0FF3000F057B8ADF1080C6DE9B7
:1003900004CE002909DB002B1ADB00F061F8DDF840
:1003A00004E0DDE9022304B07047404261EB410103
:1003B000002B1BDB00F054F8DDF804E0DDE902233C
:1003C00004B0404261EB4101524263EB430370478A
:1003D000524263EB430300F043F8DDF804E0DDE94B
:1003E000022304B0404261EB41017047524263EB8B
:1003F000430300F035F8DDF804E0DDE9022304B042
:10040000524263EB4303704753B94AB9002908BF0E
:1004100000281CBF4FF0FF314FF0FF3000F00CB848
:10042000ADF1080C6DE904CE00F01AF8DDF804E037
:10043000DDE9022304B07047704700BF10F8012BBC
:1004400011F8013B012A28BF9A42F7D0D01A704711
:10045000034613F8012B002AFBD1181A0138704704
:100460002DE9F04786468C460846089E1546744698
:100470001946002B40F0C2808542B2FA82F245D97B
:100480004AB1C2F1200300FA02FC2EFA03F39540B0
:1004900043EA0C0C94404FEA154EA8B2BCFBFEF8A0
:1004A000230C0EFB18CC08FB00F943EA0C439945DA
:1004B00028D9EB1808F1FF3704D2994502D9A8F1E1
:1004C00002072B44A3EB0903A4B2B3FBFEFC0EFB13
:1004D0001C330CFB00F044EA0344A04214D92C194D
:1004E0000CF1FF3304D2A04202D9ACF102032C4438
:1004F000241A43EA07401EB1D440002334607360DD
:10050000BDE8F0874746DDE76346F1E792BB431B52
:1005100001214FEA154EAFB2B3FBFEFC200C0EFBDF
:100520001C330CFB07F840EA0343984562D9EB18EB
:100530000CF1FF3004D2984502D9ACF102002B44F3
:10054000A3EB0803A4B2B3FBFEFC0EFB1C330CFBB5
:1005500007F744EA0344A7424ED92C190CF1FF33A4
:1005600004D2A74202D9ACF102032C44E41B43EAB3
:100570000040C0E7C2F1200320FA03F1954090400B
:100580002EFA03F303434FEA154EAFB2B1FBFEFC64
:100590000EFB1C10190C0CFB07F841EA00418845C2
:1005A00004FA02F422D969180CF1FF3004D288450C
:1005B00002D9ACF102002944A1EB08019BB2B1FBC6
:1005C000FEFC0EFB1C110CFB07F743EA01439F42A4
:1005D0000ED9EB180CF1FF3104D29F4202D9ACF1D5
:1005E00002012B44DB1B41EA004192E76046E3E74E
:1005F0006146F7E76046A3E76346B7E7834206D95B
:1006000016B9002108467BE7C6E900E0F9E7B3FA2E
:1006100083F78FB9834201D3724508D8BEEB020439
:1006200060EB030301209C461EB9002168E73846B1
:10063000FAE7C6E9004CF8E7C7F1200CBB4022FA04
:100640000CF41C432EFA0CF120FA0CF3B8400143D1
:100650004FEA14490EFA07F5B3FBF9F81FFA84FEC6
:1006600009FB18300B0C08FB0EFA43EA00439A45CD
:1006700002FA07F240D9E31808F1FF3004D29A4594
:1006800002D9A8F102002344A3EB0A0389B2B3FB09
:10069000F9F809FB183308FB0EFE41EA03418E45C9
:1006A0002CD9611808F1FF3304D28E4502D9A8F184
:1006B0000203214443EA0040A0FB0298A1EB0E0193
:1006C0004145CE46434602D306D14D4504D2B9EB4F
:1006D000020E68EB04030138002EA6D0B5EB0E0223
:1006E00061EB030101FA0CFC22FA07F34CEA030365
:1006F000F940C6E9003198E74046C5E74346D9E7E7
:10070000F0B5334B3349344E344F354D97B01B68F9
:1007100015934FF00003334B02930023CDE90033D0
:100720000322184611F09FFA4FF0FF324FF0FF33CB
:1007300008A800F0A5F89DF821309DF8201002953A
:10074000002B14BF30463846DDE90A230024CDE9EA
:100750000623CDE90310234603222046CDE90044B9
:100760001C4911F080FA9DF82130A34214BF0123E7
:1007700023468DF830309DF820308DF83830DDE993
:100780000A230CA8CDE910230CBF012323468DF8C2
:10079000483001F00DFD50B1134B0390CDE90143FA
:1007A0000C49009423460122204611F05CFABDF862
:1007B0002020032AB8D10D4B02930023CDE900334A
:1007C0000449184611F04FFA01F00AFBACE700BFEC
:1007D000CC630120E8500100A45801009C5801009E
:1007E000C3580100AD580100D85801000959010053
:1007F0002DE9F04F904685B014F043F84FF47A732A
:10080000A0FB030503FB0155C40B1B4FDFF86C90E5
:1008100044EA45440026ED0B97F804A028FA0AF3B1
:10082000DB0721D53868D0F810B0836869465B686B
:10083000984750B9009BDBF800205A40012303FA87
:100840000AF31A4214BF01200020B0FA80F04009D8
:10085000CDE902458DF800608DF8010000220023EB
:10086000694648460FF070FB0136072E07F108076E
:10087000D2D105B0BDE8F08F48520100A00700209A
:1008800008B5014603480FF0B9FBB0FA80F0400903
:1008900008BD00BFA00700202DE9F04F3F4C404F9E
:1008A000DFF800A187B00026A346206813F0B0FD52
:1008B000034690B95BF836203B4912680090CDE9B9
:1008C00003623A4ACDE90102012211F0DBF96FF02F
:1008D0001205284607B0BDE8F08FE388206821792B
:1008E00043EA0A020569D0F808C013F0010F4FF07F
:1008F000010E2B680EFA01FE14BF4EEA030323EA31
:100900000E032B60DCF800309847054658B1284BA1
:10091000039602930023CDE90033234901221846B0
:1009200011F0B0F9D5E72068217983689D694DB150
:100930004FF000734FF0A072A847054628B11D4B39
:100940000396E6E76FF05705F9E794F804901A4B21
:100950007B60012202FA09F3D4F80080BB60D8F86A
:100960000830DB6913B1394640469847CDF81490FA
:10097000D8F800300C49CDE90363104B02930023F3
:10098000CDE9003303221846013611F07BF9072E1A
:1009900004F1080407F10C0787D19AE748520100D7
:1009A000A011002010000100F05001004F5901007B
:1009B0006D5901008B590100F1070000B159010088
:1009C00001480FF0D5BD00BFF411002010B51B4B3E
:1009D0001B4A8AB01B6809934FF000034CF6BB43D7
:1009E000CDE9052300240023002205A80794ADF8D3
:1009F000204000F003FB034698B99DF815200392B0
:100A0000104A11490090CDE90102032211F049F981
:100A10000A4B1A68099B5A404FF000030BD013F0A1
:100A2000EAFE0A4B0390CDE90143074900942346AF
:100A300001222046EAE70AB010BD00BFCC630120C6
:100A40000A0300AADC59010020510100F7590100F6
:100A500013B50A4C0A490B4813F0C2FD0A4900229B
:100A6000204613F010FF4FF4F0120023CDE90023CD
:100A7000204610F095FB02B010BD00BFA009002079
:100A8000CD090000F4110020C109000001480FF059
:100A90006FBD00BF6412002001480FF069BD00BFA8
:100AA0005412002001480FF063BD00BF4412002023
:100AB00001480FF05DBD00BF3412002001480FF067
:100AC00057BD00BF2412002001480FF051BD00BFE8
:100AD0001412002001480FF04BBD00BF041200208B
:100AE0002DE9FF4700F06EF90023044668B1194A6A
:100AF0000390CDE90132184900930122184611F004
:100B0000FBF8204604B0BDE8F087DFF85080144EB3
:100B1000144FDFF8549005464FF0380A304658F825
:100B2000041B13F05DFD0AFB059057F8041B00221F
:100B3000013513F0A8FE072D06F11006EED10B4B80
:100B400002930023CDE9003303490322184611F034
:100B5000D3F8D6E7215A0100285101009C52010028
:100B60000412002080520100580A00203F5A010060
:100B70001FB5014668B9184B18490090CDE901032B
:100B80000122034611F0B8F86FF01504204604B0B6
:100B900010BD0378062B0BD90393114B029300234E
:100BA000CDE900330D490122184611F0A5F8EBE715
:100BB0000C48002200230FF0C7F904460028E5D0B6
:100BC000094B029300230390CDE90033034901222E
:100BD000184611F091F8D9E7575A01002851010041
:100BE0006C5A0100D00700207F5A010030B506285A
:100BF00087B005460FD91E4B029300230390CDE921
:100C000000331C490122184611F076F86FF01504E4
:100C1000204607B030BD012100F042F9044660B122
:100C2000154B02930023CDE90350CDE90033114960
:100C30000122184611F060F8EAE71049C5EBC5003B
:100C400000220023CDE9002301EBC0004FF4004255
:100C5000002310F0A5FA0A4B06490395CDE901439C
:100C6000009423460322204611F046F8D0E700BF47
:100C70006C5A0100285101009F5A0100580A0020B7
:100C8000BC5A010070B5062886B005460E460FD93D
:100C9000134B029300230390CDE900331149012245
:100CA000184611F029F86FF01504204606B070BD03
:100CB00000F0F6F804460028F7D00B4A0B4B094920
:100CC0000395002E18BF1346CDE90430084B02935C
:100CD0000023CDE900330122184611F00DF8E4E7B6
:100CE0006C5A010028510100D95A0100DC5A010058
:100CF000E05A010010B52E4B2E492F4C90B01B68C6
:100D00000F934FF000032D4B02930023CDE90033E6
:100D10000322184610F0F0FF4FF0FF324FF0FF3380
:100D200004A920460FF06AF90028F5D19DF811308A
:100D3000032B2ED8DFE803F00221232801219DF8A0
:100D40001000FFF79FFF2022002106A813F0F8FEF5
:100D500004238DF818309DF810308DF820309DF860
:100D6000113013B3DA1E534253418DF8213006A8D7
:100D7000059B099301F01CFACEE70021DFE79DF8FF
:100D8000100000F0ADF8DEE79DF81000FFF72EFF31
:100D9000D9E703930A4B02930023CDE900330549B9
:100DA0000122184610F0A8FFCDE70123DDE700BFC0
:100DB000CC63012028510100D0070020FF5A010018
:100DC0001A5B01002DE9F04F304CDFF8C480314F41
:100DD00087B000254FF001092668304613F018FB54
:100DE000034670B92C4A2B490395CDE901020090C6
:100DF000012210F090FF6FF0120A504607B0BDE8D4
:100E0000F08F20682179E388D0F810C0D0F808E08E
:100E1000DCF800A0DA0754BF43F4B01383F4D01316
:100E200023F4801209FA01FBDB074CBF4BEA0A03EB
:100E30002AEA0B03CCF80030DEF800309847B0F116
:100E4000000A0BDA154B02930023CDE90033114958
:100E500003950122184610F05EFFCEE72379059333
:100E60003368CDF808800026CDE90353CDE900664C
:100E70003346032239463046013510F04CFF072D2A
:100E800004F10804A8D1B246B7E700BFB852010088
:100E90008B5B010030510100545B01006C5B010071
:100EA000062803460A4615D80C4951F8300001EBD4
:100EB000C3010123097903FA01F103691B6819428F
:100EC00018BF82F0010212B18368DB68184783689B
:100ED0001B69FBE76FF01500704700BFB8520100B7
:100EE000062803460AD8074A52F8300002EBC3022C
:100EF00001211379994083685B6918476FF01500E9
:100F0000704700BFB852010010B588B004460DF11B
:100F10001F010DF11E0011F0D2FB9DF81F30074993
:100F2000CDE90343064B02930023CDE900330322AE
:100F3000184610F0FFFE08B010BD00BF4851010078
:100F4000B05B010070B588B0C1F34004CDE9063450
:100F500001F001010024104B0D9D0592CDE9030124
:100F60000293CDE900440D499DF8306023460322E9
:100F7000204610F0DFFE65B15EB1094B0393094BCB
:100F800006490096CDE9014303222B46204610F086
:100F9000D1FE08B070BD00BFD45B01004851010014
:100FA000075C0100787101001FB5014660B90F4B65
:100FB0000F490090CDE901030122034610F0BAFE6B
:100FC000002005B05DF804FB0A480FF017F858B18F
:100FD000094B029300230390CDE900330449012219
:100FE000184610F0A7FEEBE70120EAE7115C0100CC
:100FF0004851010030080020365C010010B5014660
:1010000086B068B9184B19490090CDE90103012257
:10101000034610F08FFE6FF01504204606B010BD99
:1010200040780B280DD90B23CDE90303104B029315
:101030000023CDE900330D490122184610F07AFE55
:10104000E9E70C480EF080FF04460028E5D00A4B83
:10105000029300230390CDE900330449012218468E
:1010600010F068FED9E700BF505C01004851010054
:10107000755C010030080020A05C010030B585B02F
:10108000284C204613F0C4F9034670B92268039235
:10109000254A26490090CDE90102012210F04AFEBE
:1010A0006FF01205284605B030BD23680393002475
:1010B0001F4B1E490293032223462046CDE90044DC
:1010C00010F038FE04F0D2F9051E0BDA194B17495F
:1010D0000395CDE90143009423460122204610F0F8
:1010E00029FEDFE7144804F0ABF9144804F0B8F91E
:1010F000012004F0F9F8124B0C490094CDE90143AA
:1011000003222346204610F015FE0E4B074900949B
:10111000CDE9014303222346204610F00BFE25466D
:10112000C0E700BF544D0100C95C010048510100F7
:10113000DF5C0100F15C0100D0040020090F000019
:101140000A5D01002B5D010001480FF011BA00BFDC
:10115000741200201FB5064B02930023CDE9003323
:1011600004490322184610F0F4FD05B05DF804FBB5
:101170005C5D01005051010038B50446074D4FF049
:10118000FF324FF0FF3328460EF09AFF044B1C70DD
:101190002846BDE838400FF00BB800BF9012002081
:1011A000A82C00202DE9F0415F4B6049604E614F53
:1011B00096B01B6815934FF000035F4B029300231A
:1011C000CDE900330322184610F0C3FD4FF0FF3283
:1011D0004FF0FF3306A930460EF010FF05460028F9
:1011E000F4D19DF8263005939DF8193004939DF8AD
:1011F00018300393514B4D490090CDE90103032270
:10120000034610F0A6FD0120FFF7B6FFDFF81C81B2
:101210009DF81A309DF819209DF818000DF11B015A
:1012200004F094F8044638BB0220FFF7A5FF444AB7
:101230003E49136801331360424B0094CDE90143EA
:1012400003222346204610F084FD202221460CA8CC
:1012500013F076FC0223BDF818208DF830300CA86E
:101260009DF81A30ADF838208DF83A3000F0A0FF24
:10127000354801F045F9A9E710F10B0F4FF00003D5
:1012800046D1CDE90137009302224146184610F0BD
:1012900060FD40F6CD400021013513F071FA032DB9
:1012A000B6D10320FFF768FF284A204913680133AD
:1012B0001360274A13682B441360264B03950025BF
:1012C000029301222B462846CDE9005510F041FD3E
:1012D000294620220CA813F033FC0323BDF8182064
:1012E0008DF830300CA89DF81A30ADF838208DF804
:1012F0003A3000F05DFF184B0C490394CDE90153DF
:10130000284600952B46012210F023FD1348B0E734
:10131000134A0390CDE90132044900930122184693
:1013200010F017FDBDE700BFCC6301205051010054
:1013300000080020F25D0100745D0100905D010075
:101340008C120020C05D0100DF5D010088120020CA
:1013500084120020235E0100465E0100665E0100EB
:101360000E5E01001FB50E4813F011F90D490E482D
:1013700013F036F90D490E48002213F084FA0D4B94
:101380000D4900241C700D4B0094CDE9014320460B
:101390002346032210F0DDFC204604B010BD00BF40
:1013A0009012002055110000741200204911000015
:1013B000600C0020A82C0020505101007B5E010031
:1013C0001FB5014668B9194B19490090CDE90103D1
:1013D0000122034610F0BDFC6FF01504204604B056
:1013E00010BD43785A1E0A2A0BD90393114B02935E
:1013F0000023CDE900330E490122184610F0A9FC64
:10140000EAE70D48002200230EF09EFD0446002866
:10141000E4D00A4B029300230390CDE90033044942
:101420000122184610F095FCD8E700BF215C0100AE
:1014300050510100945E010000080020AF5E0100E1
:1014400010B5184B88B004461422002101A81B686F
:1014500007934FF0000313F073FB40F20113ADF854
:10146000003001238DF803408DF8023013F009FAA3
:101470004FF47A72A0FB020302FB0131C00B40EA79
:101480004140C90BCDE904016846FFF799FF054BC0
:101490001A68079B5A404FF0000301D013F0ABF9D4
:1014A00008B010BDCC6301202DE9F0477C4B7D498D
:1014B00092B01B6811934FF0000300247A4B029303
:1014C000CDE9004423460322204610F051FC079446
:1014D000042107A80BF07CF913F0D3F9079EDFF87D
:1014E000CC81DFF8CC91DFF8CCA10F46054612F095
:1014F000E9FD4FF47A71A5FB013201FB0721DB0BFB
:1015000043EA4143704058406B4BA8F8000080B25A
:10151000CDE901430390234662490094032220460B
:1015200010F026FC654B0793654B5E4F8DF83040FD
:10153000CDE90833B8F80030ADF82830614B0B9393
:101540000494B8F800300025CDE9029303222B461D
:1015500039462846CDE9005510F00AFC07A803F0EB
:10156000DBFD10F1740F064610D1574B0095CDE905
:10157000015302222B463946284610F0F9FB4FF45E
:101580002030002113F0FCF80134D9E700280BDAF1
:101590004E4B0390CDE9015300952B46012239466D
:1015A000284610F0E5FBEAE7CDE9015A00952B4605
:1015B00003223946284610F0DBFB002EDFD1444FD2
:1015C000384DDFF810810E2200210DA813F0B8FA73
:1015D0004FF0FF324FF0FF330DA8FFF7E5FC002876
:1015E000F1D09DF83560731E0A2B55D89DF83490C4
:1015F000CDF808800024CDE903962346032229462E
:101600002046CDE900449DF836A010F0B1FB324BE6
:101610000393324B0096CDE9014303220DF13703CA
:101620002946204610F0A4FB324653460DF13701FF
:10163000484603F08BFE10F10B0F064611D1284BE4
:101640000094CDE90143022223462946204610F0AA
:101650008FFB244B039602930023CDE90033012234
:1016600015E000280BDA204B0390CDE901430094EC
:10167000234601222946204610F07AFBE9E71B4B5E
:10168000CDF80C90CDE9014300942346032229466E
:10169000184610F06DFB96E7CDE90276DCE700BF57
:1016A000CC63012058510100F45E0100A42C0020FD
:1016B0002A5F0100805F0100085F010090060020A2
:1016C0008006002098060020605F01006F5F010027
:1016D000945E0100905F01000A7A010078710100B8
:1016E000B35F0100465E0100D15F0100E95F0100C8
:1016F00030B5454B45498FB01B680D934FF0000343
:101700000025434B029303222B462846CDE9005582
:1017100010F03DFB00F08EFD044698B13D4B039068
:10172000CDE9015301222B4638490095284610F097
:101730002EFB354B1A680D9B5A404FF000035FD0CB
:1017400013F059F800F010FD044610B1324B03902D
:10175000E6E7FFF7C5F9044610B1304B0390DFE729
:10176000FFF700FE044610B12D4B0390D8E700F0C0
:10177000ABFD044610B12B4B0390D1E700F0F6F817
:10178000044610B1284B0390CAE7FFF761F9274BD5
:1017900018680FF013FA264B18680FF00FFA254B54
:1017A0001A490094CDE9014303222346204610F054
:1017B000EEFA2022214604A813F0C2F9062304A859
:1017C0008DF8103000F0F4FC1B4B10490094CDE96B
:1017D000014303222346204610F0D9FA174B0B4948
:1017E0000094CDE9014303222346204610F0CFFAAE
:1017F00000F00CFD00214FF4A02012F0C1FFF7E72C
:1018000020460FB030BD00BFCC63012068510100FD
:101810001960010038600100596001008160010019
:10182000A7600100CE600100F7600100F4520100E2
:10183000F05201001D610100546101008961010045
:1018400038B5074C4FF0FF3220464FF0FF3310F011
:10185000C0FA044B1D78204610F0BDFA284638BD6A
:1018600050070020A92C0020F0B5174F174D8DB060
:1018700006464FF0FF3238464FF0FF3310F0A9FA1A
:101880000FCD07AC0FC42B6823600CAB03EB8603B2
:101890000F4C53F8143C049323780E490CAA02EB26
:1018A0008303032253F8143C03930B4B029300234E
:1018B0001846CDE9003310F07CFA384626700DB09A
:1018C000BDE8F04010F087BA50070020F051010049
:1018D000A92C002078510100AB6101001FB5002444
:1018E0001B4B1C490293032223462046CDE90044AA
:1018F00010F05FFA18484FF0FF324FF0FF3310F04E
:1019000068FA164B0393164B02930823CDE9004364
:10191000104923462046042210F04BFA114B214671
:10192000186810F043FA50B10F4B0390CDE9014312
:101930000849009423460122204610F03AFA06484E
:1019400010F049FA002004B0BDE81040FFF78CBF4A
:10195000BF610100785101003C070020576501007C
:10196000D1610100A41200200062010030B51D4DBC
:101970001D48286085B012F04BFD034660B91B4A34
:101980001B490090CDE90102012210F012FA6FF01C
:101990001204204605B030BD286883681B6898474C
:1019A000044658B1134B039002930023CDE9003352
:1019B0000F490122184610F0FCF9EAE728680121D6
:1019C00010F0F4F9044610B10B4B0390ECE70B4B0D
:1019D00007490090CDE901030322034610F0E9F91D
:1019E000D7E700BFA4120020404D0100276201008C
:1019F000785101003C6201006062010085620100D3
:101A0000F0B57E4B97B01B6815934FF00003FFF7BE
:101A100017FF0446A8B17A4B02930023CDE90033A7
:101A200078490222184610F0C4F96FF00F05734B85
:101A30001A68159B5A404FF0000300F0DC8012F04A
:101A4000DAFE714B6F490090CDE901030322034692
:101A500010F0AFF90120FFF707FF6C4B69490094C4
:101A6000CDE9014303222346204610F0A2F968483D
:101A7000684D4FF0FF324FF0FF3310F0AAF9664B7C
:101A80000393664B02930823CDE900435D4920464A
:101A90002346042210F08DF92868012110F086F900
:101AA00050B15F4B0390CDE9014356490094234662
:101AB0000122204610F07DF955485A4F10F08BF95D
:101AC00002200024FFF7D0FE574B4E490293032219
:101AD00023462046CDE9004410F06BF90220FFF7C1
:101AE000C3FE0826514B4749029304222346204651
:101AF000CDE90046039710F05CF945484FF0FF32FE
:101B00004FF0FF3310F065F92868836832469B6810
:101B10000CA9984705463E4810F05DF9444B3949F9
:101B20000094CDE90163CDE90375234604222046E4
:101B300010F03FF9002D4DD101238DF838300CAB5A
:101B400003CBCDF83900CDF83D1012F09AFE4FF4DA
:101B50007A72A0FB020302FB0131C00B40EA414054
:101B6000C90BCDE912013348002200230EA90EF063
:101B7000EBF948B1304B23490095CDE901530222DE
:101B80002B46284610F015F99DF837300A939DF83A
:101B9000363009939DF8353008939DF8343007931B
:101BA0009DF8333006939DF8323005939DF831301F
:101BB00004939DF830300393204B02930023184682
:101BC000CDE900330F49032210F0F3F80320FFF7AB
:101BD0004BFE2CE71A4B0B490395CDE90143032239
:101BE00023462046009410F0E4F82046FFF73CFE20
:101BF0006FF03C051BE7284617B0F0BDCC63012011
:101C0000AA62010078510100C8620100DA62010095
:101C10003C070020A4120020FF640100EA620100DA
:101C20001C630100E764010045630100606301007B
:101C30008363010060080020AB630100D7630100EB
:101C40000D6401001FB50024074B0849029320468C
:101C500023460322CDE9004410F0ABF8FFF73EFE27
:101C6000204604B010BD00BF266401007851010079
:101C7000F0B5534B5349544D544E554FA3B01B68C8
:101C800021934FF00003534B02930023CDE900331F
:101C90000322184610F08DF84FF0FF334FF0FF325B
:101CA0000CA928460EF0AAF903460028F4D19DF8A5
:101CB000302044490297CDE903620822CDE90002B1
:101CC000042210F076F89DF83030032BE4D8DFE8DA
:101CD00003F002055C74FFF793FEDDE79DF83830F2
:101CE0000A939DF8373009939DF8363008939DF894
:101CF000353007939DF8343006939DF833300593C3
:101D00009DF8323004939DF8313003930024324B18
:101D10002C490293032223462046CDE9004410F0CB
:101D200048F801210320FEF7ADFFDDF83100DDF8B2
:101D3000351007238DF860301AAB03C3DDE910239B
:101D400018A8CDE91C2301238DF8783000F030FA73
:101D500040F66433ADF84830DDF83130CDF84B3023
:101D6000DDF83530CDF84F30BDF840309DF84220D9
:101D70008DF84A405BBA12A88DF85320ADF8543064
:101D8000FFF71EFBFFF7AAFD86E70024134B029323
:101D900020462346CDE900440A49022210F009F802
:101DA00008238DF86030DDE9102318A8CDE91C2345
:101DB0008DF8784000F0FCF9E4E7FFF743FF6BE7AC
:101DC000CC630120785101006008002066650100A5
:101DD000536401003864010070640100AA640100CA
:101DE0001FB5074B02930023CDE9003305490322B9
:101DF00018460FF0DEFF05B05DF804EBFFF700BEFC
:101E0000CD6401007851010070B505462048A862F4
:101E100088B012F0FDFAAC6A034670B922680392EA
:101E20001C4A1D490090CDE9010201220FF0D5FFA7
:101E30006FF01204204608B070BD4FF47A2129607B
:101E4000204605AA11F0D6FF044658B1134B039063
:101E500002930023CDE900330F49012218460FF009
:101E6000BCFFE7E7069BAB810326EE81284601F025
:101E700041F9044610B10A4B0390E9E7094B0649C2
:101E80000090CDE90103324603460FF0A6FFD1E7EB
:101E9000184D01007965010080510100976501002E
:101EA000B7650100D165010030B51848184D174CD1
:101EB00087B0FFF7A9FF4FF0FF324FF0FF3301A9C2
:101EC00028460EF09BF80028F5D19DF804303BB170
:101ED000012B13D0049B6BB16FF015021A6009E05F
:101EE000DDE90223BDF80610204610F08DFA049BB0
:101EF00003B1186005980EF0ABF9DCE7DDE90223C9
:101F0000BDF80610204601F0C7FAF0E7A81200203D
:101F100090080020F0B57D4B7D497E4F7E4E99B0F4
:101F20001B6817934FF000037C4B02930023CDE90D
:101F30000033032218460FF05FFF4FF0FF324FF0DF
:101F4000FF330EA938460EF059F80028F5D19DF858
:101F50003830082B5ED8DFE803F0050533334547FA
:101F6000536589009DF850006D496E4B9DF84020E7
:101F7000002818BF0B46CDE903236B4B02930023C7
:101F8000CDE900331846624903220FF035FF9DF872
:101F90005030002B3ED09DF840308DF83030032378
:101FA0008DF831300CA84FF47A730D93FEF7E0FDF5
:101FB0009DF84000FFF744FA5C4800F0A1FA29E0E0
:101FC0009DF8413004939DF840300393584B0293A1
:101FD00000231846CDE900334D4903220FF00CFFD2
:101FE0005448EAE75448E8E7544B02930023184664
:101FF000CDE90033464901220FF0FEFE5048DCE7F0
:10200000504B02930023CDE9003341490322184687
:102010000FF0F2FE3578052D8FD8DFE805F0333A62
:102020006069336F9DF847300A939DF846300993F5
:102030009DF8453008939DF8443007939DF8433050
:1020400006939DF8423005939DF8413004939DF826
:10205000403003933C4B029300231846CDE90033F4
:102060002B4903220FF0C8FE3848A6E7384B0293ED
:1020700000231846CDE90033254902220FF0BCFEAB
:1020800034489AE79DF83830062B7FF456AF012488
:1020900005E09DF83830002B7FF44FAF02244FF05D
:1020A000FF324FF0FF332C480EF00AF834702A4804
:1020B0000EF07EF8294B164953F8242053F82530AA
:1020C0000393274B029300230492CDE900330322AC
:1020D00018460FF091FE23480EF0BAF82DE79DF850
:1020E0003830042B10D0052B7FF427AF0424D6E71B
:1020F0009DF83830022BCAD0032BF5E79DF8383015
:10210000002B7FF41AAFC2E70324C8E7CC63012099
:10211000B8510100C0080020AA2C00203066010040
:102120009C580100A45801004D6601005A66010048
:1021300072660100DF5D01008E660100A566010088
:10214000BB660100C9660100D66601001667010082
:10215000AA64010028670100F0120020F852010073
:102160003A670100D81200201FB50C4812F00FFA90
:10217000012200210A4812F011FA0A4B0A490024F0
:102180001C700A4B0094CDE90143204623460322EC
:102190000FF032FE204604B010BD00BFF012002048
:1021A000D8120020AA2C0020B85101005567010068
:1021B0001FB5014668B9114B11490090CDE90103E3
:1021C000012203460FF018FE6FF01504204604B0FC
:1021D00010BD0C48002200230DF0B6FE0446002876
:1021E000F4D0094B029300230390CDE90033044956
:1021F000012218460FF000FEE8E700BF6F670100FC
:10220000B8510100C00800208267010038B5074CB2
:102210004FF0FF324FF0FF3320460DF051FF044BDB
:102220001D7820460DF0C4FF284638BDF01200206E
:10223000AA2C002030B585B000251A4B1A4902930C
:1022400003222B462846CDE900550FF0E4FDFEF7AA
:1022500023FB044668B1154B0390CDE901531249A5
:1022600000952B46012228460FF0D5FD204605B0EB
:1022700030BDFEF7A7FD044610B10D4B0390ECE70F
:10228000FEF7FCFE044610B10A4B0390E5E70A4B4B
:1022900005490090CDE90103032203460FF0BBFD81
:1022A000E4E700BFCE670100E0500100E1670100F4
:1022B000F96701000E6801002668010001480DF071
:1022C00077BF00BF0413002030B585B0124812F06C
:1022D0005EF912F0D6FA4FF47A72A0FB020302FB09
:1022E00001310E4DC00B002440EA4140C90BC5E945
:1022F0000001202221460A4812F022FC094B0A491B
:102300000094CDE901432046234603220FF092FDBD
:10231000204605B030BD00BF04130020180F002078
:10232000200F002045680100D051010038B5044657
:1023300088B10A4D0A484FF0FF324FF0FF330DF0DD
:10234000BFFE0FCD0FC495E80F0084E80F00FFF724
:10235000B5FF002038BD6FF01500FBE7200F00200F
:1023600004130020F0B58FB0564B02930023CDE943
:1023700000335549554F564D032218460FF05AFD6C
:102380004FF0FF334FF0FF3238460DF099FE6B6986
:102390000A2B00F29480052B94BF002301234D4E9D
:1023A000337012F06EFA4FF47A72A0FB020302FB54
:1023B0000131C30B4848D0E9002043EA41439B1A4E
:1023C0004FEAD13161EB0001C5E90631FFF776FF35
:1023D00006A8FFF7ABFF044600286AD13F4B3A49F5
:1023E0000090CDE90103032203460FF023FD069B75
:1023F00003933B4B34490094CDE901430322234628
:1024000020460FF017FD079B0393364B2E4900948F
:10241000CDE901430322234620460FF00BFD089B24
:102420000393314B28490094CDE90143032223460D
:1024300020460FF0FFFC099B03932C4B224900948C
:10244000CDE901430322234620460FF0F3FC0A9B0B
:102450000393274B1C490094CDE9014303222346F3
:1024600020460FF0E7FC0B9B0393224B1649009488
:10247000CDE901430322234620460FF0DBFCDDE9D2
:102480000C23CDE904231C4B0F490094CDE90143F3
:102490000322234620460FF0CDFC33780393174BDD
:1024A00009490094CDE901430322234620460FF059
:1024B000C1FC00214FF4A02012F062F960E7022372
:1024C0006DE700BF60680100D051010004130020D7
:1024D000200F0020AB2C0020180F00207E68010088
:1024E0008E680100A2680100B2680100C4680100A2
:1024F000D7680100EA680100FE6801001069010068
:102500001FB50446002852D02B484FF0FF324FF041
:10251000FF330DF0D5FD29492046FDF78FFF38B96F
:10252000274A136801331360FFF7C8FE002040E01C
:1025300024492046FDF782FF20B9214A5368013320
:102540005360F1E720492046FDF778FF20B91C4A87
:10255000936801339360E7E71C492046FDF76EFF5F
:1025600020B9174AD3680133D360DDE71849204604
:10257000FDF764FF20B9124A136901331361D3E7F1
:1025800014492046FDF75AFF20B90D4A536901331B
:102590005361C9E7104B02930023CDE900330F4983
:1025A0000394022218460FF045FCFFF787FE6FF0F8
:1025B000150004B010BD00BF041300205A660100CE
:1025C000200F0020DF5D0100665E01001D69010033
:1025D0008E660100BB6601002A690100D05101002E
:1025E00010B5094C0A44914200D110BD11F8013BCD
:1025F000584003090001E35CC0B2434018091B01C5
:10260000205CDBB25840EEE7666901002DE9F04F2F
:1026100093B084070093944B03921B6811934FF07F
:102620000003039BDDF8708003F004030293039B17
:10263000C3F3C20303F1010305460E46059340F0C0
:10264000C481041D68B1072910D86FF01B00864BA8
:102650001A68119B5A404FF0000300F0B98112F044
:10266000CAF801F007063444C6F10806009B4FF093
:102670000009591E4FF0040A4FF0FF330193CDF8C3
:1026800010904F46CB4653460DB1009A22600598F4
:10269000002800F3EF807548009A824203D3744803
:1026A0008242C0F0E780039AA4EB050E92074FEA3E
:1026B0009E0000F10A810F2F00F2B180002D00F082
:1026C0000C8107F148020DEB020C019A0CF8240C66
:1026D0000CF8142C049801300490EEE07A285DD8B0
:1026E0004B280ED8472859D829282DD8252852D02C
:1026F00054D820287AD02338D0F1000B4BEB000BB4
:1027000074E04C382E2849D8DFE800F0704848487B
:1027100048484848484848484B4848484848484836
:102720004859484B4B595959704B6D487048184B94
:10273000184848827F4B48484B487F0000204FF0A4
:10274000000B4FF0040A38E02A38C0B2012202FA26
:1027500000F010EA0E0F49D110F0625C2FD110EAA0
:10276000020B43D06046013C5444B4FBFAF40AFB2C
:1027700004F4002D61D0A3EB050CA444B4453FF64E
:1027800064AF002868D1042B47D158F8043B23607C
:10279000043404232AE0019A013A01924FF0000B1D
:1027A00024E011F8010C6C2834D111F8023C00200F
:1027B0006C2B8346C5D14FF0080A5346D3E708F186
:1027C000070828F007080734F8E802AB24F00704EC
:1027D00035B106982044B0423FF637AFC4E900ABAC
:1027E00008344FF0000B4FF0080A534611F8010F60
:1027F00000287FD0BBF1000F7FF470AF2528F5D102
:10280000019B013301934FF0010B4FF0040AECE7F9
:10281000584694E700208346A5E7082B02D06FF0C6
:10282000150014E708F1070828F00708F8E8022364
:10283000C4E9002308340823D8E768B9042B02D17F
:1028400008F10408A4E7082BE9D108F1070828F0EB
:10285000070808F10808EDE7059A013A059258F8CB
:10286000042B009210E700BFCC6301204C4C010008
:1028700028810100039A900720D5A4EB050E4FEAAA
:102880009E004FF0010CBEF5007FC8D20F2FC6D8B6
:10289000F5B107F148020DEB020EC0B2019A0EF835
:1028A000240C0EF8142CBCF1000F3FF413AF60F0B1
:1028B0007F000EF8240C09F101090137C5F1080267
:1028C000043406924FF6DA7E90E74FF0000CDAE718
:1028D000BCF1000F01D00136EFE702980236002864
:1028E000EBD10098CDE90631FDF7B2FDDDE9063107
:1028F0000644E2E7631BB3F5806F90D21DB9A6F1E1
:102900000804E018A3E6029A28609B082B709DF843
:102910001030C2B1EB7085F80290B9F1000F05D00C
:1029200009A80022C5F1010C97420ED1C5F101039F
:102930000DF124084FF0000A01930DF1340B5745B7
:1029400012D1601B83E66B70E5E710F8013B1906B6
:1029500008D50CEB040EB64503F07F033FF675AEC9
:1029600004F8013B0132DFE7B9F1000F03D098F919
:102970000020002A17DB029BD3B11AF80B2004F8C1
:10298000012B0022019B18191044B0423FF65DAEA6
:1029900098F8000004F8010B00990392204612F009
:1029A000C1F8039A14440AF1010A08F10108C6E7C4
:1029B00098F8002055F822300093029B45F8223009
:1029C0000098FDF745FD421CDCE76FF00D003EE688
:1029D00013B0BDE8F08F00BF80B505460E46174620
:1029E00098460EF011F9034612F026F9DFF8189018
:1029F000044649F80030424630463946A84754F864
:102A0000090001F031FF00BF0800000008B50446CE
:102A1000EFF31183202383F31288BFF36F8F0BF042
:102A2000EDF9204602F02CFA02480FF023FB0FF0DC
:102A3000F1FDFCE7876901002DE9F047058B0446AD
:102A40002807904611D4022905F0070540F0CC80F4
:102A500020460FF01CFB78B10138218B042811D8D7
:102A6000DFE800F0C2106D85950001290CBF45F02C
:102A7000100545F02005258388F31188BFF36F8F7B
:102A8000BDE8F08701F0070AAA4500F0A5800027FD
:102A9000B9463E46A368002B00F0BC8041F0080117
:102AA000218388F31188BFF36F8FA168002900F09C
:102AB000BA800D68002900F0B680D1F80480334652
:102AC00052462046C047002D76D02B6829461D4629
:102AD000F0E701F007035A1F012A1BD8002221F05A
:102AE0000701062B276889B2C4E9002209D13B46B9
:102AF00003E0628B013262831B68002BF9D141F045
:102B00000201218320460FF0C2FA00287AD041F05A
:102B1000200176E0042B0AD121F0070189B221833C
:102B200020460FF0B4FA10B141F020012183218B2F
:102B300001F0070AAA454FD00027B946AAE7236942
:102B400021F0070141F00601062DD3F80090218302
:102B50002DD1B9F1000F3FD041F00801218388F356
:102B60001188BFF36F8F3A492046C84729E021F00A
:102B70000701236941F0040189B2042DD3F80490C0
:102B80002183E6D000273E464FF0040A82E721F079
:102B90000701236941F0050189B2052DD3F808909A
:102BA0002183D6D000273E464FF0050A72E7002762
:102BB0003E464FF0060A6DE72B4687E7B9F1000F56
:102BC000D1D1EFF31188202383F31288BFF36F8FE5
:102BD000238B23F008032383258BEA062ED525F0CB
:102BE0001003238305F007056669218B002EBFF6CD
:102BF00070AF00232768C4E9003321F0070141F0DA
:102C000001012183218B01F0070AAA454FF0000939
:102C10007FF440AF002F9CD041F00801218388F35E
:102C20001188BFF36F8F002FC8D03D6839463346F7
:102C3000524620460FF057FA2F46F4E7AB067FF5D1
:102C40001BAF25F02003238305F0070500E700BF35
:102C5000132101002DE9F0431C461B4B8BB01B6870
:102C600009934FF00003C36A1D686D42064688460B
:102C7000174605F020054CB92046134B1A68099BEE
:102C80005A404FF000031BD011F0B5FDAC42A146F5
:102C900028BFA9464B4601AA414630460FF0DEFA4E
:102CA0000028EAD101AB484502D1241A8044E2E76A
:102CB00013F8012BBA4201D10130F4E70120DCE71F
:102CC0000BB0BDE8F08300BFCC63012070B58389F1
:102CD00005680E0C090C86B003FB0155CDE90453C1
:102CE000104B0393104B0293044600230822CDE9B6
:102CF000003218460D4904220FF0D4FA3604A06AB7
:102D0000A28929460FF038FC50B9E26AA3895279AA
:102D100031462046FFF79EFF002818BF6FF00500E0
:102D200006B070BD736B0100B0690100185101005D
:102D30002DE9F04389B04B8804931D4B03931D4B41
:102D40000293082400230746CDE900340D461846B7
:102D50001949DFF8689004220FF0A4FAF86A2146B6
:102D60000FF0B0FA2C68241A80462C6004EA090699
:102D7000B44203D8002009B0BDE8F083082306AAB6
:102D8000214638460FF06AFA0028F4D106A93846E1
:102D90000FF0A2FA40B1BDF81A30BDF81C202C602B
:102DA00006EA090613441E44A4EB0804E0E700BF4A
:102DB0005E6B0100D1690100185101000000FFFFA6
:102DC0002DE9F043074622488BB0904600680990F1
:102DD0004FF000001E464BB900201D4B1A68099B9E
:102DE0005A404FF000032FD011F005FD3C68BB891D
:102DF000080C14FA81F100FB0314FB6A1D686D4294
:102E000035400CD0B86A83682146D3F804902B462D
:102E1000C8470028E1D1761BDED02C44A8443246B6
:102E2000414601A811F07EFEFD6A2A68697901AB6E
:102E30009819921B11F084FEB86A2B6882682146AB
:102E4000556801AAA847C8E70BB0BDE8F08300BFEA
:102E5000CC63012070B588B083880493114B039331
:102E6000114B02930025044608230422CDE90053A8
:102E70000E492B4628460FF015FA4FF6FF76A36849
:102E8000ADF81A3006A8ADF81860ADF81C508DF8F2
:102E90001E600FF0FEF906A920460FF0A4FA08B054
:102EA00070BD00BF436B0100F869010018510100BB
:102EB00073B504460821C06A124E0FF003FA4FF6AC
:102EC000FF726368ADF800208DF80620A2891918FA
:102ED00033401344181A002560606846ADF80210AC
:102EE000ADF804500FF0D5F9694620460FF07BFA93
:102EF0002046211D0FF0C0F9636828463340A360C7
:102F000002B070BD0000FFFF2DE9F04F754B044685
:102F10009BB0C06A08211B6819934FF000030FF0A3
:102F2000D1F963681B0C1B04054608A920460893C9
:102F30000FF0A2F9DDF820B0A6895E44761B0BAA3B
:102F400008233146204609960FF088F9021EC0F288
:102F5000BB80E36A0BAA5979002312F8010B814266
:102F600040F0A1800133082BF7D1A36862682B449D
:102F70009A4280F0908059462046FFF7A7FE02460D
:102F8000A2E0BDF82E30360C36041E4409960DAA78
:102F900009A92046DDF824A00FF0DBF9024600283D
:102FA00040F092800DA920460FF096F918B9079BC2
:102FB0005345ECD1D9E763680A930FAA0AA92046C2
:102FC0000A9E0FF0C6F9024600287DD1BDF83C20CC
:102FD000BDF834309A4238D062680A9B9A42ECD1EC
:102FE000B245E4D1BDF83830002BE0D00593BDF8F0
:102FF000343004933C4B03933C4B02930822002350
:10300000CDE9003218463A4904220FF04BF9BDF8D9
:1030100036704FEA1A431B041F440DA8A368ADF88D
:1030200036300FF036F9E36ABDF838901E68764204
:1030300006F02006B9F1000F0ED10DA920460FF0C1
:10304000D2F902460028B2D03EE00FA920460FF088
:1030500043F90028C0D0C3E74E45B04628BFC84654
:1030600011AA4346394620460FF0F8F8024658BBED
:103070004346A16811AA2046FFF7A2FE4146024638
:10308000E06A0FF01FF9A3680344A360E2B9A9EB5B
:1030900008094744CEE72046FFF7DCFE0246002839
:1030A0003FF469AF10E0731B0BA9204607930FF0A4
:1030B00032F900287FF465AF09A92046FFF738FEF2
:1030C000024600283FF463AF064B1968199B59402C
:1030D0004FF0000301D011F08EFB10461BB0BDE88D
:1030E000F08F00BFCC630120576B0100156A01000F
:1030F000185101002DE9F04704468EB000F1140785
:10310000384611F044FAA06A8368DB6898470346A2
:10311000E06230B9904A0090CDE901028F49012266
:103120000FE0A06A8368DB6898470368013B1F2BA8
:103130000FD98B4B02930023CDE90033874901223D
:1031400018460FF0AFF86FF0150528460EB0BDE831
:10315000F087A06A21680BAA10F04CFE08B1814BE1
:10316000E8E7A5892DB10C9BB5FBF3F203FB1255E3
:103170000DB17D4BDEE7E389012B05D87B4B009534
:10318000CDE901532B46C9E7E36A069593F805900C
:103190004FF0FF334FF0FF3238460CF091FFE06AFA
:1031A00008210FF08FF8A8460646E3891FFA85FA32
:1031B000534508D8E389434523D138460CF0F8FF3E
:1031C0006FF02C05C1E7A1892B04891B13FA81F14B
:1031D0004A46082320460691FFF73CFD78B106A930
:1031E00020460FF049F808F10108069908234A46DD
:1031F00020461FFA88F8FFF72DFD0028DAD00135A8
:10320000D3E753450BD1069908234A46891B20462C
:10321000FFF720FD18B906A920460FF02DF806A9E2
:103220002046FFF785FD054618B138460CF0C0FF73
:103230008BE7069B63604FEA13484FEA0848C4F8DF
:103240000880D4E9011399420FD3082307AA204626
:103250000FF004F805460028E7D107AB13F8012B5F
:10326000914543D10135082DF8D163681B0C1B042F
:1032700006A9204606930EF0FFFFA38906994A4649
:103280002046FFF7E7FC051ECFDB636800F0828075
:1032900006EB03084FF6FF79A389CDF818801FFAD3
:1032A00088F29B1B9A423DD3314B02930023184670
:1032B000CDE90033294903220EF0F4FF616820466E
:1032C000FFF704FD05460028AFD16368294AA189AC
:1032D00013400B44A3EB460363601340A3602046F6
:1032E000FFF712FE0546002D70D09EE707A9204685
:1032F0000EF0F2FF626810B9921B6260A1E7BDF8A0
:103300002050BDF81E10E06AC4F8088029440EF071
:10331000D9FF40449042A060EED1002DECD06FF078
:103320001C0590E0082309AA414620460EF096FFAE
:10333000054600287FF479AF09A920460EF0CCFF9E
:1033400038B1BDF824304B4503D1BDF82830002BEF
:103350007FD0B044A0E700BF3F6A010018510100D0
:10336000616A01007E6A0100966A0100AA6A010092
:10337000076B01000000FFFF5B1A4A462046FFF77B
:1033800069FC051EFFF651AF08D0E26AA368126817
:103390001344A360D4E901318B42EDD86168A3895D
:1033A00001EB46029A429ED1DFF8D480A26801EA7E
:1033B00008039A4297D02046FFF788FC054600286C
:1033C0007FF433AF636803EA0803A360A389A2888C
:1033D000A3EB46039A4232D038460CF0E9FE0123B3
:1033E0002374A3890493E38903930025254B029357
:1033F00028462B46CDE90055234903220EF052FF03
:103400006368214900959AB21B0C03931F4B0492E9
:10341000CDE9015328462B4603220EF043FFA36853
:10342000194900959AB21B0C0393194B0492CDE9EC
:10343000015303222B4628460EF034FF85E6204632
:10344000FFF708FD054638460CF0B2FE002DC6D049
:103450007BE6104B0C490095CDE9015303222B4626
:1034600028460EF01FFF63681B0C1B0406A92046AC
:1034700006930EF001FF06992046FFF727FC31E77F
:103480000000FFFFCD6A010018510100E46A01004D
:10349000F66A01002E6B01002DE9F04F97B01D4632
:1034A000704B069104921B6815934FF00003037C48
:1034B0000446A3B96C4A6D490093CDE90132184620
:1034C00001220EF0EFFE6FF00C06664B1A68159B9A
:1034D0005A404FF0000300F0C08011F08CF9C26A2E
:1034E000082110460EF0EEFE2946059010460EF01B
:1034F000E9FEA389059AA3EB8203AB420746C0F01D
:10350000A9801DB1049B002B00F0A4806368089380
:1035100009AA08A92046DDF820A00EF01AFF0646E9
:103520000028D2D1BDF82430069A934206D06268B2
:10353000089B9A42ECD1002D36D1C6E709A9204656
:103540000EF0CAFE0028F2D0BDF82680BDF8283063
:1035500045B39D4228D1E36ADDF810B01B684FEAFD
:103560001A4A5B424FEA0A4A03F02003D044079309
:10357000AA46DDF81C90D14528BFD1464B460DAA7E
:10358000414620460EF06AFE00284AD14A460DA95F
:10359000584611F0DDFA38B9BAEB090AC844CB44F1
:1035A000E7D192E7002B90D0002F3DD1B84604F12F
:1035B000140A4FF0FF324FF0FF3350460CF080FDFD
:1035C000E3899E4243D0A168626808EB01039A42F6
:1035D0002FD3069BADF82C30FF238DF83230049AA0
:1035E000ADF82E102B462046ADF83050FFF7E8FB23
:1035F00029460746E06A0EF065FEA3680344A3600F
:1036000057B90BA80EF045FE0BA920460EF0EBFEB5
:10361000002814BF07462F4650460CF0C9FD3E4611
:1036200053E7C1DC064650E7059B1F441FFA87F8A5
:10363000BDE72046FFF73CFC07460028ECD12046BA
:10364000FFF762FC07460028E6D10136B8E76FF0C5
:103650001B07E1E76FF0150637E7304617B0BDE806
:10366000F08F00BFCC6301202B6A010018510100CC
:103670002DE9F0471E4688B0037CBDF84090044613
:103680000F4690466BB92F4A2F490093CDE901327E
:10369000184601220EF006FE6FF00C0008B0BDE8DF
:1036A000F087C06A08210EF00DFEA389A3EB40034A
:1036B000B34243D3D4F804A0CDF814A000254D455F
:1036C0005146DDF814A009D9636853451ED1BDF8F1
:1036D0001830BB421AD06FF00100DFE706AA05A937
:1036E00020460EF036FE0028D8D1BDF81830BB4277
:1036F00006D106A920460EF0EFFD08B10135ADB2A6
:103700006268059B9A42DAD15146E0E7BDF81C3069
:10371000002BE0D0A945DED8BDF81A00090CB34251
:103720004FEA014128BF33460144424620460EF08D
:1037300095FD0028B2D1BDF81C00AFE76FF0150071
:10374000ACE700BF2B6A0100185101002DE9F84FCA
:1037500081462F480F460EF062FE064670B92D4C8A
:10376000DFF8B4A00546A0464FF0010B544507D33F
:10377000B9F1000F02D04FF0010AE5B9BDE8F88FAA
:10378000237B6BB12368DB680BB120469847236825
:103790001B6943B9636804221968204600F0C8F821
:1037A00001361034E2E7204698470028F2D00BFAA1
:1037B00006F31D43F4E7A94695FAA5F4B4FA84F498
:1037C0000AFA04F3260108EB04146FEA030B25EA56
:1037D0000305237B63B158F806301B6993B946444F
:1037E000042273682046196809EA0B0900F0A0F862
:1037F000002DE1D127B14FF4A470002110F0C0FFDB
:103800004D46BAE7204698470028F1D1E7E700BFC8
:1038100020130020D8510100E8510100014B53F85A
:10382000200070471053010008B5034608462BB12D
:10383000044A136000F092FA002008BD6FF01500F2
:10384000FBE700BFDC040020054A06480023137094
:10385000054A1360054A4FF400411360FFF7E4BFC7
:10386000AC2C00201B240100181300201C13002086
:1038700070B50B4D297841B90120FFF767FF094C5E
:10388000094EB44202D301232B7070BD63685B798B
:103890001BB1236820469B6898471034F1E700BFAE
:1038A000AC2C0020D8510100E851010010B50446AD
:1038B00008480EF0B4FD5CB1BFF35B8F064B53E8D4
:1038C000001F013943E80012002AF8D1BFF35B8FD3
:1038D00010BD00BF181300201C13002070B50A4B48
:1038E0000A4C1B680A4E05469847A860B44200D3AC
:1038F00070BD63685B7923B1236829461B68204645
:1039000098471034F2E700BFDC040020D8510100D2
:10391000E8510100044A054B9B1AB1EBD30F34BFA9
:1039200052F8310000207047E0500100D8510100EA
:10393000084BC31A10B41B11446801332371436848
:103940009A7143681960436801225A7110BC0EF0E5
:1039500088BD00BFD85101002DE9F04F87B004AFFA
:10396000D7E90EA993462C4A3D6B04460E4698466D
:1039700012687A604FF00002BAF1000F23D0C7F846
:103980000090CDF8009010217A6B53460020FEF78E
:103990003DFEB0F5006F014616D340F2FF7303936E
:1039A0001E4B02930023CDE900331D490222184625
:1039B0000EF073FD184B1A687B685A404FF00003F5
:1039C00026D010F018FF514604F007040BF0070B47
:1039D000E40044EA8B1444EA412444EA05541735D0
:1039E0000D4425F00705ADEB050D04ADBAF1000F50
:1039F00007D0CDF800907A6B534605F11000FEF722
:103A000005FE43462246314628460EF02DFDD1E7FD
:103A10000C37BD46BDE8F08FCC6301209E6B0100E2
:103A200038510100406820B1034BC01A40F3CF0069
:103A300070474FF0FF307047E05001000EB403B5FF
:103A400003AB014653F8042B0448019301F0BEF97F
:103A500002B05DF804EB03B0704700BFD72401004B
:103A6000CA0605D48B064CBF02490349FFF7E6BFDF
:103A7000704700BFD76B0100D66B01002DE9F04FF6
:103A800087B004469DF844600D4690469946002E46
:103A900000F0A280159B03F0020A03F001030493D7
:103AA000159B03F0080B03F4807305930EF0DAFC0A
:103AB000024600283DD095492046FFF7BFFF074644
:103AC000BAF1000F09D0159B13F0440F33D1904980
:103AD0002A462046FFF7B2FF0744049B53B18D4BA3
:103AE0008D4953F826208D4B2046002A08BF1A46E0
:103AF000FFF7A4FF059B002B49D0BBF1000F64D159
:103B0000B8F1000F66D0864942462046FFF796FF7F
:103B10000546129B3D44002B6DD1149B002B73D1A5
:103B2000159BDB0700F1EB8015992046FFF798FF06
:103B3000D8E00746C4E77B4B18680028CCD07A4B06
:103B40004FF47A7A1B68B5FBF3F54FF46163B5FB6C
:103B5000F0F100FB11550AFB05F54FF03C0CB1FBF1
:103B6000F3F203FB1211B5FBF0FEB1FBFCF300FB1B
:103B70001E550CFB13110AFB05F50091B5FBF0F582
:103B80006A49CDE901E52046FFF758FFA4E7BBF1FC
:103B9000000F1DD0664B674953F826202046FFF7DB
:103BA0004DFF0546B8F1000F05D05D49424620465D
:103BB000FFF744FF0544B9F1000FAAD05E494A4619
:103BC0002046FFF73BFF0544A3E74FF00009E1E77C
:103BD0005D46E7E745469CE7B9F1010F129B06D128
:103BE000002B66D1149B002B7CD000250CE0002B11
:103BF000F8D052485EE05248129B524922460EF0DD
:103C000008FA149B002B6AD0DFF83C81DFF83C9166
:103C1000149F1599102F204628BF1027FFF720FF6B
:103C20004FF0000B5D4547DC139B49461A78204650
:103C3000FFF704FF4FF0010B1BF0070F03D14146C4
:103C40002046FFF7FBFE5F453DD9139B494613F81D
:103C50000B202046FFF7F2FE0BF1010BBBF1100F1A
:103C6000EAD13B49DFF8ECB020464FF0000AFFF7FD
:103C7000E5FE5246139B9A5CA2F120015F2928BF02
:103C80002E2259462046FFF7D9FE0AF1010ABAF161
:103C9000100F1DD01AF0070F03D141462046FFF741
:103CA000CDFE57455246E5D841462046FFF7C6FEB1
:103CB000EBE7234835469FE741462046FFF7BEFE27
:103CC0000BF1010BAEE724492046FFF7B7FEC3E72F
:103CD000139B3B441393149BDB1B149398D1002E2E
:103CE0007FF41EAF6268A1682068D2E900230EF05D
:103CF000E4FB636800221A6007B0BDE8F08F074A52
:103D000005492046FFF79AFE0EE700BFDE6B010073
:103D1000E26B01002053010078710100D96B0100B2
:103D2000076C01002813002024130020EB6B010016
:103D3000345301000B6C0100116C0100F3240100ED
:103D4000D7240100CD4D00001E6C0100166C01004F
:103D5000206C0100226C01001C6C0100074A00214C
:103D60000123904206D8064A01B901231360054B8E
:103D70001860704740085B000121F2E740420F00E5
:103D80002413002028130020014B01221A707047D1
:103D9000AD2C0020014B002019607047401300201B
:103DA00010B5064B18680C46FFF738FD2146034650
:103DB000BDE8104002480F22184700BF4013002002
:103DC00064530100F8B5094D094B0A4ED5E9004787
:103DD00001221A700CB92C60F8BD214630463A46D3
:103DE00000F00AF8241A0644F4E700BF3413002058
:103DF000AE2C0020AF2C0020F8B5194D07460E461A
:103E000004243246394600200BF02CFAC8B10123B5
:103E10002B70144B1B782BB93046F8BD5CB92C7055
:103E20004FF0FF3400200BF061FA0028F4D02B781B
:103E3000002BF3D1F0E7013C41F2883010F0E3FAB7
:103E4000F0E72B7813B1013C04D12C702B78002BB8
:103E5000D7D1E1E741F2883010F0D5FAF6E700BF9C
:103E6000AD2C0020AE2C0020014B036000207047D9
:103E70007453010008B504480EF0FCF8BDE8084092
:103E800002480EF0F7B800BF5B6C0100906C0100B7
:103E900001480DF0B3BA00BF7453010038B50446B1
:103EA00018B90F4B0F485B6898476168B1F5683FD8
:103EB00010D0B1F5680F0DD00B4DA9420AD011F406
:103EC0006861206807D00146084810F009FB00230C
:103ED0002360656038BD142210F032FEF9E700BFA0
:103EE00020060020BE6C01002C5F5CA94418002055
:103EF00008B520B34368B3F5683F10D101220368C9
:103F0000BFF35B8F53E8001F002903D143E8002073
:103F10000028F7D1BFF35B8F0DD1002008BD094AFF
:103F200093420AD000684FF0FF324FF0FF330CF09D
:103F3000C7F80028F1D00448F0E70448EEE76FF432
:103F4000E040EBE72C5F5CA9E98FFFFFEA8FFFFF02
:103F500008B5D8B14368B3F5683F10D100220368B3
:103F6000BFF35B8F53E8001F012903D143E8002012
:103F70000028F7D1BFF35B8F0BD1002008BD074AA3
:103F8000934208D000680CF013F9F6E76FF4E040B4
:103F9000F4E70348F2E70348F0E700BF2C5F5CA9B1
:103FA000E98FFFFFEA8FFFFF10B5044618B91D4BDC
:103FB0001D485B6898476368B3F5683F2FD0B3F539
:103FC000680F2CD0194A934219D1236803BB1848B3
:103FD0004FF0FF324FF0FF3321460BF087FF08B957
:103FE00023681BB90F4B13485B689847206814225D
:103FF000002110F0A5FD4FF46863636008E0B3F59D
:10400000683F0DD83A2B03D040F6BA629342DED116
:10401000206810F0BCFA636843F03A03636010BD97
:10402000054AF3E720060020BE6C01002C5F5CA966
:1040300044180020E46C01003A00003A08B5064933
:1040400006484023142210F03DFABDE80840044918
:1040500004480DF045BA00BF441300204418002066
:104060007C5301009053010070B5064686B00D46A2
:10407000002938D08B6805934B6804930B68039331
:104080000024244B24490293012223462046CDE9F3
:1040900000440EF089FA6B6905932B690493EB6871
:1040A00003931E4B1C490094CDE901430122234692
:1040B00020460EF079FAEB690393194B16490094E8
:1040C000CDE901430122234620460EF06DFAAB698B
:1040D0000393144B10490094CDE901430122234678
:1040E00020460EF061FA012E0DD1EFF30583103B4F
:1040F00003930D4B02930023CDE90033064932466A
:1041000018460EF051FA2946304606B0BDE8704018
:104110000BF004BD116D010090510100406D0100D4
:104120006F6D01007E6D0100AC6D010030BFFFF7C7
:10413000FDBF00BF2DE9F0410B4EDFF8308006EBEC
:104140000807CC1B054632460949204610F0EAFC18
:10415000A01942460021083C10F0F2FC6C6707F100
:104160000800BDE8F08100BF00000000040000006E
:10417000E8510100074A936893F90E10002907DB04
:10418000526993421FBF044A536843F080535360FF
:10419000704700BF942A002000ED00E0F0B585B024
:1041A0000024434B0293CDE90044234607460E46C4
:1041B0000122404920460EF012FA3F4B9B6ADB0475
:1041C00065D53E4B3B490094CDE90143204623464B
:1041D00001220EF004FA1720374B9B6A1D050AD501
:1041E000374B029300231846CDE9003331490122B1
:1041F0000EF0F5F91820304DAB6A9C051FD5002450
:10420000304B0293012223462046CDE90044294940
:104210000EF0E5F9AB6BAA6A10040FD503932A4B95
:1042200024490094CDE901430122234620460EF0A3
:10423000D6F91FB1AB6A23F40043AB6219201E4BC1
:104240009B6A59050AD5214B029300231846CDE9F4
:104250000033184901220EF0C2F91A20164A936A57
:1042600013F4807315D01A4B029300231846CDE93E
:104270000033104901220EF0B2F91B200E4A936A56
:1042800043F47F4393620023337005B0F0BD1620E2
:10429000A2E7926A9204F1D50E4A06490093CDE94D
:1042A0000132184601220EF09AF91C20E6E700BF01
:1042B000BF6D01009051010000ED00E0D56D0100DF
:1042C000E66D0100F96D0100126E0100276E01001C
:1042D000426E01005A6E01001FB50024374B029355
:1042E00001222346CDE90044354920460EF077F9F6
:1042F000344B9B6A9A015ED5334B31490094CDE92A
:1043000001432046234601220EF069F91E202D4B61
:104310009B6ADB010AD52D4B029300231846CDE999
:104320000033274901220EF05AF91F20254B9B6AC2
:104330001C030AD5264B029300231846CDE900330F
:104340001F4901220EF04BF921201E4B9B6A590395
:104350000AD5204B029300231846CDE900331849B3
:1043600001220EF03CF92220164B9B6A9A030AD5D3
:10437000194B029300231846CDE90033104901225E
:104380000EF02DF923200F4B9B6ADB030AD5134B4C
:10439000029300231846CDE90033094901220EF0AB
:1043A0001EF92420074A936A6FEA03436FEA134316
:1043B000936204B010BD1D20A9E700BF896E010003
:1043C0009051010000ED00E0A16E0100B46E01000B
:1043D000CE6E0100EC6E0100116F01002B6F010029
:1043E0002DE9F04385B000244D4B0293CDE9004404
:1043F00023468046894616464A49012220460EF049
:10440000EEF8494B9B6ADF0640D5484B0094CDE956
:10441000014320462346434901220EF0E0F81124CF
:10442000414B9B6A1D070AD5414B02930023CDE9FE
:1044300000333C49012218460EF0D1F812243A4DBF
:10444000AB6A980724D500243A4B36490293CDE94C
:1044500000442346012220460EF0C1F86F6BAB6A80
:10446000190659D5344B2F490397CDE901430094E0
:104470002346012220460EF0B2F8B9F1000F03D016
:10448000AB6A23F08003AB62132403E01024C7E778
:104490006FF01507244B9B6ADA070AD5274B029366
:1044A0000023CDE900331F49012218460EF097F88A
:1044B00014241D4B9B6A9B060AD5214B02930023B3
:1044C000CDE900331749012218460EF088F815246B
:1044D000154B9A6AD50602D49A6A90070AD55B688A
:1044E000190507D54146384600F098FA10B180F317
:1044F000098802240C4B9A6A920642BF5A6A22F437
:1045000000525A629A6A42F0FF029A6220460023E1
:10451000337005B0BDE8F0836FF01507B4E700BF56
:10452000566F01009051010000ED00E06C6F01003A
:10453000E66D01009F6F0100B76F0100CD6F0100B4
:104540005A6E01002DE9F041754B5F6890B004464A
:10455000C7F30806002383F31188BFF36F8F02F0BF
:104560007F40B0F17F4F0CD102F00C00082819D128
:104570006C4A6D490093CDE90132184601220EF0D4
:104580002EF800252C464FF00008F31E8DF81F80F2
:10459000092B00F2AC80DFE803F00BA0A49CAAAAD0
:1045A000AAAAAAA8120746BF0C461D460125EAE79B
:1045B0005E4B5D495A4FCDF80080CDE90183002361
:1045C000012218460EF00BF88DF81F80FE6A16F0D7
:1045D000020605D0564BCDF80080CDE9018306E0F8
:1045E000FB6A002B0BDA534B0096CDE901630023E5
:1045F0004D49012218460DF0F2FF00223BE0FB6A14
:104600005B00FAD54C4B48490096CDE90163012285
:10461000334630460DF0E3FF7B69A26943F48073B3
:104620007B61BFF34F8FBFF36F8F7B6932F8022C32
:1046300023F480737B61BFF34F8FBFF36F8F4DF611
:1046400002739A420AD0BB6ADBB2002B33D00DF161
:104650001F0201212046FFF7C3FE3CE023680393BD
:10466000364B31490096CDE901630122334630468D
:104670000DF0B5FF22689DF81F30CBB908AE04F1EC
:10468000200720686168334603C30834BC421E46D5
:10469000F7D10F9B002D3ED0C3F3080121B96FEA7B
:1046A00053236FEA43230F9308A91046FFF7DCFC5E
:1046B00010B0BDE8F081BB6A13F47F4F05D00DF157
:1046C0001F010120FFF76AFD05E0BB6AB3F5803FDB
:1046D00093D3FFF701FE0246CDE70DF11F02002143
:1046E000B8E70DF11F010020ECE7154B73E7154A01
:1046F000154B0D4917F4F87F18BF1346103ECDE94E
:104700000336124B02930023CDE9003301221846F1
:104710000DF065FF71E723F4FF7323F00103C2E797
:1047200000ED00E01A700100905101004570010099
:104730005C7001007D7001008B700100AA700100A7
:10474000C670010001700100EC6F0100EA70010009
:10475000044B5A6942F010025A615A6922F0080269
:104760005A61704700ED00E0EFF30880EFF3098134
:1047700001B57246FFF7E6FE01BD00BF002080F3E1
:104780001488BFF36F8F134880F3088809F068FB23
:10479000002011490860BFF34F8F00F033F820204C
:1047A00080F311880D484FF0AA014FF404620FF016
:1047B0006AFE0A484FF40461401880F30988EFF359
:1047C00014800221084380F31488BFF36F8F00F038
:1047D000EDF80000C01D012094ED00E000D40020A1
:1047E0000749D1F890200023C2F3072218469342CC
:1047F00000DB7047C1F89830C1F8A0000133F6E73C
:1048000000ED00E008B572B6002383F31388FFF7CC
:10481000E7FF144B4FF0FF32C3F88020C3F8842029
:10482000C3F88820C3F88C20C3F89020C3F89420E4
:10483000C3F89820C3F89C20C3F88021C3F88421D2
:10484000C3F88821C3F88C21C3F89021C3F89421C0
:10485000C3F89821C3F89C2162B6BFF34F8FBFF312
:104860006F8F08BD00E100E0084B9B6883420BD1CD
:10487000EFF3058343B1064B5A6842F080525A6009
:104880005A6A22F400425A620CF0C4B9942A0020F9
:1048900000ED00E015498A684FF030001044EFF356
:1048A000098C80E8F01F202080F31288BFF36F8FFF
:1048B0000F4F4FF000664A698A603E604FF0740403
:1048C000141920680B4C2060906F0023936780F3CD
:1048D000118804B5104600F005F9BDE8044002F166
:1048E000300090E8F01F8CF309887047942A00206C
:1048F00004ED00E0601800201EF0040F0CBFEFF381
:104900000880EFF30980816911F8021C0229FFD0A9
:1049100001B572460DF058FE01BD00BF40B200283F
:1049200007DB044A4109012300F01F00834042F8DD
:104930002130704700E100E040B200280CDB430961
:10494000064900F01F0020330122824041F8232055
:10495000BFF34F8FBFF36F8F704700BF00E100E0E0
:10496000054B420900F01F0053F82220012303FAEF
:1049700000F01040704700BF00E100E040B20028A6
:10498000A8BF00F1604001F10101B8BF064B4FEA3A
:104990004111ACBF00F5614000F00F00C9B2B4BFD7
:1049A000195480F80013704714ED00E00B4A08B565
:1049B0000B4B22F07F029A60BFF34F8FBFF36F8FD4
:1049C000D3F8882022F47002C3F888200BF084F911
:1049D0000CF040FA00F05CF80BF0FAF9000000006F
:1049E00000ED00E042F8203C009B42F81C3C0A49E4
:1049F000019B42F8183C029B42F8143C21F0010153
:104A00004FF0807342F8043C42F8081C0023203A1F
:104A100002658367704700BFD9290000094A034631
:104A2000906870B113F1160F406E05D0A0F14002EE
:104A30009A4205D8834203D2814228BF00207047A2
:104A400000207047942A002008B51546094A0A4BF1
:104A50009060426F1A600E4600F044F82C4686F3D0
:104A600009880020054B984720460021002200239A
:104A7000034C2047942A00206018002007260100DC
:104A8000D9290000014B10221A61704700ED00E0A7
:104A9000044800232021C2180133302B82F8001370
:104AA000F9D1704700E100E008B5EFF30583064A4D
:104AB000103B02EBC30152F8330049688847BDE858
:104AC0000840FFF757BB00BF684D0100024B034A87
:104AD0000348012100F096B80000042000000020E7
:104AE000A0530100426E054B403A1A60044A40212F
:104AF000C3E901121846012100F08EB864180020A5
:104B000000000B151FB5144AD2F89030C3F30723E9
:104B1000013B98420FD9114B029300230390CDE93A
:104B2000003318460E4901220DF0A0FD6FF015006C
:104B300005B05DF804FBC2F898000B6823F01F0372
:104B4000034343F01003C2F89C308B6843F0010329
:104B5000C2F8A030ECE700BF00ED00E001710100F9
:104B600070510100F0B50E4689B01F46044600257D
:104B7000B54212DA606838B3BFB1431E18420FD095
:104B8000134B02930023CDE9003312490395012210
:104B900018460DF06BFD6FF01502104609B0F0BD20
:104BA0001F28EDD921680B42EAD1236805930DF047
:104BB0004DFDA36805A90343D0B20793FFF7A2FFF9
:104BC00010F1160FE7D0421C01350C34D0E700BFBE
:104BD0002771010070510100044B0522C3F8942095
:104BE000BFF34F8FBFF36F8F704700BF00ED00E042
:104BF000BFF35F8F024B0022C3F89420704700BFC1
:104C000000ED00E010B5034C01232278FFF7AAFF66
:104C1000207010BDB02C002008B50B4A002312787C
:104C2000FFF7A0FF10F1160F07D0084A0021D2F8B5
:104C30009030C3F30723984200DB08BDC2F8980008
:104C4000C2F8A0100130F2E7B02C002000ED00E027
:104C50002DE9F04357485849D0F890300D68C3F318
:104C600007239D4285B000F2A180FFF7C1FF49688C
:104C70000022954201F10C011AD1504C504F257081
:104C80006846FFF7F1F8DFF83C81DFF83C91064613
:104C90000025AE421FD1237846490020D1F890204C
:104CA000C2F3072293427BDBFFF796FF00204CE024
:104CB000C0F8982051F80C3C23F01F03134343F035
:104CC0001003C0F89C3051F8043C43F00103C0F8D5
:104CD000A0300132CDE7009800EB05114FEA051C2A
:104CE000CB683B40B3F5000F44D00AD8B3F5001FA2
:104CF0002ED0B3F5800F34D0B3F5801F10D001351E
:104D0000C7E7B3F1807F3ED0B3F1007FF7D150F811
:104D10000C3088684A680DF099FC40F4802009E066
:104D200050F80C3088684A680DF090FC40F08850CC
:104D300040F43020039001A92078CDE90123FFF74A
:104D4000E1FE002828DA6FF0150005B0BDE8F08319
:104D500050F80C3088684A680DF078FC40EA08008A
:104D6000E8E750F80C3088684A680DF06FFC40EABC
:104D70000900DFE750F80C3088684A680DF066FCDF
:104D800040F08270D6E750F80C3088684A680DF021
:104D90005DFC40F08870CDE7237801332370AEE7E7
:104DA000C1F89830C1F8A000013377E74FF0FF3029
:104DB000CBE700BF00ED00E0AC530100B02C0020B9
:104DC0000000F0FF0000081100000202F0B587B0FB
:104DD00007460E4614460021102268461D460FF075
:104DE000AFFE02238DF802302A46054B019321467F
:104DF0006846CDE904760CF0A9FC07B0F0BD00BF11
:104E00008D26010008B50649064821F00701C1F1C9
:104E1000005202F580220DF0A4F8002008BD00BF6A
:104E200077640120701800200E4A0123C2F8403533
:104E30004FF080424FF08051C2F87835D1F8300100
:104E4000082808D1D1F83411052904D80648415C56
:104E500009B1C2F838364FF080430122C3F88025EB
:104E60000020704700E001405971010020B1034B60
:104E7000800143F001031847704700BF4052010012
:104E8000BFF34F8F0549064BCA6802F4E062134333
:104E9000CB60BFF34F8F00BFFDE700BF00ED00E028
:104EA0000400FA05024B1B6803B11847FF20704746
:104EB000801800200A4B0B4A0020C3E900000A4B6F
:104EC0001A600A4A5A600A4A9A600A4ADA600A4B29
:104ED0000A4A9860C3E90020094ADA60704700BFB7
:104EE000A4180020C55000009418002009500000AC
:104EF000054F00009926010084180020A54E0000EF
:104F00009B26010030B544788FB00546ACB12046F1
:104F100000F006FB1A4B02930023CDE90033039007
:104F20000122184918460DF0BAFB174B6A781A701F
:104F300016480BF08DF90FB030BD0378052B12D059
:104F4000092B1BD0012BF0D1072304A88DF81030BA
:104F500004F098FA059B03930D4B0094CDE90143AF
:104F600003222346DDE70B4B06490094CDE90143BC
:104F70000322234620460DF092FBD6E7064BF3E7CB
:104F80006371010060510100B12C0020080900206C
:104F90007B71010099710100B971010030B5114CAC
:104FA0008FB02D23054604A88DF8103004F06AFA5E
:104FB0009DF914302278934200D18DB1D8B20A4BBA
:104FC00020701B6803B1984723780393074B029323
:104FD0000023CDE900330649032218460DF05FFB9C
:104FE0000FB030BDB32C00207C180020C971010027
:104FF00060510100034BBFF35B8F1868BFF35B8FF9
:10500000704700BFAC1800202DE9FF4142780446EC
:1050100082B1104600F084FA264B029300230390DD
:10502000CDE900332449012218460DF038FB04B0C5
:10503000BDE8F081FFF7DEFFC10702D51046FFF79C
:10504000ADFFFFF7D7FF83070ED4237F63B1BFF314
:105050005B8F1A4B53E8001F41F0020143E8001236
:10506000002AF7D1BFF35B8F217F63794900012BC1
:1050700008BF41F00101124B1D68CFB2002DD6D000
:10508000083D4FF6FF782B88E078434501D08342F6
:105090000AD1A3680193237B00936E6894F91030C2
:1050A000B4F90E203946B047AD68002DBFD0083D99
:1050B000E9E700BFE171010060510100AC18002078
:1050C000A41800201FB50446407860B100F028FA0B
:1050D0000D4B029300230390CDE900330B490122CD
:1050E00018460DF0DCFAFFF785FFC30702D5002054
:1050F000FFF754FF064B62781A70064804B0BDE80B
:1051000010400BF0A5B800BFFC7101006051010018
:10511000B22C0020F0080020F0B504469FB04FF0FC
:10512000FF324FF0FF3368480AF0CAFF01261D2303
:105130000AA88DF828308DF82C6004F0BBFA257D84
:10514000002D6AD1614B8DF814601B788DF81930F1
:105150000227342314A88DF818708DF8503004F00D
:1051600091F920B35A4B5B490095CDE90153324682
:105170002B4628460DF093FAEA24204600F0C4F9A5
:10518000554B029300230390CDE900331846514953
:1051900001220DF084FA204600F0CEF904460028E2
:1051A0007CD049480BF004F820461FB0F0BD159B99
:1051B000A2899A802369159314A88DF8507004F081
:1051C00079FA03238DF8503014A82368159304F05E
:1051D00071FA09238DF8503014A86368159304F010
:1051E00069FA08238DF8503014A8A368159304F0C9
:1051F00061FA05A804F084FD04460028BDD14FF0F3
:10520000FF3336484FF0FF320BF056F8344B187826
:10521000002843D000F0A2F9C0E7012D51D1352379
:105220008DF8503014A82F4B159304F043FA062341
:105230008DF8503014A80023159304F03BFA07238F
:105240008DF8503014A82368159304F033FA0C231A
:105250008DF8503014A8A368159304F02BFA0D2391
:105260008DF8503014A8A368159304F023FA0E2388
:105270008DF8503014A8A368159304F01BFA0F237F
:105280008DF8503014A86368159304F013FA14A82D
:105290008DF850508DF8545004F00CFAFFF7AAFE28
:1052A000C30709D42D238DF85030084B14A81B7860
:1052B0008DF8543004F0FEF90120FFF76FFE002452
:1052C0006FE76FF015046CE714070020B42C002082
:1052D00014720100605101002E72010008090020C3
:1052E000B12C00200003000100B58BB00246FFF78F
:1052F00081FE00F00100824219D0BFF35B8F124B98
:10530000C2B153E8001F41F0010143E80012002A36
:10531000F7D1BFF35B8F05238DF80030FFF76AFEEE
:1053200000F001008DF80400684604F0C3F90BB0EA
:105330005DF804FB53E8001F21F0010143E800126F
:10534000002AE6D0F6E700BFAC180020F0B507460B
:105350008BB015461C460E4609B9002A5FD131486C
:105360004FF0FF324FF0FF330AF0AAFE04A928469F
:1053700004F026F888B300F0C7F800242A4B039005
:105380000293CDE9004429492346012220460DF02D
:1053900086F901258DF814400794ADF8204005A842
:1053A0008DF8224005F0AAFB044630B300F0ACF8BB
:1053B0001F4B02930023CDE900331C4903900122C7
:1053C00018460DF06CF9204600F0B6F80446154872
:1053D0000AF0EEFE20460BB0F0BD5CB1012C09D006
:1053E000144BADF8205093F900408DF818700796D3
:1053F0000025D4E78DF81440F2E74FF0FF330E4854
:105400004FF0FF320AF058FF0C4B187808B100F04B
:10541000A5F8002D044618BF6FF00A04D7E76FF017
:105420001504D7E7280700204372010060510100EE
:1054300068720100B32C0020F0080020B22C00207C
:1054400000238360054B596800F1080211B9C3E9D4
:10545000002270470A605A60704700BFA4180020FD
:10546000014B1860704700BF7C18002070B51E4EBD
:105470001E4932781E4892B003F0D8FD054680B12F
:1054800000F042F81B4B02930023CDE90033039058
:105490001846194901220DF002F96FF0150012B0FB
:1054A00070BD03F083FF044640B100F02DF8134BAC
:1054B0000390CDE9015300952B46E9E7062306A9A1
:1054C00030788DF818300EF006F90D4BC0B2187018
:1054D0000C4B187030238DF8203008A81423099342
:1054E00004F0E8F82046DAE7A0060020841800203F
:1054F000941800208072010060510100A172010027
:10550000B42C0020B32C002017289ABF024B53F86C
:1055100020000248704700BFA8540100CF7201006C
:105520000F289ABF024B53F820000248704700BF73
:1055300068540100DF7201001628034608D8064AA5
:1055400052F8200030B9002B18BF6FF015007047DB
:105550006FF01500704700BF0C5401000F28034680
:1055600008D8064A52F8200030B9002B18BF6FF057
:10557000150070476FF01500704700BFCC53010055
:1055800001480AF0F5BF00BF00050020014B18607C
:1055900059607047B0180020024B1A685B680260BF
:1055A0000B607047B018002008B50DF099F8024B59
:1055B0001B68C01A08BD00BFB818002001480FF0D2
:1055C0006EB900BFC806002007B5014640F2E730BB
:1055D0004FF47A72002300EBC130490CFAF714FF44
:1055E00002460B4600210020CDE9000102480BF0E5
:1055F000D7FD03B05DF804FBC806002008B50DF028
:105600006FF8014B186008BDB8180020014B1868EE
:10561000704700BFB818002010B5124CBFF35B8F65
:10562000022354E8002F012A03D144E80031002965
:10563000F7D1BFF35B8F0CBF0120002010D10A4BC4
:10564000DB6A9847002344F8403CBFF35B8F54E883
:10565000002F44E800310029F9D1BFF35B8F01200E
:1056600010BD00BF001900201C56010010B5064BEC
:105670005C68FFF7D1FF30B12CB100212046BDE8B6
:1056800010400BF01FBE10BDBC18002013B50D4B11
:10569000D3E901433BB10C4B5B6B0193002002B09B
:1056A000BDE810401847FFF7B7FF40B13CB16FF0BD
:1056B0000401204602B0BDE810400BF003BE02B06A
:1056C00010BD00BFBC1800201C5601002DE9F34797
:1056D000284C9A46D4E9019307460D46164683B1F5
:1056E000254B00205B6B9847E368CDE900A32A4671
:1056F000D4F80880206833463946C04702B0BDE878
:10570000F08704F144020223BFF35B8F52E8001FCD
:10571000012903D142E800300028F7D1BFF35B8FA5
:105720009046EBD1E36C1A78AA4288BF1D70E36CF7
:10573000A06C1A7839460FF0F5F9236D03B11E807D
:10574000636D0BB183F800A00B4BDB6A9847002117
:105750006160BFF35B8F58E8003F48E80012002A01
:10576000F9D1BFF35B8F484602B0BDE8F0470BF0BC
:10577000A9BD00BFBC1800201C560100F0B50446AE
:1057800087B000680E460EF043FE2568034670B9E8
:105790002A6803921E4A1F490090CDE901020122A6
:1057A0000CF0E5FF6FF01205284607B0F0BDE38866
:1057B00021793343D802D5F808C02F6906D513F4F0
:1057C000402F03D0DA0748BF83F44023386801260E
:1057D00023F480128E40DB074CBF3043B043386067
:1057E000DCF800302846984705460028DCD00590B4
:1057F00023790493236807491B680393064B02939C
:105800000023CDE90033012218460CF0B0FFCBE7AE
:1058100067750100C85101008075010070B50D4623
:105820000F49BFF35B8F012051E8004F002C03D1DB
:1058300041E80006002EF7D1BFF35B8F0CD1094E73
:1058400041F8403CD4B2736D214698472846B36A6C
:1058500021469847002070BD6FF00F00FBE700BFA6
:10586000001900201C5601002DE9F04700258EB0DC
:1058700005ACDFF8BC8081468A46174629461022CF
:1058800009A80126CDE90544CDE907550FF058F9DF
:105890008DF83160D8F834300D94002B45D0234674
:1058A0003A4651464846FFF7B9FF041E39DBFFB2BE
:1058B000CDE901570396B8F83C301E4C009398F898
:1058C0003A3098F8392098F83810646A3046A04782
:1058D000014640F2E7304FF47A72002300EB0140BA
:1058E000C1F30E41FAF790FD02460B46314609A876
:1058F0000BF090FC041E14DA0F4B10490095CDE913
:10590000015332462B4628460CF031FFFFF784FE48
:1059100038B94FF0FF324FF0FF33314609A80BF092
:1059200079FC20460EB0BDE8F0876FF01504F8E76B
:10593000BC1800201C560100A0750100C8510100D0
:10594000F0B591B000248DF8172007AD0F46102256
:1059500021460BA8CDE90755CDE9094401260FF0F2
:10596000EFF82C4B8DF839600F95BFF35B8F53E840
:10597000002FA24203D143E800610029F7D1BFF311
:105980005B8F43D10DF1170243E910549A60224D09
:10599000189ADA60199A1A615F60FF216B6D3046C0
:1059A00098476B6B20469847DDE9162331460BA8D4
:1059B0000BF030FC051E1ADAFFF72EFE50B94FF03F
:1059C000FF324FF0FF3331460BA80BF023FC9DF85C
:1059D000175009E0114B12490094CDE9014303220D
:1059E000234620460CF0C3FE284611B0F0BD0A9BAA
:1059F000002BECDA0B4B0A490094CDE90143324607
:105A0000234620460CF0B3FE0A9DEDE76FF00F052C
:105A1000EAE700BF001900201C560100BC75010018
:105A2000C8510100CC75010010B529B9FFF7F4FD8C
:105A3000D8B96FF0150010BD0E4BBFF35B8F01207E
:105A400053E8004F002C04D143E8000CBCF1000FD8
:105A5000F6D1BFF35B8F0AD1074C43E90F12636D98
:105A6000FF219847636B002098470020E3E76FF021
:105A70000F00E0E7001900201C560100F0B52C4D86
:105A8000BFF35B8F8BB00C46012755E8003F002B1E
:105A900003D145E80072002AF7D1BFF35B8F43D1F1
:105AA000244E2068F3689847E37A4BB32346103DB1
:105AB00004F11007186859682A4603C20833BB422C
:105AC0001546F7D14FF47A63089300220120237B17
:105AD0000793CDE90522CDE9032023890293A37919
